{
	"src/admins/Roles.sol": {
		"Roles": {
			"abi": [
				{
					"inputs": [],
					"stateMutability": "nonpayable",
					"type": "constructor"
				},
				{
					"inputs": [],
					"name": "ADMIN1",
					"outputs": [
						{
							"internalType": "address",
							"name": "",
							"type": "address"
						}
					],
					"stateMutability": "view",
					"type": "function"
				},
				{
					"inputs": [
						{
							"internalType": "address",
							"name": "newAdmin",
							"type": "address"
						}
					],
					"name": "addAdmin",
					"outputs": [],
					"stateMutability": "nonpayable",
					"type": "function"
				},
				{
					"inputs": [
						{
							"internalType": "address",
							"name": "",
							"type": "address"
						}
					],
					"name": "isAdmin",
					"outputs": [
						{
							"internalType": "bool",
							"name": "",
							"type": "bool"
						}
					],
					"stateMutability": "view",
					"type": "function"
				},
				{
					"inputs": [
						{
							"internalType": "address",
							"name": "_addr",
							"type": "address"
						}
					],
					"name": "isProtocolContract",
					"outputs": [
						{
							"internalType": "bool",
							"name": "",
							"type": "bool"
						}
					],
					"stateMutability": "view",
					"type": "function"
				},
				{
					"inputs": [
						{
							"internalType": "address",
							"name": "",
							"type": "address"
						}
					],
					"name": "protocolContracts",
					"outputs": [
						{
							"internalType": "bool",
							"name": "isProtocolContract",
							"type": "bool"
						},
						{
							"internalType": "string",
							"name": "name",
							"type": "string"
						},
						{
							"internalType": "string",
							"name": "description",
							"type": "string"
						}
					],
					"stateMutability": "view",
					"type": "function"
				},
				{
					"inputs": [
						{
							"internalType": "address",
							"name": "_newContractAddress",
							"type": "address"
						},
						{
							"internalType": "string",
							"name": "_name",
							"type": "string"
						},
						{
							"internalType": "string",
							"name": "_description",
							"type": "string"
						}
					],
					"name": "setProtocolContract",
					"outputs": [],
					"stateMutability": "nonpayable",
					"type": "function"
				}
			],
			"devdoc": {
				"kind": "dev",
				"methods": {},
				"version": 1
			},
			"evm": {
				"assembly": "    /* \"src/admins/Roles.sol\":60:1507  contract Roles {... */\n  mstore(0x40, 0x80)\n    /* \"src/admins/Roles.sol\":386:440  constructor(){... */\n  callvalue\n  dup1\n  iszero\n  tag_1\n  jumpi\n  0x00\n  dup1\n  revert\ntag_1:\n  pop\n    /* \"src/admins/Roles.sol\":428:432  true */\n  0x01\n    /* \"src/admins/Roles.sol\":410:417  isAdmin */\n  0x00\n    /* \"src/admins/Roles.sol\":410:425  isAdmin[ADMIN1] */\n  dup1\n    /* \"src/admins/Roles.sol\":335:377  0x132adfe17b67f91573f3853DB9682D9E937e3C91 */\n  0x132adfe17b67f91573f3853db9682d9e937e3c91\n    /* \"src/admins/Roles.sol\":410:425  isAdmin[ADMIN1] */\n  0xffffffffffffffffffffffffffffffffffffffff\n  and\n  0xffffffffffffffffffffffffffffffffffffffff\n  and\n  dup2\n  mstore\n  0x20\n  add\n  swap1\n  dup2\n  mstore\n  0x20\n  add\n  0x00\n  keccak256\n  0x00\n    /* \"src/admins/Roles.sol\":410:432  isAdmin[ADMIN1] = true */\n  0x0100\n  exp\n  dup2\n  sload\n  dup2\n  0xff\n  mul\n  not\n  and\n  swap1\n  dup4\n  iszero\n  iszero\n  mul\n  or\n  swap1\n  sstore\n  pop\n    /* \"src/admins/Roles.sol\":60:1507  contract Roles {... */\n  dataSize(sub_0)\n  dup1\n  dataOffset(sub_0)\n  0x00\n  codecopy\n  0x00\n  return\nstop\n\nsub_0: assembly {\n        /* \"src/admins/Roles.sol\":60:1507  contract Roles {... */\n      mstore(0x40, 0x80)\n      callvalue\n      dup1\n      iszero\n      tag_1\n      jumpi\n      0x00\n      dup1\n      revert\n    tag_1:\n      pop\n      jumpi(tag_2, lt(calldatasize, 0x04))\n      shr(0xe0, calldataload(0x00))\n      dup1\n      0x17655bb8\n      eq\n      tag_3\n      jumpi\n      dup1\n      0x24d7806c\n      eq\n      tag_4\n      jumpi\n      dup1\n      0x70480275\n      eq\n      tag_5\n      jumpi\n      dup1\n      0x99827d59\n      eq\n      tag_6\n      jumpi\n      dup1\n      0x9feb2c45\n      eq\n      tag_7\n      jumpi\n      dup1\n      0xb4934f87\n      eq\n      tag_8\n      jumpi\n    tag_2:\n      0x00\n      dup1\n      revert\n        /* \"src/admins/Roles.sol\":667:720  mapping(address => Contract) public protocolContracts */\n    tag_3:\n      tag_9\n      0x04\n      dup1\n      calldatasize\n      sub\n      dup2\n      add\n      swap1\n      tag_10\n      swap2\n      swap1\n      tag_11\n      jump\t// in\n    tag_10:\n      tag_12\n      jump\t// in\n    tag_9:\n      mload(0x40)\n      tag_13\n      swap4\n      swap3\n      swap2\n      swap1\n      tag_14\n      jump\t// in\n    tag_13:\n      mload(0x40)\n      dup1\n      swap2\n      sub\n      swap1\n      return\n        /* \"src/admins/Roles.sol\":565:604  mapping(address => bool) public isAdmin */\n    tag_4:\n      tag_15\n      0x04\n      dup1\n      calldatasize\n      sub\n      dup2\n      add\n      swap1\n      tag_16\n      swap2\n      swap1\n      tag_11\n      jump\t// in\n    tag_16:\n      tag_17\n      jump\t// in\n    tag_15:\n      mload(0x40)\n      tag_18\n      swap2\n      swap1\n      tag_19\n      jump\t// in\n    tag_18:\n      mload(0x40)\n      dup1\n      swap2\n      sub\n      swap1\n      return\n        /* \"src/admins/Roles.sol\":1233:1359  function addAdmin(address newAdmin) public {... */\n    tag_5:\n      tag_20\n      0x04\n      dup1\n      calldatasize\n      sub\n      dup2\n      add\n      swap1\n      tag_21\n      swap2\n      swap1\n      tag_11\n      jump\t// in\n    tag_21:\n      tag_22\n      jump\t// in\n    tag_20:\n      stop\n        /* \"src/admins/Roles.sol\":302:377  address public constant ADMIN1 = 0x132adfe17b67f91573f3853DB9682D9E937e3C91 */\n    tag_6:\n      tag_23\n      tag_24\n      jump\t// in\n    tag_23:\n      mload(0x40)\n      tag_25\n      swap2\n      swap1\n      tag_26\n      jump\t// in\n    tag_25:\n      mload(0x40)\n      dup1\n      swap2\n      sub\n      swap1\n      return\n        /* \"src/admins/Roles.sol\":1367:1504  function isProtocolContract(address _addr) public view returns(bool){... */\n    tag_7:\n      tag_27\n      0x04\n      dup1\n      calldatasize\n      sub\n      dup2\n      add\n      swap1\n      tag_28\n      swap2\n      swap1\n      tag_11\n      jump\t// in\n    tag_28:\n      tag_29\n      jump\t// in\n    tag_27:\n      mload(0x40)\n      tag_30\n      swap2\n      swap1\n      tag_19\n      jump\t// in\n    tag_30:\n      mload(0x40)\n      dup1\n      swap2\n      sub\n      swap1\n      return\n        /* \"src/admins/Roles.sol\":729:1225  function setProtocolContract(... */\n    tag_8:\n      tag_31\n      0x04\n      dup1\n      calldatasize\n      sub\n      dup2\n      add\n      swap1\n      tag_32\n      swap2\n      swap1\n      tag_33\n      jump\t// in\n    tag_32:\n      tag_34\n      jump\t// in\n    tag_31:\n      stop\n        /* \"src/admins/Roles.sol\":667:720  mapping(address => Contract) public protocolContracts */\n    tag_12:\n      mstore(0x20, 0x02)\n      dup1\n      0x00\n      mstore\n      keccak256(0x00, 0x40)\n      0x00\n      swap2\n      pop\n      swap1\n      pop\n      dup1\n      0x00\n      add\n      0x00\n      swap1\n      sload\n      swap1\n      0x0100\n      exp\n      swap1\n      div\n      0xff\n      and\n      swap1\n      dup1\n      0x01\n      add\n      dup1\n      sload\n      tag_35\n      swap1\n      tag_36\n      jump\t// in\n    tag_35:\n      dup1\n      0x1f\n      add\n      0x20\n      dup1\n      swap2\n      div\n      mul\n      0x20\n      add\n      mload(0x40)\n      swap1\n      dup2\n      add\n      0x40\n      mstore\n      dup1\n      swap3\n      swap2\n      swap1\n      dup2\n      dup2\n      mstore\n      0x20\n      add\n      dup3\n      dup1\n      sload\n      tag_37\n      swap1\n      tag_36\n      jump\t// in\n    tag_37:\n      dup1\n      iszero\n      tag_38\n      jumpi\n      dup1\n      0x1f\n      lt\n      tag_39\n      jumpi\n      0x0100\n      dup1\n      dup4\n      sload\n      div\n      mul\n      dup4\n      mstore\n      swap2\n      0x20\n      add\n      swap2\n      jump(tag_38)\n    tag_39:\n      dup3\n      add\n      swap2\n      swap1\n      0x00\n      mstore\n      keccak256(0x00, 0x20)\n      swap1\n    tag_40:\n      dup2\n      sload\n      dup2\n      mstore\n      swap1\n      0x01\n      add\n      swap1\n      0x20\n      add\n      dup1\n      dup4\n      gt\n      tag_40\n      jumpi\n      dup3\n      swap1\n      sub\n      0x1f\n      and\n      dup3\n      add\n      swap2\n    tag_38:\n      pop\n      pop\n      pop\n      pop\n      pop\n      swap1\n      dup1\n      0x02\n      add\n      dup1\n      sload\n      tag_41\n      swap1\n      tag_36\n      jump\t// in\n    tag_41:\n      dup1\n      0x1f\n      add\n      0x20\n      dup1\n      swap2\n      div\n      mul\n      0x20\n      add\n      mload(0x40)\n      swap1\n      dup2\n      add\n      0x40\n      mstore\n      dup1\n      swap3\n      swap2\n      swap1\n      dup2\n      dup2\n      mstore\n      0x20\n      add\n      dup3\n      dup1\n      sload\n      tag_42\n      swap1\n      tag_36\n      jump\t// in\n    tag_42:\n      dup1\n      iszero\n      tag_43\n      jumpi\n      dup1\n      0x1f\n      lt\n      tag_44\n      jumpi\n      0x0100\n      dup1\n      dup4\n      sload\n      div\n      mul\n      dup4\n      mstore\n      swap2\n      0x20\n      add\n      swap2\n      jump(tag_43)\n    tag_44:\n      dup3\n      add\n      swap2\n      swap1\n      0x00\n      mstore\n      keccak256(0x00, 0x20)\n      swap1\n    tag_45:\n      dup2\n      sload\n      dup2\n      mstore\n      swap1\n      0x01\n      add\n      swap1\n      0x20\n      add\n      dup1\n      dup4\n      gt\n      tag_45\n      jumpi\n      dup3\n      swap1\n      sub\n      0x1f\n      and\n      dup3\n      add\n      swap2\n    tag_43:\n      pop\n      pop\n      pop\n      pop\n      pop\n      swap1\n      pop\n      dup4\n      jump\t// out\n        /* \"src/admins/Roles.sol\":565:604  mapping(address => bool) public isAdmin */\n    tag_17:\n      mstore(0x20, 0x00)\n      dup1\n      0x00\n      mstore\n      keccak256(0x00, 0x40)\n      0x00\n      swap2\n      pop\n      sload\n      swap1\n      0x0100\n      exp\n      swap1\n      div\n      0xff\n      and\n      dup2\n      jump\t// out\n        /* \"src/admins/Roles.sol\":1233:1359  function addAdmin(address newAdmin) public {... */\n    tag_22:\n        /* \"src/admins/Roles.sol\":335:377  0x132adfe17b67f91573f3853DB9682D9E937e3C91 */\n      0x132adfe17b67f91573f3853db9682d9e937e3c91\n        /* \"src/admins/Roles.sol\":1295:1315  msg.sender == ADMIN1 */\n      0xffffffffffffffffffffffffffffffffffffffff\n      and\n        /* \"src/admins/Roles.sol\":1295:1305  msg.sender */\n      caller\n        /* \"src/admins/Roles.sol\":1295:1315  msg.sender == ADMIN1 */\n      0xffffffffffffffffffffffffffffffffffffffff\n      and\n      eq\n        /* \"src/admins/Roles.sol\":1287:1316  require(msg.sender == ADMIN1) */\n      tag_47\n      jumpi\n      0x00\n      dup1\n      revert\n    tag_47:\n        /* \"src/admins/Roles.sol\":1347:1351  true */\n      0x01\n        /* \"src/admins/Roles.sol\":1327:1334  isAdmin */\n      0x00\n        /* \"src/admins/Roles.sol\":1327:1344  isAdmin[newAdmin] */\n      dup1\n        /* \"src/admins/Roles.sol\":1335:1343  newAdmin */\n      dup4\n        /* \"src/admins/Roles.sol\":1327:1344  isAdmin[newAdmin] */\n      0xffffffffffffffffffffffffffffffffffffffff\n      and\n      0xffffffffffffffffffffffffffffffffffffffff\n      and\n      dup2\n      mstore\n      0x20\n      add\n      swap1\n      dup2\n      mstore\n      0x20\n      add\n      0x00\n      keccak256\n      0x00\n        /* \"src/admins/Roles.sol\":1327:1351  isAdmin[newAdmin] = true */\n      0x0100\n      exp\n      dup2\n      sload\n      dup2\n      0xff\n      mul\n      not\n      and\n      swap1\n      dup4\n      iszero\n      iszero\n      mul\n      or\n      swap1\n      sstore\n      pop\n        /* \"src/admins/Roles.sol\":1233:1359  function addAdmin(address newAdmin) public {... */\n      pop\n      jump\t// out\n        /* \"src/admins/Roles.sol\":302:377  address public constant ADMIN1 = 0x132adfe17b67f91573f3853DB9682D9E937e3C91 */\n    tag_24:\n        /* \"src/admins/Roles.sol\":335:377  0x132adfe17b67f91573f3853DB9682D9E937e3C91 */\n      0x132adfe17b67f91573f3853db9682d9e937e3c91\n        /* \"src/admins/Roles.sol\":302:377  address public constant ADMIN1 = 0x132adfe17b67f91573f3853DB9682D9E937e3C91 */\n      dup2\n      jump\t// out\n        /* \"src/admins/Roles.sol\":1367:1504  function isProtocolContract(address _addr) public view returns(bool){... */\n    tag_29:\n        /* \"src/admins/Roles.sol\":1430:1434  bool */\n      0x00\n        /* \"src/admins/Roles.sol\":1453:1470  protocolContracts */\n      0x02\n        /* \"src/admins/Roles.sol\":1453:1477  protocolContracts[_addr] */\n      0x00\n        /* \"src/admins/Roles.sol\":1471:1476  _addr */\n      dup4\n        /* \"src/admins/Roles.sol\":1453:1477  protocolContracts[_addr] */\n      0xffffffffffffffffffffffffffffffffffffffff\n      and\n      0xffffffffffffffffffffffffffffffffffffffff\n      and\n      dup2\n      mstore\n      0x20\n      add\n      swap1\n      dup2\n      mstore\n      0x20\n      add\n      0x00\n      keccak256\n        /* \"src/admins/Roles.sol\":1453:1496  protocolContracts[_addr].isProtocolContract */\n      0x00\n      add\n      0x00\n      swap1\n      sload\n      swap1\n      0x0100\n      exp\n      swap1\n      div\n      0xff\n      and\n        /* \"src/admins/Roles.sol\":1446:1496  return protocolContracts[_addr].isProtocolContract */\n      swap1\n      pop\n        /* \"src/admins/Roles.sol\":1367:1504  function isProtocolContract(address _addr) public view returns(bool){... */\n      swap2\n      swap1\n      pop\n      jump\t// out\n        /* \"src/admins/Roles.sol\":729:1225  function setProtocolContract(... */\n    tag_34:\n        /* \"src/admins/Roles.sol\":124:131  isAdmin */\n      0x00\n        /* \"src/admins/Roles.sol\":124:143  isAdmin[msg.sender] */\n      dup1\n        /* \"src/admins/Roles.sol\":132:142  msg.sender */\n      caller\n        /* \"src/admins/Roles.sol\":124:143  isAdmin[msg.sender] */\n      0xffffffffffffffffffffffffffffffffffffffff\n      and\n      0xffffffffffffffffffffffffffffffffffffffff\n      and\n      dup2\n      mstore\n      0x20\n      add\n      swap1\n      dup2\n      mstore\n      0x20\n      add\n      0x00\n      keccak256\n      0x00\n      swap1\n      sload\n      swap1\n      0x0100\n      exp\n      swap1\n      div\n      0xff\n      and\n        /* \"src/admins/Roles.sol\":116:185  require(isAdmin[msg.sender], \"Access denied: caller is not an admin\") */\n      tag_50\n      jumpi\n      mload(0x40)\n      0x08c379a000000000000000000000000000000000000000000000000000000000\n      dup2\n      mstore\n      0x04\n      add\n      tag_51\n      swap1\n      tag_52\n      jump\t// in\n    tag_51:\n      mload(0x40)\n      dup1\n      swap2\n      sub\n      swap1\n      revert\n    tag_50:\n        /* \"src/admins/Roles.sol\":235:236  0 */\n      0x00\n        /* \"src/admins/Roles.sol\":204:219  AdminPenalities */\n      0x01\n        /* \"src/admins/Roles.sol\":204:231  AdminPenalities[msg.sender] */\n      0x00\n        /* \"src/admins/Roles.sol\":220:230  msg.sender */\n      caller\n        /* \"src/admins/Roles.sol\":204:231  AdminPenalities[msg.sender] */\n      0xffffffffffffffffffffffffffffffffffffffff\n      and\n      0xffffffffffffffffffffffffffffffffffffffff\n      and\n      dup2\n      mstore\n      0x20\n      add\n      swap1\n      dup2\n      mstore\n      0x20\n      add\n      0x00\n      keccak256\n      0x00\n      swap1\n      sload\n      swap1\n      0x0100\n      exp\n      swap1\n      div\n      0xff\n      and\n        /* \"src/admins/Roles.sol\":204:236  AdminPenalities[msg.sender] == 0 */\n      0xff\n      and\n      eq\n        /* \"src/admins/Roles.sol\":196:274  require(AdminPenalities[msg.sender] == 0, \"Access denied: admin is penalized\") */\n      tag_53\n      jumpi\n      mload(0x40)\n      0x08c379a000000000000000000000000000000000000000000000000000000000\n      dup2\n      mstore\n      0x04\n      add\n      tag_54\n      swap1\n      tag_55\n      jump\t// in\n    tag_54:\n      mload(0x40)\n      dup1\n      swap2\n      sub\n      swap1\n      revert\n    tag_53:\n        /* \"src/admins/Roles.sol\":925:953  Contract memory _newContract */\n      0x00\n        /* \"src/admins/Roles.sol\":956:1149  Contract(... */\n      mload(0x40)\n      dup1\n      0x60\n      add\n      0x40\n      mstore\n      dup1\n        /* \"src/admins/Roles.sol\":1027:1031  true */\n      0x01\n        /* \"src/admins/Roles.sol\":956:1149  Contract(... */\n      iszero\n      iszero\n      dup2\n      mstore\n      0x20\n      add\n        /* \"src/admins/Roles.sol\":1061:1066  _name */\n      dup7\n      dup7\n        /* \"src/admins/Roles.sol\":956:1149  Contract(... */\n      dup1\n      dup1\n      0x1f\n      add\n      0x20\n      dup1\n      swap2\n      div\n      mul\n      0x20\n      add\n      mload(0x40)\n      swap1\n      dup2\n      add\n      0x40\n      mstore\n      dup1\n      swap4\n      swap3\n      swap2\n      swap1\n      dup2\n      dup2\n      mstore\n      0x20\n      add\n      dup4\n      dup4\n      dup1\n      dup3\n      dup5\n      calldatacopy\n      0x00\n      dup2\n      dup5\n      add\n      mstore\n      not(0x1f)\n      0x1f\n      dup3\n      add\n      and\n      swap1\n      pop\n      dup1\n      dup4\n      add\n      swap3\n      pop\n      pop\n      pop\n      pop\n      pop\n      pop\n      pop\n      dup2\n      mstore\n      0x20\n      add\n        /* \"src/admins/Roles.sol\":1103:1115  _description */\n      dup5\n      dup5\n        /* \"src/admins/Roles.sol\":956:1149  Contract(... */\n      dup1\n      dup1\n      0x1f\n      add\n      0x20\n      dup1\n      swap2\n      div\n      mul\n      0x20\n      add\n      mload(0x40)\n      swap1\n      dup2\n      add\n      0x40\n      mstore\n      dup1\n      swap4\n      swap3\n      swap2\n      swap1\n      dup2\n      dup2\n      mstore\n      0x20\n      add\n      dup4\n      dup4\n      dup1\n      dup3\n      dup5\n      calldatacopy\n      0x00\n      dup2\n      dup5\n      add\n      mstore\n      not(0x1f)\n      0x1f\n      dup3\n      add\n      and\n      swap1\n      pop\n      dup1\n      dup4\n      add\n      swap3\n      pop\n      pop\n      pop\n      pop\n      pop\n      pop\n      pop\n      dup2\n      mstore\n      pop\n        /* \"src/admins/Roles.sol\":925:1149  Contract memory _newContract = Contract(... */\n      swap1\n      pop\n        /* \"src/admins/Roles.sol\":1205:1217  _newContract */\n      dup1\n        /* \"src/admins/Roles.sol\":1164:1181  protocolContracts */\n      0x02\n        /* \"src/admins/Roles.sol\":1164:1202  protocolContracts[_newContractAddress] */\n      0x00\n        /* \"src/admins/Roles.sol\":1182:1201  _newContractAddress */\n      dup9\n        /* \"src/admins/Roles.sol\":1164:1202  protocolContracts[_newContractAddress] */\n      0xffffffffffffffffffffffffffffffffffffffff\n      and\n      0xffffffffffffffffffffffffffffffffffffffff\n      and\n      dup2\n      mstore\n      0x20\n      add\n      swap1\n      dup2\n      mstore\n      0x20\n      add\n      0x00\n      keccak256\n        /* \"src/admins/Roles.sol\":1164:1217  protocolContracts[_newContractAddress] = _newContract */\n      0x00\n      dup3\n      add\n      mload\n      dup2\n      0x00\n      add\n      exp(0x0100, 0x00)\n      dup2\n      sload\n      dup2\n      0xff\n      mul\n      not\n      and\n      swap1\n      dup4\n      iszero\n      iszero\n      mul\n      or\n      swap1\n      sstore\n      pop\n      0x20\n      dup3\n      add\n      mload\n      dup2\n      0x01\n      add\n      swap1\n      dup2\n      tag_57\n      swap2\n      swap1\n      tag_58\n      jump\t// in\n    tag_57:\n      pop\n      0x40\n      dup3\n      add\n      mload\n      dup2\n      0x02\n      add\n      swap1\n      dup2\n      tag_59\n      swap2\n      swap1\n      tag_58\n      jump\t// in\n    tag_59:\n      pop\n      swap1\n      pop\n      pop\n        /* \"src/admins/Roles.sol\":910:1225  {... */\n      pop\n        /* \"src/admins/Roles.sol\":729:1225  function setProtocolContract(... */\n      pop\n      pop\n      pop\n      pop\n      pop\n      jump\t// out\n        /* \"#utility.yul\":88:205   */\n    tag_61:\n        /* \"#utility.yul\":197:198   */\n      0x00\n        /* \"#utility.yul\":194:195   */\n      dup1\n        /* \"#utility.yul\":187:199   */\n      revert\n        /* \"#utility.yul\":211:328   */\n    tag_62:\n        /* \"#utility.yul\":320:321   */\n      0x00\n        /* \"#utility.yul\":317:318   */\n      dup1\n        /* \"#utility.yul\":310:322   */\n      revert\n        /* \"#utility.yul\":334:460   */\n    tag_63:\n        /* \"#utility.yul\":371:378   */\n      0x00\n        /* \"#utility.yul\":411:453   */\n      0xffffffffffffffffffffffffffffffffffffffff\n        /* \"#utility.yul\":404:409   */\n      dup3\n        /* \"#utility.yul\":400:454   */\n      and\n        /* \"#utility.yul\":389:454   */\n      swap1\n      pop\n        /* \"#utility.yul\":334:460   */\n      swap2\n      swap1\n      pop\n      jump\t// out\n        /* \"#utility.yul\":466:562   */\n    tag_64:\n        /* \"#utility.yul\":503:510   */\n      0x00\n        /* \"#utility.yul\":532:556   */\n      tag_107\n        /* \"#utility.yul\":550:555   */\n      dup3\n        /* \"#utility.yul\":532:556   */\n      tag_63\n      jump\t// in\n    tag_107:\n        /* \"#utility.yul\":521:556   */\n      swap1\n      pop\n        /* \"#utility.yul\":466:562   */\n      swap2\n      swap1\n      pop\n      jump\t// out\n        /* \"#utility.yul\":568:690   */\n    tag_65:\n        /* \"#utility.yul\":641:665   */\n      tag_109\n        /* \"#utility.yul\":659:664   */\n      dup2\n        /* \"#utility.yul\":641:665   */\n      tag_64\n      jump\t// in\n    tag_109:\n        /* \"#utility.yul\":634:639   */\n      dup2\n        /* \"#utility.yul\":631:666   */\n      eq\n        /* \"#utility.yul\":621:684   */\n      tag_110\n      jumpi\n        /* \"#utility.yul\":680:681   */\n      0x00\n        /* \"#utility.yul\":677:678   */\n      dup1\n        /* \"#utility.yul\":670:682   */\n      revert\n        /* \"#utility.yul\":621:684   */\n    tag_110:\n        /* \"#utility.yul\":568:690   */\n      pop\n      jump\t// out\n        /* \"#utility.yul\":696:835   */\n    tag_66:\n        /* \"#utility.yul\":742:747   */\n      0x00\n        /* \"#utility.yul\":780:786   */\n      dup2\n        /* \"#utility.yul\":767:787   */\n      calldataload\n        /* \"#utility.yul\":758:787   */\n      swap1\n      pop\n        /* \"#utility.yul\":796:829   */\n      tag_112\n        /* \"#utility.yul\":823:828   */\n      dup2\n        /* \"#utility.yul\":796:829   */\n      tag_65\n      jump\t// in\n    tag_112:\n        /* \"#utility.yul\":696:835   */\n      swap3\n      swap2\n      pop\n      pop\n      jump\t// out\n        /* \"#utility.yul\":841:1170   */\n    tag_11:\n        /* \"#utility.yul\":900:906   */\n      0x00\n        /* \"#utility.yul\":949:951   */\n      0x20\n        /* \"#utility.yul\":937:946   */\n      dup3\n        /* \"#utility.yul\":928:935   */\n      dup5\n        /* \"#utility.yul\":924:947   */\n      sub\n        /* \"#utility.yul\":920:952   */\n      slt\n        /* \"#utility.yul\":917:1036   */\n      iszero\n      tag_114\n      jumpi\n        /* \"#utility.yul\":955:1034   */\n      tag_115\n      tag_61\n      jump\t// in\n    tag_115:\n        /* \"#utility.yul\":917:1036   */\n    tag_114:\n        /* \"#utility.yul\":1075:1076   */\n      0x00\n        /* \"#utility.yul\":1100:1153   */\n      tag_116\n        /* \"#utility.yul\":1145:1152   */\n      dup5\n        /* \"#utility.yul\":1136:1142   */\n      dup3\n        /* \"#utility.yul\":1125:1134   */\n      dup6\n        /* \"#utility.yul\":1121:1143   */\n      add\n        /* \"#utility.yul\":1100:1153   */\n      tag_66\n      jump\t// in\n    tag_116:\n        /* \"#utility.yul\":1090:1153   */\n      swap2\n      pop\n        /* \"#utility.yul\":1046:1163   */\n      pop\n        /* \"#utility.yul\":841:1170   */\n      swap3\n      swap2\n      pop\n      pop\n      jump\t// out\n        /* \"#utility.yul\":1176:1266   */\n    tag_67:\n        /* \"#utility.yul\":1210:1217   */\n      0x00\n        /* \"#utility.yul\":1253:1258   */\n      dup2\n        /* \"#utility.yul\":1246:1259   */\n      iszero\n        /* \"#utility.yul\":1239:1260   */\n      iszero\n        /* \"#utility.yul\":1228:1260   */\n      swap1\n      pop\n        /* \"#utility.yul\":1176:1266   */\n      swap2\n      swap1\n      pop\n      jump\t// out\n        /* \"#utility.yul\":1272:1381   */\n    tag_68:\n        /* \"#utility.yul\":1353:1374   */\n      tag_119\n        /* \"#utility.yul\":1368:1373   */\n      dup2\n        /* \"#utility.yul\":1353:1374   */\n      tag_67\n      jump\t// in\n    tag_119:\n        /* \"#utility.yul\":1348:1351   */\n      dup3\n        /* \"#utility.yul\":1341:1375   */\n      mstore\n        /* \"#utility.yul\":1272:1381   */\n      pop\n      pop\n      jump\t// out\n        /* \"#utility.yul\":1387:1486   */\n    tag_69:\n        /* \"#utility.yul\":1439:1445   */\n      0x00\n        /* \"#utility.yul\":1473:1478   */\n      dup2\n        /* \"#utility.yul\":1467:1479   */\n      mload\n        /* \"#utility.yul\":1457:1479   */\n      swap1\n      pop\n        /* \"#utility.yul\":1387:1486   */\n      swap2\n      swap1\n      pop\n      jump\t// out\n        /* \"#utility.yul\":1492:1661   */\n    tag_70:\n        /* \"#utility.yul\":1576:1587   */\n      0x00\n        /* \"#utility.yul\":1610:1616   */\n      dup3\n        /* \"#utility.yul\":1605:1608   */\n      dup3\n        /* \"#utility.yul\":1598:1617   */\n      mstore\n        /* \"#utility.yul\":1650:1654   */\n      0x20\n        /* \"#utility.yul\":1645:1648   */\n      dup3\n        /* \"#utility.yul\":1641:1655   */\n      add\n        /* \"#utility.yul\":1626:1655   */\n      swap1\n      pop\n        /* \"#utility.yul\":1492:1661   */\n      swap3\n      swap2\n      pop\n      pop\n      jump\t// out\n        /* \"#utility.yul\":1667:1913   */\n    tag_71:\n        /* \"#utility.yul\":1748:1749   */\n      0x00\n        /* \"#utility.yul\":1758:1871   */\n    tag_123:\n        /* \"#utility.yul\":1772:1778   */\n      dup4\n        /* \"#utility.yul\":1769:1770   */\n      dup2\n        /* \"#utility.yul\":1766:1779   */\n      lt\n        /* \"#utility.yul\":1758:1871   */\n      iszero\n      tag_125\n      jumpi\n        /* \"#utility.yul\":1857:1858   */\n      dup1\n        /* \"#utility.yul\":1852:1855   */\n      dup3\n        /* \"#utility.yul\":1848:1859   */\n      add\n        /* \"#utility.yul\":1842:1860   */\n      mload\n        /* \"#utility.yul\":1838:1839   */\n      dup2\n        /* \"#utility.yul\":1833:1836   */\n      dup5\n        /* \"#utility.yul\":1829:1840   */\n      add\n        /* \"#utility.yul\":1822:1861   */\n      mstore\n        /* \"#utility.yul\":1794:1796   */\n      0x20\n        /* \"#utility.yul\":1791:1792   */\n      dup2\n        /* \"#utility.yul\":1787:1797   */\n      add\n        /* \"#utility.yul\":1782:1797   */\n      swap1\n      pop\n        /* \"#utility.yul\":1758:1871   */\n      jump(tag_123)\n    tag_125:\n        /* \"#utility.yul\":1905:1906   */\n      0x00\n        /* \"#utility.yul\":1896:1902   */\n      dup5\n        /* \"#utility.yul\":1891:1894   */\n      dup5\n        /* \"#utility.yul\":1887:1903   */\n      add\n        /* \"#utility.yul\":1880:1907   */\n      mstore\n        /* \"#utility.yul\":1729:1913   */\n      pop\n        /* \"#utility.yul\":1667:1913   */\n      pop\n      pop\n      pop\n      jump\t// out\n        /* \"#utility.yul\":1919:2021   */\n    tag_72:\n        /* \"#utility.yul\":1960:1966   */\n      0x00\n        /* \"#utility.yul\":2011:2013   */\n      0x1f\n        /* \"#utility.yul\":2007:2014   */\n      not\n        /* \"#utility.yul\":2002:2004   */\n      0x1f\n        /* \"#utility.yul\":1995:2000   */\n      dup4\n        /* \"#utility.yul\":1991:2005   */\n      add\n        /* \"#utility.yul\":1987:2015   */\n      and\n        /* \"#utility.yul\":1977:2015   */\n      swap1\n      pop\n        /* \"#utility.yul\":1919:2021   */\n      swap2\n      swap1\n      pop\n      jump\t// out\n        /* \"#utility.yul\":2027:2404   */\n    tag_73:\n        /* \"#utility.yul\":2115:2118   */\n      0x00\n        /* \"#utility.yul\":2143:2182   */\n      tag_128\n        /* \"#utility.yul\":2176:2181   */\n      dup3\n        /* \"#utility.yul\":2143:2182   */\n      tag_69\n      jump\t// in\n    tag_128:\n        /* \"#utility.yul\":2198:2269   */\n      tag_129\n        /* \"#utility.yul\":2262:2268   */\n      dup2\n        /* \"#utility.yul\":2257:2260   */\n      dup6\n        /* \"#utility.yul\":2198:2269   */\n      tag_70\n      jump\t// in\n    tag_129:\n        /* \"#utility.yul\":2191:2269   */\n      swap4\n      pop\n        /* \"#utility.yul\":2278:2343   */\n      tag_130\n        /* \"#utility.yul\":2336:2342   */\n      dup2\n        /* \"#utility.yul\":2331:2334   */\n      dup6\n        /* \"#utility.yul\":2324:2328   */\n      0x20\n        /* \"#utility.yul\":2317:2322   */\n      dup7\n        /* \"#utility.yul\":2313:2329   */\n      add\n        /* \"#utility.yul\":2278:2343   */\n      tag_71\n      jump\t// in\n    tag_130:\n        /* \"#utility.yul\":2368:2397   */\n      tag_131\n        /* \"#utility.yul\":2390:2396   */\n      dup2\n        /* \"#utility.yul\":2368:2397   */\n      tag_72\n      jump\t// in\n    tag_131:\n        /* \"#utility.yul\":2363:2366   */\n      dup5\n        /* \"#utility.yul\":2359:2398   */\n      add\n        /* \"#utility.yul\":2352:2398   */\n      swap2\n      pop\n        /* \"#utility.yul\":2119:2404   */\n      pop\n        /* \"#utility.yul\":2027:2404   */\n      swap3\n      swap2\n      pop\n      pop\n      jump\t// out\n        /* \"#utility.yul\":2410:3022   */\n    tag_14:\n        /* \"#utility.yul\":2593:2597   */\n      0x00\n        /* \"#utility.yul\":2631:2633   */\n      0x60\n        /* \"#utility.yul\":2620:2629   */\n      dup3\n        /* \"#utility.yul\":2616:2634   */\n      add\n        /* \"#utility.yul\":2608:2634   */\n      swap1\n      pop\n        /* \"#utility.yul\":2644:2709   */\n      tag_133\n        /* \"#utility.yul\":2706:2707   */\n      0x00\n        /* \"#utility.yul\":2695:2704   */\n      dup4\n        /* \"#utility.yul\":2691:2708   */\n      add\n        /* \"#utility.yul\":2682:2688   */\n      dup7\n        /* \"#utility.yul\":2644:2709   */\n      tag_68\n      jump\t// in\n    tag_133:\n        /* \"#utility.yul\":2756:2765   */\n      dup2\n        /* \"#utility.yul\":2750:2754   */\n      dup2\n        /* \"#utility.yul\":2746:2766   */\n      sub\n        /* \"#utility.yul\":2741:2743   */\n      0x20\n        /* \"#utility.yul\":2730:2739   */\n      dup4\n        /* \"#utility.yul\":2726:2744   */\n      add\n        /* \"#utility.yul\":2719:2767   */\n      mstore\n        /* \"#utility.yul\":2784:2862   */\n      tag_134\n        /* \"#utility.yul\":2857:2861   */\n      dup2\n        /* \"#utility.yul\":2848:2854   */\n      dup6\n        /* \"#utility.yul\":2784:2862   */\n      tag_73\n      jump\t// in\n    tag_134:\n        /* \"#utility.yul\":2776:2862   */\n      swap1\n      pop\n        /* \"#utility.yul\":2909:2918   */\n      dup2\n        /* \"#utility.yul\":2903:2907   */\n      dup2\n        /* \"#utility.yul\":2899:2919   */\n      sub\n        /* \"#utility.yul\":2894:2896   */\n      0x40\n        /* \"#utility.yul\":2883:2892   */\n      dup4\n        /* \"#utility.yul\":2879:2897   */\n      add\n        /* \"#utility.yul\":2872:2920   */\n      mstore\n        /* \"#utility.yul\":2937:3015   */\n      tag_135\n        /* \"#utility.yul\":3010:3014   */\n      dup2\n        /* \"#utility.yul\":3001:3007   */\n      dup5\n        /* \"#utility.yul\":2937:3015   */\n      tag_73\n      jump\t// in\n    tag_135:\n        /* \"#utility.yul\":2929:3015   */\n      swap1\n      pop\n        /* \"#utility.yul\":2410:3022   */\n      swap5\n      swap4\n      pop\n      pop\n      pop\n      pop\n      jump\t// out\n        /* \"#utility.yul\":3028:3238   */\n    tag_19:\n        /* \"#utility.yul\":3115:3119   */\n      0x00\n        /* \"#utility.yul\":3153:3155   */\n      0x20\n        /* \"#utility.yul\":3142:3151   */\n      dup3\n        /* \"#utility.yul\":3138:3156   */\n      add\n        /* \"#utility.yul\":3130:3156   */\n      swap1\n      pop\n        /* \"#utility.yul\":3166:3231   */\n      tag_137\n        /* \"#utility.yul\":3228:3229   */\n      0x00\n        /* \"#utility.yul\":3217:3226   */\n      dup4\n        /* \"#utility.yul\":3213:3230   */\n      add\n        /* \"#utility.yul\":3204:3210   */\n      dup5\n        /* \"#utility.yul\":3166:3231   */\n      tag_68\n      jump\t// in\n    tag_137:\n        /* \"#utility.yul\":3028:3238   */\n      swap3\n      swap2\n      pop\n      pop\n      jump\t// out\n        /* \"#utility.yul\":3244:3362   */\n    tag_74:\n        /* \"#utility.yul\":3331:3355   */\n      tag_139\n        /* \"#utility.yul\":3349:3354   */\n      dup2\n        /* \"#utility.yul\":3331:3355   */\n      tag_64\n      jump\t// in\n    tag_139:\n        /* \"#utility.yul\":3326:3329   */\n      dup3\n        /* \"#utility.yul\":3319:3356   */\n      mstore\n        /* \"#utility.yul\":3244:3362   */\n      pop\n      pop\n      jump\t// out\n        /* \"#utility.yul\":3368:3590   */\n    tag_26:\n        /* \"#utility.yul\":3461:3465   */\n      0x00\n        /* \"#utility.yul\":3499:3501   */\n      0x20\n        /* \"#utility.yul\":3488:3497   */\n      dup3\n        /* \"#utility.yul\":3484:3502   */\n      add\n        /* \"#utility.yul\":3476:3502   */\n      swap1\n      pop\n        /* \"#utility.yul\":3512:3583   */\n      tag_141\n        /* \"#utility.yul\":3580:3581   */\n      0x00\n        /* \"#utility.yul\":3569:3578   */\n      dup4\n        /* \"#utility.yul\":3565:3582   */\n      add\n        /* \"#utility.yul\":3556:3562   */\n      dup5\n        /* \"#utility.yul\":3512:3583   */\n      tag_74\n      jump\t// in\n    tag_141:\n        /* \"#utility.yul\":3368:3590   */\n      swap3\n      swap2\n      pop\n      pop\n      jump\t// out\n        /* \"#utility.yul\":3596:3713   */\n    tag_75:\n        /* \"#utility.yul\":3705:3706   */\n      0x00\n        /* \"#utility.yul\":3702:3703   */\n      dup1\n        /* \"#utility.yul\":3695:3707   */\n      revert\n        /* \"#utility.yul\":3719:3836   */\n    tag_76:\n        /* \"#utility.yul\":3828:3829   */\n      0x00\n        /* \"#utility.yul\":3825:3826   */\n      dup1\n        /* \"#utility.yul\":3818:3830   */\n      revert\n        /* \"#utility.yul\":3842:3959   */\n    tag_77:\n        /* \"#utility.yul\":3951:3952   */\n      0x00\n        /* \"#utility.yul\":3948:3949   */\n      dup1\n        /* \"#utility.yul\":3941:3953   */\n      revert\n        /* \"#utility.yul\":3979:4532   */\n    tag_78:\n        /* \"#utility.yul\":4037:4045   */\n      0x00\n        /* \"#utility.yul\":4047:4053   */\n      dup1\n        /* \"#utility.yul\":4097:4100   */\n      dup4\n        /* \"#utility.yul\":4090:4094   */\n      0x1f\n        /* \"#utility.yul\":4082:4088   */\n      dup5\n        /* \"#utility.yul\":4078:4095   */\n      add\n        /* \"#utility.yul\":4074:4101   */\n      slt\n        /* \"#utility.yul\":4064:4186   */\n      tag_146\n      jumpi\n        /* \"#utility.yul\":4105:4184   */\n      tag_147\n      tag_75\n      jump\t// in\n    tag_147:\n        /* \"#utility.yul\":4064:4186   */\n    tag_146:\n        /* \"#utility.yul\":4218:4224   */\n      dup3\n        /* \"#utility.yul\":4205:4225   */\n      calldataload\n        /* \"#utility.yul\":4195:4225   */\n      swap1\n      pop\n        /* \"#utility.yul\":4248:4266   */\n      0xffffffffffffffff\n        /* \"#utility.yul\":4240:4246   */\n      dup2\n        /* \"#utility.yul\":4237:4267   */\n      gt\n        /* \"#utility.yul\":4234:4351   */\n      iszero\n      tag_148\n      jumpi\n        /* \"#utility.yul\":4270:4349   */\n      tag_149\n      tag_76\n      jump\t// in\n    tag_149:\n        /* \"#utility.yul\":4234:4351   */\n    tag_148:\n        /* \"#utility.yul\":4384:4388   */\n      0x20\n        /* \"#utility.yul\":4376:4382   */\n      dup4\n        /* \"#utility.yul\":4372:4389   */\n      add\n        /* \"#utility.yul\":4360:4389   */\n      swap2\n      pop\n        /* \"#utility.yul\":4438:4441   */\n      dup4\n        /* \"#utility.yul\":4430:4434   */\n      0x01\n        /* \"#utility.yul\":4422:4428   */\n      dup3\n        /* \"#utility.yul\":4418:4435   */\n      mul\n        /* \"#utility.yul\":4408:4416   */\n      dup4\n        /* \"#utility.yul\":4404:4436   */\n      add\n        /* \"#utility.yul\":4401:4442   */\n      gt\n        /* \"#utility.yul\":4398:4526   */\n      iszero\n      tag_150\n      jumpi\n        /* \"#utility.yul\":4445:4524   */\n      tag_151\n      tag_77\n      jump\t// in\n    tag_151:\n        /* \"#utility.yul\":4398:4526   */\n    tag_150:\n        /* \"#utility.yul\":3979:4532   */\n      swap3\n      pop\n      swap3\n      swap1\n      pop\n      jump\t// out\n        /* \"#utility.yul\":4538:5557   */\n    tag_33:\n        /* \"#utility.yul\":4639:4645   */\n      0x00\n        /* \"#utility.yul\":4647:4653   */\n      dup1\n        /* \"#utility.yul\":4655:4661   */\n      0x00\n        /* \"#utility.yul\":4663:4669   */\n      dup1\n        /* \"#utility.yul\":4671:4677   */\n      0x00\n        /* \"#utility.yul\":4720:4722   */\n      0x60\n        /* \"#utility.yul\":4708:4717   */\n      dup7\n        /* \"#utility.yul\":4699:4706   */\n      dup9\n        /* \"#utility.yul\":4695:4718   */\n      sub\n        /* \"#utility.yul\":4691:4723   */\n      slt\n        /* \"#utility.yul\":4688:4807   */\n      iszero\n      tag_153\n      jumpi\n        /* \"#utility.yul\":4726:4805   */\n      tag_154\n      tag_61\n      jump\t// in\n    tag_154:\n        /* \"#utility.yul\":4688:4807   */\n    tag_153:\n        /* \"#utility.yul\":4846:4847   */\n      0x00\n        /* \"#utility.yul\":4871:4924   */\n      tag_155\n        /* \"#utility.yul\":4916:4923   */\n      dup9\n        /* \"#utility.yul\":4907:4913   */\n      dup3\n        /* \"#utility.yul\":4896:4905   */\n      dup10\n        /* \"#utility.yul\":4892:4914   */\n      add\n        /* \"#utility.yul\":4871:4924   */\n      tag_66\n      jump\t// in\n    tag_155:\n        /* \"#utility.yul\":4861:4924   */\n      swap6\n      pop\n        /* \"#utility.yul\":4817:4934   */\n      pop\n        /* \"#utility.yul\":5001:5003   */\n      0x20\n        /* \"#utility.yul\":4990:4999   */\n      dup7\n        /* \"#utility.yul\":4986:5004   */\n      add\n        /* \"#utility.yul\":4973:5005   */\n      calldataload\n        /* \"#utility.yul\":5032:5050   */\n      0xffffffffffffffff\n        /* \"#utility.yul\":5024:5030   */\n      dup2\n        /* \"#utility.yul\":5021:5051   */\n      gt\n        /* \"#utility.yul\":5018:5135   */\n      iszero\n      tag_156\n      jumpi\n        /* \"#utility.yul\":5054:5133   */\n      tag_157\n      tag_62\n      jump\t// in\n    tag_157:\n        /* \"#utility.yul\":5018:5135   */\n    tag_156:\n        /* \"#utility.yul\":5167:5232   */\n      tag_158\n        /* \"#utility.yul\":5224:5231   */\n      dup9\n        /* \"#utility.yul\":5215:5221   */\n      dup3\n        /* \"#utility.yul\":5204:5213   */\n      dup10\n        /* \"#utility.yul\":5200:5222   */\n      add\n        /* \"#utility.yul\":5167:5232   */\n      tag_78\n      jump\t// in\n    tag_158:\n        /* \"#utility.yul\":5149:5232   */\n      swap5\n      pop\n      swap5\n      pop\n        /* \"#utility.yul\":4944:5242   */\n      pop\n        /* \"#utility.yul\":5309:5311   */\n      0x40\n        /* \"#utility.yul\":5298:5307   */\n      dup7\n        /* \"#utility.yul\":5294:5312   */\n      add\n        /* \"#utility.yul\":5281:5313   */\n      calldataload\n        /* \"#utility.yul\":5340:5358   */\n      0xffffffffffffffff\n        /* \"#utility.yul\":5332:5338   */\n      dup2\n        /* \"#utility.yul\":5329:5359   */\n      gt\n        /* \"#utility.yul\":5326:5443   */\n      iszero\n      tag_159\n      jumpi\n        /* \"#utility.yul\":5362:5441   */\n      tag_160\n      tag_62\n      jump\t// in\n    tag_160:\n        /* \"#utility.yul\":5326:5443   */\n    tag_159:\n        /* \"#utility.yul\":5475:5540   */\n      tag_161\n        /* \"#utility.yul\":5532:5539   */\n      dup9\n        /* \"#utility.yul\":5523:5529   */\n      dup3\n        /* \"#utility.yul\":5512:5521   */\n      dup10\n        /* \"#utility.yul\":5508:5530   */\n      add\n        /* \"#utility.yul\":5475:5540   */\n      tag_78\n      jump\t// in\n    tag_161:\n        /* \"#utility.yul\":5457:5540   */\n      swap3\n      pop\n      swap3\n      pop\n        /* \"#utility.yul\":5252:5550   */\n      pop\n        /* \"#utility.yul\":4538:5557   */\n      swap3\n      swap6\n      pop\n      swap3\n      swap6\n      swap1\n      swap4\n      pop\n      jump\t// out\n        /* \"#utility.yul\":5563:5743   */\n    tag_79:\n        /* \"#utility.yul\":5611:5688   */\n      0x4e487b7100000000000000000000000000000000000000000000000000000000\n        /* \"#utility.yul\":5608:5609   */\n      0x00\n        /* \"#utility.yul\":5601:5689   */\n      mstore\n        /* \"#utility.yul\":5708:5712   */\n      0x22\n        /* \"#utility.yul\":5705:5706   */\n      0x04\n        /* \"#utility.yul\":5698:5713   */\n      mstore\n        /* \"#utility.yul\":5732:5736   */\n      0x24\n        /* \"#utility.yul\":5729:5730   */\n      0x00\n        /* \"#utility.yul\":5722:5737   */\n      revert\n        /* \"#utility.yul\":5749:6069   */\n    tag_36:\n        /* \"#utility.yul\":5793:5799   */\n      0x00\n        /* \"#utility.yul\":5830:5831   */\n      0x02\n        /* \"#utility.yul\":5824:5828   */\n      dup3\n        /* \"#utility.yul\":5820:5832   */\n      div\n        /* \"#utility.yul\":5810:5832   */\n      swap1\n      pop\n        /* \"#utility.yul\":5877:5878   */\n      0x01\n        /* \"#utility.yul\":5871:5875   */\n      dup3\n        /* \"#utility.yul\":5867:5879   */\n      and\n        /* \"#utility.yul\":5898:5916   */\n      dup1\n        /* \"#utility.yul\":5888:5969   */\n      tag_164\n      jumpi\n        /* \"#utility.yul\":5954:5958   */\n      0x7f\n        /* \"#utility.yul\":5946:5952   */\n      dup3\n        /* \"#utility.yul\":5942:5959   */\n      and\n        /* \"#utility.yul\":5932:5959   */\n      swap2\n      pop\n        /* \"#utility.yul\":5888:5969   */\n    tag_164:\n        /* \"#utility.yul\":6016:6018   */\n      0x20\n        /* \"#utility.yul\":6008:6014   */\n      dup3\n        /* \"#utility.yul\":6005:6019   */\n      lt\n        /* \"#utility.yul\":5985:6003   */\n      dup2\n        /* \"#utility.yul\":5982:6020   */\n      sub\n        /* \"#utility.yul\":5979:6063   */\n      tag_165\n      jumpi\n        /* \"#utility.yul\":6035:6053   */\n      tag_166\n      tag_79\n      jump\t// in\n    tag_166:\n        /* \"#utility.yul\":5979:6063   */\n    tag_165:\n        /* \"#utility.yul\":5800:6069   */\n      pop\n        /* \"#utility.yul\":5749:6069   */\n      swap2\n      swap1\n      pop\n      jump\t// out\n        /* \"#utility.yul\":6075:6299   */\n    tag_80:\n        /* \"#utility.yul\":6215:6249   */\n      0x4163636573732064656e6965643a2063616c6c6572206973206e6f7420616e20\n        /* \"#utility.yul\":6211:6212   */\n      0x00\n        /* \"#utility.yul\":6203:6209   */\n      dup3\n        /* \"#utility.yul\":6199:6213   */\n      add\n        /* \"#utility.yul\":6192:6250   */\n      mstore\n        /* \"#utility.yul\":6284:6291   */\n      0x61646d696e000000000000000000000000000000000000000000000000000000\n        /* \"#utility.yul\":6279:6281   */\n      0x20\n        /* \"#utility.yul\":6271:6277   */\n      dup3\n        /* \"#utility.yul\":6267:6282   */\n      add\n        /* \"#utility.yul\":6260:6292   */\n      mstore\n        /* \"#utility.yul\":6075:6299   */\n      pop\n      jump\t// out\n        /* \"#utility.yul\":6305:6671   */\n    tag_81:\n        /* \"#utility.yul\":6447:6450   */\n      0x00\n        /* \"#utility.yul\":6468:6535   */\n      tag_169\n        /* \"#utility.yul\":6532:6534   */\n      0x25\n        /* \"#utility.yul\":6527:6530   */\n      dup4\n        /* \"#utility.yul\":6468:6535   */\n      tag_70\n      jump\t// in\n    tag_169:\n        /* \"#utility.yul\":6461:6535   */\n      swap2\n      pop\n        /* \"#utility.yul\":6544:6637   */\n      tag_170\n        /* \"#utility.yul\":6633:6636   */\n      dup3\n        /* \"#utility.yul\":6544:6637   */\n      tag_80\n      jump\t// in\n    tag_170:\n        /* \"#utility.yul\":6662:6664   */\n      0x40\n        /* \"#utility.yul\":6657:6660   */\n      dup3\n        /* \"#utility.yul\":6653:6665   */\n      add\n        /* \"#utility.yul\":6646:6665   */\n      swap1\n      pop\n        /* \"#utility.yul\":6305:6671   */\n      swap2\n      swap1\n      pop\n      jump\t// out\n        /* \"#utility.yul\":6677:7096   */\n    tag_52:\n        /* \"#utility.yul\":6843:6847   */\n      0x00\n        /* \"#utility.yul\":6881:6883   */\n      0x20\n        /* \"#utility.yul\":6870:6879   */\n      dup3\n        /* \"#utility.yul\":6866:6884   */\n      add\n        /* \"#utility.yul\":6858:6884   */\n      swap1\n      pop\n        /* \"#utility.yul\":6930:6939   */\n      dup2\n        /* \"#utility.yul\":6924:6928   */\n      dup2\n        /* \"#utility.yul\":6920:6940   */\n      sub\n        /* \"#utility.yul\":6916:6917   */\n      0x00\n        /* \"#utility.yul\":6905:6914   */\n      dup4\n        /* \"#utility.yul\":6901:6918   */\n      add\n        /* \"#utility.yul\":6894:6941   */\n      mstore\n        /* \"#utility.yul\":6958:7089   */\n      tag_172\n        /* \"#utility.yul\":7084:7088   */\n      dup2\n        /* \"#utility.yul\":6958:7089   */\n      tag_81\n      jump\t// in\n    tag_172:\n        /* \"#utility.yul\":6950:7089   */\n      swap1\n      pop\n        /* \"#utility.yul\":6677:7096   */\n      swap2\n      swap1\n      pop\n      jump\t// out\n        /* \"#utility.yul\":7102:7322   */\n    tag_82:\n        /* \"#utility.yul\":7242:7276   */\n      0x4163636573732064656e6965643a2061646d696e2069732070656e616c697a65\n        /* \"#utility.yul\":7238:7239   */\n      0x00\n        /* \"#utility.yul\":7230:7236   */\n      dup3\n        /* \"#utility.yul\":7226:7240   */\n      add\n        /* \"#utility.yul\":7219:7277   */\n      mstore\n        /* \"#utility.yul\":7311:7314   */\n      0x6400000000000000000000000000000000000000000000000000000000000000\n        /* \"#utility.yul\":7306:7308   */\n      0x20\n        /* \"#utility.yul\":7298:7304   */\n      dup3\n        /* \"#utility.yul\":7294:7309   */\n      add\n        /* \"#utility.yul\":7287:7315   */\n      mstore\n        /* \"#utility.yul\":7102:7322   */\n      pop\n      jump\t// out\n        /* \"#utility.yul\":7328:7694   */\n    tag_83:\n        /* \"#utility.yul\":7470:7473   */\n      0x00\n        /* \"#utility.yul\":7491:7558   */\n      tag_175\n        /* \"#utility.yul\":7555:7557   */\n      0x21\n        /* \"#utility.yul\":7550:7553   */\n      dup4\n        /* \"#utility.yul\":7491:7558   */\n      tag_70\n      jump\t// in\n    tag_175:\n        /* \"#utility.yul\":7484:7558   */\n      swap2\n      pop\n        /* \"#utility.yul\":7567:7660   */\n      tag_176\n        /* \"#utility.yul\":7656:7659   */\n      dup3\n        /* \"#utility.yul\":7567:7660   */\n      tag_82\n      jump\t// in\n    tag_176:\n        /* \"#utility.yul\":7685:7687   */\n      0x40\n        /* \"#utility.yul\":7680:7683   */\n      dup3\n        /* \"#utility.yul\":7676:7688   */\n      add\n        /* \"#utility.yul\":7669:7688   */\n      swap1\n      pop\n        /* \"#utility.yul\":7328:7694   */\n      swap2\n      swap1\n      pop\n      jump\t// out\n        /* \"#utility.yul\":7700:8119   */\n    tag_55:\n        /* \"#utility.yul\":7866:7870   */\n      0x00\n        /* \"#utility.yul\":7904:7906   */\n      0x20\n        /* \"#utility.yul\":7893:7902   */\n      dup3\n        /* \"#utility.yul\":7889:7907   */\n      add\n        /* \"#utility.yul\":7881:7907   */\n      swap1\n      pop\n        /* \"#utility.yul\":7953:7962   */\n      dup2\n        /* \"#utility.yul\":7947:7951   */\n      dup2\n        /* \"#utility.yul\":7943:7963   */\n      sub\n        /* \"#utility.yul\":7939:7940   */\n      0x00\n        /* \"#utility.yul\":7928:7937   */\n      dup4\n        /* \"#utility.yul\":7924:7941   */\n      add\n        /* \"#utility.yul\":7917:7964   */\n      mstore\n        /* \"#utility.yul\":7981:8112   */\n      tag_178\n        /* \"#utility.yul\":8107:8111   */\n      dup2\n        /* \"#utility.yul\":7981:8112   */\n      tag_83\n      jump\t// in\n    tag_178:\n        /* \"#utility.yul\":7973:8112   */\n      swap1\n      pop\n        /* \"#utility.yul\":7700:8119   */\n      swap2\n      swap1\n      pop\n      jump\t// out\n        /* \"#utility.yul\":8125:8305   */\n    tag_84:\n        /* \"#utility.yul\":8173:8250   */\n      0x4e487b7100000000000000000000000000000000000000000000000000000000\n        /* \"#utility.yul\":8170:8171   */\n      0x00\n        /* \"#utility.yul\":8163:8251   */\n      mstore\n        /* \"#utility.yul\":8270:8274   */\n      0x41\n        /* \"#utility.yul\":8267:8268   */\n      0x04\n        /* \"#utility.yul\":8260:8275   */\n      mstore\n        /* \"#utility.yul\":8294:8298   */\n      0x24\n        /* \"#utility.yul\":8291:8292   */\n      0x00\n        /* \"#utility.yul\":8284:8299   */\n      revert\n        /* \"#utility.yul\":8311:8452   */\n    tag_85:\n        /* \"#utility.yul\":8360:8364   */\n      0x00\n        /* \"#utility.yul\":8383:8386   */\n      dup2\n        /* \"#utility.yul\":8375:8386   */\n      swap1\n      pop\n        /* \"#utility.yul\":8406:8409   */\n      dup2\n        /* \"#utility.yul\":8403:8404   */\n      0x00\n        /* \"#utility.yul\":8396:8410   */\n      mstore\n        /* \"#utility.yul\":8440:8444   */\n      0x20\n        /* \"#utility.yul\":8437:8438   */\n      0x00\n        /* \"#utility.yul\":8427:8445   */\n      keccak256\n        /* \"#utility.yul\":8419:8445   */\n      swap1\n      pop\n        /* \"#utility.yul\":8311:8452   */\n      swap2\n      swap1\n      pop\n      jump\t// out\n        /* \"#utility.yul\":8458:8551   */\n    tag_86:\n        /* \"#utility.yul\":8495:8501   */\n      0x00\n        /* \"#utility.yul\":8542:8544   */\n      0x20\n        /* \"#utility.yul\":8537:8539   */\n      0x1f\n        /* \"#utility.yul\":8530:8535   */\n      dup4\n        /* \"#utility.yul\":8526:8540   */\n      add\n        /* \"#utility.yul\":8522:8545   */\n      div\n        /* \"#utility.yul\":8512:8545   */\n      swap1\n      pop\n        /* \"#utility.yul\":8458:8551   */\n      swap2\n      swap1\n      pop\n      jump\t// out\n        /* \"#utility.yul\":8557:8664   */\n    tag_87:\n        /* \"#utility.yul\":8601:8609   */\n      0x00\n        /* \"#utility.yul\":8651:8656   */\n      dup3\n        /* \"#utility.yul\":8645:8649   */\n      dup3\n        /* \"#utility.yul\":8641:8657   */\n      shl\n        /* \"#utility.yul\":8620:8657   */\n      swap1\n      pop\n        /* \"#utility.yul\":8557:8664   */\n      swap3\n      swap2\n      pop\n      pop\n      jump\t// out\n        /* \"#utility.yul\":8670:9063   */\n    tag_88:\n        /* \"#utility.yul\":8739:8745   */\n      0x00\n        /* \"#utility.yul\":8789:8790   */\n      0x08\n        /* \"#utility.yul\":8777:8787   */\n      dup4\n        /* \"#utility.yul\":8773:8791   */\n      mul\n        /* \"#utility.yul\":8812:8909   */\n      tag_184\n        /* \"#utility.yul\":8842:8908   */\n      0xffffffffffffffffffffffffffffffffffffffffffffffffffffffffffffffff\n        /* \"#utility.yul\":8831:8840   */\n      dup3\n        /* \"#utility.yul\":8812:8909   */\n      tag_87\n      jump\t// in\n    tag_184:\n        /* \"#utility.yul\":8930:8969   */\n      tag_185\n        /* \"#utility.yul\":8960:8968   */\n      dup7\n        /* \"#utility.yul\":8949:8958   */\n      dup4\n        /* \"#utility.yul\":8930:8969   */\n      tag_87\n      jump\t// in\n    tag_185:\n        /* \"#utility.yul\":8918:8969   */\n      swap6\n      pop\n        /* \"#utility.yul\":9002:9006   */\n      dup1\n        /* \"#utility.yul\":8998:9007   */\n      not\n        /* \"#utility.yul\":8991:8996   */\n      dup5\n        /* \"#utility.yul\":8987:9008   */\n      and\n        /* \"#utility.yul\":8978:9008   */\n      swap4\n      pop\n        /* \"#utility.yul\":9051:9055   */\n      dup1\n        /* \"#utility.yul\":9041:9049   */\n      dup7\n        /* \"#utility.yul\":9037:9056   */\n      and\n        /* \"#utility.yul\":9030:9035   */\n      dup5\n        /* \"#utility.yul\":9027:9057   */\n      or\n        /* \"#utility.yul\":9017:9057   */\n      swap3\n      pop\n        /* \"#utility.yul\":8746:9063   */\n      pop\n      pop\n        /* \"#utility.yul\":8670:9063   */\n      swap4\n      swap3\n      pop\n      pop\n      pop\n      jump\t// out\n        /* \"#utility.yul\":9069:9146   */\n    tag_89:\n        /* \"#utility.yul\":9106:9113   */\n      0x00\n        /* \"#utility.yul\":9135:9140   */\n      dup2\n        /* \"#utility.yul\":9124:9140   */\n      swap1\n      pop\n        /* \"#utility.yul\":9069:9146   */\n      swap2\n      swap1\n      pop\n      jump\t// out\n        /* \"#utility.yul\":9152:9212   */\n    tag_90:\n        /* \"#utility.yul\":9180:9183   */\n      0x00\n        /* \"#utility.yul\":9201:9206   */\n      dup2\n        /* \"#utility.yul\":9194:9206   */\n      swap1\n      pop\n        /* \"#utility.yul\":9152:9212   */\n      swap2\n      swap1\n      pop\n      jump\t// out\n        /* \"#utility.yul\":9218:9360   */\n    tag_91:\n        /* \"#utility.yul\":9268:9277   */\n      0x00\n        /* \"#utility.yul\":9301:9354   */\n      tag_189\n        /* \"#utility.yul\":9319:9353   */\n      tag_190\n        /* \"#utility.yul\":9328:9352   */\n      tag_191\n        /* \"#utility.yul\":9346:9351   */\n      dup5\n        /* \"#utility.yul\":9328:9352   */\n      tag_89\n      jump\t// in\n    tag_191:\n        /* \"#utility.yul\":9319:9353   */\n      tag_90\n      jump\t// in\n    tag_190:\n        /* \"#utility.yul\":9301:9354   */\n      tag_89\n      jump\t// in\n    tag_189:\n        /* \"#utility.yul\":9288:9354   */\n      swap1\n      pop\n        /* \"#utility.yul\":9218:9360   */\n      swap2\n      swap1\n      pop\n      jump\t// out\n        /* \"#utility.yul\":9366:9441   */\n    tag_92:\n        /* \"#utility.yul\":9409:9412   */\n      0x00\n        /* \"#utility.yul\":9430:9435   */\n      dup2\n        /* \"#utility.yul\":9423:9435   */\n      swap1\n      pop\n        /* \"#utility.yul\":9366:9441   */\n      swap2\n      swap1\n      pop\n      jump\t// out\n        /* \"#utility.yul\":9447:9716   */\n    tag_93:\n        /* \"#utility.yul\":9557:9596   */\n      tag_194\n        /* \"#utility.yul\":9588:9595   */\n      dup4\n        /* \"#utility.yul\":9557:9596   */\n      tag_91\n      jump\t// in\n    tag_194:\n        /* \"#utility.yul\":9618:9709   */\n      tag_195\n        /* \"#utility.yul\":9667:9708   */\n      tag_196\n        /* \"#utility.yul\":9691:9707   */\n      dup3\n        /* \"#utility.yul\":9667:9708   */\n      tag_92\n      jump\t// in\n    tag_196:\n        /* \"#utility.yul\":9659:9665   */\n      dup5\n        /* \"#utility.yul\":9652:9656   */\n      dup5\n        /* \"#utility.yul\":9646:9657   */\n      sload\n        /* \"#utility.yul\":9618:9709   */\n      tag_88\n      jump\t// in\n    tag_195:\n        /* \"#utility.yul\":9612:9616   */\n      dup3\n        /* \"#utility.yul\":9605:9710   */\n      sstore\n        /* \"#utility.yul\":9523:9716   */\n      pop\n        /* \"#utility.yul\":9447:9716   */\n      pop\n      pop\n      pop\n      jump\t// out\n        /* \"#utility.yul\":9722:9795   */\n    tag_94:\n        /* \"#utility.yul\":9767:9770   */\n      0x00\n        /* \"#utility.yul\":9722:9795   */\n      swap1\n      jump\t// out\n        /* \"#utility.yul\":9801:9990   */\n    tag_95:\n        /* \"#utility.yul\":9878:9910   */\n      tag_199\n      tag_94\n      jump\t// in\n    tag_199:\n        /* \"#utility.yul\":9919:9984   */\n      tag_200\n        /* \"#utility.yul\":9977:9983   */\n      dup2\n        /* \"#utility.yul\":9969:9975   */\n      dup5\n        /* \"#utility.yul\":9963:9967   */\n      dup5\n        /* \"#utility.yul\":9919:9984   */\n      tag_93\n      jump\t// in\n    tag_200:\n        /* \"#utility.yul\":9854:9990   */\n      pop\n        /* \"#utility.yul\":9801:9990   */\n      pop\n      pop\n      jump\t// out\n        /* \"#utility.yul\":9996:10182   */\n    tag_96:\n        /* \"#utility.yul\":10056:10176   */\n    tag_202:\n        /* \"#utility.yul\":10073:10076   */\n      dup2\n        /* \"#utility.yul\":10066:10071   */\n      dup2\n        /* \"#utility.yul\":10063:10077   */\n      lt\n        /* \"#utility.yul\":10056:10176   */\n      iszero\n      tag_204\n      jumpi\n        /* \"#utility.yul\":10127:10166   */\n      tag_205\n        /* \"#utility.yul\":10164:10165   */\n      0x00\n        /* \"#utility.yul\":10157:10162   */\n      dup3\n        /* \"#utility.yul\":10127:10166   */\n      tag_95\n      jump\t// in\n    tag_205:\n        /* \"#utility.yul\":10100:10101   */\n      0x01\n        /* \"#utility.yul\":10093:10098   */\n      dup2\n        /* \"#utility.yul\":10089:10102   */\n      add\n        /* \"#utility.yul\":10080:10102   */\n      swap1\n      pop\n        /* \"#utility.yul\":10056:10176   */\n      jump(tag_202)\n    tag_204:\n        /* \"#utility.yul\":9996:10182   */\n      pop\n      pop\n      jump\t// out\n        /* \"#utility.yul\":10188:10731   */\n    tag_97:\n        /* \"#utility.yul\":10289:10291   */\n      0x1f\n        /* \"#utility.yul\":10284:10287   */\n      dup3\n        /* \"#utility.yul\":10281:10292   */\n      gt\n        /* \"#utility.yul\":10278:10724   */\n      iszero\n      tag_207\n      jumpi\n        /* \"#utility.yul\":10323:10361   */\n      tag_208\n        /* \"#utility.yul\":10355:10360   */\n      dup2\n        /* \"#utility.yul\":10323:10361   */\n      tag_85\n      jump\t// in\n    tag_208:\n        /* \"#utility.yul\":10407:10436   */\n      tag_209\n        /* \"#utility.yul\":10425:10435   */\n      dup5\n        /* \"#utility.yul\":10407:10436   */\n      tag_86\n      jump\t// in\n    tag_209:\n        /* \"#utility.yul\":10397:10405   */\n      dup2\n        /* \"#utility.yul\":10393:10437   */\n      add\n        /* \"#utility.yul\":10590:10592   */\n      0x20\n        /* \"#utility.yul\":10578:10588   */\n      dup6\n        /* \"#utility.yul\":10575:10593   */\n      lt\n        /* \"#utility.yul\":10572:10621   */\n      iszero\n      tag_210\n      jumpi\n        /* \"#utility.yul\":10611:10619   */\n      dup2\n        /* \"#utility.yul\":10596:10619   */\n      swap1\n      pop\n        /* \"#utility.yul\":10572:10621   */\n    tag_210:\n        /* \"#utility.yul\":10634:10714   */\n      tag_211\n        /* \"#utility.yul\":10690:10712   */\n      tag_212\n        /* \"#utility.yul\":10708:10711   */\n      dup6\n        /* \"#utility.yul\":10690:10712   */\n      tag_86\n      jump\t// in\n    tag_212:\n        /* \"#utility.yul\":10680:10688   */\n      dup4\n        /* \"#utility.yul\":10676:10713   */\n      add\n        /* \"#utility.yul\":10663:10674   */\n      dup3\n        /* \"#utility.yul\":10634:10714   */\n      tag_96\n      jump\t// in\n    tag_211:\n        /* \"#utility.yul\":10293:10724   */\n      pop\n      pop\n        /* \"#utility.yul\":10278:10724   */\n    tag_207:\n        /* \"#utility.yul\":10188:10731   */\n      pop\n      pop\n      pop\n      jump\t// out\n        /* \"#utility.yul\":10737:10854   */\n    tag_98:\n        /* \"#utility.yul\":10791:10799   */\n      0x00\n        /* \"#utility.yul\":10841:10846   */\n      dup3\n        /* \"#utility.yul\":10835:10839   */\n      dup3\n        /* \"#utility.yul\":10831:10847   */\n      shr\n        /* \"#utility.yul\":10810:10847   */\n      swap1\n      pop\n        /* \"#utility.yul\":10737:10854   */\n      swap3\n      swap2\n      pop\n      pop\n      jump\t// out\n        /* \"#utility.yul\":10860:11029   */\n    tag_99:\n        /* \"#utility.yul\":10904:10910   */\n      0x00\n        /* \"#utility.yul\":10937:10988   */\n      tag_215\n        /* \"#utility.yul\":10985:10986   */\n      0x00\n        /* \"#utility.yul\":10981:10987   */\n      not\n        /* \"#utility.yul\":10973:10978   */\n      dup5\n        /* \"#utility.yul\":10970:10971   */\n      0x08\n        /* \"#utility.yul\":10966:10979   */\n      mul\n        /* \"#utility.yul\":10937:10988   */\n      tag_98\n      jump\t// in\n    tag_215:\n        /* \"#utility.yul\":10933:10989   */\n      not\n        /* \"#utility.yul\":11018:11022   */\n      dup1\n        /* \"#utility.yul\":11012:11016   */\n      dup4\n        /* \"#utility.yul\":11008:11023   */\n      and\n        /* \"#utility.yul\":10998:11023   */\n      swap2\n      pop\n        /* \"#utility.yul\":10911:11029   */\n      pop\n        /* \"#utility.yul\":10860:11029   */\n      swap3\n      swap2\n      pop\n      pop\n      jump\t// out\n        /* \"#utility.yul\":11034:11329   */\n    tag_100:\n        /* \"#utility.yul\":11110:11114   */\n      0x00\n        /* \"#utility.yul\":11256:11285   */\n      tag_217\n        /* \"#utility.yul\":11281:11284   */\n      dup4\n        /* \"#utility.yul\":11275:11279   */\n      dup4\n        /* \"#utility.yul\":11256:11285   */\n      tag_99\n      jump\t// in\n    tag_217:\n        /* \"#utility.yul\":11248:11285   */\n      swap2\n      pop\n        /* \"#utility.yul\":11318:11321   */\n      dup3\n        /* \"#utility.yul\":11315:11316   */\n      0x02\n        /* \"#utility.yul\":11311:11322   */\n      mul\n        /* \"#utility.yul\":11305:11309   */\n      dup3\n        /* \"#utility.yul\":11302:11323   */\n      or\n        /* \"#utility.yul\":11294:11323   */\n      swap1\n      pop\n        /* \"#utility.yul\":11034:11329   */\n      swap3\n      swap2\n      pop\n      pop\n      jump\t// out\n        /* \"#utility.yul\":11334:12729   */\n    tag_58:\n        /* \"#utility.yul\":11451:11488   */\n      tag_219\n        /* \"#utility.yul\":11484:11487   */\n      dup3\n        /* \"#utility.yul\":11451:11488   */\n      tag_69\n      jump\t// in\n    tag_219:\n        /* \"#utility.yul\":11553:11571   */\n      0xffffffffffffffff\n        /* \"#utility.yul\":11545:11551   */\n      dup2\n        /* \"#utility.yul\":11542:11572   */\n      gt\n        /* \"#utility.yul\":11539:11595   */\n      iszero\n      tag_220\n      jumpi\n        /* \"#utility.yul\":11575:11593   */\n      tag_221\n      tag_84\n      jump\t// in\n    tag_221:\n        /* \"#utility.yul\":11539:11595   */\n    tag_220:\n        /* \"#utility.yul\":11619:11657   */\n      tag_222\n        /* \"#utility.yul\":11651:11655   */\n      dup3\n        /* \"#utility.yul\":11645:11656   */\n      sload\n        /* \"#utility.yul\":11619:11657   */\n      tag_36\n      jump\t// in\n    tag_222:\n        /* \"#utility.yul\":11704:11771   */\n      tag_223\n        /* \"#utility.yul\":11764:11770   */\n      dup3\n        /* \"#utility.yul\":11756:11762   */\n      dup3\n        /* \"#utility.yul\":11750:11754   */\n      dup6\n        /* \"#utility.yul\":11704:11771   */\n      tag_97\n      jump\t// in\n    tag_223:\n        /* \"#utility.yul\":11798:11799   */\n      0x00\n        /* \"#utility.yul\":11822:11826   */\n      0x20\n        /* \"#utility.yul\":11809:11826   */\n      swap1\n      pop\n        /* \"#utility.yul\":11854:11856   */\n      0x1f\n        /* \"#utility.yul\":11846:11852   */\n      dup4\n        /* \"#utility.yul\":11843:11857   */\n      gt\n        /* \"#utility.yul\":11871:11872   */\n      0x01\n        /* \"#utility.yul\":11866:12484   */\n      dup2\n      eq\n      tag_225\n      jumpi\n        /* \"#utility.yul\":12528:12529   */\n      0x00\n        /* \"#utility.yul\":12545:12551   */\n      dup5\n        /* \"#utility.yul\":12542:12619   */\n      iszero\n      tag_226\n      jumpi\n        /* \"#utility.yul\":12594:12603   */\n      dup3\n        /* \"#utility.yul\":12589:12592   */\n      dup8\n        /* \"#utility.yul\":12585:12604   */\n      add\n        /* \"#utility.yul\":12579:12605   */\n      mload\n        /* \"#utility.yul\":12570:12605   */\n      swap1\n      pop\n        /* \"#utility.yul\":12542:12619   */\n    tag_226:\n        /* \"#utility.yul\":12645:12712   */\n      tag_227\n        /* \"#utility.yul\":12705:12711   */\n      dup6\n        /* \"#utility.yul\":12698:12703   */\n      dup3\n        /* \"#utility.yul\":12645:12712   */\n      tag_100\n      jump\t// in\n    tag_227:\n        /* \"#utility.yul\":12639:12643   */\n      dup7\n        /* \"#utility.yul\":12632:12713   */\n      sstore\n        /* \"#utility.yul\":12501:12723   */\n      pop\n        /* \"#utility.yul\":11836:12723   */\n      jump(tag_224)\n        /* \"#utility.yul\":11866:12484   */\n    tag_225:\n        /* \"#utility.yul\":11918:11922   */\n      0x1f\n        /* \"#utility.yul\":11914:11923   */\n      not\n        /* \"#utility.yul\":11906:11912   */\n      dup5\n        /* \"#utility.yul\":11902:11924   */\n      and\n        /* \"#utility.yul\":11952:11989   */\n      tag_228\n        /* \"#utility.yul\":11984:11988   */\n      dup7\n        /* \"#utility.yul\":11952:11989   */\n      tag_85\n      jump\t// in\n    tag_228:\n        /* \"#utility.yul\":12011:12012   */\n      0x00\n        /* \"#utility.yul\":12025:12233   */\n    tag_229:\n        /* \"#utility.yul\":12039:12046   */\n      dup3\n        /* \"#utility.yul\":12036:12037   */\n      dup2\n        /* \"#utility.yul\":12033:12047   */\n      lt\n        /* \"#utility.yul\":12025:12233   */\n      iszero\n      tag_231\n      jumpi\n        /* \"#utility.yul\":12118:12127   */\n      dup5\n        /* \"#utility.yul\":12113:12116   */\n      dup10\n        /* \"#utility.yul\":12109:12128   */\n      add\n        /* \"#utility.yul\":12103:12129   */\n      mload\n        /* \"#utility.yul\":12095:12101   */\n      dup3\n        /* \"#utility.yul\":12088:12130   */\n      sstore\n        /* \"#utility.yul\":12169:12170   */\n      0x01\n        /* \"#utility.yul\":12161:12167   */\n      dup3\n        /* \"#utility.yul\":12157:12171   */\n      add\n        /* \"#utility.yul\":12147:12171   */\n      swap2\n      pop\n        /* \"#utility.yul\":12216:12218   */\n      0x20\n        /* \"#utility.yul\":12205:12214   */\n      dup6\n        /* \"#utility.yul\":12201:12219   */\n      add\n        /* \"#utility.yul\":12188:12219   */\n      swap5\n      pop\n        /* \"#utility.yul\":12062:12066   */\n      0x20\n        /* \"#utility.yul\":12059:12060   */\n      dup2\n        /* \"#utility.yul\":12055:12067   */\n      add\n        /* \"#utility.yul\":12050:12067   */\n      swap1\n      pop\n        /* \"#utility.yul\":12025:12233   */\n      jump(tag_229)\n    tag_231:\n        /* \"#utility.yul\":12261:12267   */\n      dup7\n        /* \"#utility.yul\":12252:12259   */\n      dup4\n        /* \"#utility.yul\":12249:12268   */\n      lt\n        /* \"#utility.yul\":12246:12425   */\n      iszero\n      tag_232\n      jumpi\n        /* \"#utility.yul\":12319:12328   */\n      dup5\n        /* \"#utility.yul\":12314:12317   */\n      dup10\n        /* \"#utility.yul\":12310:12329   */\n      add\n        /* \"#utility.yul\":12304:12330   */\n      mload\n        /* \"#utility.yul\":12362:12410   */\n      tag_233\n        /* \"#utility.yul\":12404:12408   */\n      0x1f\n        /* \"#utility.yul\":12396:12402   */\n      dup10\n        /* \"#utility.yul\":12392:12409   */\n      and\n        /* \"#utility.yul\":12381:12390   */\n      dup3\n        /* \"#utility.yul\":12362:12410   */\n      tag_99\n      jump\t// in\n    tag_233:\n        /* \"#utility.yul\":12354:12360   */\n      dup4\n        /* \"#utility.yul\":12347:12411   */\n      sstore\n        /* \"#utility.yul\":12269:12425   */\n      pop\n        /* \"#utility.yul\":12246:12425   */\n    tag_232:\n        /* \"#utility.yul\":12471:12472   */\n      0x01\n        /* \"#utility.yul\":12467:12468   */\n      0x02\n        /* \"#utility.yul\":12459:12465   */\n      dup9\n        /* \"#utility.yul\":12455:12469   */\n      mul\n        /* \"#utility.yul\":12451:12473   */\n      add\n        /* \"#utility.yul\":12445:12449   */\n      dup9\n        /* \"#utility.yul\":12438:12474   */\n      sstore\n        /* \"#utility.yul\":11873:12484   */\n      pop\n      pop\n      pop\n        /* \"#utility.yul\":11836:12723   */\n    tag_224:\n      pop\n        /* \"#utility.yul\":11426:12729   */\n      pop\n      pop\n      pop\n        /* \"#utility.yul\":11334:12729   */\n      pop\n      pop\n      jump\t// out\n\n    auxdata: 0xa264697066735822122051c541448f67f52308646cecab8558d3dced3272b0e9b740b7a175ed8c9aeb8664736f6c63430008180033\n}\n",
				"bytecode": {
					"linkReferences": {},
					"object": "608060405234801561001057600080fd5b50600160008073132adfe17b67f91573f3853db9682d9e937e3c9173ffffffffffffffffffffffffffffffffffffffff1673ffffffffffffffffffffffffffffffffffffffff16815260200190815260200160002060006101000a81548160ff021916908315150217905550610d608061008b6000396000f3fe608060405234801561001057600080fd5b50600436106100625760003560e01c806317655bb81461006757806324d7806c1461009957806370480275146100c957806399827d59146100e55780639feb2c4514610103578063b4934f8714610133575b600080fd5b610081600480360381019061007c9190610693565b61014f565b6040516100909392919061076b565b60405180910390f35b6100b360048036038101906100ae9190610693565b610296565b6040516100c091906107b0565b60405180910390f35b6100e360048036038101906100de9190610693565b6102b6565b005b6100ed61035c565b6040516100fa91906107da565b60405180910390f35b61011d60048036038101906101189190610693565b610374565b60405161012a91906107b0565b60405180910390f35b61014d6004803603810190610148919061085a565b6103cd565b005b60026020528060005260406000206000915090508060000160009054906101000a900460ff16908060010180546101859061091e565b80601f01602080910402602001604051908101604052809291908181526020018280546101b19061091e565b80156101fe5780601f106101d3576101008083540402835291602001916101fe565b820191906000526020600020905b8154815290600101906020018083116101e157829003601f168201915b5050505050908060020180546102139061091e565b80601f016020809104026020016040519081016040528092919081815260200182805461023f9061091e565b801561028c5780601f106102615761010080835404028352916020019161028c565b820191906000526020600020905b81548152906001019060200180831161026f57829003601f168201915b5050505050905083565b60006020528060005260406000206000915054906101000a900460ff1681565b73132adfe17b67f91573f3853db9682d9e937e3c9173ffffffffffffffffffffffffffffffffffffffff163373ffffffffffffffffffffffffffffffffffffffff161461030257600080fd5b60016000808373ffffffffffffffffffffffffffffffffffffffff1673ffffffffffffffffffffffffffffffffffffffff16815260200190815260200160002060006101000a81548160ff02191690831515021790555050565b73132adfe17b67f91573f3853db9682d9e937e3c9181565b6000600260008373ffffffffffffffffffffffffffffffffffffffff1673ffffffffffffffffffffffffffffffffffffffff16815260200190815260200160002060000160009054906101000a900460ff169050919050565b6000803373ffffffffffffffffffffffffffffffffffffffff1673ffffffffffffffffffffffffffffffffffffffff16815260200190815260200160002060009054906101000a900460ff16610458576040517f08c379a000000000000000000000000000000000000000000000000000000000815260040161044f906109c1565b60405180910390fd5b6000600160003373ffffffffffffffffffffffffffffffffffffffff1673ffffffffffffffffffffffffffffffffffffffff16815260200190815260200160002060009054906101000a900460ff1660ff16146104ea576040517f08c379a00000000000000000000000000000000000000000000000000000000081526004016104e190610a53565b60405180910390fd5b6000604051806060016040528060011515815260200186868080601f016020809104026020016040519081016040528093929190818152602001838380828437600081840152601f19601f82011690508083019250505050505050815260200184848080601f016020809104026020016040519081016040528093929190818152602001838380828437600081840152601f19601f82011690508083019250505050505050815250905080600260008873ffffffffffffffffffffffffffffffffffffffff1673ffffffffffffffffffffffffffffffffffffffff16815260200190815260200160002060008201518160000160006101000a81548160ff02191690831515021790555060208201518160010190816106099190610c58565b50604082015181600201908161061f9190610c58565b50905050505050505050565b600080fd5b600080fd5b600073ffffffffffffffffffffffffffffffffffffffff82169050919050565b600061066082610635565b9050919050565b61067081610655565b811461067b57600080fd5b50565b60008135905061068d81610667565b92915050565b6000602082840312156106a9576106a861062b565b5b60006106b78482850161067e565b91505092915050565b60008115159050919050565b6106d5816106c0565b82525050565b600081519050919050565b600082825260208201905092915050565b60005b838110156107155780820151818401526020810190506106fa565b60008484015250505050565b6000601f19601f8301169050919050565b600061073d826106db565b61074781856106e6565b93506107578185602086016106f7565b61076081610721565b840191505092915050565b600060608201905061078060008301866106cc565b81810360208301526107928185610732565b905081810360408301526107a68184610732565b9050949350505050565b60006020820190506107c560008301846106cc565b92915050565b6107d481610655565b82525050565b60006020820190506107ef60008301846107cb565b92915050565b600080fd5b600080fd5b600080fd5b60008083601f84011261081a576108196107f5565b5b8235905067ffffffffffffffff811115610837576108366107fa565b5b602083019150836001820283011115610853576108526107ff565b5b9250929050565b6000806000806000606086880312156108765761087561062b565b5b60006108848882890161067e565b955050602086013567ffffffffffffffff8111156108a5576108a4610630565b5b6108b188828901610804565b9450945050604086013567ffffffffffffffff8111156108d4576108d3610630565b5b6108e088828901610804565b92509250509295509295909350565b7f4e487b7100000000000000000000000000000000000000000000000000000000600052602260045260246000fd5b6000600282049050600182168061093657607f821691505b602082108103610949576109486108ef565b5b50919050565b7f4163636573732064656e6965643a2063616c6c6572206973206e6f7420616e2060008201527f61646d696e000000000000000000000000000000000000000000000000000000602082015250565b60006109ab6025836106e6565b91506109b68261094f565b604082019050919050565b600060208201905081810360008301526109da8161099e565b9050919050565b7f4163636573732064656e6965643a2061646d696e2069732070656e616c697a6560008201527f6400000000000000000000000000000000000000000000000000000000000000602082015250565b6000610a3d6021836106e6565b9150610a48826109e1565b604082019050919050565b60006020820190508181036000830152610a6c81610a30565b9050919050565b7f4e487b7100000000000000000000000000000000000000000000000000000000600052604160045260246000fd5b60008190508160005260206000209050919050565b60006020601f8301049050919050565b600082821b905092915050565b600060088302610b047fffffffffffffffffffffffffffffffffffffffffffffffffffffffffffffffff82610ac7565b610b0e8683610ac7565b95508019841693508086168417925050509392505050565b6000819050919050565b6000819050919050565b6000610b55610b50610b4b84610b26565b610b30565b610b26565b9050919050565b6000819050919050565b610b6f83610b3a565b610b83610b7b82610b5c565b848454610ad4565b825550505050565b600090565b610b98610b8b565b610ba3818484610b66565b505050565b5b81811015610bc757610bbc600082610b90565b600181019050610ba9565b5050565b601f821115610c0c57610bdd81610aa2565b610be684610ab7565b81016020851015610bf5578190505b610c09610c0185610ab7565b830182610ba8565b50505b505050565b600082821c905092915050565b6000610c2f60001984600802610c11565b1980831691505092915050565b6000610c488383610c1e565b9150826002028217905092915050565b610c61826106db565b67ffffffffffffffff811115610c7a57610c79610a73565b5b610c84825461091e565b610c8f828285610bcb565b600060209050601f831160018114610cc25760008415610cb0578287015190505b610cba8582610c3c565b865550610d22565b601f198416610cd086610aa2565b60005b82811015610cf857848901518255600182019150602085019450602081019050610cd3565b86831015610d155784890151610d11601f891682610c1e565b8355505b6001600288020188555050505b50505050505056fea264697066735822122051c541448f67f52308646cecab8558d3dced3272b0e9b740b7a175ed8c9aeb8664736f6c63430008180033",
					"opcodes": "PUSH1 0x80 PUSH1 0x40 MSTORE CALLVALUE DUP1 ISZERO PUSH2 0x10 JUMPI PUSH1 0x0 DUP1 REVERT JUMPDEST POP PUSH1 0x1 PUSH1 0x0 DUP1 PUSH20 0x132ADFE17B67F91573F3853DB9682D9E937E3C91 PUSH20 0xFFFFFFFFFFFFFFFFFFFFFFFFFFFFFFFFFFFFFFFF AND PUSH20 0xFFFFFFFFFFFFFFFFFFFFFFFFFFFFFFFFFFFFFFFF AND DUP2 MSTORE PUSH1 0x20 ADD SWAP1 DUP2 MSTORE PUSH1 0x20 ADD PUSH1 0x0 KECCAK256 PUSH1 0x0 PUSH2 0x100 EXP DUP2 SLOAD DUP2 PUSH1 0xFF MUL NOT AND SWAP1 DUP4 ISZERO ISZERO MUL OR SWAP1 SSTORE POP PUSH2 0xD60 DUP1 PUSH2 0x8B PUSH1 0x0 CODECOPY PUSH1 0x0 RETURN INVALID PUSH1 0x80 PUSH1 0x40 MSTORE CALLVALUE DUP1 ISZERO PUSH2 0x10 JUMPI PUSH1 0x0 DUP1 REVERT JUMPDEST POP PUSH1 0x4 CALLDATASIZE LT PUSH2 0x62 JUMPI PUSH1 0x0 CALLDATALOAD PUSH1 0xE0 SHR DUP1 PUSH4 0x17655BB8 EQ PUSH2 0x67 JUMPI DUP1 PUSH4 0x24D7806C EQ PUSH2 0x99 JUMPI DUP1 PUSH4 0x70480275 EQ PUSH2 0xC9 JUMPI DUP1 PUSH4 0x99827D59 EQ PUSH2 0xE5 JUMPI DUP1 PUSH4 0x9FEB2C45 EQ PUSH2 0x103 JUMPI DUP1 PUSH4 0xB4934F87 EQ PUSH2 0x133 JUMPI JUMPDEST PUSH1 0x0 DUP1 REVERT JUMPDEST PUSH2 0x81 PUSH1 0x4 DUP1 CALLDATASIZE SUB DUP2 ADD SWAP1 PUSH2 0x7C SWAP2 SWAP1 PUSH2 0x693 JUMP JUMPDEST PUSH2 0x14F JUMP JUMPDEST PUSH1 0x40 MLOAD PUSH2 0x90 SWAP4 SWAP3 SWAP2 SWAP1 PUSH2 0x76B JUMP JUMPDEST PUSH1 0x40 MLOAD DUP1 SWAP2 SUB SWAP1 RETURN JUMPDEST PUSH2 0xB3 PUSH1 0x4 DUP1 CALLDATASIZE SUB DUP2 ADD SWAP1 PUSH2 0xAE SWAP2 SWAP1 PUSH2 0x693 JUMP JUMPDEST PUSH2 0x296 JUMP JUMPDEST PUSH1 0x40 MLOAD PUSH2 0xC0 SWAP2 SWAP1 PUSH2 0x7B0 JUMP JUMPDEST PUSH1 0x40 MLOAD DUP1 SWAP2 SUB SWAP1 RETURN JUMPDEST PUSH2 0xE3 PUSH1 0x4 DUP1 CALLDATASIZE SUB DUP2 ADD SWAP1 PUSH2 0xDE SWAP2 SWAP1 PUSH2 0x693 JUMP JUMPDEST PUSH2 0x2B6 JUMP JUMPDEST STOP JUMPDEST PUSH2 0xED PUSH2 0x35C JUMP JUMPDEST PUSH1 0x40 MLOAD PUSH2 0xFA SWAP2 SWAP1 PUSH2 0x7DA JUMP JUMPDEST PUSH1 0x40 MLOAD DUP1 SWAP2 SUB SWAP1 RETURN JUMPDEST PUSH2 0x11D PUSH1 0x4 DUP1 CALLDATASIZE SUB DUP2 ADD SWAP1 PUSH2 0x118 SWAP2 SWAP1 PUSH2 0x693 JUMP JUMPDEST PUSH2 0x374 JUMP JUMPDEST PUSH1 0x40 MLOAD PUSH2 0x12A SWAP2 SWAP1 PUSH2 0x7B0 JUMP JUMPDEST PUSH1 0x40 MLOAD DUP1 SWAP2 SUB SWAP1 RETURN JUMPDEST PUSH2 0x14D PUSH1 0x4 DUP1 CALLDATASIZE SUB DUP2 ADD SWAP1 PUSH2 0x148 SWAP2 SWAP1 PUSH2 0x85A JUMP JUMPDEST PUSH2 0x3CD JUMP JUMPDEST STOP JUMPDEST PUSH1 0x2 PUSH1 0x20 MSTORE DUP1 PUSH1 0x0 MSTORE PUSH1 0x40 PUSH1 0x0 KECCAK256 PUSH1 0x0 SWAP2 POP SWAP1 POP DUP1 PUSH1 0x0 ADD PUSH1 0x0 SWAP1 SLOAD SWAP1 PUSH2 0x100 EXP SWAP1 DIV PUSH1 0xFF AND SWAP1 DUP1 PUSH1 0x1 ADD DUP1 SLOAD PUSH2 0x185 SWAP1 PUSH2 0x91E JUMP JUMPDEST DUP1 PUSH1 0x1F ADD PUSH1 0x20 DUP1 SWAP2 DIV MUL PUSH1 0x20 ADD PUSH1 0x40 MLOAD SWAP1 DUP2 ADD PUSH1 0x40 MSTORE DUP1 SWAP3 SWAP2 SWAP1 DUP2 DUP2 MSTORE PUSH1 0x20 ADD DUP3 DUP1 SLOAD PUSH2 0x1B1 SWAP1 PUSH2 0x91E JUMP JUMPDEST DUP1 ISZERO PUSH2 0x1FE JUMPI DUP1 PUSH1 0x1F LT PUSH2 0x1D3 JUMPI PUSH2 0x100 DUP1 DUP4 SLOAD DIV MUL DUP4 MSTORE SWAP2 PUSH1 0x20 ADD SWAP2 PUSH2 0x1FE JUMP JUMPDEST DUP3 ADD SWAP2 SWAP1 PUSH1 0x0 MSTORE PUSH1 0x20 PUSH1 0x0 KECCAK256 SWAP1 JUMPDEST DUP2 SLOAD DUP2 MSTORE SWAP1 PUSH1 0x1 ADD SWAP1 PUSH1 0x20 ADD DUP1 DUP4 GT PUSH2 0x1E1 JUMPI DUP3 SWAP1 SUB PUSH1 0x1F AND DUP3 ADD SWAP2 JUMPDEST POP POP POP POP POP SWAP1 DUP1 PUSH1 0x2 ADD DUP1 SLOAD PUSH2 0x213 SWAP1 PUSH2 0x91E JUMP JUMPDEST DUP1 PUSH1 0x1F ADD PUSH1 0x20 DUP1 SWAP2 DIV MUL PUSH1 0x20 ADD PUSH1 0x40 MLOAD SWAP1 DUP2 ADD PUSH1 0x40 MSTORE DUP1 SWAP3 SWAP2 SWAP1 DUP2 DUP2 MSTORE PUSH1 0x20 ADD DUP3 DUP1 SLOAD PUSH2 0x23F SWAP1 PUSH2 0x91E JUMP JUMPDEST DUP1 ISZERO PUSH2 0x28C JUMPI DUP1 PUSH1 0x1F LT PUSH2 0x261 JUMPI PUSH2 0x100 DUP1 DUP4 SLOAD DIV MUL DUP4 MSTORE SWAP2 PUSH1 0x20 ADD SWAP2 PUSH2 0x28C JUMP JUMPDEST DUP3 ADD SWAP2 SWAP1 PUSH1 0x0 MSTORE PUSH1 0x20 PUSH1 0x0 KECCAK256 SWAP1 JUMPDEST DUP2 SLOAD DUP2 MSTORE SWAP1 PUSH1 0x1 ADD SWAP1 PUSH1 0x20 ADD DUP1 DUP4 GT PUSH2 0x26F JUMPI DUP3 SWAP1 SUB PUSH1 0x1F AND DUP3 ADD SWAP2 JUMPDEST POP POP POP POP POP SWAP1 POP DUP4 JUMP JUMPDEST PUSH1 0x0 PUSH1 0x20 MSTORE DUP1 PUSH1 0x0 MSTORE PUSH1 0x40 PUSH1 0x0 KECCAK256 PUSH1 0x0 SWAP2 POP SLOAD SWAP1 PUSH2 0x100 EXP SWAP1 DIV PUSH1 0xFF AND DUP2 JUMP JUMPDEST PUSH20 0x132ADFE17B67F91573F3853DB9682D9E937E3C91 PUSH20 0xFFFFFFFFFFFFFFFFFFFFFFFFFFFFFFFFFFFFFFFF AND CALLER PUSH20 0xFFFFFFFFFFFFFFFFFFFFFFFFFFFFFFFFFFFFFFFF AND EQ PUSH2 0x302 JUMPI PUSH1 0x0 DUP1 REVERT JUMPDEST PUSH1 0x1 PUSH1 0x0 DUP1 DUP4 PUSH20 0xFFFFFFFFFFFFFFFFFFFFFFFFFFFFFFFFFFFFFFFF AND PUSH20 0xFFFFFFFFFFFFFFFFFFFFFFFFFFFFFFFFFFFFFFFF AND DUP2 MSTORE PUSH1 0x20 ADD SWAP1 DUP2 MSTORE PUSH1 0x20 ADD PUSH1 0x0 KECCAK256 PUSH1 0x0 PUSH2 0x100 EXP DUP2 SLOAD DUP2 PUSH1 0xFF MUL NOT AND SWAP1 DUP4 ISZERO ISZERO MUL OR SWAP1 SSTORE POP POP JUMP JUMPDEST PUSH20 0x132ADFE17B67F91573F3853DB9682D9E937E3C91 DUP2 JUMP JUMPDEST PUSH1 0x0 PUSH1 0x2 PUSH1 0x0 DUP4 PUSH20 0xFFFFFFFFFFFFFFFFFFFFFFFFFFFFFFFFFFFFFFFF AND PUSH20 0xFFFFFFFFFFFFFFFFFFFFFFFFFFFFFFFFFFFFFFFF AND DUP2 MSTORE PUSH1 0x20 ADD SWAP1 DUP2 MSTORE PUSH1 0x20 ADD PUSH1 0x0 KECCAK256 PUSH1 0x0 ADD PUSH1 0x0 SWAP1 SLOAD SWAP1 PUSH2 0x100 EXP SWAP1 DIV PUSH1 0xFF AND SWAP1 POP SWAP2 SWAP1 POP JUMP JUMPDEST PUSH1 0x0 DUP1 CALLER PUSH20 0xFFFFFFFFFFFFFFFFFFFFFFFFFFFFFFFFFFFFFFFF AND PUSH20 0xFFFFFFFFFFFFFFFFFFFFFFFFFFFFFFFFFFFFFFFF AND DUP2 MSTORE PUSH1 0x20 ADD SWAP1 DUP2 MSTORE PUSH1 0x20 ADD PUSH1 0x0 KECCAK256 PUSH1 0x0 SWAP1 SLOAD SWAP1 PUSH2 0x100 EXP SWAP1 DIV PUSH1 0xFF AND PUSH2 0x458 JUMPI PUSH1 0x40 MLOAD PUSH32 0x8C379A000000000000000000000000000000000000000000000000000000000 DUP2 MSTORE PUSH1 0x4 ADD PUSH2 0x44F SWAP1 PUSH2 0x9C1 JUMP JUMPDEST PUSH1 0x40 MLOAD DUP1 SWAP2 SUB SWAP1 REVERT JUMPDEST PUSH1 0x0 PUSH1 0x1 PUSH1 0x0 CALLER PUSH20 0xFFFFFFFFFFFFFFFFFFFFFFFFFFFFFFFFFFFFFFFF AND PUSH20 0xFFFFFFFFFFFFFFFFFFFFFFFFFFFFFFFFFFFFFFFF AND DUP2 MSTORE PUSH1 0x20 ADD SWAP1 DUP2 MSTORE PUSH1 0x20 ADD PUSH1 0x0 KECCAK256 PUSH1 0x0 SWAP1 SLOAD SWAP1 PUSH2 0x100 EXP SWAP1 DIV PUSH1 0xFF AND PUSH1 0xFF AND EQ PUSH2 0x4EA JUMPI PUSH1 0x40 MLOAD PUSH32 0x8C379A000000000000000000000000000000000000000000000000000000000 DUP2 MSTORE PUSH1 0x4 ADD PUSH2 0x4E1 SWAP1 PUSH2 0xA53 JUMP JUMPDEST PUSH1 0x40 MLOAD DUP1 SWAP2 SUB SWAP1 REVERT JUMPDEST PUSH1 0x0 PUSH1 0x40 MLOAD DUP1 PUSH1 0x60 ADD PUSH1 0x40 MSTORE DUP1 PUSH1 0x1 ISZERO ISZERO DUP2 MSTORE PUSH1 0x20 ADD DUP7 DUP7 DUP1 DUP1 PUSH1 0x1F ADD PUSH1 0x20 DUP1 SWAP2 DIV MUL PUSH1 0x20 ADD PUSH1 0x40 MLOAD SWAP1 DUP2 ADD PUSH1 0x40 MSTORE DUP1 SWAP4 SWAP3 SWAP2 SWAP1 DUP2 DUP2 MSTORE PUSH1 0x20 ADD DUP4 DUP4 DUP1 DUP3 DUP5 CALLDATACOPY PUSH1 0x0 DUP2 DUP5 ADD MSTORE PUSH1 0x1F NOT PUSH1 0x1F DUP3 ADD AND SWAP1 POP DUP1 DUP4 ADD SWAP3 POP POP POP POP POP POP POP DUP2 MSTORE PUSH1 0x20 ADD DUP5 DUP5 DUP1 DUP1 PUSH1 0x1F ADD PUSH1 0x20 DUP1 SWAP2 DIV MUL PUSH1 0x20 ADD PUSH1 0x40 MLOAD SWAP1 DUP2 ADD PUSH1 0x40 MSTORE DUP1 SWAP4 SWAP3 SWAP2 SWAP1 DUP2 DUP2 MSTORE PUSH1 0x20 ADD DUP4 DUP4 DUP1 DUP3 DUP5 CALLDATACOPY PUSH1 0x0 DUP2 DUP5 ADD MSTORE PUSH1 0x1F NOT PUSH1 0x1F DUP3 ADD AND SWAP1 POP DUP1 DUP4 ADD SWAP3 POP POP POP POP POP POP POP DUP2 MSTORE POP SWAP1 POP DUP1 PUSH1 0x2 PUSH1 0x0 DUP9 PUSH20 0xFFFFFFFFFFFFFFFFFFFFFFFFFFFFFFFFFFFFFFFF AND PUSH20 0xFFFFFFFFFFFFFFFFFFFFFFFFFFFFFFFFFFFFFFFF AND DUP2 MSTORE PUSH1 0x20 ADD SWAP1 DUP2 MSTORE PUSH1 0x20 ADD PUSH1 0x0 KECCAK256 PUSH1 0x0 DUP3 ADD MLOAD DUP2 PUSH1 0x0 ADD PUSH1 0x0 PUSH2 0x100 EXP DUP2 SLOAD DUP2 PUSH1 0xFF MUL NOT AND SWAP1 DUP4 ISZERO ISZERO MUL OR SWAP1 SSTORE POP PUSH1 0x20 DUP3 ADD MLOAD DUP2 PUSH1 0x1 ADD SWAP1 DUP2 PUSH2 0x609 SWAP2 SWAP1 PUSH2 0xC58 JUMP JUMPDEST POP PUSH1 0x40 DUP3 ADD MLOAD DUP2 PUSH1 0x2 ADD SWAP1 DUP2 PUSH2 0x61F SWAP2 SWAP1 PUSH2 0xC58 JUMP JUMPDEST POP SWAP1 POP POP POP POP POP POP POP POP JUMP JUMPDEST PUSH1 0x0 DUP1 REVERT JUMPDEST PUSH1 0x0 DUP1 REVERT JUMPDEST PUSH1 0x0 PUSH20 0xFFFFFFFFFFFFFFFFFFFFFFFFFFFFFFFFFFFFFFFF DUP3 AND SWAP1 POP SWAP2 SWAP1 POP JUMP JUMPDEST PUSH1 0x0 PUSH2 0x660 DUP3 PUSH2 0x635 JUMP JUMPDEST SWAP1 POP SWAP2 SWAP1 POP JUMP JUMPDEST PUSH2 0x670 DUP2 PUSH2 0x655 JUMP JUMPDEST DUP2 EQ PUSH2 0x67B JUMPI PUSH1 0x0 DUP1 REVERT JUMPDEST POP JUMP JUMPDEST PUSH1 0x0 DUP2 CALLDATALOAD SWAP1 POP PUSH2 0x68D DUP2 PUSH2 0x667 JUMP JUMPDEST SWAP3 SWAP2 POP POP JUMP JUMPDEST PUSH1 0x0 PUSH1 0x20 DUP3 DUP5 SUB SLT ISZERO PUSH2 0x6A9 JUMPI PUSH2 0x6A8 PUSH2 0x62B JUMP JUMPDEST JUMPDEST PUSH1 0x0 PUSH2 0x6B7 DUP5 DUP3 DUP6 ADD PUSH2 0x67E JUMP JUMPDEST SWAP2 POP POP SWAP3 SWAP2 POP POP JUMP JUMPDEST PUSH1 0x0 DUP2 ISZERO ISZERO SWAP1 POP SWAP2 SWAP1 POP JUMP JUMPDEST PUSH2 0x6D5 DUP2 PUSH2 0x6C0 JUMP JUMPDEST DUP3 MSTORE POP POP JUMP JUMPDEST PUSH1 0x0 DUP2 MLOAD SWAP1 POP SWAP2 SWAP1 POP JUMP JUMPDEST PUSH1 0x0 DUP3 DUP3 MSTORE PUSH1 0x20 DUP3 ADD SWAP1 POP SWAP3 SWAP2 POP POP JUMP JUMPDEST PUSH1 0x0 JUMPDEST DUP4 DUP2 LT ISZERO PUSH2 0x715 JUMPI DUP1 DUP3 ADD MLOAD DUP2 DUP5 ADD MSTORE PUSH1 0x20 DUP2 ADD SWAP1 POP PUSH2 0x6FA JUMP JUMPDEST PUSH1 0x0 DUP5 DUP5 ADD MSTORE POP POP POP POP JUMP JUMPDEST PUSH1 0x0 PUSH1 0x1F NOT PUSH1 0x1F DUP4 ADD AND SWAP1 POP SWAP2 SWAP1 POP JUMP JUMPDEST PUSH1 0x0 PUSH2 0x73D DUP3 PUSH2 0x6DB JUMP JUMPDEST PUSH2 0x747 DUP2 DUP6 PUSH2 0x6E6 JUMP JUMPDEST SWAP4 POP PUSH2 0x757 DUP2 DUP6 PUSH1 0x20 DUP7 ADD PUSH2 0x6F7 JUMP JUMPDEST PUSH2 0x760 DUP2 PUSH2 0x721 JUMP JUMPDEST DUP5 ADD SWAP2 POP POP SWAP3 SWAP2 POP POP JUMP JUMPDEST PUSH1 0x0 PUSH1 0x60 DUP3 ADD SWAP1 POP PUSH2 0x780 PUSH1 0x0 DUP4 ADD DUP7 PUSH2 0x6CC JUMP JUMPDEST DUP2 DUP2 SUB PUSH1 0x20 DUP4 ADD MSTORE PUSH2 0x792 DUP2 DUP6 PUSH2 0x732 JUMP JUMPDEST SWAP1 POP DUP2 DUP2 SUB PUSH1 0x40 DUP4 ADD MSTORE PUSH2 0x7A6 DUP2 DUP5 PUSH2 0x732 JUMP JUMPDEST SWAP1 POP SWAP5 SWAP4 POP POP POP POP JUMP JUMPDEST PUSH1 0x0 PUSH1 0x20 DUP3 ADD SWAP1 POP PUSH2 0x7C5 PUSH1 0x0 DUP4 ADD DUP5 PUSH2 0x6CC JUMP JUMPDEST SWAP3 SWAP2 POP POP JUMP JUMPDEST PUSH2 0x7D4 DUP2 PUSH2 0x655 JUMP JUMPDEST DUP3 MSTORE POP POP JUMP JUMPDEST PUSH1 0x0 PUSH1 0x20 DUP3 ADD SWAP1 POP PUSH2 0x7EF PUSH1 0x0 DUP4 ADD DUP5 PUSH2 0x7CB JUMP JUMPDEST SWAP3 SWAP2 POP POP JUMP JUMPDEST PUSH1 0x0 DUP1 REVERT JUMPDEST PUSH1 0x0 DUP1 REVERT JUMPDEST PUSH1 0x0 DUP1 REVERT JUMPDEST PUSH1 0x0 DUP1 DUP4 PUSH1 0x1F DUP5 ADD SLT PUSH2 0x81A JUMPI PUSH2 0x819 PUSH2 0x7F5 JUMP JUMPDEST JUMPDEST DUP3 CALLDATALOAD SWAP1 POP PUSH8 0xFFFFFFFFFFFFFFFF DUP2 GT ISZERO PUSH2 0x837 JUMPI PUSH2 0x836 PUSH2 0x7FA JUMP JUMPDEST JUMPDEST PUSH1 0x20 DUP4 ADD SWAP2 POP DUP4 PUSH1 0x1 DUP3 MUL DUP4 ADD GT ISZERO PUSH2 0x853 JUMPI PUSH2 0x852 PUSH2 0x7FF JUMP JUMPDEST JUMPDEST SWAP3 POP SWAP3 SWAP1 POP JUMP JUMPDEST PUSH1 0x0 DUP1 PUSH1 0x0 DUP1 PUSH1 0x0 PUSH1 0x60 DUP7 DUP9 SUB SLT ISZERO PUSH2 0x876 JUMPI PUSH2 0x875 PUSH2 0x62B JUMP JUMPDEST JUMPDEST PUSH1 0x0 PUSH2 0x884 DUP9 DUP3 DUP10 ADD PUSH2 0x67E JUMP JUMPDEST SWAP6 POP POP PUSH1 0x20 DUP7 ADD CALLDATALOAD PUSH8 0xFFFFFFFFFFFFFFFF DUP2 GT ISZERO PUSH2 0x8A5 JUMPI PUSH2 0x8A4 PUSH2 0x630 JUMP JUMPDEST JUMPDEST PUSH2 0x8B1 DUP9 DUP3 DUP10 ADD PUSH2 0x804 JUMP JUMPDEST SWAP5 POP SWAP5 POP POP PUSH1 0x40 DUP7 ADD CALLDATALOAD PUSH8 0xFFFFFFFFFFFFFFFF DUP2 GT ISZERO PUSH2 0x8D4 JUMPI PUSH2 0x8D3 PUSH2 0x630 JUMP JUMPDEST JUMPDEST PUSH2 0x8E0 DUP9 DUP3 DUP10 ADD PUSH2 0x804 JUMP JUMPDEST SWAP3 POP SWAP3 POP POP SWAP3 SWAP6 POP SWAP3 SWAP6 SWAP1 SWAP4 POP JUMP JUMPDEST PUSH32 0x4E487B7100000000000000000000000000000000000000000000000000000000 PUSH1 0x0 MSTORE PUSH1 0x22 PUSH1 0x4 MSTORE PUSH1 0x24 PUSH1 0x0 REVERT JUMPDEST PUSH1 0x0 PUSH1 0x2 DUP3 DIV SWAP1 POP PUSH1 0x1 DUP3 AND DUP1 PUSH2 0x936 JUMPI PUSH1 0x7F DUP3 AND SWAP2 POP JUMPDEST PUSH1 0x20 DUP3 LT DUP2 SUB PUSH2 0x949 JUMPI PUSH2 0x948 PUSH2 0x8EF JUMP JUMPDEST JUMPDEST POP SWAP2 SWAP1 POP JUMP JUMPDEST PUSH32 0x4163636573732064656E6965643A2063616C6C6572206973206E6F7420616E20 PUSH1 0x0 DUP3 ADD MSTORE PUSH32 0x61646D696E000000000000000000000000000000000000000000000000000000 PUSH1 0x20 DUP3 ADD MSTORE POP JUMP JUMPDEST PUSH1 0x0 PUSH2 0x9AB PUSH1 0x25 DUP4 PUSH2 0x6E6 JUMP JUMPDEST SWAP2 POP PUSH2 0x9B6 DUP3 PUSH2 0x94F JUMP JUMPDEST PUSH1 0x40 DUP3 ADD SWAP1 POP SWAP2 SWAP1 POP JUMP JUMPDEST PUSH1 0x0 PUSH1 0x20 DUP3 ADD SWAP1 POP DUP2 DUP2 SUB PUSH1 0x0 DUP4 ADD MSTORE PUSH2 0x9DA DUP2 PUSH2 0x99E JUMP JUMPDEST SWAP1 POP SWAP2 SWAP1 POP JUMP JUMPDEST PUSH32 0x4163636573732064656E6965643A2061646D696E2069732070656E616C697A65 PUSH1 0x0 DUP3 ADD MSTORE PUSH32 0x6400000000000000000000000000000000000000000000000000000000000000 PUSH1 0x20 DUP3 ADD MSTORE POP JUMP JUMPDEST PUSH1 0x0 PUSH2 0xA3D PUSH1 0x21 DUP4 PUSH2 0x6E6 JUMP JUMPDEST SWAP2 POP PUSH2 0xA48 DUP3 PUSH2 0x9E1 JUMP JUMPDEST PUSH1 0x40 DUP3 ADD SWAP1 POP SWAP2 SWAP1 POP JUMP JUMPDEST PUSH1 0x0 PUSH1 0x20 DUP3 ADD SWAP1 POP DUP2 DUP2 SUB PUSH1 0x0 DUP4 ADD MSTORE PUSH2 0xA6C DUP2 PUSH2 0xA30 JUMP JUMPDEST SWAP1 POP SWAP2 SWAP1 POP JUMP JUMPDEST PUSH32 0x4E487B7100000000000000000000000000000000000000000000000000000000 PUSH1 0x0 MSTORE PUSH1 0x41 PUSH1 0x4 MSTORE PUSH1 0x24 PUSH1 0x0 REVERT JUMPDEST PUSH1 0x0 DUP2 SWAP1 POP DUP2 PUSH1 0x0 MSTORE PUSH1 0x20 PUSH1 0x0 KECCAK256 SWAP1 POP SWAP2 SWAP1 POP JUMP JUMPDEST PUSH1 0x0 PUSH1 0x20 PUSH1 0x1F DUP4 ADD DIV SWAP1 POP SWAP2 SWAP1 POP JUMP JUMPDEST PUSH1 0x0 DUP3 DUP3 SHL SWAP1 POP SWAP3 SWAP2 POP POP JUMP JUMPDEST PUSH1 0x0 PUSH1 0x8 DUP4 MUL PUSH2 0xB04 PUSH32 0xFFFFFFFFFFFFFFFFFFFFFFFFFFFFFFFFFFFFFFFFFFFFFFFFFFFFFFFFFFFFFFFF DUP3 PUSH2 0xAC7 JUMP JUMPDEST PUSH2 0xB0E DUP7 DUP4 PUSH2 0xAC7 JUMP JUMPDEST SWAP6 POP DUP1 NOT DUP5 AND SWAP4 POP DUP1 DUP7 AND DUP5 OR SWAP3 POP POP POP SWAP4 SWAP3 POP POP POP JUMP JUMPDEST PUSH1 0x0 DUP2 SWAP1 POP SWAP2 SWAP1 POP JUMP JUMPDEST PUSH1 0x0 DUP2 SWAP1 POP SWAP2 SWAP1 POP JUMP JUMPDEST PUSH1 0x0 PUSH2 0xB55 PUSH2 0xB50 PUSH2 0xB4B DUP5 PUSH2 0xB26 JUMP JUMPDEST PUSH2 0xB30 JUMP JUMPDEST PUSH2 0xB26 JUMP JUMPDEST SWAP1 POP SWAP2 SWAP1 POP JUMP JUMPDEST PUSH1 0x0 DUP2 SWAP1 POP SWAP2 SWAP1 POP JUMP JUMPDEST PUSH2 0xB6F DUP4 PUSH2 0xB3A JUMP JUMPDEST PUSH2 0xB83 PUSH2 0xB7B DUP3 PUSH2 0xB5C JUMP JUMPDEST DUP5 DUP5 SLOAD PUSH2 0xAD4 JUMP JUMPDEST DUP3 SSTORE POP POP POP POP JUMP JUMPDEST PUSH1 0x0 SWAP1 JUMP JUMPDEST PUSH2 0xB98 PUSH2 0xB8B JUMP JUMPDEST PUSH2 0xBA3 DUP2 DUP5 DUP5 PUSH2 0xB66 JUMP JUMPDEST POP POP POP JUMP JUMPDEST JUMPDEST DUP2 DUP2 LT ISZERO PUSH2 0xBC7 JUMPI PUSH2 0xBBC PUSH1 0x0 DUP3 PUSH2 0xB90 JUMP JUMPDEST PUSH1 0x1 DUP2 ADD SWAP1 POP PUSH2 0xBA9 JUMP JUMPDEST POP POP JUMP JUMPDEST PUSH1 0x1F DUP3 GT ISZERO PUSH2 0xC0C JUMPI PUSH2 0xBDD DUP2 PUSH2 0xAA2 JUMP JUMPDEST PUSH2 0xBE6 DUP5 PUSH2 0xAB7 JUMP JUMPDEST DUP2 ADD PUSH1 0x20 DUP6 LT ISZERO PUSH2 0xBF5 JUMPI DUP2 SWAP1 POP JUMPDEST PUSH2 0xC09 PUSH2 0xC01 DUP6 PUSH2 0xAB7 JUMP JUMPDEST DUP4 ADD DUP3 PUSH2 0xBA8 JUMP JUMPDEST POP POP JUMPDEST POP POP POP JUMP JUMPDEST PUSH1 0x0 DUP3 DUP3 SHR SWAP1 POP SWAP3 SWAP2 POP POP JUMP JUMPDEST PUSH1 0x0 PUSH2 0xC2F PUSH1 0x0 NOT DUP5 PUSH1 0x8 MUL PUSH2 0xC11 JUMP JUMPDEST NOT DUP1 DUP4 AND SWAP2 POP POP SWAP3 SWAP2 POP POP JUMP JUMPDEST PUSH1 0x0 PUSH2 0xC48 DUP4 DUP4 PUSH2 0xC1E JUMP JUMPDEST SWAP2 POP DUP3 PUSH1 0x2 MUL DUP3 OR SWAP1 POP SWAP3 SWAP2 POP POP JUMP JUMPDEST PUSH2 0xC61 DUP3 PUSH2 0x6DB JUMP JUMPDEST PUSH8 0xFFFFFFFFFFFFFFFF DUP2 GT ISZERO PUSH2 0xC7A JUMPI PUSH2 0xC79 PUSH2 0xA73 JUMP JUMPDEST JUMPDEST PUSH2 0xC84 DUP3 SLOAD PUSH2 0x91E JUMP JUMPDEST PUSH2 0xC8F DUP3 DUP3 DUP6 PUSH2 0xBCB JUMP JUMPDEST PUSH1 0x0 PUSH1 0x20 SWAP1 POP PUSH1 0x1F DUP4 GT PUSH1 0x1 DUP2 EQ PUSH2 0xCC2 JUMPI PUSH1 0x0 DUP5 ISZERO PUSH2 0xCB0 JUMPI DUP3 DUP8 ADD MLOAD SWAP1 POP JUMPDEST PUSH2 0xCBA DUP6 DUP3 PUSH2 0xC3C JUMP JUMPDEST DUP7 SSTORE POP PUSH2 0xD22 JUMP JUMPDEST PUSH1 0x1F NOT DUP5 AND PUSH2 0xCD0 DUP7 PUSH2 0xAA2 JUMP JUMPDEST PUSH1 0x0 JUMPDEST DUP3 DUP2 LT ISZERO PUSH2 0xCF8 JUMPI DUP5 DUP10 ADD MLOAD DUP3 SSTORE PUSH1 0x1 DUP3 ADD SWAP2 POP PUSH1 0x20 DUP6 ADD SWAP5 POP PUSH1 0x20 DUP2 ADD SWAP1 POP PUSH2 0xCD3 JUMP JUMPDEST DUP7 DUP4 LT ISZERO PUSH2 0xD15 JUMPI DUP5 DUP10 ADD MLOAD PUSH2 0xD11 PUSH1 0x1F DUP10 AND DUP3 PUSH2 0xC1E JUMP JUMPDEST DUP4 SSTORE POP JUMPDEST PUSH1 0x1 PUSH1 0x2 DUP9 MUL ADD DUP9 SSTORE POP POP POP JUMPDEST POP POP POP POP POP POP JUMP INVALID LOG2 PUSH5 0x6970667358 0x22 SLT KECCAK256 MLOAD 0xC5 COINBASE DIFFICULTY DUP16 PUSH8 0xF52308646CECAB85 PC 0xD3 0xDC 0xED ORIGIN PUSH19 0xB0E9B740B7A175ED8C9AEB8664736F6C634300 ADDMOD XOR STOP CALLER "
				},
				"gasEstimates": {
					"creation": {
						"codeDepositCost": "684800",
						"executionCost": "25072",
						"totalCost": "709872"
					},
					"external": {
						"ADMIN1()": "422",
						"addAdmin(address)": "24868",
						"isAdmin(address)": "2845",
						"isProtocolContract(address)": "2955",
						"protocolContracts(address)": "infinite",
						"setProtocolContract(address,string,string)": "infinite"
					}
				},
				"methodIdentifiers": {
					"ADMIN1()": "99827d59",
					"addAdmin(address)": "70480275",
					"isAdmin(address)": "24d7806c",
					"isProtocolContract(address)": "9feb2c45",
					"protocolContracts(address)": "17655bb8",
					"setProtocolContract(address,string,string)": "b4934f87"
				}
			},
			"storageLayout": {
				"storage": [
					{
						"astId": 535,
						"contract": "src/admins/Roles.sol:Roles",
						"label": "isAdmin",
						"offset": 0,
						"slot": "0",
						"type": "t_mapping(t_address,t_bool)"
					},
					{
						"astId": 539,
						"contract": "src/admins/Roles.sol:Roles",
						"label": "AdminPenalities",
						"offset": 0,
						"slot": "1",
						"type": "t_mapping(t_address,t_uint8)"
					},
					{
						"astId": 544,
						"contract": "src/admins/Roles.sol:Roles",
						"label": "protocolContracts",
						"offset": 0,
						"slot": "2",
						"type": "t_mapping(t_address,t_struct(Contract)531_storage)"
					}
				],
				"types": {
					"t_address": {
						"encoding": "inplace",
						"label": "address",
						"numberOfBytes": "20"
					},
					"t_bool": {
						"encoding": "inplace",
						"label": "bool",
						"numberOfBytes": "1"
					},
					"t_mapping(t_address,t_bool)": {
						"encoding": "mapping",
						"key": "t_address",
						"label": "mapping(address => bool)",
						"numberOfBytes": "32",
						"value": "t_bool"
					},
					"t_mapping(t_address,t_struct(Contract)531_storage)": {
						"encoding": "mapping",
						"key": "t_address",
						"label": "mapping(address => struct Roles.Contract)",
						"numberOfBytes": "32",
						"value": "t_struct(Contract)531_storage"
					},
					"t_mapping(t_address,t_uint8)": {
						"encoding": "mapping",
						"key": "t_address",
						"label": "mapping(address => uint8)",
						"numberOfBytes": "32",
						"value": "t_uint8"
					},
					"t_string_storage": {
						"encoding": "bytes",
						"label": "string",
						"numberOfBytes": "32"
					},
					"t_struct(Contract)531_storage": {
						"encoding": "inplace",
						"label": "struct Roles.Contract",
						"members": [
							{
								"astId": 526,
								"contract": "src/admins/Roles.sol:Roles",
								"label": "isProtocolContract",
								"offset": 0,
								"slot": "0",
								"type": "t_bool"
							},
							{
								"astId": 528,
								"contract": "src/admins/Roles.sol:Roles",
								"label": "name",
								"offset": 0,
								"slot": "1",
								"type": "t_string_storage"
							},
							{
								"astId": 530,
								"contract": "src/admins/Roles.sol:Roles",
								"label": "description",
								"offset": 0,
								"slot": "2",
								"type": "t_string_storage"
							}
						],
						"numberOfBytes": "96"
					},
					"t_uint8": {
						"encoding": "inplace",
						"label": "uint8",
						"numberOfBytes": "1"
					}
				}
			},
			"userdoc": {
				"kind": "user",
				"methods": {},
				"version": 1
			}
		}
	}
}