{
	"src/WalletContract.sol": {
		"WalletContract": {
			"abi": [
				{
					"inputs": [
						{
							"internalType": "address",
							"name": "_owner",
							"type": "address"
						},
						{
							"internalType": "address",
							"name": "_secondOwner",
							"type": "address"
						},
						{
							"internalType": "address",
							"name": "_funct",
							"type": "address"
						},
						{
							"internalType": "address",
							"name": "_roles",
							"type": "address"
						},
						{
							"internalType": "address",
							"name": "_wEth",
							"type": "address"
						}
					],
					"stateMutability": "nonpayable",
					"type": "constructor"
				},
				{
					"inputs": [
						{
							"internalType": "string",
							"name": "functionName",
							"type": "string"
						}
					],
					"name": "InvalidParams",
					"type": "error"
				},
				{
					"inputs": [
						{
							"internalType": "string",
							"name": "functionName",
							"type": "string"
						}
					],
					"name": "InvalidParams",
					"type": "error"
				},
				{
					"inputs": [
						{
							"internalType": "uint256",
							"name": "totalParms",
							"type": "uint256"
						}
					],
					"name": "MaxParamsReached",
					"type": "error"
				},
				{
					"anonymous": false,
					"inputs": [
						{
							"indexed": false,
							"internalType": "address",
							"name": "token",
							"type": "address"
						},
						{
							"indexed": false,
							"internalType": "uint256",
							"name": "value",
							"type": "uint256"
						}
					],
					"name": "ContractFunded",
					"type": "event"
				},
				{
					"anonymous": false,
					"inputs": [
						{
							"indexed": false,
							"internalType": "bytes4",
							"name": "functionSelector",
							"type": "bytes4"
						},
						{
							"components": [
								{
									"internalType": "uint8",
									"name": "_type",
									"type": "uint8"
								},
								{
									"internalType": "bytes",
									"name": "v",
									"type": "bytes"
								},
								{
									"internalType": "address",
									"name": "w",
									"type": "address"
								},
								{
									"internalType": "uint256",
									"name": "x",
									"type": "uint256"
								},
								{
									"internalType": "int256",
									"name": "y",
									"type": "int256"
								},
								{
									"internalType": "bool",
									"name": "z",
									"type": "bool"
								}
							],
							"indexed": false,
							"internalType": "struct ParamManagerLib.DeFiParam[]",
							"name": "params",
							"type": "tuple[]"
						}
					],
					"name": "DeFiActionExecuted",
					"type": "event"
				},
				{
					"anonymous": false,
					"inputs": [
						{
							"indexed": true,
							"internalType": "address",
							"name": "sender",
							"type": "address"
						},
						{
							"indexed": false,
							"internalType": "uint256",
							"name": "amount",
							"type": "uint256"
						}
					],
					"name": "EtherReceived",
					"type": "event"
				},
				{
					"inputs": [
						{
							"internalType": "bytes[]",
							"name": "_actionData",
							"type": "bytes[]"
						},
						{
							"internalType": "address",
							"name": "_signer",
							"type": "address"
						}
					],
					"name": "defiAction",
					"outputs": [
						{
							"internalType": "bool",
							"name": "",
							"type": "bool"
						}
					],
					"stateMutability": "payable",
					"type": "function"
				},
				{
					"inputs": [
						{
							"internalType": "address",
							"name": "_token",
							"type": "address"
						},
						{
							"internalType": "uint256",
							"name": "_value",
							"type": "uint256"
						}
					],
					"name": "depositFunds",
					"outputs": [],
					"stateMutability": "payable",
					"type": "function"
				},
				{
					"inputs": [
						{
							"internalType": "bytes[]",
							"name": "_data",
							"type": "bytes[]"
						},
						{
							"internalType": "address",
							"name": "_signer",
							"type": "address"
						},
						{
							"internalType": "address",
							"name": "_customizedContract",
							"type": "address"
						}
					],
					"name": "extraDefiActions",
					"outputs": [],
					"stateMutability": "payable",
					"type": "function"
				},
				{
					"inputs": [],
					"name": "functions",
					"outputs": [
						{
							"internalType": "contract IFunctions",
							"name": "",
							"type": "address"
						}
					],
					"stateMutability": "view",
					"type": "function"
				},
				{
					"inputs": [
						{
							"internalType": "address",
							"name": "",
							"type": "address"
						}
					],
					"name": "owners",
					"outputs": [
						{
							"internalType": "bool",
							"name": "",
							"type": "bool"
						}
					],
					"stateMutability": "view",
					"type": "function"
				},
				{
					"inputs": [],
					"name": "roles",
					"outputs": [
						{
							"internalType": "contract Roles",
							"name": "",
							"type": "address"
						}
					],
					"stateMutability": "view",
					"type": "function"
				},
				{
					"inputs": [],
					"name": "wEth",
					"outputs": [
						{
							"internalType": "address",
							"name": "",
							"type": "address"
						}
					],
					"stateMutability": "view",
					"type": "function"
				},
				{
					"inputs": [
						{
							"internalType": "address",
							"name": "_token",
							"type": "address"
						},
						{
							"internalType": "uint256",
							"name": "_value",
							"type": "uint256"
						},
						{
							"internalType": "address",
							"name": "_signer",
							"type": "address"
						},
						{
							"internalType": "address",
							"name": "_recipient",
							"type": "address"
						}
					],
					"name": "withdrawFunds",
					"outputs": [],
					"stateMutability": "nonpayable",
					"type": "function"
				},
				{
					"stateMutability": "payable",
					"type": "receive"
				}
			],
			"devdoc": {
				"author": "AVZ.Tech",
				"kind": "dev",
				"methods": {},
				"version": 1
			},
			"evm": {
				"assembly": "    /* \"src/WalletContract.sol\":555:4800  contract WalletContract {... */\n  mstore(0x40, 0x80)\n    /* \"src/WalletContract.sol\":761:1064  constructor(address _owner, address _secondOwner, address _funct, address _roles, address _wEth) {... */\n  callvalue\n  dup1\n  iszero\n  tag_1\n  jumpi\n  0x00\n  dup1\n  revert\ntag_1:\n  pop\n  mload(0x40)\n  sub(codesize, bytecodeSize)\n  dup1\n  bytecodeSize\n  dup4\n  codecopy\n  dup2\n  dup2\n  add\n  0x40\n  mstore\n  dup2\n  add\n  swap1\n  tag_2\n  swap2\n  swap1\n  tag_3\n  jump\t// in\ntag_2:\n    /* \"src/WalletContract.sol\":886:890  true */\n  0x01\n    /* \"src/WalletContract.sol\":869:875  owners */\n  0x00\n    /* \"src/WalletContract.sol\":869:883  owners[_owner] */\n  dup1\n    /* \"src/WalletContract.sol\":876:882  _owner */\n  dup8\n    /* \"src/WalletContract.sol\":869:883  owners[_owner] */\n  0xffffffffffffffffffffffffffffffffffffffff\n  and\n  0xffffffffffffffffffffffffffffffffffffffff\n  and\n  dup2\n  mstore\n  0x20\n  add\n  swap1\n  dup2\n  mstore\n  0x20\n  add\n  0x00\n  keccak256\n  0x00\n    /* \"src/WalletContract.sol\":869:890  owners[_owner] = true */\n  0x0100\n  exp\n  dup2\n  sload\n  dup2\n  0xff\n  mul\n  not\n  and\n  swap1\n  dup4\n  iszero\n  iszero\n  mul\n  or\n  swap1\n  sstore\n  pop\n    /* \"src/WalletContract.sol\":928:929  0 */\n  0x00\n    /* \"src/WalletContract.sol\":904:930  _secondOwner != address(0) */\n  0xffffffffffffffffffffffffffffffffffffffff\n  and\n    /* \"src/WalletContract.sol\":904:916  _secondOwner */\n  dup5\n    /* \"src/WalletContract.sol\":904:930  _secondOwner != address(0) */\n  0xffffffffffffffffffffffffffffffffffffffff\n  and\n  eq\n    /* \"src/WalletContract.sol\":901:959  if(_secondOwner != address(0)) owners[_secondOwner] = true */\n  tag_6\n  jumpi\n    /* \"src/WalletContract.sol\":955:959  true */\n  0x01\n    /* \"src/WalletContract.sol\":932:938  owners */\n  0x00\n    /* \"src/WalletContract.sol\":932:952  owners[_secondOwner] */\n  dup1\n    /* \"src/WalletContract.sol\":939:951  _secondOwner */\n  dup7\n    /* \"src/WalletContract.sol\":932:952  owners[_secondOwner] */\n  0xffffffffffffffffffffffffffffffffffffffff\n  and\n  0xffffffffffffffffffffffffffffffffffffffff\n  and\n  dup2\n  mstore\n  0x20\n  add\n  swap1\n  dup2\n  mstore\n  0x20\n  add\n  0x00\n  keccak256\n  0x00\n    /* \"src/WalletContract.sol\":932:959  owners[_secondOwner] = true */\n  0x0100\n  exp\n  dup2\n  sload\n  dup2\n  0xff\n  mul\n  not\n  and\n  swap1\n  dup4\n  iszero\n  iszero\n  mul\n  or\n  swap1\n  sstore\n  pop\n    /* \"src/WalletContract.sol\":901:959  if(_secondOwner != address(0)) owners[_secondOwner] = true */\ntag_6:\n    /* \"src/WalletContract.sol\":994:1000  _funct */\n  dup3\n    /* \"src/WalletContract.sol\":971:980  functions */\n  0x01\n  0x00\n    /* \"src/WalletContract.sol\":971:1001  functions = IFunctions(_funct) */\n  0x0100\n  exp\n  dup2\n  sload\n  dup2\n  0xffffffffffffffffffffffffffffffffffffffff\n  mul\n  not\n  and\n  swap1\n  dup4\n  0xffffffffffffffffffffffffffffffffffffffff\n  and\n  mul\n  or\n  swap1\n  sstore\n  pop\n    /* \"src/WalletContract.sol\":1026:1032  _roles */\n  dup2\n    /* \"src/WalletContract.sol\":1012:1017  roles */\n  0x02\n  0x00\n    /* \"src/WalletContract.sol\":1012:1033  roles = Roles(_roles) */\n  0x0100\n  exp\n  dup2\n  sload\n  dup2\n  0xffffffffffffffffffffffffffffffffffffffff\n  mul\n  not\n  and\n  swap1\n  dup4\n  0xffffffffffffffffffffffffffffffffffffffff\n  and\n  mul\n  or\n  swap1\n  sstore\n  pop\n    /* \"src/WalletContract.sol\":1051:1056  _wEth */\n  dup1\n    /* \"src/WalletContract.sol\":1044:1048  wEth */\n  0x03\n  0x00\n    /* \"src/WalletContract.sol\":1044:1056  wEth = _wEth */\n  0x0100\n  exp\n  dup2\n  sload\n  dup2\n  0xffffffffffffffffffffffffffffffffffffffff\n  mul\n  not\n  and\n  swap1\n  dup4\n  0xffffffffffffffffffffffffffffffffffffffff\n  and\n  mul\n  or\n  swap1\n  sstore\n  pop\n    /* \"src/WalletContract.sol\":761:1064  constructor(address _owner, address _secondOwner, address _funct, address _roles, address _wEth) {... */\n  pop\n  pop\n  pop\n  pop\n  pop\n    /* \"src/WalletContract.sol\":555:4800  contract WalletContract {... */\n  jump(tag_7)\n    /* \"#utility.yul\":88:205   */\ntag_9:\n    /* \"#utility.yul\":197:198   */\n  0x00\n    /* \"#utility.yul\":194:195   */\n  dup1\n    /* \"#utility.yul\":187:199   */\n  revert\n    /* \"#utility.yul\":334:460   */\ntag_11:\n    /* \"#utility.yul\":371:378   */\n  0x00\n    /* \"#utility.yul\":411:453   */\n  0xffffffffffffffffffffffffffffffffffffffff\n    /* \"#utility.yul\":404:409   */\n  dup3\n    /* \"#utility.yul\":400:454   */\n  and\n    /* \"#utility.yul\":389:454   */\n  swap1\n  pop\n    /* \"#utility.yul\":334:460   */\n  swap2\n  swap1\n  pop\n  jump\t// out\n    /* \"#utility.yul\":466:562   */\ntag_12:\n    /* \"#utility.yul\":503:510   */\n  0x00\n    /* \"#utility.yul\":532:556   */\n  tag_21\n    /* \"#utility.yul\":550:555   */\n  dup3\n    /* \"#utility.yul\":532:556   */\n  tag_11\n  jump\t// in\ntag_21:\n    /* \"#utility.yul\":521:556   */\n  swap1\n  pop\n    /* \"#utility.yul\":466:562   */\n  swap2\n  swap1\n  pop\n  jump\t// out\n    /* \"#utility.yul\":568:690   */\ntag_13:\n    /* \"#utility.yul\":641:665   */\n  tag_23\n    /* \"#utility.yul\":659:664   */\n  dup2\n    /* \"#utility.yul\":641:665   */\n  tag_12\n  jump\t// in\ntag_23:\n    /* \"#utility.yul\":634:639   */\n  dup2\n    /* \"#utility.yul\":631:666   */\n  eq\n    /* \"#utility.yul\":621:684   */\n  tag_24\n  jumpi\n    /* \"#utility.yul\":680:681   */\n  0x00\n    /* \"#utility.yul\":677:678   */\n  dup1\n    /* \"#utility.yul\":670:682   */\n  revert\n    /* \"#utility.yul\":621:684   */\ntag_24:\n    /* \"#utility.yul\":568:690   */\n  pop\n  jump\t// out\n    /* \"#utility.yul\":696:839   */\ntag_14:\n    /* \"#utility.yul\":753:758   */\n  0x00\n    /* \"#utility.yul\":784:790   */\n  dup2\n    /* \"#utility.yul\":778:791   */\n  mload\n    /* \"#utility.yul\":769:791   */\n  swap1\n  pop\n    /* \"#utility.yul\":800:833   */\n  tag_26\n    /* \"#utility.yul\":827:832   */\n  dup2\n    /* \"#utility.yul\":800:833   */\n  tag_13\n  jump\t// in\ntag_26:\n    /* \"#utility.yul\":696:839   */\n  swap3\n  swap2\n  pop\n  pop\n  jump\t// out\n    /* \"#utility.yul\":845:1822   */\ntag_3:\n    /* \"#utility.yul\":951:957   */\n  0x00\n    /* \"#utility.yul\":959:965   */\n  dup1\n    /* \"#utility.yul\":967:973   */\n  0x00\n    /* \"#utility.yul\":975:981   */\n  dup1\n    /* \"#utility.yul\":983:989   */\n  0x00\n    /* \"#utility.yul\":1032:1035   */\n  0xa0\n    /* \"#utility.yul\":1020:1029   */\n  dup7\n    /* \"#utility.yul\":1011:1018   */\n  dup9\n    /* \"#utility.yul\":1007:1030   */\n  sub\n    /* \"#utility.yul\":1003:1036   */\n  slt\n    /* \"#utility.yul\":1000:1120   */\n  iszero\n  tag_28\n  jumpi\n    /* \"#utility.yul\":1039:1118   */\n  tag_29\n  tag_9\n  jump\t// in\ntag_29:\n    /* \"#utility.yul\":1000:1120   */\ntag_28:\n    /* \"#utility.yul\":1159:1160   */\n  0x00\n    /* \"#utility.yul\":1184:1248   */\n  tag_30\n    /* \"#utility.yul\":1240:1247   */\n  dup9\n    /* \"#utility.yul\":1231:1237   */\n  dup3\n    /* \"#utility.yul\":1220:1229   */\n  dup10\n    /* \"#utility.yul\":1216:1238   */\n  add\n    /* \"#utility.yul\":1184:1248   */\n  tag_14\n  jump\t// in\ntag_30:\n    /* \"#utility.yul\":1174:1248   */\n  swap6\n  pop\n    /* \"#utility.yul\":1130:1258   */\n  pop\n    /* \"#utility.yul\":1297:1299   */\n  0x20\n    /* \"#utility.yul\":1323:1387   */\n  tag_31\n    /* \"#utility.yul\":1379:1386   */\n  dup9\n    /* \"#utility.yul\":1370:1376   */\n  dup3\n    /* \"#utility.yul\":1359:1368   */\n  dup10\n    /* \"#utility.yul\":1355:1377   */\n  add\n    /* \"#utility.yul\":1323:1387   */\n  tag_14\n  jump\t// in\ntag_31:\n    /* \"#utility.yul\":1313:1387   */\n  swap5\n  pop\n    /* \"#utility.yul\":1268:1397   */\n  pop\n    /* \"#utility.yul\":1436:1438   */\n  0x40\n    /* \"#utility.yul\":1462:1526   */\n  tag_32\n    /* \"#utility.yul\":1518:1525   */\n  dup9\n    /* \"#utility.yul\":1509:1515   */\n  dup3\n    /* \"#utility.yul\":1498:1507   */\n  dup10\n    /* \"#utility.yul\":1494:1516   */\n  add\n    /* \"#utility.yul\":1462:1526   */\n  tag_14\n  jump\t// in\ntag_32:\n    /* \"#utility.yul\":1452:1526   */\n  swap4\n  pop\n    /* \"#utility.yul\":1407:1536   */\n  pop\n    /* \"#utility.yul\":1575:1577   */\n  0x60\n    /* \"#utility.yul\":1601:1665   */\n  tag_33\n    /* \"#utility.yul\":1657:1664   */\n  dup9\n    /* \"#utility.yul\":1648:1654   */\n  dup3\n    /* \"#utility.yul\":1637:1646   */\n  dup10\n    /* \"#utility.yul\":1633:1655   */\n  add\n    /* \"#utility.yul\":1601:1665   */\n  tag_14\n  jump\t// in\ntag_33:\n    /* \"#utility.yul\":1591:1665   */\n  swap3\n  pop\n    /* \"#utility.yul\":1546:1675   */\n  pop\n    /* \"#utility.yul\":1714:1717   */\n  0x80\n    /* \"#utility.yul\":1741:1805   */\n  tag_34\n    /* \"#utility.yul\":1797:1804   */\n  dup9\n    /* \"#utility.yul\":1788:1794   */\n  dup3\n    /* \"#utility.yul\":1777:1786   */\n  dup10\n    /* \"#utility.yul\":1773:1795   */\n  add\n    /* \"#utility.yul\":1741:1805   */\n  tag_14\n  jump\t// in\ntag_34:\n    /* \"#utility.yul\":1731:1805   */\n  swap2\n  pop\n    /* \"#utility.yul\":1685:1815   */\n  pop\n    /* \"#utility.yul\":845:1822   */\n  swap3\n  swap6\n  pop\n  swap3\n  swap6\n  swap1\n  swap4\n  pop\n  jump\t// out\n    /* \"src/WalletContract.sol\":555:4800  contract WalletContract {... */\ntag_7:\n  dataSize(sub_0)\n  dup1\n  dataOffset(sub_0)\n  0x00\n  codecopy\n  0x00\n  return\nstop\n\nsub_0: assembly {\n        /* \"src/WalletContract.sol\":555:4800  contract WalletContract {... */\n      mstore(0x40, 0x80)\n      jumpi(tag_1, lt(calldatasize, 0x04))\n      shr(0xe0, calldataload(0x00))\n      dup1\n      0x6ba3fef2\n      gt\n      tag_11\n      jumpi\n      dup1\n      0x6ba3fef2\n      eq\n      tag_7\n      jumpi\n      dup1\n      0x6d070f4b\n      eq\n      tag_8\n      jumpi\n      dup1\n      0x921b004b\n      eq\n      tag_9\n      jumpi\n      dup1\n      0xdf6d9212\n      eq\n      tag_10\n      jumpi\n      jump(tag_2)\n    tag_11:\n      dup1\n      0x022914a7\n      eq\n      tag_3\n      jumpi\n      dup1\n      0x392f5f64\n      eq\n      tag_4\n      jumpi\n      dup1\n      0x53a0f7b6\n      eq\n      tag_5\n      jumpi\n      dup1\n      0x569560e8\n      eq\n      tag_6\n      jumpi\n      jump(tag_2)\n    tag_1:\n      jumpi(tag_2, calldatasize)\n        /* \"src/WalletContract.sol\":2468:2469  0 */\n      0x00\n        /* \"src/WalletContract.sol\":2456:2465  msg.value */\n      callvalue\n        /* \"src/WalletContract.sol\":2456:2469  msg.value > 0 */\n      gt\n        /* \"src/WalletContract.sol\":2448:2489  require(msg.value > 0, \"Send more Ether\") */\n      tag_14\n      jumpi\n      mload(0x40)\n      0x08c379a000000000000000000000000000000000000000000000000000000000\n      dup2\n      mstore\n      0x04\n      add\n      tag_15\n      swap1\n      tag_16\n      jump\t// in\n    tag_15:\n      mload(0x40)\n      dup1\n      swap2\n      sub\n      swap1\n      revert\n    tag_14:\n        /* \"src/WalletContract.sol\":2519:2529  msg.sender */\n      caller\n        /* \"src/WalletContract.sol\":2505:2541  EtherReceived(msg.sender, msg.value) */\n      0xffffffffffffffffffffffffffffffffffffffff\n      and\n      0x1e57e3bb474320be3d2c77138f75b7c3941292d647f5f9634e33a8e94e0e069b\n        /* \"src/WalletContract.sol\":2531:2540  msg.value */\n      callvalue\n        /* \"src/WalletContract.sol\":2505:2541  EtherReceived(msg.sender, msg.value) */\n      mload(0x40)\n      tag_17\n      swap2\n      swap1\n      tag_18\n      jump\t// in\n    tag_17:\n      mload(0x40)\n      dup1\n      swap2\n      sub\n      swap1\n      log2\n        /* \"src/WalletContract.sol\":555:4800  contract WalletContract {... */\n      stop\n    tag_2:\n      0x00\n      dup1\n      revert\n        /* \"src/WalletContract.sol\":626:664  mapping(address => bool) public owners */\n    tag_3:\n      callvalue\n      dup1\n      iszero\n      tag_19\n      jumpi\n      0x00\n      dup1\n      revert\n    tag_19:\n      pop\n      tag_20\n      0x04\n      dup1\n      calldatasize\n      sub\n      dup2\n      add\n      swap1\n      tag_21\n      swap2\n      swap1\n      tag_22\n      jump\t// in\n    tag_21:\n      tag_23\n      jump\t// in\n    tag_20:\n      mload(0x40)\n      tag_24\n      swap2\n      swap1\n      tag_25\n      jump\t// in\n    tag_24:\n      mload(0x40)\n      dup1\n      swap2\n      sub\n      swap1\n      return\n        /* \"src/WalletContract.sol\":708:726  Roles public roles */\n    tag_4:\n      callvalue\n      dup1\n      iszero\n      tag_26\n      jumpi\n      0x00\n      dup1\n      revert\n    tag_26:\n      pop\n      tag_27\n      tag_28\n      jump\t// in\n    tag_27:\n      mload(0x40)\n      tag_29\n      swap2\n      swap1\n      tag_30\n      jump\t// in\n    tag_29:\n      mload(0x40)\n      dup1\n      swap2\n      sub\n      swap1\n      return\n        /* \"src/WalletContract.sol\":4292:4638  function extraDefiActions(bytes[] calldata _data, address _signer, address _customizedContract) external payable accessControl(_signer){... */\n    tag_5:\n      tag_31\n      0x04\n      dup1\n      calldatasize\n      sub\n      dup2\n      add\n      swap1\n      tag_32\n      swap2\n      swap1\n      tag_33\n      jump\t// in\n    tag_32:\n      tag_34\n      jump\t// in\n    tag_31:\n      stop\n        /* \"src/WalletContract.sol\":674:701  IFunctions public functions */\n    tag_6:\n      callvalue\n      dup1\n      iszero\n      tag_35\n      jumpi\n      0x00\n      dup1\n      revert\n    tag_35:\n      pop\n      tag_36\n      tag_37\n      jump\t// in\n    tag_36:\n      mload(0x40)\n      tag_38\n      swap2\n      swap1\n      tag_39\n      jump\t// in\n    tag_38:\n      mload(0x40)\n      dup1\n      swap2\n      sub\n      swap1\n      return\n        /* \"src/WalletContract.sol\":3248:3525  function withdrawFunds(address _token, uint256 _value, address _signer, address _recipient) public accessControl(_signer){... */\n    tag_7:\n      callvalue\n      dup1\n      iszero\n      tag_40\n      jumpi\n      0x00\n      dup1\n      revert\n    tag_40:\n      pop\n      tag_41\n      0x04\n      dup1\n      calldatasize\n      sub\n      dup2\n      add\n      swap1\n      tag_42\n      swap2\n      swap1\n      tag_43\n      jump\t// in\n    tag_42:\n      tag_44\n      jump\t// in\n    tag_41:\n      stop\n        /* \"src/WalletContract.sol\":3533:4141  function defiAction(bytes[] calldata _actionData, address _signer) public payable accessControl(_signer) returns(bool) {... */\n    tag_8:\n      tag_45\n      0x04\n      dup1\n      calldatasize\n      sub\n      dup2\n      add\n      swap1\n      tag_46\n      swap2\n      swap1\n      tag_47\n      jump\t// in\n    tag_46:\n      tag_48\n      jump\t// in\n    tag_45:\n      mload(0x40)\n      tag_49\n      swap2\n      swap1\n      tag_25\n      jump\t// in\n    tag_49:\n      mload(0x40)\n      dup1\n      swap2\n      sub\n      swap1\n      return\n        /* \"src/WalletContract.sol\":2557:3240  function depositFunds(address _token, uint256 _value) public payable {... */\n    tag_9:\n      tag_50\n      0x04\n      dup1\n      calldatasize\n      sub\n      dup2\n      add\n      swap1\n      tag_51\n      swap2\n      swap1\n      tag_52\n      jump\t// in\n    tag_51:\n      tag_53\n      jump\t// in\n    tag_50:\n      stop\n        /* \"src/WalletContract.sol\":733:752  address public wEth */\n    tag_10:\n      callvalue\n      dup1\n      iszero\n      tag_54\n      jumpi\n      0x00\n      dup1\n      revert\n    tag_54:\n      pop\n      tag_55\n      tag_56\n      jump\t// in\n    tag_55:\n      mload(0x40)\n      tag_57\n      swap2\n      swap1\n      tag_58\n      jump\t// in\n    tag_57:\n      mload(0x40)\n      dup1\n      swap2\n      sub\n      swap1\n      return\n        /* \"src/WalletContract.sol\":626:664  mapping(address => bool) public owners */\n    tag_23:\n      mstore(0x20, 0x00)\n      dup1\n      0x00\n      mstore\n      keccak256(0x00, 0x40)\n      0x00\n      swap2\n      pop\n      sload\n      swap1\n      0x0100\n      exp\n      swap1\n      div\n      0xff\n      and\n      dup2\n      jump\t// out\n        /* \"src/WalletContract.sol\":708:726  Roles public roles */\n    tag_28:\n      0x02\n      0x00\n      swap1\n      sload\n      swap1\n      0x0100\n      exp\n      swap1\n      div\n      0xffffffffffffffffffffffffffffffffffffffff\n      and\n      dup2\n      jump\t// out\n        /* \"src/WalletContract.sol\":4292:4638  function extraDefiActions(bytes[] calldata _data, address _signer, address _customizedContract) external payable accessControl(_signer){... */\n    tag_34:\n        /* \"src/WalletContract.sol\":4419:4426  _signer */\n      dup2\n        /* \"src/WalletContract.sol\":1559:1565  owners */\n      0x00\n        /* \"src/WalletContract.sol\":1559:1574  owners[_signer] */\n      dup1\n        /* \"src/WalletContract.sol\":1566:1573  _signer */\n      dup3\n        /* \"src/WalletContract.sol\":1559:1574  owners[_signer] */\n      0xffffffffffffffffffffffffffffffffffffffff\n      and\n      0xffffffffffffffffffffffffffffffffffffffff\n      and\n      dup2\n      mstore\n      0x20\n      add\n      swap1\n      dup2\n      mstore\n      0x20\n      add\n      0x00\n      keccak256\n      0x00\n      swap1\n      sload\n      swap1\n      0x0100\n      exp\n      swap1\n      div\n      0xff\n      and\n        /* \"src/WalletContract.sol\":1551:1604  require(owners[_signer], \"access control: onlyOwner\") */\n      tag_60\n      jumpi\n      mload(0x40)\n      0x08c379a000000000000000000000000000000000000000000000000000000000\n      dup2\n      mstore\n      0x04\n      add\n      tag_61\n      swap1\n      tag_62\n      jump\t// in\n    tag_61:\n      mload(0x40)\n      dup1\n      swap2\n      sub\n      swap1\n      revert\n    tag_60:\n        /* \"src/WalletContract.sol\":4439:4462  bytes4 functionSelector */\n      0x00\n        /* \"src/WalletContract.sol\":4464:4505  ParamManagerLib.DeFiParam[] memory params */\n      dup1\n        /* \"src/WalletContract.sol\":4509:4528  _data.dataDecoder() */\n      tag_64\n        /* \"src/WalletContract.sol\":4509:4514  _data */\n      dup8\n      dup8\n        /* \"src/WalletContract.sol\":4509:4526  _data.dataDecoder */\n      tag_65\n        /* \"src/WalletContract.sol\":4509:4528  _data.dataDecoder() */\n      jump\t// in\n    tag_64:\n        /* \"src/WalletContract.sol\":4438:4528  (bytes4 functionSelector, ParamManagerLib.DeFiParam[] memory params) = _data.dataDecoder() */\n      swap2\n      pop\n      swap2\n      pop\n        /* \"src/WalletContract.sol\":4550:4569  _customizedContract */\n      dup4\n        /* \"src/WalletContract.sol\":4539:4585  IFunctions(_customizedContract).functionRouter */\n      0xffffffffffffffffffffffffffffffffffffffff\n      and\n      0xebe113fb\n        /* \"src/WalletContract.sol\":4594:4603  msg.value */\n      callvalue\n        /* \"src/WalletContract.sol\":4605:4621  functionSelector */\n      dup5\n        /* \"src/WalletContract.sol\":4623:4629  params */\n      dup5\n        /* \"src/WalletContract.sol\":4539:4630  IFunctions(_customizedContract).functionRouter{value : msg.value}(functionSelector, params) */\n      mload(0x40)\n      dup5\n      0xffffffff\n      and\n      0xe0\n      shl\n      dup2\n      mstore\n      0x04\n      add\n      tag_66\n      swap3\n      swap2\n      swap1\n      tag_67\n      jump\t// in\n    tag_66:\n      0x20\n      mload(0x40)\n      dup1\n      dup4\n      sub\n      dup2\n      dup6\n      dup9\n      gas\n      call\n      iszero\n      dup1\n      iszero\n      tag_69\n      jumpi\n      returndatasize\n      0x00\n      dup1\n      returndatacopy\n      revert(0x00, returndatasize)\n    tag_69:\n      pop\n      pop\n      pop\n      pop\n      pop\n      mload(0x40)\n      returndatasize\n      not(0x1f)\n      0x1f\n      dup3\n      add\n      and\n      dup3\n      add\n      dup1\n      0x40\n      mstore\n      pop\n      dup2\n      add\n      swap1\n      tag_70\n      swap2\n      swap1\n      tag_71\n      jump\t// in\n    tag_70:\n      pop\n        /* \"src/WalletContract.sol\":4427:4638  {... */\n      pop\n      pop\n        /* \"src/WalletContract.sol\":4292:4638  function extraDefiActions(bytes[] calldata _data, address _signer, address _customizedContract) external payable accessControl(_signer){... */\n      pop\n      pop\n      pop\n      pop\n      pop\n      jump\t// out\n        /* \"src/WalletContract.sol\":674:701  IFunctions public functions */\n    tag_37:\n      0x01\n      0x00\n      swap1\n      sload\n      swap1\n      0x0100\n      exp\n      swap1\n      div\n      0xffffffffffffffffffffffffffffffffffffffff\n      and\n      dup2\n      jump\t// out\n        /* \"src/WalletContract.sol\":3248:3525  function withdrawFunds(address _token, uint256 _value, address _signer, address _recipient) public accessControl(_signer){... */\n    tag_44:\n        /* \"src/WalletContract.sol\":3361:3368  _signer */\n      dup2\n        /* \"src/WalletContract.sol\":1559:1565  owners */\n      0x00\n        /* \"src/WalletContract.sol\":1559:1574  owners[_signer] */\n      dup1\n        /* \"src/WalletContract.sol\":1566:1573  _signer */\n      dup3\n        /* \"src/WalletContract.sol\":1559:1574  owners[_signer] */\n      0xffffffffffffffffffffffffffffffffffffffff\n      and\n      0xffffffffffffffffffffffffffffffffffffffff\n      and\n      dup2\n      mstore\n      0x20\n      add\n      swap1\n      dup2\n      mstore\n      0x20\n      add\n      0x00\n      keccak256\n      0x00\n      swap1\n      sload\n      swap1\n      0x0100\n      exp\n      swap1\n      div\n      0xff\n      and\n        /* \"src/WalletContract.sol\":1551:1604  require(owners[_signer], \"access control: onlyOwner\") */\n      tag_73\n      jumpi\n      mload(0x40)\n      0x08c379a000000000000000000000000000000000000000000000000000000000\n      dup2\n      mstore\n      0x04\n      add\n      tag_74\n      swap1\n      tag_62\n      jump\t// in\n    tag_74:\n      mload(0x40)\n      dup1\n      swap2\n      sub\n      swap1\n      revert\n    tag_73:\n        /* \"src/WalletContract.sol\":3420:3462  0x132adfe17b67f91573f3853DB9682D9E937e3C91 */\n      0x132adfe17b67f91573f3853db9682d9e937e3c91\n        /* \"src/WalletContract.sol\":3406:3462  msg.sender == 0x132adfe17b67f91573f3853DB9682D9E937e3C91 */\n      0xffffffffffffffffffffffffffffffffffffffff\n      and\n        /* \"src/WalletContract.sol\":3406:3416  msg.sender */\n      caller\n        /* \"src/WalletContract.sol\":3406:3462  msg.sender == 0x132adfe17b67f91573f3853DB9682D9E937e3C91 */\n      0xffffffffffffffffffffffffffffffffffffffff\n      and\n      eq\n        /* \"src/WalletContract.sol\":3398:3463  require(msg.sender == 0x132adfe17b67f91573f3853DB9682D9E937e3C91) */\n      tag_76\n      jumpi\n      0x00\n      dup1\n      revert\n    tag_76:\n        /* \"src/WalletContract.sol\":3481:3487  _token */\n      dup5\n        /* \"src/WalletContract.sol\":3474:3497  IERC20(_token).transfer */\n      0xffffffffffffffffffffffffffffffffffffffff\n      and\n      0xa9059cbb\n        /* \"src/WalletContract.sol\":3498:3508  _recipient */\n      dup4\n        /* \"src/WalletContract.sol\":3510:3516  _value */\n      dup7\n        /* \"src/WalletContract.sol\":3474:3517  IERC20(_token).transfer(_recipient, _value) */\n      mload(0x40)\n      dup4\n      0xffffffff\n      and\n      0xe0\n      shl\n      dup2\n      mstore\n      0x04\n      add\n      tag_77\n      swap3\n      swap2\n      swap1\n      tag_78\n      jump\t// in\n    tag_77:\n      0x20\n      mload(0x40)\n      dup1\n      dup4\n      sub\n      dup2\n      0x00\n      dup8\n      gas\n      call\n      iszero\n      dup1\n      iszero\n      tag_80\n      jumpi\n      returndatasize\n      0x00\n      dup1\n      returndatacopy\n      revert(0x00, returndatasize)\n    tag_80:\n      pop\n      pop\n      pop\n      pop\n      mload(0x40)\n      returndatasize\n      not(0x1f)\n      0x1f\n      dup3\n      add\n      and\n      dup3\n      add\n      dup1\n      0x40\n      mstore\n      pop\n      dup2\n      add\n      swap1\n      tag_81\n      swap2\n      swap1\n      tag_71\n      jump\t// in\n    tag_81:\n      pop\n        /* \"src/WalletContract.sol\":3248:3525  function withdrawFunds(address _token, uint256 _value, address _signer, address _recipient) public accessControl(_signer){... */\n      pop\n      pop\n      pop\n      pop\n      pop\n      jump\t// out\n        /* \"src/WalletContract.sol\":3533:4141  function defiAction(bytes[] calldata _actionData, address _signer) public payable accessControl(_signer) returns(bool) {... */\n    tag_48:\n        /* \"src/WalletContract.sol\":3646:3650  bool */\n      0x00\n        /* \"src/WalletContract.sol\":3629:3636  _signer */\n      dup2\n        /* \"src/WalletContract.sol\":1559:1565  owners */\n      0x00\n        /* \"src/WalletContract.sol\":1559:1574  owners[_signer] */\n      dup1\n        /* \"src/WalletContract.sol\":1566:1573  _signer */\n      dup3\n        /* \"src/WalletContract.sol\":1559:1574  owners[_signer] */\n      0xffffffffffffffffffffffffffffffffffffffff\n      and\n      0xffffffffffffffffffffffffffffffffffffffff\n      and\n      dup2\n      mstore\n      0x20\n      add\n      swap1\n      dup2\n      mstore\n      0x20\n      add\n      0x00\n      keccak256\n      0x00\n      swap1\n      sload\n      swap1\n      0x0100\n      exp\n      swap1\n      div\n      0xff\n      and\n        /* \"src/WalletContract.sol\":1551:1604  require(owners[_signer], \"access control: onlyOwner\") */\n      tag_83\n      jumpi\n      mload(0x40)\n      0x08c379a000000000000000000000000000000000000000000000000000000000\n      dup2\n      mstore\n      0x04\n      add\n      tag_84\n      swap1\n      tag_62\n      jump\t// in\n    tag_84:\n      mload(0x40)\n      dup1\n      swap2\n      sub\n      swap1\n      revert\n    tag_83:\n        /* \"src/WalletContract.sol\":3664:3687  bytes4 functionSelector */\n      0x00\n        /* \"src/WalletContract.sol\":3689:3730  ParamManagerLib.DeFiParam[] memory params */\n      dup1\n        /* \"src/WalletContract.sol\":3734:3759  _actionData.dataDecoder() */\n      tag_86\n        /* \"src/WalletContract.sol\":3734:3745  _actionData */\n      dup8\n      dup8\n        /* \"src/WalletContract.sol\":3734:3757  _actionData.dataDecoder */\n      tag_65\n        /* \"src/WalletContract.sol\":3734:3759  _actionData.dataDecoder() */\n      jump\t// in\n    tag_86:\n        /* \"src/WalletContract.sol\":3663:3759  (bytes4 functionSelector, ParamManagerLib.DeFiParam[] memory params) = _actionData.dataDecoder() */\n      swap2\n      pop\n      swap2\n      pop\n        /* \"src/WalletContract.sol\":3771:3786  bool isRequired */\n      0x00\n        /* \"src/WalletContract.sol\":3788:3799  uint8 token */\n      dup1\n        /* \"src/WalletContract.sol\":3801:3813  uint8 amount */\n      0x00\n        /* \"src/WalletContract.sol\":3817:3826  functions */\n      0x01\n      0x00\n      swap1\n      sload\n      swap1\n      0x0100\n      exp\n      swap1\n      div\n      0xffffffffffffffffffffffffffffffffffffffff\n      and\n        /* \"src/WalletContract.sol\":3817:3842  functions.approveRequired */\n      0xffffffffffffffffffffffffffffffffffffffff\n      and\n      0xa9d2b1d5\n        /* \"src/WalletContract.sol\":3843:3859  functionSelector */\n      dup7\n        /* \"src/WalletContract.sol\":3817:3860  functions.approveRequired(functionSelector) */\n      mload(0x40)\n      dup3\n      0xffffffff\n      and\n      0xe0\n      shl\n      dup2\n      mstore\n      0x04\n      add\n      tag_87\n      swap2\n      swap1\n      tag_88\n      jump\t// in\n    tag_87:\n      0x60\n      mload(0x40)\n      dup1\n      dup4\n      sub\n      dup2\n      dup7\n      gas\n      staticcall\n      iszero\n      dup1\n      iszero\n      tag_90\n      jumpi\n      returndatasize\n      0x00\n      dup1\n      returndatacopy\n      revert(0x00, returndatasize)\n    tag_90:\n      pop\n      pop\n      pop\n      pop\n      mload(0x40)\n      returndatasize\n      not(0x1f)\n      0x1f\n      dup3\n      add\n      and\n      dup3\n      add\n      dup1\n      0x40\n      mstore\n      pop\n      dup2\n      add\n      swap1\n      tag_91\n      swap2\n      swap1\n      tag_92\n      jump\t// in\n    tag_91:\n        /* \"src/WalletContract.sol\":3770:3860  (bool isRequired, uint8 token, uint8 amount) = functions.approveRequired(functionSelector) */\n      swap3\n      pop\n      swap3\n      pop\n      swap3\n      pop\n        /* \"src/WalletContract.sol\":3874:3884  isRequired */\n      dup3\n        /* \"src/WalletContract.sol\":3871:3954  if(isRequired){... */\n      iszero\n      tag_93\n      jumpi\n        /* \"src/WalletContract.sol\":3900:3942  approve(params[token].w, params[amount].x) */\n      tag_94\n        /* \"src/WalletContract.sol\":3908:3914  params */\n      dup5\n        /* \"src/WalletContract.sol\":3915:3920  token */\n      dup4\n        /* \"src/WalletContract.sol\":3908:3921  params[token] */\n      0xff\n      and\n      dup2\n      mload\n      dup2\n      lt\n      tag_95\n      jumpi\n      tag_96\n      tag_97\n      jump\t// in\n    tag_96:\n    tag_95:\n      0x20\n      mul\n      0x20\n      add\n      add\n      mload\n        /* \"src/WalletContract.sol\":3908:3923  params[token].w */\n      0x40\n      add\n      mload\n        /* \"src/WalletContract.sol\":3925:3931  params */\n      dup6\n        /* \"src/WalletContract.sol\":3932:3938  amount */\n      dup4\n        /* \"src/WalletContract.sol\":3925:3939  params[amount] */\n      0xff\n      and\n      dup2\n      mload\n      dup2\n      lt\n      tag_98\n      jumpi\n      tag_99\n      tag_97\n      jump\t// in\n    tag_99:\n    tag_98:\n      0x20\n      mul\n      0x20\n      add\n      add\n      mload\n        /* \"src/WalletContract.sol\":3925:3941  params[amount].x */\n      0x60\n      add\n      mload\n        /* \"src/WalletContract.sol\":3900:3907  approve */\n      tag_100\n        /* \"src/WalletContract.sol\":3900:3942  approve(params[token].w, params[amount].x) */\n      jump\t// in\n    tag_94:\n        /* \"src/WalletContract.sol\":3871:3954  if(isRequired){... */\n    tag_93:\n        /* \"src/WalletContract.sol\":3964:3976  bool success */\n      0x00\n        /* \"src/WalletContract.sol\":3979:3988  functions */\n      0x01\n      0x00\n      swap1\n      sload\n      swap1\n      0x0100\n      exp\n      swap1\n      div\n      0xffffffffffffffffffffffffffffffffffffffff\n      and\n        /* \"src/WalletContract.sol\":3979:4003  functions.functionRouter */\n      0xffffffffffffffffffffffffffffffffffffffff\n      and\n      0xebe113fb\n        /* \"src/WalletContract.sol\":4012:4021  msg.value */\n      callvalue\n        /* \"src/WalletContract.sol\":4023:4039  functionSelector */\n      dup9\n        /* \"src/WalletContract.sol\":4041:4047  params */\n      dup9\n        /* \"src/WalletContract.sol\":3979:4048  functions.functionRouter{value : msg.value}(functionSelector, params) */\n      mload(0x40)\n      dup5\n      0xffffffff\n      and\n      0xe0\n      shl\n      dup2\n      mstore\n      0x04\n      add\n      tag_101\n      swap3\n      swap2\n      swap1\n      tag_67\n      jump\t// in\n    tag_101:\n      0x20\n      mload(0x40)\n      dup1\n      dup4\n      sub\n      dup2\n      dup6\n      dup9\n      gas\n      call\n      iszero\n      dup1\n      iszero\n      tag_103\n      jumpi\n      returndatasize\n      0x00\n      dup1\n      returndatacopy\n      revert(0x00, returndatasize)\n    tag_103:\n      pop\n      pop\n      pop\n      pop\n      pop\n      mload(0x40)\n      returndatasize\n      not(0x1f)\n      0x1f\n      dup3\n      add\n      and\n      dup3\n      add\n      dup1\n      0x40\n      mstore\n      pop\n      dup2\n      add\n      swap1\n      tag_104\n      swap2\n      swap1\n      tag_71\n      jump\t// in\n    tag_104:\n        /* \"src/WalletContract.sol\":3964:4048  bool success = functions.functionRouter{value : msg.value}(functionSelector, params) */\n      swap1\n      pop\n        /* \"src/WalletContract.sol\":4064:4108  DeFiActionExecuted(functionSelector, params) */\n      0x6caf114a658f9dcf6e91511c03b0857224920530d592656698df2c977a71acfa\n        /* \"src/WalletContract.sol\":4083:4099  functionSelector */\n      dup7\n        /* \"src/WalletContract.sol\":4101:4107  params */\n      dup7\n        /* \"src/WalletContract.sol\":4064:4108  DeFiActionExecuted(functionSelector, params) */\n      mload(0x40)\n      tag_105\n      swap3\n      swap2\n      swap1\n      tag_67\n      jump\t// in\n    tag_105:\n      mload(0x40)\n      dup1\n      swap2\n      sub\n      swap1\n      log1\n        /* \"src/WalletContract.sol\":4126:4133  success */\n      dup1\n        /* \"src/WalletContract.sol\":4119:4133  return success */\n      swap8\n      pop\n      pop\n      pop\n      pop\n      pop\n      pop\n      pop\n        /* \"src/WalletContract.sol\":3533:4141  function defiAction(bytes[] calldata _actionData, address _signer) public payable accessControl(_signer) returns(bool) {... */\n      pop\n      swap4\n      swap3\n      pop\n      pop\n      pop\n      jump\t// out\n        /* \"src/WalletContract.sol\":2557:3240  function depositFunds(address _token, uint256 _value) public payable {... */\n    tag_53:\n        /* \"src/WalletContract.sol\":2658:2659  0 */\n      0x00\n        /* \"src/WalletContract.sol\":2640:2660  _token == address(0) */\n      0xffffffffffffffffffffffffffffffffffffffff\n      and\n        /* \"src/WalletContract.sol\":2640:2646  _token */\n      dup3\n        /* \"src/WalletContract.sol\":2640:2660  _token == address(0) */\n      0xffffffffffffffffffffffffffffffffffffffff\n      and\n      eq\n        /* \"src/WalletContract.sol\":2640:2678  _token == address(0) && msg.value == 0 */\n      dup1\n      iszero\n      tag_107\n      jumpi\n      pop\n        /* \"src/WalletContract.sol\":2677:2678  0 */\n      0x00\n        /* \"src/WalletContract.sol\":2664:2673  msg.value */\n      callvalue\n        /* \"src/WalletContract.sol\":2664:2678  msg.value == 0 */\n      eq\n        /* \"src/WalletContract.sol\":2640:2678  _token == address(0) && msg.value == 0 */\n    tag_107:\n        /* \"src/WalletContract.sol\":2640:2732  _token == address(0) && msg.value == 0 || ... */\n      dup1\n      tag_108\n      jumpi\n      pop\n        /* \"src/WalletContract.sol\":2713:2714  0 */\n      0x00\n        /* \"src/WalletContract.sol\":2695:2715  _token != address(0) */\n      0xffffffffffffffffffffffffffffffffffffffff\n      and\n        /* \"src/WalletContract.sol\":2695:2701  _token */\n      dup3\n        /* \"src/WalletContract.sol\":2695:2715  _token != address(0) */\n      0xffffffffffffffffffffffffffffffffffffffff\n      and\n      eq\n      iszero\n        /* \"src/WalletContract.sol\":2695:2732  _token != address(0) && msg.value > 0 */\n      dup1\n      iszero\n      tag_109\n      jumpi\n      pop\n        /* \"src/WalletContract.sol\":2731:2732  0 */\n      0x00\n        /* \"src/WalletContract.sol\":2719:2728  msg.value */\n      callvalue\n        /* \"src/WalletContract.sol\":2719:2732  msg.value > 0 */\n      gt\n        /* \"src/WalletContract.sol\":2695:2732  _token != address(0) && msg.value > 0 */\n    tag_109:\n        /* \"src/WalletContract.sol\":2640:2732  _token == address(0) && msg.value == 0 || ... */\n    tag_108:\n        /* \"src/WalletContract.sol\":2640:2783  _token == address(0) && msg.value == 0 || ... */\n      dup1\n      tag_110\n      jumpi\n      pop\n        /* \"src/WalletContract.sol\":2766:2767  0 */\n      0x00\n        /* \"src/WalletContract.sol\":2748:2768  _token != address(0) */\n      0xffffffffffffffffffffffffffffffffffffffff\n      and\n        /* \"src/WalletContract.sol\":2748:2754  _token */\n      dup3\n        /* \"src/WalletContract.sol\":2748:2768  _token != address(0) */\n      0xffffffffffffffffffffffffffffffffffffffff\n      and\n      eq\n      iszero\n        /* \"src/WalletContract.sol\":2748:2783  _token != address(0) && _value == 0 */\n      dup1\n      iszero\n      tag_111\n      jumpi\n      pop\n        /* \"src/WalletContract.sol\":2782:2783  0 */\n      0x00\n        /* \"src/WalletContract.sol\":2772:2778  _value */\n      dup2\n        /* \"src/WalletContract.sol\":2772:2783  _value == 0 */\n      eq\n        /* \"src/WalletContract.sol\":2748:2783  _token != address(0) && _value == 0 */\n    tag_111:\n        /* \"src/WalletContract.sol\":2640:2783  _token == address(0) && msg.value == 0 || ... */\n    tag_110:\n        /* \"src/WalletContract.sol\":2637:2832  if(_token == address(0) && msg.value == 0 || ... */\n      iszero\n      tag_112\n      jumpi\n        /* \"src/WalletContract.sol\":2803:2832  InvalidParams(\"depositFunds\") */\n      mload(0x40)\n      0xa8c278dd00000000000000000000000000000000000000000000000000000000\n      dup2\n      mstore\n      0x04\n      add\n      tag_113\n      swap1\n      tag_114\n      jump\t// in\n    tag_113:\n      mload(0x40)\n      dup1\n      swap2\n      sub\n      swap1\n      revert\n        /* \"src/WalletContract.sol\":2637:2832  if(_token == address(0) && msg.value == 0 || ... */\n    tag_112:\n        /* \"src/WalletContract.sol\":2843:2856  uint256 value */\n      0x00\n        /* \"src/WalletContract.sol\":2888:2889  0 */\n      dup1\n        /* \"src/WalletContract.sol\":2870:2890  _token == address(0) */\n      0xffffffffffffffffffffffffffffffffffffffff\n      and\n        /* \"src/WalletContract.sol\":2870:2876  _token */\n      dup4\n        /* \"src/WalletContract.sol\":2870:2890  _token == address(0) */\n      0xffffffffffffffffffffffffffffffffffffffff\n      and\n      sub\n        /* \"src/WalletContract.sol\":2867:3188  if(_token == address(0)){... */\n      tag_115\n      jumpi\n        /* \"src/WalletContract.sol\":2914:2923  msg.value */\n      callvalue\n        /* \"src/WalletContract.sol\":2906:2923  value = msg.value */\n      swap1\n      pop\n        /* \"src/WalletContract.sol\":2944:2948  wEth */\n      0x03\n      0x00\n      swap1\n      sload\n      swap1\n      0x0100\n      exp\n      swap1\n      div\n      0xffffffffffffffffffffffffffffffffffffffff\n      and\n        /* \"src/WalletContract.sol\":2938:2957  IWETH(wEth).deposit */\n      0xffffffffffffffffffffffffffffffffffffffff\n      and\n      0xd0e30db0\n        /* \"src/WalletContract.sol\":2966:2975  msg.value */\n      callvalue\n        /* \"src/WalletContract.sol\":2938:2978  IWETH(wEth).deposit{value : msg.value}() */\n      mload(0x40)\n      dup3\n      0xffffffff\n      and\n      0xe0\n      shl\n      dup2\n      mstore\n      0x04\n      add\n      0x00\n      mload(0x40)\n      dup1\n      dup4\n      sub\n      dup2\n      dup6\n      dup9\n      dup1\n      extcodesize\n      iszero\n      dup1\n      iszero\n      tag_116\n      jumpi\n      0x00\n      dup1\n      revert\n    tag_116:\n      pop\n      gas\n      call\n      iszero\n      dup1\n      iszero\n      tag_118\n      jumpi\n      returndatasize\n      0x00\n      dup1\n      returndatacopy\n      revert(0x00, returndatasize)\n    tag_118:\n      pop\n      pop\n      pop\n      pop\n      pop\n        /* \"src/WalletContract.sol\":3010:3014  true */\n      0x01\n        /* \"src/WalletContract.sol\":2993:3001  isHolded */\n      0x04\n        /* \"src/WalletContract.sol\":2993:3007  isHolded[wEth] */\n      0x00\n        /* \"src/WalletContract.sol\":3002:3006  wEth */\n      0x03\n      0x00\n      swap1\n      sload\n      swap1\n      0x0100\n      exp\n      swap1\n      div\n      0xffffffffffffffffffffffffffffffffffffffff\n      and\n        /* \"src/WalletContract.sol\":2993:3007  isHolded[wEth] */\n      0xffffffffffffffffffffffffffffffffffffffff\n      and\n      0xffffffffffffffffffffffffffffffffffffffff\n      and\n      dup2\n      mstore\n      0x20\n      add\n      swap1\n      dup2\n      mstore\n      0x20\n      add\n      0x00\n      keccak256\n      0x00\n        /* \"src/WalletContract.sol\":2993:3014  isHolded[wEth] = true */\n      0x0100\n      exp\n      dup2\n      sload\n      dup2\n      0xff\n      mul\n      not\n      and\n      swap1\n      dup4\n      iszero\n      iszero\n      mul\n      or\n      swap1\n      sstore\n      pop\n        /* \"src/WalletContract.sol\":2867:3188  if(_token == address(0)){... */\n      jump(tag_119)\n    tag_115:\n        /* \"src/WalletContract.sol\":3055:3061  _value */\n      dup2\n        /* \"src/WalletContract.sol\":3047:3061  value = _value */\n      swap1\n      pop\n        /* \"src/WalletContract.sol\":3083:3089  _token */\n      dup3\n        /* \"src/WalletContract.sol\":3076:3103  IERC20(_token).transferFrom */\n      0xffffffffffffffffffffffffffffffffffffffff\n      and\n      0x23b872dd\n        /* \"src/WalletContract.sol\":3104:3114  msg.sender */\n      caller\n        /* \"src/WalletContract.sol\":3124:3128  this */\n      address\n        /* \"src/WalletContract.sol\":3131:3137  _value */\n      dup6\n        /* \"src/WalletContract.sol\":3076:3138  IERC20(_token).transferFrom(msg.sender, address(this), _value) */\n      mload(0x40)\n      dup5\n      0xffffffff\n      and\n      0xe0\n      shl\n      dup2\n      mstore\n      0x04\n      add\n      tag_120\n      swap4\n      swap3\n      swap2\n      swap1\n      tag_121\n      jump\t// in\n    tag_120:\n      0x20\n      mload(0x40)\n      dup1\n      dup4\n      sub\n      dup2\n      0x00\n      dup8\n      gas\n      call\n      iszero\n      dup1\n      iszero\n      tag_123\n      jumpi\n      returndatasize\n      0x00\n      dup1\n      returndatacopy\n      revert(0x00, returndatasize)\n    tag_123:\n      pop\n      pop\n      pop\n      pop\n      mload(0x40)\n      returndatasize\n      not(0x1f)\n      0x1f\n      dup3\n      add\n      and\n      dup3\n      add\n      dup1\n      0x40\n      mstore\n      pop\n      dup2\n      add\n      swap1\n      tag_124\n      swap2\n      swap1\n      tag_71\n      jump\t// in\n    tag_124:\n      pop\n        /* \"src/WalletContract.sol\":3172:3176  true */\n      0x01\n        /* \"src/WalletContract.sol\":3153:3161  isHolded */\n      0x04\n        /* \"src/WalletContract.sol\":3153:3169  isHolded[_token] */\n      0x00\n        /* \"src/WalletContract.sol\":3162:3168  _token */\n      dup6\n        /* \"src/WalletContract.sol\":3153:3169  isHolded[_token] */\n      0xffffffffffffffffffffffffffffffffffffffff\n      and\n      0xffffffffffffffffffffffffffffffffffffffff\n      and\n      dup2\n      mstore\n      0x20\n      add\n      swap1\n      dup2\n      mstore\n      0x20\n      add\n      0x00\n      keccak256\n      0x00\n        /* \"src/WalletContract.sol\":3153:3176  isHolded[_token] = true */\n      0x0100\n      exp\n      dup2\n      sload\n      dup2\n      0xff\n      mul\n      not\n      and\n      swap1\n      dup4\n      iszero\n      iszero\n      mul\n      or\n      swap1\n      sstore\n      pop\n        /* \"src/WalletContract.sol\":2867:3188  if(_token == address(0)){... */\n    tag_119:\n        /* \"src/WalletContract.sol\":3203:3232  ContractFunded(_token, value) */\n      0x0939f6f4877faf071412e527bc4c6d0bd65ad077e52b57334f7765265647a7f1\n        /* \"src/WalletContract.sol\":3218:3224  _token */\n      dup4\n        /* \"src/WalletContract.sol\":3226:3231  value */\n      dup3\n        /* \"src/WalletContract.sol\":3203:3232  ContractFunded(_token, value) */\n      mload(0x40)\n      tag_125\n      swap3\n      swap2\n      swap1\n      tag_78\n      jump\t// in\n    tag_125:\n      mload(0x40)\n      dup1\n      swap2\n      sub\n      swap1\n      log1\n        /* \"src/WalletContract.sol\":2626:3240  {... */\n      pop\n        /* \"src/WalletContract.sol\":2557:3240  function depositFunds(address _token, uint256 _value) public payable {... */\n      pop\n      pop\n      jump\t// out\n        /* \"src/WalletContract.sol\":733:752  address public wEth */\n    tag_56:\n      0x03\n      0x00\n      swap1\n      sload\n      swap1\n      0x0100\n      exp\n      swap1\n      div\n      0xffffffffffffffffffffffffffffffffffffffff\n      and\n      dup2\n      jump\t// out\n        /* \"src/lib/Decoder.sol\":252:1803  function dataDecoder(bytes[] calldata _data) internal pure returns(bytes4, ParamManagerLib.DeFiParam[] memory){... */\n    tag_65:\n        /* \"src/lib/Decoder.sol\":319:325  bytes4 */\n      0x00\n        /* \"src/lib/Decoder.sol\":327:361  ParamManagerLib.DeFiParam[] memory */\n      0x60\n        /* \"src/lib/Decoder.sol\":373:396  bytes4 functionSelector */\n      0x00\n        /* \"src/lib/Decoder.sol\":406:411  _data */\n      dup5\n      dup5\n        /* \"src/lib/Decoder.sol\":412:413  0 */\n      0x00\n        /* \"src/lib/Decoder.sol\":406:414  _data[0] */\n      dup2\n      dup2\n      lt\n      tag_127\n      jumpi\n      tag_128\n      tag_97\n      jump\t// in\n    tag_128:\n    tag_127:\n      swap1\n      pop\n      0x20\n      mul\n      dup2\n      add\n      swap1\n      tag_129\n      swap2\n      swap1\n      tag_130\n      jump\t// in\n    tag_129:\n        /* \"src/lib/Decoder.sol\":399:415  bytes4(_data[0]) */\n      swap1\n      tag_131\n      swap2\n      swap1\n      tag_132\n      jump\t// in\n    tag_131:\n        /* \"src/lib/Decoder.sol\":373:415  bytes4 functionSelector = bytes4(_data[0]) */\n      swap1\n      pop\n        /* \"src/lib/Decoder.sol\":426:454  uint256[] memory paramsTypes */\n      0x00\n        /* \"src/lib/Decoder.sol\":468:473  _data */\n      dup6\n      dup6\n        /* \"src/lib/Decoder.sol\":474:475  1 */\n      0x01\n        /* \"src/lib/Decoder.sol\":468:476  _data[1] */\n      dup2\n      dup2\n      lt\n      tag_133\n      jumpi\n      tag_134\n      tag_97\n      jump\t// in\n    tag_134:\n    tag_133:\n      swap1\n      pop\n      0x20\n      mul\n      dup2\n      add\n      swap1\n      tag_135\n      swap2\n      swap1\n      tag_130\n      jump\t// in\n    tag_135:\n        /* \"src/lib/Decoder.sol\":457:490  abi.decode(_data[1], (uint256[])) */\n      dup2\n      add\n      swap1\n      tag_136\n      swap2\n      swap1\n      tag_137\n      jump\t// in\n    tag_136:\n        /* \"src/lib/Decoder.sol\":426:490  uint256[] memory paramsTypes = abi.decode(_data[1], (uint256[])) */\n      swap1\n      pop\n        /* \"src/lib/Decoder.sol\":525:527  10 */\n      0x0a\n        /* \"src/lib/Decoder.sol\":504:515  paramsTypes */\n      dup2\n        /* \"src/lib/Decoder.sol\":504:522  paramsTypes.length */\n      mload\n        /* \"src/lib/Decoder.sol\":504:527  paramsTypes.length > 10 */\n      gt\n        /* \"src/lib/Decoder.sol\":501:572  if(paramsTypes.length > 10) revert MaxParamsReached(paramsTypes.length) */\n      iszero\n      tag_138\n      jumpi\n        /* \"src/lib/Decoder.sol\":553:564  paramsTypes */\n      dup1\n        /* \"src/lib/Decoder.sol\":553:571  paramsTypes.length */\n      mload\n        /* \"src/lib/Decoder.sol\":536:572  MaxParamsReached(paramsTypes.length) */\n      mload(0x40)\n      0x8bc593cd00000000000000000000000000000000000000000000000000000000\n      dup2\n      mstore\n      0x04\n      add\n      tag_139\n      swap2\n      swap1\n      tag_18\n      jump\t// in\n    tag_139:\n      mload(0x40)\n      dup1\n      swap2\n      sub\n      swap1\n      revert\n        /* \"src/lib/Decoder.sol\":501:572  if(paramsTypes.length > 10) revert MaxParamsReached(paramsTypes.length) */\n    tag_138:\n        /* \"src/lib/Decoder.sol\":583:624  ParamManagerLib.DeFiParam[] memory params */\n      0x00\n        /* \"src/lib/Decoder.sol\":659:670  paramsTypes */\n      dup2\n        /* \"src/lib/Decoder.sol\":659:677  paramsTypes.length */\n      mload\n        /* \"src/lib/Decoder.sol\":627:678  new ParamManagerLib.DeFiParam[](paramsTypes.length) */\n      0xffffffffffffffff\n      dup2\n      gt\n      iszero\n      tag_140\n      jumpi\n      tag_141\n      tag_142\n      jump\t// in\n    tag_141:\n    tag_140:\n      mload(0x40)\n      swap1\n      dup1\n      dup3\n      mstore\n      dup1\n      0x20\n      mul\n      0x20\n      add\n      dup3\n      add\n      0x40\n      mstore\n      dup1\n      iszero\n      tag_143\n      jumpi\n      dup2\n      0x20\n      add\n    tag_144:\n      tag_145\n      tag_146\n      jump\t// in\n    tag_145:\n      dup2\n      mstore\n      0x20\n      add\n      swap1\n      0x01\n      swap1\n      sub\n      swap1\n      dup2\n      tag_144\n      jumpi\n      swap1\n      pop\n    tag_143:\n      pop\n        /* \"src/lib/Decoder.sol\":583:678  ParamManagerLib.DeFiParam[] memory params = new ParamManagerLib.DeFiParam[](paramsTypes.length) */\n      swap1\n      pop\n        /* \"src/lib/Decoder.sol\":689:703  uint256 offset */\n      0x00\n        /* \"src/lib/Decoder.sol\":723:732  uint256 i */\n      dup1\n        /* \"src/lib/Decoder.sol\":719:1753  for(uint256 i = 0; i < paramsTypes.length; i++){... */\n    tag_147:\n        /* \"src/lib/Decoder.sol\":742:753  paramsTypes */\n      dup4\n        /* \"src/lib/Decoder.sol\":742:760  paramsTypes.length */\n      mload\n        /* \"src/lib/Decoder.sol\":738:739  i */\n      dup2\n        /* \"src/lib/Decoder.sol\":738:760  i < paramsTypes.length */\n      lt\n        /* \"src/lib/Decoder.sol\":719:1753  for(uint256 i = 0; i < paramsTypes.length; i++){... */\n      iszero\n      tag_148\n      jumpi\n        /* \"src/lib/Decoder.sol\":781:819  ParamManagerLib.DeFiParam memory param */\n      tag_150\n      tag_146\n      jump\t// in\n    tag_150:\n        /* \"src/lib/Decoder.sol\":855:856  0 */\n      0x00\n        /* \"src/lib/Decoder.sol\":837:848  paramsTypes */\n      dup6\n        /* \"src/lib/Decoder.sol\":849:850  i */\n      dup4\n        /* \"src/lib/Decoder.sol\":837:851  paramsTypes[i] */\n      dup2\n      mload\n      dup2\n      lt\n      tag_151\n      jumpi\n      tag_152\n      tag_97\n      jump\t// in\n    tag_152:\n    tag_151:\n      0x20\n      mul\n      0x20\n      add\n      add\n      mload\n        /* \"src/lib/Decoder.sol\":837:856  paramsTypes[i] == 0 */\n      sub\n        /* \"src/lib/Decoder.sol\":834:1683  if(paramsTypes[i] == 0){... */\n      tag_153\n      jumpi\n        /* \"src/lib/Decoder.sol\":890:891  0 */\n      0x00\n        /* \"src/lib/Decoder.sol\":876:881  param */\n      dup2\n        /* \"src/lib/Decoder.sol\":876:887  param._type */\n      0x00\n      add\n        /* \"src/lib/Decoder.sol\":876:891  param._type = 0 */\n      swap1\n      0xff\n      and\n      swap1\n      dup2\n      0xff\n      and\n      dup2\n      mstore\n      pop\n      pop\n        /* \"src/lib/Decoder.sol\":931:936  _data */\n      dup10\n      dup10\n        /* \"src/lib/Decoder.sol\":937:938  2 */\n      0x02\n        /* \"src/lib/Decoder.sol\":931:939  _data[2] */\n      dup2\n      dup2\n      lt\n      tag_154\n      jumpi\n      tag_155\n      tag_97\n      jump\t// in\n    tag_155:\n    tag_154:\n      swap1\n      pop\n      0x20\n      mul\n      dup2\n      add\n      swap1\n      tag_156\n      swap2\n      swap1\n      tag_130\n      jump\t// in\n    tag_156:\n        /* \"src/lib/Decoder.sol\":940:946  offset */\n      dup5\n        /* \"src/lib/Decoder.sol\":931:957  _data[2][offset:offset+32] */\n      swap1\n        /* \"src/lib/Decoder.sol\":954:956  32 */\n      0x20\n        /* \"src/lib/Decoder.sol\":947:953  offset */\n      dup7\n        /* \"src/lib/Decoder.sol\":947:956  offset+32 */\n      tag_157\n      swap2\n      swap1\n      tag_158\n      jump\t// in\n    tag_157:\n        /* \"src/lib/Decoder.sol\":931:957  _data[2][offset:offset+32] */\n      swap3\n      tag_159\n      swap4\n      swap3\n      swap2\n      swap1\n      tag_160\n      jump\t// in\n    tag_159:\n        /* \"src/lib/Decoder.sol\":920:969  abi.decode(_data[2][offset:offset+32], (address)) */\n      dup2\n      add\n      swap1\n      tag_161\n      swap2\n      swap1\n      tag_162\n      jump\t// in\n    tag_161:\n        /* \"src/lib/Decoder.sol\":910:915  param */\n      dup2\n        /* \"src/lib/Decoder.sol\":910:917  param.w */\n      0x40\n      add\n        /* \"src/lib/Decoder.sol\":910:969  param.w = abi.decode(_data[2][offset:offset+32], (address)) */\n      swap1\n      0xffffffffffffffffffffffffffffffffffffffff\n      and\n      swap1\n      dup2\n      0xffffffffffffffffffffffffffffffffffffffff\n      and\n      dup2\n      mstore\n      pop\n      pop\n        /* \"src/lib/Decoder.sol\":834:1683  if(paramsTypes[i] == 0){... */\n      jump(tag_163)\n    tag_153:\n        /* \"src/lib/Decoder.sol\":1012:1013  1 */\n      0x01\n        /* \"src/lib/Decoder.sol\":994:1005  paramsTypes */\n      dup6\n        /* \"src/lib/Decoder.sol\":1006:1007  i */\n      dup4\n        /* \"src/lib/Decoder.sol\":994:1008  paramsTypes[i] */\n      dup2\n      mload\n      dup2\n      lt\n      tag_164\n      jumpi\n      tag_165\n      tag_97\n      jump\t// in\n    tag_165:\n    tag_164:\n      0x20\n      mul\n      0x20\n      add\n      add\n      mload\n        /* \"src/lib/Decoder.sol\":994:1013  paramsTypes[i] == 1 */\n      sub\n        /* \"src/lib/Decoder.sol\":991:1683  if(paramsTypes[i] == 1){... */\n      tag_166\n      jumpi\n        /* \"src/lib/Decoder.sol\":1047:1048  1 */\n      0x01\n        /* \"src/lib/Decoder.sol\":1033:1038  param */\n      dup2\n        /* \"src/lib/Decoder.sol\":1033:1044  param._type */\n      0x00\n      add\n        /* \"src/lib/Decoder.sol\":1033:1048  param._type = 1 */\n      swap1\n      0xff\n      and\n      swap1\n      dup2\n      0xff\n      and\n      dup2\n      mstore\n      pop\n      pop\n        /* \"src/lib/Decoder.sol\":1088:1093  _data */\n      dup10\n      dup10\n        /* \"src/lib/Decoder.sol\":1094:1095  2 */\n      0x02\n        /* \"src/lib/Decoder.sol\":1088:1096  _data[2] */\n      dup2\n      dup2\n      lt\n      tag_167\n      jumpi\n      tag_168\n      tag_97\n      jump\t// in\n    tag_168:\n    tag_167:\n      swap1\n      pop\n      0x20\n      mul\n      dup2\n      add\n      swap1\n      tag_169\n      swap2\n      swap1\n      tag_130\n      jump\t// in\n    tag_169:\n        /* \"src/lib/Decoder.sol\":1097:1103  offset */\n      dup5\n        /* \"src/lib/Decoder.sol\":1088:1114  _data[2][offset:offset+32] */\n      swap1\n        /* \"src/lib/Decoder.sol\":1111:1113  32 */\n      0x20\n        /* \"src/lib/Decoder.sol\":1104:1110  offset */\n      dup7\n        /* \"src/lib/Decoder.sol\":1104:1113  offset+32 */\n      tag_170\n      swap2\n      swap1\n      tag_158\n      jump\t// in\n    tag_170:\n        /* \"src/lib/Decoder.sol\":1088:1114  _data[2][offset:offset+32] */\n      swap3\n      tag_171\n      swap4\n      swap3\n      swap2\n      swap1\n      tag_160\n      jump\t// in\n    tag_171:\n        /* \"src/lib/Decoder.sol\":1077:1126  abi.decode(_data[2][offset:offset+32], (uint256)) */\n      dup2\n      add\n      swap1\n      tag_172\n      swap2\n      swap1\n      tag_173\n      jump\t// in\n    tag_172:\n        /* \"src/lib/Decoder.sol\":1067:1072  param */\n      dup2\n        /* \"src/lib/Decoder.sol\":1067:1074  param.x */\n      0x60\n      add\n        /* \"src/lib/Decoder.sol\":1067:1126  param.x = abi.decode(_data[2][offset:offset+32], (uint256)) */\n      dup2\n      dup2\n      mstore\n      pop\n      pop\n        /* \"src/lib/Decoder.sol\":991:1683  if(paramsTypes[i] == 1){... */\n      jump(tag_174)\n    tag_166:\n        /* \"src/lib/Decoder.sol\":1169:1170  2 */\n      0x02\n        /* \"src/lib/Decoder.sol\":1151:1162  paramsTypes */\n      dup6\n        /* \"src/lib/Decoder.sol\":1163:1164  i */\n      dup4\n        /* \"src/lib/Decoder.sol\":1151:1165  paramsTypes[i] */\n      dup2\n      mload\n      dup2\n      lt\n      tag_175\n      jumpi\n      tag_176\n      tag_97\n      jump\t// in\n    tag_176:\n    tag_175:\n      0x20\n      mul\n      0x20\n      add\n      add\n      mload\n        /* \"src/lib/Decoder.sol\":1151:1170  paramsTypes[i] == 2 */\n      sub\n        /* \"src/lib/Decoder.sol\":1148:1683  if(paramsTypes[i] == 2){... */\n      tag_177\n      jumpi\n        /* \"src/lib/Decoder.sol\":1204:1205  2 */\n      0x02\n        /* \"src/lib/Decoder.sol\":1190:1195  param */\n      dup2\n        /* \"src/lib/Decoder.sol\":1190:1201  param._type */\n      0x00\n      add\n        /* \"src/lib/Decoder.sol\":1190:1205  param._type = 2 */\n      swap1\n      0xff\n      and\n      swap1\n      dup2\n      0xff\n      and\n      dup2\n      mstore\n      pop\n      pop\n        /* \"src/lib/Decoder.sol\":1245:1250  _data */\n      dup10\n      dup10\n        /* \"src/lib/Decoder.sol\":1251:1252  2 */\n      0x02\n        /* \"src/lib/Decoder.sol\":1245:1253  _data[2] */\n      dup2\n      dup2\n      lt\n      tag_178\n      jumpi\n      tag_179\n      tag_97\n      jump\t// in\n    tag_179:\n    tag_178:\n      swap1\n      pop\n      0x20\n      mul\n      dup2\n      add\n      swap1\n      tag_180\n      swap2\n      swap1\n      tag_130\n      jump\t// in\n    tag_180:\n        /* \"src/lib/Decoder.sol\":1254:1260  offset */\n      dup5\n        /* \"src/lib/Decoder.sol\":1245:1271  _data[2][offset:offset+32] */\n      swap1\n        /* \"src/lib/Decoder.sol\":1268:1270  32 */\n      0x20\n        /* \"src/lib/Decoder.sol\":1261:1267  offset */\n      dup7\n        /* \"src/lib/Decoder.sol\":1261:1270  offset+32 */\n      tag_181\n      swap2\n      swap1\n      tag_158\n      jump\t// in\n    tag_181:\n        /* \"src/lib/Decoder.sol\":1245:1271  _data[2][offset:offset+32] */\n      swap3\n      tag_182\n      swap4\n      swap3\n      swap2\n      swap1\n      tag_160\n      jump\t// in\n    tag_182:\n        /* \"src/lib/Decoder.sol\":1234:1282  abi.decode(_data[2][offset:offset+32], (int256)) */\n      dup2\n      add\n      swap1\n      tag_183\n      swap2\n      swap1\n      tag_184\n      jump\t// in\n    tag_183:\n        /* \"src/lib/Decoder.sol\":1224:1229  param */\n      dup2\n        /* \"src/lib/Decoder.sol\":1224:1231  param.y */\n      0x80\n      add\n        /* \"src/lib/Decoder.sol\":1224:1282  param.y = abi.decode(_data[2][offset:offset+32], (int256)) */\n      dup2\n      dup2\n      mstore\n      pop\n      pop\n        /* \"src/lib/Decoder.sol\":1148:1683  if(paramsTypes[i] == 2){... */\n      jump(tag_185)\n    tag_177:\n        /* \"src/lib/Decoder.sol\":1325:1326  3 */\n      0x03\n        /* \"src/lib/Decoder.sol\":1307:1318  paramsTypes */\n      dup6\n        /* \"src/lib/Decoder.sol\":1319:1320  i */\n      dup4\n        /* \"src/lib/Decoder.sol\":1307:1321  paramsTypes[i] */\n      dup2\n      mload\n      dup2\n      lt\n      tag_186\n      jumpi\n      tag_187\n      tag_97\n      jump\t// in\n    tag_187:\n    tag_186:\n      0x20\n      mul\n      0x20\n      add\n      add\n      mload\n        /* \"src/lib/Decoder.sol\":1307:1326  paramsTypes[i] == 3 */\n      sub\n        /* \"src/lib/Decoder.sol\":1304:1683  if(paramsTypes[i] == 3){... */\n      tag_188\n      jumpi\n        /* \"src/lib/Decoder.sol\":1360:1361  3 */\n      0x03\n        /* \"src/lib/Decoder.sol\":1346:1351  param */\n      dup2\n        /* \"src/lib/Decoder.sol\":1346:1357  param._type */\n      0x00\n      add\n        /* \"src/lib/Decoder.sol\":1346:1361  param._type = 3 */\n      swap1\n      0xff\n      and\n      swap1\n      dup2\n      0xff\n      and\n      dup2\n      mstore\n      pop\n      pop\n        /* \"src/lib/Decoder.sol\":1401:1406  _data */\n      dup10\n      dup10\n        /* \"src/lib/Decoder.sol\":1407:1408  2 */\n      0x02\n        /* \"src/lib/Decoder.sol\":1401:1409  _data[2] */\n      dup2\n      dup2\n      lt\n      tag_189\n      jumpi\n      tag_190\n      tag_97\n      jump\t// in\n    tag_190:\n    tag_189:\n      swap1\n      pop\n      0x20\n      mul\n      dup2\n      add\n      swap1\n      tag_191\n      swap2\n      swap1\n      tag_130\n      jump\t// in\n    tag_191:\n        /* \"src/lib/Decoder.sol\":1410:1416  offset */\n      dup5\n        /* \"src/lib/Decoder.sol\":1401:1427  _data[2][offset:offset+32] */\n      swap1\n        /* \"src/lib/Decoder.sol\":1424:1426  32 */\n      0x20\n        /* \"src/lib/Decoder.sol\":1417:1423  offset */\n      dup7\n        /* \"src/lib/Decoder.sol\":1417:1426  offset+32 */\n      tag_192\n      swap2\n      swap1\n      tag_158\n      jump\t// in\n    tag_192:\n        /* \"src/lib/Decoder.sol\":1401:1427  _data[2][offset:offset+32] */\n      swap3\n      tag_193\n      swap4\n      swap3\n      swap2\n      swap1\n      tag_160\n      jump\t// in\n    tag_193:\n        /* \"src/lib/Decoder.sol\":1390:1436  abi.decode(_data[2][offset:offset+32], (bool)) */\n      dup2\n      add\n      swap1\n      tag_194\n      swap2\n      swap1\n      tag_195\n      jump\t// in\n    tag_194:\n        /* \"src/lib/Decoder.sol\":1380:1385  param */\n      dup2\n        /* \"src/lib/Decoder.sol\":1380:1387  param.z */\n      0xa0\n      add\n        /* \"src/lib/Decoder.sol\":1380:1436  param.z = abi.decode(_data[2][offset:offset+32], (bool)) */\n      swap1\n      iszero\n      iszero\n      swap1\n      dup2\n      iszero\n      iszero\n      dup2\n      mstore\n      pop\n      pop\n        /* \"src/lib/Decoder.sol\":1304:1683  if(paramsTypes[i] == 3){... */\n      jump(tag_196)\n    tag_188:\n        /* \"src/lib/Decoder.sol\":1479:1480  4 */\n      0x04\n        /* \"src/lib/Decoder.sol\":1461:1472  paramsTypes */\n      dup6\n        /* \"src/lib/Decoder.sol\":1473:1474  i */\n      dup4\n        /* \"src/lib/Decoder.sol\":1461:1475  paramsTypes[i] */\n      dup2\n      mload\n      dup2\n      lt\n      tag_197\n      jumpi\n      tag_198\n      tag_97\n      jump\t// in\n    tag_198:\n    tag_197:\n      0x20\n      mul\n      0x20\n      add\n      add\n      mload\n        /* \"src/lib/Decoder.sol\":1461:1480  paramsTypes[i] == 4 */\n      sub\n        /* \"src/lib/Decoder.sol\":1458:1683  if(paramsTypes[i] == 4){... */\n      tag_199\n      jumpi\n        /* \"src/lib/Decoder.sol\":1514:1515  4 */\n      0x04\n        /* \"src/lib/Decoder.sol\":1500:1505  param */\n      dup2\n        /* \"src/lib/Decoder.sol\":1500:1511  param._type */\n      0x00\n      add\n        /* \"src/lib/Decoder.sol\":1500:1515  param._type = 4 */\n      swap1\n      0xff\n      and\n      swap1\n      dup2\n      0xff\n      and\n      dup2\n      mstore\n      pop\n      pop\n        /* \"src/lib/Decoder.sol\":1555:1560  _data */\n      dup10\n      dup10\n        /* \"src/lib/Decoder.sol\":1561:1562  2 */\n      0x02\n        /* \"src/lib/Decoder.sol\":1555:1563  _data[2] */\n      dup2\n      dup2\n      lt\n      tag_200\n      jumpi\n      tag_201\n      tag_97\n      jump\t// in\n    tag_201:\n    tag_200:\n      swap1\n      pop\n      0x20\n      mul\n      dup2\n      add\n      swap1\n      tag_202\n      swap2\n      swap1\n      tag_130\n      jump\t// in\n    tag_202:\n        /* \"src/lib/Decoder.sol\":1564:1570  offset */\n      dup5\n        /* \"src/lib/Decoder.sol\":1555:1581  _data[2][offset:offset+32] */\n      swap1\n        /* \"src/lib/Decoder.sol\":1578:1580  32 */\n      0x20\n        /* \"src/lib/Decoder.sol\":1571:1577  offset */\n      dup7\n        /* \"src/lib/Decoder.sol\":1571:1580  offset+32 */\n      tag_203\n      swap2\n      swap1\n      tag_158\n      jump\t// in\n    tag_203:\n        /* \"src/lib/Decoder.sol\":1555:1581  _data[2][offset:offset+32] */\n      swap3\n      tag_204\n      swap4\n      swap3\n      swap2\n      swap1\n      tag_160\n      jump\t// in\n    tag_204:\n        /* \"src/lib/Decoder.sol\":1544:1591  abi.decode(_data[2][offset:offset+32], (bytes)) */\n      dup2\n      add\n      swap1\n      tag_205\n      swap2\n      swap1\n      tag_206\n      jump\t// in\n    tag_205:\n        /* \"src/lib/Decoder.sol\":1534:1539  param */\n      dup2\n        /* \"src/lib/Decoder.sol\":1534:1541  param.v */\n      0x20\n      add\n        /* \"src/lib/Decoder.sol\":1534:1591  param.v = abi.decode(_data[2][offset:offset+32], (bytes)) */\n      dup2\n      swap1\n      mstore\n      pop\n        /* \"src/lib/Decoder.sol\":1458:1683  if(paramsTypes[i] == 4){... */\n      jump(tag_207)\n    tag_199:\n        /* \"src/lib/Decoder.sol\":1639:1667  InvalidParams(\"dataDecoder\") */\n      mload(0x40)\n      0xa8c278dd00000000000000000000000000000000000000000000000000000000\n      dup2\n      mstore\n      0x04\n      add\n      tag_208\n      swap1\n      tag_209\n      jump\t// in\n    tag_208:\n      mload(0x40)\n      dup1\n      swap2\n      sub\n      swap1\n      revert\n        /* \"src/lib/Decoder.sol\":1458:1683  if(paramsTypes[i] == 4){... */\n    tag_207:\n        /* \"src/lib/Decoder.sol\":1304:1683  if(paramsTypes[i] == 3){... */\n    tag_196:\n        /* \"src/lib/Decoder.sol\":1148:1683  if(paramsTypes[i] == 2){... */\n    tag_185:\n        /* \"src/lib/Decoder.sol\":991:1683  if(paramsTypes[i] == 1){... */\n    tag_174:\n        /* \"src/lib/Decoder.sol\":834:1683  if(paramsTypes[i] == 0){... */\n    tag_163:\n        /* \"src/lib/Decoder.sol\":1709:1714  param */\n      dup1\n        /* \"src/lib/Decoder.sol\":1697:1703  params */\n      dup5\n        /* \"src/lib/Decoder.sol\":1704:1705  i */\n      dup4\n        /* \"src/lib/Decoder.sol\":1697:1706  params[i] */\n      dup2\n      mload\n      dup2\n      lt\n      tag_210\n      jumpi\n      tag_211\n      tag_97\n      jump\t// in\n    tag_211:\n    tag_210:\n      0x20\n      mul\n      0x20\n      add\n      add\n        /* \"src/lib/Decoder.sol\":1697:1714  params[i] = param */\n      dup2\n      swap1\n      mstore\n      pop\n        /* \"src/lib/Decoder.sol\":1739:1741  32 */\n      0x20\n        /* \"src/lib/Decoder.sol\":1729:1741  offset += 32 */\n      dup4\n      tag_212\n      swap2\n      swap1\n      tag_158\n      jump\t// in\n    tag_212:\n      swap3\n      pop\n        /* \"src/lib/Decoder.sol\":766:1753  {... */\n      pop\n        /* \"src/lib/Decoder.sol\":762:765  i++ */\n      dup1\n      dup1\n      0x01\n      add\n      swap2\n      pop\n      pop\n        /* \"src/lib/Decoder.sol\":719:1753  for(uint256 i = 0; i < paramsTypes.length; i++){... */\n      jump(tag_147)\n    tag_148:\n      pop\n        /* \"src/lib/Decoder.sol\":1770:1786  functionSelector */\n      dup4\n        /* \"src/lib/Decoder.sol\":1788:1794  params */\n      dup3\n        /* \"src/lib/Decoder.sol\":1763:1795  return(functionSelector, params) */\n      swap6\n      pop\n      swap6\n      pop\n      pop\n      pop\n      pop\n      pop\n        /* \"src/lib/Decoder.sol\":252:1803  function dataDecoder(bytes[] calldata _data) internal pure returns(bytes4, ParamManagerLib.DeFiParam[] memory){... */\n      swap3\n      pop\n      swap3\n      swap1\n      pop\n      jump\t// out\n        /* \"src/WalletContract.sol\":4149:4278  function approve(address _token, uint256 _amount) internal {... */\n    tag_100:\n        /* \"src/WalletContract.sol\":4226:4232  _token */\n      dup2\n        /* \"src/WalletContract.sol\":4219:4241  IERC20(_token).approve */\n      0xffffffffffffffffffffffffffffffffffffffff\n      and\n      0x095ea7b3\n        /* \"src/WalletContract.sol\":4250:4259  functions */\n      0x01\n      0x00\n      swap1\n      sload\n      swap1\n      0x0100\n      exp\n      swap1\n      div\n      0xffffffffffffffffffffffffffffffffffffffff\n      and\n        /* \"src/WalletContract.sol\":4262:4269  _amount */\n      dup4\n        /* \"src/WalletContract.sol\":4219:4270  IERC20(_token).approve(address(functions), _amount) */\n      mload(0x40)\n      dup4\n      0xffffffff\n      and\n      0xe0\n      shl\n      dup2\n      mstore\n      0x04\n      add\n      tag_214\n      swap3\n      swap2\n      swap1\n      tag_78\n      jump\t// in\n    tag_214:\n      0x20\n      mload(0x40)\n      dup1\n      dup4\n      sub\n      dup2\n      0x00\n      dup8\n      gas\n      call\n      iszero\n      dup1\n      iszero\n      tag_216\n      jumpi\n      returndatasize\n      0x00\n      dup1\n      returndatacopy\n      revert(0x00, returndatasize)\n    tag_216:\n      pop\n      pop\n      pop\n      pop\n      mload(0x40)\n      returndatasize\n      not(0x1f)\n      0x1f\n      dup3\n      add\n      and\n      dup3\n      add\n      dup1\n      0x40\n      mstore\n      pop\n      dup2\n      add\n      swap1\n      tag_217\n      swap2\n      swap1\n      tag_71\n      jump\t// in\n    tag_217:\n      pop\n        /* \"src/WalletContract.sol\":4149:4278  function approve(address _token, uint256 _amount) internal {... */\n      pop\n      pop\n      jump\t// out\n    tag_146:\n      mload(0x40)\n      dup1\n      0xc0\n      add\n      0x40\n      mstore\n      dup1\n      and(0xff, 0x00)\n      dup2\n      mstore\n      0x20\n      add\n      0x60\n      dup2\n      mstore\n      0x20\n      add\n      and(0xffffffffffffffffffffffffffffffffffffffff, 0x00)\n      dup2\n      mstore\n      0x20\n      add\n      0x00\n      dup2\n      mstore\n      0x20\n      add\n      0x00\n      dup2\n      mstore\n      0x20\n      add\n      iszero(iszero(0x00))\n      dup2\n      mstore\n      pop\n      swap1\n      jump\t// out\n        /* \"#utility.yul\":7:176   */\n    tag_218:\n        /* \"#utility.yul\":91:102   */\n      0x00\n        /* \"#utility.yul\":125:131   */\n      dup3\n        /* \"#utility.yul\":120:123   */\n      dup3\n        /* \"#utility.yul\":113:132   */\n      mstore\n        /* \"#utility.yul\":165:169   */\n      0x20\n        /* \"#utility.yul\":160:163   */\n      dup3\n        /* \"#utility.yul\":156:170   */\n      add\n        /* \"#utility.yul\":141:170   */\n      swap1\n      pop\n        /* \"#utility.yul\":7:176   */\n      swap3\n      swap2\n      pop\n      pop\n      jump\t// out\n        /* \"#utility.yul\":182:347   */\n    tag_219:\n        /* \"#utility.yul\":322:339   */\n      0x53656e64206d6f72652045746865720000000000000000000000000000000000\n        /* \"#utility.yul\":318:319   */\n      0x00\n        /* \"#utility.yul\":310:316   */\n      dup3\n        /* \"#utility.yul\":306:320   */\n      add\n        /* \"#utility.yul\":299:340   */\n      mstore\n        /* \"#utility.yul\":182:347   */\n      pop\n      jump\t// out\n        /* \"#utility.yul\":353:719   */\n    tag_220:\n        /* \"#utility.yul\":495:498   */\n      0x00\n        /* \"#utility.yul\":516:583   */\n      tag_306\n        /* \"#utility.yul\":580:582   */\n      0x0f\n        /* \"#utility.yul\":575:578   */\n      dup4\n        /* \"#utility.yul\":516:583   */\n      tag_218\n      jump\t// in\n    tag_306:\n        /* \"#utility.yul\":509:583   */\n      swap2\n      pop\n        /* \"#utility.yul\":592:685   */\n      tag_307\n        /* \"#utility.yul\":681:684   */\n      dup3\n        /* \"#utility.yul\":592:685   */\n      tag_219\n      jump\t// in\n    tag_307:\n        /* \"#utility.yul\":710:712   */\n      0x20\n        /* \"#utility.yul\":705:708   */\n      dup3\n        /* \"#utility.yul\":701:713   */\n      add\n        /* \"#utility.yul\":694:713   */\n      swap1\n      pop\n        /* \"#utility.yul\":353:719   */\n      swap2\n      swap1\n      pop\n      jump\t// out\n        /* \"#utility.yul\":725:1144   */\n    tag_16:\n        /* \"#utility.yul\":891:895   */\n      0x00\n        /* \"#utility.yul\":929:931   */\n      0x20\n        /* \"#utility.yul\":918:927   */\n      dup3\n        /* \"#utility.yul\":914:932   */\n      add\n        /* \"#utility.yul\":906:932   */\n      swap1\n      pop\n        /* \"#utility.yul\":978:987   */\n      dup2\n        /* \"#utility.yul\":972:976   */\n      dup2\n        /* \"#utility.yul\":968:988   */\n      sub\n        /* \"#utility.yul\":964:965   */\n      0x00\n        /* \"#utility.yul\":953:962   */\n      dup4\n        /* \"#utility.yul\":949:966   */\n      add\n        /* \"#utility.yul\":942:989   */\n      mstore\n        /* \"#utility.yul\":1006:1137   */\n      tag_309\n        /* \"#utility.yul\":1132:1136   */\n      dup2\n        /* \"#utility.yul\":1006:1137   */\n      tag_220\n      jump\t// in\n    tag_309:\n        /* \"#utility.yul\":998:1137   */\n      swap1\n      pop\n        /* \"#utility.yul\":725:1144   */\n      swap2\n      swap1\n      pop\n      jump\t// out\n        /* \"#utility.yul\":1150:1227   */\n    tag_221:\n        /* \"#utility.yul\":1187:1194   */\n      0x00\n        /* \"#utility.yul\":1216:1221   */\n      dup2\n        /* \"#utility.yul\":1205:1221   */\n      swap1\n      pop\n        /* \"#utility.yul\":1150:1227   */\n      swap2\n      swap1\n      pop\n      jump\t// out\n        /* \"#utility.yul\":1233:1351   */\n    tag_222:\n        /* \"#utility.yul\":1320:1344   */\n      tag_312\n        /* \"#utility.yul\":1338:1343   */\n      dup2\n        /* \"#utility.yul\":1320:1344   */\n      tag_221\n      jump\t// in\n    tag_312:\n        /* \"#utility.yul\":1315:1318   */\n      dup3\n        /* \"#utility.yul\":1308:1345   */\n      mstore\n        /* \"#utility.yul\":1233:1351   */\n      pop\n      pop\n      jump\t// out\n        /* \"#utility.yul\":1357:1579   */\n    tag_18:\n        /* \"#utility.yul\":1450:1454   */\n      0x00\n        /* \"#utility.yul\":1488:1490   */\n      0x20\n        /* \"#utility.yul\":1477:1486   */\n      dup3\n        /* \"#utility.yul\":1473:1491   */\n      add\n        /* \"#utility.yul\":1465:1491   */\n      swap1\n      pop\n        /* \"#utility.yul\":1501:1572   */\n      tag_314\n        /* \"#utility.yul\":1569:1570   */\n      0x00\n        /* \"#utility.yul\":1558:1567   */\n      dup4\n        /* \"#utility.yul\":1554:1571   */\n      add\n        /* \"#utility.yul\":1545:1551   */\n      dup5\n        /* \"#utility.yul\":1501:1572   */\n      tag_222\n      jump\t// in\n    tag_314:\n        /* \"#utility.yul\":1357:1579   */\n      swap3\n      swap2\n      pop\n      pop\n      jump\t// out\n        /* \"#utility.yul\":1585:1660   */\n    tag_223:\n        /* \"#utility.yul\":1618:1624   */\n      0x00\n        /* \"#utility.yul\":1651:1653   */\n      0x40\n        /* \"#utility.yul\":1645:1654   */\n      mload\n        /* \"#utility.yul\":1635:1654   */\n      swap1\n      pop\n        /* \"#utility.yul\":1585:1660   */\n      swap1\n      jump\t// out\n        /* \"#utility.yul\":1666:1783   */\n    tag_224:\n        /* \"#utility.yul\":1775:1776   */\n      0x00\n        /* \"#utility.yul\":1772:1773   */\n      dup1\n        /* \"#utility.yul\":1765:1777   */\n      revert\n        /* \"#utility.yul\":1789:1906   */\n    tag_225:\n        /* \"#utility.yul\":1898:1899   */\n      0x00\n        /* \"#utility.yul\":1895:1896   */\n      dup1\n        /* \"#utility.yul\":1888:1900   */\n      revert\n        /* \"#utility.yul\":1912:2038   */\n    tag_226:\n        /* \"#utility.yul\":1949:1956   */\n      0x00\n        /* \"#utility.yul\":1989:2031   */\n      0xffffffffffffffffffffffffffffffffffffffff\n        /* \"#utility.yul\":1982:1987   */\n      dup3\n        /* \"#utility.yul\":1978:2032   */\n      and\n        /* \"#utility.yul\":1967:2032   */\n      swap1\n      pop\n        /* \"#utility.yul\":1912:2038   */\n      swap2\n      swap1\n      pop\n      jump\t// out\n        /* \"#utility.yul\":2044:2140   */\n    tag_227:\n        /* \"#utility.yul\":2081:2088   */\n      0x00\n        /* \"#utility.yul\":2110:2134   */\n      tag_320\n        /* \"#utility.yul\":2128:2133   */\n      dup3\n        /* \"#utility.yul\":2110:2134   */\n      tag_226\n      jump\t// in\n    tag_320:\n        /* \"#utility.yul\":2099:2134   */\n      swap1\n      pop\n        /* \"#utility.yul\":2044:2140   */\n      swap2\n      swap1\n      pop\n      jump\t// out\n        /* \"#utility.yul\":2146:2268   */\n    tag_228:\n        /* \"#utility.yul\":2219:2243   */\n      tag_322\n        /* \"#utility.yul\":2237:2242   */\n      dup2\n        /* \"#utility.yul\":2219:2243   */\n      tag_227\n      jump\t// in\n    tag_322:\n        /* \"#utility.yul\":2212:2217   */\n      dup2\n        /* \"#utility.yul\":2209:2244   */\n      eq\n        /* \"#utility.yul\":2199:2262   */\n      tag_323\n      jumpi\n        /* \"#utility.yul\":2258:2259   */\n      0x00\n        /* \"#utility.yul\":2255:2256   */\n      dup1\n        /* \"#utility.yul\":2248:2260   */\n      revert\n        /* \"#utility.yul\":2199:2262   */\n    tag_323:\n        /* \"#utility.yul\":2146:2268   */\n      pop\n      jump\t// out\n        /* \"#utility.yul\":2274:2413   */\n    tag_229:\n        /* \"#utility.yul\":2320:2325   */\n      0x00\n        /* \"#utility.yul\":2358:2364   */\n      dup2\n        /* \"#utility.yul\":2345:2365   */\n      calldataload\n        /* \"#utility.yul\":2336:2365   */\n      swap1\n      pop\n        /* \"#utility.yul\":2374:2407   */\n      tag_325\n        /* \"#utility.yul\":2401:2406   */\n      dup2\n        /* \"#utility.yul\":2374:2407   */\n      tag_228\n      jump\t// in\n    tag_325:\n        /* \"#utility.yul\":2274:2413   */\n      swap3\n      swap2\n      pop\n      pop\n      jump\t// out\n        /* \"#utility.yul\":2419:2748   */\n    tag_22:\n        /* \"#utility.yul\":2478:2484   */\n      0x00\n        /* \"#utility.yul\":2527:2529   */\n      0x20\n        /* \"#utility.yul\":2515:2524   */\n      dup3\n        /* \"#utility.yul\":2506:2513   */\n      dup5\n        /* \"#utility.yul\":2502:2525   */\n      sub\n        /* \"#utility.yul\":2498:2530   */\n      slt\n        /* \"#utility.yul\":2495:2614   */\n      iszero\n      tag_327\n      jumpi\n        /* \"#utility.yul\":2533:2612   */\n      tag_328\n      tag_224\n      jump\t// in\n    tag_328:\n        /* \"#utility.yul\":2495:2614   */\n    tag_327:\n        /* \"#utility.yul\":2653:2654   */\n      0x00\n        /* \"#utility.yul\":2678:2731   */\n      tag_329\n        /* \"#utility.yul\":2723:2730   */\n      dup5\n        /* \"#utility.yul\":2714:2720   */\n      dup3\n        /* \"#utility.yul\":2703:2712   */\n      dup6\n        /* \"#utility.yul\":2699:2721   */\n      add\n        /* \"#utility.yul\":2678:2731   */\n      tag_229\n      jump\t// in\n    tag_329:\n        /* \"#utility.yul\":2668:2731   */\n      swap2\n      pop\n        /* \"#utility.yul\":2624:2741   */\n      pop\n        /* \"#utility.yul\":2419:2748   */\n      swap3\n      swap2\n      pop\n      pop\n      jump\t// out\n        /* \"#utility.yul\":2754:2844   */\n    tag_230:\n        /* \"#utility.yul\":2788:2795   */\n      0x00\n        /* \"#utility.yul\":2831:2836   */\n      dup2\n        /* \"#utility.yul\":2824:2837   */\n      iszero\n        /* \"#utility.yul\":2817:2838   */\n      iszero\n        /* \"#utility.yul\":2806:2838   */\n      swap1\n      pop\n        /* \"#utility.yul\":2754:2844   */\n      swap2\n      swap1\n      pop\n      jump\t// out\n        /* \"#utility.yul\":2850:2959   */\n    tag_231:\n        /* \"#utility.yul\":2931:2952   */\n      tag_332\n        /* \"#utility.yul\":2946:2951   */\n      dup2\n        /* \"#utility.yul\":2931:2952   */\n      tag_230\n      jump\t// in\n    tag_332:\n        /* \"#utility.yul\":2926:2929   */\n      dup3\n        /* \"#utility.yul\":2919:2953   */\n      mstore\n        /* \"#utility.yul\":2850:2959   */\n      pop\n      pop\n      jump\t// out\n        /* \"#utility.yul\":2965:3175   */\n    tag_25:\n        /* \"#utility.yul\":3052:3056   */\n      0x00\n        /* \"#utility.yul\":3090:3092   */\n      0x20\n        /* \"#utility.yul\":3079:3088   */\n      dup3\n        /* \"#utility.yul\":3075:3093   */\n      add\n        /* \"#utility.yul\":3067:3093   */\n      swap1\n      pop\n        /* \"#utility.yul\":3103:3168   */\n      tag_334\n        /* \"#utility.yul\":3165:3166   */\n      0x00\n        /* \"#utility.yul\":3154:3163   */\n      dup4\n        /* \"#utility.yul\":3150:3167   */\n      add\n        /* \"#utility.yul\":3141:3147   */\n      dup5\n        /* \"#utility.yul\":3103:3168   */\n      tag_231\n      jump\t// in\n    tag_334:\n        /* \"#utility.yul\":2965:3175   */\n      swap3\n      swap2\n      pop\n      pop\n      jump\t// out\n        /* \"#utility.yul\":3181:3241   */\n    tag_232:\n        /* \"#utility.yul\":3209:3212   */\n      0x00\n        /* \"#utility.yul\":3230:3235   */\n      dup2\n        /* \"#utility.yul\":3223:3235   */\n      swap1\n      pop\n        /* \"#utility.yul\":3181:3241   */\n      swap2\n      swap1\n      pop\n      jump\t// out\n        /* \"#utility.yul\":3247:3389   */\n    tag_233:\n        /* \"#utility.yul\":3297:3306   */\n      0x00\n        /* \"#utility.yul\":3330:3383   */\n      tag_337\n        /* \"#utility.yul\":3348:3382   */\n      tag_338\n        /* \"#utility.yul\":3357:3381   */\n      tag_339\n        /* \"#utility.yul\":3375:3380   */\n      dup5\n        /* \"#utility.yul\":3357:3381   */\n      tag_226\n      jump\t// in\n    tag_339:\n        /* \"#utility.yul\":3348:3382   */\n      tag_232\n      jump\t// in\n    tag_338:\n        /* \"#utility.yul\":3330:3383   */\n      tag_226\n      jump\t// in\n    tag_337:\n        /* \"#utility.yul\":3317:3383   */\n      swap1\n      pop\n        /* \"#utility.yul\":3247:3389   */\n      swap2\n      swap1\n      pop\n      jump\t// out\n        /* \"#utility.yul\":3395:3521   */\n    tag_234:\n        /* \"#utility.yul\":3445:3454   */\n      0x00\n        /* \"#utility.yul\":3478:3515   */\n      tag_341\n        /* \"#utility.yul\":3509:3514   */\n      dup3\n        /* \"#utility.yul\":3478:3515   */\n      tag_233\n      jump\t// in\n    tag_341:\n        /* \"#utility.yul\":3465:3515   */\n      swap1\n      pop\n        /* \"#utility.yul\":3395:3521   */\n      swap2\n      swap1\n      pop\n      jump\t// out\n        /* \"#utility.yul\":3527:3666   */\n    tag_235:\n        /* \"#utility.yul\":3590:3599   */\n      0x00\n        /* \"#utility.yul\":3623:3660   */\n      tag_343\n        /* \"#utility.yul\":3654:3659   */\n      dup3\n        /* \"#utility.yul\":3623:3660   */\n      tag_234\n      jump\t// in\n    tag_343:\n        /* \"#utility.yul\":3610:3660   */\n      swap1\n      pop\n        /* \"#utility.yul\":3527:3666   */\n      swap2\n      swap1\n      pop\n      jump\t// out\n        /* \"#utility.yul\":3672:3829   */\n    tag_236:\n        /* \"#utility.yul\":3772:3822   */\n      tag_345\n        /* \"#utility.yul\":3816:3821   */\n      dup2\n        /* \"#utility.yul\":3772:3822   */\n      tag_235\n      jump\t// in\n    tag_345:\n        /* \"#utility.yul\":3767:3770   */\n      dup3\n        /* \"#utility.yul\":3760:3823   */\n      mstore\n        /* \"#utility.yul\":3672:3829   */\n      pop\n      pop\n      jump\t// out\n        /* \"#utility.yul\":3835:4083   */\n    tag_30:\n        /* \"#utility.yul\":3941:3945   */\n      0x00\n        /* \"#utility.yul\":3979:3981   */\n      0x20\n        /* \"#utility.yul\":3968:3977   */\n      dup3\n        /* \"#utility.yul\":3964:3982   */\n      add\n        /* \"#utility.yul\":3956:3982   */\n      swap1\n      pop\n        /* \"#utility.yul\":3992:4076   */\n      tag_347\n        /* \"#utility.yul\":4073:4074   */\n      0x00\n        /* \"#utility.yul\":4062:4071   */\n      dup4\n        /* \"#utility.yul\":4058:4075   */\n      add\n        /* \"#utility.yul\":4049:4055   */\n      dup5\n        /* \"#utility.yul\":3992:4076   */\n      tag_236\n      jump\t// in\n    tag_347:\n        /* \"#utility.yul\":3835:4083   */\n      swap3\n      swap2\n      pop\n      pop\n      jump\t// out\n        /* \"#utility.yul\":4089:4206   */\n    tag_237:\n        /* \"#utility.yul\":4198:4199   */\n      0x00\n        /* \"#utility.yul\":4195:4196   */\n      dup1\n        /* \"#utility.yul\":4188:4200   */\n      revert\n        /* \"#utility.yul\":4212:4329   */\n    tag_238:\n        /* \"#utility.yul\":4321:4322   */\n      0x00\n        /* \"#utility.yul\":4318:4319   */\n      dup1\n        /* \"#utility.yul\":4311:4323   */\n      revert\n        /* \"#utility.yul\":4335:4452   */\n    tag_239:\n        /* \"#utility.yul\":4444:4445   */\n      0x00\n        /* \"#utility.yul\":4441:4442   */\n      dup1\n        /* \"#utility.yul\":4434:4446   */\n      revert\n        /* \"#utility.yul\":4473:5052   */\n    tag_240:\n        /* \"#utility.yul\":4557:4565   */\n      0x00\n        /* \"#utility.yul\":4567:4573   */\n      dup1\n        /* \"#utility.yul\":4617:4620   */\n      dup4\n        /* \"#utility.yul\":4610:4614   */\n      0x1f\n        /* \"#utility.yul\":4602:4608   */\n      dup5\n        /* \"#utility.yul\":4598:4615   */\n      add\n        /* \"#utility.yul\":4594:4621   */\n      slt\n        /* \"#utility.yul\":4584:4706   */\n      tag_352\n      jumpi\n        /* \"#utility.yul\":4625:4704   */\n      tag_353\n      tag_237\n      jump\t// in\n    tag_353:\n        /* \"#utility.yul\":4584:4706   */\n    tag_352:\n        /* \"#utility.yul\":4738:4744   */\n      dup3\n        /* \"#utility.yul\":4725:4745   */\n      calldataload\n        /* \"#utility.yul\":4715:4745   */\n      swap1\n      pop\n        /* \"#utility.yul\":4768:4786   */\n      0xffffffffffffffff\n        /* \"#utility.yul\":4760:4766   */\n      dup2\n        /* \"#utility.yul\":4757:4787   */\n      gt\n        /* \"#utility.yul\":4754:4871   */\n      iszero\n      tag_354\n      jumpi\n        /* \"#utility.yul\":4790:4869   */\n      tag_355\n      tag_238\n      jump\t// in\n    tag_355:\n        /* \"#utility.yul\":4754:4871   */\n    tag_354:\n        /* \"#utility.yul\":4904:4908   */\n      0x20\n        /* \"#utility.yul\":4896:4902   */\n      dup4\n        /* \"#utility.yul\":4892:4909   */\n      add\n        /* \"#utility.yul\":4880:4909   */\n      swap2\n      pop\n        /* \"#utility.yul\":4958:4961   */\n      dup4\n        /* \"#utility.yul\":4950:4954   */\n      0x20\n        /* \"#utility.yul\":4942:4948   */\n      dup3\n        /* \"#utility.yul\":4938:4955   */\n      mul\n        /* \"#utility.yul\":4928:4936   */\n      dup4\n        /* \"#utility.yul\":4924:4956   */\n      add\n        /* \"#utility.yul\":4921:4962   */\n      gt\n        /* \"#utility.yul\":4918:5046   */\n      iszero\n      tag_356\n      jumpi\n        /* \"#utility.yul\":4965:5044   */\n      tag_357\n      tag_239\n      jump\t// in\n    tag_357:\n        /* \"#utility.yul\":4918:5046   */\n    tag_356:\n        /* \"#utility.yul\":4473:5052   */\n      swap3\n      pop\n      swap3\n      swap1\n      pop\n      jump\t// out\n        /* \"#utility.yul\":5058:5929   */\n    tag_33:\n        /* \"#utility.yul\":5173:5179   */\n      0x00\n        /* \"#utility.yul\":5181:5187   */\n      dup1\n        /* \"#utility.yul\":5189:5195   */\n      0x00\n        /* \"#utility.yul\":5197:5203   */\n      dup1\n        /* \"#utility.yul\":5246:5248   */\n      0x60\n        /* \"#utility.yul\":5234:5243   */\n      dup6\n        /* \"#utility.yul\":5225:5232   */\n      dup8\n        /* \"#utility.yul\":5221:5244   */\n      sub\n        /* \"#utility.yul\":5217:5249   */\n      slt\n        /* \"#utility.yul\":5214:5333   */\n      iszero\n      tag_359\n      jumpi\n        /* \"#utility.yul\":5252:5331   */\n      tag_360\n      tag_224\n      jump\t// in\n    tag_360:\n        /* \"#utility.yul\":5214:5333   */\n    tag_359:\n        /* \"#utility.yul\":5400:5401   */\n      0x00\n        /* \"#utility.yul\":5389:5398   */\n      dup6\n        /* \"#utility.yul\":5385:5402   */\n      add\n        /* \"#utility.yul\":5372:5403   */\n      calldataload\n        /* \"#utility.yul\":5430:5448   */\n      0xffffffffffffffff\n        /* \"#utility.yul\":5422:5428   */\n      dup2\n        /* \"#utility.yul\":5419:5449   */\n      gt\n        /* \"#utility.yul\":5416:5533   */\n      iszero\n      tag_361\n      jumpi\n        /* \"#utility.yul\":5452:5531   */\n      tag_362\n      tag_225\n      jump\t// in\n    tag_362:\n        /* \"#utility.yul\":5416:5533   */\n    tag_361:\n        /* \"#utility.yul\":5565:5656   */\n      tag_363\n        /* \"#utility.yul\":5648:5655   */\n      dup8\n        /* \"#utility.yul\":5639:5645   */\n      dup3\n        /* \"#utility.yul\":5628:5637   */\n      dup9\n        /* \"#utility.yul\":5624:5646   */\n      add\n        /* \"#utility.yul\":5565:5656   */\n      tag_240\n      jump\t// in\n    tag_363:\n        /* \"#utility.yul\":5547:5656   */\n      swap5\n      pop\n      swap5\n      pop\n        /* \"#utility.yul\":5343:5666   */\n      pop\n        /* \"#utility.yul\":5705:5707   */\n      0x20\n        /* \"#utility.yul\":5731:5784   */\n      tag_364\n        /* \"#utility.yul\":5776:5783   */\n      dup8\n        /* \"#utility.yul\":5767:5773   */\n      dup3\n        /* \"#utility.yul\":5756:5765   */\n      dup9\n        /* \"#utility.yul\":5752:5774   */\n      add\n        /* \"#utility.yul\":5731:5784   */\n      tag_229\n      jump\t// in\n    tag_364:\n        /* \"#utility.yul\":5721:5784   */\n      swap3\n      pop\n        /* \"#utility.yul\":5676:5794   */\n      pop\n        /* \"#utility.yul\":5833:5835   */\n      0x40\n        /* \"#utility.yul\":5859:5912   */\n      tag_365\n        /* \"#utility.yul\":5904:5911   */\n      dup8\n        /* \"#utility.yul\":5895:5901   */\n      dup3\n        /* \"#utility.yul\":5884:5893   */\n      dup9\n        /* \"#utility.yul\":5880:5902   */\n      add\n        /* \"#utility.yul\":5859:5912   */\n      tag_229\n      jump\t// in\n    tag_365:\n        /* \"#utility.yul\":5849:5912   */\n      swap2\n      pop\n        /* \"#utility.yul\":5804:5922   */\n      pop\n        /* \"#utility.yul\":5058:5929   */\n      swap3\n      swap6\n      swap2\n      swap5\n      pop\n      swap3\n      pop\n      jump\t// out\n        /* \"#utility.yul\":5935:6079   */\n    tag_241:\n        /* \"#utility.yul\":6003:6012   */\n      0x00\n        /* \"#utility.yul\":6036:6073   */\n      tag_367\n        /* \"#utility.yul\":6067:6072   */\n      dup3\n        /* \"#utility.yul\":6036:6073   */\n      tag_234\n      jump\t// in\n    tag_367:\n        /* \"#utility.yul\":6023:6073   */\n      swap1\n      pop\n        /* \"#utility.yul\":5935:6079   */\n      swap2\n      swap1\n      pop\n      jump\t// out\n        /* \"#utility.yul\":6085:6252   */\n    tag_242:\n        /* \"#utility.yul\":6190:6245   */\n      tag_369\n        /* \"#utility.yul\":6239:6244   */\n      dup2\n        /* \"#utility.yul\":6190:6245   */\n      tag_241\n      jump\t// in\n    tag_369:\n        /* \"#utility.yul\":6185:6188   */\n      dup3\n        /* \"#utility.yul\":6178:6246   */\n      mstore\n        /* \"#utility.yul\":6085:6252   */\n      pop\n      pop\n      jump\t// out\n        /* \"#utility.yul\":6258:6516   */\n    tag_39:\n        /* \"#utility.yul\":6369:6373   */\n      0x00\n        /* \"#utility.yul\":6407:6409   */\n      0x20\n        /* \"#utility.yul\":6396:6405   */\n      dup3\n        /* \"#utility.yul\":6392:6410   */\n      add\n        /* \"#utility.yul\":6384:6410   */\n      swap1\n      pop\n        /* \"#utility.yul\":6420:6509   */\n      tag_371\n        /* \"#utility.yul\":6506:6507   */\n      0x00\n        /* \"#utility.yul\":6495:6504   */\n      dup4\n        /* \"#utility.yul\":6491:6508   */\n      add\n        /* \"#utility.yul\":6482:6488   */\n      dup5\n        /* \"#utility.yul\":6420:6509   */\n      tag_242\n      jump\t// in\n    tag_371:\n        /* \"#utility.yul\":6258:6516   */\n      swap3\n      swap2\n      pop\n      pop\n      jump\t// out\n        /* \"#utility.yul\":6522:6644   */\n    tag_243:\n        /* \"#utility.yul\":6595:6619   */\n      tag_373\n        /* \"#utility.yul\":6613:6618   */\n      dup2\n        /* \"#utility.yul\":6595:6619   */\n      tag_221\n      jump\t// in\n    tag_373:\n        /* \"#utility.yul\":6588:6593   */\n      dup2\n        /* \"#utility.yul\":6585:6620   */\n      eq\n        /* \"#utility.yul\":6575:6638   */\n      tag_374\n      jumpi\n        /* \"#utility.yul\":6634:6635   */\n      0x00\n        /* \"#utility.yul\":6631:6632   */\n      dup1\n        /* \"#utility.yul\":6624:6636   */\n      revert\n        /* \"#utility.yul\":6575:6638   */\n    tag_374:\n        /* \"#utility.yul\":6522:6644   */\n      pop\n      jump\t// out\n        /* \"#utility.yul\":6650:6789   */\n    tag_244:\n        /* \"#utility.yul\":6696:6701   */\n      0x00\n        /* \"#utility.yul\":6734:6740   */\n      dup2\n        /* \"#utility.yul\":6721:6741   */\n      calldataload\n        /* \"#utility.yul\":6712:6741   */\n      swap1\n      pop\n        /* \"#utility.yul\":6750:6783   */\n      tag_376\n        /* \"#utility.yul\":6777:6782   */\n      dup2\n        /* \"#utility.yul\":6750:6783   */\n      tag_243\n      jump\t// in\n    tag_376:\n        /* \"#utility.yul\":6650:6789   */\n      swap3\n      swap2\n      pop\n      pop\n      jump\t// out\n        /* \"#utility.yul\":6795:7560   */\n    tag_43:\n        /* \"#utility.yul\":6881:6887   */\n      0x00\n        /* \"#utility.yul\":6889:6895   */\n      dup1\n        /* \"#utility.yul\":6897:6903   */\n      0x00\n        /* \"#utility.yul\":6905:6911   */\n      dup1\n        /* \"#utility.yul\":6954:6957   */\n      0x80\n        /* \"#utility.yul\":6942:6951   */\n      dup6\n        /* \"#utility.yul\":6933:6940   */\n      dup8\n        /* \"#utility.yul\":6929:6952   */\n      sub\n        /* \"#utility.yul\":6925:6958   */\n      slt\n        /* \"#utility.yul\":6922:7042   */\n      iszero\n      tag_378\n      jumpi\n        /* \"#utility.yul\":6961:7040   */\n      tag_379\n      tag_224\n      jump\t// in\n    tag_379:\n        /* \"#utility.yul\":6922:7042   */\n    tag_378:\n        /* \"#utility.yul\":7081:7082   */\n      0x00\n        /* \"#utility.yul\":7106:7159   */\n      tag_380\n        /* \"#utility.yul\":7151:7158   */\n      dup8\n        /* \"#utility.yul\":7142:7148   */\n      dup3\n        /* \"#utility.yul\":7131:7140   */\n      dup9\n        /* \"#utility.yul\":7127:7149   */\n      add\n        /* \"#utility.yul\":7106:7159   */\n      tag_229\n      jump\t// in\n    tag_380:\n        /* \"#utility.yul\":7096:7159   */\n      swap5\n      pop\n        /* \"#utility.yul\":7052:7169   */\n      pop\n        /* \"#utility.yul\":7208:7210   */\n      0x20\n        /* \"#utility.yul\":7234:7287   */\n      tag_381\n        /* \"#utility.yul\":7279:7286   */\n      dup8\n        /* \"#utility.yul\":7270:7276   */\n      dup3\n        /* \"#utility.yul\":7259:7268   */\n      dup9\n        /* \"#utility.yul\":7255:7277   */\n      add\n        /* \"#utility.yul\":7234:7287   */\n      tag_244\n      jump\t// in\n    tag_381:\n        /* \"#utility.yul\":7224:7287   */\n      swap4\n      pop\n        /* \"#utility.yul\":7179:7297   */\n      pop\n        /* \"#utility.yul\":7336:7338   */\n      0x40\n        /* \"#utility.yul\":7362:7415   */\n      tag_382\n        /* \"#utility.yul\":7407:7414   */\n      dup8\n        /* \"#utility.yul\":7398:7404   */\n      dup3\n        /* \"#utility.yul\":7387:7396   */\n      dup9\n        /* \"#utility.yul\":7383:7405   */\n      add\n        /* \"#utility.yul\":7362:7415   */\n      tag_229\n      jump\t// in\n    tag_382:\n        /* \"#utility.yul\":7352:7415   */\n      swap3\n      pop\n        /* \"#utility.yul\":7307:7425   */\n      pop\n        /* \"#utility.yul\":7464:7466   */\n      0x60\n        /* \"#utility.yul\":7490:7543   */\n      tag_383\n        /* \"#utility.yul\":7535:7542   */\n      dup8\n        /* \"#utility.yul\":7526:7532   */\n      dup3\n        /* \"#utility.yul\":7515:7524   */\n      dup9\n        /* \"#utility.yul\":7511:7533   */\n      add\n        /* \"#utility.yul\":7490:7543   */\n      tag_229\n      jump\t// in\n    tag_383:\n        /* \"#utility.yul\":7480:7543   */\n      swap2\n      pop\n        /* \"#utility.yul\":7435:7553   */\n      pop\n        /* \"#utility.yul\":6795:7560   */\n      swap3\n      swap6\n      swap2\n      swap5\n      pop\n      swap3\n      pop\n      jump\t// out\n        /* \"#utility.yul\":7566:8292   */\n    tag_47:\n        /* \"#utility.yul\":7672:7678   */\n      0x00\n        /* \"#utility.yul\":7680:7686   */\n      dup1\n        /* \"#utility.yul\":7688:7694   */\n      0x00\n        /* \"#utility.yul\":7737:7739   */\n      0x40\n        /* \"#utility.yul\":7725:7734   */\n      dup5\n        /* \"#utility.yul\":7716:7723   */\n      dup7\n        /* \"#utility.yul\":7712:7735   */\n      sub\n        /* \"#utility.yul\":7708:7740   */\n      slt\n        /* \"#utility.yul\":7705:7824   */\n      iszero\n      tag_385\n      jumpi\n        /* \"#utility.yul\":7743:7822   */\n      tag_386\n      tag_224\n      jump\t// in\n    tag_386:\n        /* \"#utility.yul\":7705:7824   */\n    tag_385:\n        /* \"#utility.yul\":7891:7892   */\n      0x00\n        /* \"#utility.yul\":7880:7889   */\n      dup5\n        /* \"#utility.yul\":7876:7893   */\n      add\n        /* \"#utility.yul\":7863:7894   */\n      calldataload\n        /* \"#utility.yul\":7921:7939   */\n      0xffffffffffffffff\n        /* \"#utility.yul\":7913:7919   */\n      dup2\n        /* \"#utility.yul\":7910:7940   */\n      gt\n        /* \"#utility.yul\":7907:8024   */\n      iszero\n      tag_387\n      jumpi\n        /* \"#utility.yul\":7943:8022   */\n      tag_388\n      tag_225\n      jump\t// in\n    tag_388:\n        /* \"#utility.yul\":7907:8024   */\n    tag_387:\n        /* \"#utility.yul\":8056:8147   */\n      tag_389\n        /* \"#utility.yul\":8139:8146   */\n      dup7\n        /* \"#utility.yul\":8130:8136   */\n      dup3\n        /* \"#utility.yul\":8119:8128   */\n      dup8\n        /* \"#utility.yul\":8115:8137   */\n      add\n        /* \"#utility.yul\":8056:8147   */\n      tag_240\n      jump\t// in\n    tag_389:\n        /* \"#utility.yul\":8038:8147   */\n      swap4\n      pop\n      swap4\n      pop\n        /* \"#utility.yul\":7834:8157   */\n      pop\n        /* \"#utility.yul\":8196:8198   */\n      0x20\n        /* \"#utility.yul\":8222:8275   */\n      tag_390\n        /* \"#utility.yul\":8267:8274   */\n      dup7\n        /* \"#utility.yul\":8258:8264   */\n      dup3\n        /* \"#utility.yul\":8247:8256   */\n      dup8\n        /* \"#utility.yul\":8243:8265   */\n      add\n        /* \"#utility.yul\":8222:8275   */\n      tag_229\n      jump\t// in\n    tag_390:\n        /* \"#utility.yul\":8212:8275   */\n      swap2\n      pop\n        /* \"#utility.yul\":8167:8285   */\n      pop\n        /* \"#utility.yul\":7566:8292   */\n      swap3\n      pop\n      swap3\n      pop\n      swap3\n      jump\t// out\n        /* \"#utility.yul\":8298:8772   */\n    tag_52:\n        /* \"#utility.yul\":8366:8372   */\n      0x00\n        /* \"#utility.yul\":8374:8380   */\n      dup1\n        /* \"#utility.yul\":8423:8425   */\n      0x40\n        /* \"#utility.yul\":8411:8420   */\n      dup4\n        /* \"#utility.yul\":8402:8409   */\n      dup6\n        /* \"#utility.yul\":8398:8421   */\n      sub\n        /* \"#utility.yul\":8394:8426   */\n      slt\n        /* \"#utility.yul\":8391:8510   */\n      iszero\n      tag_392\n      jumpi\n        /* \"#utility.yul\":8429:8508   */\n      tag_393\n      tag_224\n      jump\t// in\n    tag_393:\n        /* \"#utility.yul\":8391:8510   */\n    tag_392:\n        /* \"#utility.yul\":8549:8550   */\n      0x00\n        /* \"#utility.yul\":8574:8627   */\n      tag_394\n        /* \"#utility.yul\":8619:8626   */\n      dup6\n        /* \"#utility.yul\":8610:8616   */\n      dup3\n        /* \"#utility.yul\":8599:8608   */\n      dup7\n        /* \"#utility.yul\":8595:8617   */\n      add\n        /* \"#utility.yul\":8574:8627   */\n      tag_229\n      jump\t// in\n    tag_394:\n        /* \"#utility.yul\":8564:8627   */\n      swap3\n      pop\n        /* \"#utility.yul\":8520:8637   */\n      pop\n        /* \"#utility.yul\":8676:8678   */\n      0x20\n        /* \"#utility.yul\":8702:8755   */\n      tag_395\n        /* \"#utility.yul\":8747:8754   */\n      dup6\n        /* \"#utility.yul\":8738:8744   */\n      dup3\n        /* \"#utility.yul\":8727:8736   */\n      dup7\n        /* \"#utility.yul\":8723:8745   */\n      add\n        /* \"#utility.yul\":8702:8755   */\n      tag_244\n      jump\t// in\n    tag_395:\n        /* \"#utility.yul\":8692:8755   */\n      swap2\n      pop\n        /* \"#utility.yul\":8647:8765   */\n      pop\n        /* \"#utility.yul\":8298:8772   */\n      swap3\n      pop\n      swap3\n      swap1\n      pop\n      jump\t// out\n        /* \"#utility.yul\":8778:8896   */\n    tag_245:\n        /* \"#utility.yul\":8865:8889   */\n      tag_397\n        /* \"#utility.yul\":8883:8888   */\n      dup2\n        /* \"#utility.yul\":8865:8889   */\n      tag_227\n      jump\t// in\n    tag_397:\n        /* \"#utility.yul\":8860:8863   */\n      dup3\n        /* \"#utility.yul\":8853:8890   */\n      mstore\n        /* \"#utility.yul\":8778:8896   */\n      pop\n      pop\n      jump\t// out\n        /* \"#utility.yul\":8902:9124   */\n    tag_58:\n        /* \"#utility.yul\":8995:8999   */\n      0x00\n        /* \"#utility.yul\":9033:9035   */\n      0x20\n        /* \"#utility.yul\":9022:9031   */\n      dup3\n        /* \"#utility.yul\":9018:9036   */\n      add\n        /* \"#utility.yul\":9010:9036   */\n      swap1\n      pop\n        /* \"#utility.yul\":9046:9117   */\n      tag_399\n        /* \"#utility.yul\":9114:9115   */\n      0x00\n        /* \"#utility.yul\":9103:9112   */\n      dup4\n        /* \"#utility.yul\":9099:9116   */\n      add\n        /* \"#utility.yul\":9090:9096   */\n      dup5\n        /* \"#utility.yul\":9046:9117   */\n      tag_245\n      jump\t// in\n    tag_399:\n        /* \"#utility.yul\":8902:9124   */\n      swap3\n      swap2\n      pop\n      pop\n      jump\t// out\n        /* \"#utility.yul\":9130:9305   */\n    tag_246:\n        /* \"#utility.yul\":9270:9297   */\n      0x61636365737320636f6e74726f6c3a206f6e6c794f776e657200000000000000\n        /* \"#utility.yul\":9266:9267   */\n      0x00\n        /* \"#utility.yul\":9258:9264   */\n      dup3\n        /* \"#utility.yul\":9254:9268   */\n      add\n        /* \"#utility.yul\":9247:9298   */\n      mstore\n        /* \"#utility.yul\":9130:9305   */\n      pop\n      jump\t// out\n        /* \"#utility.yul\":9311:9677   */\n    tag_247:\n        /* \"#utility.yul\":9453:9456   */\n      0x00\n        /* \"#utility.yul\":9474:9541   */\n      tag_402\n        /* \"#utility.yul\":9538:9540   */\n      0x19\n        /* \"#utility.yul\":9533:9536   */\n      dup4\n        /* \"#utility.yul\":9474:9541   */\n      tag_218\n      jump\t// in\n    tag_402:\n        /* \"#utility.yul\":9467:9541   */\n      swap2\n      pop\n        /* \"#utility.yul\":9550:9643   */\n      tag_403\n        /* \"#utility.yul\":9639:9642   */\n      dup3\n        /* \"#utility.yul\":9550:9643   */\n      tag_246\n      jump\t// in\n    tag_403:\n        /* \"#utility.yul\":9668:9670   */\n      0x20\n        /* \"#utility.yul\":9663:9666   */\n      dup3\n        /* \"#utility.yul\":9659:9671   */\n      add\n        /* \"#utility.yul\":9652:9671   */\n      swap1\n      pop\n        /* \"#utility.yul\":9311:9677   */\n      swap2\n      swap1\n      pop\n      jump\t// out\n        /* \"#utility.yul\":9683:10102   */\n    tag_62:\n        /* \"#utility.yul\":9849:9853   */\n      0x00\n        /* \"#utility.yul\":9887:9889   */\n      0x20\n        /* \"#utility.yul\":9876:9885   */\n      dup3\n        /* \"#utility.yul\":9872:9890   */\n      add\n        /* \"#utility.yul\":9864:9890   */\n      swap1\n      pop\n        /* \"#utility.yul\":9936:9945   */\n      dup2\n        /* \"#utility.yul\":9930:9934   */\n      dup2\n        /* \"#utility.yul\":9926:9946   */\n      sub\n        /* \"#utility.yul\":9922:9923   */\n      0x00\n        /* \"#utility.yul\":9911:9920   */\n      dup4\n        /* \"#utility.yul\":9907:9924   */\n      add\n        /* \"#utility.yul\":9900:9947   */\n      mstore\n        /* \"#utility.yul\":9964:10095   */\n      tag_405\n        /* \"#utility.yul\":10090:10094   */\n      dup2\n        /* \"#utility.yul\":9964:10095   */\n      tag_247\n      jump\t// in\n    tag_405:\n        /* \"#utility.yul\":9956:10095   */\n      swap1\n      pop\n        /* \"#utility.yul\":9683:10102   */\n      swap2\n      swap1\n      pop\n      jump\t// out\n        /* \"#utility.yul\":10108:10257   */\n    tag_248:\n        /* \"#utility.yul\":10144:10151   */\n      0x00\n        /* \"#utility.yul\":10184:10250   */\n      0xffffffff00000000000000000000000000000000000000000000000000000000\n        /* \"#utility.yul\":10177:10182   */\n      dup3\n        /* \"#utility.yul\":10173:10251   */\n      and\n        /* \"#utility.yul\":10162:10251   */\n      swap1\n      pop\n        /* \"#utility.yul\":10108:10257   */\n      swap2\n      swap1\n      pop\n      jump\t// out\n        /* \"#utility.yul\":10263:10378   */\n    tag_249:\n        /* \"#utility.yul\":10348:10371   */\n      tag_408\n        /* \"#utility.yul\":10365:10370   */\n      dup2\n        /* \"#utility.yul\":10348:10371   */\n      tag_248\n      jump\t// in\n    tag_408:\n        /* \"#utility.yul\":10343:10346   */\n      dup3\n        /* \"#utility.yul\":10336:10372   */\n      mstore\n        /* \"#utility.yul\":10263:10378   */\n      pop\n      pop\n      jump\t// out\n        /* \"#utility.yul\":10384:10524   */\n    tag_250:\n        /* \"#utility.yul\":10477:10483   */\n      0x00\n        /* \"#utility.yul\":10511:10516   */\n      dup2\n        /* \"#utility.yul\":10505:10517   */\n      mload\n        /* \"#utility.yul\":10495:10517   */\n      swap1\n      pop\n        /* \"#utility.yul\":10384:10524   */\n      swap2\n      swap1\n      pop\n      jump\t// out\n        /* \"#utility.yul\":10530:10740   */\n    tag_251:\n        /* \"#utility.yul\":10655:10666   */\n      0x00\n        /* \"#utility.yul\":10689:10695   */\n      dup3\n        /* \"#utility.yul\":10684:10687   */\n      dup3\n        /* \"#utility.yul\":10677:10696   */\n      mstore\n        /* \"#utility.yul\":10729:10733   */\n      0x20\n        /* \"#utility.yul\":10724:10727   */\n      dup3\n        /* \"#utility.yul\":10720:10734   */\n      add\n        /* \"#utility.yul\":10705:10734   */\n      swap1\n      pop\n        /* \"#utility.yul\":10530:10740   */\n      swap3\n      swap2\n      pop\n      pop\n      jump\t// out\n        /* \"#utility.yul\":10746:10904   */\n    tag_252:\n        /* \"#utility.yul\":10839:10843   */\n      0x00\n        /* \"#utility.yul\":10862:10865   */\n      dup2\n        /* \"#utility.yul\":10854:10865   */\n      swap1\n      pop\n        /* \"#utility.yul\":10892:10896   */\n      0x20\n        /* \"#utility.yul\":10887:10890   */\n      dup3\n        /* \"#utility.yul\":10883:10897   */\n      add\n        /* \"#utility.yul\":10875:10897   */\n      swap1\n      pop\n        /* \"#utility.yul\":10746:10904   */\n      swap2\n      swap1\n      pop\n      jump\t// out\n        /* \"#utility.yul\":10910:10996   */\n    tag_253:\n        /* \"#utility.yul\":10945:10952   */\n      0x00\n        /* \"#utility.yul\":10985:10989   */\n      0xff\n        /* \"#utility.yul\":10978:10983   */\n      dup3\n        /* \"#utility.yul\":10974:10990   */\n      and\n        /* \"#utility.yul\":10963:10990   */\n      swap1\n      pop\n        /* \"#utility.yul\":10910:10996   */\n      swap2\n      swap1\n      pop\n      jump\t// out\n        /* \"#utility.yul\":11002:11104   */\n    tag_254:\n        /* \"#utility.yul\":11075:11097   */\n      tag_414\n        /* \"#utility.yul\":11091:11096   */\n      dup2\n        /* \"#utility.yul\":11075:11097   */\n      tag_253\n      jump\t// in\n    tag_414:\n        /* \"#utility.yul\":11070:11073   */\n      dup3\n        /* \"#utility.yul\":11063:11098   */\n      mstore\n        /* \"#utility.yul\":11002:11104   */\n      pop\n      pop\n      jump\t// out\n        /* \"#utility.yul\":11110:11208   */\n    tag_255:\n        /* \"#utility.yul\":11161:11167   */\n      0x00\n        /* \"#utility.yul\":11195:11200   */\n      dup2\n        /* \"#utility.yul\":11189:11201   */\n      mload\n        /* \"#utility.yul\":11179:11201   */\n      swap1\n      pop\n        /* \"#utility.yul\":11110:11208   */\n      swap2\n      swap1\n      pop\n      jump\t// out\n        /* \"#utility.yul\":11214:11372   */\n    tag_256:\n        /* \"#utility.yul\":11287:11298   */\n      0x00\n        /* \"#utility.yul\":11321:11327   */\n      dup3\n        /* \"#utility.yul\":11316:11319   */\n      dup3\n        /* \"#utility.yul\":11309:11328   */\n      mstore\n        /* \"#utility.yul\":11361:11365   */\n      0x20\n        /* \"#utility.yul\":11356:11359   */\n      dup3\n        /* \"#utility.yul\":11352:11366   */\n      add\n        /* \"#utility.yul\":11337:11366   */\n      swap1\n      pop\n        /* \"#utility.yul\":11214:11372   */\n      swap3\n      swap2\n      pop\n      pop\n      jump\t// out\n        /* \"#utility.yul\":11378:11624   */\n    tag_257:\n        /* \"#utility.yul\":11459:11460   */\n      0x00\n        /* \"#utility.yul\":11469:11582   */\n    tag_418:\n        /* \"#utility.yul\":11483:11489   */\n      dup4\n        /* \"#utility.yul\":11480:11481   */\n      dup2\n        /* \"#utility.yul\":11477:11490   */\n      lt\n        /* \"#utility.yul\":11469:11582   */\n      iszero\n      tag_420\n      jumpi\n        /* \"#utility.yul\":11568:11569   */\n      dup1\n        /* \"#utility.yul\":11563:11566   */\n      dup3\n        /* \"#utility.yul\":11559:11570   */\n      add\n        /* \"#utility.yul\":11553:11571   */\n      mload\n        /* \"#utility.yul\":11549:11550   */\n      dup2\n        /* \"#utility.yul\":11544:11547   */\n      dup5\n        /* \"#utility.yul\":11540:11551   */\n      add\n        /* \"#utility.yul\":11533:11572   */\n      mstore\n        /* \"#utility.yul\":11505:11507   */\n      0x20\n        /* \"#utility.yul\":11502:11503   */\n      dup2\n        /* \"#utility.yul\":11498:11508   */\n      add\n        /* \"#utility.yul\":11493:11508   */\n      swap1\n      pop\n        /* \"#utility.yul\":11469:11582   */\n      jump(tag_418)\n    tag_420:\n        /* \"#utility.yul\":11616:11617   */\n      0x00\n        /* \"#utility.yul\":11607:11613   */\n      dup5\n        /* \"#utility.yul\":11602:11605   */\n      dup5\n        /* \"#utility.yul\":11598:11614   */\n      add\n        /* \"#utility.yul\":11591:11618   */\n      mstore\n        /* \"#utility.yul\":11440:11624   */\n      pop\n        /* \"#utility.yul\":11378:11624   */\n      pop\n      pop\n      pop\n      jump\t// out\n        /* \"#utility.yul\":11630:11732   */\n    tag_258:\n        /* \"#utility.yul\":11671:11677   */\n      0x00\n        /* \"#utility.yul\":11722:11724   */\n      0x1f\n        /* \"#utility.yul\":11718:11725   */\n      not\n        /* \"#utility.yul\":11713:11715   */\n      0x1f\n        /* \"#utility.yul\":11706:11711   */\n      dup4\n        /* \"#utility.yul\":11702:11716   */\n      add\n        /* \"#utility.yul\":11698:11726   */\n      and\n        /* \"#utility.yul\":11688:11726   */\n      swap1\n      pop\n        /* \"#utility.yul\":11630:11732   */\n      swap2\n      swap1\n      pop\n      jump\t// out\n        /* \"#utility.yul\":11738:12091   */\n    tag_259:\n        /* \"#utility.yul\":11814:11817   */\n      0x00\n        /* \"#utility.yul\":11842:11880   */\n      tag_423\n        /* \"#utility.yul\":11874:11879   */\n      dup3\n        /* \"#utility.yul\":11842:11880   */\n      tag_255\n      jump\t// in\n    tag_423:\n        /* \"#utility.yul\":11896:11956   */\n      tag_424\n        /* \"#utility.yul\":11949:11955   */\n      dup2\n        /* \"#utility.yul\":11944:11947   */\n      dup6\n        /* \"#utility.yul\":11896:11956   */\n      tag_256\n      jump\t// in\n    tag_424:\n        /* \"#utility.yul\":11889:11956   */\n      swap4\n      pop\n        /* \"#utility.yul\":11965:12030   */\n      tag_425\n        /* \"#utility.yul\":12023:12029   */\n      dup2\n        /* \"#utility.yul\":12018:12021   */\n      dup6\n        /* \"#utility.yul\":12011:12015   */\n      0x20\n        /* \"#utility.yul\":12004:12009   */\n      dup7\n        /* \"#utility.yul\":12000:12016   */\n      add\n        /* \"#utility.yul\":11965:12030   */\n      tag_257\n      jump\t// in\n    tag_425:\n        /* \"#utility.yul\":12055:12084   */\n      tag_426\n        /* \"#utility.yul\":12077:12083   */\n      dup2\n        /* \"#utility.yul\":12055:12084   */\n      tag_258\n      jump\t// in\n    tag_426:\n        /* \"#utility.yul\":12050:12053   */\n      dup5\n        /* \"#utility.yul\":12046:12085   */\n      add\n        /* \"#utility.yul\":12039:12085   */\n      swap2\n      pop\n        /* \"#utility.yul\":11818:12091   */\n      pop\n        /* \"#utility.yul\":11738:12091   */\n      swap3\n      swap2\n      pop\n      pop\n      jump\t// out\n        /* \"#utility.yul\":12097:12205   */\n    tag_260:\n        /* \"#utility.yul\":12174:12198   */\n      tag_428\n        /* \"#utility.yul\":12192:12197   */\n      dup2\n        /* \"#utility.yul\":12174:12198   */\n      tag_227\n      jump\t// in\n    tag_428:\n        /* \"#utility.yul\":12169:12172   */\n      dup3\n        /* \"#utility.yul\":12162:12199   */\n      mstore\n        /* \"#utility.yul\":12097:12205   */\n      pop\n      pop\n      jump\t// out\n        /* \"#utility.yul\":12211:12319   */\n    tag_261:\n        /* \"#utility.yul\":12288:12312   */\n      tag_430\n        /* \"#utility.yul\":12306:12311   */\n      dup2\n        /* \"#utility.yul\":12288:12312   */\n      tag_221\n      jump\t// in\n    tag_430:\n        /* \"#utility.yul\":12283:12286   */\n      dup3\n        /* \"#utility.yul\":12276:12313   */\n      mstore\n        /* \"#utility.yul\":12211:12319   */\n      pop\n      pop\n      jump\t// out\n        /* \"#utility.yul\":12325:12401   */\n    tag_262:\n        /* \"#utility.yul\":12361:12368   */\n      0x00\n        /* \"#utility.yul\":12390:12395   */\n      dup2\n        /* \"#utility.yul\":12379:12395   */\n      swap1\n      pop\n        /* \"#utility.yul\":12325:12401   */\n      swap2\n      swap1\n      pop\n      jump\t// out\n        /* \"#utility.yul\":12407:12512   */\n    tag_263:\n        /* \"#utility.yul\":12482:12505   */\n      tag_433\n        /* \"#utility.yul\":12499:12504   */\n      dup2\n        /* \"#utility.yul\":12482:12505   */\n      tag_262\n      jump\t// in\n    tag_433:\n        /* \"#utility.yul\":12477:12480   */\n      dup3\n        /* \"#utility.yul\":12470:12506   */\n      mstore\n        /* \"#utility.yul\":12407:12512   */\n      pop\n      pop\n      jump\t// out\n        /* \"#utility.yul\":12518:12617   */\n    tag_264:\n        /* \"#utility.yul\":12589:12610   */\n      tag_435\n        /* \"#utility.yul\":12604:12609   */\n      dup2\n        /* \"#utility.yul\":12589:12610   */\n      tag_230\n      jump\t// in\n    tag_435:\n        /* \"#utility.yul\":12584:12587   */\n      dup3\n        /* \"#utility.yul\":12577:12611   */\n      mstore\n        /* \"#utility.yul\":12518:12617   */\n      pop\n      pop\n      jump\t// out\n        /* \"#utility.yul\":12699:13965   */\n    tag_265:\n        /* \"#utility.yul\":12810:12813   */\n      0x00\n        /* \"#utility.yul\":12846:12850   */\n      0xc0\n        /* \"#utility.yul\":12841:12844   */\n      dup4\n        /* \"#utility.yul\":12837:12851   */\n      add\n        /* \"#utility.yul\":12934:12938   */\n      0x00\n        /* \"#utility.yul\":12927:12932   */\n      dup4\n        /* \"#utility.yul\":12923:12939   */\n      add\n        /* \"#utility.yul\":12917:12940   */\n      mload\n        /* \"#utility.yul\":12953:13012   */\n      tag_437\n        /* \"#utility.yul\":13006:13010   */\n      0x00\n        /* \"#utility.yul\":13001:13004   */\n      dup7\n        /* \"#utility.yul\":12997:13011   */\n      add\n        /* \"#utility.yul\":12983:12995   */\n      dup3\n        /* \"#utility.yul\":12953:13012   */\n      tag_254\n      jump\t// in\n    tag_437:\n        /* \"#utility.yul\":12861:13022   */\n      pop\n        /* \"#utility.yul\":13101:13105   */\n      0x20\n        /* \"#utility.yul\":13094:13099   */\n      dup4\n        /* \"#utility.yul\":13090:13106   */\n      add\n        /* \"#utility.yul\":13084:13107   */\n      mload\n        /* \"#utility.yul\":13154:13157   */\n      dup5\n        /* \"#utility.yul\":13148:13152   */\n      dup3\n        /* \"#utility.yul\":13144:13158   */\n      sub\n        /* \"#utility.yul\":13137:13141   */\n      0x20\n        /* \"#utility.yul\":13132:13135   */\n      dup7\n        /* \"#utility.yul\":13128:13142   */\n      add\n        /* \"#utility.yul\":13121:13159   */\n      mstore\n        /* \"#utility.yul\":13180:13251   */\n      tag_438\n        /* \"#utility.yul\":13246:13250   */\n      dup3\n        /* \"#utility.yul\":13232:13244   */\n      dup3\n        /* \"#utility.yul\":13180:13251   */\n      tag_259\n      jump\t// in\n    tag_438:\n        /* \"#utility.yul\":13172:13251   */\n      swap2\n      pop\n        /* \"#utility.yul\":13032:13262   */\n      pop\n        /* \"#utility.yul\":13341:13345   */\n      0x40\n        /* \"#utility.yul\":13334:13339   */\n      dup4\n        /* \"#utility.yul\":13330:13346   */\n      add\n        /* \"#utility.yul\":13324:13347   */\n      mload\n        /* \"#utility.yul\":13360:13423   */\n      tag_439\n        /* \"#utility.yul\":13417:13421   */\n      0x40\n        /* \"#utility.yul\":13412:13415   */\n      dup7\n        /* \"#utility.yul\":13408:13422   */\n      add\n        /* \"#utility.yul\":13394:13406   */\n      dup3\n        /* \"#utility.yul\":13360:13423   */\n      tag_260\n      jump\t// in\n    tag_439:\n        /* \"#utility.yul\":13272:13433   */\n      pop\n        /* \"#utility.yul\":13512:13516   */\n      0x60\n        /* \"#utility.yul\":13505:13510   */\n      dup4\n        /* \"#utility.yul\":13501:13517   */\n      add\n        /* \"#utility.yul\":13495:13518   */\n      mload\n        /* \"#utility.yul\":13531:13594   */\n      tag_440\n        /* \"#utility.yul\":13588:13592   */\n      0x60\n        /* \"#utility.yul\":13583:13586   */\n      dup7\n        /* \"#utility.yul\":13579:13593   */\n      add\n        /* \"#utility.yul\":13565:13577   */\n      dup3\n        /* \"#utility.yul\":13531:13594   */\n      tag_261\n      jump\t// in\n    tag_440:\n        /* \"#utility.yul\":13443:13604   */\n      pop\n        /* \"#utility.yul\":13683:13687   */\n      0x80\n        /* \"#utility.yul\":13676:13681   */\n      dup4\n        /* \"#utility.yul\":13672:13688   */\n      add\n        /* \"#utility.yul\":13666:13689   */\n      mload\n        /* \"#utility.yul\":13702:13763   */\n      tag_441\n        /* \"#utility.yul\":13757:13761   */\n      0x80\n        /* \"#utility.yul\":13752:13755   */\n      dup7\n        /* \"#utility.yul\":13748:13762   */\n      add\n        /* \"#utility.yul\":13734:13746   */\n      dup3\n        /* \"#utility.yul\":13702:13763   */\n      tag_263\n      jump\t// in\n    tag_441:\n        /* \"#utility.yul\":13614:13773   */\n      pop\n        /* \"#utility.yul\":13852:13856   */\n      0xa0\n        /* \"#utility.yul\":13845:13850   */\n      dup4\n        /* \"#utility.yul\":13841:13857   */\n      add\n        /* \"#utility.yul\":13835:13858   */\n      mload\n        /* \"#utility.yul\":13871:13928   */\n      tag_442\n        /* \"#utility.yul\":13922:13926   */\n      0xa0\n        /* \"#utility.yul\":13917:13920   */\n      dup7\n        /* \"#utility.yul\":13913:13927   */\n      add\n        /* \"#utility.yul\":13899:13911   */\n      dup3\n        /* \"#utility.yul\":13871:13928   */\n      tag_264\n      jump\t// in\n    tag_442:\n        /* \"#utility.yul\":13783:13938   */\n      pop\n        /* \"#utility.yul\":13955:13959   */\n      dup1\n        /* \"#utility.yul\":13948:13959   */\n      swap2\n      pop\n        /* \"#utility.yul\":12815:13965   */\n      pop\n        /* \"#utility.yul\":12699:13965   */\n      swap3\n      swap2\n      pop\n      pop\n      jump\t// out\n        /* \"#utility.yul\":13971:14231   */\n    tag_266:\n        /* \"#utility.yul\":14092:14102   */\n      0x00\n        /* \"#utility.yul\":14127:14225   */\n      tag_444\n        /* \"#utility.yul\":14221:14224   */\n      dup4\n        /* \"#utility.yul\":14213:14219   */\n      dup4\n        /* \"#utility.yul\":14127:14225   */\n      tag_265\n      jump\t// in\n    tag_444:\n        /* \"#utility.yul\":14113:14225   */\n      swap1\n      pop\n        /* \"#utility.yul\":13971:14231   */\n      swap3\n      swap2\n      pop\n      pop\n      jump\t// out\n        /* \"#utility.yul\":14237:14376   */\n    tag_267:\n        /* \"#utility.yul\":14333:14337   */\n      0x00\n        /* \"#utility.yul\":14365:14369   */\n      0x20\n        /* \"#utility.yul\":14360:14363   */\n      dup3\n        /* \"#utility.yul\":14356:14370   */\n      add\n        /* \"#utility.yul\":14348:14370   */\n      swap1\n      pop\n        /* \"#utility.yul\":14237:14376   */\n      swap2\n      swap1\n      pop\n      jump\t// out\n        /* \"#utility.yul\":14462:15581   */\n    tag_268:\n        /* \"#utility.yul\":14633:14636   */\n      0x00\n        /* \"#utility.yul\":14662:14742   */\n      tag_447\n        /* \"#utility.yul\":14736:14741   */\n      dup3\n        /* \"#utility.yul\":14662:14742   */\n      tag_250\n      jump\t// in\n    tag_447:\n        /* \"#utility.yul\":14758:14870   */\n      tag_448\n        /* \"#utility.yul\":14863:14869   */\n      dup2\n        /* \"#utility.yul\":14858:14861   */\n      dup6\n        /* \"#utility.yul\":14758:14870   */\n      tag_251\n      jump\t// in\n    tag_448:\n        /* \"#utility.yul\":14751:14870   */\n      swap4\n      pop\n        /* \"#utility.yul\":14896:14899   */\n      dup4\n        /* \"#utility.yul\":14941:14945   */\n      0x20\n        /* \"#utility.yul\":14933:14939   */\n      dup3\n        /* \"#utility.yul\":14929:14946   */\n      mul\n        /* \"#utility.yul\":14924:14927   */\n      dup6\n        /* \"#utility.yul\":14920:14947   */\n      add\n        /* \"#utility.yul\":14971:15053   */\n      tag_449\n        /* \"#utility.yul\":15047:15052   */\n      dup6\n        /* \"#utility.yul\":14971:15053   */\n      tag_252\n      jump\t// in\n    tag_449:\n        /* \"#utility.yul\":15076:15083   */\n      dup1\n        /* \"#utility.yul\":15107:15108   */\n      0x00\n        /* \"#utility.yul\":15092:15536   */\n    tag_450:\n        /* \"#utility.yul\":15117:15123   */\n      dup6\n        /* \"#utility.yul\":15114:15115   */\n      dup2\n        /* \"#utility.yul\":15111:15124   */\n      lt\n        /* \"#utility.yul\":15092:15536   */\n      iszero\n      tag_452\n      jumpi\n        /* \"#utility.yul\":15188:15197   */\n      dup5\n        /* \"#utility.yul\":15182:15186   */\n      dup5\n        /* \"#utility.yul\":15178:15198   */\n      sub\n        /* \"#utility.yul\":15173:15176   */\n      dup10\n        /* \"#utility.yul\":15166:15199   */\n      mstore\n        /* \"#utility.yul\":15239:15245   */\n      dup2\n        /* \"#utility.yul\":15233:15246   */\n      mload\n        /* \"#utility.yul\":15267:15383   */\n      tag_453\n        /* \"#utility.yul\":15378:15382   */\n      dup6\n        /* \"#utility.yul\":15363:15376   */\n      dup3\n        /* \"#utility.yul\":15267:15383   */\n      tag_266\n      jump\t// in\n    tag_453:\n        /* \"#utility.yul\":15259:15383   */\n      swap5\n      pop\n        /* \"#utility.yul\":15406:15492   */\n      tag_454\n        /* \"#utility.yul\":15485:15491   */\n      dup4\n        /* \"#utility.yul\":15406:15492   */\n      tag_267\n      jump\t// in\n    tag_454:\n        /* \"#utility.yul\":15396:15492   */\n      swap3\n      pop\n        /* \"#utility.yul\":15521:15525   */\n      0x20\n        /* \"#utility.yul\":15516:15519   */\n      dup11\n        /* \"#utility.yul\":15512:15526   */\n      add\n        /* \"#utility.yul\":15505:15526   */\n      swap10\n      pop\n        /* \"#utility.yul\":15152:15536   */\n      pop\n        /* \"#utility.yul\":15139:15140   */\n      0x01\n        /* \"#utility.yul\":15136:15137   */\n      dup2\n        /* \"#utility.yul\":15132:15141   */\n      add\n        /* \"#utility.yul\":15127:15141   */\n      swap1\n      pop\n        /* \"#utility.yul\":15092:15536   */\n      jump(tag_450)\n    tag_452:\n        /* \"#utility.yul\":15096:15110   */\n      pop\n        /* \"#utility.yul\":15552:15556   */\n      dup3\n        /* \"#utility.yul\":15545:15556   */\n      swap8\n      pop\n        /* \"#utility.yul\":15572:15575   */\n      dup8\n        /* \"#utility.yul\":15565:15575   */\n      swap6\n      pop\n        /* \"#utility.yul\":14638:15581   */\n      pop\n      pop\n      pop\n      pop\n      pop\n        /* \"#utility.yul\":14462:15581   */\n      swap3\n      swap2\n      pop\n      pop\n      jump\t// out\n        /* \"#utility.yul\":15587:16170   */\n    tag_67:\n        /* \"#utility.yul\":15808:15812   */\n      0x00\n        /* \"#utility.yul\":15846:15848   */\n      0x40\n        /* \"#utility.yul\":15835:15844   */\n      dup3\n        /* \"#utility.yul\":15831:15849   */\n      add\n        /* \"#utility.yul\":15823:15849   */\n      swap1\n      pop\n        /* \"#utility.yul\":15859:15928   */\n      tag_456\n        /* \"#utility.yul\":15925:15926   */\n      0x00\n        /* \"#utility.yul\":15914:15923   */\n      dup4\n        /* \"#utility.yul\":15910:15927   */\n      add\n        /* \"#utility.yul\":15901:15907   */\n      dup6\n        /* \"#utility.yul\":15859:15928   */\n      tag_249\n      jump\t// in\n    tag_456:\n        /* \"#utility.yul\":15975:15984   */\n      dup2\n        /* \"#utility.yul\":15969:15973   */\n      dup2\n        /* \"#utility.yul\":15965:15985   */\n      sub\n        /* \"#utility.yul\":15960:15962   */\n      0x20\n        /* \"#utility.yul\":15949:15958   */\n      dup4\n        /* \"#utility.yul\":15945:15963   */\n      add\n        /* \"#utility.yul\":15938:15986   */\n      mstore\n        /* \"#utility.yul\":16003:16163   */\n      tag_457\n        /* \"#utility.yul\":16158:16162   */\n      dup2\n        /* \"#utility.yul\":16149:16155   */\n      dup5\n        /* \"#utility.yul\":16003:16163   */\n      tag_268\n      jump\t// in\n    tag_457:\n        /* \"#utility.yul\":15995:16163   */\n      swap1\n      pop\n        /* \"#utility.yul\":15587:16170   */\n      swap4\n      swap3\n      pop\n      pop\n      pop\n      jump\t// out\n        /* \"#utility.yul\":16176:16292   */\n    tag_269:\n        /* \"#utility.yul\":16246:16267   */\n      tag_459\n        /* \"#utility.yul\":16261:16266   */\n      dup2\n        /* \"#utility.yul\":16246:16267   */\n      tag_230\n      jump\t// in\n    tag_459:\n        /* \"#utility.yul\":16239:16244   */\n      dup2\n        /* \"#utility.yul\":16236:16268   */\n      eq\n        /* \"#utility.yul\":16226:16286   */\n      tag_460\n      jumpi\n        /* \"#utility.yul\":16282:16283   */\n      0x00\n        /* \"#utility.yul\":16279:16280   */\n      dup1\n        /* \"#utility.yul\":16272:16284   */\n      revert\n        /* \"#utility.yul\":16226:16286   */\n    tag_460:\n        /* \"#utility.yul\":16176:16292   */\n      pop\n      jump\t// out\n        /* \"#utility.yul\":16298:16435   */\n    tag_270:\n        /* \"#utility.yul\":16352:16357   */\n      0x00\n        /* \"#utility.yul\":16383:16389   */\n      dup2\n        /* \"#utility.yul\":16377:16390   */\n      mload\n        /* \"#utility.yul\":16368:16390   */\n      swap1\n      pop\n        /* \"#utility.yul\":16399:16429   */\n      tag_462\n        /* \"#utility.yul\":16423:16428   */\n      dup2\n        /* \"#utility.yul\":16399:16429   */\n      tag_269\n      jump\t// in\n    tag_462:\n        /* \"#utility.yul\":16298:16435   */\n      swap3\n      swap2\n      pop\n      pop\n      jump\t// out\n        /* \"#utility.yul\":16441:16786   */\n    tag_71:\n        /* \"#utility.yul\":16508:16514   */\n      0x00\n        /* \"#utility.yul\":16557:16559   */\n      0x20\n        /* \"#utility.yul\":16545:16554   */\n      dup3\n        /* \"#utility.yul\":16536:16543   */\n      dup5\n        /* \"#utility.yul\":16532:16555   */\n      sub\n        /* \"#utility.yul\":16528:16560   */\n      slt\n        /* \"#utility.yul\":16525:16644   */\n      iszero\n      tag_464\n      jumpi\n        /* \"#utility.yul\":16563:16642   */\n      tag_465\n      tag_224\n      jump\t// in\n    tag_465:\n        /* \"#utility.yul\":16525:16644   */\n    tag_464:\n        /* \"#utility.yul\":16683:16684   */\n      0x00\n        /* \"#utility.yul\":16708:16769   */\n      tag_466\n        /* \"#utility.yul\":16761:16768   */\n      dup5\n        /* \"#utility.yul\":16752:16758   */\n      dup3\n        /* \"#utility.yul\":16741:16750   */\n      dup6\n        /* \"#utility.yul\":16737:16759   */\n      add\n        /* \"#utility.yul\":16708:16769   */\n      tag_270\n      jump\t// in\n    tag_466:\n        /* \"#utility.yul\":16698:16769   */\n      swap2\n      pop\n        /* \"#utility.yul\":16654:16779   */\n      pop\n        /* \"#utility.yul\":16441:16786   */\n      swap3\n      swap2\n      pop\n      pop\n      jump\t// out\n        /* \"#utility.yul\":16792:17124   */\n    tag_78:\n        /* \"#utility.yul\":16913:16917   */\n      0x00\n        /* \"#utility.yul\":16951:16953   */\n      0x40\n        /* \"#utility.yul\":16940:16949   */\n      dup3\n        /* \"#utility.yul\":16936:16954   */\n      add\n        /* \"#utility.yul\":16928:16954   */\n      swap1\n      pop\n        /* \"#utility.yul\":16964:17035   */\n      tag_468\n        /* \"#utility.yul\":17032:17033   */\n      0x00\n        /* \"#utility.yul\":17021:17030   */\n      dup4\n        /* \"#utility.yul\":17017:17034   */\n      add\n        /* \"#utility.yul\":17008:17014   */\n      dup6\n        /* \"#utility.yul\":16964:17035   */\n      tag_245\n      jump\t// in\n    tag_468:\n        /* \"#utility.yul\":17045:17117   */\n      tag_469\n        /* \"#utility.yul\":17113:17115   */\n      0x20\n        /* \"#utility.yul\":17102:17111   */\n      dup4\n        /* \"#utility.yul\":17098:17116   */\n      add\n        /* \"#utility.yul\":17089:17095   */\n      dup5\n        /* \"#utility.yul\":17045:17117   */\n      tag_222\n      jump\t// in\n    tag_469:\n        /* \"#utility.yul\":16792:17124   */\n      swap4\n      swap3\n      pop\n      pop\n      pop\n      jump\t// out\n        /* \"#utility.yul\":17130:17348   */\n    tag_88:\n        /* \"#utility.yul\":17221:17225   */\n      0x00\n        /* \"#utility.yul\":17259:17261   */\n      0x20\n        /* \"#utility.yul\":17248:17257   */\n      dup3\n        /* \"#utility.yul\":17244:17262   */\n      add\n        /* \"#utility.yul\":17236:17262   */\n      swap1\n      pop\n        /* \"#utility.yul\":17272:17341   */\n      tag_471\n        /* \"#utility.yul\":17338:17339   */\n      0x00\n        /* \"#utility.yul\":17327:17336   */\n      dup4\n        /* \"#utility.yul\":17323:17340   */\n      add\n        /* \"#utility.yul\":17314:17320   */\n      dup5\n        /* \"#utility.yul\":17272:17341   */\n      tag_249\n      jump\t// in\n    tag_471:\n        /* \"#utility.yul\":17130:17348   */\n      swap3\n      swap2\n      pop\n      pop\n      jump\t// out\n        /* \"#utility.yul\":17354:17472   */\n    tag_271:\n        /* \"#utility.yul\":17425:17447   */\n      tag_473\n        /* \"#utility.yul\":17441:17446   */\n      dup2\n        /* \"#utility.yul\":17425:17447   */\n      tag_253\n      jump\t// in\n    tag_473:\n        /* \"#utility.yul\":17418:17423   */\n      dup2\n        /* \"#utility.yul\":17415:17448   */\n      eq\n        /* \"#utility.yul\":17405:17466   */\n      tag_474\n      jumpi\n        /* \"#utility.yul\":17462:17463   */\n      0x00\n        /* \"#utility.yul\":17459:17460   */\n      dup1\n        /* \"#utility.yul\":17452:17464   */\n      revert\n        /* \"#utility.yul\":17405:17466   */\n    tag_474:\n        /* \"#utility.yul\":17354:17472   */\n      pop\n      jump\t// out\n        /* \"#utility.yul\":17478:17617   */\n    tag_272:\n        /* \"#utility.yul\":17533:17538   */\n      0x00\n        /* \"#utility.yul\":17564:17570   */\n      dup2\n        /* \"#utility.yul\":17558:17571   */\n      mload\n        /* \"#utility.yul\":17549:17571   */\n      swap1\n      pop\n        /* \"#utility.yul\":17580:17611   */\n      tag_476\n        /* \"#utility.yul\":17605:17610   */\n      dup2\n        /* \"#utility.yul\":17580:17611   */\n      tag_271\n      jump\t// in\n    tag_476:\n        /* \"#utility.yul\":17478:17617   */\n      swap3\n      swap2\n      pop\n      pop\n      jump\t// out\n        /* \"#utility.yul\":17623:18272   */\n    tag_92:\n        /* \"#utility.yul\":17704:17710   */\n      0x00\n        /* \"#utility.yul\":17712:17718   */\n      dup1\n        /* \"#utility.yul\":17720:17726   */\n      0x00\n        /* \"#utility.yul\":17769:17771   */\n      0x60\n        /* \"#utility.yul\":17757:17766   */\n      dup5\n        /* \"#utility.yul\":17748:17755   */\n      dup7\n        /* \"#utility.yul\":17744:17767   */\n      sub\n        /* \"#utility.yul\":17740:17772   */\n      slt\n        /* \"#utility.yul\":17737:17856   */\n      iszero\n      tag_478\n      jumpi\n        /* \"#utility.yul\":17775:17854   */\n      tag_479\n      tag_224\n      jump\t// in\n    tag_479:\n        /* \"#utility.yul\":17737:17856   */\n    tag_478:\n        /* \"#utility.yul\":17895:17896   */\n      0x00\n        /* \"#utility.yul\":17920:17981   */\n      tag_480\n        /* \"#utility.yul\":17973:17980   */\n      dup7\n        /* \"#utility.yul\":17964:17970   */\n      dup3\n        /* \"#utility.yul\":17953:17962   */\n      dup8\n        /* \"#utility.yul\":17949:17971   */\n      add\n        /* \"#utility.yul\":17920:17981   */\n      tag_270\n      jump\t// in\n    tag_480:\n        /* \"#utility.yul\":17910:17981   */\n      swap4\n      pop\n        /* \"#utility.yul\":17866:17991   */\n      pop\n        /* \"#utility.yul\":18030:18032   */\n      0x20\n        /* \"#utility.yul\":18056:18118   */\n      tag_481\n        /* \"#utility.yul\":18110:18117   */\n      dup7\n        /* \"#utility.yul\":18101:18107   */\n      dup3\n        /* \"#utility.yul\":18090:18099   */\n      dup8\n        /* \"#utility.yul\":18086:18108   */\n      add\n        /* \"#utility.yul\":18056:18118   */\n      tag_272\n      jump\t// in\n    tag_481:\n        /* \"#utility.yul\":18046:18118   */\n      swap3\n      pop\n        /* \"#utility.yul\":18001:18128   */\n      pop\n        /* \"#utility.yul\":18167:18169   */\n      0x40\n        /* \"#utility.yul\":18193:18255   */\n      tag_482\n        /* \"#utility.yul\":18247:18254   */\n      dup7\n        /* \"#utility.yul\":18238:18244   */\n      dup3\n        /* \"#utility.yul\":18227:18236   */\n      dup8\n        /* \"#utility.yul\":18223:18245   */\n      add\n        /* \"#utility.yul\":18193:18255   */\n      tag_272\n      jump\t// in\n    tag_482:\n        /* \"#utility.yul\":18183:18255   */\n      swap2\n      pop\n        /* \"#utility.yul\":18138:18265   */\n      pop\n        /* \"#utility.yul\":17623:18272   */\n      swap3\n      pop\n      swap3\n      pop\n      swap3\n      jump\t// out\n        /* \"#utility.yul\":18278:18458   */\n    tag_97:\n        /* \"#utility.yul\":18326:18403   */\n      0x4e487b7100000000000000000000000000000000000000000000000000000000\n        /* \"#utility.yul\":18323:18324   */\n      0x00\n        /* \"#utility.yul\":18316:18404   */\n      mstore\n        /* \"#utility.yul\":18423:18427   */\n      0x32\n        /* \"#utility.yul\":18420:18421   */\n      0x04\n        /* \"#utility.yul\":18413:18428   */\n      mstore\n        /* \"#utility.yul\":18447:18451   */\n      0x24\n        /* \"#utility.yul\":18444:18445   */\n      0x00\n        /* \"#utility.yul\":18437:18452   */\n      revert\n        /* \"#utility.yul\":18464:18626   */\n    tag_273:\n        /* \"#utility.yul\":18604:18618   */\n      0x6465706f73697446756e64730000000000000000000000000000000000000000\n        /* \"#utility.yul\":18600:18601   */\n      0x00\n        /* \"#utility.yul\":18592:18598   */\n      dup3\n        /* \"#utility.yul\":18588:18602   */\n      add\n        /* \"#utility.yul\":18581:18619   */\n      mstore\n        /* \"#utility.yul\":18464:18626   */\n      pop\n      jump\t// out\n        /* \"#utility.yul\":18632:18998   */\n    tag_274:\n        /* \"#utility.yul\":18774:18777   */\n      0x00\n        /* \"#utility.yul\":18795:18862   */\n      tag_486\n        /* \"#utility.yul\":18859:18861   */\n      0x0c\n        /* \"#utility.yul\":18854:18857   */\n      dup4\n        /* \"#utility.yul\":18795:18862   */\n      tag_218\n      jump\t// in\n    tag_486:\n        /* \"#utility.yul\":18788:18862   */\n      swap2\n      pop\n        /* \"#utility.yul\":18871:18964   */\n      tag_487\n        /* \"#utility.yul\":18960:18963   */\n      dup3\n        /* \"#utility.yul\":18871:18964   */\n      tag_273\n      jump\t// in\n    tag_487:\n        /* \"#utility.yul\":18989:18991   */\n      0x20\n        /* \"#utility.yul\":18984:18987   */\n      dup3\n        /* \"#utility.yul\":18980:18992   */\n      add\n        /* \"#utility.yul\":18973:18992   */\n      swap1\n      pop\n        /* \"#utility.yul\":18632:18998   */\n      swap2\n      swap1\n      pop\n      jump\t// out\n        /* \"#utility.yul\":19004:19423   */\n    tag_114:\n        /* \"#utility.yul\":19170:19174   */\n      0x00\n        /* \"#utility.yul\":19208:19210   */\n      0x20\n        /* \"#utility.yul\":19197:19206   */\n      dup3\n        /* \"#utility.yul\":19193:19211   */\n      add\n        /* \"#utility.yul\":19185:19211   */\n      swap1\n      pop\n        /* \"#utility.yul\":19257:19266   */\n      dup2\n        /* \"#utility.yul\":19251:19255   */\n      dup2\n        /* \"#utility.yul\":19247:19267   */\n      sub\n        /* \"#utility.yul\":19243:19244   */\n      0x00\n        /* \"#utility.yul\":19232:19241   */\n      dup4\n        /* \"#utility.yul\":19228:19245   */\n      add\n        /* \"#utility.yul\":19221:19268   */\n      mstore\n        /* \"#utility.yul\":19285:19416   */\n      tag_489\n        /* \"#utility.yul\":19411:19415   */\n      dup2\n        /* \"#utility.yul\":19285:19416   */\n      tag_274\n      jump\t// in\n    tag_489:\n        /* \"#utility.yul\":19277:19416   */\n      swap1\n      pop\n        /* \"#utility.yul\":19004:19423   */\n      swap2\n      swap1\n      pop\n      jump\t// out\n        /* \"#utility.yul\":19429:19871   */\n    tag_121:\n        /* \"#utility.yul\":19578:19582   */\n      0x00\n        /* \"#utility.yul\":19616:19618   */\n      0x60\n        /* \"#utility.yul\":19605:19614   */\n      dup3\n        /* \"#utility.yul\":19601:19619   */\n      add\n        /* \"#utility.yul\":19593:19619   */\n      swap1\n      pop\n        /* \"#utility.yul\":19629:19700   */\n      tag_491\n        /* \"#utility.yul\":19697:19698   */\n      0x00\n        /* \"#utility.yul\":19686:19695   */\n      dup4\n        /* \"#utility.yul\":19682:19699   */\n      add\n        /* \"#utility.yul\":19673:19679   */\n      dup7\n        /* \"#utility.yul\":19629:19700   */\n      tag_245\n      jump\t// in\n    tag_491:\n        /* \"#utility.yul\":19710:19782   */\n      tag_492\n        /* \"#utility.yul\":19778:19780   */\n      0x20\n        /* \"#utility.yul\":19767:19776   */\n      dup4\n        /* \"#utility.yul\":19763:19781   */\n      add\n        /* \"#utility.yul\":19754:19760   */\n      dup6\n        /* \"#utility.yul\":19710:19782   */\n      tag_245\n      jump\t// in\n    tag_492:\n        /* \"#utility.yul\":19792:19864   */\n      tag_493\n        /* \"#utility.yul\":19860:19862   */\n      0x40\n        /* \"#utility.yul\":19849:19858   */\n      dup4\n        /* \"#utility.yul\":19845:19863   */\n      add\n        /* \"#utility.yul\":19836:19842   */\n      dup5\n        /* \"#utility.yul\":19792:19864   */\n      tag_222\n      jump\t// in\n    tag_493:\n        /* \"#utility.yul\":19429:19871   */\n      swap5\n      swap4\n      pop\n      pop\n      pop\n      pop\n      jump\t// out\n        /* \"#utility.yul\":19877:19994   */\n    tag_275:\n        /* \"#utility.yul\":19986:19987   */\n      0x00\n        /* \"#utility.yul\":19983:19984   */\n      dup1\n        /* \"#utility.yul\":19976:19988   */\n      revert\n        /* \"#utility.yul\":20000:20117   */\n    tag_276:\n        /* \"#utility.yul\":20109:20110   */\n      0x00\n        /* \"#utility.yul\":20106:20107   */\n      dup1\n        /* \"#utility.yul\":20099:20111   */\n      revert\n        /* \"#utility.yul\":20123:20240   */\n    tag_277:\n        /* \"#utility.yul\":20232:20233   */\n      0x00\n        /* \"#utility.yul\":20229:20230   */\n      dup1\n        /* \"#utility.yul\":20222:20234   */\n      revert\n        /* \"#utility.yul\":20246:20970   */\n    tag_130:\n        /* \"#utility.yul\":20323:20327   */\n      0x00\n        /* \"#utility.yul\":20329:20335   */\n      dup1\n        /* \"#utility.yul\":20385:20396   */\n      dup4\n        /* \"#utility.yul\":20372:20397   */\n      calldataload\n        /* \"#utility.yul\":20485:20486   */\n      0x01\n        /* \"#utility.yul\":20479:20483   */\n      0x20\n        /* \"#utility.yul\":20475:20487   */\n      sub\n        /* \"#utility.yul\":20464:20472   */\n      dup5\n        /* \"#utility.yul\":20448:20462   */\n      calldatasize\n        /* \"#utility.yul\":20444:20473   */\n      sub\n        /* \"#utility.yul\":20440:20488   */\n      sub\n        /* \"#utility.yul\":20420:20438   */\n      dup2\n        /* \"#utility.yul\":20416:20489   */\n      slt\n        /* \"#utility.yul\":20406:20574   */\n      tag_498\n      jumpi\n        /* \"#utility.yul\":20493:20572   */\n      tag_499\n      tag_275\n      jump\t// in\n    tag_499:\n        /* \"#utility.yul\":20406:20574   */\n    tag_498:\n        /* \"#utility.yul\":20605:20623   */\n      dup1\n        /* \"#utility.yul\":20595:20603   */\n      dup5\n        /* \"#utility.yul\":20591:20624   */\n      add\n        /* \"#utility.yul\":20583:20624   */\n      swap3\n      pop\n        /* \"#utility.yul\":20657:20661   */\n      dup3\n        /* \"#utility.yul\":20644:20662   */\n      calldataload\n        /* \"#utility.yul\":20634:20662   */\n      swap2\n      pop\n        /* \"#utility.yul\":20685:20703   */\n      0xffffffffffffffff\n        /* \"#utility.yul\":20677:20683   */\n      dup3\n        /* \"#utility.yul\":20674:20704   */\n      gt\n        /* \"#utility.yul\":20671:20788   */\n      iszero\n      tag_500\n      jumpi\n        /* \"#utility.yul\":20707:20786   */\n      tag_501\n      tag_276\n      jump\t// in\n    tag_501:\n        /* \"#utility.yul\":20671:20788   */\n    tag_500:\n        /* \"#utility.yul\":20815:20817   */\n      0x20\n        /* \"#utility.yul\":20809:20813   */\n      dup4\n        /* \"#utility.yul\":20805:20818   */\n      add\n        /* \"#utility.yul\":20797:20818   */\n      swap3\n      pop\n        /* \"#utility.yul\":20872:20876   */\n      0x01\n        /* \"#utility.yul\":20864:20870   */\n      dup3\n        /* \"#utility.yul\":20860:20877   */\n      mul\n        /* \"#utility.yul\":20844:20858   */\n      calldatasize\n        /* \"#utility.yul\":20840:20878   */\n      sub\n        /* \"#utility.yul\":20834:20838   */\n      dup4\n        /* \"#utility.yul\":20830:20879   */\n      sgt\n        /* \"#utility.yul\":20827:20963   */\n      iszero\n      tag_502\n      jumpi\n        /* \"#utility.yul\":20882:20961   */\n      tag_503\n      tag_277\n      jump\t// in\n    tag_503:\n        /* \"#utility.yul\":20827:20963   */\n    tag_502:\n        /* \"#utility.yul\":20336:20970   */\n      pop\n        /* \"#utility.yul\":20246:20970   */\n      swap3\n      pop\n      swap3\n      swap1\n      pop\n      jump\t// out\n        /* \"#utility.yul\":20976:21072   */\n    tag_278:\n        /* \"#utility.yul\":21034:21040   */\n      0x00\n        /* \"#utility.yul\":21062:21065   */\n      dup3\n        /* \"#utility.yul\":21052:21065   */\n      swap1\n      pop\n        /* \"#utility.yul\":20976:21072   */\n      swap3\n      swap2\n      pop\n      pop\n      jump\t// out\n        /* \"#utility.yul\":21170:21277   */\n    tag_280:\n        /* \"#utility.yul\":21214:21222   */\n      0x00\n        /* \"#utility.yul\":21264:21269   */\n      dup3\n        /* \"#utility.yul\":21258:21262   */\n      dup3\n        /* \"#utility.yul\":21254:21270   */\n      shl\n        /* \"#utility.yul\":21233:21270   */\n      swap1\n      pop\n        /* \"#utility.yul\":21170:21277   */\n      swap3\n      swap2\n      pop\n      pop\n      jump\t// out\n        /* \"#utility.yul\":21283:21831   */\n    tag_132:\n        /* \"#utility.yul\":21373:21378   */\n      0x00\n        /* \"#utility.yul\":21404:21449   */\n      tag_508\n        /* \"#utility.yul\":21445:21448   */\n      dup4\n        /* \"#utility.yul\":21438:21443   */\n      dup4\n        /* \"#utility.yul\":21404:21449   */\n      tag_278\n      jump\t// in\n    tag_508:\n        /* \"#utility.yul\":21474:21479   */\n      dup3\n        /* \"#utility.yul\":21498:21538   */\n      tag_509\n        /* \"#utility.yul\":21528:21536   */\n      dup2\n        /* \"#utility.yul\":21515:21537   */\n      calldataload\n        /* \"#utility.yul\":21498:21538   */\n      tag_248\n      jump\t// in\n    tag_509:\n        /* \"#utility.yul\":21489:21538   */\n      swap3\n      pop\n        /* \"#utility.yul\":21562:21563   */\n      0x04\n        /* \"#utility.yul\":21554:21560   */\n      dup3\n        /* \"#utility.yul\":21551:21564   */\n      lt\n        /* \"#utility.yul\":21548:21824   */\n      iszero\n      tag_510\n      jumpi\n        /* \"#utility.yul\":21632:21800   */\n      tag_511\n        /* \"#utility.yul\":21716:21782   */\n      0xffffffff00000000000000000000000000000000000000000000000000000000\n        /* \"#utility.yul\":21686:21692   */\n      dup4\n        /* \"#utility.yul\":21683:21684   */\n      0x04\n        /* \"#utility.yul\":21679:21693   */\n      sub\n        /* \"#utility.yul\":21676:21677   */\n      0x08\n        /* \"#utility.yul\":21672:21694   */\n      mul\n        /* \"#utility.yul\":21632:21800   */\n      tag_280\n      jump\t// in\n    tag_511:\n        /* \"#utility.yul\":21609:21614   */\n      dup4\n        /* \"#utility.yul\":21588:21814   */\n      and\n        /* \"#utility.yul\":21579:21814   */\n      swap3\n      pop\n        /* \"#utility.yul\":21548:21824   */\n    tag_510:\n        /* \"#utility.yul\":21379:21831   */\n      pop\n      pop\n        /* \"#utility.yul\":21283:21831   */\n      swap3\n      swap2\n      pop\n      pop\n      jump\t// out\n        /* \"#utility.yul\":21837:22017   */\n    tag_142:\n        /* \"#utility.yul\":21885:21962   */\n      0x4e487b7100000000000000000000000000000000000000000000000000000000\n        /* \"#utility.yul\":21882:21883   */\n      0x00\n        /* \"#utility.yul\":21875:21963   */\n      mstore\n        /* \"#utility.yul\":21982:21986   */\n      0x41\n        /* \"#utility.yul\":21979:21980   */\n      0x04\n        /* \"#utility.yul\":21972:21987   */\n      mstore\n        /* \"#utility.yul\":22006:22010   */\n      0x24\n        /* \"#utility.yul\":22003:22004   */\n      0x00\n        /* \"#utility.yul\":21996:22011   */\n      revert\n        /* \"#utility.yul\":22023:22304   */\n    tag_281:\n        /* \"#utility.yul\":22106:22133   */\n      tag_514\n        /* \"#utility.yul\":22128:22132   */\n      dup3\n        /* \"#utility.yul\":22106:22133   */\n      tag_258\n      jump\t// in\n    tag_514:\n        /* \"#utility.yul\":22098:22104   */\n      dup2\n        /* \"#utility.yul\":22094:22134   */\n      add\n        /* \"#utility.yul\":22236:22242   */\n      dup2\n        /* \"#utility.yul\":22224:22234   */\n      dup2\n        /* \"#utility.yul\":22221:22243   */\n      lt\n        /* \"#utility.yul\":22200:22218   */\n      0xffffffffffffffff\n        /* \"#utility.yul\":22188:22198   */\n      dup3\n        /* \"#utility.yul\":22185:22219   */\n      gt\n        /* \"#utility.yul\":22182:22244   */\n      or\n        /* \"#utility.yul\":22179:22267   */\n      iszero\n      tag_515\n      jumpi\n        /* \"#utility.yul\":22247:22265   */\n      tag_516\n      tag_142\n      jump\t// in\n    tag_516:\n        /* \"#utility.yul\":22179:22267   */\n    tag_515:\n        /* \"#utility.yul\":22287:22297   */\n      dup1\n        /* \"#utility.yul\":22283:22285   */\n      0x40\n        /* \"#utility.yul\":22276:22298   */\n      mstore\n        /* \"#utility.yul\":22066:22304   */\n      pop\n        /* \"#utility.yul\":22023:22304   */\n      pop\n      pop\n      jump\t// out\n        /* \"#utility.yul\":22310:22439   */\n    tag_282:\n        /* \"#utility.yul\":22344:22350   */\n      0x00\n        /* \"#utility.yul\":22371:22391   */\n      tag_518\n      tag_223\n      jump\t// in\n    tag_518:\n        /* \"#utility.yul\":22361:22391   */\n      swap1\n      pop\n        /* \"#utility.yul\":22400:22433   */\n      tag_519\n        /* \"#utility.yul\":22428:22432   */\n      dup3\n        /* \"#utility.yul\":22420:22426   */\n      dup3\n        /* \"#utility.yul\":22400:22433   */\n      tag_281\n      jump\t// in\n    tag_519:\n        /* \"#utility.yul\":22310:22439   */\n      swap2\n      swap1\n      pop\n      jump\t// out\n        /* \"#utility.yul\":22445:22756   */\n    tag_283:\n        /* \"#utility.yul\":22522:22526   */\n      0x00\n        /* \"#utility.yul\":22612:22630   */\n      0xffffffffffffffff\n        /* \"#utility.yul\":22604:22610   */\n      dup3\n        /* \"#utility.yul\":22601:22631   */\n      gt\n        /* \"#utility.yul\":22598:22654   */\n      iszero\n      tag_521\n      jumpi\n        /* \"#utility.yul\":22634:22652   */\n      tag_522\n      tag_142\n      jump\t// in\n    tag_522:\n        /* \"#utility.yul\":22598:22654   */\n    tag_521:\n        /* \"#utility.yul\":22684:22688   */\n      0x20\n        /* \"#utility.yul\":22676:22682   */\n      dup3\n        /* \"#utility.yul\":22672:22689   */\n      mul\n        /* \"#utility.yul\":22664:22689   */\n      swap1\n      pop\n        /* \"#utility.yul\":22744:22748   */\n      0x20\n        /* \"#utility.yul\":22738:22742   */\n      dup2\n        /* \"#utility.yul\":22734:22749   */\n      add\n        /* \"#utility.yul\":22726:22749   */\n      swap1\n      pop\n        /* \"#utility.yul\":22445:22756   */\n      swap2\n      swap1\n      pop\n      jump\t// out\n        /* \"#utility.yul\":22779:23489   */\n    tag_284:\n        /* \"#utility.yul\":22875:22880   */\n      0x00\n        /* \"#utility.yul\":22900:22981   */\n      tag_524\n        /* \"#utility.yul\":22916:22980   */\n      tag_525\n        /* \"#utility.yul\":22973:22979   */\n      dup5\n        /* \"#utility.yul\":22916:22980   */\n      tag_283\n      jump\t// in\n    tag_525:\n        /* \"#utility.yul\":22900:22981   */\n      tag_282\n      jump\t// in\n    tag_524:\n        /* \"#utility.yul\":22891:22981   */\n      swap1\n      pop\n        /* \"#utility.yul\":23001:23006   */\n      dup1\n        /* \"#utility.yul\":23030:23036   */\n      dup4\n        /* \"#utility.yul\":23023:23028   */\n      dup3\n        /* \"#utility.yul\":23016:23037   */\n      mstore\n        /* \"#utility.yul\":23064:23068   */\n      0x20\n        /* \"#utility.yul\":23057:23062   */\n      dup3\n        /* \"#utility.yul\":23053:23069   */\n      add\n        /* \"#utility.yul\":23046:23069   */\n      swap1\n      pop\n        /* \"#utility.yul\":23117:23121   */\n      0x20\n        /* \"#utility.yul\":23109:23115   */\n      dup5\n        /* \"#utility.yul\":23105:23122   */\n      mul\n        /* \"#utility.yul\":23097:23103   */\n      dup4\n        /* \"#utility.yul\":23093:23123   */\n      add\n        /* \"#utility.yul\":23146:23149   */\n      dup6\n        /* \"#utility.yul\":23138:23144   */\n      dup2\n        /* \"#utility.yul\":23135:23150   */\n      gt\n        /* \"#utility.yul\":23132:23254   */\n      iszero\n      tag_526\n      jumpi\n        /* \"#utility.yul\":23165:23244   */\n      tag_527\n      tag_239\n      jump\t// in\n    tag_527:\n        /* \"#utility.yul\":23132:23254   */\n    tag_526:\n        /* \"#utility.yul\":23280:23286   */\n      dup4\n        /* \"#utility.yul\":23263:23483   */\n    tag_528:\n        /* \"#utility.yul\":23297:23303   */\n      dup2\n        /* \"#utility.yul\":23292:23295   */\n      dup2\n        /* \"#utility.yul\":23289:23304   */\n      lt\n        /* \"#utility.yul\":23263:23483   */\n      iszero\n      tag_530\n      jumpi\n        /* \"#utility.yul\":23372:23375   */\n      dup1\n        /* \"#utility.yul\":23401:23438   */\n      tag_531\n        /* \"#utility.yul\":23434:23437   */\n      dup9\n        /* \"#utility.yul\":23422:23432   */\n      dup3\n        /* \"#utility.yul\":23401:23438   */\n      tag_244\n      jump\t// in\n    tag_531:\n        /* \"#utility.yul\":23396:23399   */\n      dup5\n        /* \"#utility.yul\":23389:23439   */\n      mstore\n        /* \"#utility.yul\":23468:23472   */\n      0x20\n        /* \"#utility.yul\":23463:23466   */\n      dup5\n        /* \"#utility.yul\":23459:23473   */\n      add\n        /* \"#utility.yul\":23452:23473   */\n      swap4\n      pop\n        /* \"#utility.yul\":23339:23483   */\n      pop\n        /* \"#utility.yul\":23323:23327   */\n      0x20\n        /* \"#utility.yul\":23318:23321   */\n      dup2\n        /* \"#utility.yul\":23314:23328   */\n      add\n        /* \"#utility.yul\":23307:23328   */\n      swap1\n      pop\n        /* \"#utility.yul\":23263:23483   */\n      jump(tag_528)\n    tag_530:\n        /* \"#utility.yul\":23267:23288   */\n      pop\n        /* \"#utility.yul\":22881:23489   */\n      pop\n      pop\n        /* \"#utility.yul\":22779:23489   */\n      swap4\n      swap3\n      pop\n      pop\n      pop\n      jump\t// out\n        /* \"#utility.yul\":23512:23882   */\n    tag_285:\n        /* \"#utility.yul\":23583:23588   */\n      0x00\n        /* \"#utility.yul\":23632:23635   */\n      dup3\n        /* \"#utility.yul\":23625:23629   */\n      0x1f\n        /* \"#utility.yul\":23617:23623   */\n      dup4\n        /* \"#utility.yul\":23613:23630   */\n      add\n        /* \"#utility.yul\":23609:23636   */\n      slt\n        /* \"#utility.yul\":23599:23721   */\n      tag_533\n      jumpi\n        /* \"#utility.yul\":23640:23719   */\n      tag_534\n      tag_237\n      jump\t// in\n    tag_534:\n        /* \"#utility.yul\":23599:23721   */\n    tag_533:\n        /* \"#utility.yul\":23757:23763   */\n      dup2\n        /* \"#utility.yul\":23744:23764   */\n      calldataload\n        /* \"#utility.yul\":23782:23876   */\n      tag_535\n        /* \"#utility.yul\":23872:23875   */\n      dup5\n        /* \"#utility.yul\":23864:23870   */\n      dup3\n        /* \"#utility.yul\":23857:23861   */\n      0x20\n        /* \"#utility.yul\":23849:23855   */\n      dup7\n        /* \"#utility.yul\":23845:23862   */\n      add\n        /* \"#utility.yul\":23782:23876   */\n      tag_284\n      jump\t// in\n    tag_535:\n        /* \"#utility.yul\":23773:23876   */\n      swap2\n      pop\n        /* \"#utility.yul\":23589:23882   */\n      pop\n        /* \"#utility.yul\":23512:23882   */\n      swap3\n      swap2\n      pop\n      pop\n      jump\t// out\n        /* \"#utility.yul\":23888:24427   */\n    tag_137:\n        /* \"#utility.yul\":23972:23978   */\n      0x00\n        /* \"#utility.yul\":24021:24023   */\n      0x20\n        /* \"#utility.yul\":24009:24018   */\n      dup3\n        /* \"#utility.yul\":24000:24007   */\n      dup5\n        /* \"#utility.yul\":23996:24019   */\n      sub\n        /* \"#utility.yul\":23992:24024   */\n      slt\n        /* \"#utility.yul\":23989:24108   */\n      iszero\n      tag_537\n      jumpi\n        /* \"#utility.yul\":24027:24106   */\n      tag_538\n      tag_224\n      jump\t// in\n    tag_538:\n        /* \"#utility.yul\":23989:24108   */\n    tag_537:\n        /* \"#utility.yul\":24175:24176   */\n      0x00\n        /* \"#utility.yul\":24164:24173   */\n      dup3\n        /* \"#utility.yul\":24160:24177   */\n      add\n        /* \"#utility.yul\":24147:24178   */\n      calldataload\n        /* \"#utility.yul\":24205:24223   */\n      0xffffffffffffffff\n        /* \"#utility.yul\":24197:24203   */\n      dup2\n        /* \"#utility.yul\":24194:24224   */\n      gt\n        /* \"#utility.yul\":24191:24308   */\n      iszero\n      tag_539\n      jumpi\n        /* \"#utility.yul\":24227:24306   */\n      tag_540\n      tag_225\n      jump\t// in\n    tag_540:\n        /* \"#utility.yul\":24191:24308   */\n    tag_539:\n        /* \"#utility.yul\":24332:24410   */\n      tag_541\n        /* \"#utility.yul\":24402:24409   */\n      dup5\n        /* \"#utility.yul\":24393:24399   */\n      dup3\n        /* \"#utility.yul\":24382:24391   */\n      dup6\n        /* \"#utility.yul\":24378:24400   */\n      add\n        /* \"#utility.yul\":24332:24410   */\n      tag_285\n      jump\t// in\n    tag_541:\n        /* \"#utility.yul\":24322:24410   */\n      swap2\n      pop\n        /* \"#utility.yul\":24118:24420   */\n      pop\n        /* \"#utility.yul\":23888:24427   */\n      swap3\n      swap2\n      pop\n      pop\n      jump\t// out\n        /* \"#utility.yul\":24433:24613   */\n    tag_286:\n        /* \"#utility.yul\":24481:24558   */\n      0x4e487b7100000000000000000000000000000000000000000000000000000000\n        /* \"#utility.yul\":24478:24479   */\n      0x00\n        /* \"#utility.yul\":24471:24559   */\n      mstore\n        /* \"#utility.yul\":24578:24582   */\n      0x11\n        /* \"#utility.yul\":24575:24576   */\n      0x04\n        /* \"#utility.yul\":24568:24583   */\n      mstore\n        /* \"#utility.yul\":24602:24606   */\n      0x24\n        /* \"#utility.yul\":24599:24600   */\n      0x00\n        /* \"#utility.yul\":24592:24607   */\n      revert\n        /* \"#utility.yul\":24619:24810   */\n    tag_158:\n        /* \"#utility.yul\":24659:24662   */\n      0x00\n        /* \"#utility.yul\":24678:24698   */\n      tag_544\n        /* \"#utility.yul\":24696:24697   */\n      dup3\n        /* \"#utility.yul\":24678:24698   */\n      tag_221\n      jump\t// in\n    tag_544:\n        /* \"#utility.yul\":24673:24698   */\n      swap2\n      pop\n        /* \"#utility.yul\":24712:24732   */\n      tag_545\n        /* \"#utility.yul\":24730:24731   */\n      dup4\n        /* \"#utility.yul\":24712:24732   */\n      tag_221\n      jump\t// in\n    tag_545:\n        /* \"#utility.yul\":24707:24732   */\n      swap3\n      pop\n        /* \"#utility.yul\":24755:24756   */\n      dup3\n        /* \"#utility.yul\":24752:24753   */\n      dup3\n        /* \"#utility.yul\":24748:24757   */\n      add\n        /* \"#utility.yul\":24741:24757   */\n      swap1\n      pop\n        /* \"#utility.yul\":24776:24779   */\n      dup1\n        /* \"#utility.yul\":24773:24774   */\n      dup3\n        /* \"#utility.yul\":24770:24780   */\n      gt\n        /* \"#utility.yul\":24767:24803   */\n      iszero\n      tag_546\n      jumpi\n        /* \"#utility.yul\":24783:24801   */\n      tag_547\n      tag_286\n      jump\t// in\n    tag_547:\n        /* \"#utility.yul\":24767:24803   */\n    tag_546:\n        /* \"#utility.yul\":24619:24810   */\n      swap3\n      swap2\n      pop\n      pop\n      jump\t// out\n        /* \"#utility.yul\":24816:24933   */\n    tag_287:\n        /* \"#utility.yul\":24925:24926   */\n      0x00\n        /* \"#utility.yul\":24922:24923   */\n      dup1\n        /* \"#utility.yul\":24915:24927   */\n      revert\n        /* \"#utility.yul\":24939:25056   */\n    tag_288:\n        /* \"#utility.yul\":25048:25049   */\n      0x00\n        /* \"#utility.yul\":25045:25046   */\n      dup1\n        /* \"#utility.yul\":25038:25050   */\n      revert\n        /* \"#utility.yul\":25062:25531   */\n    tag_160:\n        /* \"#utility.yul\":25167:25176   */\n      0x00\n        /* \"#utility.yul\":25178:25187   */\n      dup1\n        /* \"#utility.yul\":25216:25224   */\n      dup6\n        /* \"#utility.yul\":25204:25214   */\n      dup6\n        /* \"#utility.yul\":25201:25225   */\n      gt\n        /* \"#utility.yul\":25198:25309   */\n      iszero\n      tag_551\n      jumpi\n        /* \"#utility.yul\":25228:25307   */\n      tag_552\n      tag_287\n      jump\t// in\n    tag_552:\n        /* \"#utility.yul\":25198:25309   */\n    tag_551:\n        /* \"#utility.yul\":25334:25340   */\n      dup4\n        /* \"#utility.yul\":25324:25332   */\n      dup7\n        /* \"#utility.yul\":25321:25341   */\n      gt\n        /* \"#utility.yul\":25318:25425   */\n      iszero\n      tag_553\n      jumpi\n        /* \"#utility.yul\":25344:25423   */\n      tag_554\n      tag_288\n      jump\t// in\n    tag_554:\n        /* \"#utility.yul\":25318:25425   */\n    tag_553:\n        /* \"#utility.yul\":25475:25476   */\n      0x01\n        /* \"#utility.yul\":25463:25473   */\n      dup6\n        /* \"#utility.yul\":25459:25477   */\n      mul\n        /* \"#utility.yul\":25451:25457   */\n      dup4\n        /* \"#utility.yul\":25447:25478   */\n      add\n        /* \"#utility.yul\":25434:25478   */\n      swap2\n      pop\n        /* \"#utility.yul\":25514:25524   */\n      dup5\n        /* \"#utility.yul\":25504:25512   */\n      dup7\n        /* \"#utility.yul\":25500:25525   */\n      sub\n        /* \"#utility.yul\":25487:25525   */\n      swap1\n      pop\n        /* \"#utility.yul\":25062:25531   */\n      swap5\n      pop\n      swap5\n      swap3\n      pop\n      pop\n      pop\n      jump\t// out\n        /* \"#utility.yul\":25537:25641   */\n    tag_289:\n        /* \"#utility.yul\":25582:25589   */\n      0x00\n        /* \"#utility.yul\":25611:25635   */\n      tag_556\n        /* \"#utility.yul\":25629:25634   */\n      dup3\n        /* \"#utility.yul\":25611:25635   */\n      tag_226\n      jump\t// in\n    tag_556:\n        /* \"#utility.yul\":25600:25635   */\n      swap1\n      pop\n        /* \"#utility.yul\":25537:25641   */\n      swap2\n      swap1\n      pop\n      jump\t// out\n        /* \"#utility.yul\":25647:25785   */\n    tag_290:\n        /* \"#utility.yul\":25728:25760   */\n      tag_558\n        /* \"#utility.yul\":25754:25759   */\n      dup2\n        /* \"#utility.yul\":25728:25760   */\n      tag_289\n      jump\t// in\n    tag_558:\n        /* \"#utility.yul\":25721:25726   */\n      dup2\n        /* \"#utility.yul\":25718:25761   */\n      eq\n        /* \"#utility.yul\":25708:25779   */\n      tag_559\n      jumpi\n        /* \"#utility.yul\":25775:25776   */\n      0x00\n        /* \"#utility.yul\":25772:25773   */\n      dup1\n        /* \"#utility.yul\":25765:25777   */\n      revert\n        /* \"#utility.yul\":25708:25779   */\n    tag_559:\n        /* \"#utility.yul\":25647:25785   */\n      pop\n      jump\t// out\n        /* \"#utility.yul\":25791:25946   */\n    tag_291:\n        /* \"#utility.yul\":25845:25850   */\n      0x00\n        /* \"#utility.yul\":25883:25889   */\n      dup2\n        /* \"#utility.yul\":25870:25890   */\n      calldataload\n        /* \"#utility.yul\":25861:25890   */\n      swap1\n      pop\n        /* \"#utility.yul\":25899:25940   */\n      tag_561\n        /* \"#utility.yul\":25934:25939   */\n      dup2\n        /* \"#utility.yul\":25899:25940   */\n      tag_290\n      jump\t// in\n    tag_561:\n        /* \"#utility.yul\":25791:25946   */\n      swap3\n      swap2\n      pop\n      pop\n      jump\t// out\n        /* \"#utility.yul\":25952:26297   */\n    tag_162:\n        /* \"#utility.yul\":26019:26025   */\n      0x00\n        /* \"#utility.yul\":26068:26070   */\n      0x20\n        /* \"#utility.yul\":26056:26065   */\n      dup3\n        /* \"#utility.yul\":26047:26054   */\n      dup5\n        /* \"#utility.yul\":26043:26066   */\n      sub\n        /* \"#utility.yul\":26039:26071   */\n      slt\n        /* \"#utility.yul\":26036:26155   */\n      iszero\n      tag_563\n      jumpi\n        /* \"#utility.yul\":26074:26153   */\n      tag_564\n      tag_224\n      jump\t// in\n    tag_564:\n        /* \"#utility.yul\":26036:26155   */\n    tag_563:\n        /* \"#utility.yul\":26194:26195   */\n      0x00\n        /* \"#utility.yul\":26219:26280   */\n      tag_565\n        /* \"#utility.yul\":26272:26279   */\n      dup5\n        /* \"#utility.yul\":26263:26269   */\n      dup3\n        /* \"#utility.yul\":26252:26261   */\n      dup6\n        /* \"#utility.yul\":26248:26270   */\n      add\n        /* \"#utility.yul\":26219:26280   */\n      tag_291\n      jump\t// in\n    tag_565:\n        /* \"#utility.yul\":26209:26280   */\n      swap2\n      pop\n        /* \"#utility.yul\":26165:26290   */\n      pop\n        /* \"#utility.yul\":25952:26297   */\n      swap3\n      swap2\n      pop\n      pop\n      jump\t// out\n        /* \"#utility.yul\":26303:26632   */\n    tag_173:\n        /* \"#utility.yul\":26362:26368   */\n      0x00\n        /* \"#utility.yul\":26411:26413   */\n      0x20\n        /* \"#utility.yul\":26399:26408   */\n      dup3\n        /* \"#utility.yul\":26390:26397   */\n      dup5\n        /* \"#utility.yul\":26386:26409   */\n      sub\n        /* \"#utility.yul\":26382:26414   */\n      slt\n        /* \"#utility.yul\":26379:26498   */\n      iszero\n      tag_567\n      jumpi\n        /* \"#utility.yul\":26417:26496   */\n      tag_568\n      tag_224\n      jump\t// in\n    tag_568:\n        /* \"#utility.yul\":26379:26498   */\n    tag_567:\n        /* \"#utility.yul\":26537:26538   */\n      0x00\n        /* \"#utility.yul\":26562:26615   */\n      tag_569\n        /* \"#utility.yul\":26607:26614   */\n      dup5\n        /* \"#utility.yul\":26598:26604   */\n      dup3\n        /* \"#utility.yul\":26587:26596   */\n      dup6\n        /* \"#utility.yul\":26583:26605   */\n      add\n        /* \"#utility.yul\":26562:26615   */\n      tag_244\n      jump\t// in\n    tag_569:\n        /* \"#utility.yul\":26552:26615   */\n      swap2\n      pop\n        /* \"#utility.yul\":26508:26625   */\n      pop\n        /* \"#utility.yul\":26303:26632   */\n      swap3\n      swap2\n      pop\n      pop\n      jump\t// out\n        /* \"#utility.yul\":26638:26758   */\n    tag_292:\n        /* \"#utility.yul\":26710:26733   */\n      tag_571\n        /* \"#utility.yul\":26727:26732   */\n      dup2\n        /* \"#utility.yul\":26710:26733   */\n      tag_262\n      jump\t// in\n    tag_571:\n        /* \"#utility.yul\":26703:26708   */\n      dup2\n        /* \"#utility.yul\":26700:26734   */\n      eq\n        /* \"#utility.yul\":26690:26752   */\n      tag_572\n      jumpi\n        /* \"#utility.yul\":26748:26749   */\n      0x00\n        /* \"#utility.yul\":26745:26746   */\n      dup1\n        /* \"#utility.yul\":26738:26750   */\n      revert\n        /* \"#utility.yul\":26690:26752   */\n    tag_572:\n        /* \"#utility.yul\":26638:26758   */\n      pop\n      jump\t// out\n        /* \"#utility.yul\":26764:26901   */\n    tag_293:\n        /* \"#utility.yul\":26809:26814   */\n      0x00\n        /* \"#utility.yul\":26847:26853   */\n      dup2\n        /* \"#utility.yul\":26834:26854   */\n      calldataload\n        /* \"#utility.yul\":26825:26854   */\n      swap1\n      pop\n        /* \"#utility.yul\":26863:26895   */\n      tag_574\n        /* \"#utility.yul\":26889:26894   */\n      dup2\n        /* \"#utility.yul\":26863:26895   */\n      tag_292\n      jump\t// in\n    tag_574:\n        /* \"#utility.yul\":26764:26901   */\n      swap3\n      swap2\n      pop\n      pop\n      jump\t// out\n        /* \"#utility.yul\":26907:27234   */\n    tag_184:\n        /* \"#utility.yul\":26965:26971   */\n      0x00\n        /* \"#utility.yul\":27014:27016   */\n      0x20\n        /* \"#utility.yul\":27002:27011   */\n      dup3\n        /* \"#utility.yul\":26993:27000   */\n      dup5\n        /* \"#utility.yul\":26989:27012   */\n      sub\n        /* \"#utility.yul\":26985:27017   */\n      slt\n        /* \"#utility.yul\":26982:27101   */\n      iszero\n      tag_576\n      jumpi\n        /* \"#utility.yul\":27020:27099   */\n      tag_577\n      tag_224\n      jump\t// in\n    tag_577:\n        /* \"#utility.yul\":26982:27101   */\n    tag_576:\n        /* \"#utility.yul\":27140:27141   */\n      0x00\n        /* \"#utility.yul\":27165:27217   */\n      tag_578\n        /* \"#utility.yul\":27209:27216   */\n      dup5\n        /* \"#utility.yul\":27200:27206   */\n      dup3\n        /* \"#utility.yul\":27189:27198   */\n      dup6\n        /* \"#utility.yul\":27185:27207   */\n      add\n        /* \"#utility.yul\":27165:27217   */\n      tag_293\n      jump\t// in\n    tag_578:\n        /* \"#utility.yul\":27155:27217   */\n      swap2\n      pop\n        /* \"#utility.yul\":27111:27227   */\n      pop\n        /* \"#utility.yul\":26907:27234   */\n      swap3\n      swap2\n      pop\n      pop\n      jump\t// out\n        /* \"#utility.yul\":27240:27373   */\n    tag_294:\n        /* \"#utility.yul\":27283:27288   */\n      0x00\n        /* \"#utility.yul\":27321:27327   */\n      dup2\n        /* \"#utility.yul\":27308:27328   */\n      calldataload\n        /* \"#utility.yul\":27299:27328   */\n      swap1\n      pop\n        /* \"#utility.yul\":27337:27367   */\n      tag_580\n        /* \"#utility.yul\":27361:27366   */\n      dup2\n        /* \"#utility.yul\":27337:27367   */\n      tag_269\n      jump\t// in\n    tag_580:\n        /* \"#utility.yul\":27240:27373   */\n      swap3\n      swap2\n      pop\n      pop\n      jump\t// out\n        /* \"#utility.yul\":27379:27702   */\n    tag_195:\n        /* \"#utility.yul\":27435:27441   */\n      0x00\n        /* \"#utility.yul\":27484:27486   */\n      0x20\n        /* \"#utility.yul\":27472:27481   */\n      dup3\n        /* \"#utility.yul\":27463:27470   */\n      dup5\n        /* \"#utility.yul\":27459:27482   */\n      sub\n        /* \"#utility.yul\":27455:27487   */\n      slt\n        /* \"#utility.yul\":27452:27571   */\n      iszero\n      tag_582\n      jumpi\n        /* \"#utility.yul\":27490:27569   */\n      tag_583\n      tag_224\n      jump\t// in\n    tag_583:\n        /* \"#utility.yul\":27452:27571   */\n    tag_582:\n        /* \"#utility.yul\":27610:27611   */\n      0x00\n        /* \"#utility.yul\":27635:27685   */\n      tag_584\n        /* \"#utility.yul\":27677:27684   */\n      dup5\n        /* \"#utility.yul\":27668:27674   */\n      dup3\n        /* \"#utility.yul\":27657:27666   */\n      dup6\n        /* \"#utility.yul\":27653:27675   */\n      add\n        /* \"#utility.yul\":27635:27685   */\n      tag_294\n      jump\t// in\n    tag_584:\n        /* \"#utility.yul\":27625:27685   */\n      swap2\n      pop\n        /* \"#utility.yul\":27581:27695   */\n      pop\n        /* \"#utility.yul\":27379:27702   */\n      swap3\n      swap2\n      pop\n      pop\n      jump\t// out\n        /* \"#utility.yul\":27708:27825   */\n    tag_295:\n        /* \"#utility.yul\":27817:27818   */\n      0x00\n        /* \"#utility.yul\":27814:27815   */\n      dup1\n        /* \"#utility.yul\":27807:27819   */\n      revert\n        /* \"#utility.yul\":27831:28138   */\n    tag_296:\n        /* \"#utility.yul\":27892:27896   */\n      0x00\n        /* \"#utility.yul\":27982:28000   */\n      0xffffffffffffffff\n        /* \"#utility.yul\":27974:27980   */\n      dup3\n        /* \"#utility.yul\":27971:28001   */\n      gt\n        /* \"#utility.yul\":27968:28024   */\n      iszero\n      tag_587\n      jumpi\n        /* \"#utility.yul\":28004:28022   */\n      tag_588\n      tag_142\n      jump\t// in\n    tag_588:\n        /* \"#utility.yul\":27968:28024   */\n    tag_587:\n        /* \"#utility.yul\":28042:28071   */\n      tag_589\n        /* \"#utility.yul\":28064:28070   */\n      dup3\n        /* \"#utility.yul\":28042:28071   */\n      tag_258\n      jump\t// in\n    tag_589:\n        /* \"#utility.yul\":28034:28071   */\n      swap1\n      pop\n        /* \"#utility.yul\":28126:28130   */\n      0x20\n        /* \"#utility.yul\":28120:28124   */\n      dup2\n        /* \"#utility.yul\":28116:28131   */\n      add\n        /* \"#utility.yul\":28108:28131   */\n      swap1\n      pop\n        /* \"#utility.yul\":27831:28138   */\n      swap2\n      swap1\n      pop\n      jump\t// out\n        /* \"#utility.yul\":28144:28290   */\n    tag_297:\n        /* \"#utility.yul\":28241:28247   */\n      dup3\n        /* \"#utility.yul\":28236:28239   */\n      dup2\n        /* \"#utility.yul\":28231:28234   */\n      dup4\n        /* \"#utility.yul\":28218:28248   */\n      calldatacopy\n        /* \"#utility.yul\":28282:28283   */\n      0x00\n        /* \"#utility.yul\":28273:28279   */\n      dup4\n        /* \"#utility.yul\":28268:28271   */\n      dup4\n        /* \"#utility.yul\":28264:28280   */\n      add\n        /* \"#utility.yul\":28257:28284   */\n      mstore\n        /* \"#utility.yul\":28144:28290   */\n      pop\n      pop\n      pop\n      jump\t// out\n        /* \"#utility.yul\":28296:28719   */\n    tag_298:\n        /* \"#utility.yul\":28373:28378   */\n      0x00\n        /* \"#utility.yul\":28398:28463   */\n      tag_592\n        /* \"#utility.yul\":28414:28462   */\n      tag_593\n        /* \"#utility.yul\":28455:28461   */\n      dup5\n        /* \"#utility.yul\":28414:28462   */\n      tag_296\n      jump\t// in\n    tag_593:\n        /* \"#utility.yul\":28398:28463   */\n      tag_282\n      jump\t// in\n    tag_592:\n        /* \"#utility.yul\":28389:28463   */\n      swap1\n      pop\n        /* \"#utility.yul\":28486:28492   */\n      dup3\n        /* \"#utility.yul\":28479:28484   */\n      dup2\n        /* \"#utility.yul\":28472:28493   */\n      mstore\n        /* \"#utility.yul\":28524:28528   */\n      0x20\n        /* \"#utility.yul\":28517:28522   */\n      dup2\n        /* \"#utility.yul\":28513:28529   */\n      add\n        /* \"#utility.yul\":28562:28565   */\n      dup5\n        /* \"#utility.yul\":28553:28559   */\n      dup5\n        /* \"#utility.yul\":28548:28551   */\n      dup5\n        /* \"#utility.yul\":28544:28560   */\n      add\n        /* \"#utility.yul\":28541:28566   */\n      gt\n        /* \"#utility.yul\":28538:28650   */\n      iszero\n      tag_594\n      jumpi\n        /* \"#utility.yul\":28569:28648   */\n      tag_595\n      tag_295\n      jump\t// in\n    tag_595:\n        /* \"#utility.yul\":28538:28650   */\n    tag_594:\n        /* \"#utility.yul\":28659:28713   */\n      tag_596\n        /* \"#utility.yul\":28706:28712   */\n      dup5\n        /* \"#utility.yul\":28701:28704   */\n      dup3\n        /* \"#utility.yul\":28696:28699   */\n      dup6\n        /* \"#utility.yul\":28659:28713   */\n      tag_297\n      jump\t// in\n    tag_596:\n        /* \"#utility.yul\":28379:28719   */\n      pop\n        /* \"#utility.yul\":28296:28719   */\n      swap4\n      swap3\n      pop\n      pop\n      pop\n      jump\t// out\n        /* \"#utility.yul\":28738:29076   */\n    tag_299:\n        /* \"#utility.yul\":28793:28798   */\n      0x00\n        /* \"#utility.yul\":28842:28845   */\n      dup3\n        /* \"#utility.yul\":28835:28839   */\n      0x1f\n        /* \"#utility.yul\":28827:28833   */\n      dup4\n        /* \"#utility.yul\":28823:28840   */\n      add\n        /* \"#utility.yul\":28819:28846   */\n      slt\n        /* \"#utility.yul\":28809:28931   */\n      tag_598\n      jumpi\n        /* \"#utility.yul\":28850:28929   */\n      tag_599\n      tag_237\n      jump\t// in\n    tag_599:\n        /* \"#utility.yul\":28809:28931   */\n    tag_598:\n        /* \"#utility.yul\":28967:28973   */\n      dup2\n        /* \"#utility.yul\":28954:28974   */\n      calldataload\n        /* \"#utility.yul\":28992:29070   */\n      tag_600\n        /* \"#utility.yul\":29066:29069   */\n      dup5\n        /* \"#utility.yul\":29058:29064   */\n      dup3\n        /* \"#utility.yul\":29051:29055   */\n      0x20\n        /* \"#utility.yul\":29043:29049   */\n      dup7\n        /* \"#utility.yul\":29039:29056   */\n      add\n        /* \"#utility.yul\":28992:29070   */\n      tag_298\n      jump\t// in\n    tag_600:\n        /* \"#utility.yul\":28983:29070   */\n      swap2\n      pop\n        /* \"#utility.yul\":28799:29076   */\n      pop\n        /* \"#utility.yul\":28738:29076   */\n      swap3\n      swap2\n      pop\n      pop\n      jump\t// out\n        /* \"#utility.yul\":29082:29589   */\n    tag_206:\n        /* \"#utility.yul\":29150:29156   */\n      0x00\n        /* \"#utility.yul\":29199:29201   */\n      0x20\n        /* \"#utility.yul\":29187:29196   */\n      dup3\n        /* \"#utility.yul\":29178:29185   */\n      dup5\n        /* \"#utility.yul\":29174:29197   */\n      sub\n        /* \"#utility.yul\":29170:29202   */\n      slt\n        /* \"#utility.yul\":29167:29286   */\n      iszero\n      tag_602\n      jumpi\n        /* \"#utility.yul\":29205:29284   */\n      tag_603\n      tag_224\n      jump\t// in\n    tag_603:\n        /* \"#utility.yul\":29167:29286   */\n    tag_602:\n        /* \"#utility.yul\":29353:29354   */\n      0x00\n        /* \"#utility.yul\":29342:29351   */\n      dup3\n        /* \"#utility.yul\":29338:29355   */\n      add\n        /* \"#utility.yul\":29325:29356   */\n      calldataload\n        /* \"#utility.yul\":29383:29401   */\n      0xffffffffffffffff\n        /* \"#utility.yul\":29375:29381   */\n      dup2\n        /* \"#utility.yul\":29372:29402   */\n      gt\n        /* \"#utility.yul\":29369:29486   */\n      iszero\n      tag_604\n      jumpi\n        /* \"#utility.yul\":29405:29484   */\n      tag_605\n      tag_225\n      jump\t// in\n    tag_605:\n        /* \"#utility.yul\":29369:29486   */\n    tag_604:\n        /* \"#utility.yul\":29510:29572   */\n      tag_606\n        /* \"#utility.yul\":29564:29571   */\n      dup5\n        /* \"#utility.yul\":29555:29561   */\n      dup3\n        /* \"#utility.yul\":29544:29553   */\n      dup6\n        /* \"#utility.yul\":29540:29562   */\n      add\n        /* \"#utility.yul\":29510:29572   */\n      tag_299\n      jump\t// in\n    tag_606:\n        /* \"#utility.yul\":29500:29572   */\n      swap2\n      pop\n        /* \"#utility.yul\":29296:29582   */\n      pop\n        /* \"#utility.yul\":29082:29589   */\n      swap3\n      swap2\n      pop\n      pop\n      jump\t// out\n        /* \"#utility.yul\":29595:29756   */\n    tag_300:\n        /* \"#utility.yul\":29735:29748   */\n      0x646174614465636f646572000000000000000000000000000000000000000000\n        /* \"#utility.yul\":29731:29732   */\n      0x00\n        /* \"#utility.yul\":29723:29729   */\n      dup3\n        /* \"#utility.yul\":29719:29733   */\n      add\n        /* \"#utility.yul\":29712:29749   */\n      mstore\n        /* \"#utility.yul\":29595:29756   */\n      pop\n      jump\t// out\n        /* \"#utility.yul\":29762:30128   */\n    tag_301:\n        /* \"#utility.yul\":29904:29907   */\n      0x00\n        /* \"#utility.yul\":29925:29992   */\n      tag_609\n        /* \"#utility.yul\":29989:29991   */\n      0x0b\n        /* \"#utility.yul\":29984:29987   */\n      dup4\n        /* \"#utility.yul\":29925:29992   */\n      tag_218\n      jump\t// in\n    tag_609:\n        /* \"#utility.yul\":29918:29992   */\n      swap2\n      pop\n        /* \"#utility.yul\":30001:30094   */\n      tag_610\n        /* \"#utility.yul\":30090:30093   */\n      dup3\n        /* \"#utility.yul\":30001:30094   */\n      tag_300\n      jump\t// in\n    tag_610:\n        /* \"#utility.yul\":30119:30121   */\n      0x20\n        /* \"#utility.yul\":30114:30117   */\n      dup3\n        /* \"#utility.yul\":30110:30122   */\n      add\n        /* \"#utility.yul\":30103:30122   */\n      swap1\n      pop\n        /* \"#utility.yul\":29762:30128   */\n      swap2\n      swap1\n      pop\n      jump\t// out\n        /* \"#utility.yul\":30134:30553   */\n    tag_209:\n        /* \"#utility.yul\":30300:30304   */\n      0x00\n        /* \"#utility.yul\":30338:30340   */\n      0x20\n        /* \"#utility.yul\":30327:30336   */\n      dup3\n        /* \"#utility.yul\":30323:30341   */\n      add\n        /* \"#utility.yul\":30315:30341   */\n      swap1\n      pop\n        /* \"#utility.yul\":30387:30396   */\n      dup2\n        /* \"#utility.yul\":30381:30385   */\n      dup2\n        /* \"#utility.yul\":30377:30397   */\n      sub\n        /* \"#utility.yul\":30373:30374   */\n      0x00\n        /* \"#utility.yul\":30362:30371   */\n      dup4\n        /* \"#utility.yul\":30358:30375   */\n      add\n        /* \"#utility.yul\":30351:30398   */\n      mstore\n        /* \"#utility.yul\":30415:30546   */\n      tag_612\n        /* \"#utility.yul\":30541:30545   */\n      dup2\n        /* \"#utility.yul\":30415:30546   */\n      tag_301\n      jump\t// in\n    tag_612:\n        /* \"#utility.yul\":30407:30546   */\n      swap1\n      pop\n        /* \"#utility.yul\":30134:30553   */\n      swap2\n      swap1\n      pop\n      jump\t// out\n\n    auxdata: 0xa2646970667358221220440a29132c8611ec83f1ce40408a68468b0cf8ca8f0d6e5f0c2383941253d9c364736f6c63430008180033\n}\n",
				"bytecode": {
					"linkReferences": {},
					"object": "60806040523480156200001157600080fd5b506040516200236238038062002362833981810160405281019062000037919062000253565b60016000808773ffffffffffffffffffffffffffffffffffffffff1673ffffffffffffffffffffffffffffffffffffffff16815260200190815260200160002060006101000a81548160ff021916908315150217905550600073ffffffffffffffffffffffffffffffffffffffff168473ffffffffffffffffffffffffffffffffffffffff16146200011b5760016000808673ffffffffffffffffffffffffffffffffffffffff1673ffffffffffffffffffffffffffffffffffffffff16815260200190815260200160002060006101000a81548160ff0219169083151502179055505b82600160006101000a81548173ffffffffffffffffffffffffffffffffffffffff021916908373ffffffffffffffffffffffffffffffffffffffff16021790555081600260006101000a81548173ffffffffffffffffffffffffffffffffffffffff021916908373ffffffffffffffffffffffffffffffffffffffff16021790555080600360006101000a81548173ffffffffffffffffffffffffffffffffffffffff021916908373ffffffffffffffffffffffffffffffffffffffff1602179055505050505050620002db565b600080fd5b600073ffffffffffffffffffffffffffffffffffffffff82169050919050565b60006200021b82620001ee565b9050919050565b6200022d816200020e565b81146200023957600080fd5b50565b6000815190506200024d8162000222565b92915050565b600080600080600060a08688031215620002725762000271620001e9565b5b600062000282888289016200023c565b955050602062000295888289016200023c565b9450506040620002a8888289016200023c565b9350506060620002bb888289016200023c565b9250506080620002ce888289016200023c565b9150509295509295909350565b61207780620002eb6000396000f3fe60806040526004361061007f5760003560e01c80636ba3fef21161004e5780636ba3fef2146101cb5780636d070f4b146101f4578063921b004b14610224578063df6d92121461024057610117565b8063022914a71461011c578063392f5f641461015957806353a0f7b614610184578063569560e8146101a057610117565b3661011757600034116100c7576040517f08c379a00000000000000000000000000000000000000000000000000000000081526004016100be90611175565b60405180910390fd5b3373ffffffffffffffffffffffffffffffffffffffff167f1e57e3bb474320be3d2c77138f75b7c3941292d647f5f9634e33a8e94e0e069b3460405161010d91906111ae565b60405180910390a2005b600080fd5b34801561012857600080fd5b50610143600480360381019061013e919061123b565b61026b565b6040516101509190611283565b60405180910390f35b34801561016557600080fd5b5061016e61028b565b60405161017b91906112fd565b60405180910390f35b61019e6004803603810190610199919061137d565b6102b1565b005b3480156101ac57600080fd5b506101b56103d7565b6040516101c29190611412565b60405180910390f35b3480156101d757600080fd5b506101f260048036038101906101ed9190611459565b6103fd565b005b61020e600480360381019061020991906114c0565b61055b565b60405161021b9190611283565b60405180910390f35b61023e60048036038101906102399190611520565b6107e3565b005b34801561024c57600080fd5b50610255610b3c565b604051610262919061156f565b60405180910390f35b60006020528060005260406000206000915054906101000a900460ff1681565b600260009054906101000a900473ffffffffffffffffffffffffffffffffffffffff1681565b816000808273ffffffffffffffffffffffffffffffffffffffff1673ffffffffffffffffffffffffffffffffffffffff16815260200190815260200160002060009054906101000a900460ff1661033d576040517f08c379a0000000000000000000000000000000000000000000000000000000008152600401610334906115d6565b60405180910390fd5b60008061034a8787610b62565b915091508373ffffffffffffffffffffffffffffffffffffffff1663ebe113fb3484846040518463ffffffff1660e01b815260040161038a92919061186e565b60206040518083038185885af11580156103a8573d6000803e3d6000fd5b50505050506040513d601f19601f820116820180604052508101906103cd91906118ca565b5050505050505050565b600160009054906101000a900473ffffffffffffffffffffffffffffffffffffffff1681565b816000808273ffffffffffffffffffffffffffffffffffffffff1673ffffffffffffffffffffffffffffffffffffffff16815260200190815260200160002060009054906101000a900460ff16610489576040517f08c379a0000000000000000000000000000000000000000000000000000000008152600401610480906115d6565b60405180910390fd5b73132adfe17b67f91573f3853db9682d9e937e3c9173ffffffffffffffffffffffffffffffffffffffff163373ffffffffffffffffffffffffffffffffffffffff16146104d557600080fd5b8473ffffffffffffffffffffffffffffffffffffffff1663a9059cbb83866040518363ffffffff1660e01b81526004016105109291906118f7565b6020604051808303816000875af115801561052f573d6000803e3d6000fd5b505050506040513d601f19601f8201168201806040525081019061055391906118ca565b505050505050565b6000816000808273ffffffffffffffffffffffffffffffffffffffff1673ffffffffffffffffffffffffffffffffffffffff16815260200190815260200160002060009054906101000a900460ff166105e9576040517f08c379a00000000000000000000000000000000000000000000000000000000081526004016105e0906115d6565b60405180910390fd5b6000806105f68787610b62565b915091506000806000600160009054906101000a900473ffffffffffffffffffffffffffffffffffffffff1673ffffffffffffffffffffffffffffffffffffffff1663a9d2b1d5866040518263ffffffff1660e01b815260040161065a9190611920565b606060405180830381865afa158015610677573d6000803e3d6000fd5b505050506040513d601f19601f8201168201806040525081019061069b9190611967565b92509250925082156106f4576106f3848360ff16815181106106c0576106bf6119ba565b5b602002602001015160400151858360ff16815181106106e2576106e16119ba565b5b602002602001015160600151611022565b5b6000600160009054906101000a900473ffffffffffffffffffffffffffffffffffffffff1673ffffffffffffffffffffffffffffffffffffffff1663ebe113fb3488886040518463ffffffff1660e01b815260040161075492919061186e565b60206040518083038185885af1158015610772573d6000803e3d6000fd5b50505050506040513d601f19601f8201168201806040525081019061079791906118ca565b90507f6caf114a658f9dcf6e91511c03b0857224920530d592656698df2c977a71acfa86866040516107ca92919061186e565b60405180910390a1809750505050505050509392505050565b600073ffffffffffffffffffffffffffffffffffffffff168273ffffffffffffffffffffffffffffffffffffffff1614801561081f5750600034145b806108635750600073ffffffffffffffffffffffffffffffffffffffff168273ffffffffffffffffffffffffffffffffffffffff16141580156108625750600034115b5b806108a75750600073ffffffffffffffffffffffffffffffffffffffff168273ffffffffffffffffffffffffffffffffffffffff16141580156108a65750600081145b5b156108e7576040517fa8c278dd0000000000000000000000000000000000000000000000000000000081526004016108de90611a35565b60405180910390fd5b60008073ffffffffffffffffffffffffffffffffffffffff168373ffffffffffffffffffffffffffffffffffffffff1603610a2157349050600360009054906101000a900473ffffffffffffffffffffffffffffffffffffffff1673ffffffffffffffffffffffffffffffffffffffff1663d0e30db0346040518263ffffffff1660e01b81526004016000604051808303818588803b15801561098957600080fd5b505af115801561099d573d6000803e3d6000fd5b5050505050600160046000600360009054906101000a900473ffffffffffffffffffffffffffffffffffffffff1673ffffffffffffffffffffffffffffffffffffffff1673ffffffffffffffffffffffffffffffffffffffff16815260200190815260200160002060006101000a81548160ff021916908315150217905550610afe565b8190508273ffffffffffffffffffffffffffffffffffffffff166323b872dd3330856040518463ffffffff1660e01b8152600401610a6193929190611a55565b6020604051808303816000875af1158015610a80573d6000803e3d6000fd5b505050506040513d601f19601f82011682018060405250810190610aa491906118ca565b506001600460008573ffffffffffffffffffffffffffffffffffffffff1673ffffffffffffffffffffffffffffffffffffffff16815260200190815260200160002060006101000a81548160ff0219169083151502179055505b7f0939f6f4877faf071412e527bc4c6d0bd65ad077e52b57334f7765265647a7f18382604051610b2f9291906118f7565b60405180910390a1505050565b600360009054906101000a900473ffffffffffffffffffffffffffffffffffffffff1681565b60006060600084846000818110610b7c57610b7b6119ba565b5b9050602002810190610b8e9190611a9b565b90610b999190611b16565b9050600085856001818110610bb157610bb06119ba565b5b9050602002810190610bc39190611a9b565b810190610bd09190611cb3565b9050600a81511115610c1a5780516040517f8bc593cd000000000000000000000000000000000000000000000000000000008152600401610c1191906111ae565b60405180910390fd5b6000815167ffffffffffffffff811115610c3757610c36611b75565b5b604051908082528060200260200182016040528015610c7057816020015b610c5d6110c7565b815260200190600190039081610c555790505b5090506000805b835181101561101057610c886110c7565b6000858381518110610c9d57610c9c6119ba565b5b602002602001015103610d48576000816000019060ff16908160ff168152505089896002818110610cd157610cd06119ba565b5b9050602002810190610ce39190611a9b565b8490602086610cf29190611d2b565b92610cff93929190611d69565b810190610d0c9190611de2565b816040019073ffffffffffffffffffffffffffffffffffffffff16908173ffffffffffffffffffffffffffffffffffffffff1681525050610fd4565b6001858381518110610d5d57610d5c6119ba565b5b602002602001015103610dda576001816000019060ff16908160ff168152505089896002818110610d9157610d906119ba565b5b9050602002810190610da39190611a9b565b8490602086610db29190611d2b565b92610dbf93929190611d69565b810190610dcc9190611e0f565b816060018181525050610fd3565b6002858381518110610def57610dee6119ba565b5b602002602001015103610e6c576002816000019060ff16908160ff168152505089896002818110610e2357610e226119ba565b5b9050602002810190610e359190611a9b565b8490602086610e449190611d2b565b92610e5193929190611d69565b810190610e5e9190611e68565b816080018181525050610fd2565b6003858381518110610e8157610e806119ba565b5b602002602001015103610f04576003816000019060ff16908160ff168152505089896002818110610eb557610eb46119ba565b5b9050602002810190610ec79190611a9b565b8490602086610ed69190611d2b565b92610ee393929190611d69565b810190610ef09190611eaa565b8160a0019015159081151581525050610fd1565b6004858381518110610f1957610f186119ba565b5b602002602001015103610f95576004816000019060ff16908160ff168152505089896002818110610f4d57610f4c6119ba565b5b9050602002810190610f5f9190611a9b565b8490602086610f6e9190611d2b565b92610f7b93929190611d69565b810190610f889190611f8c565b8160200181905250610fd0565b6040517fa8c278dd000000000000000000000000000000000000000000000000000000008152600401610fc790612021565b60405180910390fd5b5b5b5b5b80848381518110610fe857610fe76119ba565b5b60200260200101819052506020836110009190611d2b565b9250508080600101915050610c77565b50838295509550505050509250929050565b8173ffffffffffffffffffffffffffffffffffffffff1663095ea7b3600160009054906101000a900473ffffffffffffffffffffffffffffffffffffffff16836040518363ffffffff1660e01b815260040161107f9291906118f7565b6020604051808303816000875af115801561109e573d6000803e3d6000fd5b505050506040513d601f19601f820116820180604052508101906110c291906118ca565b505050565b6040518060c00160405280600060ff16815260200160608152602001600073ffffffffffffffffffffffffffffffffffffffff16815260200160008152602001600081526020016000151581525090565b600082825260208201905092915050565b7f53656e64206d6f72652045746865720000000000000000000000000000000000600082015250565b600061115f600f83611118565b915061116a82611129565b602082019050919050565b6000602082019050818103600083015261118e81611152565b9050919050565b6000819050919050565b6111a881611195565b82525050565b60006020820190506111c3600083018461119f565b92915050565b6000604051905090565b600080fd5b600080fd5b600073ffffffffffffffffffffffffffffffffffffffff82169050919050565b6000611208826111dd565b9050919050565b611218816111fd565b811461122357600080fd5b50565b6000813590506112358161120f565b92915050565b600060208284031215611251576112506111d3565b5b600061125f84828501611226565b91505092915050565b60008115159050919050565b61127d81611268565b82525050565b60006020820190506112986000830184611274565b92915050565b6000819050919050565b60006112c36112be6112b9846111dd565b61129e565b6111dd565b9050919050565b60006112d5826112a8565b9050919050565b60006112e7826112ca565b9050919050565b6112f7816112dc565b82525050565b600060208201905061131260008301846112ee565b92915050565b600080fd5b600080fd5b600080fd5b60008083601f84011261133d5761133c611318565b5b8235905067ffffffffffffffff81111561135a5761135961131d565b5b60208301915083602082028301111561137657611375611322565b5b9250929050565b60008060008060608587031215611397576113966111d3565b5b600085013567ffffffffffffffff8111156113b5576113b46111d8565b5b6113c187828801611327565b945094505060206113d487828801611226565b92505060406113e587828801611226565b91505092959194509250565b60006113fc826112ca565b9050919050565b61140c816113f1565b82525050565b60006020820190506114276000830184611403565b92915050565b61143681611195565b811461144157600080fd5b50565b6000813590506114538161142d565b92915050565b60008060008060808587031215611473576114726111d3565b5b600061148187828801611226565b945050602061149287828801611444565b93505060406114a387828801611226565b92505060606114b487828801611226565b91505092959194509250565b6000806000604084860312156114d9576114d86111d3565b5b600084013567ffffffffffffffff8111156114f7576114f66111d8565b5b61150386828701611327565b9350935050602061151686828701611226565b9150509250925092565b60008060408385031215611537576115366111d3565b5b600061154585828601611226565b925050602061155685828601611444565b9150509250929050565b611569816111fd565b82525050565b60006020820190506115846000830184611560565b92915050565b7f61636365737320636f6e74726f6c3a206f6e6c794f776e657200000000000000600082015250565b60006115c0601983611118565b91506115cb8261158a565b602082019050919050565b600060208201905081810360008301526115ef816115b3565b9050919050565b60007fffffffff0000000000000000000000000000000000000000000000000000000082169050919050565b61162b816115f6565b82525050565b600081519050919050565b600082825260208201905092915050565b6000819050602082019050919050565b600060ff82169050919050565b6116738161165d565b82525050565b600081519050919050565b600082825260208201905092915050565b60005b838110156116b3578082015181840152602081019050611698565b60008484015250505050565b6000601f19601f8301169050919050565b60006116db82611679565b6116e58185611684565b93506116f5818560208601611695565b6116fe816116bf565b840191505092915050565b611712816111fd565b82525050565b61172181611195565b82525050565b6000819050919050565b61173a81611727565b82525050565b61174981611268565b82525050565b600060c083016000830151611767600086018261166a565b506020830151848203602086015261177f82826116d0565b91505060408301516117946040860182611709565b5060608301516117a76060860182611718565b5060808301516117ba6080860182611731565b5060a08301516117cd60a0860182611740565b508091505092915050565b60006117e4838361174f565b905092915050565b6000602082019050919050565b600061180482611631565b61180e818561163c565b9350836020820285016118208561164d565b8060005b8581101561185c578484038952815161183d85826117d8565b9450611848836117ec565b925060208a01995050600181019050611824565b50829750879550505050505092915050565b60006040820190506118836000830185611622565b818103602083015261189581846117f9565b90509392505050565b6118a781611268565b81146118b257600080fd5b50565b6000815190506118c48161189e565b92915050565b6000602082840312156118e0576118df6111d3565b5b60006118ee848285016118b5565b91505092915050565b600060408201905061190c6000830185611560565b611919602083018461119f565b9392505050565b60006020820190506119356000830184611622565b92915050565b6119448161165d565b811461194f57600080fd5b50565b6000815190506119618161193b565b92915050565b6000806000606084860312156119805761197f6111d3565b5b600061198e868287016118b5565b935050602061199f86828701611952565b92505060406119b086828701611952565b9150509250925092565b7f4e487b7100000000000000000000000000000000000000000000000000000000600052603260045260246000fd5b7f6465706f73697446756e64730000000000000000000000000000000000000000600082015250565b6000611a1f600c83611118565b9150611a2a826119e9565b602082019050919050565b60006020820190508181036000830152611a4e81611a12565b9050919050565b6000606082019050611a6a6000830186611560565b611a776020830185611560565b611a84604083018461119f565b949350505050565b600080fd5b600080fd5b600080fd5b60008083356001602003843603038112611ab857611ab7611a8c565b5b80840192508235915067ffffffffffffffff821115611ada57611ad9611a91565b5b602083019250600182023603831315611af657611af5611a96565b5b509250929050565b600082905092915050565b600082821b905092915050565b6000611b228383611afe565b82611b2d81356115f6565b92506004821015611b6d57611b687fffffffff0000000000000000000000000000000000000000000000000000000083600403600802611b09565b831692505b505092915050565b7f4e487b7100000000000000000000000000000000000000000000000000000000600052604160045260246000fd5b611bad826116bf565b810181811067ffffffffffffffff82111715611bcc57611bcb611b75565b5b80604052505050565b6000611bdf6111c9565b9050611beb8282611ba4565b919050565b600067ffffffffffffffff821115611c0b57611c0a611b75565b5b602082029050602081019050919050565b6000611c2f611c2a84611bf0565b611bd5565b90508083825260208201905060208402830185811115611c5257611c51611322565b5b835b81811015611c7b5780611c678882611444565b845260208401935050602081019050611c54565b5050509392505050565b600082601f830112611c9a57611c99611318565b5b8135611caa848260208601611c1c565b91505092915050565b600060208284031215611cc957611cc86111d3565b5b600082013567ffffffffffffffff811115611ce757611ce66111d8565b5b611cf384828501611c85565b91505092915050565b7f4e487b7100000000000000000000000000000000000000000000000000000000600052601160045260246000fd5b6000611d3682611195565b9150611d4183611195565b9250828201905080821115611d5957611d58611cfc565b5b92915050565b600080fd5b600080fd5b60008085851115611d7d57611d7c611d5f565b5b83861115611d8e57611d8d611d64565b5b6001850283019150848603905094509492505050565b6000611daf826111dd565b9050919050565b611dbf81611da4565b8114611dca57600080fd5b50565b600081359050611ddc81611db6565b92915050565b600060208284031215611df857611df76111d3565b5b6000611e0684828501611dcd565b91505092915050565b600060208284031215611e2557611e246111d3565b5b6000611e3384828501611444565b91505092915050565b611e4581611727565b8114611e5057600080fd5b50565b600081359050611e6281611e3c565b92915050565b600060208284031215611e7e57611e7d6111d3565b5b6000611e8c84828501611e53565b91505092915050565b600081359050611ea48161189e565b92915050565b600060208284031215611ec057611ebf6111d3565b5b6000611ece84828501611e95565b91505092915050565b600080fd5b600067ffffffffffffffff821115611ef757611ef6611b75565b5b611f00826116bf565b9050602081019050919050565b82818337600083830152505050565b6000611f2f611f2a84611edc565b611bd5565b905082815260208101848484011115611f4b57611f4a611ed7565b5b611f56848285611f0d565b509392505050565b600082601f830112611f7357611f72611318565b5b8135611f83848260208601611f1c565b91505092915050565b600060208284031215611fa257611fa16111d3565b5b600082013567ffffffffffffffff811115611fc057611fbf6111d8565b5b611fcc84828501611f5e565b91505092915050565b7f646174614465636f646572000000000000000000000000000000000000000000600082015250565b600061200b600b83611118565b915061201682611fd5565b602082019050919050565b6000602082019050818103600083015261203a81611ffe565b905091905056fea2646970667358221220440a29132c8611ec83f1ce40408a68468b0cf8ca8f0d6e5f0c2383941253d9c364736f6c63430008180033",
					"opcodes": "PUSH1 0x80 PUSH1 0x40 MSTORE CALLVALUE DUP1 ISZERO PUSH3 0x11 JUMPI PUSH1 0x0 DUP1 REVERT JUMPDEST POP PUSH1 0x40 MLOAD PUSH3 0x2362 CODESIZE SUB DUP1 PUSH3 0x2362 DUP4 CODECOPY DUP2 DUP2 ADD PUSH1 0x40 MSTORE DUP2 ADD SWAP1 PUSH3 0x37 SWAP2 SWAP1 PUSH3 0x253 JUMP JUMPDEST PUSH1 0x1 PUSH1 0x0 DUP1 DUP8 PUSH20 0xFFFFFFFFFFFFFFFFFFFFFFFFFFFFFFFFFFFFFFFF AND PUSH20 0xFFFFFFFFFFFFFFFFFFFFFFFFFFFFFFFFFFFFFFFF AND DUP2 MSTORE PUSH1 0x20 ADD SWAP1 DUP2 MSTORE PUSH1 0x20 ADD PUSH1 0x0 KECCAK256 PUSH1 0x0 PUSH2 0x100 EXP DUP2 SLOAD DUP2 PUSH1 0xFF MUL NOT AND SWAP1 DUP4 ISZERO ISZERO MUL OR SWAP1 SSTORE POP PUSH1 0x0 PUSH20 0xFFFFFFFFFFFFFFFFFFFFFFFFFFFFFFFFFFFFFFFF AND DUP5 PUSH20 0xFFFFFFFFFFFFFFFFFFFFFFFFFFFFFFFFFFFFFFFF AND EQ PUSH3 0x11B JUMPI PUSH1 0x1 PUSH1 0x0 DUP1 DUP7 PUSH20 0xFFFFFFFFFFFFFFFFFFFFFFFFFFFFFFFFFFFFFFFF AND PUSH20 0xFFFFFFFFFFFFFFFFFFFFFFFFFFFFFFFFFFFFFFFF AND DUP2 MSTORE PUSH1 0x20 ADD SWAP1 DUP2 MSTORE PUSH1 0x20 ADD PUSH1 0x0 KECCAK256 PUSH1 0x0 PUSH2 0x100 EXP DUP2 SLOAD DUP2 PUSH1 0xFF MUL NOT AND SWAP1 DUP4 ISZERO ISZERO MUL OR SWAP1 SSTORE POP JUMPDEST DUP3 PUSH1 0x1 PUSH1 0x0 PUSH2 0x100 EXP DUP2 SLOAD DUP2 PUSH20 0xFFFFFFFFFFFFFFFFFFFFFFFFFFFFFFFFFFFFFFFF MUL NOT AND SWAP1 DUP4 PUSH20 0xFFFFFFFFFFFFFFFFFFFFFFFFFFFFFFFFFFFFFFFF AND MUL OR SWAP1 SSTORE POP DUP2 PUSH1 0x2 PUSH1 0x0 PUSH2 0x100 EXP DUP2 SLOAD DUP2 PUSH20 0xFFFFFFFFFFFFFFFFFFFFFFFFFFFFFFFFFFFFFFFF MUL NOT AND SWAP1 DUP4 PUSH20 0xFFFFFFFFFFFFFFFFFFFFFFFFFFFFFFFFFFFFFFFF AND MUL OR SWAP1 SSTORE POP DUP1 PUSH1 0x3 PUSH1 0x0 PUSH2 0x100 EXP DUP2 SLOAD DUP2 PUSH20 0xFFFFFFFFFFFFFFFFFFFFFFFFFFFFFFFFFFFFFFFF MUL NOT AND SWAP1 DUP4 PUSH20 0xFFFFFFFFFFFFFFFFFFFFFFFFFFFFFFFFFFFFFFFF AND MUL OR SWAP1 SSTORE POP POP POP POP POP POP PUSH3 0x2DB JUMP JUMPDEST PUSH1 0x0 DUP1 REVERT JUMPDEST PUSH1 0x0 PUSH20 0xFFFFFFFFFFFFFFFFFFFFFFFFFFFFFFFFFFFFFFFF DUP3 AND SWAP1 POP SWAP2 SWAP1 POP JUMP JUMPDEST PUSH1 0x0 PUSH3 0x21B DUP3 PUSH3 0x1EE JUMP JUMPDEST SWAP1 POP SWAP2 SWAP1 POP JUMP JUMPDEST PUSH3 0x22D DUP2 PUSH3 0x20E JUMP JUMPDEST DUP2 EQ PUSH3 0x239 JUMPI PUSH1 0x0 DUP1 REVERT JUMPDEST POP JUMP JUMPDEST PUSH1 0x0 DUP2 MLOAD SWAP1 POP PUSH3 0x24D DUP2 PUSH3 0x222 JUMP JUMPDEST SWAP3 SWAP2 POP POP JUMP JUMPDEST PUSH1 0x0 DUP1 PUSH1 0x0 DUP1 PUSH1 0x0 PUSH1 0xA0 DUP7 DUP9 SUB SLT ISZERO PUSH3 0x272 JUMPI PUSH3 0x271 PUSH3 0x1E9 JUMP JUMPDEST JUMPDEST PUSH1 0x0 PUSH3 0x282 DUP9 DUP3 DUP10 ADD PUSH3 0x23C JUMP JUMPDEST SWAP6 POP POP PUSH1 0x20 PUSH3 0x295 DUP9 DUP3 DUP10 ADD PUSH3 0x23C JUMP JUMPDEST SWAP5 POP POP PUSH1 0x40 PUSH3 0x2A8 DUP9 DUP3 DUP10 ADD PUSH3 0x23C JUMP JUMPDEST SWAP4 POP POP PUSH1 0x60 PUSH3 0x2BB DUP9 DUP3 DUP10 ADD PUSH3 0x23C JUMP JUMPDEST SWAP3 POP POP PUSH1 0x80 PUSH3 0x2CE DUP9 DUP3 DUP10 ADD PUSH3 0x23C JUMP JUMPDEST SWAP2 POP POP SWAP3 SWAP6 POP SWAP3 SWAP6 SWAP1 SWAP4 POP JUMP JUMPDEST PUSH2 0x2077 DUP1 PUSH3 0x2EB PUSH1 0x0 CODECOPY PUSH1 0x0 RETURN INVALID PUSH1 0x80 PUSH1 0x40 MSTORE PUSH1 0x4 CALLDATASIZE LT PUSH2 0x7F JUMPI PUSH1 0x0 CALLDATALOAD PUSH1 0xE0 SHR DUP1 PUSH4 0x6BA3FEF2 GT PUSH2 0x4E JUMPI DUP1 PUSH4 0x6BA3FEF2 EQ PUSH2 0x1CB JUMPI DUP1 PUSH4 0x6D070F4B EQ PUSH2 0x1F4 JUMPI DUP1 PUSH4 0x921B004B EQ PUSH2 0x224 JUMPI DUP1 PUSH4 0xDF6D9212 EQ PUSH2 0x240 JUMPI PUSH2 0x117 JUMP JUMPDEST DUP1 PUSH4 0x22914A7 EQ PUSH2 0x11C JUMPI DUP1 PUSH4 0x392F5F64 EQ PUSH2 0x159 JUMPI DUP1 PUSH4 0x53A0F7B6 EQ PUSH2 0x184 JUMPI DUP1 PUSH4 0x569560E8 EQ PUSH2 0x1A0 JUMPI PUSH2 0x117 JUMP JUMPDEST CALLDATASIZE PUSH2 0x117 JUMPI PUSH1 0x0 CALLVALUE GT PUSH2 0xC7 JUMPI PUSH1 0x40 MLOAD PUSH32 0x8C379A000000000000000000000000000000000000000000000000000000000 DUP2 MSTORE PUSH1 0x4 ADD PUSH2 0xBE SWAP1 PUSH2 0x1175 JUMP JUMPDEST PUSH1 0x40 MLOAD DUP1 SWAP2 SUB SWAP1 REVERT JUMPDEST CALLER PUSH20 0xFFFFFFFFFFFFFFFFFFFFFFFFFFFFFFFFFFFFFFFF AND PUSH32 0x1E57E3BB474320BE3D2C77138F75B7C3941292D647F5F9634E33A8E94E0E069B CALLVALUE PUSH1 0x40 MLOAD PUSH2 0x10D SWAP2 SWAP1 PUSH2 0x11AE JUMP JUMPDEST PUSH1 0x40 MLOAD DUP1 SWAP2 SUB SWAP1 LOG2 STOP JUMPDEST PUSH1 0x0 DUP1 REVERT JUMPDEST CALLVALUE DUP1 ISZERO PUSH2 0x128 JUMPI PUSH1 0x0 DUP1 REVERT JUMPDEST POP PUSH2 0x143 PUSH1 0x4 DUP1 CALLDATASIZE SUB DUP2 ADD SWAP1 PUSH2 0x13E SWAP2 SWAP1 PUSH2 0x123B JUMP JUMPDEST PUSH2 0x26B JUMP JUMPDEST PUSH1 0x40 MLOAD PUSH2 0x150 SWAP2 SWAP1 PUSH2 0x1283 JUMP JUMPDEST PUSH1 0x40 MLOAD DUP1 SWAP2 SUB SWAP1 RETURN JUMPDEST CALLVALUE DUP1 ISZERO PUSH2 0x165 JUMPI PUSH1 0x0 DUP1 REVERT JUMPDEST POP PUSH2 0x16E PUSH2 0x28B JUMP JUMPDEST PUSH1 0x40 MLOAD PUSH2 0x17B SWAP2 SWAP1 PUSH2 0x12FD JUMP JUMPDEST PUSH1 0x40 MLOAD DUP1 SWAP2 SUB SWAP1 RETURN JUMPDEST PUSH2 0x19E PUSH1 0x4 DUP1 CALLDATASIZE SUB DUP2 ADD SWAP1 PUSH2 0x199 SWAP2 SWAP1 PUSH2 0x137D JUMP JUMPDEST PUSH2 0x2B1 JUMP JUMPDEST STOP JUMPDEST CALLVALUE DUP1 ISZERO PUSH2 0x1AC JUMPI PUSH1 0x0 DUP1 REVERT JUMPDEST POP PUSH2 0x1B5 PUSH2 0x3D7 JUMP JUMPDEST PUSH1 0x40 MLOAD PUSH2 0x1C2 SWAP2 SWAP1 PUSH2 0x1412 JUMP JUMPDEST PUSH1 0x40 MLOAD DUP1 SWAP2 SUB SWAP1 RETURN JUMPDEST CALLVALUE DUP1 ISZERO PUSH2 0x1D7 JUMPI PUSH1 0x0 DUP1 REVERT JUMPDEST POP PUSH2 0x1F2 PUSH1 0x4 DUP1 CALLDATASIZE SUB DUP2 ADD SWAP1 PUSH2 0x1ED SWAP2 SWAP1 PUSH2 0x1459 JUMP JUMPDEST PUSH2 0x3FD JUMP JUMPDEST STOP JUMPDEST PUSH2 0x20E PUSH1 0x4 DUP1 CALLDATASIZE SUB DUP2 ADD SWAP1 PUSH2 0x209 SWAP2 SWAP1 PUSH2 0x14C0 JUMP JUMPDEST PUSH2 0x55B JUMP JUMPDEST PUSH1 0x40 MLOAD PUSH2 0x21B SWAP2 SWAP1 PUSH2 0x1283 JUMP JUMPDEST PUSH1 0x40 MLOAD DUP1 SWAP2 SUB SWAP1 RETURN JUMPDEST PUSH2 0x23E PUSH1 0x4 DUP1 CALLDATASIZE SUB DUP2 ADD SWAP1 PUSH2 0x239 SWAP2 SWAP1 PUSH2 0x1520 JUMP JUMPDEST PUSH2 0x7E3 JUMP JUMPDEST STOP JUMPDEST CALLVALUE DUP1 ISZERO PUSH2 0x24C JUMPI PUSH1 0x0 DUP1 REVERT JUMPDEST POP PUSH2 0x255 PUSH2 0xB3C JUMP JUMPDEST PUSH1 0x40 MLOAD PUSH2 0x262 SWAP2 SWAP1 PUSH2 0x156F JUMP JUMPDEST PUSH1 0x40 MLOAD DUP1 SWAP2 SUB SWAP1 RETURN JUMPDEST PUSH1 0x0 PUSH1 0x20 MSTORE DUP1 PUSH1 0x0 MSTORE PUSH1 0x40 PUSH1 0x0 KECCAK256 PUSH1 0x0 SWAP2 POP SLOAD SWAP1 PUSH2 0x100 EXP SWAP1 DIV PUSH1 0xFF AND DUP2 JUMP JUMPDEST PUSH1 0x2 PUSH1 0x0 SWAP1 SLOAD SWAP1 PUSH2 0x100 EXP SWAP1 DIV PUSH20 0xFFFFFFFFFFFFFFFFFFFFFFFFFFFFFFFFFFFFFFFF AND DUP2 JUMP JUMPDEST DUP2 PUSH1 0x0 DUP1 DUP3 PUSH20 0xFFFFFFFFFFFFFFFFFFFFFFFFFFFFFFFFFFFFFFFF AND PUSH20 0xFFFFFFFFFFFFFFFFFFFFFFFFFFFFFFFFFFFFFFFF AND DUP2 MSTORE PUSH1 0x20 ADD SWAP1 DUP2 MSTORE PUSH1 0x20 ADD PUSH1 0x0 KECCAK256 PUSH1 0x0 SWAP1 SLOAD SWAP1 PUSH2 0x100 EXP SWAP1 DIV PUSH1 0xFF AND PUSH2 0x33D JUMPI PUSH1 0x40 MLOAD PUSH32 0x8C379A000000000000000000000000000000000000000000000000000000000 DUP2 MSTORE PUSH1 0x4 ADD PUSH2 0x334 SWAP1 PUSH2 0x15D6 JUMP JUMPDEST PUSH1 0x40 MLOAD DUP1 SWAP2 SUB SWAP1 REVERT JUMPDEST PUSH1 0x0 DUP1 PUSH2 0x34A DUP8 DUP8 PUSH2 0xB62 JUMP JUMPDEST SWAP2 POP SWAP2 POP DUP4 PUSH20 0xFFFFFFFFFFFFFFFFFFFFFFFFFFFFFFFFFFFFFFFF AND PUSH4 0xEBE113FB CALLVALUE DUP5 DUP5 PUSH1 0x40 MLOAD DUP5 PUSH4 0xFFFFFFFF AND PUSH1 0xE0 SHL DUP2 MSTORE PUSH1 0x4 ADD PUSH2 0x38A SWAP3 SWAP2 SWAP1 PUSH2 0x186E JUMP JUMPDEST PUSH1 0x20 PUSH1 0x40 MLOAD DUP1 DUP4 SUB DUP2 DUP6 DUP9 GAS CALL ISZERO DUP1 ISZERO PUSH2 0x3A8 JUMPI RETURNDATASIZE PUSH1 0x0 DUP1 RETURNDATACOPY RETURNDATASIZE PUSH1 0x0 REVERT JUMPDEST POP POP POP POP POP PUSH1 0x40 MLOAD RETURNDATASIZE PUSH1 0x1F NOT PUSH1 0x1F DUP3 ADD AND DUP3 ADD DUP1 PUSH1 0x40 MSTORE POP DUP2 ADD SWAP1 PUSH2 0x3CD SWAP2 SWAP1 PUSH2 0x18CA JUMP JUMPDEST POP POP POP POP POP POP POP POP JUMP JUMPDEST PUSH1 0x1 PUSH1 0x0 SWAP1 SLOAD SWAP1 PUSH2 0x100 EXP SWAP1 DIV PUSH20 0xFFFFFFFFFFFFFFFFFFFFFFFFFFFFFFFFFFFFFFFF AND DUP2 JUMP JUMPDEST DUP2 PUSH1 0x0 DUP1 DUP3 PUSH20 0xFFFFFFFFFFFFFFFFFFFFFFFFFFFFFFFFFFFFFFFF AND PUSH20 0xFFFFFFFFFFFFFFFFFFFFFFFFFFFFFFFFFFFFFFFF AND DUP2 MSTORE PUSH1 0x20 ADD SWAP1 DUP2 MSTORE PUSH1 0x20 ADD PUSH1 0x0 KECCAK256 PUSH1 0x0 SWAP1 SLOAD SWAP1 PUSH2 0x100 EXP SWAP1 DIV PUSH1 0xFF AND PUSH2 0x489 JUMPI PUSH1 0x40 MLOAD PUSH32 0x8C379A000000000000000000000000000000000000000000000000000000000 DUP2 MSTORE PUSH1 0x4 ADD PUSH2 0x480 SWAP1 PUSH2 0x15D6 JUMP JUMPDEST PUSH1 0x40 MLOAD DUP1 SWAP2 SUB SWAP1 REVERT JUMPDEST PUSH20 0x132ADFE17B67F91573F3853DB9682D9E937E3C91 PUSH20 0xFFFFFFFFFFFFFFFFFFFFFFFFFFFFFFFFFFFFFFFF AND CALLER PUSH20 0xFFFFFFFFFFFFFFFFFFFFFFFFFFFFFFFFFFFFFFFF AND EQ PUSH2 0x4D5 JUMPI PUSH1 0x0 DUP1 REVERT JUMPDEST DUP5 PUSH20 0xFFFFFFFFFFFFFFFFFFFFFFFFFFFFFFFFFFFFFFFF AND PUSH4 0xA9059CBB DUP4 DUP7 PUSH1 0x40 MLOAD DUP4 PUSH4 0xFFFFFFFF AND PUSH1 0xE0 SHL DUP2 MSTORE PUSH1 0x4 ADD PUSH2 0x510 SWAP3 SWAP2 SWAP1 PUSH2 0x18F7 JUMP JUMPDEST PUSH1 0x20 PUSH1 0x40 MLOAD DUP1 DUP4 SUB DUP2 PUSH1 0x0 DUP8 GAS CALL ISZERO DUP1 ISZERO PUSH2 0x52F JUMPI RETURNDATASIZE PUSH1 0x0 DUP1 RETURNDATACOPY RETURNDATASIZE PUSH1 0x0 REVERT JUMPDEST POP POP POP POP PUSH1 0x40 MLOAD RETURNDATASIZE PUSH1 0x1F NOT PUSH1 0x1F DUP3 ADD AND DUP3 ADD DUP1 PUSH1 0x40 MSTORE POP DUP2 ADD SWAP1 PUSH2 0x553 SWAP2 SWAP1 PUSH2 0x18CA JUMP JUMPDEST POP POP POP POP POP POP JUMP JUMPDEST PUSH1 0x0 DUP2 PUSH1 0x0 DUP1 DUP3 PUSH20 0xFFFFFFFFFFFFFFFFFFFFFFFFFFFFFFFFFFFFFFFF AND PUSH20 0xFFFFFFFFFFFFFFFFFFFFFFFFFFFFFFFFFFFFFFFF AND DUP2 MSTORE PUSH1 0x20 ADD SWAP1 DUP2 MSTORE PUSH1 0x20 ADD PUSH1 0x0 KECCAK256 PUSH1 0x0 SWAP1 SLOAD SWAP1 PUSH2 0x100 EXP SWAP1 DIV PUSH1 0xFF AND PUSH2 0x5E9 JUMPI PUSH1 0x40 MLOAD PUSH32 0x8C379A000000000000000000000000000000000000000000000000000000000 DUP2 MSTORE PUSH1 0x4 ADD PUSH2 0x5E0 SWAP1 PUSH2 0x15D6 JUMP JUMPDEST PUSH1 0x40 MLOAD DUP1 SWAP2 SUB SWAP1 REVERT JUMPDEST PUSH1 0x0 DUP1 PUSH2 0x5F6 DUP8 DUP8 PUSH2 0xB62 JUMP JUMPDEST SWAP2 POP SWAP2 POP PUSH1 0x0 DUP1 PUSH1 0x0 PUSH1 0x1 PUSH1 0x0 SWAP1 SLOAD SWAP1 PUSH2 0x100 EXP SWAP1 DIV PUSH20 0xFFFFFFFFFFFFFFFFFFFFFFFFFFFFFFFFFFFFFFFF AND PUSH20 0xFFFFFFFFFFFFFFFFFFFFFFFFFFFFFFFFFFFFFFFF AND PUSH4 0xA9D2B1D5 DUP7 PUSH1 0x40 MLOAD DUP3 PUSH4 0xFFFFFFFF AND PUSH1 0xE0 SHL DUP2 MSTORE PUSH1 0x4 ADD PUSH2 0x65A SWAP2 SWAP1 PUSH2 0x1920 JUMP JUMPDEST PUSH1 0x60 PUSH1 0x40 MLOAD DUP1 DUP4 SUB DUP2 DUP7 GAS STATICCALL ISZERO DUP1 ISZERO PUSH2 0x677 JUMPI RETURNDATASIZE PUSH1 0x0 DUP1 RETURNDATACOPY RETURNDATASIZE PUSH1 0x0 REVERT JUMPDEST POP POP POP POP PUSH1 0x40 MLOAD RETURNDATASIZE PUSH1 0x1F NOT PUSH1 0x1F DUP3 ADD AND DUP3 ADD DUP1 PUSH1 0x40 MSTORE POP DUP2 ADD SWAP1 PUSH2 0x69B SWAP2 SWAP1 PUSH2 0x1967 JUMP JUMPDEST SWAP3 POP SWAP3 POP SWAP3 POP DUP3 ISZERO PUSH2 0x6F4 JUMPI PUSH2 0x6F3 DUP5 DUP4 PUSH1 0xFF AND DUP2 MLOAD DUP2 LT PUSH2 0x6C0 JUMPI PUSH2 0x6BF PUSH2 0x19BA JUMP JUMPDEST JUMPDEST PUSH1 0x20 MUL PUSH1 0x20 ADD ADD MLOAD PUSH1 0x40 ADD MLOAD DUP6 DUP4 PUSH1 0xFF AND DUP2 MLOAD DUP2 LT PUSH2 0x6E2 JUMPI PUSH2 0x6E1 PUSH2 0x19BA JUMP JUMPDEST JUMPDEST PUSH1 0x20 MUL PUSH1 0x20 ADD ADD MLOAD PUSH1 0x60 ADD MLOAD PUSH2 0x1022 JUMP JUMPDEST JUMPDEST PUSH1 0x0 PUSH1 0x1 PUSH1 0x0 SWAP1 SLOAD SWAP1 PUSH2 0x100 EXP SWAP1 DIV PUSH20 0xFFFFFFFFFFFFFFFFFFFFFFFFFFFFFFFFFFFFFFFF AND PUSH20 0xFFFFFFFFFFFFFFFFFFFFFFFFFFFFFFFFFFFFFFFF AND PUSH4 0xEBE113FB CALLVALUE DUP9 DUP9 PUSH1 0x40 MLOAD DUP5 PUSH4 0xFFFFFFFF AND PUSH1 0xE0 SHL DUP2 MSTORE PUSH1 0x4 ADD PUSH2 0x754 SWAP3 SWAP2 SWAP1 PUSH2 0x186E JUMP JUMPDEST PUSH1 0x20 PUSH1 0x40 MLOAD DUP1 DUP4 SUB DUP2 DUP6 DUP9 GAS CALL ISZERO DUP1 ISZERO PUSH2 0x772 JUMPI RETURNDATASIZE PUSH1 0x0 DUP1 RETURNDATACOPY RETURNDATASIZE PUSH1 0x0 REVERT JUMPDEST POP POP POP POP POP PUSH1 0x40 MLOAD RETURNDATASIZE PUSH1 0x1F NOT PUSH1 0x1F DUP3 ADD AND DUP3 ADD DUP1 PUSH1 0x40 MSTORE POP DUP2 ADD SWAP1 PUSH2 0x797 SWAP2 SWAP1 PUSH2 0x18CA JUMP JUMPDEST SWAP1 POP PUSH32 0x6CAF114A658F9DCF6E91511C03B0857224920530D592656698DF2C977A71ACFA DUP7 DUP7 PUSH1 0x40 MLOAD PUSH2 0x7CA SWAP3 SWAP2 SWAP1 PUSH2 0x186E JUMP JUMPDEST PUSH1 0x40 MLOAD DUP1 SWAP2 SUB SWAP1 LOG1 DUP1 SWAP8 POP POP POP POP POP POP POP POP SWAP4 SWAP3 POP POP POP JUMP JUMPDEST PUSH1 0x0 PUSH20 0xFFFFFFFFFFFFFFFFFFFFFFFFFFFFFFFFFFFFFFFF AND DUP3 PUSH20 0xFFFFFFFFFFFFFFFFFFFFFFFFFFFFFFFFFFFFFFFF AND EQ DUP1 ISZERO PUSH2 0x81F JUMPI POP PUSH1 0x0 CALLVALUE EQ JUMPDEST DUP1 PUSH2 0x863 JUMPI POP PUSH1 0x0 PUSH20 0xFFFFFFFFFFFFFFFFFFFFFFFFFFFFFFFFFFFFFFFF AND DUP3 PUSH20 0xFFFFFFFFFFFFFFFFFFFFFFFFFFFFFFFFFFFFFFFF AND EQ ISZERO DUP1 ISZERO PUSH2 0x862 JUMPI POP PUSH1 0x0 CALLVALUE GT JUMPDEST JUMPDEST DUP1 PUSH2 0x8A7 JUMPI POP PUSH1 0x0 PUSH20 0xFFFFFFFFFFFFFFFFFFFFFFFFFFFFFFFFFFFFFFFF AND DUP3 PUSH20 0xFFFFFFFFFFFFFFFFFFFFFFFFFFFFFFFFFFFFFFFF AND EQ ISZERO DUP1 ISZERO PUSH2 0x8A6 JUMPI POP PUSH1 0x0 DUP2 EQ JUMPDEST JUMPDEST ISZERO PUSH2 0x8E7 JUMPI PUSH1 0x40 MLOAD PUSH32 0xA8C278DD00000000000000000000000000000000000000000000000000000000 DUP2 MSTORE PUSH1 0x4 ADD PUSH2 0x8DE SWAP1 PUSH2 0x1A35 JUMP JUMPDEST PUSH1 0x40 MLOAD DUP1 SWAP2 SUB SWAP1 REVERT JUMPDEST PUSH1 0x0 DUP1 PUSH20 0xFFFFFFFFFFFFFFFFFFFFFFFFFFFFFFFFFFFFFFFF AND DUP4 PUSH20 0xFFFFFFFFFFFFFFFFFFFFFFFFFFFFFFFFFFFFFFFF AND SUB PUSH2 0xA21 JUMPI CALLVALUE SWAP1 POP PUSH1 0x3 PUSH1 0x0 SWAP1 SLOAD SWAP1 PUSH2 0x100 EXP SWAP1 DIV PUSH20 0xFFFFFFFFFFFFFFFFFFFFFFFFFFFFFFFFFFFFFFFF AND PUSH20 0xFFFFFFFFFFFFFFFFFFFFFFFFFFFFFFFFFFFFFFFF AND PUSH4 0xD0E30DB0 CALLVALUE PUSH1 0x40 MLOAD DUP3 PUSH4 0xFFFFFFFF AND PUSH1 0xE0 SHL DUP2 MSTORE PUSH1 0x4 ADD PUSH1 0x0 PUSH1 0x40 MLOAD DUP1 DUP4 SUB DUP2 DUP6 DUP9 DUP1 EXTCODESIZE ISZERO DUP1 ISZERO PUSH2 0x989 JUMPI PUSH1 0x0 DUP1 REVERT JUMPDEST POP GAS CALL ISZERO DUP1 ISZERO PUSH2 0x99D JUMPI RETURNDATASIZE PUSH1 0x0 DUP1 RETURNDATACOPY RETURNDATASIZE PUSH1 0x0 REVERT JUMPDEST POP POP POP POP POP PUSH1 0x1 PUSH1 0x4 PUSH1 0x0 PUSH1 0x3 PUSH1 0x0 SWAP1 SLOAD SWAP1 PUSH2 0x100 EXP SWAP1 DIV PUSH20 0xFFFFFFFFFFFFFFFFFFFFFFFFFFFFFFFFFFFFFFFF AND PUSH20 0xFFFFFFFFFFFFFFFFFFFFFFFFFFFFFFFFFFFFFFFF AND PUSH20 0xFFFFFFFFFFFFFFFFFFFFFFFFFFFFFFFFFFFFFFFF AND DUP2 MSTORE PUSH1 0x20 ADD SWAP1 DUP2 MSTORE PUSH1 0x20 ADD PUSH1 0x0 KECCAK256 PUSH1 0x0 PUSH2 0x100 EXP DUP2 SLOAD DUP2 PUSH1 0xFF MUL NOT AND SWAP1 DUP4 ISZERO ISZERO MUL OR SWAP1 SSTORE POP PUSH2 0xAFE JUMP JUMPDEST DUP2 SWAP1 POP DUP3 PUSH20 0xFFFFFFFFFFFFFFFFFFFFFFFFFFFFFFFFFFFFFFFF AND PUSH4 0x23B872DD CALLER ADDRESS DUP6 PUSH1 0x40 MLOAD DUP5 PUSH4 0xFFFFFFFF AND PUSH1 0xE0 SHL DUP2 MSTORE PUSH1 0x4 ADD PUSH2 0xA61 SWAP4 SWAP3 SWAP2 SWAP1 PUSH2 0x1A55 JUMP JUMPDEST PUSH1 0x20 PUSH1 0x40 MLOAD DUP1 DUP4 SUB DUP2 PUSH1 0x0 DUP8 GAS CALL ISZERO DUP1 ISZERO PUSH2 0xA80 JUMPI RETURNDATASIZE PUSH1 0x0 DUP1 RETURNDATACOPY RETURNDATASIZE PUSH1 0x0 REVERT JUMPDEST POP POP POP POP PUSH1 0x40 MLOAD RETURNDATASIZE PUSH1 0x1F NOT PUSH1 0x1F DUP3 ADD AND DUP3 ADD DUP1 PUSH1 0x40 MSTORE POP DUP2 ADD SWAP1 PUSH2 0xAA4 SWAP2 SWAP1 PUSH2 0x18CA JUMP JUMPDEST POP PUSH1 0x1 PUSH1 0x4 PUSH1 0x0 DUP6 PUSH20 0xFFFFFFFFFFFFFFFFFFFFFFFFFFFFFFFFFFFFFFFF AND PUSH20 0xFFFFFFFFFFFFFFFFFFFFFFFFFFFFFFFFFFFFFFFF AND DUP2 MSTORE PUSH1 0x20 ADD SWAP1 DUP2 MSTORE PUSH1 0x20 ADD PUSH1 0x0 KECCAK256 PUSH1 0x0 PUSH2 0x100 EXP DUP2 SLOAD DUP2 PUSH1 0xFF MUL NOT AND SWAP1 DUP4 ISZERO ISZERO MUL OR SWAP1 SSTORE POP JUMPDEST PUSH32 0x939F6F4877FAF071412E527BC4C6D0BD65AD077E52B57334F7765265647A7F1 DUP4 DUP3 PUSH1 0x40 MLOAD PUSH2 0xB2F SWAP3 SWAP2 SWAP1 PUSH2 0x18F7 JUMP JUMPDEST PUSH1 0x40 MLOAD DUP1 SWAP2 SUB SWAP1 LOG1 POP POP POP JUMP JUMPDEST PUSH1 0x3 PUSH1 0x0 SWAP1 SLOAD SWAP1 PUSH2 0x100 EXP SWAP1 DIV PUSH20 0xFFFFFFFFFFFFFFFFFFFFFFFFFFFFFFFFFFFFFFFF AND DUP2 JUMP JUMPDEST PUSH1 0x0 PUSH1 0x60 PUSH1 0x0 DUP5 DUP5 PUSH1 0x0 DUP2 DUP2 LT PUSH2 0xB7C JUMPI PUSH2 0xB7B PUSH2 0x19BA JUMP JUMPDEST JUMPDEST SWAP1 POP PUSH1 0x20 MUL DUP2 ADD SWAP1 PUSH2 0xB8E SWAP2 SWAP1 PUSH2 0x1A9B JUMP JUMPDEST SWAP1 PUSH2 0xB99 SWAP2 SWAP1 PUSH2 0x1B16 JUMP JUMPDEST SWAP1 POP PUSH1 0x0 DUP6 DUP6 PUSH1 0x1 DUP2 DUP2 LT PUSH2 0xBB1 JUMPI PUSH2 0xBB0 PUSH2 0x19BA JUMP JUMPDEST JUMPDEST SWAP1 POP PUSH1 0x20 MUL DUP2 ADD SWAP1 PUSH2 0xBC3 SWAP2 SWAP1 PUSH2 0x1A9B JUMP JUMPDEST DUP2 ADD SWAP1 PUSH2 0xBD0 SWAP2 SWAP1 PUSH2 0x1CB3 JUMP JUMPDEST SWAP1 POP PUSH1 0xA DUP2 MLOAD GT ISZERO PUSH2 0xC1A JUMPI DUP1 MLOAD PUSH1 0x40 MLOAD PUSH32 0x8BC593CD00000000000000000000000000000000000000000000000000000000 DUP2 MSTORE PUSH1 0x4 ADD PUSH2 0xC11 SWAP2 SWAP1 PUSH2 0x11AE JUMP JUMPDEST PUSH1 0x40 MLOAD DUP1 SWAP2 SUB SWAP1 REVERT JUMPDEST PUSH1 0x0 DUP2 MLOAD PUSH8 0xFFFFFFFFFFFFFFFF DUP2 GT ISZERO PUSH2 0xC37 JUMPI PUSH2 0xC36 PUSH2 0x1B75 JUMP JUMPDEST JUMPDEST PUSH1 0x40 MLOAD SWAP1 DUP1 DUP3 MSTORE DUP1 PUSH1 0x20 MUL PUSH1 0x20 ADD DUP3 ADD PUSH1 0x40 MSTORE DUP1 ISZERO PUSH2 0xC70 JUMPI DUP2 PUSH1 0x20 ADD JUMPDEST PUSH2 0xC5D PUSH2 0x10C7 JUMP JUMPDEST DUP2 MSTORE PUSH1 0x20 ADD SWAP1 PUSH1 0x1 SWAP1 SUB SWAP1 DUP2 PUSH2 0xC55 JUMPI SWAP1 POP JUMPDEST POP SWAP1 POP PUSH1 0x0 DUP1 JUMPDEST DUP4 MLOAD DUP2 LT ISZERO PUSH2 0x1010 JUMPI PUSH2 0xC88 PUSH2 0x10C7 JUMP JUMPDEST PUSH1 0x0 DUP6 DUP4 DUP2 MLOAD DUP2 LT PUSH2 0xC9D JUMPI PUSH2 0xC9C PUSH2 0x19BA JUMP JUMPDEST JUMPDEST PUSH1 0x20 MUL PUSH1 0x20 ADD ADD MLOAD SUB PUSH2 0xD48 JUMPI PUSH1 0x0 DUP2 PUSH1 0x0 ADD SWAP1 PUSH1 0xFF AND SWAP1 DUP2 PUSH1 0xFF AND DUP2 MSTORE POP POP DUP10 DUP10 PUSH1 0x2 DUP2 DUP2 LT PUSH2 0xCD1 JUMPI PUSH2 0xCD0 PUSH2 0x19BA JUMP JUMPDEST JUMPDEST SWAP1 POP PUSH1 0x20 MUL DUP2 ADD SWAP1 PUSH2 0xCE3 SWAP2 SWAP1 PUSH2 0x1A9B JUMP JUMPDEST DUP5 SWAP1 PUSH1 0x20 DUP7 PUSH2 0xCF2 SWAP2 SWAP1 PUSH2 0x1D2B JUMP JUMPDEST SWAP3 PUSH2 0xCFF SWAP4 SWAP3 SWAP2 SWAP1 PUSH2 0x1D69 JUMP JUMPDEST DUP2 ADD SWAP1 PUSH2 0xD0C SWAP2 SWAP1 PUSH2 0x1DE2 JUMP JUMPDEST DUP2 PUSH1 0x40 ADD SWAP1 PUSH20 0xFFFFFFFFFFFFFFFFFFFFFFFFFFFFFFFFFFFFFFFF AND SWAP1 DUP2 PUSH20 0xFFFFFFFFFFFFFFFFFFFFFFFFFFFFFFFFFFFFFFFF AND DUP2 MSTORE POP POP PUSH2 0xFD4 JUMP JUMPDEST PUSH1 0x1 DUP6 DUP4 DUP2 MLOAD DUP2 LT PUSH2 0xD5D JUMPI PUSH2 0xD5C PUSH2 0x19BA JUMP JUMPDEST JUMPDEST PUSH1 0x20 MUL PUSH1 0x20 ADD ADD MLOAD SUB PUSH2 0xDDA JUMPI PUSH1 0x1 DUP2 PUSH1 0x0 ADD SWAP1 PUSH1 0xFF AND SWAP1 DUP2 PUSH1 0xFF AND DUP2 MSTORE POP POP DUP10 DUP10 PUSH1 0x2 DUP2 DUP2 LT PUSH2 0xD91 JUMPI PUSH2 0xD90 PUSH2 0x19BA JUMP JUMPDEST JUMPDEST SWAP1 POP PUSH1 0x20 MUL DUP2 ADD SWAP1 PUSH2 0xDA3 SWAP2 SWAP1 PUSH2 0x1A9B JUMP JUMPDEST DUP5 SWAP1 PUSH1 0x20 DUP7 PUSH2 0xDB2 SWAP2 SWAP1 PUSH2 0x1D2B JUMP JUMPDEST SWAP3 PUSH2 0xDBF SWAP4 SWAP3 SWAP2 SWAP1 PUSH2 0x1D69 JUMP JUMPDEST DUP2 ADD SWAP1 PUSH2 0xDCC SWAP2 SWAP1 PUSH2 0x1E0F JUMP JUMPDEST DUP2 PUSH1 0x60 ADD DUP2 DUP2 MSTORE POP POP PUSH2 0xFD3 JUMP JUMPDEST PUSH1 0x2 DUP6 DUP4 DUP2 MLOAD DUP2 LT PUSH2 0xDEF JUMPI PUSH2 0xDEE PUSH2 0x19BA JUMP JUMPDEST JUMPDEST PUSH1 0x20 MUL PUSH1 0x20 ADD ADD MLOAD SUB PUSH2 0xE6C JUMPI PUSH1 0x2 DUP2 PUSH1 0x0 ADD SWAP1 PUSH1 0xFF AND SWAP1 DUP2 PUSH1 0xFF AND DUP2 MSTORE POP POP DUP10 DUP10 PUSH1 0x2 DUP2 DUP2 LT PUSH2 0xE23 JUMPI PUSH2 0xE22 PUSH2 0x19BA JUMP JUMPDEST JUMPDEST SWAP1 POP PUSH1 0x20 MUL DUP2 ADD SWAP1 PUSH2 0xE35 SWAP2 SWAP1 PUSH2 0x1A9B JUMP JUMPDEST DUP5 SWAP1 PUSH1 0x20 DUP7 PUSH2 0xE44 SWAP2 SWAP1 PUSH2 0x1D2B JUMP JUMPDEST SWAP3 PUSH2 0xE51 SWAP4 SWAP3 SWAP2 SWAP1 PUSH2 0x1D69 JUMP JUMPDEST DUP2 ADD SWAP1 PUSH2 0xE5E SWAP2 SWAP1 PUSH2 0x1E68 JUMP JUMPDEST DUP2 PUSH1 0x80 ADD DUP2 DUP2 MSTORE POP POP PUSH2 0xFD2 JUMP JUMPDEST PUSH1 0x3 DUP6 DUP4 DUP2 MLOAD DUP2 LT PUSH2 0xE81 JUMPI PUSH2 0xE80 PUSH2 0x19BA JUMP JUMPDEST JUMPDEST PUSH1 0x20 MUL PUSH1 0x20 ADD ADD MLOAD SUB PUSH2 0xF04 JUMPI PUSH1 0x3 DUP2 PUSH1 0x0 ADD SWAP1 PUSH1 0xFF AND SWAP1 DUP2 PUSH1 0xFF AND DUP2 MSTORE POP POP DUP10 DUP10 PUSH1 0x2 DUP2 DUP2 LT PUSH2 0xEB5 JUMPI PUSH2 0xEB4 PUSH2 0x19BA JUMP JUMPDEST JUMPDEST SWAP1 POP PUSH1 0x20 MUL DUP2 ADD SWAP1 PUSH2 0xEC7 SWAP2 SWAP1 PUSH2 0x1A9B JUMP JUMPDEST DUP5 SWAP1 PUSH1 0x20 DUP7 PUSH2 0xED6 SWAP2 SWAP1 PUSH2 0x1D2B JUMP JUMPDEST SWAP3 PUSH2 0xEE3 SWAP4 SWAP3 SWAP2 SWAP1 PUSH2 0x1D69 JUMP JUMPDEST DUP2 ADD SWAP1 PUSH2 0xEF0 SWAP2 SWAP1 PUSH2 0x1EAA JUMP JUMPDEST DUP2 PUSH1 0xA0 ADD SWAP1 ISZERO ISZERO SWAP1 DUP2 ISZERO ISZERO DUP2 MSTORE POP POP PUSH2 0xFD1 JUMP JUMPDEST PUSH1 0x4 DUP6 DUP4 DUP2 MLOAD DUP2 LT PUSH2 0xF19 JUMPI PUSH2 0xF18 PUSH2 0x19BA JUMP JUMPDEST JUMPDEST PUSH1 0x20 MUL PUSH1 0x20 ADD ADD MLOAD SUB PUSH2 0xF95 JUMPI PUSH1 0x4 DUP2 PUSH1 0x0 ADD SWAP1 PUSH1 0xFF AND SWAP1 DUP2 PUSH1 0xFF AND DUP2 MSTORE POP POP DUP10 DUP10 PUSH1 0x2 DUP2 DUP2 LT PUSH2 0xF4D JUMPI PUSH2 0xF4C PUSH2 0x19BA JUMP JUMPDEST JUMPDEST SWAP1 POP PUSH1 0x20 MUL DUP2 ADD SWAP1 PUSH2 0xF5F SWAP2 SWAP1 PUSH2 0x1A9B JUMP JUMPDEST DUP5 SWAP1 PUSH1 0x20 DUP7 PUSH2 0xF6E SWAP2 SWAP1 PUSH2 0x1D2B JUMP JUMPDEST SWAP3 PUSH2 0xF7B SWAP4 SWAP3 SWAP2 SWAP1 PUSH2 0x1D69 JUMP JUMPDEST DUP2 ADD SWAP1 PUSH2 0xF88 SWAP2 SWAP1 PUSH2 0x1F8C JUMP JUMPDEST DUP2 PUSH1 0x20 ADD DUP2 SWAP1 MSTORE POP PUSH2 0xFD0 JUMP JUMPDEST PUSH1 0x40 MLOAD PUSH32 0xA8C278DD00000000000000000000000000000000000000000000000000000000 DUP2 MSTORE PUSH1 0x4 ADD PUSH2 0xFC7 SWAP1 PUSH2 0x2021 JUMP JUMPDEST PUSH1 0x40 MLOAD DUP1 SWAP2 SUB SWAP1 REVERT JUMPDEST JUMPDEST JUMPDEST JUMPDEST JUMPDEST DUP1 DUP5 DUP4 DUP2 MLOAD DUP2 LT PUSH2 0xFE8 JUMPI PUSH2 0xFE7 PUSH2 0x19BA JUMP JUMPDEST JUMPDEST PUSH1 0x20 MUL PUSH1 0x20 ADD ADD DUP2 SWAP1 MSTORE POP PUSH1 0x20 DUP4 PUSH2 0x1000 SWAP2 SWAP1 PUSH2 0x1D2B JUMP JUMPDEST SWAP3 POP POP DUP1 DUP1 PUSH1 0x1 ADD SWAP2 POP POP PUSH2 0xC77 JUMP JUMPDEST POP DUP4 DUP3 SWAP6 POP SWAP6 POP POP POP POP POP SWAP3 POP SWAP3 SWAP1 POP JUMP JUMPDEST DUP2 PUSH20 0xFFFFFFFFFFFFFFFFFFFFFFFFFFFFFFFFFFFFFFFF AND PUSH4 0x95EA7B3 PUSH1 0x1 PUSH1 0x0 SWAP1 SLOAD SWAP1 PUSH2 0x100 EXP SWAP1 DIV PUSH20 0xFFFFFFFFFFFFFFFFFFFFFFFFFFFFFFFFFFFFFFFF AND DUP4 PUSH1 0x40 MLOAD DUP4 PUSH4 0xFFFFFFFF AND PUSH1 0xE0 SHL DUP2 MSTORE PUSH1 0x4 ADD PUSH2 0x107F SWAP3 SWAP2 SWAP1 PUSH2 0x18F7 JUMP JUMPDEST PUSH1 0x20 PUSH1 0x40 MLOAD DUP1 DUP4 SUB DUP2 PUSH1 0x0 DUP8 GAS CALL ISZERO DUP1 ISZERO PUSH2 0x109E JUMPI RETURNDATASIZE PUSH1 0x0 DUP1 RETURNDATACOPY RETURNDATASIZE PUSH1 0x0 REVERT JUMPDEST POP POP POP POP PUSH1 0x40 MLOAD RETURNDATASIZE PUSH1 0x1F NOT PUSH1 0x1F DUP3 ADD AND DUP3 ADD DUP1 PUSH1 0x40 MSTORE POP DUP2 ADD SWAP1 PUSH2 0x10C2 SWAP2 SWAP1 PUSH2 0x18CA JUMP JUMPDEST POP POP POP JUMP JUMPDEST PUSH1 0x40 MLOAD DUP1 PUSH1 0xC0 ADD PUSH1 0x40 MSTORE DUP1 PUSH1 0x0 PUSH1 0xFF AND DUP2 MSTORE PUSH1 0x20 ADD PUSH1 0x60 DUP2 MSTORE PUSH1 0x20 ADD PUSH1 0x0 PUSH20 0xFFFFFFFFFFFFFFFFFFFFFFFFFFFFFFFFFFFFFFFF AND DUP2 MSTORE PUSH1 0x20 ADD PUSH1 0x0 DUP2 MSTORE PUSH1 0x20 ADD PUSH1 0x0 DUP2 MSTORE PUSH1 0x20 ADD PUSH1 0x0 ISZERO ISZERO DUP2 MSTORE POP SWAP1 JUMP JUMPDEST PUSH1 0x0 DUP3 DUP3 MSTORE PUSH1 0x20 DUP3 ADD SWAP1 POP SWAP3 SWAP2 POP POP JUMP JUMPDEST PUSH32 0x53656E64206D6F72652045746865720000000000000000000000000000000000 PUSH1 0x0 DUP3 ADD MSTORE POP JUMP JUMPDEST PUSH1 0x0 PUSH2 0x115F PUSH1 0xF DUP4 PUSH2 0x1118 JUMP JUMPDEST SWAP2 POP PUSH2 0x116A DUP3 PUSH2 0x1129 JUMP JUMPDEST PUSH1 0x20 DUP3 ADD SWAP1 POP SWAP2 SWAP1 POP JUMP JUMPDEST PUSH1 0x0 PUSH1 0x20 DUP3 ADD SWAP1 POP DUP2 DUP2 SUB PUSH1 0x0 DUP4 ADD MSTORE PUSH2 0x118E DUP2 PUSH2 0x1152 JUMP JUMPDEST SWAP1 POP SWAP2 SWAP1 POP JUMP JUMPDEST PUSH1 0x0 DUP2 SWAP1 POP SWAP2 SWAP1 POP JUMP JUMPDEST PUSH2 0x11A8 DUP2 PUSH2 0x1195 JUMP JUMPDEST DUP3 MSTORE POP POP JUMP JUMPDEST PUSH1 0x0 PUSH1 0x20 DUP3 ADD SWAP1 POP PUSH2 0x11C3 PUSH1 0x0 DUP4 ADD DUP5 PUSH2 0x119F JUMP JUMPDEST SWAP3 SWAP2 POP POP JUMP JUMPDEST PUSH1 0x0 PUSH1 0x40 MLOAD SWAP1 POP SWAP1 JUMP JUMPDEST PUSH1 0x0 DUP1 REVERT JUMPDEST PUSH1 0x0 DUP1 REVERT JUMPDEST PUSH1 0x0 PUSH20 0xFFFFFFFFFFFFFFFFFFFFFFFFFFFFFFFFFFFFFFFF DUP3 AND SWAP1 POP SWAP2 SWAP1 POP JUMP JUMPDEST PUSH1 0x0 PUSH2 0x1208 DUP3 PUSH2 0x11DD JUMP JUMPDEST SWAP1 POP SWAP2 SWAP1 POP JUMP JUMPDEST PUSH2 0x1218 DUP2 PUSH2 0x11FD JUMP JUMPDEST DUP2 EQ PUSH2 0x1223 JUMPI PUSH1 0x0 DUP1 REVERT JUMPDEST POP JUMP JUMPDEST PUSH1 0x0 DUP2 CALLDATALOAD SWAP1 POP PUSH2 0x1235 DUP2 PUSH2 0x120F JUMP JUMPDEST SWAP3 SWAP2 POP POP JUMP JUMPDEST PUSH1 0x0 PUSH1 0x20 DUP3 DUP5 SUB SLT ISZERO PUSH2 0x1251 JUMPI PUSH2 0x1250 PUSH2 0x11D3 JUMP JUMPDEST JUMPDEST PUSH1 0x0 PUSH2 0x125F DUP5 DUP3 DUP6 ADD PUSH2 0x1226 JUMP JUMPDEST SWAP2 POP POP SWAP3 SWAP2 POP POP JUMP JUMPDEST PUSH1 0x0 DUP2 ISZERO ISZERO SWAP1 POP SWAP2 SWAP1 POP JUMP JUMPDEST PUSH2 0x127D DUP2 PUSH2 0x1268 JUMP JUMPDEST DUP3 MSTORE POP POP JUMP JUMPDEST PUSH1 0x0 PUSH1 0x20 DUP3 ADD SWAP1 POP PUSH2 0x1298 PUSH1 0x0 DUP4 ADD DUP5 PUSH2 0x1274 JUMP JUMPDEST SWAP3 SWAP2 POP POP JUMP JUMPDEST PUSH1 0x0 DUP2 SWAP1 POP SWAP2 SWAP1 POP JUMP JUMPDEST PUSH1 0x0 PUSH2 0x12C3 PUSH2 0x12BE PUSH2 0x12B9 DUP5 PUSH2 0x11DD JUMP JUMPDEST PUSH2 0x129E JUMP JUMPDEST PUSH2 0x11DD JUMP JUMPDEST SWAP1 POP SWAP2 SWAP1 POP JUMP JUMPDEST PUSH1 0x0 PUSH2 0x12D5 DUP3 PUSH2 0x12A8 JUMP JUMPDEST SWAP1 POP SWAP2 SWAP1 POP JUMP JUMPDEST PUSH1 0x0 PUSH2 0x12E7 DUP3 PUSH2 0x12CA JUMP JUMPDEST SWAP1 POP SWAP2 SWAP1 POP JUMP JUMPDEST PUSH2 0x12F7 DUP2 PUSH2 0x12DC JUMP JUMPDEST DUP3 MSTORE POP POP JUMP JUMPDEST PUSH1 0x0 PUSH1 0x20 DUP3 ADD SWAP1 POP PUSH2 0x1312 PUSH1 0x0 DUP4 ADD DUP5 PUSH2 0x12EE JUMP JUMPDEST SWAP3 SWAP2 POP POP JUMP JUMPDEST PUSH1 0x0 DUP1 REVERT JUMPDEST PUSH1 0x0 DUP1 REVERT JUMPDEST PUSH1 0x0 DUP1 REVERT JUMPDEST PUSH1 0x0 DUP1 DUP4 PUSH1 0x1F DUP5 ADD SLT PUSH2 0x133D JUMPI PUSH2 0x133C PUSH2 0x1318 JUMP JUMPDEST JUMPDEST DUP3 CALLDATALOAD SWAP1 POP PUSH8 0xFFFFFFFFFFFFFFFF DUP2 GT ISZERO PUSH2 0x135A JUMPI PUSH2 0x1359 PUSH2 0x131D JUMP JUMPDEST JUMPDEST PUSH1 0x20 DUP4 ADD SWAP2 POP DUP4 PUSH1 0x20 DUP3 MUL DUP4 ADD GT ISZERO PUSH2 0x1376 JUMPI PUSH2 0x1375 PUSH2 0x1322 JUMP JUMPDEST JUMPDEST SWAP3 POP SWAP3 SWAP1 POP JUMP JUMPDEST PUSH1 0x0 DUP1 PUSH1 0x0 DUP1 PUSH1 0x60 DUP6 DUP8 SUB SLT ISZERO PUSH2 0x1397 JUMPI PUSH2 0x1396 PUSH2 0x11D3 JUMP JUMPDEST JUMPDEST PUSH1 0x0 DUP6 ADD CALLDATALOAD PUSH8 0xFFFFFFFFFFFFFFFF DUP2 GT ISZERO PUSH2 0x13B5 JUMPI PUSH2 0x13B4 PUSH2 0x11D8 JUMP JUMPDEST JUMPDEST PUSH2 0x13C1 DUP8 DUP3 DUP9 ADD PUSH2 0x1327 JUMP JUMPDEST SWAP5 POP SWAP5 POP POP PUSH1 0x20 PUSH2 0x13D4 DUP8 DUP3 DUP9 ADD PUSH2 0x1226 JUMP JUMPDEST SWAP3 POP POP PUSH1 0x40 PUSH2 0x13E5 DUP8 DUP3 DUP9 ADD PUSH2 0x1226 JUMP JUMPDEST SWAP2 POP POP SWAP3 SWAP6 SWAP2 SWAP5 POP SWAP3 POP JUMP JUMPDEST PUSH1 0x0 PUSH2 0x13FC DUP3 PUSH2 0x12CA JUMP JUMPDEST SWAP1 POP SWAP2 SWAP1 POP JUMP JUMPDEST PUSH2 0x140C DUP2 PUSH2 0x13F1 JUMP JUMPDEST DUP3 MSTORE POP POP JUMP JUMPDEST PUSH1 0x0 PUSH1 0x20 DUP3 ADD SWAP1 POP PUSH2 0x1427 PUSH1 0x0 DUP4 ADD DUP5 PUSH2 0x1403 JUMP JUMPDEST SWAP3 SWAP2 POP POP JUMP JUMPDEST PUSH2 0x1436 DUP2 PUSH2 0x1195 JUMP JUMPDEST DUP2 EQ PUSH2 0x1441 JUMPI PUSH1 0x0 DUP1 REVERT JUMPDEST POP JUMP JUMPDEST PUSH1 0x0 DUP2 CALLDATALOAD SWAP1 POP PUSH2 0x1453 DUP2 PUSH2 0x142D JUMP JUMPDEST SWAP3 SWAP2 POP POP JUMP JUMPDEST PUSH1 0x0 DUP1 PUSH1 0x0 DUP1 PUSH1 0x80 DUP6 DUP8 SUB SLT ISZERO PUSH2 0x1473 JUMPI PUSH2 0x1472 PUSH2 0x11D3 JUMP JUMPDEST JUMPDEST PUSH1 0x0 PUSH2 0x1481 DUP8 DUP3 DUP9 ADD PUSH2 0x1226 JUMP JUMPDEST SWAP5 POP POP PUSH1 0x20 PUSH2 0x1492 DUP8 DUP3 DUP9 ADD PUSH2 0x1444 JUMP JUMPDEST SWAP4 POP POP PUSH1 0x40 PUSH2 0x14A3 DUP8 DUP3 DUP9 ADD PUSH2 0x1226 JUMP JUMPDEST SWAP3 POP POP PUSH1 0x60 PUSH2 0x14B4 DUP8 DUP3 DUP9 ADD PUSH2 0x1226 JUMP JUMPDEST SWAP2 POP POP SWAP3 SWAP6 SWAP2 SWAP5 POP SWAP3 POP JUMP JUMPDEST PUSH1 0x0 DUP1 PUSH1 0x0 PUSH1 0x40 DUP5 DUP7 SUB SLT ISZERO PUSH2 0x14D9 JUMPI PUSH2 0x14D8 PUSH2 0x11D3 JUMP JUMPDEST JUMPDEST PUSH1 0x0 DUP5 ADD CALLDATALOAD PUSH8 0xFFFFFFFFFFFFFFFF DUP2 GT ISZERO PUSH2 0x14F7 JUMPI PUSH2 0x14F6 PUSH2 0x11D8 JUMP JUMPDEST JUMPDEST PUSH2 0x1503 DUP7 DUP3 DUP8 ADD PUSH2 0x1327 JUMP JUMPDEST SWAP4 POP SWAP4 POP POP PUSH1 0x20 PUSH2 0x1516 DUP7 DUP3 DUP8 ADD PUSH2 0x1226 JUMP JUMPDEST SWAP2 POP POP SWAP3 POP SWAP3 POP SWAP3 JUMP JUMPDEST PUSH1 0x0 DUP1 PUSH1 0x40 DUP4 DUP6 SUB SLT ISZERO PUSH2 0x1537 JUMPI PUSH2 0x1536 PUSH2 0x11D3 JUMP JUMPDEST JUMPDEST PUSH1 0x0 PUSH2 0x1545 DUP6 DUP3 DUP7 ADD PUSH2 0x1226 JUMP JUMPDEST SWAP3 POP POP PUSH1 0x20 PUSH2 0x1556 DUP6 DUP3 DUP7 ADD PUSH2 0x1444 JUMP JUMPDEST SWAP2 POP POP SWAP3 POP SWAP3 SWAP1 POP JUMP JUMPDEST PUSH2 0x1569 DUP2 PUSH2 0x11FD JUMP JUMPDEST DUP3 MSTORE POP POP JUMP JUMPDEST PUSH1 0x0 PUSH1 0x20 DUP3 ADD SWAP1 POP PUSH2 0x1584 PUSH1 0x0 DUP4 ADD DUP5 PUSH2 0x1560 JUMP JUMPDEST SWAP3 SWAP2 POP POP JUMP JUMPDEST PUSH32 0x61636365737320636F6E74726F6C3A206F6E6C794F776E657200000000000000 PUSH1 0x0 DUP3 ADD MSTORE POP JUMP JUMPDEST PUSH1 0x0 PUSH2 0x15C0 PUSH1 0x19 DUP4 PUSH2 0x1118 JUMP JUMPDEST SWAP2 POP PUSH2 0x15CB DUP3 PUSH2 0x158A JUMP JUMPDEST PUSH1 0x20 DUP3 ADD SWAP1 POP SWAP2 SWAP1 POP JUMP JUMPDEST PUSH1 0x0 PUSH1 0x20 DUP3 ADD SWAP1 POP DUP2 DUP2 SUB PUSH1 0x0 DUP4 ADD MSTORE PUSH2 0x15EF DUP2 PUSH2 0x15B3 JUMP JUMPDEST SWAP1 POP SWAP2 SWAP1 POP JUMP JUMPDEST PUSH1 0x0 PUSH32 0xFFFFFFFF00000000000000000000000000000000000000000000000000000000 DUP3 AND SWAP1 POP SWAP2 SWAP1 POP JUMP JUMPDEST PUSH2 0x162B DUP2 PUSH2 0x15F6 JUMP JUMPDEST DUP3 MSTORE POP POP JUMP JUMPDEST PUSH1 0x0 DUP2 MLOAD SWAP1 POP SWAP2 SWAP1 POP JUMP JUMPDEST PUSH1 0x0 DUP3 DUP3 MSTORE PUSH1 0x20 DUP3 ADD SWAP1 POP SWAP3 SWAP2 POP POP JUMP JUMPDEST PUSH1 0x0 DUP2 SWAP1 POP PUSH1 0x20 DUP3 ADD SWAP1 POP SWAP2 SWAP1 POP JUMP JUMPDEST PUSH1 0x0 PUSH1 0xFF DUP3 AND SWAP1 POP SWAP2 SWAP1 POP JUMP JUMPDEST PUSH2 0x1673 DUP2 PUSH2 0x165D JUMP JUMPDEST DUP3 MSTORE POP POP JUMP JUMPDEST PUSH1 0x0 DUP2 MLOAD SWAP1 POP SWAP2 SWAP1 POP JUMP JUMPDEST PUSH1 0x0 DUP3 DUP3 MSTORE PUSH1 0x20 DUP3 ADD SWAP1 POP SWAP3 SWAP2 POP POP JUMP JUMPDEST PUSH1 0x0 JUMPDEST DUP4 DUP2 LT ISZERO PUSH2 0x16B3 JUMPI DUP1 DUP3 ADD MLOAD DUP2 DUP5 ADD MSTORE PUSH1 0x20 DUP2 ADD SWAP1 POP PUSH2 0x1698 JUMP JUMPDEST PUSH1 0x0 DUP5 DUP5 ADD MSTORE POP POP POP POP JUMP JUMPDEST PUSH1 0x0 PUSH1 0x1F NOT PUSH1 0x1F DUP4 ADD AND SWAP1 POP SWAP2 SWAP1 POP JUMP JUMPDEST PUSH1 0x0 PUSH2 0x16DB DUP3 PUSH2 0x1679 JUMP JUMPDEST PUSH2 0x16E5 DUP2 DUP6 PUSH2 0x1684 JUMP JUMPDEST SWAP4 POP PUSH2 0x16F5 DUP2 DUP6 PUSH1 0x20 DUP7 ADD PUSH2 0x1695 JUMP JUMPDEST PUSH2 0x16FE DUP2 PUSH2 0x16BF JUMP JUMPDEST DUP5 ADD SWAP2 POP POP SWAP3 SWAP2 POP POP JUMP JUMPDEST PUSH2 0x1712 DUP2 PUSH2 0x11FD JUMP JUMPDEST DUP3 MSTORE POP POP JUMP JUMPDEST PUSH2 0x1721 DUP2 PUSH2 0x1195 JUMP JUMPDEST DUP3 MSTORE POP POP JUMP JUMPDEST PUSH1 0x0 DUP2 SWAP1 POP SWAP2 SWAP1 POP JUMP JUMPDEST PUSH2 0x173A DUP2 PUSH2 0x1727 JUMP JUMPDEST DUP3 MSTORE POP POP JUMP JUMPDEST PUSH2 0x1749 DUP2 PUSH2 0x1268 JUMP JUMPDEST DUP3 MSTORE POP POP JUMP JUMPDEST PUSH1 0x0 PUSH1 0xC0 DUP4 ADD PUSH1 0x0 DUP4 ADD MLOAD PUSH2 0x1767 PUSH1 0x0 DUP7 ADD DUP3 PUSH2 0x166A JUMP JUMPDEST POP PUSH1 0x20 DUP4 ADD MLOAD DUP5 DUP3 SUB PUSH1 0x20 DUP7 ADD MSTORE PUSH2 0x177F DUP3 DUP3 PUSH2 0x16D0 JUMP JUMPDEST SWAP2 POP POP PUSH1 0x40 DUP4 ADD MLOAD PUSH2 0x1794 PUSH1 0x40 DUP7 ADD DUP3 PUSH2 0x1709 JUMP JUMPDEST POP PUSH1 0x60 DUP4 ADD MLOAD PUSH2 0x17A7 PUSH1 0x60 DUP7 ADD DUP3 PUSH2 0x1718 JUMP JUMPDEST POP PUSH1 0x80 DUP4 ADD MLOAD PUSH2 0x17BA PUSH1 0x80 DUP7 ADD DUP3 PUSH2 0x1731 JUMP JUMPDEST POP PUSH1 0xA0 DUP4 ADD MLOAD PUSH2 0x17CD PUSH1 0xA0 DUP7 ADD DUP3 PUSH2 0x1740 JUMP JUMPDEST POP DUP1 SWAP2 POP POP SWAP3 SWAP2 POP POP JUMP JUMPDEST PUSH1 0x0 PUSH2 0x17E4 DUP4 DUP4 PUSH2 0x174F JUMP JUMPDEST SWAP1 POP SWAP3 SWAP2 POP POP JUMP JUMPDEST PUSH1 0x0 PUSH1 0x20 DUP3 ADD SWAP1 POP SWAP2 SWAP1 POP JUMP JUMPDEST PUSH1 0x0 PUSH2 0x1804 DUP3 PUSH2 0x1631 JUMP JUMPDEST PUSH2 0x180E DUP2 DUP6 PUSH2 0x163C JUMP JUMPDEST SWAP4 POP DUP4 PUSH1 0x20 DUP3 MUL DUP6 ADD PUSH2 0x1820 DUP6 PUSH2 0x164D JUMP JUMPDEST DUP1 PUSH1 0x0 JUMPDEST DUP6 DUP2 LT ISZERO PUSH2 0x185C JUMPI DUP5 DUP5 SUB DUP10 MSTORE DUP2 MLOAD PUSH2 0x183D DUP6 DUP3 PUSH2 0x17D8 JUMP JUMPDEST SWAP5 POP PUSH2 0x1848 DUP4 PUSH2 0x17EC JUMP JUMPDEST SWAP3 POP PUSH1 0x20 DUP11 ADD SWAP10 POP POP PUSH1 0x1 DUP2 ADD SWAP1 POP PUSH2 0x1824 JUMP JUMPDEST POP DUP3 SWAP8 POP DUP8 SWAP6 POP POP POP POP POP POP SWAP3 SWAP2 POP POP JUMP JUMPDEST PUSH1 0x0 PUSH1 0x40 DUP3 ADD SWAP1 POP PUSH2 0x1883 PUSH1 0x0 DUP4 ADD DUP6 PUSH2 0x1622 JUMP JUMPDEST DUP2 DUP2 SUB PUSH1 0x20 DUP4 ADD MSTORE PUSH2 0x1895 DUP2 DUP5 PUSH2 0x17F9 JUMP JUMPDEST SWAP1 POP SWAP4 SWAP3 POP POP POP JUMP JUMPDEST PUSH2 0x18A7 DUP2 PUSH2 0x1268 JUMP JUMPDEST DUP2 EQ PUSH2 0x18B2 JUMPI PUSH1 0x0 DUP1 REVERT JUMPDEST POP JUMP JUMPDEST PUSH1 0x0 DUP2 MLOAD SWAP1 POP PUSH2 0x18C4 DUP2 PUSH2 0x189E JUMP JUMPDEST SWAP3 SWAP2 POP POP JUMP JUMPDEST PUSH1 0x0 PUSH1 0x20 DUP3 DUP5 SUB SLT ISZERO PUSH2 0x18E0 JUMPI PUSH2 0x18DF PUSH2 0x11D3 JUMP JUMPDEST JUMPDEST PUSH1 0x0 PUSH2 0x18EE DUP5 DUP3 DUP6 ADD PUSH2 0x18B5 JUMP JUMPDEST SWAP2 POP POP SWAP3 SWAP2 POP POP JUMP JUMPDEST PUSH1 0x0 PUSH1 0x40 DUP3 ADD SWAP1 POP PUSH2 0x190C PUSH1 0x0 DUP4 ADD DUP6 PUSH2 0x1560 JUMP JUMPDEST PUSH2 0x1919 PUSH1 0x20 DUP4 ADD DUP5 PUSH2 0x119F JUMP JUMPDEST SWAP4 SWAP3 POP POP POP JUMP JUMPDEST PUSH1 0x0 PUSH1 0x20 DUP3 ADD SWAP1 POP PUSH2 0x1935 PUSH1 0x0 DUP4 ADD DUP5 PUSH2 0x1622 JUMP JUMPDEST SWAP3 SWAP2 POP POP JUMP JUMPDEST PUSH2 0x1944 DUP2 PUSH2 0x165D JUMP JUMPDEST DUP2 EQ PUSH2 0x194F JUMPI PUSH1 0x0 DUP1 REVERT JUMPDEST POP JUMP JUMPDEST PUSH1 0x0 DUP2 MLOAD SWAP1 POP PUSH2 0x1961 DUP2 PUSH2 0x193B JUMP JUMPDEST SWAP3 SWAP2 POP POP JUMP JUMPDEST PUSH1 0x0 DUP1 PUSH1 0x0 PUSH1 0x60 DUP5 DUP7 SUB SLT ISZERO PUSH2 0x1980 JUMPI PUSH2 0x197F PUSH2 0x11D3 JUMP JUMPDEST JUMPDEST PUSH1 0x0 PUSH2 0x198E DUP7 DUP3 DUP8 ADD PUSH2 0x18B5 JUMP JUMPDEST SWAP4 POP POP PUSH1 0x20 PUSH2 0x199F DUP7 DUP3 DUP8 ADD PUSH2 0x1952 JUMP JUMPDEST SWAP3 POP POP PUSH1 0x40 PUSH2 0x19B0 DUP7 DUP3 DUP8 ADD PUSH2 0x1952 JUMP JUMPDEST SWAP2 POP POP SWAP3 POP SWAP3 POP SWAP3 JUMP JUMPDEST PUSH32 0x4E487B7100000000000000000000000000000000000000000000000000000000 PUSH1 0x0 MSTORE PUSH1 0x32 PUSH1 0x4 MSTORE PUSH1 0x24 PUSH1 0x0 REVERT JUMPDEST PUSH32 0x6465706F73697446756E64730000000000000000000000000000000000000000 PUSH1 0x0 DUP3 ADD MSTORE POP JUMP JUMPDEST PUSH1 0x0 PUSH2 0x1A1F PUSH1 0xC DUP4 PUSH2 0x1118 JUMP JUMPDEST SWAP2 POP PUSH2 0x1A2A DUP3 PUSH2 0x19E9 JUMP JUMPDEST PUSH1 0x20 DUP3 ADD SWAP1 POP SWAP2 SWAP1 POP JUMP JUMPDEST PUSH1 0x0 PUSH1 0x20 DUP3 ADD SWAP1 POP DUP2 DUP2 SUB PUSH1 0x0 DUP4 ADD MSTORE PUSH2 0x1A4E DUP2 PUSH2 0x1A12 JUMP JUMPDEST SWAP1 POP SWAP2 SWAP1 POP JUMP JUMPDEST PUSH1 0x0 PUSH1 0x60 DUP3 ADD SWAP1 POP PUSH2 0x1A6A PUSH1 0x0 DUP4 ADD DUP7 PUSH2 0x1560 JUMP JUMPDEST PUSH2 0x1A77 PUSH1 0x20 DUP4 ADD DUP6 PUSH2 0x1560 JUMP JUMPDEST PUSH2 0x1A84 PUSH1 0x40 DUP4 ADD DUP5 PUSH2 0x119F JUMP JUMPDEST SWAP5 SWAP4 POP POP POP POP JUMP JUMPDEST PUSH1 0x0 DUP1 REVERT JUMPDEST PUSH1 0x0 DUP1 REVERT JUMPDEST PUSH1 0x0 DUP1 REVERT JUMPDEST PUSH1 0x0 DUP1 DUP4 CALLDATALOAD PUSH1 0x1 PUSH1 0x20 SUB DUP5 CALLDATASIZE SUB SUB DUP2 SLT PUSH2 0x1AB8 JUMPI PUSH2 0x1AB7 PUSH2 0x1A8C JUMP JUMPDEST JUMPDEST DUP1 DUP5 ADD SWAP3 POP DUP3 CALLDATALOAD SWAP2 POP PUSH8 0xFFFFFFFFFFFFFFFF DUP3 GT ISZERO PUSH2 0x1ADA JUMPI PUSH2 0x1AD9 PUSH2 0x1A91 JUMP JUMPDEST JUMPDEST PUSH1 0x20 DUP4 ADD SWAP3 POP PUSH1 0x1 DUP3 MUL CALLDATASIZE SUB DUP4 SGT ISZERO PUSH2 0x1AF6 JUMPI PUSH2 0x1AF5 PUSH2 0x1A96 JUMP JUMPDEST JUMPDEST POP SWAP3 POP SWAP3 SWAP1 POP JUMP JUMPDEST PUSH1 0x0 DUP3 SWAP1 POP SWAP3 SWAP2 POP POP JUMP JUMPDEST PUSH1 0x0 DUP3 DUP3 SHL SWAP1 POP SWAP3 SWAP2 POP POP JUMP JUMPDEST PUSH1 0x0 PUSH2 0x1B22 DUP4 DUP4 PUSH2 0x1AFE JUMP JUMPDEST DUP3 PUSH2 0x1B2D DUP2 CALLDATALOAD PUSH2 0x15F6 JUMP JUMPDEST SWAP3 POP PUSH1 0x4 DUP3 LT ISZERO PUSH2 0x1B6D JUMPI PUSH2 0x1B68 PUSH32 0xFFFFFFFF00000000000000000000000000000000000000000000000000000000 DUP4 PUSH1 0x4 SUB PUSH1 0x8 MUL PUSH2 0x1B09 JUMP JUMPDEST DUP4 AND SWAP3 POP JUMPDEST POP POP SWAP3 SWAP2 POP POP JUMP JUMPDEST PUSH32 0x4E487B7100000000000000000000000000000000000000000000000000000000 PUSH1 0x0 MSTORE PUSH1 0x41 PUSH1 0x4 MSTORE PUSH1 0x24 PUSH1 0x0 REVERT JUMPDEST PUSH2 0x1BAD DUP3 PUSH2 0x16BF JUMP JUMPDEST DUP2 ADD DUP2 DUP2 LT PUSH8 0xFFFFFFFFFFFFFFFF DUP3 GT OR ISZERO PUSH2 0x1BCC JUMPI PUSH2 0x1BCB PUSH2 0x1B75 JUMP JUMPDEST JUMPDEST DUP1 PUSH1 0x40 MSTORE POP POP POP JUMP JUMPDEST PUSH1 0x0 PUSH2 0x1BDF PUSH2 0x11C9 JUMP JUMPDEST SWAP1 POP PUSH2 0x1BEB DUP3 DUP3 PUSH2 0x1BA4 JUMP JUMPDEST SWAP2 SWAP1 POP JUMP JUMPDEST PUSH1 0x0 PUSH8 0xFFFFFFFFFFFFFFFF DUP3 GT ISZERO PUSH2 0x1C0B JUMPI PUSH2 0x1C0A PUSH2 0x1B75 JUMP JUMPDEST JUMPDEST PUSH1 0x20 DUP3 MUL SWAP1 POP PUSH1 0x20 DUP2 ADD SWAP1 POP SWAP2 SWAP1 POP JUMP JUMPDEST PUSH1 0x0 PUSH2 0x1C2F PUSH2 0x1C2A DUP5 PUSH2 0x1BF0 JUMP JUMPDEST PUSH2 0x1BD5 JUMP JUMPDEST SWAP1 POP DUP1 DUP4 DUP3 MSTORE PUSH1 0x20 DUP3 ADD SWAP1 POP PUSH1 0x20 DUP5 MUL DUP4 ADD DUP6 DUP2 GT ISZERO PUSH2 0x1C52 JUMPI PUSH2 0x1C51 PUSH2 0x1322 JUMP JUMPDEST JUMPDEST DUP4 JUMPDEST DUP2 DUP2 LT ISZERO PUSH2 0x1C7B JUMPI DUP1 PUSH2 0x1C67 DUP9 DUP3 PUSH2 0x1444 JUMP JUMPDEST DUP5 MSTORE PUSH1 0x20 DUP5 ADD SWAP4 POP POP PUSH1 0x20 DUP2 ADD SWAP1 POP PUSH2 0x1C54 JUMP JUMPDEST POP POP POP SWAP4 SWAP3 POP POP POP JUMP JUMPDEST PUSH1 0x0 DUP3 PUSH1 0x1F DUP4 ADD SLT PUSH2 0x1C9A JUMPI PUSH2 0x1C99 PUSH2 0x1318 JUMP JUMPDEST JUMPDEST DUP2 CALLDATALOAD PUSH2 0x1CAA DUP5 DUP3 PUSH1 0x20 DUP7 ADD PUSH2 0x1C1C JUMP JUMPDEST SWAP2 POP POP SWAP3 SWAP2 POP POP JUMP JUMPDEST PUSH1 0x0 PUSH1 0x20 DUP3 DUP5 SUB SLT ISZERO PUSH2 0x1CC9 JUMPI PUSH2 0x1CC8 PUSH2 0x11D3 JUMP JUMPDEST JUMPDEST PUSH1 0x0 DUP3 ADD CALLDATALOAD PUSH8 0xFFFFFFFFFFFFFFFF DUP2 GT ISZERO PUSH2 0x1CE7 JUMPI PUSH2 0x1CE6 PUSH2 0x11D8 JUMP JUMPDEST JUMPDEST PUSH2 0x1CF3 DUP5 DUP3 DUP6 ADD PUSH2 0x1C85 JUMP JUMPDEST SWAP2 POP POP SWAP3 SWAP2 POP POP JUMP JUMPDEST PUSH32 0x4E487B7100000000000000000000000000000000000000000000000000000000 PUSH1 0x0 MSTORE PUSH1 0x11 PUSH1 0x4 MSTORE PUSH1 0x24 PUSH1 0x0 REVERT JUMPDEST PUSH1 0x0 PUSH2 0x1D36 DUP3 PUSH2 0x1195 JUMP JUMPDEST SWAP2 POP PUSH2 0x1D41 DUP4 PUSH2 0x1195 JUMP JUMPDEST SWAP3 POP DUP3 DUP3 ADD SWAP1 POP DUP1 DUP3 GT ISZERO PUSH2 0x1D59 JUMPI PUSH2 0x1D58 PUSH2 0x1CFC JUMP JUMPDEST JUMPDEST SWAP3 SWAP2 POP POP JUMP JUMPDEST PUSH1 0x0 DUP1 REVERT JUMPDEST PUSH1 0x0 DUP1 REVERT JUMPDEST PUSH1 0x0 DUP1 DUP6 DUP6 GT ISZERO PUSH2 0x1D7D JUMPI PUSH2 0x1D7C PUSH2 0x1D5F JUMP JUMPDEST JUMPDEST DUP4 DUP7 GT ISZERO PUSH2 0x1D8E JUMPI PUSH2 0x1D8D PUSH2 0x1D64 JUMP JUMPDEST JUMPDEST PUSH1 0x1 DUP6 MUL DUP4 ADD SWAP2 POP DUP5 DUP7 SUB SWAP1 POP SWAP5 POP SWAP5 SWAP3 POP POP POP JUMP JUMPDEST PUSH1 0x0 PUSH2 0x1DAF DUP3 PUSH2 0x11DD JUMP JUMPDEST SWAP1 POP SWAP2 SWAP1 POP JUMP JUMPDEST PUSH2 0x1DBF DUP2 PUSH2 0x1DA4 JUMP JUMPDEST DUP2 EQ PUSH2 0x1DCA JUMPI PUSH1 0x0 DUP1 REVERT JUMPDEST POP JUMP JUMPDEST PUSH1 0x0 DUP2 CALLDATALOAD SWAP1 POP PUSH2 0x1DDC DUP2 PUSH2 0x1DB6 JUMP JUMPDEST SWAP3 SWAP2 POP POP JUMP JUMPDEST PUSH1 0x0 PUSH1 0x20 DUP3 DUP5 SUB SLT ISZERO PUSH2 0x1DF8 JUMPI PUSH2 0x1DF7 PUSH2 0x11D3 JUMP JUMPDEST JUMPDEST PUSH1 0x0 PUSH2 0x1E06 DUP5 DUP3 DUP6 ADD PUSH2 0x1DCD JUMP JUMPDEST SWAP2 POP POP SWAP3 SWAP2 POP POP JUMP JUMPDEST PUSH1 0x0 PUSH1 0x20 DUP3 DUP5 SUB SLT ISZERO PUSH2 0x1E25 JUMPI PUSH2 0x1E24 PUSH2 0x11D3 JUMP JUMPDEST JUMPDEST PUSH1 0x0 PUSH2 0x1E33 DUP5 DUP3 DUP6 ADD PUSH2 0x1444 JUMP JUMPDEST SWAP2 POP POP SWAP3 SWAP2 POP POP JUMP JUMPDEST PUSH2 0x1E45 DUP2 PUSH2 0x1727 JUMP JUMPDEST DUP2 EQ PUSH2 0x1E50 JUMPI PUSH1 0x0 DUP1 REVERT JUMPDEST POP JUMP JUMPDEST PUSH1 0x0 DUP2 CALLDATALOAD SWAP1 POP PUSH2 0x1E62 DUP2 PUSH2 0x1E3C JUMP JUMPDEST SWAP3 SWAP2 POP POP JUMP JUMPDEST PUSH1 0x0 PUSH1 0x20 DUP3 DUP5 SUB SLT ISZERO PUSH2 0x1E7E JUMPI PUSH2 0x1E7D PUSH2 0x11D3 JUMP JUMPDEST JUMPDEST PUSH1 0x0 PUSH2 0x1E8C DUP5 DUP3 DUP6 ADD PUSH2 0x1E53 JUMP JUMPDEST SWAP2 POP POP SWAP3 SWAP2 POP POP JUMP JUMPDEST PUSH1 0x0 DUP2 CALLDATALOAD SWAP1 POP PUSH2 0x1EA4 DUP2 PUSH2 0x189E JUMP JUMPDEST SWAP3 SWAP2 POP POP JUMP JUMPDEST PUSH1 0x0 PUSH1 0x20 DUP3 DUP5 SUB SLT ISZERO PUSH2 0x1EC0 JUMPI PUSH2 0x1EBF PUSH2 0x11D3 JUMP JUMPDEST JUMPDEST PUSH1 0x0 PUSH2 0x1ECE DUP5 DUP3 DUP6 ADD PUSH2 0x1E95 JUMP JUMPDEST SWAP2 POP POP SWAP3 SWAP2 POP POP JUMP JUMPDEST PUSH1 0x0 DUP1 REVERT JUMPDEST PUSH1 0x0 PUSH8 0xFFFFFFFFFFFFFFFF DUP3 GT ISZERO PUSH2 0x1EF7 JUMPI PUSH2 0x1EF6 PUSH2 0x1B75 JUMP JUMPDEST JUMPDEST PUSH2 0x1F00 DUP3 PUSH2 0x16BF JUMP JUMPDEST SWAP1 POP PUSH1 0x20 DUP2 ADD SWAP1 POP SWAP2 SWAP1 POP JUMP JUMPDEST DUP3 DUP2 DUP4 CALLDATACOPY PUSH1 0x0 DUP4 DUP4 ADD MSTORE POP POP POP JUMP JUMPDEST PUSH1 0x0 PUSH2 0x1F2F PUSH2 0x1F2A DUP5 PUSH2 0x1EDC JUMP JUMPDEST PUSH2 0x1BD5 JUMP JUMPDEST SWAP1 POP DUP3 DUP2 MSTORE PUSH1 0x20 DUP2 ADD DUP5 DUP5 DUP5 ADD GT ISZERO PUSH2 0x1F4B JUMPI PUSH2 0x1F4A PUSH2 0x1ED7 JUMP JUMPDEST JUMPDEST PUSH2 0x1F56 DUP5 DUP3 DUP6 PUSH2 0x1F0D JUMP JUMPDEST POP SWAP4 SWAP3 POP POP POP JUMP JUMPDEST PUSH1 0x0 DUP3 PUSH1 0x1F DUP4 ADD SLT PUSH2 0x1F73 JUMPI PUSH2 0x1F72 PUSH2 0x1318 JUMP JUMPDEST JUMPDEST DUP2 CALLDATALOAD PUSH2 0x1F83 DUP5 DUP3 PUSH1 0x20 DUP7 ADD PUSH2 0x1F1C JUMP JUMPDEST SWAP2 POP POP SWAP3 SWAP2 POP POP JUMP JUMPDEST PUSH1 0x0 PUSH1 0x20 DUP3 DUP5 SUB SLT ISZERO PUSH2 0x1FA2 JUMPI PUSH2 0x1FA1 PUSH2 0x11D3 JUMP JUMPDEST JUMPDEST PUSH1 0x0 DUP3 ADD CALLDATALOAD PUSH8 0xFFFFFFFFFFFFFFFF DUP2 GT ISZERO PUSH2 0x1FC0 JUMPI PUSH2 0x1FBF PUSH2 0x11D8 JUMP JUMPDEST JUMPDEST PUSH2 0x1FCC DUP5 DUP3 DUP6 ADD PUSH2 0x1F5E JUMP JUMPDEST SWAP2 POP POP SWAP3 SWAP2 POP POP JUMP JUMPDEST PUSH32 0x646174614465636F646572000000000000000000000000000000000000000000 PUSH1 0x0 DUP3 ADD MSTORE POP JUMP JUMPDEST PUSH1 0x0 PUSH2 0x200B PUSH1 0xB DUP4 PUSH2 0x1118 JUMP JUMPDEST SWAP2 POP PUSH2 0x2016 DUP3 PUSH2 0x1FD5 JUMP JUMPDEST PUSH1 0x20 DUP3 ADD SWAP1 POP SWAP2 SWAP1 POP JUMP JUMPDEST PUSH1 0x0 PUSH1 0x20 DUP3 ADD SWAP1 POP DUP2 DUP2 SUB PUSH1 0x0 DUP4 ADD MSTORE PUSH2 0x203A DUP2 PUSH2 0x1FFE JUMP JUMPDEST SWAP1 POP SWAP2 SWAP1 POP JUMP INVALID LOG2 PUSH5 0x6970667358 0x22 SLT KECCAK256 DIFFICULTY EXP 0x29 SGT 0x2C DUP7 GT 0xEC DUP4 CALL 0xCE BLOCKHASH BLOCKHASH DUP11 PUSH9 0x468B0CF8CA8F0D6E5F 0xC 0x23 DUP4 SWAP5 SLT MSTORE8 0xD9 0xC3 PUSH5 0x736F6C6343 STOP ADDMOD XOR STOP CALLER "
				},
				"gasEstimates": {
					"creation": {
						"codeDepositCost": "1662200",
						"executionCost": "infinite",
						"totalCost": "infinite"
					},
					"external": {
						"defiAction(bytes[],address)": "infinite",
						"depositFunds(address,uint256)": "infinite",
						"extraDefiActions(bytes[],address,address)": "infinite",
						"functions()": "infinite",
						"owners(address)": "2846",
						"roles()": "infinite",
						"wEth()": "2580",
						"withdrawFunds(address,uint256,address,address)": "infinite"
					},
					"internal": {
						"approve(address,uint256)": "infinite"
					}
				},
				"methodIdentifiers": {
					"defiAction(bytes[],address)": "6d070f4b",
					"depositFunds(address,uint256)": "921b004b",
					"extraDefiActions(bytes[],address,address)": "53a0f7b6",
					"functions()": "569560e8",
					"owners(address)": "022914a7",
					"roles()": "392f5f64",
					"wEth()": "df6d9212",
					"withdrawFunds(address,uint256,address,address)": "6ba3fef2"
				}
			},
			"storageLayout": {
				"storage": [
					{
						"astId": 110,
						"contract": "src/WalletContract.sol:WalletContract",
						"label": "owners",
						"offset": 0,
						"slot": "0",
						"type": "t_mapping(t_address,t_bool)"
					},
					{
						"astId": 113,
						"contract": "src/WalletContract.sol:WalletContract",
						"label": "functions",
						"offset": 0,
						"slot": "1",
						"type": "t_contract(IFunctions)631"
					},
					{
						"astId": 116,
						"contract": "src/WalletContract.sol:WalletContract",
						"label": "roles",
						"offset": 0,
						"slot": "2",
						"type": "t_contract(Roles)604"
					},
					{
						"astId": 118,
						"contract": "src/WalletContract.sol:WalletContract",
						"label": "wEth",
						"offset": 0,
						"slot": "3",
						"type": "t_address"
					},
					{
						"astId": 209,
						"contract": "src/WalletContract.sol:WalletContract",
						"label": "isHolded",
						"offset": 0,
						"slot": "4",
						"type": "t_mapping(t_address,t_bool)"
					}
				],
				"types": {
					"t_address": {
						"encoding": "inplace",
						"label": "address",
						"numberOfBytes": "20"
					},
					"t_bool": {
						"encoding": "inplace",
						"label": "bool",
						"numberOfBytes": "1"
					},
					"t_contract(IFunctions)631": {
						"encoding": "inplace",
						"label": "contract IFunctions",
						"numberOfBytes": "20"
					},
					"t_contract(Roles)604": {
						"encoding": "inplace",
						"label": "contract Roles",
						"numberOfBytes": "20"
					},
					"t_mapping(t_address,t_bool)": {
						"encoding": "mapping",
						"key": "t_address",
						"label": "mapping(address => bool)",
						"numberOfBytes": "32",
						"value": "t_bool"
					}
				}
			},
			"userdoc": {
				"kind": "user",
				"methods": {},
				"notice": "User interacts with this contract trough `main.sol`         Type1 means that user can use this contract as wallet to hold Funds",
				"version": 1
			}
		}
	}
}