{
	"src/MainDataStorage.sol": {
		"MainDataStorage": {
			"abi": [
				{
					"inputs": [
						{
							"internalType": "address",
							"name": "_roles",
							"type": "address"
						},
						{
							"internalType": "address",
							"name": "_functions",
							"type": "address"
						},
						{
							"internalType": "address",
							"name": "_wEth",
							"type": "address"
						}
					],
					"stateMutability": "nonpayable",
					"type": "constructor"
				},
				{
					"inputs": [
						{
							"internalType": "address",
							"name": "contractAddress",
							"type": "address"
						},
						{
							"internalType": "address",
							"name": "user",
							"type": "address"
						}
					],
					"name": "UserAccountExist",
					"type": "error"
				},
				{
					"anonymous": false,
					"inputs": [
						{
							"indexed": true,
							"internalType": "address",
							"name": "user",
							"type": "address"
						},
						{
							"indexed": true,
							"internalType": "address",
							"name": "contractAddress",
							"type": "address"
						}
					],
					"name": "UserCreated",
					"type": "event"
				},
				{
					"inputs": [
						{
							"internalType": "address",
							"name": "_newUser",
							"type": "address"
						},
						{
							"internalType": "address",
							"name": "_newContract",
							"type": "address"
						},
						{
							"internalType": "uint8",
							"name": "_contractType",
							"type": "uint8"
						}
					],
					"name": "createUser",
					"outputs": [],
					"stateMutability": "nonpayable",
					"type": "function"
				},
				{
					"inputs": [],
					"name": "functions",
					"outputs": [
						{
							"internalType": "address",
							"name": "",
							"type": "address"
						}
					],
					"stateMutability": "view",
					"type": "function"
				},
				{
					"inputs": [],
					"name": "getContracts",
					"outputs": [
						{
							"internalType": "address",
							"name": "",
							"type": "address"
						},
						{
							"internalType": "address",
							"name": "",
							"type": "address"
						},
						{
							"internalType": "address",
							"name": "",
							"type": "address"
						}
					],
					"stateMutability": "view",
					"type": "function"
				},
				{
					"inputs": [
						{
							"internalType": "address",
							"name": "account",
							"type": "address"
						}
					],
					"name": "getUserData",
					"outputs": [
						{
							"components": [
								{
									"internalType": "address",
									"name": "contractAddress",
									"type": "address"
								},
								{
									"internalType": "uint8",
									"name": "contractType",
									"type": "uint8"
								}
							],
							"internalType": "struct UsersLib.User",
							"name": "",
							"type": "tuple"
						}
					],
					"stateMutability": "view",
					"type": "function"
				},
				{
					"inputs": [],
					"name": "roles",
					"outputs": [
						{
							"internalType": "contract Roles",
							"name": "",
							"type": "address"
						}
					],
					"stateMutability": "view",
					"type": "function"
				},
				{
					"inputs": [
						{
							"internalType": "address",
							"name": "_newFunctions",
							"type": "address"
						}
					],
					"name": "setFunctions",
					"outputs": [],
					"stateMutability": "nonpayable",
					"type": "function"
				},
				{
					"inputs": [],
					"name": "wEth",
					"outputs": [
						{
							"internalType": "address",
							"name": "",
							"type": "address"
						}
					],
					"stateMutability": "view",
					"type": "function"
				}
			],
			"devdoc": {
				"author": "AVZ.Tech",
				"kind": "dev",
				"methods": {
					"createUser(address,address,uint8)": {
						"details": "This function is restricted to Protocol addresses through the       `onlyProtocol` modifier. It checks if the user already exists       and initializes their data using the `UsersLib.User` structure.",
						"params": {
							"_contractType": "Specifies the type of contract:       1 for walletContracts and 2 for onlyExecutionContracts.",
							"_newContract": "The address of the contract created by the user.",
							"_newUser": "The address of the new user to register."
						}
					}
				},
				"version": 1
			},
			"evm": {
				"assembly": "    /* \"src/MainDataStorage.sol\":218:3271  contract MainDataStorage {... */\n  mstore(0x40, 0x80)\n    /* \"src/MainDataStorage.sol\":338:497  constructor(address _roles, address _functions, address _wEth) {... */\n  callvalue\n  dup1\n  iszero\n  tag_1\n  jumpi\n  0x00\n  dup1\n  revert\ntag_1:\n  pop\n  mload(0x40)\n  sub(codesize, bytecodeSize)\n  dup1\n  bytecodeSize\n  dup4\n  codecopy\n  dup2\n  dup2\n  add\n  0x40\n  mstore\n  dup2\n  add\n  swap1\n  tag_2\n  swap2\n  swap1\n  tag_3\n  jump\t// in\ntag_2:\n    /* \"src/MainDataStorage.sol\":426:432  _roles */\n  dup3\n    /* \"src/MainDataStorage.sol\":412:417  roles */\n  0x00\n  dup1\n    /* \"src/MainDataStorage.sol\":412:433  roles = Roles(_roles) */\n  0x0100\n  exp\n  dup2\n  sload\n  dup2\n  0xffffffffffffffffffffffffffffffffffffffff\n  mul\n  not\n  and\n  swap1\n  dup4\n  0xffffffffffffffffffffffffffffffffffffffff\n  and\n  mul\n  or\n  swap1\n  sstore\n  pop\n    /* \"src/MainDataStorage.sol\":456:466  _functions */\n  dup2\n    /* \"src/MainDataStorage.sol\":444:453  functions */\n  0x01\n  0x00\n    /* \"src/MainDataStorage.sol\":444:466  functions = _functions */\n  0x0100\n  exp\n  dup2\n  sload\n  dup2\n  0xffffffffffffffffffffffffffffffffffffffff\n  mul\n  not\n  and\n  swap1\n  dup4\n  0xffffffffffffffffffffffffffffffffffffffff\n  and\n  mul\n  or\n  swap1\n  sstore\n  pop\n    /* \"src/MainDataStorage.sol\":484:489  _wEth */\n  dup1\n    /* \"src/MainDataStorage.sol\":477:481  wEth */\n  0x02\n  0x00\n    /* \"src/MainDataStorage.sol\":477:489  wEth = _wEth */\n  0x0100\n  exp\n  dup2\n  sload\n  dup2\n  0xffffffffffffffffffffffffffffffffffffffff\n  mul\n  not\n  and\n  swap1\n  dup4\n  0xffffffffffffffffffffffffffffffffffffffff\n  and\n  mul\n  or\n  swap1\n  sstore\n  pop\n    /* \"src/MainDataStorage.sol\":338:497  constructor(address _roles, address _functions, address _wEth) {... */\n  pop\n  pop\n  pop\n    /* \"src/MainDataStorage.sol\":218:3271  contract MainDataStorage {... */\n  jump(tag_6)\n    /* \"#utility.yul\":88:205   */\ntag_8:\n    /* \"#utility.yul\":197:198   */\n  0x00\n    /* \"#utility.yul\":194:195   */\n  dup1\n    /* \"#utility.yul\":187:199   */\n  revert\n    /* \"#utility.yul\":334:460   */\ntag_10:\n    /* \"#utility.yul\":371:378   */\n  0x00\n    /* \"#utility.yul\":411:453   */\n  0xffffffffffffffffffffffffffffffffffffffff\n    /* \"#utility.yul\":404:409   */\n  dup3\n    /* \"#utility.yul\":400:454   */\n  and\n    /* \"#utility.yul\":389:454   */\n  swap1\n  pop\n    /* \"#utility.yul\":334:460   */\n  swap2\n  swap1\n  pop\n  jump\t// out\n    /* \"#utility.yul\":466:562   */\ntag_11:\n    /* \"#utility.yul\":503:510   */\n  0x00\n    /* \"#utility.yul\":532:556   */\n  tag_20\n    /* \"#utility.yul\":550:555   */\n  dup3\n    /* \"#utility.yul\":532:556   */\n  tag_10\n  jump\t// in\ntag_20:\n    /* \"#utility.yul\":521:556   */\n  swap1\n  pop\n    /* \"#utility.yul\":466:562   */\n  swap2\n  swap1\n  pop\n  jump\t// out\n    /* \"#utility.yul\":568:690   */\ntag_12:\n    /* \"#utility.yul\":641:665   */\n  tag_22\n    /* \"#utility.yul\":659:664   */\n  dup2\n    /* \"#utility.yul\":641:665   */\n  tag_11\n  jump\t// in\ntag_22:\n    /* \"#utility.yul\":634:639   */\n  dup2\n    /* \"#utility.yul\":631:666   */\n  eq\n    /* \"#utility.yul\":621:684   */\n  tag_23\n  jumpi\n    /* \"#utility.yul\":680:681   */\n  0x00\n    /* \"#utility.yul\":677:678   */\n  dup1\n    /* \"#utility.yul\":670:682   */\n  revert\n    /* \"#utility.yul\":621:684   */\ntag_23:\n    /* \"#utility.yul\":568:690   */\n  pop\n  jump\t// out\n    /* \"#utility.yul\":696:839   */\ntag_13:\n    /* \"#utility.yul\":753:758   */\n  0x00\n    /* \"#utility.yul\":784:790   */\n  dup2\n    /* \"#utility.yul\":778:791   */\n  mload\n    /* \"#utility.yul\":769:791   */\n  swap1\n  pop\n    /* \"#utility.yul\":800:833   */\n  tag_25\n    /* \"#utility.yul\":827:832   */\n  dup2\n    /* \"#utility.yul\":800:833   */\n  tag_12\n  jump\t// in\ntag_25:\n    /* \"#utility.yul\":696:839   */\n  swap3\n  swap2\n  pop\n  pop\n  jump\t// out\n    /* \"#utility.yul\":845:1508   */\ntag_3:\n    /* \"#utility.yul\":933:939   */\n  0x00\n    /* \"#utility.yul\":941:947   */\n  dup1\n    /* \"#utility.yul\":949:955   */\n  0x00\n    /* \"#utility.yul\":998:1000   */\n  0x60\n    /* \"#utility.yul\":986:995   */\n  dup5\n    /* \"#utility.yul\":977:984   */\n  dup7\n    /* \"#utility.yul\":973:996   */\n  sub\n    /* \"#utility.yul\":969:1001   */\n  slt\n    /* \"#utility.yul\":966:1085   */\n  iszero\n  tag_27\n  jumpi\n    /* \"#utility.yul\":1004:1083   */\n  tag_28\n  tag_8\n  jump\t// in\ntag_28:\n    /* \"#utility.yul\":966:1085   */\ntag_27:\n    /* \"#utility.yul\":1124:1125   */\n  0x00\n    /* \"#utility.yul\":1149:1213   */\n  tag_29\n    /* \"#utility.yul\":1205:1212   */\n  dup7\n    /* \"#utility.yul\":1196:1202   */\n  dup3\n    /* \"#utility.yul\":1185:1194   */\n  dup8\n    /* \"#utility.yul\":1181:1203   */\n  add\n    /* \"#utility.yul\":1149:1213   */\n  tag_13\n  jump\t// in\ntag_29:\n    /* \"#utility.yul\":1139:1213   */\n  swap4\n  pop\n    /* \"#utility.yul\":1095:1223   */\n  pop\n    /* \"#utility.yul\":1262:1264   */\n  0x20\n    /* \"#utility.yul\":1288:1352   */\n  tag_30\n    /* \"#utility.yul\":1344:1351   */\n  dup7\n    /* \"#utility.yul\":1335:1341   */\n  dup3\n    /* \"#utility.yul\":1324:1333   */\n  dup8\n    /* \"#utility.yul\":1320:1342   */\n  add\n    /* \"#utility.yul\":1288:1352   */\n  tag_13\n  jump\t// in\ntag_30:\n    /* \"#utility.yul\":1278:1352   */\n  swap3\n  pop\n    /* \"#utility.yul\":1233:1362   */\n  pop\n    /* \"#utility.yul\":1401:1403   */\n  0x40\n    /* \"#utility.yul\":1427:1491   */\n  tag_31\n    /* \"#utility.yul\":1483:1490   */\n  dup7\n    /* \"#utility.yul\":1474:1480   */\n  dup3\n    /* \"#utility.yul\":1463:1472   */\n  dup8\n    /* \"#utility.yul\":1459:1481   */\n  add\n    /* \"#utility.yul\":1427:1491   */\n  tag_13\n  jump\t// in\ntag_31:\n    /* \"#utility.yul\":1417:1491   */\n  swap2\n  pop\n    /* \"#utility.yul\":1372:1501   */\n  pop\n    /* \"#utility.yul\":845:1508   */\n  swap3\n  pop\n  swap3\n  pop\n  swap3\n  jump\t// out\n    /* \"src/MainDataStorage.sol\":218:3271  contract MainDataStorage {... */\ntag_6:\n  dataSize(sub_0)\n  dup1\n  dataOffset(sub_0)\n  0x00\n  codecopy\n  0x00\n  return\nstop\n\nsub_0: assembly {\n        /* \"src/MainDataStorage.sol\":218:3271  contract MainDataStorage {... */\n      mstore(0x40, 0x80)\n      callvalue\n      dup1\n      iszero\n      tag_1\n      jumpi\n      0x00\n      dup1\n      revert\n    tag_1:\n      pop\n      jumpi(tag_2, lt(calldatasize, 0x04))\n      shr(0xe0, calldataload(0x00))\n      dup1\n      0xc3a2a93a\n      gt\n      tag_10\n      jumpi\n      dup1\n      0xc3a2a93a\n      eq\n      tag_6\n      jumpi\n      dup1\n      0xd155341b\n      eq\n      tag_7\n      jumpi\n      dup1\n      0xdf6d9212\n      eq\n      tag_8\n      jumpi\n      dup1\n      0xffc9896b\n      eq\n      tag_9\n      jumpi\n      jump(tag_2)\n    tag_10:\n      dup1\n      0x392f5f64\n      eq\n      tag_3\n      jumpi\n      dup1\n      0x49eb133f\n      eq\n      tag_4\n      jumpi\n      dup1\n      0x569560e8\n      eq\n      tag_5\n      jumpi\n    tag_2:\n      0x00\n      dup1\n      revert\n        /* \"src/MainDataStorage.sol\":252:270  Roles public roles */\n    tag_3:\n      tag_11\n      tag_12\n      jump\t// in\n    tag_11:\n      mload(0x40)\n      tag_13\n      swap2\n      swap1\n      tag_14\n      jump\t// in\n    tag_13:\n      mload(0x40)\n      dup1\n      swap2\n      sub\n      swap1\n      return\n        /* \"src/MainDataStorage.sol\":2974:3080  function setFunctions(address _newFunctions) public onlyAdmins{... */\n    tag_4:\n      tag_15\n      0x04\n      dup1\n      calldatasize\n      sub\n      dup2\n      add\n      swap1\n      tag_16\n      swap2\n      swap1\n      tag_17\n      jump\t// in\n    tag_16:\n      tag_18\n      jump\t// in\n    tag_15:\n      stop\n        /* \"src/MainDataStorage.sol\":279:303  address public functions */\n    tag_5:\n      tag_19\n      tag_20\n      jump\t// in\n    tag_19:\n      mload(0x40)\n      tag_21\n      swap2\n      swap1\n      tag_22\n      jump\t// in\n    tag_21:\n      mload(0x40)\n      dup1\n      swap2\n      sub\n      swap1\n      return\n        /* \"src/MainDataStorage.sol\":3088:3266  function getContracts() public view returns(address, address, address){... */\n    tag_6:\n      tag_23\n      tag_24\n      jump\t// in\n    tag_23:\n      mload(0x40)\n      tag_25\n      swap4\n      swap3\n      swap2\n      swap1\n      tag_26\n      jump\t// in\n    tag_25:\n      mload(0x40)\n      dup1\n      swap2\n      sub\n      swap1\n      return\n        /* \"src/MainDataStorage.sol\":2170:2832  function createUser(... */\n    tag_7:\n      tag_27\n      0x04\n      dup1\n      calldatasize\n      sub\n      dup2\n      add\n      swap1\n      tag_28\n      swap2\n      swap1\n      tag_29\n      jump\t// in\n    tag_28:\n      tag_30\n      jump\t// in\n    tag_27:\n      stop\n        /* \"src/MainDataStorage.sol\":310:329  address public wEth */\n    tag_8:\n      tag_31\n      tag_32\n      jump\t// in\n    tag_31:\n      mload(0x40)\n      tag_33\n      swap2\n      swap1\n      tag_22\n      jump\t// in\n    tag_33:\n      mload(0x40)\n      dup1\n      swap2\n      sub\n      swap1\n      return\n        /* \"src/MainDataStorage.sol\":2840:2964  function getUserData(address account) external view returns(UsersLib.User memory){... */\n    tag_9:\n      tag_34\n      0x04\n      dup1\n      calldatasize\n      sub\n      dup2\n      add\n      swap1\n      tag_35\n      swap2\n      swap1\n      tag_17\n      jump\t// in\n    tag_35:\n      tag_36\n      jump\t// in\n    tag_34:\n      mload(0x40)\n      tag_37\n      swap2\n      swap1\n      tag_38\n      jump\t// in\n    tag_37:\n      mload(0x40)\n      dup1\n      swap2\n      sub\n      swap1\n      return\n        /* \"src/MainDataStorage.sol\":252:270  Roles public roles */\n    tag_12:\n      0x00\n      dup1\n      sload\n      swap1\n      0x0100\n      exp\n      swap1\n      div\n      0xffffffffffffffffffffffffffffffffffffffff\n      and\n      dup2\n      jump\t// out\n        /* \"src/MainDataStorage.sol\":2974:3080  function setFunctions(address _newFunctions) public onlyAdmins{... */\n    tag_18:\n        /* \"src/MainDataStorage.sol\":914:919  roles */\n      0x00\n      dup1\n      sload\n      swap1\n      0x0100\n      exp\n      swap1\n      div\n      0xffffffffffffffffffffffffffffffffffffffff\n      and\n        /* \"src/MainDataStorage.sol\":914:927  roles.isAdmin */\n      0xffffffffffffffffffffffffffffffffffffffff\n      and\n      0x24d7806c\n        /* \"src/MainDataStorage.sol\":928:938  msg.sender */\n      caller\n        /* \"src/MainDataStorage.sol\":914:939  roles.isAdmin(msg.sender) */\n      mload(0x40)\n      dup3\n      0xffffffff\n      and\n      0xe0\n      shl\n      dup2\n      mstore\n      0x04\n      add\n      tag_40\n      swap2\n      swap1\n      tag_22\n      jump\t// in\n    tag_40:\n      0x20\n      mload(0x40)\n      dup1\n      dup4\n      sub\n      dup2\n      dup7\n      gas\n      staticcall\n      iszero\n      dup1\n      iszero\n      tag_42\n      jumpi\n      returndatasize\n      0x00\n      dup1\n      returndatacopy\n      revert(0x00, returndatasize)\n    tag_42:\n      pop\n      pop\n      pop\n      pop\n      mload(0x40)\n      returndatasize\n      not(0x1f)\n      0x1f\n      dup3\n      add\n      and\n      dup3\n      add\n      dup1\n      0x40\n      mstore\n      pop\n      dup2\n      add\n      swap1\n      tag_43\n      swap2\n      swap1\n      tag_44\n      jump\t// in\n    tag_43:\n        /* \"src/MainDataStorage.sol\":906:979  require(roles.isAdmin(msg.sender), \"Only Admins can call this functions\") */\n      tag_45\n      jumpi\n      mload(0x40)\n      0x08c379a000000000000000000000000000000000000000000000000000000000\n      dup2\n      mstore\n      0x04\n      add\n      tag_46\n      swap1\n      tag_47\n      jump\t// in\n    tag_46:\n      mload(0x40)\n      dup1\n      swap2\n      sub\n      swap1\n      revert\n    tag_45:\n        /* \"src/MainDataStorage.sol\":3059:3072  _newFunctions */\n      dup1\n        /* \"src/MainDataStorage.sol\":3047:3056  functions */\n      0x01\n      0x00\n        /* \"src/MainDataStorage.sol\":3047:3072  functions = _newFunctions */\n      0x0100\n      exp\n      dup2\n      sload\n      dup2\n      0xffffffffffffffffffffffffffffffffffffffff\n      mul\n      not\n      and\n      swap1\n      dup4\n      0xffffffffffffffffffffffffffffffffffffffff\n      and\n      mul\n      or\n      swap1\n      sstore\n      pop\n        /* \"src/MainDataStorage.sol\":2974:3080  function setFunctions(address _newFunctions) public onlyAdmins{... */\n      pop\n      jump\t// out\n        /* \"src/MainDataStorage.sol\":279:303  address public functions */\n    tag_20:\n      0x01\n      0x00\n      swap1\n      sload\n      swap1\n      0x0100\n      exp\n      swap1\n      div\n      0xffffffffffffffffffffffffffffffffffffffff\n      and\n      dup2\n      jump\t// out\n        /* \"src/MainDataStorage.sol\":3088:3266  function getContracts() public view returns(address, address, address){... */\n    tag_24:\n        /* \"src/MainDataStorage.sol\":3132:3139  address */\n      0x00\n        /* \"src/MainDataStorage.sol\":3141:3148  address */\n      dup1\n        /* \"src/MainDataStorage.sol\":3150:3157  address */\n      0x00\n        /* \"src/MainDataStorage.sol\":3190:3199  functions */\n      0x01\n      0x00\n      swap1\n      sload\n      swap1\n      0x0100\n      exp\n      swap1\n      div\n      0xffffffffffffffffffffffffffffffffffffffff\n      and\n        /* \"src/MainDataStorage.sol\":3222:3227  roles */\n      0x00\n      dup1\n      sload\n      swap1\n      0x0100\n      exp\n      swap1\n      div\n      0xffffffffffffffffffffffffffffffffffffffff\n      and\n        /* \"src/MainDataStorage.sol\":3243:3247  wEth */\n      0x02\n      0x00\n      swap1\n      sload\n      swap1\n      0x0100\n      exp\n      swap1\n      div\n      0xffffffffffffffffffffffffffffffffffffffff\n      and\n        /* \"src/MainDataStorage.sol\":3169:3258  return(... */\n      swap3\n      pop\n      swap3\n      pop\n      swap3\n      pop\n        /* \"src/MainDataStorage.sol\":3088:3266  function getContracts() public view returns(address, address, address){... */\n      swap1\n      swap2\n      swap3\n      jump\t// out\n        /* \"src/MainDataStorage.sol\":2170:2832  function createUser(... */\n    tag_30:\n        /* \"src/MainDataStorage.sol\":1145:1160  bool isProtocol */\n      0x00\n        /* \"src/MainDataStorage.sol\":1163:1168  roles */\n      dup1\n      0x00\n      swap1\n      sload\n      swap1\n      0x0100\n      exp\n      swap1\n      div\n      0xffffffffffffffffffffffffffffffffffffffff\n      and\n        /* \"src/MainDataStorage.sol\":1163:1187  roles.isProtocolContract */\n      0xffffffffffffffffffffffffffffffffffffffff\n      and\n      0x9feb2c45\n        /* \"src/MainDataStorage.sol\":1188:1198  msg.sender */\n      caller\n        /* \"src/MainDataStorage.sol\":1163:1199  roles.isProtocolContract(msg.sender) */\n      mload(0x40)\n      dup3\n      0xffffffff\n      and\n      0xe0\n      shl\n      dup2\n      mstore\n      0x04\n      add\n      tag_51\n      swap2\n      swap1\n      tag_22\n      jump\t// in\n    tag_51:\n      0x20\n      mload(0x40)\n      dup1\n      dup4\n      sub\n      dup2\n      dup7\n      gas\n      staticcall\n      iszero\n      dup1\n      iszero\n      tag_53\n      jumpi\n      returndatasize\n      0x00\n      dup1\n      returndatacopy\n      revert(0x00, returndatasize)\n    tag_53:\n      pop\n      pop\n      pop\n      pop\n      mload(0x40)\n      returndatasize\n      not(0x1f)\n      0x1f\n      dup3\n      add\n      and\n      dup3\n      add\n      dup1\n      0x40\n      mstore\n      pop\n      dup2\n      add\n      swap1\n      tag_54\n      swap2\n      swap1\n      tag_44\n      jump\t// in\n    tag_54:\n        /* \"src/MainDataStorage.sol\":1145:1199  bool isProtocol = roles.isProtocolContract(msg.sender) */\n      swap1\n      pop\n        /* \"src/MainDataStorage.sol\":1210:1222  bool isAdmin */\n      0x00\n        /* \"src/MainDataStorage.sol\":1225:1230  roles */\n      dup1\n      0x00\n      swap1\n      sload\n      swap1\n      0x0100\n      exp\n      swap1\n      div\n      0xffffffffffffffffffffffffffffffffffffffff\n      and\n        /* \"src/MainDataStorage.sol\":1225:1238  roles.isAdmin */\n      0xffffffffffffffffffffffffffffffffffffffff\n      and\n      0x24d7806c\n        /* \"src/MainDataStorage.sol\":1239:1249  msg.sender */\n      caller\n        /* \"src/MainDataStorage.sol\":1225:1250  roles.isAdmin(msg.sender) */\n      mload(0x40)\n      dup3\n      0xffffffff\n      and\n      0xe0\n      shl\n      dup2\n      mstore\n      0x04\n      add\n      tag_55\n      swap2\n      swap1\n      tag_22\n      jump\t// in\n    tag_55:\n      0x20\n      mload(0x40)\n      dup1\n      dup4\n      sub\n      dup2\n      dup7\n      gas\n      staticcall\n      iszero\n      dup1\n      iszero\n      tag_57\n      jumpi\n      returndatasize\n      0x00\n      dup1\n      returndatacopy\n      revert(0x00, returndatasize)\n    tag_57:\n      pop\n      pop\n      pop\n      pop\n      mload(0x40)\n      returndatasize\n      not(0x1f)\n      0x1f\n      dup3\n      add\n      and\n      dup3\n      add\n      dup1\n      0x40\n      mstore\n      pop\n      dup2\n      add\n      swap1\n      tag_58\n      swap2\n      swap1\n      tag_44\n      jump\t// in\n    tag_58:\n        /* \"src/MainDataStorage.sol\":1210:1250  bool isAdmin = roles.isAdmin(msg.sender) */\n      swap1\n      pop\n        /* \"src/MainDataStorage.sol\":1269:1276  isAdmin */\n      dup1\n        /* \"src/MainDataStorage.sol\":1269:1290  isAdmin || isProtocol */\n      dup1\n      tag_59\n      jumpi\n      pop\n        /* \"src/MainDataStorage.sol\":1280:1290  isProtocol */\n      dup2\n        /* \"src/MainDataStorage.sol\":1269:1290  isAdmin || isProtocol */\n    tag_59:\n        /* \"src/MainDataStorage.sol\":1261:1342  require(isAdmin || isProtocol, \"Only Admins or Protocol can call this functions\") */\n      tag_60\n      jumpi\n      mload(0x40)\n      0x08c379a000000000000000000000000000000000000000000000000000000000\n      dup2\n      mstore\n      0x04\n      add\n      tag_61\n      swap1\n      tag_62\n      jump\t// in\n    tag_61:\n      mload(0x40)\n      dup1\n      swap2\n      sub\n      swap1\n      revert\n    tag_60:\n        /* \"src/MainDataStorage.sol\":2345:2362  address _contract */\n      0x00\n        /* \"src/MainDataStorage.sol\":2365:2372  clients */\n      0x03\n        /* \"src/MainDataStorage.sol\":2365:2382  clients[_newUser] */\n      0x00\n        /* \"src/MainDataStorage.sol\":2373:2381  _newUser */\n      dup8\n        /* \"src/MainDataStorage.sol\":2365:2382  clients[_newUser] */\n      0xffffffffffffffffffffffffffffffffffffffff\n      and\n      0xffffffffffffffffffffffffffffffffffffffff\n      and\n      dup2\n      mstore\n      0x20\n      add\n      swap1\n      dup2\n      mstore\n      0x20\n      add\n      0x00\n      keccak256\n        /* \"src/MainDataStorage.sol\":2365:2398  clients[_newUser].contractAddress */\n      0x00\n      add\n      0x00\n      swap1\n      sload\n      swap1\n      0x0100\n      exp\n      swap1\n      div\n      0xffffffffffffffffffffffffffffffffffffffff\n      and\n        /* \"src/MainDataStorage.sol\":2345:2398  address _contract = clients[_newUser].contractAddress */\n      swap1\n      pop\n        /* \"src/MainDataStorage.sol\":2413:2430  bool isRegistered */\n      0x00\n        /* \"src/MainDataStorage.sol\":2472:2473  0 */\n      dup1\n        /* \"src/MainDataStorage.sol\":2451:2474  _contract == address(0) */\n      0xffffffffffffffffffffffffffffffffffffffff\n      and\n        /* \"src/MainDataStorage.sol\":2451:2460  _contract */\n      dup3\n        /* \"src/MainDataStorage.sol\":2451:2474  _contract == address(0) */\n      0xffffffffffffffffffffffffffffffffffffffff\n      and\n      eq\n        /* \"src/MainDataStorage.sol\":2451:2489  _contract == address(0) ? false : true */\n      tag_64\n      jumpi\n        /* \"src/MainDataStorage.sol\":2485:2489  true */\n      0x01\n        /* \"src/MainDataStorage.sol\":2451:2489  _contract == address(0) ? false : true */\n      jump(tag_65)\n    tag_64:\n        /* \"src/MainDataStorage.sol\":2477:2482  false */\n      0x00\n        /* \"src/MainDataStorage.sol\":2451:2489  _contract == address(0) ? false : true */\n    tag_65:\n        /* \"src/MainDataStorage.sol\":2413:2489  bool isRegistered = ... */\n      swap1\n      pop\n        /* \"src/MainDataStorage.sol\":2507:2519  isRegistered */\n      dup1\n        /* \"src/MainDataStorage.sol\":2504:2583  if(isRegistered) ... */\n      iszero\n      tag_66\n      jumpi\n        /* \"src/MainDataStorage.sol\":2563:2572  _contract */\n      dup2\n        /* \"src/MainDataStorage.sol\":2574:2582  _newUser */\n      dup8\n        /* \"src/MainDataStorage.sol\":2546:2583  UserAccountExist(_contract, _newUser) */\n      mload(0x40)\n      0xe265221700000000000000000000000000000000000000000000000000000000\n      dup2\n      mstore\n      0x04\n      add\n      tag_67\n      swap3\n      swap2\n      swap1\n      tag_68\n      jump\t// in\n    tag_67:\n      mload(0x40)\n      dup1\n      swap2\n      sub\n      swap1\n      revert\n        /* \"src/MainDataStorage.sol\":2504:2583  if(isRegistered) ... */\n    tag_66:\n        /* \"src/MainDataStorage.sol\":2598:2629  UsersLib.User memory _newClient */\n      0x00\n        /* \"src/MainDataStorage.sol\":2632:2724  UsersLib.User(... */\n      mload(0x40)\n      dup1\n      0x40\n      add\n      0x40\n      mstore\n      dup1\n        /* \"src/MainDataStorage.sol\":2664:2676  _newContract */\n      dup9\n        /* \"src/MainDataStorage.sol\":2632:2724  UsersLib.User(... */\n      0xffffffffffffffffffffffffffffffffffffffff\n      and\n      dup2\n      mstore\n      0x20\n      add\n        /* \"src/MainDataStorage.sol\":2696:2709  _contractType */\n      dup8\n        /* \"src/MainDataStorage.sol\":2632:2724  UsersLib.User(... */\n      0xff\n      and\n      dup2\n      mstore\n      pop\n        /* \"src/MainDataStorage.sol\":2598:2724  UsersLib.User memory _newClient = UsersLib.User(... */\n      swap1\n      pop\n        /* \"src/MainDataStorage.sol\":2759:2769  _newClient */\n      dup1\n        /* \"src/MainDataStorage.sol\":2739:2746  clients */\n      0x03\n        /* \"src/MainDataStorage.sol\":2739:2756  clients[_newUser] */\n      0x00\n        /* \"src/MainDataStorage.sol\":2747:2755  _newUser */\n      dup11\n        /* \"src/MainDataStorage.sol\":2739:2756  clients[_newUser] */\n      0xffffffffffffffffffffffffffffffffffffffff\n      and\n      0xffffffffffffffffffffffffffffffffffffffff\n      and\n      dup2\n      mstore\n      0x20\n      add\n      swap1\n      dup2\n      mstore\n      0x20\n      add\n      0x00\n      keccak256\n        /* \"src/MainDataStorage.sol\":2739:2769  clients[_newUser] = _newClient */\n      0x00\n      dup3\n      add\n      mload\n      dup2\n      0x00\n      add\n      exp(0x0100, 0x00)\n      dup2\n      sload\n      dup2\n      0xffffffffffffffffffffffffffffffffffffffff\n      mul\n      not\n      and\n      swap1\n      dup4\n      0xffffffffffffffffffffffffffffffffffffffff\n      and\n      mul\n      or\n      swap1\n      sstore\n      pop\n      0x20\n      dup3\n      add\n      mload\n      dup2\n      0x00\n      add\n      exp(0x0100, 0x14)\n      dup2\n      sload\n      dup2\n      0xff\n      mul\n      not\n      and\n      swap1\n      dup4\n      0xff\n      and\n      mul\n      or\n      swap1\n      sstore\n      pop\n      swap1\n      pop\n      pop\n        /* \"src/MainDataStorage.sol\":2811:2823  _newContract */\n      dup7\n        /* \"src/MainDataStorage.sol\":2789:2824  UserCreated(_newUser, _newContract) */\n      0xffffffffffffffffffffffffffffffffffffffff\n      and\n        /* \"src/MainDataStorage.sol\":2801:2809  _newUser */\n      dup9\n        /* \"src/MainDataStorage.sol\":2789:2824  UserCreated(_newUser, _newContract) */\n      0xffffffffffffffffffffffffffffffffffffffff\n      and\n      0x263d398af3bd0e797da25e9dc29a23286e999826d13a16fca996d1ddd1eb5281\n      mload(0x40)\n      mload(0x40)\n      dup1\n      swap2\n      sub\n      swap1\n      log3\n        /* \"src/MainDataStorage.sol\":2330:2832  {... */\n      pop\n      pop\n      pop\n        /* \"src/MainDataStorage.sol\":1134:1362  {... */\n      pop\n      pop\n        /* \"src/MainDataStorage.sol\":2170:2832  function createUser(... */\n      pop\n      pop\n      pop\n      jump\t// out\n        /* \"src/MainDataStorage.sol\":310:329  address public wEth */\n    tag_32:\n      0x02\n      0x00\n      swap1\n      sload\n      swap1\n      0x0100\n      exp\n      swap1\n      div\n      0xffffffffffffffffffffffffffffffffffffffff\n      and\n      dup2\n      jump\t// out\n        /* \"src/MainDataStorage.sol\":2840:2964  function getUserData(address account) external view returns(UsersLib.User memory){... */\n    tag_36:\n        /* \"src/MainDataStorage.sol\":2900:2920  UsersLib.User memory */\n      tag_69\n      tag_70\n      jump\t// in\n    tag_69:\n        /* \"src/MainDataStorage.sol\":2939:2946  clients */\n      0x03\n        /* \"src/MainDataStorage.sol\":2939:2955  clients[account] */\n      0x00\n        /* \"src/MainDataStorage.sol\":2947:2954  account */\n      dup4\n        /* \"src/MainDataStorage.sol\":2939:2955  clients[account] */\n      0xffffffffffffffffffffffffffffffffffffffff\n      and\n      0xffffffffffffffffffffffffffffffffffffffff\n      and\n      dup2\n      mstore\n      0x20\n      add\n      swap1\n      dup2\n      mstore\n      0x20\n      add\n      0x00\n      keccak256\n        /* \"src/MainDataStorage.sol\":2932:2956  return(clients[account]) */\n      mload(0x40)\n      dup1\n      0x40\n      add\n      0x40\n      mstore\n      swap1\n      dup2\n      0x00\n      dup3\n      add\n      0x00\n      swap1\n      sload\n      swap1\n      0x0100\n      exp\n      swap1\n      div\n      0xffffffffffffffffffffffffffffffffffffffff\n      and\n      0xffffffffffffffffffffffffffffffffffffffff\n      and\n      0xffffffffffffffffffffffffffffffffffffffff\n      and\n      dup2\n      mstore\n      0x20\n      add\n      0x00\n      dup3\n      add\n      0x14\n      swap1\n      sload\n      swap1\n      0x0100\n      exp\n      swap1\n      div\n      0xff\n      and\n      0xff\n      and\n      0xff\n      and\n      dup2\n      mstore\n      pop\n      pop\n      swap1\n      pop\n        /* \"src/MainDataStorage.sol\":2840:2964  function getUserData(address account) external view returns(UsersLib.User memory){... */\n      swap2\n      swap1\n      pop\n      jump\t// out\n    tag_70:\n      mload(0x40)\n      dup1\n      0x40\n      add\n      0x40\n      mstore\n      dup1\n      and(0xffffffffffffffffffffffffffffffffffffffff, 0x00)\n      dup2\n      mstore\n      0x20\n      add\n      and(0xff, 0x00)\n      dup2\n      mstore\n      pop\n      swap1\n      jump\t// out\n        /* \"#utility.yul\":7:133   */\n    tag_72:\n        /* \"#utility.yul\":44:51   */\n      0x00\n        /* \"#utility.yul\":84:126   */\n      0xffffffffffffffffffffffffffffffffffffffff\n        /* \"#utility.yul\":77:82   */\n      dup3\n        /* \"#utility.yul\":73:127   */\n      and\n        /* \"#utility.yul\":62:127   */\n      swap1\n      pop\n        /* \"#utility.yul\":7:133   */\n      swap2\n      swap1\n      pop\n      jump\t// out\n        /* \"#utility.yul\":139:199   */\n    tag_73:\n        /* \"#utility.yul\":167:170   */\n      0x00\n        /* \"#utility.yul\":188:193   */\n      dup2\n        /* \"#utility.yul\":181:193   */\n      swap1\n      pop\n        /* \"#utility.yul\":139:199   */\n      swap2\n      swap1\n      pop\n      jump\t// out\n        /* \"#utility.yul\":205:347   */\n    tag_74:\n        /* \"#utility.yul\":255:264   */\n      0x00\n        /* \"#utility.yul\":288:341   */\n      tag_103\n        /* \"#utility.yul\":306:340   */\n      tag_104\n        /* \"#utility.yul\":315:339   */\n      tag_105\n        /* \"#utility.yul\":333:338   */\n      dup5\n        /* \"#utility.yul\":315:339   */\n      tag_72\n      jump\t// in\n    tag_105:\n        /* \"#utility.yul\":306:340   */\n      tag_73\n      jump\t// in\n    tag_104:\n        /* \"#utility.yul\":288:341   */\n      tag_72\n      jump\t// in\n    tag_103:\n        /* \"#utility.yul\":275:341   */\n      swap1\n      pop\n        /* \"#utility.yul\":205:347   */\n      swap2\n      swap1\n      pop\n      jump\t// out\n        /* \"#utility.yul\":353:479   */\n    tag_75:\n        /* \"#utility.yul\":403:412   */\n      0x00\n        /* \"#utility.yul\":436:473   */\n      tag_107\n        /* \"#utility.yul\":467:472   */\n      dup3\n        /* \"#utility.yul\":436:473   */\n      tag_74\n      jump\t// in\n    tag_107:\n        /* \"#utility.yul\":423:473   */\n      swap1\n      pop\n        /* \"#utility.yul\":353:479   */\n      swap2\n      swap1\n      pop\n      jump\t// out\n        /* \"#utility.yul\":485:624   */\n    tag_76:\n        /* \"#utility.yul\":548:557   */\n      0x00\n        /* \"#utility.yul\":581:618   */\n      tag_109\n        /* \"#utility.yul\":612:617   */\n      dup3\n        /* \"#utility.yul\":581:618   */\n      tag_75\n      jump\t// in\n    tag_109:\n        /* \"#utility.yul\":568:618   */\n      swap1\n      pop\n        /* \"#utility.yul\":485:624   */\n      swap2\n      swap1\n      pop\n      jump\t// out\n        /* \"#utility.yul\":630:787   */\n    tag_77:\n        /* \"#utility.yul\":730:780   */\n      tag_111\n        /* \"#utility.yul\":774:779   */\n      dup2\n        /* \"#utility.yul\":730:780   */\n      tag_76\n      jump\t// in\n    tag_111:\n        /* \"#utility.yul\":725:728   */\n      dup3\n        /* \"#utility.yul\":718:781   */\n      mstore\n        /* \"#utility.yul\":630:787   */\n      pop\n      pop\n      jump\t// out\n        /* \"#utility.yul\":793:1041   */\n    tag_14:\n        /* \"#utility.yul\":899:903   */\n      0x00\n        /* \"#utility.yul\":937:939   */\n      0x20\n        /* \"#utility.yul\":926:935   */\n      dup3\n        /* \"#utility.yul\":922:940   */\n      add\n        /* \"#utility.yul\":914:940   */\n      swap1\n      pop\n        /* \"#utility.yul\":950:1034   */\n      tag_113\n        /* \"#utility.yul\":1031:1032   */\n      0x00\n        /* \"#utility.yul\":1020:1029   */\n      dup4\n        /* \"#utility.yul\":1016:1033   */\n      add\n        /* \"#utility.yul\":1007:1013   */\n      dup5\n        /* \"#utility.yul\":950:1034   */\n      tag_77\n      jump\t// in\n    tag_113:\n        /* \"#utility.yul\":793:1041   */\n      swap3\n      swap2\n      pop\n      pop\n      jump\t// out\n        /* \"#utility.yul\":1128:1245   */\n    tag_79:\n        /* \"#utility.yul\":1237:1238   */\n      0x00\n        /* \"#utility.yul\":1234:1235   */\n      dup1\n        /* \"#utility.yul\":1227:1239   */\n      revert\n        /* \"#utility.yul\":1374:1470   */\n    tag_81:\n        /* \"#utility.yul\":1411:1418   */\n      0x00\n        /* \"#utility.yul\":1440:1464   */\n      tag_118\n        /* \"#utility.yul\":1458:1463   */\n      dup3\n        /* \"#utility.yul\":1440:1464   */\n      tag_72\n      jump\t// in\n    tag_118:\n        /* \"#utility.yul\":1429:1464   */\n      swap1\n      pop\n        /* \"#utility.yul\":1374:1470   */\n      swap2\n      swap1\n      pop\n      jump\t// out\n        /* \"#utility.yul\":1476:1598   */\n    tag_82:\n        /* \"#utility.yul\":1549:1573   */\n      tag_120\n        /* \"#utility.yul\":1567:1572   */\n      dup2\n        /* \"#utility.yul\":1549:1573   */\n      tag_81\n      jump\t// in\n    tag_120:\n        /* \"#utility.yul\":1542:1547   */\n      dup2\n        /* \"#utility.yul\":1539:1574   */\n      eq\n        /* \"#utility.yul\":1529:1592   */\n      tag_121\n      jumpi\n        /* \"#utility.yul\":1588:1589   */\n      0x00\n        /* \"#utility.yul\":1585:1586   */\n      dup1\n        /* \"#utility.yul\":1578:1590   */\n      revert\n        /* \"#utility.yul\":1529:1592   */\n    tag_121:\n        /* \"#utility.yul\":1476:1598   */\n      pop\n      jump\t// out\n        /* \"#utility.yul\":1604:1743   */\n    tag_83:\n        /* \"#utility.yul\":1650:1655   */\n      0x00\n        /* \"#utility.yul\":1688:1694   */\n      dup2\n        /* \"#utility.yul\":1675:1695   */\n      calldataload\n        /* \"#utility.yul\":1666:1695   */\n      swap1\n      pop\n        /* \"#utility.yul\":1704:1737   */\n      tag_123\n        /* \"#utility.yul\":1731:1736   */\n      dup2\n        /* \"#utility.yul\":1704:1737   */\n      tag_82\n      jump\t// in\n    tag_123:\n        /* \"#utility.yul\":1604:1743   */\n      swap3\n      swap2\n      pop\n      pop\n      jump\t// out\n        /* \"#utility.yul\":1749:2078   */\n    tag_17:\n        /* \"#utility.yul\":1808:1814   */\n      0x00\n        /* \"#utility.yul\":1857:1859   */\n      0x20\n        /* \"#utility.yul\":1845:1854   */\n      dup3\n        /* \"#utility.yul\":1836:1843   */\n      dup5\n        /* \"#utility.yul\":1832:1855   */\n      sub\n        /* \"#utility.yul\":1828:1860   */\n      slt\n        /* \"#utility.yul\":1825:1944   */\n      iszero\n      tag_125\n      jumpi\n        /* \"#utility.yul\":1863:1942   */\n      tag_126\n      tag_79\n      jump\t// in\n    tag_126:\n        /* \"#utility.yul\":1825:1944   */\n    tag_125:\n        /* \"#utility.yul\":1983:1984   */\n      0x00\n        /* \"#utility.yul\":2008:2061   */\n      tag_127\n        /* \"#utility.yul\":2053:2060   */\n      dup5\n        /* \"#utility.yul\":2044:2050   */\n      dup3\n        /* \"#utility.yul\":2033:2042   */\n      dup6\n        /* \"#utility.yul\":2029:2051   */\n      add\n        /* \"#utility.yul\":2008:2061   */\n      tag_83\n      jump\t// in\n    tag_127:\n        /* \"#utility.yul\":1998:2061   */\n      swap2\n      pop\n        /* \"#utility.yul\":1954:2071   */\n      pop\n        /* \"#utility.yul\":1749:2078   */\n      swap3\n      swap2\n      pop\n      pop\n      jump\t// out\n        /* \"#utility.yul\":2084:2202   */\n    tag_84:\n        /* \"#utility.yul\":2171:2195   */\n      tag_129\n        /* \"#utility.yul\":2189:2194   */\n      dup2\n        /* \"#utility.yul\":2171:2195   */\n      tag_81\n      jump\t// in\n    tag_129:\n        /* \"#utility.yul\":2166:2169   */\n      dup3\n        /* \"#utility.yul\":2159:2196   */\n      mstore\n        /* \"#utility.yul\":2084:2202   */\n      pop\n      pop\n      jump\t// out\n        /* \"#utility.yul\":2208:2430   */\n    tag_22:\n        /* \"#utility.yul\":2301:2305   */\n      0x00\n        /* \"#utility.yul\":2339:2341   */\n      0x20\n        /* \"#utility.yul\":2328:2337   */\n      dup3\n        /* \"#utility.yul\":2324:2342   */\n      add\n        /* \"#utility.yul\":2316:2342   */\n      swap1\n      pop\n        /* \"#utility.yul\":2352:2423   */\n      tag_131\n        /* \"#utility.yul\":2420:2421   */\n      0x00\n        /* \"#utility.yul\":2409:2418   */\n      dup4\n        /* \"#utility.yul\":2405:2422   */\n      add\n        /* \"#utility.yul\":2396:2402   */\n      dup5\n        /* \"#utility.yul\":2352:2423   */\n      tag_84\n      jump\t// in\n    tag_131:\n        /* \"#utility.yul\":2208:2430   */\n      swap3\n      swap2\n      pop\n      pop\n      jump\t// out\n        /* \"#utility.yul\":2436:2878   */\n    tag_26:\n        /* \"#utility.yul\":2585:2589   */\n      0x00\n        /* \"#utility.yul\":2623:2625   */\n      0x60\n        /* \"#utility.yul\":2612:2621   */\n      dup3\n        /* \"#utility.yul\":2608:2626   */\n      add\n        /* \"#utility.yul\":2600:2626   */\n      swap1\n      pop\n        /* \"#utility.yul\":2636:2707   */\n      tag_133\n        /* \"#utility.yul\":2704:2705   */\n      0x00\n        /* \"#utility.yul\":2693:2702   */\n      dup4\n        /* \"#utility.yul\":2689:2706   */\n      add\n        /* \"#utility.yul\":2680:2686   */\n      dup7\n        /* \"#utility.yul\":2636:2707   */\n      tag_84\n      jump\t// in\n    tag_133:\n        /* \"#utility.yul\":2717:2789   */\n      tag_134\n        /* \"#utility.yul\":2785:2787   */\n      0x20\n        /* \"#utility.yul\":2774:2783   */\n      dup4\n        /* \"#utility.yul\":2770:2788   */\n      add\n        /* \"#utility.yul\":2761:2767   */\n      dup6\n        /* \"#utility.yul\":2717:2789   */\n      tag_84\n      jump\t// in\n    tag_134:\n        /* \"#utility.yul\":2799:2871   */\n      tag_135\n        /* \"#utility.yul\":2867:2869   */\n      0x40\n        /* \"#utility.yul\":2856:2865   */\n      dup4\n        /* \"#utility.yul\":2852:2870   */\n      add\n        /* \"#utility.yul\":2843:2849   */\n      dup5\n        /* \"#utility.yul\":2799:2871   */\n      tag_84\n      jump\t// in\n    tag_135:\n        /* \"#utility.yul\":2436:2878   */\n      swap5\n      swap4\n      pop\n      pop\n      pop\n      pop\n      jump\t// out\n        /* \"#utility.yul\":2884:2970   */\n    tag_85:\n        /* \"#utility.yul\":2919:2926   */\n      0x00\n        /* \"#utility.yul\":2959:2963   */\n      0xff\n        /* \"#utility.yul\":2952:2957   */\n      dup3\n        /* \"#utility.yul\":2948:2964   */\n      and\n        /* \"#utility.yul\":2937:2964   */\n      swap1\n      pop\n        /* \"#utility.yul\":2884:2970   */\n      swap2\n      swap1\n      pop\n      jump\t// out\n        /* \"#utility.yul\":2976:3094   */\n    tag_86:\n        /* \"#utility.yul\":3047:3069   */\n      tag_138\n        /* \"#utility.yul\":3063:3068   */\n      dup2\n        /* \"#utility.yul\":3047:3069   */\n      tag_85\n      jump\t// in\n    tag_138:\n        /* \"#utility.yul\":3040:3045   */\n      dup2\n        /* \"#utility.yul\":3037:3070   */\n      eq\n        /* \"#utility.yul\":3027:3088   */\n      tag_139\n      jumpi\n        /* \"#utility.yul\":3084:3085   */\n      0x00\n        /* \"#utility.yul\":3081:3082   */\n      dup1\n        /* \"#utility.yul\":3074:3086   */\n      revert\n        /* \"#utility.yul\":3027:3088   */\n    tag_139:\n        /* \"#utility.yul\":2976:3094   */\n      pop\n      jump\t// out\n        /* \"#utility.yul\":3100:3235   */\n    tag_87:\n        /* \"#utility.yul\":3144:3149   */\n      0x00\n        /* \"#utility.yul\":3182:3188   */\n      dup2\n        /* \"#utility.yul\":3169:3189   */\n      calldataload\n        /* \"#utility.yul\":3160:3189   */\n      swap1\n      pop\n        /* \"#utility.yul\":3198:3229   */\n      tag_141\n        /* \"#utility.yul\":3223:3228   */\n      dup2\n        /* \"#utility.yul\":3198:3229   */\n      tag_86\n      jump\t// in\n    tag_141:\n        /* \"#utility.yul\":3100:3235   */\n      swap3\n      swap2\n      pop\n      pop\n      jump\t// out\n        /* \"#utility.yul\":3241:3856   */\n    tag_29:\n        /* \"#utility.yul\":3316:3322   */\n      0x00\n        /* \"#utility.yul\":3324:3330   */\n      dup1\n        /* \"#utility.yul\":3332:3338   */\n      0x00\n        /* \"#utility.yul\":3381:3383   */\n      0x60\n        /* \"#utility.yul\":3369:3378   */\n      dup5\n        /* \"#utility.yul\":3360:3367   */\n      dup7\n        /* \"#utility.yul\":3356:3379   */\n      sub\n        /* \"#utility.yul\":3352:3384   */\n      slt\n        /* \"#utility.yul\":3349:3468   */\n      iszero\n      tag_143\n      jumpi\n        /* \"#utility.yul\":3387:3466   */\n      tag_144\n      tag_79\n      jump\t// in\n    tag_144:\n        /* \"#utility.yul\":3349:3468   */\n    tag_143:\n        /* \"#utility.yul\":3507:3508   */\n      0x00\n        /* \"#utility.yul\":3532:3585   */\n      tag_145\n        /* \"#utility.yul\":3577:3584   */\n      dup7\n        /* \"#utility.yul\":3568:3574   */\n      dup3\n        /* \"#utility.yul\":3557:3566   */\n      dup8\n        /* \"#utility.yul\":3553:3575   */\n      add\n        /* \"#utility.yul\":3532:3585   */\n      tag_83\n      jump\t// in\n    tag_145:\n        /* \"#utility.yul\":3522:3585   */\n      swap4\n      pop\n        /* \"#utility.yul\":3478:3595   */\n      pop\n        /* \"#utility.yul\":3634:3636   */\n      0x20\n        /* \"#utility.yul\":3660:3713   */\n      tag_146\n        /* \"#utility.yul\":3705:3712   */\n      dup7\n        /* \"#utility.yul\":3696:3702   */\n      dup3\n        /* \"#utility.yul\":3685:3694   */\n      dup8\n        /* \"#utility.yul\":3681:3703   */\n      add\n        /* \"#utility.yul\":3660:3713   */\n      tag_83\n      jump\t// in\n    tag_146:\n        /* \"#utility.yul\":3650:3713   */\n      swap3\n      pop\n        /* \"#utility.yul\":3605:3723   */\n      pop\n        /* \"#utility.yul\":3762:3764   */\n      0x40\n        /* \"#utility.yul\":3788:3839   */\n      tag_147\n        /* \"#utility.yul\":3831:3838   */\n      dup7\n        /* \"#utility.yul\":3822:3828   */\n      dup3\n        /* \"#utility.yul\":3811:3820   */\n      dup8\n        /* \"#utility.yul\":3807:3829   */\n      add\n        /* \"#utility.yul\":3788:3839   */\n      tag_87\n      jump\t// in\n    tag_147:\n        /* \"#utility.yul\":3778:3839   */\n      swap2\n      pop\n        /* \"#utility.yul\":3733:3849   */\n      pop\n        /* \"#utility.yul\":3241:3856   */\n      swap3\n      pop\n      swap3\n      pop\n      swap3\n      jump\t// out\n        /* \"#utility.yul\":3862:3970   */\n    tag_88:\n        /* \"#utility.yul\":3939:3963   */\n      tag_149\n        /* \"#utility.yul\":3957:3962   */\n      dup2\n        /* \"#utility.yul\":3939:3963   */\n      tag_81\n      jump\t// in\n    tag_149:\n        /* \"#utility.yul\":3934:3937   */\n      dup3\n        /* \"#utility.yul\":3927:3964   */\n      mstore\n        /* \"#utility.yul\":3862:3970   */\n      pop\n      pop\n      jump\t// out\n        /* \"#utility.yul\":3976:4078   */\n    tag_89:\n        /* \"#utility.yul\":4049:4071   */\n      tag_151\n        /* \"#utility.yul\":4065:4070   */\n      dup2\n        /* \"#utility.yul\":4049:4071   */\n      tag_85\n      jump\t// in\n    tag_151:\n        /* \"#utility.yul\":4044:4047   */\n      dup3\n        /* \"#utility.yul\":4037:4072   */\n      mstore\n        /* \"#utility.yul\":3976:4078   */\n      pop\n      pop\n      jump\t// out\n        /* \"#utility.yul\":4136:4650   */\n    tag_90:\n        /* \"#utility.yul\":4275:4279   */\n      0x40\n        /* \"#utility.yul\":4270:4273   */\n      dup3\n        /* \"#utility.yul\":4266:4280   */\n      add\n        /* \"#utility.yul\":4373:4377   */\n      0x00\n        /* \"#utility.yul\":4366:4371   */\n      dup3\n        /* \"#utility.yul\":4362:4378   */\n      add\n        /* \"#utility.yul\":4356:4379   */\n      mload\n        /* \"#utility.yul\":4392:4455   */\n      tag_153\n        /* \"#utility.yul\":4449:4453   */\n      0x00\n        /* \"#utility.yul\":4444:4447   */\n      dup6\n        /* \"#utility.yul\":4440:4454   */\n      add\n        /* \"#utility.yul\":4426:4438   */\n      dup3\n        /* \"#utility.yul\":4392:4455   */\n      tag_88\n      jump\t// in\n    tag_153:\n        /* \"#utility.yul\":4290:4465   */\n      pop\n        /* \"#utility.yul\":4555:4559   */\n      0x20\n        /* \"#utility.yul\":4548:4553   */\n      dup3\n        /* \"#utility.yul\":4544:4560   */\n      add\n        /* \"#utility.yul\":4538:4561   */\n      mload\n        /* \"#utility.yul\":4574:4633   */\n      tag_154\n        /* \"#utility.yul\":4627:4631   */\n      0x20\n        /* \"#utility.yul\":4622:4625   */\n      dup6\n        /* \"#utility.yul\":4618:4632   */\n      add\n        /* \"#utility.yul\":4604:4616   */\n      dup3\n        /* \"#utility.yul\":4574:4633   */\n      tag_89\n      jump\t// in\n    tag_154:\n        /* \"#utility.yul\":4475:4643   */\n      pop\n        /* \"#utility.yul\":4244:4650   */\n      pop\n        /* \"#utility.yul\":4136:4650   */\n      pop\n      pop\n      jump\t// out\n        /* \"#utility.yul\":4656:4962   */\n    tag_38:\n        /* \"#utility.yul\":4791:4795   */\n      0x00\n        /* \"#utility.yul\":4829:4831   */\n      0x40\n        /* \"#utility.yul\":4818:4827   */\n      dup3\n        /* \"#utility.yul\":4814:4832   */\n      add\n        /* \"#utility.yul\":4806:4832   */\n      swap1\n      pop\n        /* \"#utility.yul\":4842:4955   */\n      tag_156\n        /* \"#utility.yul\":4952:4953   */\n      0x00\n        /* \"#utility.yul\":4941:4950   */\n      dup4\n        /* \"#utility.yul\":4937:4954   */\n      add\n        /* \"#utility.yul\":4928:4934   */\n      dup5\n        /* \"#utility.yul\":4842:4955   */\n      tag_90\n      jump\t// in\n    tag_156:\n        /* \"#utility.yul\":4656:4962   */\n      swap3\n      swap2\n      pop\n      pop\n      jump\t// out\n        /* \"#utility.yul\":4968:5058   */\n    tag_91:\n        /* \"#utility.yul\":5002:5009   */\n      0x00\n        /* \"#utility.yul\":5045:5050   */\n      dup2\n        /* \"#utility.yul\":5038:5051   */\n      iszero\n        /* \"#utility.yul\":5031:5052   */\n      iszero\n        /* \"#utility.yul\":5020:5052   */\n      swap1\n      pop\n        /* \"#utility.yul\":4968:5058   */\n      swap2\n      swap1\n      pop\n      jump\t// out\n        /* \"#utility.yul\":5064:5180   */\n    tag_92:\n        /* \"#utility.yul\":5134:5155   */\n      tag_159\n        /* \"#utility.yul\":5149:5154   */\n      dup2\n        /* \"#utility.yul\":5134:5155   */\n      tag_91\n      jump\t// in\n    tag_159:\n        /* \"#utility.yul\":5127:5132   */\n      dup2\n        /* \"#utility.yul\":5124:5156   */\n      eq\n        /* \"#utility.yul\":5114:5174   */\n      tag_160\n      jumpi\n        /* \"#utility.yul\":5170:5171   */\n      0x00\n        /* \"#utility.yul\":5167:5168   */\n      dup1\n        /* \"#utility.yul\":5160:5172   */\n      revert\n        /* \"#utility.yul\":5114:5174   */\n    tag_160:\n        /* \"#utility.yul\":5064:5180   */\n      pop\n      jump\t// out\n        /* \"#utility.yul\":5186:5323   */\n    tag_93:\n        /* \"#utility.yul\":5240:5245   */\n      0x00\n        /* \"#utility.yul\":5271:5277   */\n      dup2\n        /* \"#utility.yul\":5265:5278   */\n      mload\n        /* \"#utility.yul\":5256:5278   */\n      swap1\n      pop\n        /* \"#utility.yul\":5287:5317   */\n      tag_162\n        /* \"#utility.yul\":5311:5316   */\n      dup2\n        /* \"#utility.yul\":5287:5317   */\n      tag_92\n      jump\t// in\n    tag_162:\n        /* \"#utility.yul\":5186:5323   */\n      swap3\n      swap2\n      pop\n      pop\n      jump\t// out\n        /* \"#utility.yul\":5329:5674   */\n    tag_44:\n        /* \"#utility.yul\":5396:5402   */\n      0x00\n        /* \"#utility.yul\":5445:5447   */\n      0x20\n        /* \"#utility.yul\":5433:5442   */\n      dup3\n        /* \"#utility.yul\":5424:5431   */\n      dup5\n        /* \"#utility.yul\":5420:5443   */\n      sub\n        /* \"#utility.yul\":5416:5448   */\n      slt\n        /* \"#utility.yul\":5413:5532   */\n      iszero\n      tag_164\n      jumpi\n        /* \"#utility.yul\":5451:5530   */\n      tag_165\n      tag_79\n      jump\t// in\n    tag_165:\n        /* \"#utility.yul\":5413:5532   */\n    tag_164:\n        /* \"#utility.yul\":5571:5572   */\n      0x00\n        /* \"#utility.yul\":5596:5657   */\n      tag_166\n        /* \"#utility.yul\":5649:5656   */\n      dup5\n        /* \"#utility.yul\":5640:5646   */\n      dup3\n        /* \"#utility.yul\":5629:5638   */\n      dup6\n        /* \"#utility.yul\":5625:5647   */\n      add\n        /* \"#utility.yul\":5596:5657   */\n      tag_93\n      jump\t// in\n    tag_166:\n        /* \"#utility.yul\":5586:5657   */\n      swap2\n      pop\n        /* \"#utility.yul\":5542:5667   */\n      pop\n        /* \"#utility.yul\":5329:5674   */\n      swap3\n      swap2\n      pop\n      pop\n      jump\t// out\n        /* \"#utility.yul\":5680:5849   */\n    tag_94:\n        /* \"#utility.yul\":5764:5775   */\n      0x00\n        /* \"#utility.yul\":5798:5804   */\n      dup3\n        /* \"#utility.yul\":5793:5796   */\n      dup3\n        /* \"#utility.yul\":5786:5805   */\n      mstore\n        /* \"#utility.yul\":5838:5842   */\n      0x20\n        /* \"#utility.yul\":5833:5836   */\n      dup3\n        /* \"#utility.yul\":5829:5843   */\n      add\n        /* \"#utility.yul\":5814:5843   */\n      swap1\n      pop\n        /* \"#utility.yul\":5680:5849   */\n      swap3\n      swap2\n      pop\n      pop\n      jump\t// out\n        /* \"#utility.yul\":5855:6077   */\n    tag_95:\n        /* \"#utility.yul\":5995:6029   */\n      0x4f6e6c792041646d696e732063616e2063616c6c20746869732066756e637469\n        /* \"#utility.yul\":5991:5992   */\n      0x00\n        /* \"#utility.yul\":5983:5989   */\n      dup3\n        /* \"#utility.yul\":5979:5993   */\n      add\n        /* \"#utility.yul\":5972:6030   */\n      mstore\n        /* \"#utility.yul\":6064:6069   */\n      0x6f6e730000000000000000000000000000000000000000000000000000000000\n        /* \"#utility.yul\":6059:6061   */\n      0x20\n        /* \"#utility.yul\":6051:6057   */\n      dup3\n        /* \"#utility.yul\":6047:6062   */\n      add\n        /* \"#utility.yul\":6040:6070   */\n      mstore\n        /* \"#utility.yul\":5855:6077   */\n      pop\n      jump\t// out\n        /* \"#utility.yul\":6083:6449   */\n    tag_96:\n        /* \"#utility.yul\":6225:6228   */\n      0x00\n        /* \"#utility.yul\":6246:6313   */\n      tag_170\n        /* \"#utility.yul\":6310:6312   */\n      0x23\n        /* \"#utility.yul\":6305:6308   */\n      dup4\n        /* \"#utility.yul\":6246:6313   */\n      tag_94\n      jump\t// in\n    tag_170:\n        /* \"#utility.yul\":6239:6313   */\n      swap2\n      pop\n        /* \"#utility.yul\":6322:6415   */\n      tag_171\n        /* \"#utility.yul\":6411:6414   */\n      dup3\n        /* \"#utility.yul\":6322:6415   */\n      tag_95\n      jump\t// in\n    tag_171:\n        /* \"#utility.yul\":6440:6442   */\n      0x40\n        /* \"#utility.yul\":6435:6438   */\n      dup3\n        /* \"#utility.yul\":6431:6443   */\n      add\n        /* \"#utility.yul\":6424:6443   */\n      swap1\n      pop\n        /* \"#utility.yul\":6083:6449   */\n      swap2\n      swap1\n      pop\n      jump\t// out\n        /* \"#utility.yul\":6455:6874   */\n    tag_47:\n        /* \"#utility.yul\":6621:6625   */\n      0x00\n        /* \"#utility.yul\":6659:6661   */\n      0x20\n        /* \"#utility.yul\":6648:6657   */\n      dup3\n        /* \"#utility.yul\":6644:6662   */\n      add\n        /* \"#utility.yul\":6636:6662   */\n      swap1\n      pop\n        /* \"#utility.yul\":6708:6717   */\n      dup2\n        /* \"#utility.yul\":6702:6706   */\n      dup2\n        /* \"#utility.yul\":6698:6718   */\n      sub\n        /* \"#utility.yul\":6694:6695   */\n      0x00\n        /* \"#utility.yul\":6683:6692   */\n      dup4\n        /* \"#utility.yul\":6679:6696   */\n      add\n        /* \"#utility.yul\":6672:6719   */\n      mstore\n        /* \"#utility.yul\":6736:6867   */\n      tag_173\n        /* \"#utility.yul\":6862:6866   */\n      dup2\n        /* \"#utility.yul\":6736:6867   */\n      tag_96\n      jump\t// in\n    tag_173:\n        /* \"#utility.yul\":6728:6867   */\n      swap1\n      pop\n        /* \"#utility.yul\":6455:6874   */\n      swap2\n      swap1\n      pop\n      jump\t// out\n        /* \"#utility.yul\":6880:7114   */\n    tag_97:\n        /* \"#utility.yul\":7020:7054   */\n      0x4f6e6c792041646d696e73206f722050726f746f636f6c2063616e2063616c6c\n        /* \"#utility.yul\":7016:7017   */\n      0x00\n        /* \"#utility.yul\":7008:7014   */\n      dup3\n        /* \"#utility.yul\":7004:7018   */\n      add\n        /* \"#utility.yul\":6997:7055   */\n      mstore\n        /* \"#utility.yul\":7089:7106   */\n      0x20746869732066756e6374696f6e730000000000000000000000000000000000\n        /* \"#utility.yul\":7084:7086   */\n      0x20\n        /* \"#utility.yul\":7076:7082   */\n      dup3\n        /* \"#utility.yul\":7072:7087   */\n      add\n        /* \"#utility.yul\":7065:7107   */\n      mstore\n        /* \"#utility.yul\":6880:7114   */\n      pop\n      jump\t// out\n        /* \"#utility.yul\":7120:7486   */\n    tag_98:\n        /* \"#utility.yul\":7262:7265   */\n      0x00\n        /* \"#utility.yul\":7283:7350   */\n      tag_176\n        /* \"#utility.yul\":7347:7349   */\n      0x2f\n        /* \"#utility.yul\":7342:7345   */\n      dup4\n        /* \"#utility.yul\":7283:7350   */\n      tag_94\n      jump\t// in\n    tag_176:\n        /* \"#utility.yul\":7276:7350   */\n      swap2\n      pop\n        /* \"#utility.yul\":7359:7452   */\n      tag_177\n        /* \"#utility.yul\":7448:7451   */\n      dup3\n        /* \"#utility.yul\":7359:7452   */\n      tag_97\n      jump\t// in\n    tag_177:\n        /* \"#utility.yul\":7477:7479   */\n      0x40\n        /* \"#utility.yul\":7472:7475   */\n      dup3\n        /* \"#utility.yul\":7468:7480   */\n      add\n        /* \"#utility.yul\":7461:7480   */\n      swap1\n      pop\n        /* \"#utility.yul\":7120:7486   */\n      swap2\n      swap1\n      pop\n      jump\t// out\n        /* \"#utility.yul\":7492:7911   */\n    tag_62:\n        /* \"#utility.yul\":7658:7662   */\n      0x00\n        /* \"#utility.yul\":7696:7698   */\n      0x20\n        /* \"#utility.yul\":7685:7694   */\n      dup3\n        /* \"#utility.yul\":7681:7699   */\n      add\n        /* \"#utility.yul\":7673:7699   */\n      swap1\n      pop\n        /* \"#utility.yul\":7745:7754   */\n      dup2\n        /* \"#utility.yul\":7739:7743   */\n      dup2\n        /* \"#utility.yul\":7735:7755   */\n      sub\n        /* \"#utility.yul\":7731:7732   */\n      0x00\n        /* \"#utility.yul\":7720:7729   */\n      dup4\n        /* \"#utility.yul\":7716:7733   */\n      add\n        /* \"#utility.yul\":7709:7756   */\n      mstore\n        /* \"#utility.yul\":7773:7904   */\n      tag_179\n        /* \"#utility.yul\":7899:7903   */\n      dup2\n        /* \"#utility.yul\":7773:7904   */\n      tag_98\n      jump\t// in\n    tag_179:\n        /* \"#utility.yul\":7765:7904   */\n      swap1\n      pop\n        /* \"#utility.yul\":7492:7911   */\n      swap2\n      swap1\n      pop\n      jump\t// out\n        /* \"#utility.yul\":7917:8249   */\n    tag_68:\n        /* \"#utility.yul\":8038:8042   */\n      0x00\n        /* \"#utility.yul\":8076:8078   */\n      0x40\n        /* \"#utility.yul\":8065:8074   */\n      dup3\n        /* \"#utility.yul\":8061:8079   */\n      add\n        /* \"#utility.yul\":8053:8079   */\n      swap1\n      pop\n        /* \"#utility.yul\":8089:8160   */\n      tag_181\n        /* \"#utility.yul\":8157:8158   */\n      0x00\n        /* \"#utility.yul\":8146:8155   */\n      dup4\n        /* \"#utility.yul\":8142:8159   */\n      add\n        /* \"#utility.yul\":8133:8139   */\n      dup6\n        /* \"#utility.yul\":8089:8160   */\n      tag_84\n      jump\t// in\n    tag_181:\n        /* \"#utility.yul\":8170:8242   */\n      tag_182\n        /* \"#utility.yul\":8238:8240   */\n      0x20\n        /* \"#utility.yul\":8227:8236   */\n      dup4\n        /* \"#utility.yul\":8223:8241   */\n      add\n        /* \"#utility.yul\":8214:8220   */\n      dup5\n        /* \"#utility.yul\":8170:8242   */\n      tag_84\n      jump\t// in\n    tag_182:\n        /* \"#utility.yul\":7917:8249   */\n      swap4\n      swap3\n      pop\n      pop\n      pop\n      jump\t// out\n\n    auxdata: 0xa2646970667358221220b093fd9c8646b4387b1c6be7b8b3dd91416f2a02633741864dfc11abb995999f64736f6c63430008180033\n}\n",
				"bytecode": {
					"linkReferences": {},
					"object": "60806040523480156200001157600080fd5b5060405162000e4b38038062000e4b83398181016040528101906200003791906200016c565b826000806101000a81548173ffffffffffffffffffffffffffffffffffffffff021916908373ffffffffffffffffffffffffffffffffffffffff16021790555081600160006101000a81548173ffffffffffffffffffffffffffffffffffffffff021916908373ffffffffffffffffffffffffffffffffffffffff16021790555080600260006101000a81548173ffffffffffffffffffffffffffffffffffffffff021916908373ffffffffffffffffffffffffffffffffffffffff160217905550505050620001c8565b600080fd5b600073ffffffffffffffffffffffffffffffffffffffff82169050919050565b6000620001348262000107565b9050919050565b620001468162000127565b81146200015257600080fd5b50565b60008151905062000166816200013b565b92915050565b60008060006060848603121562000188576200018762000102565b5b6000620001988682870162000155565b9350506020620001ab8682870162000155565b9250506040620001be8682870162000155565b9150509250925092565b610c7380620001d86000396000f3fe608060405234801561001057600080fd5b506004361061007d5760003560e01c8063c3a2a93a1161005b578063c3a2a93a146100da578063d155341b146100fa578063df6d921214610116578063ffc9896b146101345761007d565b8063392f5f641461008257806349eb133f146100a0578063569560e8146100bc575b600080fd5b61008a610164565b604051610097919061089a565b60405180910390f35b6100ba60048036038101906100b591906108f8565b610188565b005b6100c46102a5565b6040516100d19190610934565b60405180910390f35b6100e26102cb565b6040516100f19392919061094f565b60405180910390f35b610114600480360381019061010f91906109bf565b610342565b005b61011e6106f6565b60405161012b9190610934565b60405180910390f35b61014e600480360381019061014991906108f8565b61071c565b60405161015b9190610a5f565b60405180910390f35b60008054906101000a900473ffffffffffffffffffffffffffffffffffffffff1681565b60008054906101000a900473ffffffffffffffffffffffffffffffffffffffff1673ffffffffffffffffffffffffffffffffffffffff166324d7806c336040518263ffffffff1660e01b81526004016101e19190610934565b602060405180830381865afa1580156101fe573d6000803e3d6000fd5b505050506040513d601f19601f820116820180604052508101906102229190610ab2565b610261576040517f08c379a000000000000000000000000000000000000000000000000000000000815260040161025890610b62565b60405180910390fd5b80600160006101000a81548173ffffffffffffffffffffffffffffffffffffffff021916908373ffffffffffffffffffffffffffffffffffffffff16021790555050565b600160009054906101000a900473ffffffffffffffffffffffffffffffffffffffff1681565b6000806000600160009054906101000a900473ffffffffffffffffffffffffffffffffffffffff1660008054906101000a900473ffffffffffffffffffffffffffffffffffffffff16600260009054906101000a900473ffffffffffffffffffffffffffffffffffffffff16925092509250909192565b60008060009054906101000a900473ffffffffffffffffffffffffffffffffffffffff1673ffffffffffffffffffffffffffffffffffffffff16639feb2c45336040518263ffffffff1660e01b815260040161039e9190610934565b602060405180830381865afa1580156103bb573d6000803e3d6000fd5b505050506040513d601f19601f820116820180604052508101906103df9190610ab2565b905060008060009054906101000a900473ffffffffffffffffffffffffffffffffffffffff1673ffffffffffffffffffffffffffffffffffffffff166324d7806c336040518263ffffffff1660e01b815260040161043d9190610934565b602060405180830381865afa15801561045a573d6000803e3d6000fd5b505050506040513d601f19601f8201168201806040525081019061047e9190610ab2565b905080806104895750815b6104c8576040517f08c379a00000000000000000000000000000000000000000000000000000000081526004016104bf90610bf4565b60405180910390fd5b6000600360008773ffffffffffffffffffffffffffffffffffffffff1673ffffffffffffffffffffffffffffffffffffffff16815260200190815260200160002060000160009054906101000a900473ffffffffffffffffffffffffffffffffffffffff16905060008073ffffffffffffffffffffffffffffffffffffffff168273ffffffffffffffffffffffffffffffffffffffff161461056b57600161056e565b60005b905080156105b55781876040517fe26522170000000000000000000000000000000000000000000000000000000081526004016105ac929190610c14565b60405180910390fd5b600060405180604001604052808873ffffffffffffffffffffffffffffffffffffffff1681526020018760ff16815250905080600360008a73ffffffffffffffffffffffffffffffffffffffff1673ffffffffffffffffffffffffffffffffffffffff16815260200190815260200160002060008201518160000160006101000a81548173ffffffffffffffffffffffffffffffffffffffff021916908373ffffffffffffffffffffffffffffffffffffffff16021790555060208201518160000160146101000a81548160ff021916908360ff1602179055509050508673ffffffffffffffffffffffffffffffffffffffff168873ffffffffffffffffffffffffffffffffffffffff167f263d398af3bd0e797da25e9dc29a23286e999826d13a16fca996d1ddd1eb528160405160405180910390a35050505050505050565b600260009054906101000a900473ffffffffffffffffffffffffffffffffffffffff1681565b6107246107e8565b600360008373ffffffffffffffffffffffffffffffffffffffff1673ffffffffffffffffffffffffffffffffffffffff1681526020019081526020016000206040518060400160405290816000820160009054906101000a900473ffffffffffffffffffffffffffffffffffffffff1673ffffffffffffffffffffffffffffffffffffffff1673ffffffffffffffffffffffffffffffffffffffff1681526020016000820160149054906101000a900460ff1660ff1660ff16815250509050919050565b6040518060400160405280600073ffffffffffffffffffffffffffffffffffffffff168152602001600060ff1681525090565b600073ffffffffffffffffffffffffffffffffffffffff82169050919050565b6000819050919050565b600061086061085b6108568461081b565b61083b565b61081b565b9050919050565b600061087282610845565b9050919050565b600061088482610867565b9050919050565b61089481610879565b82525050565b60006020820190506108af600083018461088b565b92915050565b600080fd5b60006108c58261081b565b9050919050565b6108d5816108ba565b81146108e057600080fd5b50565b6000813590506108f2816108cc565b92915050565b60006020828403121561090e5761090d6108b5565b5b600061091c848285016108e3565b91505092915050565b61092e816108ba565b82525050565b60006020820190506109496000830184610925565b92915050565b60006060820190506109646000830186610925565b6109716020830185610925565b61097e6040830184610925565b949350505050565b600060ff82169050919050565b61099c81610986565b81146109a757600080fd5b50565b6000813590506109b981610993565b92915050565b6000806000606084860312156109d8576109d76108b5565b5b60006109e6868287016108e3565b93505060206109f7868287016108e3565b9250506040610a08868287016109aa565b9150509250925092565b610a1b816108ba565b82525050565b610a2a81610986565b82525050565b604082016000820151610a466000850182610a12565b506020820151610a596020850182610a21565b50505050565b6000604082019050610a746000830184610a30565b92915050565b60008115159050919050565b610a8f81610a7a565b8114610a9a57600080fd5b50565b600081519050610aac81610a86565b92915050565b600060208284031215610ac857610ac76108b5565b5b6000610ad684828501610a9d565b91505092915050565b600082825260208201905092915050565b7f4f6e6c792041646d696e732063616e2063616c6c20746869732066756e63746960008201527f6f6e730000000000000000000000000000000000000000000000000000000000602082015250565b6000610b4c602383610adf565b9150610b5782610af0565b604082019050919050565b60006020820190508181036000830152610b7b81610b3f565b9050919050565b7f4f6e6c792041646d696e73206f722050726f746f636f6c2063616e2063616c6c60008201527f20746869732066756e6374696f6e730000000000000000000000000000000000602082015250565b6000610bde602f83610adf565b9150610be982610b82565b604082019050919050565b60006020820190508181036000830152610c0d81610bd1565b9050919050565b6000604082019050610c296000830185610925565b610c366020830184610925565b939250505056fea2646970667358221220b093fd9c8646b4387b1c6be7b8b3dd91416f2a02633741864dfc11abb995999f64736f6c63430008180033",
					"opcodes": "PUSH1 0x80 PUSH1 0x40 MSTORE CALLVALUE DUP1 ISZERO PUSH3 0x11 JUMPI PUSH1 0x0 DUP1 REVERT JUMPDEST POP PUSH1 0x40 MLOAD PUSH3 0xE4B CODESIZE SUB DUP1 PUSH3 0xE4B DUP4 CODECOPY DUP2 DUP2 ADD PUSH1 0x40 MSTORE DUP2 ADD SWAP1 PUSH3 0x37 SWAP2 SWAP1 PUSH3 0x16C JUMP JUMPDEST DUP3 PUSH1 0x0 DUP1 PUSH2 0x100 EXP DUP2 SLOAD DUP2 PUSH20 0xFFFFFFFFFFFFFFFFFFFFFFFFFFFFFFFFFFFFFFFF MUL NOT AND SWAP1 DUP4 PUSH20 0xFFFFFFFFFFFFFFFFFFFFFFFFFFFFFFFFFFFFFFFF AND MUL OR SWAP1 SSTORE POP DUP2 PUSH1 0x1 PUSH1 0x0 PUSH2 0x100 EXP DUP2 SLOAD DUP2 PUSH20 0xFFFFFFFFFFFFFFFFFFFFFFFFFFFFFFFFFFFFFFFF MUL NOT AND SWAP1 DUP4 PUSH20 0xFFFFFFFFFFFFFFFFFFFFFFFFFFFFFFFFFFFFFFFF AND MUL OR SWAP1 SSTORE POP DUP1 PUSH1 0x2 PUSH1 0x0 PUSH2 0x100 EXP DUP2 SLOAD DUP2 PUSH20 0xFFFFFFFFFFFFFFFFFFFFFFFFFFFFFFFFFFFFFFFF MUL NOT AND SWAP1 DUP4 PUSH20 0xFFFFFFFFFFFFFFFFFFFFFFFFFFFFFFFFFFFFFFFF AND MUL OR SWAP1 SSTORE POP POP POP POP PUSH3 0x1C8 JUMP JUMPDEST PUSH1 0x0 DUP1 REVERT JUMPDEST PUSH1 0x0 PUSH20 0xFFFFFFFFFFFFFFFFFFFFFFFFFFFFFFFFFFFFFFFF DUP3 AND SWAP1 POP SWAP2 SWAP1 POP JUMP JUMPDEST PUSH1 0x0 PUSH3 0x134 DUP3 PUSH3 0x107 JUMP JUMPDEST SWAP1 POP SWAP2 SWAP1 POP JUMP JUMPDEST PUSH3 0x146 DUP2 PUSH3 0x127 JUMP JUMPDEST DUP2 EQ PUSH3 0x152 JUMPI PUSH1 0x0 DUP1 REVERT JUMPDEST POP JUMP JUMPDEST PUSH1 0x0 DUP2 MLOAD SWAP1 POP PUSH3 0x166 DUP2 PUSH3 0x13B JUMP JUMPDEST SWAP3 SWAP2 POP POP JUMP JUMPDEST PUSH1 0x0 DUP1 PUSH1 0x0 PUSH1 0x60 DUP5 DUP7 SUB SLT ISZERO PUSH3 0x188 JUMPI PUSH3 0x187 PUSH3 0x102 JUMP JUMPDEST JUMPDEST PUSH1 0x0 PUSH3 0x198 DUP7 DUP3 DUP8 ADD PUSH3 0x155 JUMP JUMPDEST SWAP4 POP POP PUSH1 0x20 PUSH3 0x1AB DUP7 DUP3 DUP8 ADD PUSH3 0x155 JUMP JUMPDEST SWAP3 POP POP PUSH1 0x40 PUSH3 0x1BE DUP7 DUP3 DUP8 ADD PUSH3 0x155 JUMP JUMPDEST SWAP2 POP POP SWAP3 POP SWAP3 POP SWAP3 JUMP JUMPDEST PUSH2 0xC73 DUP1 PUSH3 0x1D8 PUSH1 0x0 CODECOPY PUSH1 0x0 RETURN INVALID PUSH1 0x80 PUSH1 0x40 MSTORE CALLVALUE DUP1 ISZERO PUSH2 0x10 JUMPI PUSH1 0x0 DUP1 REVERT JUMPDEST POP PUSH1 0x4 CALLDATASIZE LT PUSH2 0x7D JUMPI PUSH1 0x0 CALLDATALOAD PUSH1 0xE0 SHR DUP1 PUSH4 0xC3A2A93A GT PUSH2 0x5B JUMPI DUP1 PUSH4 0xC3A2A93A EQ PUSH2 0xDA JUMPI DUP1 PUSH4 0xD155341B EQ PUSH2 0xFA JUMPI DUP1 PUSH4 0xDF6D9212 EQ PUSH2 0x116 JUMPI DUP1 PUSH4 0xFFC9896B EQ PUSH2 0x134 JUMPI PUSH2 0x7D JUMP JUMPDEST DUP1 PUSH4 0x392F5F64 EQ PUSH2 0x82 JUMPI DUP1 PUSH4 0x49EB133F EQ PUSH2 0xA0 JUMPI DUP1 PUSH4 0x569560E8 EQ PUSH2 0xBC JUMPI JUMPDEST PUSH1 0x0 DUP1 REVERT JUMPDEST PUSH2 0x8A PUSH2 0x164 JUMP JUMPDEST PUSH1 0x40 MLOAD PUSH2 0x97 SWAP2 SWAP1 PUSH2 0x89A JUMP JUMPDEST PUSH1 0x40 MLOAD DUP1 SWAP2 SUB SWAP1 RETURN JUMPDEST PUSH2 0xBA PUSH1 0x4 DUP1 CALLDATASIZE SUB DUP2 ADD SWAP1 PUSH2 0xB5 SWAP2 SWAP1 PUSH2 0x8F8 JUMP JUMPDEST PUSH2 0x188 JUMP JUMPDEST STOP JUMPDEST PUSH2 0xC4 PUSH2 0x2A5 JUMP JUMPDEST PUSH1 0x40 MLOAD PUSH2 0xD1 SWAP2 SWAP1 PUSH2 0x934 JUMP JUMPDEST PUSH1 0x40 MLOAD DUP1 SWAP2 SUB SWAP1 RETURN JUMPDEST PUSH2 0xE2 PUSH2 0x2CB JUMP JUMPDEST PUSH1 0x40 MLOAD PUSH2 0xF1 SWAP4 SWAP3 SWAP2 SWAP1 PUSH2 0x94F JUMP JUMPDEST PUSH1 0x40 MLOAD DUP1 SWAP2 SUB SWAP1 RETURN JUMPDEST PUSH2 0x114 PUSH1 0x4 DUP1 CALLDATASIZE SUB DUP2 ADD SWAP1 PUSH2 0x10F SWAP2 SWAP1 PUSH2 0x9BF JUMP JUMPDEST PUSH2 0x342 JUMP JUMPDEST STOP JUMPDEST PUSH2 0x11E PUSH2 0x6F6 JUMP JUMPDEST PUSH1 0x40 MLOAD PUSH2 0x12B SWAP2 SWAP1 PUSH2 0x934 JUMP JUMPDEST PUSH1 0x40 MLOAD DUP1 SWAP2 SUB SWAP1 RETURN JUMPDEST PUSH2 0x14E PUSH1 0x4 DUP1 CALLDATASIZE SUB DUP2 ADD SWAP1 PUSH2 0x149 SWAP2 SWAP1 PUSH2 0x8F8 JUMP JUMPDEST PUSH2 0x71C JUMP JUMPDEST PUSH1 0x40 MLOAD PUSH2 0x15B SWAP2 SWAP1 PUSH2 0xA5F JUMP JUMPDEST PUSH1 0x40 MLOAD DUP1 SWAP2 SUB SWAP1 RETURN JUMPDEST PUSH1 0x0 DUP1 SLOAD SWAP1 PUSH2 0x100 EXP SWAP1 DIV PUSH20 0xFFFFFFFFFFFFFFFFFFFFFFFFFFFFFFFFFFFFFFFF AND DUP2 JUMP JUMPDEST PUSH1 0x0 DUP1 SLOAD SWAP1 PUSH2 0x100 EXP SWAP1 DIV PUSH20 0xFFFFFFFFFFFFFFFFFFFFFFFFFFFFFFFFFFFFFFFF AND PUSH20 0xFFFFFFFFFFFFFFFFFFFFFFFFFFFFFFFFFFFFFFFF AND PUSH4 0x24D7806C CALLER PUSH1 0x40 MLOAD DUP3 PUSH4 0xFFFFFFFF AND PUSH1 0xE0 SHL DUP2 MSTORE PUSH1 0x4 ADD PUSH2 0x1E1 SWAP2 SWAP1 PUSH2 0x934 JUMP JUMPDEST PUSH1 0x20 PUSH1 0x40 MLOAD DUP1 DUP4 SUB DUP2 DUP7 GAS STATICCALL ISZERO DUP1 ISZERO PUSH2 0x1FE JUMPI RETURNDATASIZE PUSH1 0x0 DUP1 RETURNDATACOPY RETURNDATASIZE PUSH1 0x0 REVERT JUMPDEST POP POP POP POP PUSH1 0x40 MLOAD RETURNDATASIZE PUSH1 0x1F NOT PUSH1 0x1F DUP3 ADD AND DUP3 ADD DUP1 PUSH1 0x40 MSTORE POP DUP2 ADD SWAP1 PUSH2 0x222 SWAP2 SWAP1 PUSH2 0xAB2 JUMP JUMPDEST PUSH2 0x261 JUMPI PUSH1 0x40 MLOAD PUSH32 0x8C379A000000000000000000000000000000000000000000000000000000000 DUP2 MSTORE PUSH1 0x4 ADD PUSH2 0x258 SWAP1 PUSH2 0xB62 JUMP JUMPDEST PUSH1 0x40 MLOAD DUP1 SWAP2 SUB SWAP1 REVERT JUMPDEST DUP1 PUSH1 0x1 PUSH1 0x0 PUSH2 0x100 EXP DUP2 SLOAD DUP2 PUSH20 0xFFFFFFFFFFFFFFFFFFFFFFFFFFFFFFFFFFFFFFFF MUL NOT AND SWAP1 DUP4 PUSH20 0xFFFFFFFFFFFFFFFFFFFFFFFFFFFFFFFFFFFFFFFF AND MUL OR SWAP1 SSTORE POP POP JUMP JUMPDEST PUSH1 0x1 PUSH1 0x0 SWAP1 SLOAD SWAP1 PUSH2 0x100 EXP SWAP1 DIV PUSH20 0xFFFFFFFFFFFFFFFFFFFFFFFFFFFFFFFFFFFFFFFF AND DUP2 JUMP JUMPDEST PUSH1 0x0 DUP1 PUSH1 0x0 PUSH1 0x1 PUSH1 0x0 SWAP1 SLOAD SWAP1 PUSH2 0x100 EXP SWAP1 DIV PUSH20 0xFFFFFFFFFFFFFFFFFFFFFFFFFFFFFFFFFFFFFFFF AND PUSH1 0x0 DUP1 SLOAD SWAP1 PUSH2 0x100 EXP SWAP1 DIV PUSH20 0xFFFFFFFFFFFFFFFFFFFFFFFFFFFFFFFFFFFFFFFF AND PUSH1 0x2 PUSH1 0x0 SWAP1 SLOAD SWAP1 PUSH2 0x100 EXP SWAP1 DIV PUSH20 0xFFFFFFFFFFFFFFFFFFFFFFFFFFFFFFFFFFFFFFFF AND SWAP3 POP SWAP3 POP SWAP3 POP SWAP1 SWAP2 SWAP3 JUMP JUMPDEST PUSH1 0x0 DUP1 PUSH1 0x0 SWAP1 SLOAD SWAP1 PUSH2 0x100 EXP SWAP1 DIV PUSH20 0xFFFFFFFFFFFFFFFFFFFFFFFFFFFFFFFFFFFFFFFF AND PUSH20 0xFFFFFFFFFFFFFFFFFFFFFFFFFFFFFFFFFFFFFFFF AND PUSH4 0x9FEB2C45 CALLER PUSH1 0x40 MLOAD DUP3 PUSH4 0xFFFFFFFF AND PUSH1 0xE0 SHL DUP2 MSTORE PUSH1 0x4 ADD PUSH2 0x39E SWAP2 SWAP1 PUSH2 0x934 JUMP JUMPDEST PUSH1 0x20 PUSH1 0x40 MLOAD DUP1 DUP4 SUB DUP2 DUP7 GAS STATICCALL ISZERO DUP1 ISZERO PUSH2 0x3BB JUMPI RETURNDATASIZE PUSH1 0x0 DUP1 RETURNDATACOPY RETURNDATASIZE PUSH1 0x0 REVERT JUMPDEST POP POP POP POP PUSH1 0x40 MLOAD RETURNDATASIZE PUSH1 0x1F NOT PUSH1 0x1F DUP3 ADD AND DUP3 ADD DUP1 PUSH1 0x40 MSTORE POP DUP2 ADD SWAP1 PUSH2 0x3DF SWAP2 SWAP1 PUSH2 0xAB2 JUMP JUMPDEST SWAP1 POP PUSH1 0x0 DUP1 PUSH1 0x0 SWAP1 SLOAD SWAP1 PUSH2 0x100 EXP SWAP1 DIV PUSH20 0xFFFFFFFFFFFFFFFFFFFFFFFFFFFFFFFFFFFFFFFF AND PUSH20 0xFFFFFFFFFFFFFFFFFFFFFFFFFFFFFFFFFFFFFFFF AND PUSH4 0x24D7806C CALLER PUSH1 0x40 MLOAD DUP3 PUSH4 0xFFFFFFFF AND PUSH1 0xE0 SHL DUP2 MSTORE PUSH1 0x4 ADD PUSH2 0x43D SWAP2 SWAP1 PUSH2 0x934 JUMP JUMPDEST PUSH1 0x20 PUSH1 0x40 MLOAD DUP1 DUP4 SUB DUP2 DUP7 GAS STATICCALL ISZERO DUP1 ISZERO PUSH2 0x45A JUMPI RETURNDATASIZE PUSH1 0x0 DUP1 RETURNDATACOPY RETURNDATASIZE PUSH1 0x0 REVERT JUMPDEST POP POP POP POP PUSH1 0x40 MLOAD RETURNDATASIZE PUSH1 0x1F NOT PUSH1 0x1F DUP3 ADD AND DUP3 ADD DUP1 PUSH1 0x40 MSTORE POP DUP2 ADD SWAP1 PUSH2 0x47E SWAP2 SWAP1 PUSH2 0xAB2 JUMP JUMPDEST SWAP1 POP DUP1 DUP1 PUSH2 0x489 JUMPI POP DUP2 JUMPDEST PUSH2 0x4C8 JUMPI PUSH1 0x40 MLOAD PUSH32 0x8C379A000000000000000000000000000000000000000000000000000000000 DUP2 MSTORE PUSH1 0x4 ADD PUSH2 0x4BF SWAP1 PUSH2 0xBF4 JUMP JUMPDEST PUSH1 0x40 MLOAD DUP1 SWAP2 SUB SWAP1 REVERT JUMPDEST PUSH1 0x0 PUSH1 0x3 PUSH1 0x0 DUP8 PUSH20 0xFFFFFFFFFFFFFFFFFFFFFFFFFFFFFFFFFFFFFFFF AND PUSH20 0xFFFFFFFFFFFFFFFFFFFFFFFFFFFFFFFFFFFFFFFF AND DUP2 MSTORE PUSH1 0x20 ADD SWAP1 DUP2 MSTORE PUSH1 0x20 ADD PUSH1 0x0 KECCAK256 PUSH1 0x0 ADD PUSH1 0x0 SWAP1 SLOAD SWAP1 PUSH2 0x100 EXP SWAP1 DIV PUSH20 0xFFFFFFFFFFFFFFFFFFFFFFFFFFFFFFFFFFFFFFFF AND SWAP1 POP PUSH1 0x0 DUP1 PUSH20 0xFFFFFFFFFFFFFFFFFFFFFFFFFFFFFFFFFFFFFFFF AND DUP3 PUSH20 0xFFFFFFFFFFFFFFFFFFFFFFFFFFFFFFFFFFFFFFFF AND EQ PUSH2 0x56B JUMPI PUSH1 0x1 PUSH2 0x56E JUMP JUMPDEST PUSH1 0x0 JUMPDEST SWAP1 POP DUP1 ISZERO PUSH2 0x5B5 JUMPI DUP2 DUP8 PUSH1 0x40 MLOAD PUSH32 0xE265221700000000000000000000000000000000000000000000000000000000 DUP2 MSTORE PUSH1 0x4 ADD PUSH2 0x5AC SWAP3 SWAP2 SWAP1 PUSH2 0xC14 JUMP JUMPDEST PUSH1 0x40 MLOAD DUP1 SWAP2 SUB SWAP1 REVERT JUMPDEST PUSH1 0x0 PUSH1 0x40 MLOAD DUP1 PUSH1 0x40 ADD PUSH1 0x40 MSTORE DUP1 DUP9 PUSH20 0xFFFFFFFFFFFFFFFFFFFFFFFFFFFFFFFFFFFFFFFF AND DUP2 MSTORE PUSH1 0x20 ADD DUP8 PUSH1 0xFF AND DUP2 MSTORE POP SWAP1 POP DUP1 PUSH1 0x3 PUSH1 0x0 DUP11 PUSH20 0xFFFFFFFFFFFFFFFFFFFFFFFFFFFFFFFFFFFFFFFF AND PUSH20 0xFFFFFFFFFFFFFFFFFFFFFFFFFFFFFFFFFFFFFFFF AND DUP2 MSTORE PUSH1 0x20 ADD SWAP1 DUP2 MSTORE PUSH1 0x20 ADD PUSH1 0x0 KECCAK256 PUSH1 0x0 DUP3 ADD MLOAD DUP2 PUSH1 0x0 ADD PUSH1 0x0 PUSH2 0x100 EXP DUP2 SLOAD DUP2 PUSH20 0xFFFFFFFFFFFFFFFFFFFFFFFFFFFFFFFFFFFFFFFF MUL NOT AND SWAP1 DUP4 PUSH20 0xFFFFFFFFFFFFFFFFFFFFFFFFFFFFFFFFFFFFFFFF AND MUL OR SWAP1 SSTORE POP PUSH1 0x20 DUP3 ADD MLOAD DUP2 PUSH1 0x0 ADD PUSH1 0x14 PUSH2 0x100 EXP DUP2 SLOAD DUP2 PUSH1 0xFF MUL NOT AND SWAP1 DUP4 PUSH1 0xFF AND MUL OR SWAP1 SSTORE POP SWAP1 POP POP DUP7 PUSH20 0xFFFFFFFFFFFFFFFFFFFFFFFFFFFFFFFFFFFFFFFF AND DUP9 PUSH20 0xFFFFFFFFFFFFFFFFFFFFFFFFFFFFFFFFFFFFFFFF AND PUSH32 0x263D398AF3BD0E797DA25E9DC29A23286E999826D13A16FCA996D1DDD1EB5281 PUSH1 0x40 MLOAD PUSH1 0x40 MLOAD DUP1 SWAP2 SUB SWAP1 LOG3 POP POP POP POP POP POP POP POP JUMP JUMPDEST PUSH1 0x2 PUSH1 0x0 SWAP1 SLOAD SWAP1 PUSH2 0x100 EXP SWAP1 DIV PUSH20 0xFFFFFFFFFFFFFFFFFFFFFFFFFFFFFFFFFFFFFFFF AND DUP2 JUMP JUMPDEST PUSH2 0x724 PUSH2 0x7E8 JUMP JUMPDEST PUSH1 0x3 PUSH1 0x0 DUP4 PUSH20 0xFFFFFFFFFFFFFFFFFFFFFFFFFFFFFFFFFFFFFFFF AND PUSH20 0xFFFFFFFFFFFFFFFFFFFFFFFFFFFFFFFFFFFFFFFF AND DUP2 MSTORE PUSH1 0x20 ADD SWAP1 DUP2 MSTORE PUSH1 0x20 ADD PUSH1 0x0 KECCAK256 PUSH1 0x40 MLOAD DUP1 PUSH1 0x40 ADD PUSH1 0x40 MSTORE SWAP1 DUP2 PUSH1 0x0 DUP3 ADD PUSH1 0x0 SWAP1 SLOAD SWAP1 PUSH2 0x100 EXP SWAP1 DIV PUSH20 0xFFFFFFFFFFFFFFFFFFFFFFFFFFFFFFFFFFFFFFFF AND PUSH20 0xFFFFFFFFFFFFFFFFFFFFFFFFFFFFFFFFFFFFFFFF AND PUSH20 0xFFFFFFFFFFFFFFFFFFFFFFFFFFFFFFFFFFFFFFFF AND DUP2 MSTORE PUSH1 0x20 ADD PUSH1 0x0 DUP3 ADD PUSH1 0x14 SWAP1 SLOAD SWAP1 PUSH2 0x100 EXP SWAP1 DIV PUSH1 0xFF AND PUSH1 0xFF AND PUSH1 0xFF AND DUP2 MSTORE POP POP SWAP1 POP SWAP2 SWAP1 POP JUMP JUMPDEST PUSH1 0x40 MLOAD DUP1 PUSH1 0x40 ADD PUSH1 0x40 MSTORE DUP1 PUSH1 0x0 PUSH20 0xFFFFFFFFFFFFFFFFFFFFFFFFFFFFFFFFFFFFFFFF AND DUP2 MSTORE PUSH1 0x20 ADD PUSH1 0x0 PUSH1 0xFF AND DUP2 MSTORE POP SWAP1 JUMP JUMPDEST PUSH1 0x0 PUSH20 0xFFFFFFFFFFFFFFFFFFFFFFFFFFFFFFFFFFFFFFFF DUP3 AND SWAP1 POP SWAP2 SWAP1 POP JUMP JUMPDEST PUSH1 0x0 DUP2 SWAP1 POP SWAP2 SWAP1 POP JUMP JUMPDEST PUSH1 0x0 PUSH2 0x860 PUSH2 0x85B PUSH2 0x856 DUP5 PUSH2 0x81B JUMP JUMPDEST PUSH2 0x83B JUMP JUMPDEST PUSH2 0x81B JUMP JUMPDEST SWAP1 POP SWAP2 SWAP1 POP JUMP JUMPDEST PUSH1 0x0 PUSH2 0x872 DUP3 PUSH2 0x845 JUMP JUMPDEST SWAP1 POP SWAP2 SWAP1 POP JUMP JUMPDEST PUSH1 0x0 PUSH2 0x884 DUP3 PUSH2 0x867 JUMP JUMPDEST SWAP1 POP SWAP2 SWAP1 POP JUMP JUMPDEST PUSH2 0x894 DUP2 PUSH2 0x879 JUMP JUMPDEST DUP3 MSTORE POP POP JUMP JUMPDEST PUSH1 0x0 PUSH1 0x20 DUP3 ADD SWAP1 POP PUSH2 0x8AF PUSH1 0x0 DUP4 ADD DUP5 PUSH2 0x88B JUMP JUMPDEST SWAP3 SWAP2 POP POP JUMP JUMPDEST PUSH1 0x0 DUP1 REVERT JUMPDEST PUSH1 0x0 PUSH2 0x8C5 DUP3 PUSH2 0x81B JUMP JUMPDEST SWAP1 POP SWAP2 SWAP1 POP JUMP JUMPDEST PUSH2 0x8D5 DUP2 PUSH2 0x8BA JUMP JUMPDEST DUP2 EQ PUSH2 0x8E0 JUMPI PUSH1 0x0 DUP1 REVERT JUMPDEST POP JUMP JUMPDEST PUSH1 0x0 DUP2 CALLDATALOAD SWAP1 POP PUSH2 0x8F2 DUP2 PUSH2 0x8CC JUMP JUMPDEST SWAP3 SWAP2 POP POP JUMP JUMPDEST PUSH1 0x0 PUSH1 0x20 DUP3 DUP5 SUB SLT ISZERO PUSH2 0x90E JUMPI PUSH2 0x90D PUSH2 0x8B5 JUMP JUMPDEST JUMPDEST PUSH1 0x0 PUSH2 0x91C DUP5 DUP3 DUP6 ADD PUSH2 0x8E3 JUMP JUMPDEST SWAP2 POP POP SWAP3 SWAP2 POP POP JUMP JUMPDEST PUSH2 0x92E DUP2 PUSH2 0x8BA JUMP JUMPDEST DUP3 MSTORE POP POP JUMP JUMPDEST PUSH1 0x0 PUSH1 0x20 DUP3 ADD SWAP1 POP PUSH2 0x949 PUSH1 0x0 DUP4 ADD DUP5 PUSH2 0x925 JUMP JUMPDEST SWAP3 SWAP2 POP POP JUMP JUMPDEST PUSH1 0x0 PUSH1 0x60 DUP3 ADD SWAP1 POP PUSH2 0x964 PUSH1 0x0 DUP4 ADD DUP7 PUSH2 0x925 JUMP JUMPDEST PUSH2 0x971 PUSH1 0x20 DUP4 ADD DUP6 PUSH2 0x925 JUMP JUMPDEST PUSH2 0x97E PUSH1 0x40 DUP4 ADD DUP5 PUSH2 0x925 JUMP JUMPDEST SWAP5 SWAP4 POP POP POP POP JUMP JUMPDEST PUSH1 0x0 PUSH1 0xFF DUP3 AND SWAP1 POP SWAP2 SWAP1 POP JUMP JUMPDEST PUSH2 0x99C DUP2 PUSH2 0x986 JUMP JUMPDEST DUP2 EQ PUSH2 0x9A7 JUMPI PUSH1 0x0 DUP1 REVERT JUMPDEST POP JUMP JUMPDEST PUSH1 0x0 DUP2 CALLDATALOAD SWAP1 POP PUSH2 0x9B9 DUP2 PUSH2 0x993 JUMP JUMPDEST SWAP3 SWAP2 POP POP JUMP JUMPDEST PUSH1 0x0 DUP1 PUSH1 0x0 PUSH1 0x60 DUP5 DUP7 SUB SLT ISZERO PUSH2 0x9D8 JUMPI PUSH2 0x9D7 PUSH2 0x8B5 JUMP JUMPDEST JUMPDEST PUSH1 0x0 PUSH2 0x9E6 DUP7 DUP3 DUP8 ADD PUSH2 0x8E3 JUMP JUMPDEST SWAP4 POP POP PUSH1 0x20 PUSH2 0x9F7 DUP7 DUP3 DUP8 ADD PUSH2 0x8E3 JUMP JUMPDEST SWAP3 POP POP PUSH1 0x40 PUSH2 0xA08 DUP7 DUP3 DUP8 ADD PUSH2 0x9AA JUMP JUMPDEST SWAP2 POP POP SWAP3 POP SWAP3 POP SWAP3 JUMP JUMPDEST PUSH2 0xA1B DUP2 PUSH2 0x8BA JUMP JUMPDEST DUP3 MSTORE POP POP JUMP JUMPDEST PUSH2 0xA2A DUP2 PUSH2 0x986 JUMP JUMPDEST DUP3 MSTORE POP POP JUMP JUMPDEST PUSH1 0x40 DUP3 ADD PUSH1 0x0 DUP3 ADD MLOAD PUSH2 0xA46 PUSH1 0x0 DUP6 ADD DUP3 PUSH2 0xA12 JUMP JUMPDEST POP PUSH1 0x20 DUP3 ADD MLOAD PUSH2 0xA59 PUSH1 0x20 DUP6 ADD DUP3 PUSH2 0xA21 JUMP JUMPDEST POP POP POP POP JUMP JUMPDEST PUSH1 0x0 PUSH1 0x40 DUP3 ADD SWAP1 POP PUSH2 0xA74 PUSH1 0x0 DUP4 ADD DUP5 PUSH2 0xA30 JUMP JUMPDEST SWAP3 SWAP2 POP POP JUMP JUMPDEST PUSH1 0x0 DUP2 ISZERO ISZERO SWAP1 POP SWAP2 SWAP1 POP JUMP JUMPDEST PUSH2 0xA8F DUP2 PUSH2 0xA7A JUMP JUMPDEST DUP2 EQ PUSH2 0xA9A JUMPI PUSH1 0x0 DUP1 REVERT JUMPDEST POP JUMP JUMPDEST PUSH1 0x0 DUP2 MLOAD SWAP1 POP PUSH2 0xAAC DUP2 PUSH2 0xA86 JUMP JUMPDEST SWAP3 SWAP2 POP POP JUMP JUMPDEST PUSH1 0x0 PUSH1 0x20 DUP3 DUP5 SUB SLT ISZERO PUSH2 0xAC8 JUMPI PUSH2 0xAC7 PUSH2 0x8B5 JUMP JUMPDEST JUMPDEST PUSH1 0x0 PUSH2 0xAD6 DUP5 DUP3 DUP6 ADD PUSH2 0xA9D JUMP JUMPDEST SWAP2 POP POP SWAP3 SWAP2 POP POP JUMP JUMPDEST PUSH1 0x0 DUP3 DUP3 MSTORE PUSH1 0x20 DUP3 ADD SWAP1 POP SWAP3 SWAP2 POP POP JUMP JUMPDEST PUSH32 0x4F6E6C792041646D696E732063616E2063616C6C20746869732066756E637469 PUSH1 0x0 DUP3 ADD MSTORE PUSH32 0x6F6E730000000000000000000000000000000000000000000000000000000000 PUSH1 0x20 DUP3 ADD MSTORE POP JUMP JUMPDEST PUSH1 0x0 PUSH2 0xB4C PUSH1 0x23 DUP4 PUSH2 0xADF JUMP JUMPDEST SWAP2 POP PUSH2 0xB57 DUP3 PUSH2 0xAF0 JUMP JUMPDEST PUSH1 0x40 DUP3 ADD SWAP1 POP SWAP2 SWAP1 POP JUMP JUMPDEST PUSH1 0x0 PUSH1 0x20 DUP3 ADD SWAP1 POP DUP2 DUP2 SUB PUSH1 0x0 DUP4 ADD MSTORE PUSH2 0xB7B DUP2 PUSH2 0xB3F JUMP JUMPDEST SWAP1 POP SWAP2 SWAP1 POP JUMP JUMPDEST PUSH32 0x4F6E6C792041646D696E73206F722050726F746F636F6C2063616E2063616C6C PUSH1 0x0 DUP3 ADD MSTORE PUSH32 0x20746869732066756E6374696F6E730000000000000000000000000000000000 PUSH1 0x20 DUP3 ADD MSTORE POP JUMP JUMPDEST PUSH1 0x0 PUSH2 0xBDE PUSH1 0x2F DUP4 PUSH2 0xADF JUMP JUMPDEST SWAP2 POP PUSH2 0xBE9 DUP3 PUSH2 0xB82 JUMP JUMPDEST PUSH1 0x40 DUP3 ADD SWAP1 POP SWAP2 SWAP1 POP JUMP JUMPDEST PUSH1 0x0 PUSH1 0x20 DUP3 ADD SWAP1 POP DUP2 DUP2 SUB PUSH1 0x0 DUP4 ADD MSTORE PUSH2 0xC0D DUP2 PUSH2 0xBD1 JUMP JUMPDEST SWAP1 POP SWAP2 SWAP1 POP JUMP JUMPDEST PUSH1 0x0 PUSH1 0x40 DUP3 ADD SWAP1 POP PUSH2 0xC29 PUSH1 0x0 DUP4 ADD DUP6 PUSH2 0x925 JUMP JUMPDEST PUSH2 0xC36 PUSH1 0x20 DUP4 ADD DUP5 PUSH2 0x925 JUMP JUMPDEST SWAP4 SWAP3 POP POP POP JUMP INVALID LOG2 PUSH5 0x6970667358 0x22 SLT KECCAK256 0xB0 SWAP4 REVERT SWAP13 DUP7 CHAINID 0xB4 CODESIZE PUSH28 0x1C6BE7B8B3DD91416F2A02633741864DFC11ABB995999F64736F6C63 NUMBER STOP ADDMOD XOR STOP CALLER "
				},
				"gasEstimates": {
					"creation": {
						"codeDepositCost": "637400",
						"executionCost": "infinite",
						"totalCost": "infinite"
					},
					"external": {
						"createUser(address,address,uint8)": "infinite",
						"functions()": "2559",
						"getContracts()": "infinite",
						"getUserData(address)": "infinite",
						"roles()": "infinite",
						"setFunctions(address)": "infinite",
						"wEth()": "2558"
					}
				},
				"methodIdentifiers": {
					"createUser(address,address,uint8)": "d155341b",
					"functions()": "569560e8",
					"getContracts()": "c3a2a93a",
					"getUserData(address)": "ffc9896b",
					"roles()": "392f5f64",
					"setFunctions(address)": "49eb133f",
					"wEth()": "df6d9212"
				}
			},
			"storageLayout": {
				"storage": [
					{
						"astId": 9,
						"contract": "src/MainDataStorage.sol:MainDataStorage",
						"label": "roles",
						"offset": 0,
						"slot": "0",
						"type": "t_contract(Roles)337"
					},
					{
						"astId": 11,
						"contract": "src/MainDataStorage.sol:MainDataStorage",
						"label": "functions",
						"offset": 0,
						"slot": "1",
						"type": "t_address"
					},
					{
						"astId": 13,
						"contract": "src/MainDataStorage.sol:MainDataStorage",
						"label": "wEth",
						"offset": 0,
						"slot": "2",
						"type": "t_address"
					},
					{
						"astId": 114,
						"contract": "src/MainDataStorage.sol:MainDataStorage",
						"label": "clients",
						"offset": 0,
						"slot": "3",
						"type": "t_mapping(t_address,t_struct(User)344_storage)"
					}
				],
				"types": {
					"t_address": {
						"encoding": "inplace",
						"label": "address",
						"numberOfBytes": "20"
					},
					"t_contract(Roles)337": {
						"encoding": "inplace",
						"label": "contract Roles",
						"numberOfBytes": "20"
					},
					"t_mapping(t_address,t_struct(User)344_storage)": {
						"encoding": "mapping",
						"key": "t_address",
						"label": "mapping(address => struct UsersLib.User)",
						"numberOfBytes": "32",
						"value": "t_struct(User)344_storage"
					},
					"t_struct(User)344_storage": {
						"encoding": "inplace",
						"label": "struct UsersLib.User",
						"members": [
							{
								"astId": 341,
								"contract": "src/MainDataStorage.sol:MainDataStorage",
								"label": "contractAddress",
								"offset": 0,
								"slot": "0",
								"type": "t_address"
							},
							{
								"astId": 343,
								"contract": "src/MainDataStorage.sol:MainDataStorage",
								"label": "contractType",
								"offset": 20,
								"slot": "0",
								"type": "t_uint8"
							}
						],
						"numberOfBytes": "32"
					},
					"t_uint8": {
						"encoding": "inplace",
						"label": "uint8",
						"numberOfBytes": "1"
					}
				}
			},
			"userdoc": {
				"kind": "user",
				"methods": {
					"createUser(address,address,uint8)": {
						"notice": "Creates and associates a new user with their contract and data."
					}
				},
				"notice": "Stores te most important DATA",
				"version": 1
			}
		}
	}
}