{
	"src/lib/UniswapUtils.sol": {
		"UniswapUtils": {
			"abi": [
				{
					"inputs": [
						{
							"internalType": "address",
							"name": "_poolState",
							"type": "address"
						},
						{
							"internalType": "uint256",
							"name": "slippage",
							"type": "uint256"
						},
						{
							"internalType": "uint256",
							"name": "amountIn",
							"type": "uint256"
						},
						{
							"internalType": "address[]",
							"name": "path",
							"type": "address[]"
						}
					],
					"name": "getAmountOutMin",
					"outputs": [
						{
							"internalType": "uint256",
							"name": "amountOutMin",
							"type": "uint256"
						}
					],
					"stateMutability": "view",
					"type": "function"
				},
				{
					"inputs": [
						{
							"internalType": "address",
							"name": "_poolState",
							"type": "address"
						},
						{
							"internalType": "uint256",
							"name": "slippage",
							"type": "uint256"
						},
						{
							"internalType": "address[]",
							"name": "path",
							"type": "address[]"
						}
					],
					"name": "getLimitSqrtPrice",
					"outputs": [
						{
							"internalType": "uint160",
							"name": "",
							"type": "uint160"
						}
					],
					"stateMutability": "view",
					"type": "function"
				},
				{
					"inputs": [
						{
							"internalType": "address",
							"name": "_pool",
							"type": "address"
						}
					],
					"name": "getPoolFee",
					"outputs": [
						{
							"internalType": "uint24",
							"name": "fee",
							"type": "uint24"
						}
					],
					"stateMutability": "view",
					"type": "function"
				},
				{
					"inputs": [
						{
							"internalType": "address",
							"name": "a",
							"type": "address"
						},
						{
							"internalType": "address",
							"name": "b",
							"type": "address"
						}
					],
					"name": "orderTokensInPool",
					"outputs": [
						{
							"internalType": "address[]",
							"name": "",
							"type": "address[]"
						}
					],
					"stateMutability": "pure",
					"type": "function"
				}
			],
			"devdoc": {
				"kind": "dev",
				"methods": {},
				"version": 1
			},
			"evm": {
				"assembly": "    /* \"src/lib/UniswapUtils.sol\":169:2018  contract UniswapUtils {... */\n  mstore(0x40, 0x80)\n  callvalue\n  dup1\n  iszero\n  tag_1\n  jumpi\n  0x00\n  dup1\n  revert\ntag_1:\n  pop\n  dataSize(sub_0)\n  dup1\n  dataOffset(sub_0)\n  0x00\n  codecopy\n  0x00\n  return\nstop\n\nsub_0: assembly {\n        /* \"src/lib/UniswapUtils.sol\":169:2018  contract UniswapUtils {... */\n      mstore(0x40, 0x80)\n      callvalue\n      dup1\n      iszero\n      tag_1\n      jumpi\n      0x00\n      dup1\n      revert\n    tag_1:\n      pop\n      jumpi(tag_2, lt(calldatasize, 0x04))\n      shr(0xe0, calldataload(0x00))\n      dup1\n      0x1da2d571\n      eq\n      tag_3\n      jumpi\n      dup1\n      0x42fcc6fb\n      eq\n      tag_4\n      jumpi\n      dup1\n      0x71302915\n      eq\n      tag_5\n      jumpi\n      dup1\n      0xda91803e\n      eq\n      tag_6\n      jumpi\n    tag_2:\n      0x00\n      dup1\n      revert\n        /* \"src/lib/UniswapUtils.sol\":200:433  function orderTokensInPool(address a, address b) public pure returns(address[] memory) {    ... */\n    tag_3:\n      tag_7\n      0x04\n      dup1\n      calldatasize\n      sub\n      dup2\n      add\n      swap1\n      tag_8\n      swap2\n      swap1\n      tag_9\n      jump\t// in\n    tag_8:\n      tag_10\n      jump\t// in\n    tag_7:\n      mload(0x40)\n      tag_11\n      swap2\n      swap1\n      tag_12\n      jump\t// in\n    tag_11:\n      mload(0x40)\n      dup1\n      swap2\n      sub\n      swap1\n      return\n        /* \"src/lib/UniswapUtils.sol\":1857:2005  function getPoolFee(address _pool) external view returns(uint24 fee){... */\n    tag_4:\n      tag_13\n      0x04\n      dup1\n      calldatasize\n      sub\n      dup2\n      add\n      swap1\n      tag_14\n      swap2\n      swap1\n      tag_15\n      jump\t// in\n    tag_14:\n      tag_16\n      jump\t// in\n    tag_13:\n      mload(0x40)\n      tag_17\n      swap2\n      swap1\n      tag_18\n      jump\t// in\n    tag_17:\n      mload(0x40)\n      dup1\n      swap2\n      sub\n      swap1\n      return\n        /* \"src/lib/UniswapUtils.sol\":1160:1849  function getAmountOutMin(... */\n    tag_5:\n      tag_19\n      0x04\n      dup1\n      calldatasize\n      sub\n      dup2\n      add\n      swap1\n      tag_20\n      swap2\n      swap1\n      tag_21\n      jump\t// in\n    tag_20:\n      tag_22\n      jump\t// in\n    tag_19:\n      mload(0x40)\n      tag_23\n      swap2\n      swap1\n      tag_24\n      jump\t// in\n    tag_23:\n      mload(0x40)\n      dup1\n      swap2\n      sub\n      swap1\n      return\n        /* \"src/lib/UniswapUtils.sol\":648:1152  function getLimitSqrtPrice(... */\n    tag_6:\n      tag_25\n      0x04\n      dup1\n      calldatasize\n      sub\n      dup2\n      add\n      swap1\n      tag_26\n      swap2\n      swap1\n      tag_27\n      jump\t// in\n    tag_26:\n      tag_28\n      jump\t// in\n    tag_25:\n      mload(0x40)\n      tag_29\n      swap2\n      swap1\n      tag_30\n      jump\t// in\n    tag_29:\n      mload(0x40)\n      dup1\n      swap2\n      sub\n      swap1\n      return\n        /* \"src/lib/UniswapUtils.sol\":200:433  function orderTokensInPool(address a, address b) public pure returns(address[] memory) {    ... */\n    tag_10:\n        /* \"src/lib/UniswapUtils.sol\":269:285  address[] memory */\n      0x60\n        /* \"src/lib/UniswapUtils.sol\":302:325  address[] memory tokens */\n      0x00\n        /* \"src/lib/UniswapUtils.sol\":342:343  2 */\n      0x02\n        /* \"src/lib/UniswapUtils.sol\":328:344  new address[](2) */\n      0xffffffffffffffff\n      dup2\n      gt\n      iszero\n      tag_32\n      jumpi\n      tag_33\n      tag_34\n      jump\t// in\n    tag_33:\n    tag_32:\n      mload(0x40)\n      swap1\n      dup1\n      dup3\n      mstore\n      dup1\n      0x20\n      mul\n      0x20\n      add\n      dup3\n      add\n      0x40\n      mstore\n      dup1\n      iszero\n      tag_35\n      jumpi\n      dup2\n      0x20\n      add\n      0x20\n      dup3\n      mul\n      dup1\n      calldatasize\n      dup4\n      calldatacopy\n      dup1\n      dup3\n      add\n      swap2\n      pop\n      pop\n      swap1\n      pop\n    tag_35:\n      pop\n        /* \"src/lib/UniswapUtils.sol\":302:344  address[] memory tokens = new address[](2) */\n      swap1\n      pop\n        /* \"src/lib/UniswapUtils.sol\":384:385  b */\n      dup3\n        /* \"src/lib/UniswapUtils.sol\":380:385  a > b */\n      0xffffffffffffffffffffffffffffffffffffffff\n      and\n        /* \"src/lib/UniswapUtils.sol\":380:381  a */\n      dup5\n        /* \"src/lib/UniswapUtils.sol\":380:385  a > b */\n      0xffffffffffffffffffffffffffffffffffffffff\n      and\n      gt\n        /* \"src/lib/UniswapUtils.sol\":380:401  a > b ? (b,a) : (a,b) */\n      tag_36\n      jumpi\n        /* \"src/lib/UniswapUtils.sol\":397:398  a */\n      dup4\n        /* \"src/lib/UniswapUtils.sol\":399:400  b */\n      dup4\n        /* \"src/lib/UniswapUtils.sol\":380:401  a > b ? (b,a) : (a,b) */\n      jump(tag_37)\n    tag_36:\n        /* \"src/lib/UniswapUtils.sol\":389:390  b */\n      dup3\n        /* \"src/lib/UniswapUtils.sol\":391:392  a */\n      dup5\n        /* \"src/lib/UniswapUtils.sol\":380:401  a > b ? (b,a) : (a,b) */\n    tag_37:\n        /* \"src/lib/UniswapUtils.sol\":356:362  tokens */\n      dup3\n        /* \"src/lib/UniswapUtils.sol\":363:364  0 */\n      0x00\n        /* \"src/lib/UniswapUtils.sol\":356:365  tokens[0] */\n      dup2\n      mload\n      dup2\n      lt\n      tag_38\n      jumpi\n      tag_39\n      tag_40\n      jump\t// in\n    tag_39:\n    tag_38:\n      0x20\n      mul\n      0x20\n      add\n      add\n        /* \"src/lib/UniswapUtils.sol\":367:373  tokens */\n      dup4\n        /* \"src/lib/UniswapUtils.sol\":374:375  1 */\n      0x01\n        /* \"src/lib/UniswapUtils.sol\":367:376  tokens[1] */\n      dup2\n      mload\n      dup2\n      lt\n      tag_41\n      jumpi\n      tag_42\n      tag_40\n      jump\t// in\n    tag_42:\n    tag_41:\n      0x20\n      mul\n      0x20\n      add\n      add\n        /* \"src/lib/UniswapUtils.sol\":355:401  (tokens[0], tokens[1]) = a > b ? (b,a) : (a,b) */\n      dup3\n      0xffffffffffffffffffffffffffffffffffffffff\n      and\n      0xffffffffffffffffffffffffffffffffffffffff\n      and\n      dup2\n      mstore\n      pop\n      dup3\n      0xffffffffffffffffffffffffffffffffffffffff\n      and\n      0xffffffffffffffffffffffffffffffffffffffff\n      and\n      dup2\n      mstore\n      pop\n      pop\n      pop\n        /* \"src/lib/UniswapUtils.sol\":419:425  tokens */\n      dup1\n        /* \"src/lib/UniswapUtils.sol\":412:425  return tokens */\n      swap2\n      pop\n      pop\n        /* \"src/lib/UniswapUtils.sol\":200:433  function orderTokensInPool(address a, address b) public pure returns(address[] memory) {    ... */\n      swap3\n      swap2\n      pop\n      pop\n      jump\t// out\n        /* \"src/lib/UniswapUtils.sol\":1857:2005  function getPoolFee(address _pool) external view returns(uint24 fee){... */\n    tag_16:\n        /* \"src/lib/UniswapUtils.sol\":1914:1924  uint24 fee */\n      0x00\n        /* \"src/lib/UniswapUtils.sol\":1964:1969  _pool */\n      dup2\n        /* \"src/lib/UniswapUtils.sol\":1944:1974  IUniswapV3PoolState(_pool).fee */\n      0xffffffffffffffffffffffffffffffffffffffff\n      and\n      0xddca3f43\n        /* \"src/lib/UniswapUtils.sol\":1944:1976  IUniswapV3PoolState(_pool).fee() */\n      mload(0x40)\n      dup2\n      0xffffffff\n      and\n      0xe0\n      shl\n      dup2\n      mstore\n      0x04\n      add\n      0x20\n      mload(0x40)\n      dup1\n      dup4\n      sub\n      dup2\n      dup7\n      gas\n      staticcall\n      iszero\n      dup1\n      iszero\n      tag_45\n      jumpi\n      returndatasize\n      0x00\n      dup1\n      returndatacopy\n      revert(0x00, returndatasize)\n    tag_45:\n      pop\n      pop\n      pop\n      pop\n      mload(0x40)\n      returndatasize\n      not(0x1f)\n      0x1f\n      dup3\n      add\n      and\n      dup3\n      add\n      dup1\n      0x40\n      mstore\n      pop\n      dup2\n      add\n      swap1\n      tag_46\n      swap2\n      swap1\n      tag_47\n      jump\t// in\n    tag_46:\n        /* \"src/lib/UniswapUtils.sol\":1936:1976  (fee) = IUniswapV3PoolState(_pool).fee() */\n      swap1\n      pop\n        /* \"src/lib/UniswapUtils.sol\":1857:2005  function getPoolFee(address _pool) external view returns(uint24 fee){... */\n      swap2\n      swap1\n      pop\n      jump\t// out\n        /* \"src/lib/UniswapUtils.sol\":1160:1849  function getAmountOutMin(... */\n    tag_22:\n        /* \"src/lib/UniswapUtils.sol\":1349:1369  uint256 amountOutMin */\n      0x00\n        /* \"src/lib/UniswapUtils.sol\":1386:1403  uint160 sqrtPrice */\n      dup1\n        /* \"src/lib/UniswapUtils.sol\":1406:1437  getCurrentSqrtPrice(_poolState) */\n      tag_49\n        /* \"src/lib/UniswapUtils.sol\":1426:1436  _poolState */\n      dup8\n        /* \"src/lib/UniswapUtils.sol\":1406:1425  getCurrentSqrtPrice */\n      tag_50\n        /* \"src/lib/UniswapUtils.sol\":1406:1437  getCurrentSqrtPrice(_poolState) */\n      jump\t// in\n    tag_49:\n        /* \"src/lib/UniswapUtils.sol\":1386:1437  uint160 sqrtPrice = getCurrentSqrtPrice(_poolState) */\n      swap1\n      pop\n        /* \"src/lib/UniswapUtils.sol\":1452:1465  uint256 price */\n      0x00\n        /* \"src/lib/UniswapUtils.sol\":1513:1515  96 */\n      0x60\n        /* \"src/lib/UniswapUtils.sol\":1498:1507  sqrtPrice */\n      dup3\n        /* \"src/lib/UniswapUtils.sol\":1490:1508  uint256(sqrtPrice) */\n      0xffffffffffffffffffffffffffffffffffffffff\n      and\n        /* \"src/lib/UniswapUtils.sol\":1477:1486  sqrtPrice */\n      dup4\n        /* \"src/lib/UniswapUtils.sol\":1469:1487  uint256(sqrtPrice) */\n      0xffffffffffffffffffffffffffffffffffffffff\n      and\n        /* \"src/lib/UniswapUtils.sol\":1469:1508  uint256(sqrtPrice) * uint256(sqrtPrice) */\n      tag_51\n      swap2\n      swap1\n      tag_52\n      jump\t// in\n    tag_51:\n        /* \"src/lib/UniswapUtils.sol\":1468:1515  (uint256(sqrtPrice) * uint256(sqrtPrice)) >> 96 */\n      swap1\n      shr\n        /* \"src/lib/UniswapUtils.sol\":1452:1515  uint256 price = (uint256(sqrtPrice) * uint256(sqrtPrice)) >> 96 */\n      swap1\n      pop\n        /* \"src/lib/UniswapUtils.sol\":1536:1553  uint256 amountOut */\n      0x00\n        /* \"src/lib/UniswapUtils.sol\":1566:1570  path */\n      dup6\n      dup6\n        /* \"src/lib/UniswapUtils.sol\":1571:1572  1 */\n      0x01\n        /* \"src/lib/UniswapUtils.sol\":1566:1573  path[1] */\n      dup2\n      dup2\n      lt\n      tag_53\n      jumpi\n      tag_54\n      tag_40\n      jump\t// in\n    tag_54:\n    tag_53:\n      swap1\n      pop\n      0x20\n      mul\n      add\n      0x20\n      dup2\n      add\n      swap1\n      tag_55\n      swap2\n      swap1\n      tag_15\n      jump\t// in\n    tag_55:\n        /* \"src/lib/UniswapUtils.sol\":1556:1573  path[0] > path[1] */\n      0xffffffffffffffffffffffffffffffffffffffff\n      and\n        /* \"src/lib/UniswapUtils.sol\":1556:1560  path */\n      dup7\n      dup7\n        /* \"src/lib/UniswapUtils.sol\":1561:1562  0 */\n      0x00\n        /* \"src/lib/UniswapUtils.sol\":1556:1563  path[0] */\n      dup2\n      dup2\n      lt\n      tag_56\n      jumpi\n      tag_57\n      tag_40\n      jump\t// in\n    tag_57:\n    tag_56:\n      swap1\n      pop\n      0x20\n      mul\n      add\n      0x20\n      dup2\n      add\n      swap1\n      tag_58\n      swap2\n      swap1\n      tag_15\n      jump\t// in\n    tag_58:\n        /* \"src/lib/UniswapUtils.sol\":1556:1573  path[0] > path[1] */\n      0xffffffffffffffffffffffffffffffffffffffff\n      and\n      gt\n        /* \"src/lib/UniswapUtils.sol\":1556:1693  path[0] > path[1] ... */\n      tag_59\n      jumpi\n        /* \"src/lib/UniswapUtils.sol\":1691:1693  96 */\n      0x60\n        /* \"src/lib/UniswapUtils.sol\":1681:1686  price */\n      dup3\n        /* \"src/lib/UniswapUtils.sol\":1670:1678  amountIn */\n      dup9\n        /* \"src/lib/UniswapUtils.sol\":1670:1686  amountIn * price */\n      tag_60\n      swap2\n      swap1\n      tag_52\n      jump\t// in\n    tag_60:\n        /* \"src/lib/UniswapUtils.sol\":1669:1693  (amountIn * price) >> 96 */\n      swap1\n      shr\n        /* \"src/lib/UniswapUtils.sol\":1556:1693  path[0] > path[1] ... */\n      jump(tag_61)\n    tag_59:\n        /* \"src/lib/UniswapUtils.sol\":1619:1624  price */\n      dup2\n        /* \"src/lib/UniswapUtils.sol\":1607:1614  1 << 96 */\n      0x01000000000000000000000000\n        /* \"src/lib/UniswapUtils.sol\":1595:1603  amountIn */\n      dup9\n        /* \"src/lib/UniswapUtils.sol\":1595:1615  amountIn * (1 << 96) */\n      tag_62\n      swap2\n      swap1\n      tag_52\n      jump\t// in\n    tag_62:\n        /* \"src/lib/UniswapUtils.sol\":1594:1624  (amountIn * (1 << 96)) / price */\n      tag_63\n      swap2\n      swap1\n      tag_64\n      jump\t// in\n    tag_63:\n        /* \"src/lib/UniswapUtils.sol\":1556:1693  path[0] > path[1] ... */\n    tag_61:\n        /* \"src/lib/UniswapUtils.sol\":1536:1693  uint256 amountOut = path[0] > path[1] ... */\n      swap1\n      pop\n        /* \"src/lib/UniswapUtils.sol\":1803:1807  1000 */\n      0x03e8\n        /* \"src/lib/UniswapUtils.sol\":1791:1799  slippage */\n      dup9\n        /* \"src/lib/UniswapUtils.sol\":1784:1788  1000 */\n      0x03e8\n        /* \"src/lib/UniswapUtils.sol\":1784:1799  1000 - slippage */\n      tag_65\n      swap2\n      swap1\n      tag_66\n      jump\t// in\n    tag_65:\n        /* \"src/lib/UniswapUtils.sol\":1771:1780  amountOut */\n      dup3\n        /* \"src/lib/UniswapUtils.sol\":1771:1800  amountOut * (1000 - slippage) */\n      tag_67\n      swap2\n      swap1\n      tag_52\n      jump\t// in\n    tag_67:\n        /* \"src/lib/UniswapUtils.sol\":1771:1807  amountOut * (1000 - slippage) / 1000 */\n      tag_68\n      swap2\n      swap1\n      tag_64\n      jump\t// in\n    tag_68:\n        /* \"src/lib/UniswapUtils.sol\":1756:1807  amountOutMin = amountOut * (1000 - slippage) / 1000 */\n      swap4\n      pop\n        /* \"src/lib/UniswapUtils.sol\":1822:1841  return amountOutMin */\n      pop\n      pop\n      pop\n        /* \"src/lib/UniswapUtils.sol\":1160:1849  function getAmountOutMin(... */\n      swap6\n      swap5\n      pop\n      pop\n      pop\n      pop\n      pop\n      jump\t// out\n        /* \"src/lib/UniswapUtils.sol\":648:1152  function getLimitSqrtPrice(... */\n    tag_28:\n        /* \"src/lib/UniswapUtils.sol\":850:857  uint160 */\n      0x00\n        /* \"src/lib/UniswapUtils.sol\":874:887  uint160 price */\n      dup1\n        /* \"src/lib/UniswapUtils.sol\":890:921  getCurrentSqrtPrice(_poolState) */\n      tag_70\n        /* \"src/lib/UniswapUtils.sol\":910:920  _poolState */\n      dup7\n        /* \"src/lib/UniswapUtils.sol\":890:909  getCurrentSqrtPrice */\n      tag_50\n        /* \"src/lib/UniswapUtils.sol\":890:921  getCurrentSqrtPrice(_poolState) */\n      jump\t// in\n    tag_70:\n        /* \"src/lib/UniswapUtils.sol\":874:921  uint160 price = getCurrentSqrtPrice(_poolState) */\n      swap1\n      pop\n        /* \"src/lib/UniswapUtils.sol\":936:954  uint160 limitPrice */\n      0x00\n        /* \"src/lib/UniswapUtils.sol\":967:971  path */\n      dup5\n      dup5\n        /* \"src/lib/UniswapUtils.sol\":972:973  1 */\n      0x01\n        /* \"src/lib/UniswapUtils.sol\":967:974  path[1] */\n      dup2\n      dup2\n      lt\n      tag_71\n      jumpi\n      tag_72\n      tag_40\n      jump\t// in\n    tag_72:\n    tag_71:\n      swap1\n      pop\n      0x20\n      mul\n      add\n      0x20\n      dup2\n      add\n      swap1\n      tag_73\n      swap2\n      swap1\n      tag_15\n      jump\t// in\n    tag_73:\n        /* \"src/lib/UniswapUtils.sol\":957:974  path[0] > path[1] */\n      0xffffffffffffffffffffffffffffffffffffffff\n      and\n        /* \"src/lib/UniswapUtils.sol\":957:961  path */\n      dup6\n      dup6\n        /* \"src/lib/UniswapUtils.sol\":962:963  0 */\n      0x00\n        /* \"src/lib/UniswapUtils.sol\":957:964  path[0] */\n      dup2\n      dup2\n      lt\n      tag_74\n      jumpi\n      tag_75\n      tag_40\n      jump\t// in\n    tag_75:\n    tag_74:\n      swap1\n      pop\n      0x20\n      mul\n      add\n      0x20\n      dup2\n      add\n      swap1\n      tag_76\n      swap2\n      swap1\n      tag_15\n      jump\t// in\n    tag_76:\n        /* \"src/lib/UniswapUtils.sol\":957:974  path[0] > path[1] */\n      0xffffffffffffffffffffffffffffffffffffffff\n      and\n      gt\n        /* \"src/lib/UniswapUtils.sol\":957:1112  path[0] > path[1] ... */\n      tag_77\n      jumpi\n        /* \"src/lib/UniswapUtils.sol\":1107:1111  1000 */\n      0x03e8\n        /* \"src/lib/UniswapUtils.sol\":1096:1104  slippage */\n      dup7\n        /* \"src/lib/UniswapUtils.sol\":1082:1087  price */\n      dup4\n        /* \"src/lib/UniswapUtils.sol\":1082:1105  price*uint160(slippage) */\n      tag_78\n      swap2\n      swap1\n      tag_79\n      jump\t// in\n    tag_78:\n        /* \"src/lib/UniswapUtils.sol\":1081:1111  (price*uint160(slippage))/1000 */\n      tag_80\n      swap2\n      swap1\n      tag_81\n      jump\t// in\n    tag_80:\n        /* \"src/lib/UniswapUtils.sol\":1072:1077  price */\n      dup3\n        /* \"src/lib/UniswapUtils.sol\":1072:1112  price - ((price*uint160(slippage))/1000) */\n      tag_82\n      swap2\n      swap1\n      tag_83\n      jump\t// in\n    tag_82:\n        /* \"src/lib/UniswapUtils.sol\":957:1112  path[0] > path[1] ... */\n      jump(tag_84)\n    tag_77:\n        /* \"src/lib/UniswapUtils.sol\":1038:1042  1000 */\n      0x03e8\n        /* \"src/lib/UniswapUtils.sol\":1027:1035  slippage */\n      dup7\n        /* \"src/lib/UniswapUtils.sol\":1013:1018  price */\n      dup4\n        /* \"src/lib/UniswapUtils.sol\":1013:1036  price*uint160(slippage) */\n      tag_85\n      swap2\n      swap1\n      tag_79\n      jump\t// in\n    tag_85:\n        /* \"src/lib/UniswapUtils.sol\":1012:1042  (price*uint160(slippage))/1000 */\n      tag_86\n      swap2\n      swap1\n      tag_81\n      jump\t// in\n    tag_86:\n        /* \"src/lib/UniswapUtils.sol\":1003:1008  price */\n      dup3\n        /* \"src/lib/UniswapUtils.sol\":1003:1043  price + ((price*uint160(slippage))/1000) */\n      tag_87\n      swap2\n      swap1\n      tag_88\n      jump\t// in\n    tag_87:\n        /* \"src/lib/UniswapUtils.sol\":957:1112  path[0] > path[1] ... */\n    tag_84:\n        /* \"src/lib/UniswapUtils.sol\":936:1112  uint160 limitPrice = path[0] > path[1] ... */\n      swap1\n      pop\n        /* \"src/lib/UniswapUtils.sol\":1134:1144  limitPrice */\n      dup1\n        /* \"src/lib/UniswapUtils.sol\":1127:1144  return limitPrice */\n      swap3\n      pop\n      pop\n      pop\n        /* \"src/lib/UniswapUtils.sol\":648:1152  function getLimitSqrtPrice(... */\n      swap5\n      swap4\n      pop\n      pop\n      pop\n      pop\n      jump\t// out\n        /* \"src/lib/UniswapUtils.sol\":441:640  function  getCurrentSqrtPrice(address _poolState) internal view returns(uint160){... */\n    tag_50:\n        /* \"src/lib/UniswapUtils.sol\":513:520  uint160 */\n      0x00\n        /* \"src/lib/UniswapUtils.sol\":533:553  uint160 sqrtPriceX96 */\n      dup1\n        /* \"src/lib/UniswapUtils.sol\":583:593  _poolState */\n      dup3\n        /* \"src/lib/UniswapUtils.sol\":563:600  IUniswapV3PoolState(_poolState).slot0 */\n      0xffffffffffffffffffffffffffffffffffffffff\n      and\n      0x3850c7bd\n        /* \"src/lib/UniswapUtils.sol\":563:602  IUniswapV3PoolState(_poolState).slot0() */\n      mload(0x40)\n      dup2\n      0xffffffff\n      and\n      0xe0\n      shl\n      dup2\n      mstore\n      0x04\n      add\n      0xe0\n      mload(0x40)\n      dup1\n      dup4\n      sub\n      dup2\n      dup7\n      gas\n      staticcall\n      iszero\n      dup1\n      iszero\n      tag_91\n      jumpi\n      returndatasize\n      0x00\n      dup1\n      returndatacopy\n      revert(0x00, returndatasize)\n    tag_91:\n      pop\n      pop\n      pop\n      pop\n      mload(0x40)\n      returndatasize\n      not(0x1f)\n      0x1f\n      dup3\n      add\n      and\n      dup3\n      add\n      dup1\n      0x40\n      mstore\n      pop\n      dup2\n      add\n      swap1\n      tag_92\n      swap2\n      swap1\n      tag_93\n      jump\t// in\n    tag_92:\n        /* \"src/lib/UniswapUtils.sol\":532:602  (uint160 sqrtPriceX96,,,,,,) = IUniswapV3PoolState(_poolState).slot0() */\n      pop\n      pop\n      pop\n      pop\n      pop\n      pop\n      swap1\n      pop\n        /* \"src/lib/UniswapUtils.sol\":620:632  sqrtPriceX96 */\n      dup1\n        /* \"src/lib/UniswapUtils.sol\":613:632  return sqrtPriceX96 */\n      swap2\n      pop\n      pop\n        /* \"src/lib/UniswapUtils.sol\":441:640  function  getCurrentSqrtPrice(address _poolState) internal view returns(uint160){... */\n      swap2\n      swap1\n      pop\n      jump\t// out\n        /* \"#utility.yul\":88:205   */\n    tag_95:\n        /* \"#utility.yul\":197:198   */\n      0x00\n        /* \"#utility.yul\":194:195   */\n      dup1\n        /* \"#utility.yul\":187:199   */\n      revert\n        /* \"#utility.yul\":211:328   */\n    tag_96:\n        /* \"#utility.yul\":320:321   */\n      0x00\n        /* \"#utility.yul\":317:318   */\n      dup1\n        /* \"#utility.yul\":310:322   */\n      revert\n        /* \"#utility.yul\":334:460   */\n    tag_97:\n        /* \"#utility.yul\":371:378   */\n      0x00\n        /* \"#utility.yul\":411:453   */\n      0xffffffffffffffffffffffffffffffffffffffff\n        /* \"#utility.yul\":404:409   */\n      dup3\n        /* \"#utility.yul\":400:454   */\n      and\n        /* \"#utility.yul\":389:454   */\n      swap1\n      pop\n        /* \"#utility.yul\":334:460   */\n      swap2\n      swap1\n      pop\n      jump\t// out\n        /* \"#utility.yul\":466:562   */\n    tag_98:\n        /* \"#utility.yul\":503:510   */\n      0x00\n        /* \"#utility.yul\":532:556   */\n      tag_143\n        /* \"#utility.yul\":550:555   */\n      dup3\n        /* \"#utility.yul\":532:556   */\n      tag_97\n      jump\t// in\n    tag_143:\n        /* \"#utility.yul\":521:556   */\n      swap1\n      pop\n        /* \"#utility.yul\":466:562   */\n      swap2\n      swap1\n      pop\n      jump\t// out\n        /* \"#utility.yul\":568:690   */\n    tag_99:\n        /* \"#utility.yul\":641:665   */\n      tag_145\n        /* \"#utility.yul\":659:664   */\n      dup2\n        /* \"#utility.yul\":641:665   */\n      tag_98\n      jump\t// in\n    tag_145:\n        /* \"#utility.yul\":634:639   */\n      dup2\n        /* \"#utility.yul\":631:666   */\n      eq\n        /* \"#utility.yul\":621:684   */\n      tag_146\n      jumpi\n        /* \"#utility.yul\":680:681   */\n      0x00\n        /* \"#utility.yul\":677:678   */\n      dup1\n        /* \"#utility.yul\":670:682   */\n      revert\n        /* \"#utility.yul\":621:684   */\n    tag_146:\n        /* \"#utility.yul\":568:690   */\n      pop\n      jump\t// out\n        /* \"#utility.yul\":696:835   */\n    tag_100:\n        /* \"#utility.yul\":742:747   */\n      0x00\n        /* \"#utility.yul\":780:786   */\n      dup2\n        /* \"#utility.yul\":767:787   */\n      calldataload\n        /* \"#utility.yul\":758:787   */\n      swap1\n      pop\n        /* \"#utility.yul\":796:829   */\n      tag_148\n        /* \"#utility.yul\":823:828   */\n      dup2\n        /* \"#utility.yul\":796:829   */\n      tag_99\n      jump\t// in\n    tag_148:\n        /* \"#utility.yul\":696:835   */\n      swap3\n      swap2\n      pop\n      pop\n      jump\t// out\n        /* \"#utility.yul\":841:1315   */\n    tag_9:\n        /* \"#utility.yul\":909:915   */\n      0x00\n        /* \"#utility.yul\":917:923   */\n      dup1\n        /* \"#utility.yul\":966:968   */\n      0x40\n        /* \"#utility.yul\":954:963   */\n      dup4\n        /* \"#utility.yul\":945:952   */\n      dup6\n        /* \"#utility.yul\":941:964   */\n      sub\n        /* \"#utility.yul\":937:969   */\n      slt\n        /* \"#utility.yul\":934:1053   */\n      iszero\n      tag_150\n      jumpi\n        /* \"#utility.yul\":972:1051   */\n      tag_151\n      tag_95\n      jump\t// in\n    tag_151:\n        /* \"#utility.yul\":934:1053   */\n    tag_150:\n        /* \"#utility.yul\":1092:1093   */\n      0x00\n        /* \"#utility.yul\":1117:1170   */\n      tag_152\n        /* \"#utility.yul\":1162:1169   */\n      dup6\n        /* \"#utility.yul\":1153:1159   */\n      dup3\n        /* \"#utility.yul\":1142:1151   */\n      dup7\n        /* \"#utility.yul\":1138:1160   */\n      add\n        /* \"#utility.yul\":1117:1170   */\n      tag_100\n      jump\t// in\n    tag_152:\n        /* \"#utility.yul\":1107:1170   */\n      swap3\n      pop\n        /* \"#utility.yul\":1063:1180   */\n      pop\n        /* \"#utility.yul\":1219:1221   */\n      0x20\n        /* \"#utility.yul\":1245:1298   */\n      tag_153\n        /* \"#utility.yul\":1290:1297   */\n      dup6\n        /* \"#utility.yul\":1281:1287   */\n      dup3\n        /* \"#utility.yul\":1270:1279   */\n      dup7\n        /* \"#utility.yul\":1266:1288   */\n      add\n        /* \"#utility.yul\":1245:1298   */\n      tag_100\n      jump\t// in\n    tag_153:\n        /* \"#utility.yul\":1235:1298   */\n      swap2\n      pop\n        /* \"#utility.yul\":1190:1308   */\n      pop\n        /* \"#utility.yul\":841:1315   */\n      swap3\n      pop\n      swap3\n      swap1\n      pop\n      jump\t// out\n        /* \"#utility.yul\":1321:1435   */\n    tag_101:\n        /* \"#utility.yul\":1388:1394   */\n      0x00\n        /* \"#utility.yul\":1422:1427   */\n      dup2\n        /* \"#utility.yul\":1416:1428   */\n      mload\n        /* \"#utility.yul\":1406:1428   */\n      swap1\n      pop\n        /* \"#utility.yul\":1321:1435   */\n      swap2\n      swap1\n      pop\n      jump\t// out\n        /* \"#utility.yul\":1441:1625   */\n    tag_102:\n        /* \"#utility.yul\":1540:1551   */\n      0x00\n        /* \"#utility.yul\":1574:1580   */\n      dup3\n        /* \"#utility.yul\":1569:1572   */\n      dup3\n        /* \"#utility.yul\":1562:1581   */\n      mstore\n        /* \"#utility.yul\":1614:1618   */\n      0x20\n        /* \"#utility.yul\":1609:1612   */\n      dup3\n        /* \"#utility.yul\":1605:1619   */\n      add\n        /* \"#utility.yul\":1590:1619   */\n      swap1\n      pop\n        /* \"#utility.yul\":1441:1625   */\n      swap3\n      swap2\n      pop\n      pop\n      jump\t// out\n        /* \"#utility.yul\":1631:1763   */\n    tag_103:\n        /* \"#utility.yul\":1698:1702   */\n      0x00\n        /* \"#utility.yul\":1721:1724   */\n      dup2\n        /* \"#utility.yul\":1713:1724   */\n      swap1\n      pop\n        /* \"#utility.yul\":1751:1755   */\n      0x20\n        /* \"#utility.yul\":1746:1749   */\n      dup3\n        /* \"#utility.yul\":1742:1756   */\n      add\n        /* \"#utility.yul\":1734:1756   */\n      swap1\n      pop\n        /* \"#utility.yul\":1631:1763   */\n      swap2\n      swap1\n      pop\n      jump\t// out\n        /* \"#utility.yul\":1769:1877   */\n    tag_104:\n        /* \"#utility.yul\":1846:1870   */\n      tag_158\n        /* \"#utility.yul\":1864:1869   */\n      dup2\n        /* \"#utility.yul\":1846:1870   */\n      tag_98\n      jump\t// in\n    tag_158:\n        /* \"#utility.yul\":1841:1844   */\n      dup3\n        /* \"#utility.yul\":1834:1871   */\n      mstore\n        /* \"#utility.yul\":1769:1877   */\n      pop\n      pop\n      jump\t// out\n        /* \"#utility.yul\":1883:2062   */\n    tag_105:\n        /* \"#utility.yul\":1952:1962   */\n      0x00\n        /* \"#utility.yul\":1973:2019   */\n      tag_160\n        /* \"#utility.yul\":2015:2018   */\n      dup4\n        /* \"#utility.yul\":2007:2013   */\n      dup4\n        /* \"#utility.yul\":1973:2019   */\n      tag_104\n      jump\t// in\n    tag_160:\n        /* \"#utility.yul\":2051:2055   */\n      0x20\n        /* \"#utility.yul\":2046:2049   */\n      dup4\n        /* \"#utility.yul\":2042:2056   */\n      add\n        /* \"#utility.yul\":2028:2056   */\n      swap1\n      pop\n        /* \"#utility.yul\":1883:2062   */\n      swap3\n      swap2\n      pop\n      pop\n      jump\t// out\n        /* \"#utility.yul\":2068:2181   */\n    tag_106:\n        /* \"#utility.yul\":2138:2142   */\n      0x00\n        /* \"#utility.yul\":2170:2174   */\n      0x20\n        /* \"#utility.yul\":2165:2168   */\n      dup3\n        /* \"#utility.yul\":2161:2175   */\n      add\n        /* \"#utility.yul\":2153:2175   */\n      swap1\n      pop\n        /* \"#utility.yul\":2068:2181   */\n      swap2\n      swap1\n      pop\n      jump\t// out\n        /* \"#utility.yul\":2217:2949   */\n    tag_107:\n        /* \"#utility.yul\":2336:2339   */\n      0x00\n        /* \"#utility.yul\":2365:2419   */\n      tag_163\n        /* \"#utility.yul\":2413:2418   */\n      dup3\n        /* \"#utility.yul\":2365:2419   */\n      tag_101\n      jump\t// in\n    tag_163:\n        /* \"#utility.yul\":2435:2521   */\n      tag_164\n        /* \"#utility.yul\":2514:2520   */\n      dup2\n        /* \"#utility.yul\":2509:2512   */\n      dup6\n        /* \"#utility.yul\":2435:2521   */\n      tag_102\n      jump\t// in\n    tag_164:\n        /* \"#utility.yul\":2428:2521   */\n      swap4\n      pop\n        /* \"#utility.yul\":2545:2601   */\n      tag_165\n        /* \"#utility.yul\":2595:2600   */\n      dup4\n        /* \"#utility.yul\":2545:2601   */\n      tag_103\n      jump\t// in\n    tag_165:\n        /* \"#utility.yul\":2624:2631   */\n      dup1\n        /* \"#utility.yul\":2655:2656   */\n      0x00\n        /* \"#utility.yul\":2640:2924   */\n    tag_166:\n        /* \"#utility.yul\":2665:2671   */\n      dup4\n        /* \"#utility.yul\":2662:2663   */\n      dup2\n        /* \"#utility.yul\":2659:2672   */\n      lt\n        /* \"#utility.yul\":2640:2924   */\n      iszero\n      tag_168\n      jumpi\n        /* \"#utility.yul\":2741:2747   */\n      dup2\n        /* \"#utility.yul\":2735:2748   */\n      mload\n        /* \"#utility.yul\":2768:2831   */\n      tag_169\n        /* \"#utility.yul\":2827:2830   */\n      dup9\n        /* \"#utility.yul\":2812:2825   */\n      dup3\n        /* \"#utility.yul\":2768:2831   */\n      tag_105\n      jump\t// in\n    tag_169:\n        /* \"#utility.yul\":2761:2831   */\n      swap8\n      pop\n        /* \"#utility.yul\":2854:2914   */\n      tag_170\n        /* \"#utility.yul\":2907:2913   */\n      dup4\n        /* \"#utility.yul\":2854:2914   */\n      tag_106\n      jump\t// in\n    tag_170:\n        /* \"#utility.yul\":2844:2914   */\n      swap3\n      pop\n        /* \"#utility.yul\":2700:2924   */\n      pop\n        /* \"#utility.yul\":2687:2688   */\n      0x01\n        /* \"#utility.yul\":2684:2685   */\n      dup2\n        /* \"#utility.yul\":2680:2689   */\n      add\n        /* \"#utility.yul\":2675:2689   */\n      swap1\n      pop\n        /* \"#utility.yul\":2640:2924   */\n      jump(tag_166)\n    tag_168:\n        /* \"#utility.yul\":2644:2658   */\n      pop\n        /* \"#utility.yul\":2940:2943   */\n      dup6\n        /* \"#utility.yul\":2933:2943   */\n      swap4\n      pop\n        /* \"#utility.yul\":2341:2949   */\n      pop\n      pop\n      pop\n        /* \"#utility.yul\":2217:2949   */\n      swap3\n      swap2\n      pop\n      pop\n      jump\t// out\n        /* \"#utility.yul\":2955:3328   */\n    tag_12:\n        /* \"#utility.yul\":3098:3102   */\n      0x00\n        /* \"#utility.yul\":3136:3138   */\n      0x20\n        /* \"#utility.yul\":3125:3134   */\n      dup3\n        /* \"#utility.yul\":3121:3139   */\n      add\n        /* \"#utility.yul\":3113:3139   */\n      swap1\n      pop\n        /* \"#utility.yul\":3185:3194   */\n      dup2\n        /* \"#utility.yul\":3179:3183   */\n      dup2\n        /* \"#utility.yul\":3175:3195   */\n      sub\n        /* \"#utility.yul\":3171:3172   */\n      0x00\n        /* \"#utility.yul\":3160:3169   */\n      dup4\n        /* \"#utility.yul\":3156:3173   */\n      add\n        /* \"#utility.yul\":3149:3196   */\n      mstore\n        /* \"#utility.yul\":3213:3321   */\n      tag_172\n        /* \"#utility.yul\":3316:3320   */\n      dup2\n        /* \"#utility.yul\":3307:3313   */\n      dup5\n        /* \"#utility.yul\":3213:3321   */\n      tag_107\n      jump\t// in\n    tag_172:\n        /* \"#utility.yul\":3205:3321   */\n      swap1\n      pop\n        /* \"#utility.yul\":2955:3328   */\n      swap3\n      swap2\n      pop\n      pop\n      jump\t// out\n        /* \"#utility.yul\":3334:3663   */\n    tag_15:\n        /* \"#utility.yul\":3393:3399   */\n      0x00\n        /* \"#utility.yul\":3442:3444   */\n      0x20\n        /* \"#utility.yul\":3430:3439   */\n      dup3\n        /* \"#utility.yul\":3421:3428   */\n      dup5\n        /* \"#utility.yul\":3417:3440   */\n      sub\n        /* \"#utility.yul\":3413:3445   */\n      slt\n        /* \"#utility.yul\":3410:3529   */\n      iszero\n      tag_174\n      jumpi\n        /* \"#utility.yul\":3448:3527   */\n      tag_175\n      tag_95\n      jump\t// in\n    tag_175:\n        /* \"#utility.yul\":3410:3529   */\n    tag_174:\n        /* \"#utility.yul\":3568:3569   */\n      0x00\n        /* \"#utility.yul\":3593:3646   */\n      tag_176\n        /* \"#utility.yul\":3638:3645   */\n      dup5\n        /* \"#utility.yul\":3629:3635   */\n      dup3\n        /* \"#utility.yul\":3618:3627   */\n      dup6\n        /* \"#utility.yul\":3614:3636   */\n      add\n        /* \"#utility.yul\":3593:3646   */\n      tag_100\n      jump\t// in\n    tag_176:\n        /* \"#utility.yul\":3583:3646   */\n      swap2\n      pop\n        /* \"#utility.yul\":3539:3656   */\n      pop\n        /* \"#utility.yul\":3334:3663   */\n      swap3\n      swap2\n      pop\n      pop\n      jump\t// out\n        /* \"#utility.yul\":3669:3760   */\n    tag_108:\n        /* \"#utility.yul\":3705:3712   */\n      0x00\n        /* \"#utility.yul\":3745:3753   */\n      0xffffff\n        /* \"#utility.yul\":3738:3743   */\n      dup3\n        /* \"#utility.yul\":3734:3754   */\n      and\n        /* \"#utility.yul\":3723:3754   */\n      swap1\n      pop\n        /* \"#utility.yul\":3669:3760   */\n      swap2\n      swap1\n      pop\n      jump\t// out\n        /* \"#utility.yul\":3766:3881   */\n    tag_109:\n        /* \"#utility.yul\":3851:3874   */\n      tag_179\n        /* \"#utility.yul\":3868:3873   */\n      dup2\n        /* \"#utility.yul\":3851:3874   */\n      tag_108\n      jump\t// in\n    tag_179:\n        /* \"#utility.yul\":3846:3849   */\n      dup3\n        /* \"#utility.yul\":3839:3875   */\n      mstore\n        /* \"#utility.yul\":3766:3881   */\n      pop\n      pop\n      jump\t// out\n        /* \"#utility.yul\":3887:4105   */\n    tag_18:\n        /* \"#utility.yul\":3978:3982   */\n      0x00\n        /* \"#utility.yul\":4016:4018   */\n      0x20\n        /* \"#utility.yul\":4005:4014   */\n      dup3\n        /* \"#utility.yul\":4001:4019   */\n      add\n        /* \"#utility.yul\":3993:4019   */\n      swap1\n      pop\n        /* \"#utility.yul\":4029:4098   */\n      tag_181\n        /* \"#utility.yul\":4095:4096   */\n      0x00\n        /* \"#utility.yul\":4084:4093   */\n      dup4\n        /* \"#utility.yul\":4080:4097   */\n      add\n        /* \"#utility.yul\":4071:4077   */\n      dup5\n        /* \"#utility.yul\":4029:4098   */\n      tag_109\n      jump\t// in\n    tag_181:\n        /* \"#utility.yul\":3887:4105   */\n      swap3\n      swap2\n      pop\n      pop\n      jump\t// out\n        /* \"#utility.yul\":4111:4188   */\n    tag_110:\n        /* \"#utility.yul\":4148:4155   */\n      0x00\n        /* \"#utility.yul\":4177:4182   */\n      dup2\n        /* \"#utility.yul\":4166:4182   */\n      swap1\n      pop\n        /* \"#utility.yul\":4111:4188   */\n      swap2\n      swap1\n      pop\n      jump\t// out\n        /* \"#utility.yul\":4194:4316   */\n    tag_111:\n        /* \"#utility.yul\":4267:4291   */\n      tag_184\n        /* \"#utility.yul\":4285:4290   */\n      dup2\n        /* \"#utility.yul\":4267:4291   */\n      tag_110\n      jump\t// in\n    tag_184:\n        /* \"#utility.yul\":4260:4265   */\n      dup2\n        /* \"#utility.yul\":4257:4292   */\n      eq\n        /* \"#utility.yul\":4247:4310   */\n      tag_185\n      jumpi\n        /* \"#utility.yul\":4306:4307   */\n      0x00\n        /* \"#utility.yul\":4303:4304   */\n      dup1\n        /* \"#utility.yul\":4296:4308   */\n      revert\n        /* \"#utility.yul\":4247:4310   */\n    tag_185:\n        /* \"#utility.yul\":4194:4316   */\n      pop\n      jump\t// out\n        /* \"#utility.yul\":4322:4461   */\n    tag_112:\n        /* \"#utility.yul\":4368:4373   */\n      0x00\n        /* \"#utility.yul\":4406:4412   */\n      dup2\n        /* \"#utility.yul\":4393:4413   */\n      calldataload\n        /* \"#utility.yul\":4384:4413   */\n      swap1\n      pop\n        /* \"#utility.yul\":4422:4455   */\n      tag_187\n        /* \"#utility.yul\":4449:4454   */\n      dup2\n        /* \"#utility.yul\":4422:4455   */\n      tag_111\n      jump\t// in\n    tag_187:\n        /* \"#utility.yul\":4322:4461   */\n      swap3\n      swap2\n      pop\n      pop\n      jump\t// out\n        /* \"#utility.yul\":4467:4584   */\n    tag_113:\n        /* \"#utility.yul\":4576:4577   */\n      0x00\n        /* \"#utility.yul\":4573:4574   */\n      dup1\n        /* \"#utility.yul\":4566:4578   */\n      revert\n        /* \"#utility.yul\":4590:4707   */\n    tag_114:\n        /* \"#utility.yul\":4699:4700   */\n      0x00\n        /* \"#utility.yul\":4696:4697   */\n      dup1\n        /* \"#utility.yul\":4689:4701   */\n      revert\n        /* \"#utility.yul\":4713:4830   */\n    tag_115:\n        /* \"#utility.yul\":4822:4823   */\n      0x00\n        /* \"#utility.yul\":4819:4820   */\n      dup1\n        /* \"#utility.yul\":4812:4824   */\n      revert\n        /* \"#utility.yul\":4853:5421   */\n    tag_116:\n        /* \"#utility.yul\":4926:4934   */\n      0x00\n        /* \"#utility.yul\":4936:4942   */\n      dup1\n        /* \"#utility.yul\":4986:4989   */\n      dup4\n        /* \"#utility.yul\":4979:4983   */\n      0x1f\n        /* \"#utility.yul\":4971:4977   */\n      dup5\n        /* \"#utility.yul\":4967:4984   */\n      add\n        /* \"#utility.yul\":4963:4990   */\n      slt\n        /* \"#utility.yul\":4953:5075   */\n      tag_192\n      jumpi\n        /* \"#utility.yul\":4994:5073   */\n      tag_193\n      tag_113\n      jump\t// in\n    tag_193:\n        /* \"#utility.yul\":4953:5075   */\n    tag_192:\n        /* \"#utility.yul\":5107:5113   */\n      dup3\n        /* \"#utility.yul\":5094:5114   */\n      calldataload\n        /* \"#utility.yul\":5084:5114   */\n      swap1\n      pop\n        /* \"#utility.yul\":5137:5155   */\n      0xffffffffffffffff\n        /* \"#utility.yul\":5129:5135   */\n      dup2\n        /* \"#utility.yul\":5126:5156   */\n      gt\n        /* \"#utility.yul\":5123:5240   */\n      iszero\n      tag_194\n      jumpi\n        /* \"#utility.yul\":5159:5238   */\n      tag_195\n      tag_114\n      jump\t// in\n    tag_195:\n        /* \"#utility.yul\":5123:5240   */\n    tag_194:\n        /* \"#utility.yul\":5273:5277   */\n      0x20\n        /* \"#utility.yul\":5265:5271   */\n      dup4\n        /* \"#utility.yul\":5261:5278   */\n      add\n        /* \"#utility.yul\":5249:5278   */\n      swap2\n      pop\n        /* \"#utility.yul\":5327:5330   */\n      dup4\n        /* \"#utility.yul\":5319:5323   */\n      0x20\n        /* \"#utility.yul\":5311:5317   */\n      dup3\n        /* \"#utility.yul\":5307:5324   */\n      mul\n        /* \"#utility.yul\":5297:5305   */\n      dup4\n        /* \"#utility.yul\":5293:5325   */\n      add\n        /* \"#utility.yul\":5290:5331   */\n      gt\n        /* \"#utility.yul\":5287:5415   */\n      iszero\n      tag_196\n      jumpi\n        /* \"#utility.yul\":5334:5413   */\n      tag_197\n      tag_115\n      jump\t// in\n    tag_197:\n        /* \"#utility.yul\":5287:5415   */\n    tag_196:\n        /* \"#utility.yul\":4853:5421   */\n      swap3\n      pop\n      swap3\n      swap1\n      pop\n      jump\t// out\n        /* \"#utility.yul\":5427:6422   */\n    tag_21:\n        /* \"#utility.yul\":5540:5546   */\n      0x00\n        /* \"#utility.yul\":5548:5554   */\n      dup1\n        /* \"#utility.yul\":5556:5562   */\n      0x00\n        /* \"#utility.yul\":5564:5570   */\n      dup1\n        /* \"#utility.yul\":5572:5578   */\n      0x00\n        /* \"#utility.yul\":5621:5624   */\n      0x80\n        /* \"#utility.yul\":5609:5618   */\n      dup7\n        /* \"#utility.yul\":5600:5607   */\n      dup9\n        /* \"#utility.yul\":5596:5619   */\n      sub\n        /* \"#utility.yul\":5592:5625   */\n      slt\n        /* \"#utility.yul\":5589:5709   */\n      iszero\n      tag_199\n      jumpi\n        /* \"#utility.yul\":5628:5707   */\n      tag_200\n      tag_95\n      jump\t// in\n    tag_200:\n        /* \"#utility.yul\":5589:5709   */\n    tag_199:\n        /* \"#utility.yul\":5748:5749   */\n      0x00\n        /* \"#utility.yul\":5773:5826   */\n      tag_201\n        /* \"#utility.yul\":5818:5825   */\n      dup9\n        /* \"#utility.yul\":5809:5815   */\n      dup3\n        /* \"#utility.yul\":5798:5807   */\n      dup10\n        /* \"#utility.yul\":5794:5816   */\n      add\n        /* \"#utility.yul\":5773:5826   */\n      tag_100\n      jump\t// in\n    tag_201:\n        /* \"#utility.yul\":5763:5826   */\n      swap6\n      pop\n        /* \"#utility.yul\":5719:5836   */\n      pop\n        /* \"#utility.yul\":5875:5877   */\n      0x20\n        /* \"#utility.yul\":5901:5954   */\n      tag_202\n        /* \"#utility.yul\":5946:5953   */\n      dup9\n        /* \"#utility.yul\":5937:5943   */\n      dup3\n        /* \"#utility.yul\":5926:5935   */\n      dup10\n        /* \"#utility.yul\":5922:5944   */\n      add\n        /* \"#utility.yul\":5901:5954   */\n      tag_112\n      jump\t// in\n    tag_202:\n        /* \"#utility.yul\":5891:5954   */\n      swap5\n      pop\n        /* \"#utility.yul\":5846:5964   */\n      pop\n        /* \"#utility.yul\":6003:6005   */\n      0x40\n        /* \"#utility.yul\":6029:6082   */\n      tag_203\n        /* \"#utility.yul\":6074:6081   */\n      dup9\n        /* \"#utility.yul\":6065:6071   */\n      dup3\n        /* \"#utility.yul\":6054:6063   */\n      dup10\n        /* \"#utility.yul\":6050:6072   */\n      add\n        /* \"#utility.yul\":6029:6082   */\n      tag_112\n      jump\t// in\n    tag_203:\n        /* \"#utility.yul\":6019:6082   */\n      swap4\n      pop\n        /* \"#utility.yul\":5974:6092   */\n      pop\n        /* \"#utility.yul\":6159:6161   */\n      0x60\n        /* \"#utility.yul\":6148:6157   */\n      dup7\n        /* \"#utility.yul\":6144:6162   */\n      add\n        /* \"#utility.yul\":6131:6163   */\n      calldataload\n        /* \"#utility.yul\":6190:6208   */\n      0xffffffffffffffff\n        /* \"#utility.yul\":6182:6188   */\n      dup2\n        /* \"#utility.yul\":6179:6209   */\n      gt\n        /* \"#utility.yul\":6176:6293   */\n      iszero\n      tag_204\n      jumpi\n        /* \"#utility.yul\":6212:6291   */\n      tag_205\n      tag_96\n      jump\t// in\n    tag_205:\n        /* \"#utility.yul\":6176:6293   */\n    tag_204:\n        /* \"#utility.yul\":6325:6405   */\n      tag_206\n        /* \"#utility.yul\":6397:6404   */\n      dup9\n        /* \"#utility.yul\":6388:6394   */\n      dup3\n        /* \"#utility.yul\":6377:6386   */\n      dup10\n        /* \"#utility.yul\":6373:6395   */\n      add\n        /* \"#utility.yul\":6325:6405   */\n      tag_116\n      jump\t// in\n    tag_206:\n        /* \"#utility.yul\":6307:6405   */\n      swap3\n      pop\n      swap3\n      pop\n        /* \"#utility.yul\":6102:6415   */\n      pop\n        /* \"#utility.yul\":5427:6422   */\n      swap3\n      swap6\n      pop\n      swap3\n      swap6\n      swap1\n      swap4\n      pop\n      jump\t// out\n        /* \"#utility.yul\":6428:6546   */\n    tag_117:\n        /* \"#utility.yul\":6515:6539   */\n      tag_208\n        /* \"#utility.yul\":6533:6538   */\n      dup2\n        /* \"#utility.yul\":6515:6539   */\n      tag_110\n      jump\t// in\n    tag_208:\n        /* \"#utility.yul\":6510:6513   */\n      dup3\n        /* \"#utility.yul\":6503:6540   */\n      mstore\n        /* \"#utility.yul\":6428:6546   */\n      pop\n      pop\n      jump\t// out\n        /* \"#utility.yul\":6552:6774   */\n    tag_24:\n        /* \"#utility.yul\":6645:6649   */\n      0x00\n        /* \"#utility.yul\":6683:6685   */\n      0x20\n        /* \"#utility.yul\":6672:6681   */\n      dup3\n        /* \"#utility.yul\":6668:6686   */\n      add\n        /* \"#utility.yul\":6660:6686   */\n      swap1\n      pop\n        /* \"#utility.yul\":6696:6767   */\n      tag_210\n        /* \"#utility.yul\":6764:6765   */\n      0x00\n        /* \"#utility.yul\":6753:6762   */\n      dup4\n        /* \"#utility.yul\":6749:6766   */\n      add\n        /* \"#utility.yul\":6740:6746   */\n      dup5\n        /* \"#utility.yul\":6696:6767   */\n      tag_117\n      jump\t// in\n    tag_210:\n        /* \"#utility.yul\":6552:6774   */\n      swap3\n      swap2\n      pop\n      pop\n      jump\t// out\n        /* \"#utility.yul\":6780:7629   */\n    tag_27:\n        /* \"#utility.yul\":6884:6890   */\n      0x00\n        /* \"#utility.yul\":6892:6898   */\n      dup1\n        /* \"#utility.yul\":6900:6906   */\n      0x00\n        /* \"#utility.yul\":6908:6914   */\n      dup1\n        /* \"#utility.yul\":6957:6959   */\n      0x60\n        /* \"#utility.yul\":6945:6954   */\n      dup6\n        /* \"#utility.yul\":6936:6943   */\n      dup8\n        /* \"#utility.yul\":6932:6955   */\n      sub\n        /* \"#utility.yul\":6928:6960   */\n      slt\n        /* \"#utility.yul\":6925:7044   */\n      iszero\n      tag_212\n      jumpi\n        /* \"#utility.yul\":6963:7042   */\n      tag_213\n      tag_95\n      jump\t// in\n    tag_213:\n        /* \"#utility.yul\":6925:7044   */\n    tag_212:\n        /* \"#utility.yul\":7083:7084   */\n      0x00\n        /* \"#utility.yul\":7108:7161   */\n      tag_214\n        /* \"#utility.yul\":7153:7160   */\n      dup8\n        /* \"#utility.yul\":7144:7150   */\n      dup3\n        /* \"#utility.yul\":7133:7142   */\n      dup9\n        /* \"#utility.yul\":7129:7151   */\n      add\n        /* \"#utility.yul\":7108:7161   */\n      tag_100\n      jump\t// in\n    tag_214:\n        /* \"#utility.yul\":7098:7161   */\n      swap5\n      pop\n        /* \"#utility.yul\":7054:7171   */\n      pop\n        /* \"#utility.yul\":7210:7212   */\n      0x20\n        /* \"#utility.yul\":7236:7289   */\n      tag_215\n        /* \"#utility.yul\":7281:7288   */\n      dup8\n        /* \"#utility.yul\":7272:7278   */\n      dup3\n        /* \"#utility.yul\":7261:7270   */\n      dup9\n        /* \"#utility.yul\":7257:7279   */\n      add\n        /* \"#utility.yul\":7236:7289   */\n      tag_112\n      jump\t// in\n    tag_215:\n        /* \"#utility.yul\":7226:7289   */\n      swap4\n      pop\n        /* \"#utility.yul\":7181:7299   */\n      pop\n        /* \"#utility.yul\":7366:7368   */\n      0x40\n        /* \"#utility.yul\":7355:7364   */\n      dup6\n        /* \"#utility.yul\":7351:7369   */\n      add\n        /* \"#utility.yul\":7338:7370   */\n      calldataload\n        /* \"#utility.yul\":7397:7415   */\n      0xffffffffffffffff\n        /* \"#utility.yul\":7389:7395   */\n      dup2\n        /* \"#utility.yul\":7386:7416   */\n      gt\n        /* \"#utility.yul\":7383:7500   */\n      iszero\n      tag_216\n      jumpi\n        /* \"#utility.yul\":7419:7498   */\n      tag_217\n      tag_96\n      jump\t// in\n    tag_217:\n        /* \"#utility.yul\":7383:7500   */\n    tag_216:\n        /* \"#utility.yul\":7532:7612   */\n      tag_218\n        /* \"#utility.yul\":7604:7611   */\n      dup8\n        /* \"#utility.yul\":7595:7601   */\n      dup3\n        /* \"#utility.yul\":7584:7593   */\n      dup9\n        /* \"#utility.yul\":7580:7602   */\n      add\n        /* \"#utility.yul\":7532:7612   */\n      tag_116\n      jump\t// in\n    tag_218:\n        /* \"#utility.yul\":7514:7612   */\n      swap3\n      pop\n      swap3\n      pop\n        /* \"#utility.yul\":7309:7622   */\n      pop\n        /* \"#utility.yul\":6780:7629   */\n      swap3\n      swap6\n      swap2\n      swap5\n      pop\n      swap3\n      pop\n      jump\t// out\n        /* \"#utility.yul\":7635:7753   */\n    tag_118:\n        /* \"#utility.yul\":7722:7746   */\n      tag_220\n        /* \"#utility.yul\":7740:7745   */\n      dup2\n        /* \"#utility.yul\":7722:7746   */\n      tag_97\n      jump\t// in\n    tag_220:\n        /* \"#utility.yul\":7717:7720   */\n      dup3\n        /* \"#utility.yul\":7710:7747   */\n      mstore\n        /* \"#utility.yul\":7635:7753   */\n      pop\n      pop\n      jump\t// out\n        /* \"#utility.yul\":7759:7981   */\n    tag_30:\n        /* \"#utility.yul\":7852:7856   */\n      0x00\n        /* \"#utility.yul\":7890:7892   */\n      0x20\n        /* \"#utility.yul\":7879:7888   */\n      dup3\n        /* \"#utility.yul\":7875:7893   */\n      add\n        /* \"#utility.yul\":7867:7893   */\n      swap1\n      pop\n        /* \"#utility.yul\":7903:7974   */\n      tag_222\n        /* \"#utility.yul\":7971:7972   */\n      0x00\n        /* \"#utility.yul\":7960:7969   */\n      dup4\n        /* \"#utility.yul\":7956:7973   */\n      add\n        /* \"#utility.yul\":7947:7953   */\n      dup5\n        /* \"#utility.yul\":7903:7974   */\n      tag_118\n      jump\t// in\n    tag_222:\n        /* \"#utility.yul\":7759:7981   */\n      swap3\n      swap2\n      pop\n      pop\n      jump\t// out\n        /* \"#utility.yul\":7987:8167   */\n    tag_34:\n        /* \"#utility.yul\":8035:8112   */\n      0x4e487b7100000000000000000000000000000000000000000000000000000000\n        /* \"#utility.yul\":8032:8033   */\n      0x00\n        /* \"#utility.yul\":8025:8113   */\n      mstore\n        /* \"#utility.yul\":8132:8136   */\n      0x41\n        /* \"#utility.yul\":8129:8130   */\n      0x04\n        /* \"#utility.yul\":8122:8137   */\n      mstore\n        /* \"#utility.yul\":8156:8160   */\n      0x24\n        /* \"#utility.yul\":8153:8154   */\n      0x00\n        /* \"#utility.yul\":8146:8161   */\n      revert\n        /* \"#utility.yul\":8173:8353   */\n    tag_40:\n        /* \"#utility.yul\":8221:8298   */\n      0x4e487b7100000000000000000000000000000000000000000000000000000000\n        /* \"#utility.yul\":8218:8219   */\n      0x00\n        /* \"#utility.yul\":8211:8299   */\n      mstore\n        /* \"#utility.yul\":8318:8322   */\n      0x32\n        /* \"#utility.yul\":8315:8316   */\n      0x04\n        /* \"#utility.yul\":8308:8323   */\n      mstore\n        /* \"#utility.yul\":8342:8346   */\n      0x24\n        /* \"#utility.yul\":8339:8340   */\n      0x00\n        /* \"#utility.yul\":8332:8347   */\n      revert\n        /* \"#utility.yul\":8359:8479   */\n    tag_119:\n        /* \"#utility.yul\":8431:8454   */\n      tag_226\n        /* \"#utility.yul\":8448:8453   */\n      dup2\n        /* \"#utility.yul\":8431:8454   */\n      tag_108\n      jump\t// in\n    tag_226:\n        /* \"#utility.yul\":8424:8429   */\n      dup2\n        /* \"#utility.yul\":8421:8455   */\n      eq\n        /* \"#utility.yul\":8411:8473   */\n      tag_227\n      jumpi\n        /* \"#utility.yul\":8469:8470   */\n      0x00\n        /* \"#utility.yul\":8466:8467   */\n      dup1\n        /* \"#utility.yul\":8459:8471   */\n      revert\n        /* \"#utility.yul\":8411:8473   */\n    tag_227:\n        /* \"#utility.yul\":8359:8479   */\n      pop\n      jump\t// out\n        /* \"#utility.yul\":8485:8626   */\n    tag_120:\n        /* \"#utility.yul\":8541:8546   */\n      0x00\n        /* \"#utility.yul\":8572:8578   */\n      dup2\n        /* \"#utility.yul\":8566:8579   */\n      mload\n        /* \"#utility.yul\":8557:8579   */\n      swap1\n      pop\n        /* \"#utility.yul\":8588:8620   */\n      tag_229\n        /* \"#utility.yul\":8614:8619   */\n      dup2\n        /* \"#utility.yul\":8588:8620   */\n      tag_119\n      jump\t// in\n    tag_229:\n        /* \"#utility.yul\":8485:8626   */\n      swap3\n      swap2\n      pop\n      pop\n      jump\t// out\n        /* \"#utility.yul\":8632:8981   */\n    tag_47:\n        /* \"#utility.yul\":8701:8707   */\n      0x00\n        /* \"#utility.yul\":8750:8752   */\n      0x20\n        /* \"#utility.yul\":8738:8747   */\n      dup3\n        /* \"#utility.yul\":8729:8736   */\n      dup5\n        /* \"#utility.yul\":8725:8748   */\n      sub\n        /* \"#utility.yul\":8721:8753   */\n      slt\n        /* \"#utility.yul\":8718:8837   */\n      iszero\n      tag_231\n      jumpi\n        /* \"#utility.yul\":8756:8835   */\n      tag_232\n      tag_95\n      jump\t// in\n    tag_232:\n        /* \"#utility.yul\":8718:8837   */\n    tag_231:\n        /* \"#utility.yul\":8876:8877   */\n      0x00\n        /* \"#utility.yul\":8901:8964   */\n      tag_233\n        /* \"#utility.yul\":8956:8963   */\n      dup5\n        /* \"#utility.yul\":8947:8953   */\n      dup3\n        /* \"#utility.yul\":8936:8945   */\n      dup6\n        /* \"#utility.yul\":8932:8954   */\n      add\n        /* \"#utility.yul\":8901:8964   */\n      tag_120\n      jump\t// in\n    tag_233:\n        /* \"#utility.yul\":8891:8964   */\n      swap2\n      pop\n        /* \"#utility.yul\":8847:8974   */\n      pop\n        /* \"#utility.yul\":8632:8981   */\n      swap3\n      swap2\n      pop\n      pop\n      jump\t// out\n        /* \"#utility.yul\":8987:9167   */\n    tag_121:\n        /* \"#utility.yul\":9035:9112   */\n      0x4e487b7100000000000000000000000000000000000000000000000000000000\n        /* \"#utility.yul\":9032:9033   */\n      0x00\n        /* \"#utility.yul\":9025:9113   */\n      mstore\n        /* \"#utility.yul\":9132:9136   */\n      0x11\n        /* \"#utility.yul\":9129:9130   */\n      0x04\n        /* \"#utility.yul\":9122:9137   */\n      mstore\n        /* \"#utility.yul\":9156:9160   */\n      0x24\n        /* \"#utility.yul\":9153:9154   */\n      0x00\n        /* \"#utility.yul\":9146:9161   */\n      revert\n        /* \"#utility.yul\":9173:9583   */\n    tag_52:\n        /* \"#utility.yul\":9213:9220   */\n      0x00\n        /* \"#utility.yul\":9236:9256   */\n      tag_236\n        /* \"#utility.yul\":9254:9255   */\n      dup3\n        /* \"#utility.yul\":9236:9256   */\n      tag_110\n      jump\t// in\n    tag_236:\n        /* \"#utility.yul\":9231:9256   */\n      swap2\n      pop\n        /* \"#utility.yul\":9270:9290   */\n      tag_237\n        /* \"#utility.yul\":9288:9289   */\n      dup4\n        /* \"#utility.yul\":9270:9290   */\n      tag_110\n      jump\t// in\n    tag_237:\n        /* \"#utility.yul\":9265:9290   */\n      swap3\n      pop\n        /* \"#utility.yul\":9325:9326   */\n      dup3\n        /* \"#utility.yul\":9322:9323   */\n      dup3\n        /* \"#utility.yul\":9318:9327   */\n      mul\n        /* \"#utility.yul\":9347:9377   */\n      tag_238\n        /* \"#utility.yul\":9365:9376   */\n      dup2\n        /* \"#utility.yul\":9347:9377   */\n      tag_110\n      jump\t// in\n    tag_238:\n        /* \"#utility.yul\":9336:9377   */\n      swap2\n      pop\n        /* \"#utility.yul\":9526:9527   */\n      dup3\n        /* \"#utility.yul\":9517:9524   */\n      dup3\n        /* \"#utility.yul\":9513:9528   */\n      div\n        /* \"#utility.yul\":9510:9511   */\n      dup5\n        /* \"#utility.yul\":9507:9529   */\n      eq\n        /* \"#utility.yul\":9487:9488   */\n      dup4\n        /* \"#utility.yul\":9480:9489   */\n      iszero\n        /* \"#utility.yul\":9460:9543   */\n      or\n        /* \"#utility.yul\":9437:9576   */\n      tag_239\n      jumpi\n        /* \"#utility.yul\":9556:9574   */\n      tag_240\n      tag_121\n      jump\t// in\n    tag_240:\n        /* \"#utility.yul\":9437:9576   */\n    tag_239:\n        /* \"#utility.yul\":9221:9583   */\n      pop\n        /* \"#utility.yul\":9173:9583   */\n      swap3\n      swap2\n      pop\n      pop\n      jump\t// out\n        /* \"#utility.yul\":9589:9769   */\n    tag_122:\n        /* \"#utility.yul\":9637:9714   */\n      0x4e487b7100000000000000000000000000000000000000000000000000000000\n        /* \"#utility.yul\":9634:9635   */\n      0x00\n        /* \"#utility.yul\":9627:9715   */\n      mstore\n        /* \"#utility.yul\":9734:9738   */\n      0x12\n        /* \"#utility.yul\":9731:9732   */\n      0x04\n        /* \"#utility.yul\":9724:9739   */\n      mstore\n        /* \"#utility.yul\":9758:9762   */\n      0x24\n        /* \"#utility.yul\":9755:9756   */\n      0x00\n        /* \"#utility.yul\":9748:9763   */\n      revert\n        /* \"#utility.yul\":9775:9960   */\n    tag_64:\n        /* \"#utility.yul\":9815:9816   */\n      0x00\n        /* \"#utility.yul\":9832:9852   */\n      tag_243\n        /* \"#utility.yul\":9850:9851   */\n      dup3\n        /* \"#utility.yul\":9832:9852   */\n      tag_110\n      jump\t// in\n    tag_243:\n        /* \"#utility.yul\":9827:9852   */\n      swap2\n      pop\n        /* \"#utility.yul\":9866:9886   */\n      tag_244\n        /* \"#utility.yul\":9884:9885   */\n      dup4\n        /* \"#utility.yul\":9866:9886   */\n      tag_110\n      jump\t// in\n    tag_244:\n        /* \"#utility.yul\":9861:9886   */\n      swap3\n      pop\n        /* \"#utility.yul\":9905:9906   */\n      dup3\n        /* \"#utility.yul\":9895:9930   */\n      tag_245\n      jumpi\n        /* \"#utility.yul\":9910:9928   */\n      tag_246\n      tag_122\n      jump\t// in\n    tag_246:\n        /* \"#utility.yul\":9895:9930   */\n    tag_245:\n        /* \"#utility.yul\":9952:9953   */\n      dup3\n        /* \"#utility.yul\":9949:9950   */\n      dup3\n        /* \"#utility.yul\":9945:9954   */\n      div\n        /* \"#utility.yul\":9940:9954   */\n      swap1\n      pop\n        /* \"#utility.yul\":9775:9960   */\n      swap3\n      swap2\n      pop\n      pop\n      jump\t// out\n        /* \"#utility.yul\":9966:10160   */\n    tag_66:\n        /* \"#utility.yul\":10006:10010   */\n      0x00\n        /* \"#utility.yul\":10026:10046   */\n      tag_248\n        /* \"#utility.yul\":10044:10045   */\n      dup3\n        /* \"#utility.yul\":10026:10046   */\n      tag_110\n      jump\t// in\n    tag_248:\n        /* \"#utility.yul\":10021:10046   */\n      swap2\n      pop\n        /* \"#utility.yul\":10060:10080   */\n      tag_249\n        /* \"#utility.yul\":10078:10079   */\n      dup4\n        /* \"#utility.yul\":10060:10080   */\n      tag_110\n      jump\t// in\n    tag_249:\n        /* \"#utility.yul\":10055:10080   */\n      swap3\n      pop\n        /* \"#utility.yul\":10104:10105   */\n      dup3\n        /* \"#utility.yul\":10101:10102   */\n      dup3\n        /* \"#utility.yul\":10097:10106   */\n      sub\n        /* \"#utility.yul\":10089:10106   */\n      swap1\n      pop\n        /* \"#utility.yul\":10128:10129   */\n      dup2\n        /* \"#utility.yul\":10122:10126   */\n      dup2\n        /* \"#utility.yul\":10119:10130   */\n      gt\n        /* \"#utility.yul\":10116:10153   */\n      iszero\n      tag_250\n      jumpi\n        /* \"#utility.yul\":10133:10151   */\n      tag_251\n      tag_121\n      jump\t// in\n    tag_251:\n        /* \"#utility.yul\":10116:10153   */\n    tag_250:\n        /* \"#utility.yul\":9966:10160   */\n      swap3\n      swap2\n      pop\n      pop\n      jump\t// out\n        /* \"#utility.yul\":10166:10576   */\n    tag_79:\n        /* \"#utility.yul\":10206:10213   */\n      0x00\n        /* \"#utility.yul\":10229:10249   */\n      tag_253\n        /* \"#utility.yul\":10247:10248   */\n      dup3\n        /* \"#utility.yul\":10229:10249   */\n      tag_97\n      jump\t// in\n    tag_253:\n        /* \"#utility.yul\":10224:10249   */\n      swap2\n      pop\n        /* \"#utility.yul\":10263:10283   */\n      tag_254\n        /* \"#utility.yul\":10281:10282   */\n      dup4\n        /* \"#utility.yul\":10263:10283   */\n      tag_97\n      jump\t// in\n    tag_254:\n        /* \"#utility.yul\":10258:10283   */\n      swap3\n      pop\n        /* \"#utility.yul\":10318:10319   */\n      dup3\n        /* \"#utility.yul\":10315:10316   */\n      dup3\n        /* \"#utility.yul\":10311:10320   */\n      mul\n        /* \"#utility.yul\":10340:10370   */\n      tag_255\n        /* \"#utility.yul\":10358:10369   */\n      dup2\n        /* \"#utility.yul\":10340:10370   */\n      tag_97\n      jump\t// in\n    tag_255:\n        /* \"#utility.yul\":10329:10370   */\n      swap2\n      pop\n        /* \"#utility.yul\":10519:10520   */\n      dup3\n        /* \"#utility.yul\":10510:10517   */\n      dup3\n        /* \"#utility.yul\":10506:10521   */\n      div\n        /* \"#utility.yul\":10503:10504   */\n      dup5\n        /* \"#utility.yul\":10500:10522   */\n      eq\n        /* \"#utility.yul\":10480:10481   */\n      dup4\n        /* \"#utility.yul\":10473:10482   */\n      iszero\n        /* \"#utility.yul\":10453:10536   */\n      or\n        /* \"#utility.yul\":10430:10569   */\n      tag_256\n      jumpi\n        /* \"#utility.yul\":10549:10567   */\n      tag_257\n      tag_121\n      jump\t// in\n    tag_257:\n        /* \"#utility.yul\":10430:10569   */\n    tag_256:\n        /* \"#utility.yul\":10214:10576   */\n      pop\n        /* \"#utility.yul\":10166:10576   */\n      swap3\n      swap2\n      pop\n      pop\n      jump\t// out\n        /* \"#utility.yul\":10582:10767   */\n    tag_81:\n        /* \"#utility.yul\":10622:10623   */\n      0x00\n        /* \"#utility.yul\":10639:10659   */\n      tag_259\n        /* \"#utility.yul\":10657:10658   */\n      dup3\n        /* \"#utility.yul\":10639:10659   */\n      tag_97\n      jump\t// in\n    tag_259:\n        /* \"#utility.yul\":10634:10659   */\n      swap2\n      pop\n        /* \"#utility.yul\":10673:10693   */\n      tag_260\n        /* \"#utility.yul\":10691:10692   */\n      dup4\n        /* \"#utility.yul\":10673:10693   */\n      tag_97\n      jump\t// in\n    tag_260:\n        /* \"#utility.yul\":10668:10693   */\n      swap3\n      pop\n        /* \"#utility.yul\":10712:10713   */\n      dup3\n        /* \"#utility.yul\":10702:10737   */\n      tag_261\n      jumpi\n        /* \"#utility.yul\":10717:10735   */\n      tag_262\n      tag_122\n      jump\t// in\n    tag_262:\n        /* \"#utility.yul\":10702:10737   */\n    tag_261:\n        /* \"#utility.yul\":10759:10760   */\n      dup3\n        /* \"#utility.yul\":10756:10757   */\n      dup3\n        /* \"#utility.yul\":10752:10761   */\n      div\n        /* \"#utility.yul\":10747:10761   */\n      swap1\n      pop\n        /* \"#utility.yul\":10582:10767   */\n      swap3\n      swap2\n      pop\n      pop\n      jump\t// out\n        /* \"#utility.yul\":10773:11008   */\n    tag_83:\n        /* \"#utility.yul\":10813:10817   */\n      0x00\n        /* \"#utility.yul\":10833:10853   */\n      tag_264\n        /* \"#utility.yul\":10851:10852   */\n      dup3\n        /* \"#utility.yul\":10833:10853   */\n      tag_97\n      jump\t// in\n    tag_264:\n        /* \"#utility.yul\":10828:10853   */\n      swap2\n      pop\n        /* \"#utility.yul\":10867:10887   */\n      tag_265\n        /* \"#utility.yul\":10885:10886   */\n      dup4\n        /* \"#utility.yul\":10867:10887   */\n      tag_97\n      jump\t// in\n    tag_265:\n        /* \"#utility.yul\":10862:10887   */\n      swap3\n      pop\n        /* \"#utility.yul\":10911:10912   */\n      dup3\n        /* \"#utility.yul\":10908:10909   */\n      dup3\n        /* \"#utility.yul\":10904:10913   */\n      sub\n        /* \"#utility.yul\":10896:10913   */\n      swap1\n      pop\n        /* \"#utility.yul\":10935:10977   */\n      0xffffffffffffffffffffffffffffffffffffffff\n        /* \"#utility.yul\":10929:10933   */\n      dup2\n        /* \"#utility.yul\":10926:10978   */\n      gt\n        /* \"#utility.yul\":10923:11001   */\n      iszero\n      tag_266\n      jumpi\n        /* \"#utility.yul\":10981:10999   */\n      tag_267\n      tag_121\n      jump\t// in\n    tag_267:\n        /* \"#utility.yul\":10923:11001   */\n    tag_266:\n        /* \"#utility.yul\":10773:11008   */\n      swap3\n      swap2\n      pop\n      pop\n      jump\t// out\n        /* \"#utility.yul\":11014:11246   */\n    tag_88:\n        /* \"#utility.yul\":11054:11057   */\n      0x00\n        /* \"#utility.yul\":11073:11093   */\n      tag_269\n        /* \"#utility.yul\":11091:11092   */\n      dup3\n        /* \"#utility.yul\":11073:11093   */\n      tag_97\n      jump\t// in\n    tag_269:\n        /* \"#utility.yul\":11068:11093   */\n      swap2\n      pop\n        /* \"#utility.yul\":11107:11127   */\n      tag_270\n        /* \"#utility.yul\":11125:11126   */\n      dup4\n        /* \"#utility.yul\":11107:11127   */\n      tag_97\n      jump\t// in\n    tag_270:\n        /* \"#utility.yul\":11102:11127   */\n      swap3\n      pop\n        /* \"#utility.yul\":11150:11151   */\n      dup3\n        /* \"#utility.yul\":11147:11148   */\n      dup3\n        /* \"#utility.yul\":11143:11152   */\n      add\n        /* \"#utility.yul\":11136:11152   */\n      swap1\n      pop\n        /* \"#utility.yul\":11173:11215   */\n      0xffffffffffffffffffffffffffffffffffffffff\n        /* \"#utility.yul\":11168:11171   */\n      dup2\n        /* \"#utility.yul\":11165:11216   */\n      gt\n        /* \"#utility.yul\":11162:11239   */\n      iszero\n      tag_271\n      jumpi\n        /* \"#utility.yul\":11219:11237   */\n      tag_272\n      tag_121\n      jump\t// in\n    tag_272:\n        /* \"#utility.yul\":11162:11239   */\n    tag_271:\n        /* \"#utility.yul\":11014:11246   */\n      swap3\n      swap2\n      pop\n      pop\n      jump\t// out\n        /* \"#utility.yul\":11252:11374   */\n    tag_123:\n        /* \"#utility.yul\":11325:11349   */\n      tag_274\n        /* \"#utility.yul\":11343:11348   */\n      dup2\n        /* \"#utility.yul\":11325:11349   */\n      tag_97\n      jump\t// in\n    tag_274:\n        /* \"#utility.yul\":11318:11323   */\n      dup2\n        /* \"#utility.yul\":11315:11350   */\n      eq\n        /* \"#utility.yul\":11305:11368   */\n      tag_275\n      jumpi\n        /* \"#utility.yul\":11364:11365   */\n      0x00\n        /* \"#utility.yul\":11361:11362   */\n      dup1\n        /* \"#utility.yul\":11354:11366   */\n      revert\n        /* \"#utility.yul\":11305:11368   */\n    tag_275:\n        /* \"#utility.yul\":11252:11374   */\n      pop\n      jump\t// out\n        /* \"#utility.yul\":11380:11523   */\n    tag_124:\n        /* \"#utility.yul\":11437:11442   */\n      0x00\n        /* \"#utility.yul\":11468:11474   */\n      dup2\n        /* \"#utility.yul\":11462:11475   */\n      mload\n        /* \"#utility.yul\":11453:11475   */\n      swap1\n      pop\n        /* \"#utility.yul\":11484:11517   */\n      tag_277\n        /* \"#utility.yul\":11511:11516   */\n      dup2\n        /* \"#utility.yul\":11484:11517   */\n      tag_123\n      jump\t// in\n    tag_277:\n        /* \"#utility.yul\":11380:11523   */\n      swap3\n      swap2\n      pop\n      pop\n      jump\t// out\n        /* \"#utility.yul\":11529:11619   */\n    tag_125:\n        /* \"#utility.yul\":11564:11571   */\n      0x00\n        /* \"#utility.yul\":11607:11612   */\n      dup2\n        /* \"#utility.yul\":11604:11605   */\n      0x02\n        /* \"#utility.yul\":11593:11613   */\n      signextend\n        /* \"#utility.yul\":11582:11613   */\n      swap1\n      pop\n        /* \"#utility.yul\":11529:11619   */\n      swap2\n      swap1\n      pop\n      jump\t// out\n        /* \"#utility.yul\":11625:11743   */\n    tag_126:\n        /* \"#utility.yul\":11696:11718   */\n      tag_280\n        /* \"#utility.yul\":11712:11717   */\n      dup2\n        /* \"#utility.yul\":11696:11718   */\n      tag_125\n      jump\t// in\n    tag_280:\n        /* \"#utility.yul\":11689:11694   */\n      dup2\n        /* \"#utility.yul\":11686:11719   */\n      eq\n        /* \"#utility.yul\":11676:11737   */\n      tag_281\n      jumpi\n        /* \"#utility.yul\":11733:11734   */\n      0x00\n        /* \"#utility.yul\":11730:11731   */\n      dup1\n        /* \"#utility.yul\":11723:11735   */\n      revert\n        /* \"#utility.yul\":11676:11737   */\n    tag_281:\n        /* \"#utility.yul\":11625:11743   */\n      pop\n      jump\t// out\n        /* \"#utility.yul\":11749:11888   */\n    tag_127:\n        /* \"#utility.yul\":11804:11809   */\n      0x00\n        /* \"#utility.yul\":11835:11841   */\n      dup2\n        /* \"#utility.yul\":11829:11842   */\n      mload\n        /* \"#utility.yul\":11820:11842   */\n      swap1\n      pop\n        /* \"#utility.yul\":11851:11882   */\n      tag_283\n        /* \"#utility.yul\":11876:11881   */\n      dup2\n        /* \"#utility.yul\":11851:11882   */\n      tag_126\n      jump\t// in\n    tag_283:\n        /* \"#utility.yul\":11749:11888   */\n      swap3\n      swap2\n      pop\n      pop\n      jump\t// out\n        /* \"#utility.yul\":11894:11983   */\n    tag_128:\n        /* \"#utility.yul\":11930:11937   */\n      0x00\n        /* \"#utility.yul\":11970:11976   */\n      0xffff\n        /* \"#utility.yul\":11963:11968   */\n      dup3\n        /* \"#utility.yul\":11959:11977   */\n      and\n        /* \"#utility.yul\":11948:11977   */\n      swap1\n      pop\n        /* \"#utility.yul\":11894:11983   */\n      swap2\n      swap1\n      pop\n      jump\t// out\n        /* \"#utility.yul\":11989:12109   */\n    tag_129:\n        /* \"#utility.yul\":12061:12084   */\n      tag_286\n        /* \"#utility.yul\":12078:12083   */\n      dup2\n        /* \"#utility.yul\":12061:12084   */\n      tag_128\n      jump\t// in\n    tag_286:\n        /* \"#utility.yul\":12054:12059   */\n      dup2\n        /* \"#utility.yul\":12051:12085   */\n      eq\n        /* \"#utility.yul\":12041:12103   */\n      tag_287\n      jumpi\n        /* \"#utility.yul\":12099:12100   */\n      0x00\n        /* \"#utility.yul\":12096:12097   */\n      dup1\n        /* \"#utility.yul\":12089:12101   */\n      revert\n        /* \"#utility.yul\":12041:12103   */\n    tag_287:\n        /* \"#utility.yul\":11989:12109   */\n      pop\n      jump\t// out\n        /* \"#utility.yul\":12115:12256   */\n    tag_130:\n        /* \"#utility.yul\":12171:12176   */\n      0x00\n        /* \"#utility.yul\":12202:12208   */\n      dup2\n        /* \"#utility.yul\":12196:12209   */\n      mload\n        /* \"#utility.yul\":12187:12209   */\n      swap1\n      pop\n        /* \"#utility.yul\":12218:12250   */\n      tag_289\n        /* \"#utility.yul\":12244:12249   */\n      dup2\n        /* \"#utility.yul\":12218:12250   */\n      tag_129\n      jump\t// in\n    tag_289:\n        /* \"#utility.yul\":12115:12256   */\n      swap3\n      swap2\n      pop\n      pop\n      jump\t// out\n        /* \"#utility.yul\":12262:12348   */\n    tag_131:\n        /* \"#utility.yul\":12297:12304   */\n      0x00\n        /* \"#utility.yul\":12337:12341   */\n      0xff\n        /* \"#utility.yul\":12330:12335   */\n      dup3\n        /* \"#utility.yul\":12326:12342   */\n      and\n        /* \"#utility.yul\":12315:12342   */\n      swap1\n      pop\n        /* \"#utility.yul\":12262:12348   */\n      swap2\n      swap1\n      pop\n      jump\t// out\n        /* \"#utility.yul\":12354:12472   */\n    tag_132:\n        /* \"#utility.yul\":12425:12447   */\n      tag_292\n        /* \"#utility.yul\":12441:12446   */\n      dup2\n        /* \"#utility.yul\":12425:12447   */\n      tag_131\n      jump\t// in\n    tag_292:\n        /* \"#utility.yul\":12418:12423   */\n      dup2\n        /* \"#utility.yul\":12415:12448   */\n      eq\n        /* \"#utility.yul\":12405:12466   */\n      tag_293\n      jumpi\n        /* \"#utility.yul\":12462:12463   */\n      0x00\n        /* \"#utility.yul\":12459:12460   */\n      dup1\n        /* \"#utility.yul\":12452:12464   */\n      revert\n        /* \"#utility.yul\":12405:12466   */\n    tag_293:\n        /* \"#utility.yul\":12354:12472   */\n      pop\n      jump\t// out\n        /* \"#utility.yul\":12478:12617   */\n    tag_133:\n        /* \"#utility.yul\":12533:12538   */\n      0x00\n        /* \"#utility.yul\":12564:12570   */\n      dup2\n        /* \"#utility.yul\":12558:12571   */\n      mload\n        /* \"#utility.yul\":12549:12571   */\n      swap1\n      pop\n        /* \"#utility.yul\":12580:12611   */\n      tag_295\n        /* \"#utility.yul\":12605:12610   */\n      dup2\n        /* \"#utility.yul\":12580:12611   */\n      tag_132\n      jump\t// in\n    tag_295:\n        /* \"#utility.yul\":12478:12617   */\n      swap3\n      swap2\n      pop\n      pop\n      jump\t// out\n        /* \"#utility.yul\":12623:12713   */\n    tag_134:\n        /* \"#utility.yul\":12657:12664   */\n      0x00\n        /* \"#utility.yul\":12700:12705   */\n      dup2\n        /* \"#utility.yul\":12693:12706   */\n      iszero\n        /* \"#utility.yul\":12686:12707   */\n      iszero\n        /* \"#utility.yul\":12675:12707   */\n      swap1\n      pop\n        /* \"#utility.yul\":12623:12713   */\n      swap2\n      swap1\n      pop\n      jump\t// out\n        /* \"#utility.yul\":12719:12835   */\n    tag_135:\n        /* \"#utility.yul\":12789:12810   */\n      tag_298\n        /* \"#utility.yul\":12804:12809   */\n      dup2\n        /* \"#utility.yul\":12789:12810   */\n      tag_134\n      jump\t// in\n    tag_298:\n        /* \"#utility.yul\":12782:12787   */\n      dup2\n        /* \"#utility.yul\":12779:12811   */\n      eq\n        /* \"#utility.yul\":12769:12829   */\n      tag_299\n      jumpi\n        /* \"#utility.yul\":12825:12826   */\n      0x00\n        /* \"#utility.yul\":12822:12823   */\n      dup1\n        /* \"#utility.yul\":12815:12827   */\n      revert\n        /* \"#utility.yul\":12769:12829   */\n    tag_299:\n        /* \"#utility.yul\":12719:12835   */\n      pop\n      jump\t// out\n        /* \"#utility.yul\":12841:12978   */\n    tag_136:\n        /* \"#utility.yul\":12895:12900   */\n      0x00\n        /* \"#utility.yul\":12926:12932   */\n      dup2\n        /* \"#utility.yul\":12920:12933   */\n      mload\n        /* \"#utility.yul\":12911:12933   */\n      swap1\n      pop\n        /* \"#utility.yul\":12942:12972   */\n      tag_301\n        /* \"#utility.yul\":12966:12971   */\n      dup2\n        /* \"#utility.yul\":12942:12972   */\n      tag_135\n      jump\t// in\n    tag_301:\n        /* \"#utility.yul\":12841:12978   */\n      swap3\n      swap2\n      pop\n      pop\n      jump\t// out\n        /* \"#utility.yul\":12984:14255   */\n    tag_93:\n        /* \"#utility.yul\":13098:13104   */\n      0x00\n        /* \"#utility.yul\":13106:13112   */\n      dup1\n        /* \"#utility.yul\":13114:13120   */\n      0x00\n        /* \"#utility.yul\":13122:13128   */\n      dup1\n        /* \"#utility.yul\":13130:13136   */\n      0x00\n        /* \"#utility.yul\":13138:13144   */\n      dup1\n        /* \"#utility.yul\":13146:13152   */\n      0x00\n        /* \"#utility.yul\":13195:13198   */\n      0xe0\n        /* \"#utility.yul\":13183:13192   */\n      dup9\n        /* \"#utility.yul\":13174:13181   */\n      dup11\n        /* \"#utility.yul\":13170:13193   */\n      sub\n        /* \"#utility.yul\":13166:13199   */\n      slt\n        /* \"#utility.yul\":13163:13283   */\n      iszero\n      tag_303\n      jumpi\n        /* \"#utility.yul\":13202:13281   */\n      tag_304\n      tag_95\n      jump\t// in\n    tag_304:\n        /* \"#utility.yul\":13163:13283   */\n    tag_303:\n        /* \"#utility.yul\":13322:13323   */\n      0x00\n        /* \"#utility.yul\":13347:13411   */\n      tag_305\n        /* \"#utility.yul\":13403:13410   */\n      dup11\n        /* \"#utility.yul\":13394:13400   */\n      dup3\n        /* \"#utility.yul\":13383:13392   */\n      dup12\n        /* \"#utility.yul\":13379:13401   */\n      add\n        /* \"#utility.yul\":13347:13411   */\n      tag_124\n      jump\t// in\n    tag_305:\n        /* \"#utility.yul\":13337:13411   */\n      swap8\n      pop\n        /* \"#utility.yul\":13293:13421   */\n      pop\n        /* \"#utility.yul\":13460:13462   */\n      0x20\n        /* \"#utility.yul\":13486:13548   */\n      tag_306\n        /* \"#utility.yul\":13540:13547   */\n      dup11\n        /* \"#utility.yul\":13531:13537   */\n      dup3\n        /* \"#utility.yul\":13520:13529   */\n      dup12\n        /* \"#utility.yul\":13516:13538   */\n      add\n        /* \"#utility.yul\":13486:13548   */\n      tag_127\n      jump\t// in\n    tag_306:\n        /* \"#utility.yul\":13476:13548   */\n      swap7\n      pop\n        /* \"#utility.yul\":13431:13558   */\n      pop\n        /* \"#utility.yul\":13597:13599   */\n      0x40\n        /* \"#utility.yul\":13623:13686   */\n      tag_307\n        /* \"#utility.yul\":13678:13685   */\n      dup11\n        /* \"#utility.yul\":13669:13675   */\n      dup3\n        /* \"#utility.yul\":13658:13667   */\n      dup12\n        /* \"#utility.yul\":13654:13676   */\n      add\n        /* \"#utility.yul\":13623:13686   */\n      tag_130\n      jump\t// in\n    tag_307:\n        /* \"#utility.yul\":13613:13686   */\n      swap6\n      pop\n        /* \"#utility.yul\":13568:13696   */\n      pop\n        /* \"#utility.yul\":13735:13737   */\n      0x60\n        /* \"#utility.yul\":13761:13824   */\n      tag_308\n        /* \"#utility.yul\":13816:13823   */\n      dup11\n        /* \"#utility.yul\":13807:13813   */\n      dup3\n        /* \"#utility.yul\":13796:13805   */\n      dup12\n        /* \"#utility.yul\":13792:13814   */\n      add\n        /* \"#utility.yul\":13761:13824   */\n      tag_130\n      jump\t// in\n    tag_308:\n        /* \"#utility.yul\":13751:13824   */\n      swap5\n      pop\n        /* \"#utility.yul\":13706:13834   */\n      pop\n        /* \"#utility.yul\":13873:13876   */\n      0x80\n        /* \"#utility.yul\":13900:13963   */\n      tag_309\n        /* \"#utility.yul\":13955:13962   */\n      dup11\n        /* \"#utility.yul\":13946:13952   */\n      dup3\n        /* \"#utility.yul\":13935:13944   */\n      dup12\n        /* \"#utility.yul\":13931:13953   */\n      add\n        /* \"#utility.yul\":13900:13963   */\n      tag_130\n      jump\t// in\n    tag_309:\n        /* \"#utility.yul\":13890:13963   */\n      swap4\n      pop\n        /* \"#utility.yul\":13844:13973   */\n      pop\n        /* \"#utility.yul\":14012:14015   */\n      0xa0\n        /* \"#utility.yul\":14039:14101   */\n      tag_310\n        /* \"#utility.yul\":14093:14100   */\n      dup11\n        /* \"#utility.yul\":14084:14090   */\n      dup3\n        /* \"#utility.yul\":14073:14082   */\n      dup12\n        /* \"#utility.yul\":14069:14091   */\n      add\n        /* \"#utility.yul\":14039:14101   */\n      tag_133\n      jump\t// in\n    tag_310:\n        /* \"#utility.yul\":14029:14101   */\n      swap3\n      pop\n        /* \"#utility.yul\":13983:14111   */\n      pop\n        /* \"#utility.yul\":14150:14153   */\n      0xc0\n        /* \"#utility.yul\":14177:14238   */\n      tag_311\n        /* \"#utility.yul\":14230:14237   */\n      dup11\n        /* \"#utility.yul\":14221:14227   */\n      dup3\n        /* \"#utility.yul\":14210:14219   */\n      dup12\n        /* \"#utility.yul\":14206:14228   */\n      add\n        /* \"#utility.yul\":14177:14238   */\n      tag_136\n      jump\t// in\n    tag_311:\n        /* \"#utility.yul\":14167:14238   */\n      swap2\n      pop\n        /* \"#utility.yul\":14121:14248   */\n      pop\n        /* \"#utility.yul\":12984:14255   */\n      swap3\n      swap6\n      swap9\n      swap2\n      swap5\n      swap8\n      pop\n      swap3\n      swap6\n      pop\n      jump\t// out\n\n    auxdata: 0xa26469706673582212205baee5bee15f1e6530b87ffaff1c76904c1bc2acc7c4d657a7bcd02ed10c626164736f6c63430008180033\n}\n",
				"bytecode": {
					"linkReferences": {},
					"object": "608060405234801561000f575f80fd5b50610d8e8061001d5f395ff3fe608060405234801561000f575f80fd5b506004361061004a575f3560e01c80631da2d5711461004e57806342fcc6fb1461007e57806371302915146100ae578063da91803e146100de575b5f80fd5b610068600480360381019061006391906105be565b61010e565b60405161007591906106b3565b60405180910390f35b610098600480360381019061009391906106d3565b61023b565b6040516100a5919061071b565b60405180910390f35b6100c860048036038101906100c391906107c8565b6102b0565b6040516100d5919061085b565b60405180910390f35b6100f860048036038101906100f39190610874565b6103ef565b60405161010591906108f4565b60405180910390f35b60605f600267ffffffffffffffff81111561012c5761012b61090d565b5b60405190808252806020026020018201604052801561015a5781602001602082028036833780820191505090505b5090508273ffffffffffffffffffffffffffffffffffffffff168473ffffffffffffffffffffffffffffffffffffffff161161019757838361019a565b82845b825f815181106101ad576101ac61093a565b5b60200260200101836001815181106101c8576101c761093a565b5b602002602001018273ffffffffffffffffffffffffffffffffffffffff1673ffffffffffffffffffffffffffffffffffffffff168152508273ffffffffffffffffffffffffffffffffffffffff1673ffffffffffffffffffffffffffffffffffffffff1681525050508091505092915050565b5f8173ffffffffffffffffffffffffffffffffffffffff1663ddca3f436040518163ffffffff1660e01b8152600401602060405180830381865afa158015610285573d5f803e3d5ffd5b505050506040513d601f19601f820116820180604052508101906102a99190610991565b9050919050565b5f806102bb876104dc565b90505f60608273ffffffffffffffffffffffffffffffffffffffff168373ffffffffffffffffffffffffffffffffffffffff166102f891906109e9565b901c90505f858560018181106103115761031061093a565b5b905060200201602081019061032691906106d3565b73ffffffffffffffffffffffffffffffffffffffff1686865f81811061034f5761034e61093a565b5b905060200201602081019061036491906106d3565b73ffffffffffffffffffffffffffffffffffffffff1611610394576060828861038d91906109e9565b901c6103b9565b816c01000000000000000000000000886103ae91906109e9565b6103b89190610a57565b5b90506103e8886103e86103cc9190610a87565b826103d791906109e9565b6103e19190610a57565b935050505095945050505050565b5f806103fa866104dc565b90505f848460018181106104115761041061093a565b5b905060200201602081019061042691906106d3565b73ffffffffffffffffffffffffffffffffffffffff1685855f81811061044f5761044e61093a565b5b905060200201602081019061046491906106d3565b73ffffffffffffffffffffffffffffffffffffffff16116104a8576103e8868361048e9190610aba565b6104989190610afb565b826104a39190610b2b565b6104cd565b6103e886836104b79190610aba565b6104c19190610afb565b826104cc9190610b72565b5b90508092505050949350505050565b5f808273ffffffffffffffffffffffffffffffffffffffff16633850c7bd6040518163ffffffff1660e01b815260040160e060405180830381865afa158015610527573d5f803e3d5ffd5b505050506040513d601f19601f8201168201806040525081019061054b9190610cbb565b505050505050905080915050919050565b5f80fd5b5f80fd5b5f73ffffffffffffffffffffffffffffffffffffffff82169050919050565b5f61058d82610564565b9050919050565b61059d81610583565b81146105a7575f80fd5b50565b5f813590506105b881610594565b92915050565b5f80604083850312156105d4576105d361055c565b5b5f6105e1858286016105aa565b92505060206105f2858286016105aa565b9150509250929050565b5f81519050919050565b5f82825260208201905092915050565b5f819050602082019050919050565b61062e81610583565b82525050565b5f61063f8383610625565b60208301905092915050565b5f602082019050919050565b5f610661826105fc565b61066b8185610606565b935061067683610616565b805f5b838110156106a657815161068d8882610634565b97506106988361064b565b925050600181019050610679565b5085935050505092915050565b5f6020820190508181035f8301526106cb8184610657565b905092915050565b5f602082840312156106e8576106e761055c565b5b5f6106f5848285016105aa565b91505092915050565b5f62ffffff82169050919050565b610715816106fe565b82525050565b5f60208201905061072e5f83018461070c565b92915050565b5f819050919050565b61074681610734565b8114610750575f80fd5b50565b5f813590506107618161073d565b92915050565b5f80fd5b5f80fd5b5f80fd5b5f8083601f84011261078857610787610767565b5b8235905067ffffffffffffffff8111156107a5576107a461076b565b5b6020830191508360208202830111156107c1576107c061076f565b5b9250929050565b5f805f805f608086880312156107e1576107e061055c565b5b5f6107ee888289016105aa565b95505060206107ff88828901610753565b945050604061081088828901610753565b935050606086013567ffffffffffffffff81111561083157610830610560565b5b61083d88828901610773565b92509250509295509295909350565b61085581610734565b82525050565b5f60208201905061086e5f83018461084c565b92915050565b5f805f806060858703121561088c5761088b61055c565b5b5f610899878288016105aa565b94505060206108aa87828801610753565b935050604085013567ffffffffffffffff8111156108cb576108ca610560565b5b6108d787828801610773565b925092505092959194509250565b6108ee81610564565b82525050565b5f6020820190506109075f8301846108e5565b92915050565b7f4e487b71000000000000000000000000000000000000000000000000000000005f52604160045260245ffd5b7f4e487b71000000000000000000000000000000000000000000000000000000005f52603260045260245ffd5b610970816106fe565b811461097a575f80fd5b50565b5f8151905061098b81610967565b92915050565b5f602082840312156109a6576109a561055c565b5b5f6109b38482850161097d565b91505092915050565b7f4e487b71000000000000000000000000000000000000000000000000000000005f52601160045260245ffd5b5f6109f382610734565b91506109fe83610734565b9250828202610a0c81610734565b91508282048414831517610a2357610a226109bc565b5b5092915050565b7f4e487b71000000000000000000000000000000000000000000000000000000005f52601260045260245ffd5b5f610a6182610734565b9150610a6c83610734565b925082610a7c57610a7b610a2a565b5b828204905092915050565b5f610a9182610734565b9150610a9c83610734565b9250828203905081811115610ab457610ab36109bc565b5b92915050565b5f610ac482610564565b9150610acf83610564565b9250828202610add81610564565b91508282048414831517610af457610af36109bc565b5b5092915050565b5f610b0582610564565b9150610b1083610564565b925082610b2057610b1f610a2a565b5b828204905092915050565b5f610b3582610564565b9150610b4083610564565b9250828203905073ffffffffffffffffffffffffffffffffffffffff811115610b6c57610b6b6109bc565b5b92915050565b5f610b7c82610564565b9150610b8783610564565b9250828201905073ffffffffffffffffffffffffffffffffffffffff811115610bb357610bb26109bc565b5b92915050565b610bc281610564565b8114610bcc575f80fd5b50565b5f81519050610bdd81610bb9565b92915050565b5f8160020b9050919050565b610bf881610be3565b8114610c02575f80fd5b50565b5f81519050610c1381610bef565b92915050565b5f61ffff82169050919050565b610c2f81610c19565b8114610c39575f80fd5b50565b5f81519050610c4a81610c26565b92915050565b5f60ff82169050919050565b610c6581610c50565b8114610c6f575f80fd5b50565b5f81519050610c8081610c5c565b92915050565b5f8115159050919050565b610c9a81610c86565b8114610ca4575f80fd5b50565b5f81519050610cb581610c91565b92915050565b5f805f805f805f60e0888a031215610cd657610cd561055c565b5b5f610ce38a828b01610bcf565b9750506020610cf48a828b01610c05565b9650506040610d058a828b01610c3c565b9550506060610d168a828b01610c3c565b9450506080610d278a828b01610c3c565b93505060a0610d388a828b01610c72565b92505060c0610d498a828b01610ca7565b9150509295989194975092955056fea26469706673582212205baee5bee15f1e6530b87ffaff1c76904c1bc2acc7c4d657a7bcd02ed10c626164736f6c63430008180033",
					"opcodes": "PUSH1 0x80 PUSH1 0x40 MSTORE CALLVALUE DUP1 ISZERO PUSH2 0xF JUMPI PUSH0 DUP1 REVERT JUMPDEST POP PUSH2 0xD8E DUP1 PUSH2 0x1D PUSH0 CODECOPY PUSH0 RETURN INVALID PUSH1 0x80 PUSH1 0x40 MSTORE CALLVALUE DUP1 ISZERO PUSH2 0xF JUMPI PUSH0 DUP1 REVERT JUMPDEST POP PUSH1 0x4 CALLDATASIZE LT PUSH2 0x4A JUMPI PUSH0 CALLDATALOAD PUSH1 0xE0 SHR DUP1 PUSH4 0x1DA2D571 EQ PUSH2 0x4E JUMPI DUP1 PUSH4 0x42FCC6FB EQ PUSH2 0x7E JUMPI DUP1 PUSH4 0x71302915 EQ PUSH2 0xAE JUMPI DUP1 PUSH4 0xDA91803E EQ PUSH2 0xDE JUMPI JUMPDEST PUSH0 DUP1 REVERT JUMPDEST PUSH2 0x68 PUSH1 0x4 DUP1 CALLDATASIZE SUB DUP2 ADD SWAP1 PUSH2 0x63 SWAP2 SWAP1 PUSH2 0x5BE JUMP JUMPDEST PUSH2 0x10E JUMP JUMPDEST PUSH1 0x40 MLOAD PUSH2 0x75 SWAP2 SWAP1 PUSH2 0x6B3 JUMP JUMPDEST PUSH1 0x40 MLOAD DUP1 SWAP2 SUB SWAP1 RETURN JUMPDEST PUSH2 0x98 PUSH1 0x4 DUP1 CALLDATASIZE SUB DUP2 ADD SWAP1 PUSH2 0x93 SWAP2 SWAP1 PUSH2 0x6D3 JUMP JUMPDEST PUSH2 0x23B JUMP JUMPDEST PUSH1 0x40 MLOAD PUSH2 0xA5 SWAP2 SWAP1 PUSH2 0x71B JUMP JUMPDEST PUSH1 0x40 MLOAD DUP1 SWAP2 SUB SWAP1 RETURN JUMPDEST PUSH2 0xC8 PUSH1 0x4 DUP1 CALLDATASIZE SUB DUP2 ADD SWAP1 PUSH2 0xC3 SWAP2 SWAP1 PUSH2 0x7C8 JUMP JUMPDEST PUSH2 0x2B0 JUMP JUMPDEST PUSH1 0x40 MLOAD PUSH2 0xD5 SWAP2 SWAP1 PUSH2 0x85B JUMP JUMPDEST PUSH1 0x40 MLOAD DUP1 SWAP2 SUB SWAP1 RETURN JUMPDEST PUSH2 0xF8 PUSH1 0x4 DUP1 CALLDATASIZE SUB DUP2 ADD SWAP1 PUSH2 0xF3 SWAP2 SWAP1 PUSH2 0x874 JUMP JUMPDEST PUSH2 0x3EF JUMP JUMPDEST PUSH1 0x40 MLOAD PUSH2 0x105 SWAP2 SWAP1 PUSH2 0x8F4 JUMP JUMPDEST PUSH1 0x40 MLOAD DUP1 SWAP2 SUB SWAP1 RETURN JUMPDEST PUSH1 0x60 PUSH0 PUSH1 0x2 PUSH8 0xFFFFFFFFFFFFFFFF DUP2 GT ISZERO PUSH2 0x12C JUMPI PUSH2 0x12B PUSH2 0x90D JUMP JUMPDEST JUMPDEST PUSH1 0x40 MLOAD SWAP1 DUP1 DUP3 MSTORE DUP1 PUSH1 0x20 MUL PUSH1 0x20 ADD DUP3 ADD PUSH1 0x40 MSTORE DUP1 ISZERO PUSH2 0x15A JUMPI DUP2 PUSH1 0x20 ADD PUSH1 0x20 DUP3 MUL DUP1 CALLDATASIZE DUP4 CALLDATACOPY DUP1 DUP3 ADD SWAP2 POP POP SWAP1 POP JUMPDEST POP SWAP1 POP DUP3 PUSH20 0xFFFFFFFFFFFFFFFFFFFFFFFFFFFFFFFFFFFFFFFF AND DUP5 PUSH20 0xFFFFFFFFFFFFFFFFFFFFFFFFFFFFFFFFFFFFFFFF AND GT PUSH2 0x197 JUMPI DUP4 DUP4 PUSH2 0x19A JUMP JUMPDEST DUP3 DUP5 JUMPDEST DUP3 PUSH0 DUP2 MLOAD DUP2 LT PUSH2 0x1AD JUMPI PUSH2 0x1AC PUSH2 0x93A JUMP JUMPDEST JUMPDEST PUSH1 0x20 MUL PUSH1 0x20 ADD ADD DUP4 PUSH1 0x1 DUP2 MLOAD DUP2 LT PUSH2 0x1C8 JUMPI PUSH2 0x1C7 PUSH2 0x93A JUMP JUMPDEST JUMPDEST PUSH1 0x20 MUL PUSH1 0x20 ADD ADD DUP3 PUSH20 0xFFFFFFFFFFFFFFFFFFFFFFFFFFFFFFFFFFFFFFFF AND PUSH20 0xFFFFFFFFFFFFFFFFFFFFFFFFFFFFFFFFFFFFFFFF AND DUP2 MSTORE POP DUP3 PUSH20 0xFFFFFFFFFFFFFFFFFFFFFFFFFFFFFFFFFFFFFFFF AND PUSH20 0xFFFFFFFFFFFFFFFFFFFFFFFFFFFFFFFFFFFFFFFF AND DUP2 MSTORE POP POP POP DUP1 SWAP2 POP POP SWAP3 SWAP2 POP POP JUMP JUMPDEST PUSH0 DUP2 PUSH20 0xFFFFFFFFFFFFFFFFFFFFFFFFFFFFFFFFFFFFFFFF AND PUSH4 0xDDCA3F43 PUSH1 0x40 MLOAD DUP2 PUSH4 0xFFFFFFFF AND PUSH1 0xE0 SHL DUP2 MSTORE PUSH1 0x4 ADD PUSH1 0x20 PUSH1 0x40 MLOAD DUP1 DUP4 SUB DUP2 DUP7 GAS STATICCALL ISZERO DUP1 ISZERO PUSH2 0x285 JUMPI RETURNDATASIZE PUSH0 DUP1 RETURNDATACOPY RETURNDATASIZE PUSH0 REVERT JUMPDEST POP POP POP POP PUSH1 0x40 MLOAD RETURNDATASIZE PUSH1 0x1F NOT PUSH1 0x1F DUP3 ADD AND DUP3 ADD DUP1 PUSH1 0x40 MSTORE POP DUP2 ADD SWAP1 PUSH2 0x2A9 SWAP2 SWAP1 PUSH2 0x991 JUMP JUMPDEST SWAP1 POP SWAP2 SWAP1 POP JUMP JUMPDEST PUSH0 DUP1 PUSH2 0x2BB DUP8 PUSH2 0x4DC JUMP JUMPDEST SWAP1 POP PUSH0 PUSH1 0x60 DUP3 PUSH20 0xFFFFFFFFFFFFFFFFFFFFFFFFFFFFFFFFFFFFFFFF AND DUP4 PUSH20 0xFFFFFFFFFFFFFFFFFFFFFFFFFFFFFFFFFFFFFFFF AND PUSH2 0x2F8 SWAP2 SWAP1 PUSH2 0x9E9 JUMP JUMPDEST SWAP1 SHR SWAP1 POP PUSH0 DUP6 DUP6 PUSH1 0x1 DUP2 DUP2 LT PUSH2 0x311 JUMPI PUSH2 0x310 PUSH2 0x93A JUMP JUMPDEST JUMPDEST SWAP1 POP PUSH1 0x20 MUL ADD PUSH1 0x20 DUP2 ADD SWAP1 PUSH2 0x326 SWAP2 SWAP1 PUSH2 0x6D3 JUMP JUMPDEST PUSH20 0xFFFFFFFFFFFFFFFFFFFFFFFFFFFFFFFFFFFFFFFF AND DUP7 DUP7 PUSH0 DUP2 DUP2 LT PUSH2 0x34F JUMPI PUSH2 0x34E PUSH2 0x93A JUMP JUMPDEST JUMPDEST SWAP1 POP PUSH1 0x20 MUL ADD PUSH1 0x20 DUP2 ADD SWAP1 PUSH2 0x364 SWAP2 SWAP1 PUSH2 0x6D3 JUMP JUMPDEST PUSH20 0xFFFFFFFFFFFFFFFFFFFFFFFFFFFFFFFFFFFFFFFF AND GT PUSH2 0x394 JUMPI PUSH1 0x60 DUP3 DUP9 PUSH2 0x38D SWAP2 SWAP1 PUSH2 0x9E9 JUMP JUMPDEST SWAP1 SHR PUSH2 0x3B9 JUMP JUMPDEST DUP2 PUSH13 0x1000000000000000000000000 DUP9 PUSH2 0x3AE SWAP2 SWAP1 PUSH2 0x9E9 JUMP JUMPDEST PUSH2 0x3B8 SWAP2 SWAP1 PUSH2 0xA57 JUMP JUMPDEST JUMPDEST SWAP1 POP PUSH2 0x3E8 DUP9 PUSH2 0x3E8 PUSH2 0x3CC SWAP2 SWAP1 PUSH2 0xA87 JUMP JUMPDEST DUP3 PUSH2 0x3D7 SWAP2 SWAP1 PUSH2 0x9E9 JUMP JUMPDEST PUSH2 0x3E1 SWAP2 SWAP1 PUSH2 0xA57 JUMP JUMPDEST SWAP4 POP POP POP POP SWAP6 SWAP5 POP POP POP POP POP JUMP JUMPDEST PUSH0 DUP1 PUSH2 0x3FA DUP7 PUSH2 0x4DC JUMP JUMPDEST SWAP1 POP PUSH0 DUP5 DUP5 PUSH1 0x1 DUP2 DUP2 LT PUSH2 0x411 JUMPI PUSH2 0x410 PUSH2 0x93A JUMP JUMPDEST JUMPDEST SWAP1 POP PUSH1 0x20 MUL ADD PUSH1 0x20 DUP2 ADD SWAP1 PUSH2 0x426 SWAP2 SWAP1 PUSH2 0x6D3 JUMP JUMPDEST PUSH20 0xFFFFFFFFFFFFFFFFFFFFFFFFFFFFFFFFFFFFFFFF AND DUP6 DUP6 PUSH0 DUP2 DUP2 LT PUSH2 0x44F JUMPI PUSH2 0x44E PUSH2 0x93A JUMP JUMPDEST JUMPDEST SWAP1 POP PUSH1 0x20 MUL ADD PUSH1 0x20 DUP2 ADD SWAP1 PUSH2 0x464 SWAP2 SWAP1 PUSH2 0x6D3 JUMP JUMPDEST PUSH20 0xFFFFFFFFFFFFFFFFFFFFFFFFFFFFFFFFFFFFFFFF AND GT PUSH2 0x4A8 JUMPI PUSH2 0x3E8 DUP7 DUP4 PUSH2 0x48E SWAP2 SWAP1 PUSH2 0xABA JUMP JUMPDEST PUSH2 0x498 SWAP2 SWAP1 PUSH2 0xAFB JUMP JUMPDEST DUP3 PUSH2 0x4A3 SWAP2 SWAP1 PUSH2 0xB2B JUMP JUMPDEST PUSH2 0x4CD JUMP JUMPDEST PUSH2 0x3E8 DUP7 DUP4 PUSH2 0x4B7 SWAP2 SWAP1 PUSH2 0xABA JUMP JUMPDEST PUSH2 0x4C1 SWAP2 SWAP1 PUSH2 0xAFB JUMP JUMPDEST DUP3 PUSH2 0x4CC SWAP2 SWAP1 PUSH2 0xB72 JUMP JUMPDEST JUMPDEST SWAP1 POP DUP1 SWAP3 POP POP POP SWAP5 SWAP4 POP POP POP POP JUMP JUMPDEST PUSH0 DUP1 DUP3 PUSH20 0xFFFFFFFFFFFFFFFFFFFFFFFFFFFFFFFFFFFFFFFF AND PUSH4 0x3850C7BD PUSH1 0x40 MLOAD DUP2 PUSH4 0xFFFFFFFF AND PUSH1 0xE0 SHL DUP2 MSTORE PUSH1 0x4 ADD PUSH1 0xE0 PUSH1 0x40 MLOAD DUP1 DUP4 SUB DUP2 DUP7 GAS STATICCALL ISZERO DUP1 ISZERO PUSH2 0x527 JUMPI RETURNDATASIZE PUSH0 DUP1 RETURNDATACOPY RETURNDATASIZE PUSH0 REVERT JUMPDEST POP POP POP POP PUSH1 0x40 MLOAD RETURNDATASIZE PUSH1 0x1F NOT PUSH1 0x1F DUP3 ADD AND DUP3 ADD DUP1 PUSH1 0x40 MSTORE POP DUP2 ADD SWAP1 PUSH2 0x54B SWAP2 SWAP1 PUSH2 0xCBB JUMP JUMPDEST POP POP POP POP POP POP SWAP1 POP DUP1 SWAP2 POP POP SWAP2 SWAP1 POP JUMP JUMPDEST PUSH0 DUP1 REVERT JUMPDEST PUSH0 DUP1 REVERT JUMPDEST PUSH0 PUSH20 0xFFFFFFFFFFFFFFFFFFFFFFFFFFFFFFFFFFFFFFFF DUP3 AND SWAP1 POP SWAP2 SWAP1 POP JUMP JUMPDEST PUSH0 PUSH2 0x58D DUP3 PUSH2 0x564 JUMP JUMPDEST SWAP1 POP SWAP2 SWAP1 POP JUMP JUMPDEST PUSH2 0x59D DUP2 PUSH2 0x583 JUMP JUMPDEST DUP2 EQ PUSH2 0x5A7 JUMPI PUSH0 DUP1 REVERT JUMPDEST POP JUMP JUMPDEST PUSH0 DUP2 CALLDATALOAD SWAP1 POP PUSH2 0x5B8 DUP2 PUSH2 0x594 JUMP JUMPDEST SWAP3 SWAP2 POP POP JUMP JUMPDEST PUSH0 DUP1 PUSH1 0x40 DUP4 DUP6 SUB SLT ISZERO PUSH2 0x5D4 JUMPI PUSH2 0x5D3 PUSH2 0x55C JUMP JUMPDEST JUMPDEST PUSH0 PUSH2 0x5E1 DUP6 DUP3 DUP7 ADD PUSH2 0x5AA JUMP JUMPDEST SWAP3 POP POP PUSH1 0x20 PUSH2 0x5F2 DUP6 DUP3 DUP7 ADD PUSH2 0x5AA JUMP JUMPDEST SWAP2 POP POP SWAP3 POP SWAP3 SWAP1 POP JUMP JUMPDEST PUSH0 DUP2 MLOAD SWAP1 POP SWAP2 SWAP1 POP JUMP JUMPDEST PUSH0 DUP3 DUP3 MSTORE PUSH1 0x20 DUP3 ADD SWAP1 POP SWAP3 SWAP2 POP POP JUMP JUMPDEST PUSH0 DUP2 SWAP1 POP PUSH1 0x20 DUP3 ADD SWAP1 POP SWAP2 SWAP1 POP JUMP JUMPDEST PUSH2 0x62E DUP2 PUSH2 0x583 JUMP JUMPDEST DUP3 MSTORE POP POP JUMP JUMPDEST PUSH0 PUSH2 0x63F DUP4 DUP4 PUSH2 0x625 JUMP JUMPDEST PUSH1 0x20 DUP4 ADD SWAP1 POP SWAP3 SWAP2 POP POP JUMP JUMPDEST PUSH0 PUSH1 0x20 DUP3 ADD SWAP1 POP SWAP2 SWAP1 POP JUMP JUMPDEST PUSH0 PUSH2 0x661 DUP3 PUSH2 0x5FC JUMP JUMPDEST PUSH2 0x66B DUP2 DUP6 PUSH2 0x606 JUMP JUMPDEST SWAP4 POP PUSH2 0x676 DUP4 PUSH2 0x616 JUMP JUMPDEST DUP1 PUSH0 JUMPDEST DUP4 DUP2 LT ISZERO PUSH2 0x6A6 JUMPI DUP2 MLOAD PUSH2 0x68D DUP9 DUP3 PUSH2 0x634 JUMP JUMPDEST SWAP8 POP PUSH2 0x698 DUP4 PUSH2 0x64B JUMP JUMPDEST SWAP3 POP POP PUSH1 0x1 DUP2 ADD SWAP1 POP PUSH2 0x679 JUMP JUMPDEST POP DUP6 SWAP4 POP POP POP POP SWAP3 SWAP2 POP POP JUMP JUMPDEST PUSH0 PUSH1 0x20 DUP3 ADD SWAP1 POP DUP2 DUP2 SUB PUSH0 DUP4 ADD MSTORE PUSH2 0x6CB DUP2 DUP5 PUSH2 0x657 JUMP JUMPDEST SWAP1 POP SWAP3 SWAP2 POP POP JUMP JUMPDEST PUSH0 PUSH1 0x20 DUP3 DUP5 SUB SLT ISZERO PUSH2 0x6E8 JUMPI PUSH2 0x6E7 PUSH2 0x55C JUMP JUMPDEST JUMPDEST PUSH0 PUSH2 0x6F5 DUP5 DUP3 DUP6 ADD PUSH2 0x5AA JUMP JUMPDEST SWAP2 POP POP SWAP3 SWAP2 POP POP JUMP JUMPDEST PUSH0 PUSH3 0xFFFFFF DUP3 AND SWAP1 POP SWAP2 SWAP1 POP JUMP JUMPDEST PUSH2 0x715 DUP2 PUSH2 0x6FE JUMP JUMPDEST DUP3 MSTORE POP POP JUMP JUMPDEST PUSH0 PUSH1 0x20 DUP3 ADD SWAP1 POP PUSH2 0x72E PUSH0 DUP4 ADD DUP5 PUSH2 0x70C JUMP JUMPDEST SWAP3 SWAP2 POP POP JUMP JUMPDEST PUSH0 DUP2 SWAP1 POP SWAP2 SWAP1 POP JUMP JUMPDEST PUSH2 0x746 DUP2 PUSH2 0x734 JUMP JUMPDEST DUP2 EQ PUSH2 0x750 JUMPI PUSH0 DUP1 REVERT JUMPDEST POP JUMP JUMPDEST PUSH0 DUP2 CALLDATALOAD SWAP1 POP PUSH2 0x761 DUP2 PUSH2 0x73D JUMP JUMPDEST SWAP3 SWAP2 POP POP JUMP JUMPDEST PUSH0 DUP1 REVERT JUMPDEST PUSH0 DUP1 REVERT JUMPDEST PUSH0 DUP1 REVERT JUMPDEST PUSH0 DUP1 DUP4 PUSH1 0x1F DUP5 ADD SLT PUSH2 0x788 JUMPI PUSH2 0x787 PUSH2 0x767 JUMP JUMPDEST JUMPDEST DUP3 CALLDATALOAD SWAP1 POP PUSH8 0xFFFFFFFFFFFFFFFF DUP2 GT ISZERO PUSH2 0x7A5 JUMPI PUSH2 0x7A4 PUSH2 0x76B JUMP JUMPDEST JUMPDEST PUSH1 0x20 DUP4 ADD SWAP2 POP DUP4 PUSH1 0x20 DUP3 MUL DUP4 ADD GT ISZERO PUSH2 0x7C1 JUMPI PUSH2 0x7C0 PUSH2 0x76F JUMP JUMPDEST JUMPDEST SWAP3 POP SWAP3 SWAP1 POP JUMP JUMPDEST PUSH0 DUP1 PUSH0 DUP1 PUSH0 PUSH1 0x80 DUP7 DUP9 SUB SLT ISZERO PUSH2 0x7E1 JUMPI PUSH2 0x7E0 PUSH2 0x55C JUMP JUMPDEST JUMPDEST PUSH0 PUSH2 0x7EE DUP9 DUP3 DUP10 ADD PUSH2 0x5AA JUMP JUMPDEST SWAP6 POP POP PUSH1 0x20 PUSH2 0x7FF DUP9 DUP3 DUP10 ADD PUSH2 0x753 JUMP JUMPDEST SWAP5 POP POP PUSH1 0x40 PUSH2 0x810 DUP9 DUP3 DUP10 ADD PUSH2 0x753 JUMP JUMPDEST SWAP4 POP POP PUSH1 0x60 DUP7 ADD CALLDATALOAD PUSH8 0xFFFFFFFFFFFFFFFF DUP2 GT ISZERO PUSH2 0x831 JUMPI PUSH2 0x830 PUSH2 0x560 JUMP JUMPDEST JUMPDEST PUSH2 0x83D DUP9 DUP3 DUP10 ADD PUSH2 0x773 JUMP JUMPDEST SWAP3 POP SWAP3 POP POP SWAP3 SWAP6 POP SWAP3 SWAP6 SWAP1 SWAP4 POP JUMP JUMPDEST PUSH2 0x855 DUP2 PUSH2 0x734 JUMP JUMPDEST DUP3 MSTORE POP POP JUMP JUMPDEST PUSH0 PUSH1 0x20 DUP3 ADD SWAP1 POP PUSH2 0x86E PUSH0 DUP4 ADD DUP5 PUSH2 0x84C JUMP JUMPDEST SWAP3 SWAP2 POP POP JUMP JUMPDEST PUSH0 DUP1 PUSH0 DUP1 PUSH1 0x60 DUP6 DUP8 SUB SLT ISZERO PUSH2 0x88C JUMPI PUSH2 0x88B PUSH2 0x55C JUMP JUMPDEST JUMPDEST PUSH0 PUSH2 0x899 DUP8 DUP3 DUP9 ADD PUSH2 0x5AA JUMP JUMPDEST SWAP5 POP POP PUSH1 0x20 PUSH2 0x8AA DUP8 DUP3 DUP9 ADD PUSH2 0x753 JUMP JUMPDEST SWAP4 POP POP PUSH1 0x40 DUP6 ADD CALLDATALOAD PUSH8 0xFFFFFFFFFFFFFFFF DUP2 GT ISZERO PUSH2 0x8CB JUMPI PUSH2 0x8CA PUSH2 0x560 JUMP JUMPDEST JUMPDEST PUSH2 0x8D7 DUP8 DUP3 DUP9 ADD PUSH2 0x773 JUMP JUMPDEST SWAP3 POP SWAP3 POP POP SWAP3 SWAP6 SWAP2 SWAP5 POP SWAP3 POP JUMP JUMPDEST PUSH2 0x8EE DUP2 PUSH2 0x564 JUMP JUMPDEST DUP3 MSTORE POP POP JUMP JUMPDEST PUSH0 PUSH1 0x20 DUP3 ADD SWAP1 POP PUSH2 0x907 PUSH0 DUP4 ADD DUP5 PUSH2 0x8E5 JUMP JUMPDEST SWAP3 SWAP2 POP POP JUMP JUMPDEST PUSH32 0x4E487B7100000000000000000000000000000000000000000000000000000000 PUSH0 MSTORE PUSH1 0x41 PUSH1 0x4 MSTORE PUSH1 0x24 PUSH0 REVERT JUMPDEST PUSH32 0x4E487B7100000000000000000000000000000000000000000000000000000000 PUSH0 MSTORE PUSH1 0x32 PUSH1 0x4 MSTORE PUSH1 0x24 PUSH0 REVERT JUMPDEST PUSH2 0x970 DUP2 PUSH2 0x6FE JUMP JUMPDEST DUP2 EQ PUSH2 0x97A JUMPI PUSH0 DUP1 REVERT JUMPDEST POP JUMP JUMPDEST PUSH0 DUP2 MLOAD SWAP1 POP PUSH2 0x98B DUP2 PUSH2 0x967 JUMP JUMPDEST SWAP3 SWAP2 POP POP JUMP JUMPDEST PUSH0 PUSH1 0x20 DUP3 DUP5 SUB SLT ISZERO PUSH2 0x9A6 JUMPI PUSH2 0x9A5 PUSH2 0x55C JUMP JUMPDEST JUMPDEST PUSH0 PUSH2 0x9B3 DUP5 DUP3 DUP6 ADD PUSH2 0x97D JUMP JUMPDEST SWAP2 POP POP SWAP3 SWAP2 POP POP JUMP JUMPDEST PUSH32 0x4E487B7100000000000000000000000000000000000000000000000000000000 PUSH0 MSTORE PUSH1 0x11 PUSH1 0x4 MSTORE PUSH1 0x24 PUSH0 REVERT JUMPDEST PUSH0 PUSH2 0x9F3 DUP3 PUSH2 0x734 JUMP JUMPDEST SWAP2 POP PUSH2 0x9FE DUP4 PUSH2 0x734 JUMP JUMPDEST SWAP3 POP DUP3 DUP3 MUL PUSH2 0xA0C DUP2 PUSH2 0x734 JUMP JUMPDEST SWAP2 POP DUP3 DUP3 DIV DUP5 EQ DUP4 ISZERO OR PUSH2 0xA23 JUMPI PUSH2 0xA22 PUSH2 0x9BC JUMP JUMPDEST JUMPDEST POP SWAP3 SWAP2 POP POP JUMP JUMPDEST PUSH32 0x4E487B7100000000000000000000000000000000000000000000000000000000 PUSH0 MSTORE PUSH1 0x12 PUSH1 0x4 MSTORE PUSH1 0x24 PUSH0 REVERT JUMPDEST PUSH0 PUSH2 0xA61 DUP3 PUSH2 0x734 JUMP JUMPDEST SWAP2 POP PUSH2 0xA6C DUP4 PUSH2 0x734 JUMP JUMPDEST SWAP3 POP DUP3 PUSH2 0xA7C JUMPI PUSH2 0xA7B PUSH2 0xA2A JUMP JUMPDEST JUMPDEST DUP3 DUP3 DIV SWAP1 POP SWAP3 SWAP2 POP POP JUMP JUMPDEST PUSH0 PUSH2 0xA91 DUP3 PUSH2 0x734 JUMP JUMPDEST SWAP2 POP PUSH2 0xA9C DUP4 PUSH2 0x734 JUMP JUMPDEST SWAP3 POP DUP3 DUP3 SUB SWAP1 POP DUP2 DUP2 GT ISZERO PUSH2 0xAB4 JUMPI PUSH2 0xAB3 PUSH2 0x9BC JUMP JUMPDEST JUMPDEST SWAP3 SWAP2 POP POP JUMP JUMPDEST PUSH0 PUSH2 0xAC4 DUP3 PUSH2 0x564 JUMP JUMPDEST SWAP2 POP PUSH2 0xACF DUP4 PUSH2 0x564 JUMP JUMPDEST SWAP3 POP DUP3 DUP3 MUL PUSH2 0xADD DUP2 PUSH2 0x564 JUMP JUMPDEST SWAP2 POP DUP3 DUP3 DIV DUP5 EQ DUP4 ISZERO OR PUSH2 0xAF4 JUMPI PUSH2 0xAF3 PUSH2 0x9BC JUMP JUMPDEST JUMPDEST POP SWAP3 SWAP2 POP POP JUMP JUMPDEST PUSH0 PUSH2 0xB05 DUP3 PUSH2 0x564 JUMP JUMPDEST SWAP2 POP PUSH2 0xB10 DUP4 PUSH2 0x564 JUMP JUMPDEST SWAP3 POP DUP3 PUSH2 0xB20 JUMPI PUSH2 0xB1F PUSH2 0xA2A JUMP JUMPDEST JUMPDEST DUP3 DUP3 DIV SWAP1 POP SWAP3 SWAP2 POP POP JUMP JUMPDEST PUSH0 PUSH2 0xB35 DUP3 PUSH2 0x564 JUMP JUMPDEST SWAP2 POP PUSH2 0xB40 DUP4 PUSH2 0x564 JUMP JUMPDEST SWAP3 POP DUP3 DUP3 SUB SWAP1 POP PUSH20 0xFFFFFFFFFFFFFFFFFFFFFFFFFFFFFFFFFFFFFFFF DUP2 GT ISZERO PUSH2 0xB6C JUMPI PUSH2 0xB6B PUSH2 0x9BC JUMP JUMPDEST JUMPDEST SWAP3 SWAP2 POP POP JUMP JUMPDEST PUSH0 PUSH2 0xB7C DUP3 PUSH2 0x564 JUMP JUMPDEST SWAP2 POP PUSH2 0xB87 DUP4 PUSH2 0x564 JUMP JUMPDEST SWAP3 POP DUP3 DUP3 ADD SWAP1 POP PUSH20 0xFFFFFFFFFFFFFFFFFFFFFFFFFFFFFFFFFFFFFFFF DUP2 GT ISZERO PUSH2 0xBB3 JUMPI PUSH2 0xBB2 PUSH2 0x9BC JUMP JUMPDEST JUMPDEST SWAP3 SWAP2 POP POP JUMP JUMPDEST PUSH2 0xBC2 DUP2 PUSH2 0x564 JUMP JUMPDEST DUP2 EQ PUSH2 0xBCC JUMPI PUSH0 DUP1 REVERT JUMPDEST POP JUMP JUMPDEST PUSH0 DUP2 MLOAD SWAP1 POP PUSH2 0xBDD DUP2 PUSH2 0xBB9 JUMP JUMPDEST SWAP3 SWAP2 POP POP JUMP JUMPDEST PUSH0 DUP2 PUSH1 0x2 SIGNEXTEND SWAP1 POP SWAP2 SWAP1 POP JUMP JUMPDEST PUSH2 0xBF8 DUP2 PUSH2 0xBE3 JUMP JUMPDEST DUP2 EQ PUSH2 0xC02 JUMPI PUSH0 DUP1 REVERT JUMPDEST POP JUMP JUMPDEST PUSH0 DUP2 MLOAD SWAP1 POP PUSH2 0xC13 DUP2 PUSH2 0xBEF JUMP JUMPDEST SWAP3 SWAP2 POP POP JUMP JUMPDEST PUSH0 PUSH2 0xFFFF DUP3 AND SWAP1 POP SWAP2 SWAP1 POP JUMP JUMPDEST PUSH2 0xC2F DUP2 PUSH2 0xC19 JUMP JUMPDEST DUP2 EQ PUSH2 0xC39 JUMPI PUSH0 DUP1 REVERT JUMPDEST POP JUMP JUMPDEST PUSH0 DUP2 MLOAD SWAP1 POP PUSH2 0xC4A DUP2 PUSH2 0xC26 JUMP JUMPDEST SWAP3 SWAP2 POP POP JUMP JUMPDEST PUSH0 PUSH1 0xFF DUP3 AND SWAP1 POP SWAP2 SWAP1 POP JUMP JUMPDEST PUSH2 0xC65 DUP2 PUSH2 0xC50 JUMP JUMPDEST DUP2 EQ PUSH2 0xC6F JUMPI PUSH0 DUP1 REVERT JUMPDEST POP JUMP JUMPDEST PUSH0 DUP2 MLOAD SWAP1 POP PUSH2 0xC80 DUP2 PUSH2 0xC5C JUMP JUMPDEST SWAP3 SWAP2 POP POP JUMP JUMPDEST PUSH0 DUP2 ISZERO ISZERO SWAP1 POP SWAP2 SWAP1 POP JUMP JUMPDEST PUSH2 0xC9A DUP2 PUSH2 0xC86 JUMP JUMPDEST DUP2 EQ PUSH2 0xCA4 JUMPI PUSH0 DUP1 REVERT JUMPDEST POP JUMP JUMPDEST PUSH0 DUP2 MLOAD SWAP1 POP PUSH2 0xCB5 DUP2 PUSH2 0xC91 JUMP JUMPDEST SWAP3 SWAP2 POP POP JUMP JUMPDEST PUSH0 DUP1 PUSH0 DUP1 PUSH0 DUP1 PUSH0 PUSH1 0xE0 DUP9 DUP11 SUB SLT ISZERO PUSH2 0xCD6 JUMPI PUSH2 0xCD5 PUSH2 0x55C JUMP JUMPDEST JUMPDEST PUSH0 PUSH2 0xCE3 DUP11 DUP3 DUP12 ADD PUSH2 0xBCF JUMP JUMPDEST SWAP8 POP POP PUSH1 0x20 PUSH2 0xCF4 DUP11 DUP3 DUP12 ADD PUSH2 0xC05 JUMP JUMPDEST SWAP7 POP POP PUSH1 0x40 PUSH2 0xD05 DUP11 DUP3 DUP12 ADD PUSH2 0xC3C JUMP JUMPDEST SWAP6 POP POP PUSH1 0x60 PUSH2 0xD16 DUP11 DUP3 DUP12 ADD PUSH2 0xC3C JUMP JUMPDEST SWAP5 POP POP PUSH1 0x80 PUSH2 0xD27 DUP11 DUP3 DUP12 ADD PUSH2 0xC3C JUMP JUMPDEST SWAP4 POP POP PUSH1 0xA0 PUSH2 0xD38 DUP11 DUP3 DUP12 ADD PUSH2 0xC72 JUMP JUMPDEST SWAP3 POP POP PUSH1 0xC0 PUSH2 0xD49 DUP11 DUP3 DUP12 ADD PUSH2 0xCA7 JUMP JUMPDEST SWAP2 POP POP SWAP3 SWAP6 SWAP9 SWAP2 SWAP5 SWAP8 POP SWAP3 SWAP6 POP JUMP INVALID LOG2 PUSH5 0x6970667358 0x22 SLT KECCAK256 JUMPDEST 0xAE 0xE5 0xBE 0xE1 PUSH0 0x1E PUSH6 0x30B87FFAFF1C PUSH23 0x904C1BC2ACC7C4D657A7BCD02ED10C626164736F6C6343 STOP ADDMOD XOR STOP CALLER "
				},
				"gasEstimates": {
					"creation": {
						"codeDepositCost": "694000",
						"executionCost": "726",
						"totalCost": "694726"
					},
					"external": {
						"getAmountOutMin(address,uint256,uint256,address[])": "infinite",
						"getLimitSqrtPrice(address,uint256,address[])": "infinite",
						"getPoolFee(address)": "infinite",
						"orderTokensInPool(address,address)": "infinite"
					},
					"internal": {
						"getCurrentSqrtPrice(address)": "infinite"
					}
				},
				"methodIdentifiers": {
					"getAmountOutMin(address,uint256,uint256,address[])": "71302915",
					"getLimitSqrtPrice(address,uint256,address[])": "da91803e",
					"getPoolFee(address)": "42fcc6fb",
					"orderTokensInPool(address,address)": "1da2d571"
				}
			},
			"storageLayout": {
				"storage": [],
				"types": null
			},
			"userdoc": {
				"kind": "user",
				"methods": {},
				"version": 1
			}
		}
	}
}