{
	"src/lib/Decoder.sol": {
		"DataDecoder": {
			"abi": [
				{
					"inputs": [
						{
							"internalType": "string",
							"name": "functionName",
							"type": "string"
						}
					],
					"name": "InvalidParams",
					"type": "error"
				},
				{
					"inputs": [
						{
							"internalType": "uint256",
							"name": "totalParms",
							"type": "uint256"
						}
					],
					"name": "MaxParamsReached",
					"type": "error"
				},
				{
					"inputs": [
						{
							"internalType": "bytes[]",
							"name": "_data",
							"type": "bytes[]"
						}
					],
					"name": "dataDecoder",
					"outputs": [
						{
							"internalType": "bytes4",
							"name": "",
							"type": "bytes4"
						},
						{
							"components": [
								{
									"internalType": "uint8",
									"name": "_type",
									"type": "uint8"
								},
								{
									"internalType": "bytes",
									"name": "v",
									"type": "bytes"
								},
								{
									"internalType": "address",
									"name": "w",
									"type": "address"
								},
								{
									"internalType": "uint256",
									"name": "x",
									"type": "uint256"
								},
								{
									"internalType": "int256",
									"name": "y",
									"type": "int256"
								},
								{
									"internalType": "bool",
									"name": "z",
									"type": "bool"
								}
							],
							"internalType": "struct ParamManagerLib.DeFiParam[]",
							"name": "",
							"type": "tuple[]"
						}
					],
					"stateMutability": "pure",
					"type": "function"
				}
			],
			"devdoc": {
				"kind": "dev",
				"methods": {},
				"version": 1
			},
			"evm": {
				"assembly": "    /* \"src/lib/Decoder.sol\":109:1808  library DataDecoder {... */\n  dataSize(sub_0)\n  dataOffset(sub_0)\n  0x0b\n  dup3\n  dup3\n  dup3\n  codecopy\n  dup1\n  mload\n  0x00\n  byte\n  0x73\n  eq\n  tag_1\n  jumpi\n  mstore(0x00, 0x4e487b7100000000000000000000000000000000000000000000000000000000)\n  mstore(0x04, 0x00)\n  revert(0x00, 0x24)\ntag_1:\n  mstore(0x00, address)\n  0x73\n  dup2\n  mstore8\n  dup3\n  dup2\n  return\nstop\n\nsub_0: assembly {\n        /* \"src/lib/Decoder.sol\":109:1808  library DataDecoder {... */\n      eq(address, deployTimeAddress())\n      mstore(0x40, 0x80)\n      jumpi(tag_1, lt(calldatasize, 0x04))\n      shr(0xe0, calldataload(0x00))\n      dup1\n      0xb29a1227\n      eq\n      tag_2\n      jumpi\n    tag_1:\n      0x00\n      dup1\n      revert\n        /* \"src/lib/Decoder.sol\":252:1803  function dataDecoder(bytes[] calldata _data) external pure returns(bytes4, ParamManagerLib.DeFiParam[] memory){... */\n    tag_2:\n      tag_3\n      0x04\n      dup1\n      calldatasize\n      sub\n      dup2\n      add\n      swap1\n      tag_4\n      swap2\n      swap1\n      tag_5\n      jump\t// in\n    tag_4:\n      tag_6\n      jump\t// in\n    tag_3:\n      mload(0x40)\n      tag_7\n      swap3\n      swap2\n      swap1\n      tag_8\n      jump\t// in\n    tag_7:\n      mload(0x40)\n      dup1\n      swap2\n      sub\n      swap1\n      return\n    tag_6:\n        /* \"src/lib/Decoder.sol\":319:325  bytes4 */\n      0x00\n        /* \"src/lib/Decoder.sol\":327:361  ParamManagerLib.DeFiParam[] memory */\n      0x60\n        /* \"src/lib/Decoder.sol\":373:396  bytes4 functionSelector */\n      0x00\n        /* \"src/lib/Decoder.sol\":406:411  _data */\n      dup5\n      dup5\n        /* \"src/lib/Decoder.sol\":412:413  0 */\n      0x00\n        /* \"src/lib/Decoder.sol\":406:414  _data[0] */\n      dup2\n      dup2\n      lt\n      tag_10\n      jumpi\n      tag_11\n      tag_12\n      jump\t// in\n    tag_11:\n    tag_10:\n      swap1\n      pop\n      0x20\n      mul\n      dup2\n      add\n      swap1\n      tag_13\n      swap2\n      swap1\n      tag_14\n      jump\t// in\n    tag_13:\n        /* \"src/lib/Decoder.sol\":399:415  bytes4(_data[0]) */\n      swap1\n      tag_15\n      swap2\n      swap1\n      tag_16\n      jump\t// in\n    tag_15:\n        /* \"src/lib/Decoder.sol\":373:415  bytes4 functionSelector = bytes4(_data[0]) */\n      swap1\n      pop\n        /* \"src/lib/Decoder.sol\":426:454  uint256[] memory paramsTypes */\n      0x00\n        /* \"src/lib/Decoder.sol\":468:473  _data */\n      dup6\n      dup6\n        /* \"src/lib/Decoder.sol\":474:475  1 */\n      0x01\n        /* \"src/lib/Decoder.sol\":468:476  _data[1] */\n      dup2\n      dup2\n      lt\n      tag_17\n      jumpi\n      tag_18\n      tag_12\n      jump\t// in\n    tag_18:\n    tag_17:\n      swap1\n      pop\n      0x20\n      mul\n      dup2\n      add\n      swap1\n      tag_19\n      swap2\n      swap1\n      tag_14\n      jump\t// in\n    tag_19:\n        /* \"src/lib/Decoder.sol\":457:490  abi.decode(_data[1], (uint256[])) */\n      dup2\n      add\n      swap1\n      tag_20\n      swap2\n      swap1\n      tag_21\n      jump\t// in\n    tag_20:\n        /* \"src/lib/Decoder.sol\":426:490  uint256[] memory paramsTypes = abi.decode(_data[1], (uint256[])) */\n      swap1\n      pop\n        /* \"src/lib/Decoder.sol\":525:527  10 */\n      0x0a\n        /* \"src/lib/Decoder.sol\":504:515  paramsTypes */\n      dup2\n        /* \"src/lib/Decoder.sol\":504:522  paramsTypes.length */\n      mload\n        /* \"src/lib/Decoder.sol\":504:527  paramsTypes.length > 10 */\n      gt\n        /* \"src/lib/Decoder.sol\":501:572  if(paramsTypes.length > 10) revert MaxParamsReached(paramsTypes.length) */\n      iszero\n      tag_22\n      jumpi\n        /* \"src/lib/Decoder.sol\":553:564  paramsTypes */\n      dup1\n        /* \"src/lib/Decoder.sol\":553:571  paramsTypes.length */\n      mload\n        /* \"src/lib/Decoder.sol\":536:572  MaxParamsReached(paramsTypes.length) */\n      mload(0x40)\n      0x8bc593cd00000000000000000000000000000000000000000000000000000000\n      dup2\n      mstore\n      0x04\n      add\n      tag_23\n      swap2\n      swap1\n      tag_24\n      jump\t// in\n    tag_23:\n      mload(0x40)\n      dup1\n      swap2\n      sub\n      swap1\n      revert\n        /* \"src/lib/Decoder.sol\":501:572  if(paramsTypes.length > 10) revert MaxParamsReached(paramsTypes.length) */\n    tag_22:\n        /* \"src/lib/Decoder.sol\":583:624  ParamManagerLib.DeFiParam[] memory params */\n      0x00\n        /* \"src/lib/Decoder.sol\":659:670  paramsTypes */\n      dup2\n        /* \"src/lib/Decoder.sol\":659:677  paramsTypes.length */\n      mload\n        /* \"src/lib/Decoder.sol\":627:678  new ParamManagerLib.DeFiParam[](paramsTypes.length) */\n      0xffffffffffffffff\n      dup2\n      gt\n      iszero\n      tag_25\n      jumpi\n      tag_26\n      tag_27\n      jump\t// in\n    tag_26:\n    tag_25:\n      mload(0x40)\n      swap1\n      dup1\n      dup3\n      mstore\n      dup1\n      0x20\n      mul\n      0x20\n      add\n      dup3\n      add\n      0x40\n      mstore\n      dup1\n      iszero\n      tag_28\n      jumpi\n      dup2\n      0x20\n      add\n    tag_29:\n      tag_30\n      tag_31\n      jump\t// in\n    tag_30:\n      dup2\n      mstore\n      0x20\n      add\n      swap1\n      0x01\n      swap1\n      sub\n      swap1\n      dup2\n      tag_29\n      jumpi\n      swap1\n      pop\n    tag_28:\n      pop\n        /* \"src/lib/Decoder.sol\":583:678  ParamManagerLib.DeFiParam[] memory params = new ParamManagerLib.DeFiParam[](paramsTypes.length) */\n      swap1\n      pop\n        /* \"src/lib/Decoder.sol\":689:703  uint256 offset */\n      0x00\n        /* \"src/lib/Decoder.sol\":723:732  uint256 i */\n      dup1\n        /* \"src/lib/Decoder.sol\":719:1753  for(uint256 i = 0; i < paramsTypes.length; i++){... */\n    tag_32:\n        /* \"src/lib/Decoder.sol\":742:753  paramsTypes */\n      dup4\n        /* \"src/lib/Decoder.sol\":742:760  paramsTypes.length */\n      mload\n        /* \"src/lib/Decoder.sol\":738:739  i */\n      dup2\n        /* \"src/lib/Decoder.sol\":738:760  i < paramsTypes.length */\n      lt\n        /* \"src/lib/Decoder.sol\":719:1753  for(uint256 i = 0; i < paramsTypes.length; i++){... */\n      iszero\n      tag_33\n      jumpi\n        /* \"src/lib/Decoder.sol\":781:819  ParamManagerLib.DeFiParam memory param */\n      tag_35\n      tag_31\n      jump\t// in\n    tag_35:\n        /* \"src/lib/Decoder.sol\":855:856  0 */\n      0x00\n        /* \"src/lib/Decoder.sol\":837:848  paramsTypes */\n      dup6\n        /* \"src/lib/Decoder.sol\":849:850  i */\n      dup4\n        /* \"src/lib/Decoder.sol\":837:851  paramsTypes[i] */\n      dup2\n      mload\n      dup2\n      lt\n      tag_36\n      jumpi\n      tag_37\n      tag_12\n      jump\t// in\n    tag_37:\n    tag_36:\n      0x20\n      mul\n      0x20\n      add\n      add\n      mload\n        /* \"src/lib/Decoder.sol\":837:856  paramsTypes[i] == 0 */\n      sub\n        /* \"src/lib/Decoder.sol\":834:1683  if(paramsTypes[i] == 0){... */\n      tag_38\n      jumpi\n        /* \"src/lib/Decoder.sol\":890:891  0 */\n      0x00\n        /* \"src/lib/Decoder.sol\":876:881  param */\n      dup2\n        /* \"src/lib/Decoder.sol\":876:887  param._type */\n      0x00\n      add\n        /* \"src/lib/Decoder.sol\":876:891  param._type = 0 */\n      swap1\n      0xff\n      and\n      swap1\n      dup2\n      0xff\n      and\n      dup2\n      mstore\n      pop\n      pop\n        /* \"src/lib/Decoder.sol\":931:936  _data */\n      dup10\n      dup10\n        /* \"src/lib/Decoder.sol\":937:938  2 */\n      0x02\n        /* \"src/lib/Decoder.sol\":931:939  _data[2] */\n      dup2\n      dup2\n      lt\n      tag_39\n      jumpi\n      tag_40\n      tag_12\n      jump\t// in\n    tag_40:\n    tag_39:\n      swap1\n      pop\n      0x20\n      mul\n      dup2\n      add\n      swap1\n      tag_41\n      swap2\n      swap1\n      tag_14\n      jump\t// in\n    tag_41:\n        /* \"src/lib/Decoder.sol\":940:946  offset */\n      dup5\n        /* \"src/lib/Decoder.sol\":931:957  _data[2][offset:offset+32] */\n      swap1\n        /* \"src/lib/Decoder.sol\":954:956  32 */\n      0x20\n        /* \"src/lib/Decoder.sol\":947:953  offset */\n      dup7\n        /* \"src/lib/Decoder.sol\":947:956  offset+32 */\n      tag_42\n      swap2\n      swap1\n      tag_43\n      jump\t// in\n    tag_42:\n        /* \"src/lib/Decoder.sol\":931:957  _data[2][offset:offset+32] */\n      swap3\n      tag_44\n      swap4\n      swap3\n      swap2\n      swap1\n      tag_45\n      jump\t// in\n    tag_44:\n        /* \"src/lib/Decoder.sol\":920:969  abi.decode(_data[2][offset:offset+32], (address)) */\n      dup2\n      add\n      swap1\n      tag_46\n      swap2\n      swap1\n      tag_47\n      jump\t// in\n    tag_46:\n        /* \"src/lib/Decoder.sol\":910:915  param */\n      dup2\n        /* \"src/lib/Decoder.sol\":910:917  param.w */\n      0x40\n      add\n        /* \"src/lib/Decoder.sol\":910:969  param.w = abi.decode(_data[2][offset:offset+32], (address)) */\n      swap1\n      0xffffffffffffffffffffffffffffffffffffffff\n      and\n      swap1\n      dup2\n      0xffffffffffffffffffffffffffffffffffffffff\n      and\n      dup2\n      mstore\n      pop\n      pop\n        /* \"src/lib/Decoder.sol\":834:1683  if(paramsTypes[i] == 0){... */\n      jump(tag_48)\n    tag_38:\n        /* \"src/lib/Decoder.sol\":1012:1013  1 */\n      0x01\n        /* \"src/lib/Decoder.sol\":994:1005  paramsTypes */\n      dup6\n        /* \"src/lib/Decoder.sol\":1006:1007  i */\n      dup4\n        /* \"src/lib/Decoder.sol\":994:1008  paramsTypes[i] */\n      dup2\n      mload\n      dup2\n      lt\n      tag_49\n      jumpi\n      tag_50\n      tag_12\n      jump\t// in\n    tag_50:\n    tag_49:\n      0x20\n      mul\n      0x20\n      add\n      add\n      mload\n        /* \"src/lib/Decoder.sol\":994:1013  paramsTypes[i] == 1 */\n      sub\n        /* \"src/lib/Decoder.sol\":991:1683  if(paramsTypes[i] == 1){... */\n      tag_51\n      jumpi\n        /* \"src/lib/Decoder.sol\":1047:1048  1 */\n      0x01\n        /* \"src/lib/Decoder.sol\":1033:1038  param */\n      dup2\n        /* \"src/lib/Decoder.sol\":1033:1044  param._type */\n      0x00\n      add\n        /* \"src/lib/Decoder.sol\":1033:1048  param._type = 1 */\n      swap1\n      0xff\n      and\n      swap1\n      dup2\n      0xff\n      and\n      dup2\n      mstore\n      pop\n      pop\n        /* \"src/lib/Decoder.sol\":1088:1093  _data */\n      dup10\n      dup10\n        /* \"src/lib/Decoder.sol\":1094:1095  2 */\n      0x02\n        /* \"src/lib/Decoder.sol\":1088:1096  _data[2] */\n      dup2\n      dup2\n      lt\n      tag_52\n      jumpi\n      tag_53\n      tag_12\n      jump\t// in\n    tag_53:\n    tag_52:\n      swap1\n      pop\n      0x20\n      mul\n      dup2\n      add\n      swap1\n      tag_54\n      swap2\n      swap1\n      tag_14\n      jump\t// in\n    tag_54:\n        /* \"src/lib/Decoder.sol\":1097:1103  offset */\n      dup5\n        /* \"src/lib/Decoder.sol\":1088:1114  _data[2][offset:offset+32] */\n      swap1\n        /* \"src/lib/Decoder.sol\":1111:1113  32 */\n      0x20\n        /* \"src/lib/Decoder.sol\":1104:1110  offset */\n      dup7\n        /* \"src/lib/Decoder.sol\":1104:1113  offset+32 */\n      tag_55\n      swap2\n      swap1\n      tag_43\n      jump\t// in\n    tag_55:\n        /* \"src/lib/Decoder.sol\":1088:1114  _data[2][offset:offset+32] */\n      swap3\n      tag_56\n      swap4\n      swap3\n      swap2\n      swap1\n      tag_45\n      jump\t// in\n    tag_56:\n        /* \"src/lib/Decoder.sol\":1077:1126  abi.decode(_data[2][offset:offset+32], (uint256)) */\n      dup2\n      add\n      swap1\n      tag_57\n      swap2\n      swap1\n      tag_58\n      jump\t// in\n    tag_57:\n        /* \"src/lib/Decoder.sol\":1067:1072  param */\n      dup2\n        /* \"src/lib/Decoder.sol\":1067:1074  param.x */\n      0x60\n      add\n        /* \"src/lib/Decoder.sol\":1067:1126  param.x = abi.decode(_data[2][offset:offset+32], (uint256)) */\n      dup2\n      dup2\n      mstore\n      pop\n      pop\n        /* \"src/lib/Decoder.sol\":991:1683  if(paramsTypes[i] == 1){... */\n      jump(tag_59)\n    tag_51:\n        /* \"src/lib/Decoder.sol\":1169:1170  2 */\n      0x02\n        /* \"src/lib/Decoder.sol\":1151:1162  paramsTypes */\n      dup6\n        /* \"src/lib/Decoder.sol\":1163:1164  i */\n      dup4\n        /* \"src/lib/Decoder.sol\":1151:1165  paramsTypes[i] */\n      dup2\n      mload\n      dup2\n      lt\n      tag_60\n      jumpi\n      tag_61\n      tag_12\n      jump\t// in\n    tag_61:\n    tag_60:\n      0x20\n      mul\n      0x20\n      add\n      add\n      mload\n        /* \"src/lib/Decoder.sol\":1151:1170  paramsTypes[i] == 2 */\n      sub\n        /* \"src/lib/Decoder.sol\":1148:1683  if(paramsTypes[i] == 2){... */\n      tag_62\n      jumpi\n        /* \"src/lib/Decoder.sol\":1204:1205  2 */\n      0x02\n        /* \"src/lib/Decoder.sol\":1190:1195  param */\n      dup2\n        /* \"src/lib/Decoder.sol\":1190:1201  param._type */\n      0x00\n      add\n        /* \"src/lib/Decoder.sol\":1190:1205  param._type = 2 */\n      swap1\n      0xff\n      and\n      swap1\n      dup2\n      0xff\n      and\n      dup2\n      mstore\n      pop\n      pop\n        /* \"src/lib/Decoder.sol\":1245:1250  _data */\n      dup10\n      dup10\n        /* \"src/lib/Decoder.sol\":1251:1252  2 */\n      0x02\n        /* \"src/lib/Decoder.sol\":1245:1253  _data[2] */\n      dup2\n      dup2\n      lt\n      tag_63\n      jumpi\n      tag_64\n      tag_12\n      jump\t// in\n    tag_64:\n    tag_63:\n      swap1\n      pop\n      0x20\n      mul\n      dup2\n      add\n      swap1\n      tag_65\n      swap2\n      swap1\n      tag_14\n      jump\t// in\n    tag_65:\n        /* \"src/lib/Decoder.sol\":1254:1260  offset */\n      dup5\n        /* \"src/lib/Decoder.sol\":1245:1271  _data[2][offset:offset+32] */\n      swap1\n        /* \"src/lib/Decoder.sol\":1268:1270  32 */\n      0x20\n        /* \"src/lib/Decoder.sol\":1261:1267  offset */\n      dup7\n        /* \"src/lib/Decoder.sol\":1261:1270  offset+32 */\n      tag_66\n      swap2\n      swap1\n      tag_43\n      jump\t// in\n    tag_66:\n        /* \"src/lib/Decoder.sol\":1245:1271  _data[2][offset:offset+32] */\n      swap3\n      tag_67\n      swap4\n      swap3\n      swap2\n      swap1\n      tag_45\n      jump\t// in\n    tag_67:\n        /* \"src/lib/Decoder.sol\":1234:1282  abi.decode(_data[2][offset:offset+32], (int256)) */\n      dup2\n      add\n      swap1\n      tag_68\n      swap2\n      swap1\n      tag_69\n      jump\t// in\n    tag_68:\n        /* \"src/lib/Decoder.sol\":1224:1229  param */\n      dup2\n        /* \"src/lib/Decoder.sol\":1224:1231  param.y */\n      0x80\n      add\n        /* \"src/lib/Decoder.sol\":1224:1282  param.y = abi.decode(_data[2][offset:offset+32], (int256)) */\n      dup2\n      dup2\n      mstore\n      pop\n      pop\n        /* \"src/lib/Decoder.sol\":1148:1683  if(paramsTypes[i] == 2){... */\n      jump(tag_70)\n    tag_62:\n        /* \"src/lib/Decoder.sol\":1325:1326  3 */\n      0x03\n        /* \"src/lib/Decoder.sol\":1307:1318  paramsTypes */\n      dup6\n        /* \"src/lib/Decoder.sol\":1319:1320  i */\n      dup4\n        /* \"src/lib/Decoder.sol\":1307:1321  paramsTypes[i] */\n      dup2\n      mload\n      dup2\n      lt\n      tag_71\n      jumpi\n      tag_72\n      tag_12\n      jump\t// in\n    tag_72:\n    tag_71:\n      0x20\n      mul\n      0x20\n      add\n      add\n      mload\n        /* \"src/lib/Decoder.sol\":1307:1326  paramsTypes[i] == 3 */\n      sub\n        /* \"src/lib/Decoder.sol\":1304:1683  if(paramsTypes[i] == 3){... */\n      tag_73\n      jumpi\n        /* \"src/lib/Decoder.sol\":1360:1361  3 */\n      0x03\n        /* \"src/lib/Decoder.sol\":1346:1351  param */\n      dup2\n        /* \"src/lib/Decoder.sol\":1346:1357  param._type */\n      0x00\n      add\n        /* \"src/lib/Decoder.sol\":1346:1361  param._type = 3 */\n      swap1\n      0xff\n      and\n      swap1\n      dup2\n      0xff\n      and\n      dup2\n      mstore\n      pop\n      pop\n        /* \"src/lib/Decoder.sol\":1401:1406  _data */\n      dup10\n      dup10\n        /* \"src/lib/Decoder.sol\":1407:1408  2 */\n      0x02\n        /* \"src/lib/Decoder.sol\":1401:1409  _data[2] */\n      dup2\n      dup2\n      lt\n      tag_74\n      jumpi\n      tag_75\n      tag_12\n      jump\t// in\n    tag_75:\n    tag_74:\n      swap1\n      pop\n      0x20\n      mul\n      dup2\n      add\n      swap1\n      tag_76\n      swap2\n      swap1\n      tag_14\n      jump\t// in\n    tag_76:\n        /* \"src/lib/Decoder.sol\":1410:1416  offset */\n      dup5\n        /* \"src/lib/Decoder.sol\":1401:1427  _data[2][offset:offset+32] */\n      swap1\n        /* \"src/lib/Decoder.sol\":1424:1426  32 */\n      0x20\n        /* \"src/lib/Decoder.sol\":1417:1423  offset */\n      dup7\n        /* \"src/lib/Decoder.sol\":1417:1426  offset+32 */\n      tag_77\n      swap2\n      swap1\n      tag_43\n      jump\t// in\n    tag_77:\n        /* \"src/lib/Decoder.sol\":1401:1427  _data[2][offset:offset+32] */\n      swap3\n      tag_78\n      swap4\n      swap3\n      swap2\n      swap1\n      tag_45\n      jump\t// in\n    tag_78:\n        /* \"src/lib/Decoder.sol\":1390:1436  abi.decode(_data[2][offset:offset+32], (bool)) */\n      dup2\n      add\n      swap1\n      tag_79\n      swap2\n      swap1\n      tag_80\n      jump\t// in\n    tag_79:\n        /* \"src/lib/Decoder.sol\":1380:1385  param */\n      dup2\n        /* \"src/lib/Decoder.sol\":1380:1387  param.z */\n      0xa0\n      add\n        /* \"src/lib/Decoder.sol\":1380:1436  param.z = abi.decode(_data[2][offset:offset+32], (bool)) */\n      swap1\n      iszero\n      iszero\n      swap1\n      dup2\n      iszero\n      iszero\n      dup2\n      mstore\n      pop\n      pop\n        /* \"src/lib/Decoder.sol\":1304:1683  if(paramsTypes[i] == 3){... */\n      jump(tag_81)\n    tag_73:\n        /* \"src/lib/Decoder.sol\":1479:1480  4 */\n      0x04\n        /* \"src/lib/Decoder.sol\":1461:1472  paramsTypes */\n      dup6\n        /* \"src/lib/Decoder.sol\":1473:1474  i */\n      dup4\n        /* \"src/lib/Decoder.sol\":1461:1475  paramsTypes[i] */\n      dup2\n      mload\n      dup2\n      lt\n      tag_82\n      jumpi\n      tag_83\n      tag_12\n      jump\t// in\n    tag_83:\n    tag_82:\n      0x20\n      mul\n      0x20\n      add\n      add\n      mload\n        /* \"src/lib/Decoder.sol\":1461:1480  paramsTypes[i] == 4 */\n      sub\n        /* \"src/lib/Decoder.sol\":1458:1683  if(paramsTypes[i] == 4){... */\n      tag_84\n      jumpi\n        /* \"src/lib/Decoder.sol\":1514:1515  4 */\n      0x04\n        /* \"src/lib/Decoder.sol\":1500:1505  param */\n      dup2\n        /* \"src/lib/Decoder.sol\":1500:1511  param._type */\n      0x00\n      add\n        /* \"src/lib/Decoder.sol\":1500:1515  param._type = 4 */\n      swap1\n      0xff\n      and\n      swap1\n      dup2\n      0xff\n      and\n      dup2\n      mstore\n      pop\n      pop\n        /* \"src/lib/Decoder.sol\":1555:1560  _data */\n      dup10\n      dup10\n        /* \"src/lib/Decoder.sol\":1561:1562  2 */\n      0x02\n        /* \"src/lib/Decoder.sol\":1555:1563  _data[2] */\n      dup2\n      dup2\n      lt\n      tag_85\n      jumpi\n      tag_86\n      tag_12\n      jump\t// in\n    tag_86:\n    tag_85:\n      swap1\n      pop\n      0x20\n      mul\n      dup2\n      add\n      swap1\n      tag_87\n      swap2\n      swap1\n      tag_14\n      jump\t// in\n    tag_87:\n        /* \"src/lib/Decoder.sol\":1564:1570  offset */\n      dup5\n        /* \"src/lib/Decoder.sol\":1555:1581  _data[2][offset:offset+32] */\n      swap1\n        /* \"src/lib/Decoder.sol\":1578:1580  32 */\n      0x20\n        /* \"src/lib/Decoder.sol\":1571:1577  offset */\n      dup7\n        /* \"src/lib/Decoder.sol\":1571:1580  offset+32 */\n      tag_88\n      swap2\n      swap1\n      tag_43\n      jump\t// in\n    tag_88:\n        /* \"src/lib/Decoder.sol\":1555:1581  _data[2][offset:offset+32] */\n      swap3\n      tag_89\n      swap4\n      swap3\n      swap2\n      swap1\n      tag_45\n      jump\t// in\n    tag_89:\n        /* \"src/lib/Decoder.sol\":1544:1591  abi.decode(_data[2][offset:offset+32], (bytes)) */\n      dup2\n      add\n      swap1\n      tag_90\n      swap2\n      swap1\n      tag_91\n      jump\t// in\n    tag_90:\n        /* \"src/lib/Decoder.sol\":1534:1539  param */\n      dup2\n        /* \"src/lib/Decoder.sol\":1534:1541  param.v */\n      0x20\n      add\n        /* \"src/lib/Decoder.sol\":1534:1591  param.v = abi.decode(_data[2][offset:offset+32], (bytes)) */\n      dup2\n      swap1\n      mstore\n      pop\n        /* \"src/lib/Decoder.sol\":1458:1683  if(paramsTypes[i] == 4){... */\n      jump(tag_92)\n    tag_84:\n        /* \"src/lib/Decoder.sol\":1639:1667  InvalidParams(\"dataDecoder\") */\n      mload(0x40)\n      0xa8c278dd00000000000000000000000000000000000000000000000000000000\n      dup2\n      mstore\n      0x04\n      add\n      tag_93\n      swap1\n      tag_94\n      jump\t// in\n    tag_93:\n      mload(0x40)\n      dup1\n      swap2\n      sub\n      swap1\n      revert\n        /* \"src/lib/Decoder.sol\":1458:1683  if(paramsTypes[i] == 4){... */\n    tag_92:\n        /* \"src/lib/Decoder.sol\":1304:1683  if(paramsTypes[i] == 3){... */\n    tag_81:\n        /* \"src/lib/Decoder.sol\":1148:1683  if(paramsTypes[i] == 2){... */\n    tag_70:\n        /* \"src/lib/Decoder.sol\":991:1683  if(paramsTypes[i] == 1){... */\n    tag_59:\n        /* \"src/lib/Decoder.sol\":834:1683  if(paramsTypes[i] == 0){... */\n    tag_48:\n        /* \"src/lib/Decoder.sol\":1709:1714  param */\n      dup1\n        /* \"src/lib/Decoder.sol\":1697:1703  params */\n      dup5\n        /* \"src/lib/Decoder.sol\":1704:1705  i */\n      dup4\n        /* \"src/lib/Decoder.sol\":1697:1706  params[i] */\n      dup2\n      mload\n      dup2\n      lt\n      tag_95\n      jumpi\n      tag_96\n      tag_12\n      jump\t// in\n    tag_96:\n    tag_95:\n      0x20\n      mul\n      0x20\n      add\n      add\n        /* \"src/lib/Decoder.sol\":1697:1714  params[i] = param */\n      dup2\n      swap1\n      mstore\n      pop\n        /* \"src/lib/Decoder.sol\":1739:1741  32 */\n      0x20\n        /* \"src/lib/Decoder.sol\":1729:1741  offset += 32 */\n      dup4\n      tag_97\n      swap2\n      swap1\n      tag_43\n      jump\t// in\n    tag_97:\n      swap3\n      pop\n        /* \"src/lib/Decoder.sol\":766:1753  {... */\n      pop\n        /* \"src/lib/Decoder.sol\":762:765  i++ */\n      dup1\n      dup1\n      0x01\n      add\n      swap2\n      pop\n      pop\n        /* \"src/lib/Decoder.sol\":719:1753  for(uint256 i = 0; i < paramsTypes.length; i++){... */\n      jump(tag_32)\n    tag_33:\n      pop\n        /* \"src/lib/Decoder.sol\":1770:1786  functionSelector */\n      dup4\n        /* \"src/lib/Decoder.sol\":1788:1794  params */\n      dup3\n        /* \"src/lib/Decoder.sol\":1763:1795  return(functionSelector, params) */\n      swap6\n      pop\n      swap6\n      pop\n      pop\n      pop\n      pop\n      pop\n        /* \"src/lib/Decoder.sol\":252:1803  function dataDecoder(bytes[] calldata _data) external pure returns(bytes4, ParamManagerLib.DeFiParam[] memory){... */\n      swap3\n      pop\n      swap3\n      swap1\n      pop\n      jump\t// out\n    tag_31:\n      mload(0x40)\n      dup1\n      0xc0\n      add\n      0x40\n      mstore\n      dup1\n      and(0xff, 0x00)\n      dup2\n      mstore\n      0x20\n      add\n      0x60\n      dup2\n      mstore\n      0x20\n      add\n      and(0xffffffffffffffffffffffffffffffffffffffff, 0x00)\n      dup2\n      mstore\n      0x20\n      add\n      0x00\n      dup2\n      mstore\n      0x20\n      add\n      0x00\n      dup2\n      mstore\n      0x20\n      add\n      iszero(iszero(0x00))\n      dup2\n      mstore\n      pop\n      swap1\n      jump\t// out\n        /* \"#utility.yul\":7:82   */\n    tag_98:\n        /* \"#utility.yul\":40:46   */\n      0x00\n        /* \"#utility.yul\":73:75   */\n      0x40\n        /* \"#utility.yul\":67:76   */\n      mload\n        /* \"#utility.yul\":57:76   */\n      swap1\n      pop\n        /* \"#utility.yul\":7:82   */\n      swap1\n      jump\t// out\n        /* \"#utility.yul\":88:205   */\n    tag_99:\n        /* \"#utility.yul\":197:198   */\n      0x00\n        /* \"#utility.yul\":194:195   */\n      dup1\n        /* \"#utility.yul\":187:199   */\n      revert\n        /* \"#utility.yul\":211:328   */\n    tag_100:\n        /* \"#utility.yul\":320:321   */\n      0x00\n        /* \"#utility.yul\":317:318   */\n      dup1\n        /* \"#utility.yul\":310:322   */\n      revert\n        /* \"#utility.yul\":334:451   */\n    tag_101:\n        /* \"#utility.yul\":443:444   */\n      0x00\n        /* \"#utility.yul\":440:441   */\n      dup1\n        /* \"#utility.yul\":433:445   */\n      revert\n        /* \"#utility.yul\":457:574   */\n    tag_102:\n        /* \"#utility.yul\":566:567   */\n      0x00\n        /* \"#utility.yul\":563:564   */\n      dup1\n        /* \"#utility.yul\":556:568   */\n      revert\n        /* \"#utility.yul\":580:697   */\n    tag_103:\n        /* \"#utility.yul\":689:690   */\n      0x00\n        /* \"#utility.yul\":686:687   */\n      dup1\n        /* \"#utility.yul\":679:691   */\n      revert\n        /* \"#utility.yul\":718:1297   */\n    tag_104:\n        /* \"#utility.yul\":802:810   */\n      0x00\n        /* \"#utility.yul\":812:818   */\n      dup1\n        /* \"#utility.yul\":862:865   */\n      dup4\n        /* \"#utility.yul\":855:859   */\n      0x1f\n        /* \"#utility.yul\":847:853   */\n      dup5\n        /* \"#utility.yul\":843:860   */\n      add\n        /* \"#utility.yul\":839:866   */\n      slt\n        /* \"#utility.yul\":829:951   */\n      tag_170\n      jumpi\n        /* \"#utility.yul\":870:949   */\n      tag_171\n      tag_101\n      jump\t// in\n    tag_171:\n        /* \"#utility.yul\":829:951   */\n    tag_170:\n        /* \"#utility.yul\":983:989   */\n      dup3\n        /* \"#utility.yul\":970:990   */\n      calldataload\n        /* \"#utility.yul\":960:990   */\n      swap1\n      pop\n        /* \"#utility.yul\":1013:1031   */\n      0xffffffffffffffff\n        /* \"#utility.yul\":1005:1011   */\n      dup2\n        /* \"#utility.yul\":1002:1032   */\n      gt\n        /* \"#utility.yul\":999:1116   */\n      iszero\n      tag_172\n      jumpi\n        /* \"#utility.yul\":1035:1114   */\n      tag_173\n      tag_102\n      jump\t// in\n    tag_173:\n        /* \"#utility.yul\":999:1116   */\n    tag_172:\n        /* \"#utility.yul\":1149:1153   */\n      0x20\n        /* \"#utility.yul\":1141:1147   */\n      dup4\n        /* \"#utility.yul\":1137:1154   */\n      add\n        /* \"#utility.yul\":1125:1154   */\n      swap2\n      pop\n        /* \"#utility.yul\":1203:1206   */\n      dup4\n        /* \"#utility.yul\":1195:1199   */\n      0x20\n        /* \"#utility.yul\":1187:1193   */\n      dup3\n        /* \"#utility.yul\":1183:1200   */\n      mul\n        /* \"#utility.yul\":1173:1181   */\n      dup4\n        /* \"#utility.yul\":1169:1201   */\n      add\n        /* \"#utility.yul\":1166:1207   */\n      gt\n        /* \"#utility.yul\":1163:1291   */\n      iszero\n      tag_174\n      jumpi\n        /* \"#utility.yul\":1210:1289   */\n      tag_175\n      tag_103\n      jump\t// in\n    tag_175:\n        /* \"#utility.yul\":1163:1291   */\n    tag_174:\n        /* \"#utility.yul\":718:1297   */\n      swap3\n      pop\n      swap3\n      swap1\n      pop\n      jump\t// out\n        /* \"#utility.yul\":1303:1884   */\n    tag_5:\n        /* \"#utility.yul\":1400:1406   */\n      0x00\n        /* \"#utility.yul\":1408:1414   */\n      dup1\n        /* \"#utility.yul\":1457:1459   */\n      0x20\n        /* \"#utility.yul\":1445:1454   */\n      dup4\n        /* \"#utility.yul\":1436:1443   */\n      dup6\n        /* \"#utility.yul\":1432:1455   */\n      sub\n        /* \"#utility.yul\":1428:1460   */\n      slt\n        /* \"#utility.yul\":1425:1544   */\n      iszero\n      tag_177\n      jumpi\n        /* \"#utility.yul\":1463:1542   */\n      tag_178\n      tag_99\n      jump\t// in\n    tag_178:\n        /* \"#utility.yul\":1425:1544   */\n    tag_177:\n        /* \"#utility.yul\":1611:1612   */\n      0x00\n        /* \"#utility.yul\":1600:1609   */\n      dup4\n        /* \"#utility.yul\":1596:1613   */\n      add\n        /* \"#utility.yul\":1583:1614   */\n      calldataload\n        /* \"#utility.yul\":1641:1659   */\n      0xffffffffffffffff\n        /* \"#utility.yul\":1633:1639   */\n      dup2\n        /* \"#utility.yul\":1630:1660   */\n      gt\n        /* \"#utility.yul\":1627:1744   */\n      iszero\n      tag_179\n      jumpi\n        /* \"#utility.yul\":1663:1742   */\n      tag_180\n      tag_100\n      jump\t// in\n    tag_180:\n        /* \"#utility.yul\":1627:1744   */\n    tag_179:\n        /* \"#utility.yul\":1776:1867   */\n      tag_181\n        /* \"#utility.yul\":1859:1866   */\n      dup6\n        /* \"#utility.yul\":1850:1856   */\n      dup3\n        /* \"#utility.yul\":1839:1848   */\n      dup7\n        /* \"#utility.yul\":1835:1857   */\n      add\n        /* \"#utility.yul\":1776:1867   */\n      tag_104\n      jump\t// in\n    tag_181:\n        /* \"#utility.yul\":1758:1867   */\n      swap3\n      pop\n      swap3\n      pop\n        /* \"#utility.yul\":1554:1877   */\n      pop\n        /* \"#utility.yul\":1303:1884   */\n      swap3\n      pop\n      swap3\n      swap1\n      pop\n      jump\t// out\n        /* \"#utility.yul\":1890:2039   */\n    tag_105:\n        /* \"#utility.yul\":1926:1933   */\n      0x00\n        /* \"#utility.yul\":1966:2032   */\n      0xffffffff00000000000000000000000000000000000000000000000000000000\n        /* \"#utility.yul\":1959:1964   */\n      dup3\n        /* \"#utility.yul\":1955:2033   */\n      and\n        /* \"#utility.yul\":1944:2033   */\n      swap1\n      pop\n        /* \"#utility.yul\":1890:2039   */\n      swap2\n      swap1\n      pop\n      jump\t// out\n        /* \"#utility.yul\":2045:2168   */\n    tag_106:\n        /* \"#utility.yul\":2138:2161   */\n      tag_184\n        /* \"#utility.yul\":2155:2160   */\n      dup2\n        /* \"#utility.yul\":2138:2161   */\n      tag_105\n      jump\t// in\n    tag_184:\n        /* \"#utility.yul\":2133:2136   */\n      dup3\n        /* \"#utility.yul\":2126:2162   */\n      mstore\n        /* \"#utility.yul\":2045:2168   */\n      pop\n      pop\n      jump\t// out\n        /* \"#utility.yul\":2174:2314   */\n    tag_107:\n        /* \"#utility.yul\":2267:2273   */\n      0x00\n        /* \"#utility.yul\":2301:2306   */\n      dup2\n        /* \"#utility.yul\":2295:2307   */\n      mload\n        /* \"#utility.yul\":2285:2307   */\n      swap1\n      pop\n        /* \"#utility.yul\":2174:2314   */\n      swap2\n      swap1\n      pop\n      jump\t// out\n        /* \"#utility.yul\":2320:2538   */\n    tag_108:\n        /* \"#utility.yul\":2453:2464   */\n      0x00\n        /* \"#utility.yul\":2487:2493   */\n      dup3\n        /* \"#utility.yul\":2482:2485   */\n      dup3\n        /* \"#utility.yul\":2475:2494   */\n      mstore\n        /* \"#utility.yul\":2527:2531   */\n      0x20\n        /* \"#utility.yul\":2522:2525   */\n      dup3\n        /* \"#utility.yul\":2518:2532   */\n      add\n        /* \"#utility.yul\":2503:2532   */\n      swap1\n      pop\n        /* \"#utility.yul\":2320:2538   */\n      swap3\n      swap2\n      pop\n      pop\n      jump\t// out\n        /* \"#utility.yul\":2544:2702   */\n    tag_109:\n        /* \"#utility.yul\":2637:2641   */\n      0x00\n        /* \"#utility.yul\":2660:2663   */\n      dup2\n        /* \"#utility.yul\":2652:2663   */\n      swap1\n      pop\n        /* \"#utility.yul\":2690:2694   */\n      0x20\n        /* \"#utility.yul\":2685:2688   */\n      dup3\n        /* \"#utility.yul\":2681:2695   */\n      add\n        /* \"#utility.yul\":2673:2695   */\n      swap1\n      pop\n        /* \"#utility.yul\":2544:2702   */\n      swap2\n      swap1\n      pop\n      jump\t// out\n        /* \"#utility.yul\":2708:2794   */\n    tag_110:\n        /* \"#utility.yul\":2743:2750   */\n      0x00\n        /* \"#utility.yul\":2783:2787   */\n      0xff\n        /* \"#utility.yul\":2776:2781   */\n      dup3\n        /* \"#utility.yul\":2772:2788   */\n      and\n        /* \"#utility.yul\":2761:2788   */\n      swap1\n      pop\n        /* \"#utility.yul\":2708:2794   */\n      swap2\n      swap1\n      pop\n      jump\t// out\n        /* \"#utility.yul\":2800:2910   */\n    tag_111:\n        /* \"#utility.yul\":2881:2903   */\n      tag_190\n        /* \"#utility.yul\":2897:2902   */\n      dup2\n        /* \"#utility.yul\":2881:2903   */\n      tag_110\n      jump\t// in\n    tag_190:\n        /* \"#utility.yul\":2876:2879   */\n      dup3\n        /* \"#utility.yul\":2869:2904   */\n      mstore\n        /* \"#utility.yul\":2800:2910   */\n      pop\n      pop\n      jump\t// out\n        /* \"#utility.yul\":2916:3014   */\n    tag_112:\n        /* \"#utility.yul\":2967:2973   */\n      0x00\n        /* \"#utility.yul\":3001:3006   */\n      dup2\n        /* \"#utility.yul\":2995:3007   */\n      mload\n        /* \"#utility.yul\":2985:3007   */\n      swap1\n      pop\n        /* \"#utility.yul\":2916:3014   */\n      swap2\n      swap1\n      pop\n      jump\t// out\n        /* \"#utility.yul\":3020:3186   */\n    tag_113:\n        /* \"#utility.yul\":3101:3112   */\n      0x00\n        /* \"#utility.yul\":3135:3141   */\n      dup3\n        /* \"#utility.yul\":3130:3133   */\n      dup3\n        /* \"#utility.yul\":3123:3142   */\n      mstore\n        /* \"#utility.yul\":3175:3179   */\n      0x20\n        /* \"#utility.yul\":3170:3173   */\n      dup3\n        /* \"#utility.yul\":3166:3180   */\n      add\n        /* \"#utility.yul\":3151:3180   */\n      swap1\n      pop\n        /* \"#utility.yul\":3020:3186   */\n      swap3\n      swap2\n      pop\n      pop\n      jump\t// out\n        /* \"#utility.yul\":3192:3438   */\n    tag_114:\n        /* \"#utility.yul\":3273:3274   */\n      0x00\n        /* \"#utility.yul\":3283:3396   */\n    tag_194:\n        /* \"#utility.yul\":3297:3303   */\n      dup4\n        /* \"#utility.yul\":3294:3295   */\n      dup2\n        /* \"#utility.yul\":3291:3304   */\n      lt\n        /* \"#utility.yul\":3283:3396   */\n      iszero\n      tag_196\n      jumpi\n        /* \"#utility.yul\":3382:3383   */\n      dup1\n        /* \"#utility.yul\":3377:3380   */\n      dup3\n        /* \"#utility.yul\":3373:3384   */\n      add\n        /* \"#utility.yul\":3367:3385   */\n      mload\n        /* \"#utility.yul\":3363:3364   */\n      dup2\n        /* \"#utility.yul\":3358:3361   */\n      dup5\n        /* \"#utility.yul\":3354:3365   */\n      add\n        /* \"#utility.yul\":3347:3386   */\n      mstore\n        /* \"#utility.yul\":3319:3321   */\n      0x20\n        /* \"#utility.yul\":3316:3317   */\n      dup2\n        /* \"#utility.yul\":3312:3322   */\n      add\n        /* \"#utility.yul\":3307:3322   */\n      swap1\n      pop\n        /* \"#utility.yul\":3283:3396   */\n      jump(tag_194)\n    tag_196:\n        /* \"#utility.yul\":3430:3431   */\n      0x00\n        /* \"#utility.yul\":3421:3427   */\n      dup5\n        /* \"#utility.yul\":3416:3419   */\n      dup5\n        /* \"#utility.yul\":3412:3428   */\n      add\n        /* \"#utility.yul\":3405:3432   */\n      mstore\n        /* \"#utility.yul\":3254:3438   */\n      pop\n        /* \"#utility.yul\":3192:3438   */\n      pop\n      pop\n      pop\n      jump\t// out\n        /* \"#utility.yul\":3444:3546   */\n    tag_115:\n        /* \"#utility.yul\":3485:3491   */\n      0x00\n        /* \"#utility.yul\":3536:3538   */\n      0x1f\n        /* \"#utility.yul\":3532:3539   */\n      not\n        /* \"#utility.yul\":3527:3529   */\n      0x1f\n        /* \"#utility.yul\":3520:3525   */\n      dup4\n        /* \"#utility.yul\":3516:3530   */\n      add\n        /* \"#utility.yul\":3512:3540   */\n      and\n        /* \"#utility.yul\":3502:3540   */\n      swap1\n      pop\n        /* \"#utility.yul\":3444:3546   */\n      swap2\n      swap1\n      pop\n      jump\t// out\n        /* \"#utility.yul\":3552:3921   */\n    tag_116:\n        /* \"#utility.yul\":3636:3639   */\n      0x00\n        /* \"#utility.yul\":3664:3702   */\n      tag_199\n        /* \"#utility.yul\":3696:3701   */\n      dup3\n        /* \"#utility.yul\":3664:3702   */\n      tag_112\n      jump\t// in\n    tag_199:\n        /* \"#utility.yul\":3718:3786   */\n      tag_200\n        /* \"#utility.yul\":3779:3785   */\n      dup2\n        /* \"#utility.yul\":3774:3777   */\n      dup6\n        /* \"#utility.yul\":3718:3786   */\n      tag_113\n      jump\t// in\n    tag_200:\n        /* \"#utility.yul\":3711:3786   */\n      swap4\n      pop\n        /* \"#utility.yul\":3795:3860   */\n      tag_201\n        /* \"#utility.yul\":3853:3859   */\n      dup2\n        /* \"#utility.yul\":3848:3851   */\n      dup6\n        /* \"#utility.yul\":3841:3845   */\n      0x20\n        /* \"#utility.yul\":3834:3839   */\n      dup7\n        /* \"#utility.yul\":3830:3846   */\n      add\n        /* \"#utility.yul\":3795:3860   */\n      tag_114\n      jump\t// in\n    tag_201:\n        /* \"#utility.yul\":3885:3914   */\n      tag_202\n        /* \"#utility.yul\":3907:3913   */\n      dup2\n        /* \"#utility.yul\":3885:3914   */\n      tag_115\n      jump\t// in\n    tag_202:\n        /* \"#utility.yul\":3880:3883   */\n      dup5\n        /* \"#utility.yul\":3876:3915   */\n      add\n        /* \"#utility.yul\":3869:3915   */\n      swap2\n      pop\n        /* \"#utility.yul\":3640:3921   */\n      pop\n        /* \"#utility.yul\":3552:3921   */\n      swap3\n      swap2\n      pop\n      pop\n      jump\t// out\n        /* \"#utility.yul\":3927:4053   */\n    tag_117:\n        /* \"#utility.yul\":3964:3971   */\n      0x00\n        /* \"#utility.yul\":4004:4046   */\n      0xffffffffffffffffffffffffffffffffffffffff\n        /* \"#utility.yul\":3997:4002   */\n      dup3\n        /* \"#utility.yul\":3993:4047   */\n      and\n        /* \"#utility.yul\":3982:4047   */\n      swap1\n      pop\n        /* \"#utility.yul\":3927:4053   */\n      swap2\n      swap1\n      pop\n      jump\t// out\n        /* \"#utility.yul\":4059:4155   */\n    tag_118:\n        /* \"#utility.yul\":4096:4103   */\n      0x00\n        /* \"#utility.yul\":4125:4149   */\n      tag_205\n        /* \"#utility.yul\":4143:4148   */\n      dup3\n        /* \"#utility.yul\":4125:4149   */\n      tag_117\n      jump\t// in\n    tag_205:\n        /* \"#utility.yul\":4114:4149   */\n      swap1\n      pop\n        /* \"#utility.yul\":4059:4155   */\n      swap2\n      swap1\n      pop\n      jump\t// out\n        /* \"#utility.yul\":4161:4277   */\n    tag_119:\n        /* \"#utility.yul\":4246:4270   */\n      tag_207\n        /* \"#utility.yul\":4264:4269   */\n      dup2\n        /* \"#utility.yul\":4246:4270   */\n      tag_118\n      jump\t// in\n    tag_207:\n        /* \"#utility.yul\":4241:4244   */\n      dup3\n        /* \"#utility.yul\":4234:4271   */\n      mstore\n        /* \"#utility.yul\":4161:4277   */\n      pop\n      pop\n      jump\t// out\n        /* \"#utility.yul\":4283:4360   */\n    tag_120:\n        /* \"#utility.yul\":4320:4327   */\n      0x00\n        /* \"#utility.yul\":4349:4354   */\n      dup2\n        /* \"#utility.yul\":4338:4354   */\n      swap1\n      pop\n        /* \"#utility.yul\":4283:4360   */\n      swap2\n      swap1\n      pop\n      jump\t// out\n        /* \"#utility.yul\":4366:4482   */\n    tag_121:\n        /* \"#utility.yul\":4451:4475   */\n      tag_210\n        /* \"#utility.yul\":4469:4474   */\n      dup2\n        /* \"#utility.yul\":4451:4475   */\n      tag_120\n      jump\t// in\n    tag_210:\n        /* \"#utility.yul\":4446:4449   */\n      dup3\n        /* \"#utility.yul\":4439:4476   */\n      mstore\n        /* \"#utility.yul\":4366:4482   */\n      pop\n      pop\n      jump\t// out\n        /* \"#utility.yul\":4488:4564   */\n    tag_122:\n        /* \"#utility.yul\":4524:4531   */\n      0x00\n        /* \"#utility.yul\":4553:4558   */\n      dup2\n        /* \"#utility.yul\":4542:4558   */\n      swap1\n      pop\n        /* \"#utility.yul\":4488:4564   */\n      swap2\n      swap1\n      pop\n      jump\t// out\n        /* \"#utility.yul\":4570:4683   */\n    tag_123:\n        /* \"#utility.yul\":4653:4676   */\n      tag_213\n        /* \"#utility.yul\":4670:4675   */\n      dup2\n        /* \"#utility.yul\":4653:4676   */\n      tag_122\n      jump\t// in\n    tag_213:\n        /* \"#utility.yul\":4648:4651   */\n      dup3\n        /* \"#utility.yul\":4641:4677   */\n      mstore\n        /* \"#utility.yul\":4570:4683   */\n      pop\n      pop\n      jump\t// out\n        /* \"#utility.yul\":4689:4779   */\n    tag_124:\n        /* \"#utility.yul\":4723:4730   */\n      0x00\n        /* \"#utility.yul\":4766:4771   */\n      dup2\n        /* \"#utility.yul\":4759:4772   */\n      iszero\n        /* \"#utility.yul\":4752:4773   */\n      iszero\n        /* \"#utility.yul\":4741:4773   */\n      swap1\n      pop\n        /* \"#utility.yul\":4689:4779   */\n      swap2\n      swap1\n      pop\n      jump\t// out\n        /* \"#utility.yul\":4785:4892   */\n    tag_125:\n        /* \"#utility.yul\":4864:4885   */\n      tag_216\n        /* \"#utility.yul\":4879:4884   */\n      dup2\n        /* \"#utility.yul\":4864:4885   */\n      tag_124\n      jump\t// in\n    tag_216:\n        /* \"#utility.yul\":4859:4862   */\n      dup3\n        /* \"#utility.yul\":4852:4886   */\n      mstore\n        /* \"#utility.yul\":4785:4892   */\n      pop\n      pop\n      jump\t// out\n        /* \"#utility.yul\":4974:6296   */\n    tag_126:\n        /* \"#utility.yul\":5093:5096   */\n      0x00\n        /* \"#utility.yul\":5129:5133   */\n      0xc0\n        /* \"#utility.yul\":5124:5127   */\n      dup4\n        /* \"#utility.yul\":5120:5134   */\n      add\n        /* \"#utility.yul\":5217:5221   */\n      0x00\n        /* \"#utility.yul\":5210:5215   */\n      dup4\n        /* \"#utility.yul\":5206:5222   */\n      add\n        /* \"#utility.yul\":5200:5223   */\n      mload\n        /* \"#utility.yul\":5236:5303   */\n      tag_218\n        /* \"#utility.yul\":5297:5301   */\n      0x00\n        /* \"#utility.yul\":5292:5295   */\n      dup7\n        /* \"#utility.yul\":5288:5302   */\n      add\n        /* \"#utility.yul\":5274:5286   */\n      dup3\n        /* \"#utility.yul\":5236:5303   */\n      tag_111\n      jump\t// in\n    tag_218:\n        /* \"#utility.yul\":5144:5313   */\n      pop\n        /* \"#utility.yul\":5392:5396   */\n      0x20\n        /* \"#utility.yul\":5385:5390   */\n      dup4\n        /* \"#utility.yul\":5381:5397   */\n      add\n        /* \"#utility.yul\":5375:5398   */\n      mload\n        /* \"#utility.yul\":5445:5448   */\n      dup5\n        /* \"#utility.yul\":5439:5443   */\n      dup3\n        /* \"#utility.yul\":5435:5449   */\n      sub\n        /* \"#utility.yul\":5428:5432   */\n      0x20\n        /* \"#utility.yul\":5423:5426   */\n      dup7\n        /* \"#utility.yul\":5419:5433   */\n      add\n        /* \"#utility.yul\":5412:5450   */\n      mstore\n        /* \"#utility.yul\":5471:5550   */\n      tag_219\n        /* \"#utility.yul\":5545:5549   */\n      dup3\n        /* \"#utility.yul\":5531:5543   */\n      dup3\n        /* \"#utility.yul\":5471:5550   */\n      tag_116\n      jump\t// in\n    tag_219:\n        /* \"#utility.yul\":5463:5550   */\n      swap2\n      pop\n        /* \"#utility.yul\":5323:5561   */\n      pop\n        /* \"#utility.yul\":5640:5644   */\n      0x40\n        /* \"#utility.yul\":5633:5638   */\n      dup4\n        /* \"#utility.yul\":5629:5645   */\n      add\n        /* \"#utility.yul\":5623:5646   */\n      mload\n        /* \"#utility.yul\":5659:5730   */\n      tag_220\n        /* \"#utility.yul\":5724:5728   */\n      0x40\n        /* \"#utility.yul\":5719:5722   */\n      dup7\n        /* \"#utility.yul\":5715:5729   */\n      add\n        /* \"#utility.yul\":5701:5713   */\n      dup3\n        /* \"#utility.yul\":5659:5730   */\n      tag_119\n      jump\t// in\n    tag_220:\n        /* \"#utility.yul\":5571:5740   */\n      pop\n        /* \"#utility.yul\":5819:5823   */\n      0x60\n        /* \"#utility.yul\":5812:5817   */\n      dup4\n        /* \"#utility.yul\":5808:5824   */\n      add\n        /* \"#utility.yul\":5802:5825   */\n      mload\n        /* \"#utility.yul\":5838:5909   */\n      tag_221\n        /* \"#utility.yul\":5903:5907   */\n      0x60\n        /* \"#utility.yul\":5898:5901   */\n      dup7\n        /* \"#utility.yul\":5894:5908   */\n      add\n        /* \"#utility.yul\":5880:5892   */\n      dup3\n        /* \"#utility.yul\":5838:5909   */\n      tag_121\n      jump\t// in\n    tag_221:\n        /* \"#utility.yul\":5750:5919   */\n      pop\n        /* \"#utility.yul\":5998:6002   */\n      0x80\n        /* \"#utility.yul\":5991:5996   */\n      dup4\n        /* \"#utility.yul\":5987:6003   */\n      add\n        /* \"#utility.yul\":5981:6004   */\n      mload\n        /* \"#utility.yul\":6017:6086   */\n      tag_222\n        /* \"#utility.yul\":6080:6084   */\n      0x80\n        /* \"#utility.yul\":6075:6078   */\n      dup7\n        /* \"#utility.yul\":6071:6085   */\n      add\n        /* \"#utility.yul\":6057:6069   */\n      dup3\n        /* \"#utility.yul\":6017:6086   */\n      tag_123\n      jump\t// in\n    tag_222:\n        /* \"#utility.yul\":5929:6096   */\n      pop\n        /* \"#utility.yul\":6175:6179   */\n      0xa0\n        /* \"#utility.yul\":6168:6173   */\n      dup4\n        /* \"#utility.yul\":6164:6180   */\n      add\n        /* \"#utility.yul\":6158:6181   */\n      mload\n        /* \"#utility.yul\":6194:6259   */\n      tag_223\n        /* \"#utility.yul\":6253:6257   */\n      0xa0\n        /* \"#utility.yul\":6248:6251   */\n      dup7\n        /* \"#utility.yul\":6244:6258   */\n      add\n        /* \"#utility.yul\":6230:6242   */\n      dup3\n        /* \"#utility.yul\":6194:6259   */\n      tag_125\n      jump\t// in\n    tag_223:\n        /* \"#utility.yul\":6106:6269   */\n      pop\n        /* \"#utility.yul\":6286:6290   */\n      dup1\n        /* \"#utility.yul\":6279:6290   */\n      swap2\n      pop\n        /* \"#utility.yul\":5098:6296   */\n      pop\n        /* \"#utility.yul\":4974:6296   */\n      swap3\n      swap2\n      pop\n      pop\n      jump\t// out\n        /* \"#utility.yul\":6302:6578   */\n    tag_127:\n        /* \"#utility.yul\":6431:6441   */\n      0x00\n        /* \"#utility.yul\":6466:6572   */\n      tag_225\n        /* \"#utility.yul\":6568:6571   */\n      dup4\n        /* \"#utility.yul\":6560:6566   */\n      dup4\n        /* \"#utility.yul\":6466:6572   */\n      tag_126\n      jump\t// in\n    tag_225:\n        /* \"#utility.yul\":6452:6572   */\n      swap1\n      pop\n        /* \"#utility.yul\":6302:6578   */\n      swap3\n      swap2\n      pop\n      pop\n      jump\t// out\n        /* \"#utility.yul\":6584:6723   */\n    tag_128:\n        /* \"#utility.yul\":6680:6684   */\n      0x00\n        /* \"#utility.yul\":6712:6716   */\n      0x20\n        /* \"#utility.yul\":6707:6710   */\n      dup3\n        /* \"#utility.yul\":6703:6717   */\n      add\n        /* \"#utility.yul\":6695:6717   */\n      swap1\n      pop\n        /* \"#utility.yul\":6584:6723   */\n      swap2\n      swap1\n      pop\n      jump\t// out\n        /* \"#utility.yul\":6809:7952   */\n    tag_129:\n        /* \"#utility.yul\":6988:6991   */\n      0x00\n        /* \"#utility.yul\":7017:7097   */\n      tag_228\n        /* \"#utility.yul\":7091:7096   */\n      dup3\n        /* \"#utility.yul\":7017:7097   */\n      tag_107\n      jump\t// in\n    tag_228:\n        /* \"#utility.yul\":7113:7233   */\n      tag_229\n        /* \"#utility.yul\":7226:7232   */\n      dup2\n        /* \"#utility.yul\":7221:7224   */\n      dup6\n        /* \"#utility.yul\":7113:7233   */\n      tag_108\n      jump\t// in\n    tag_229:\n        /* \"#utility.yul\":7106:7233   */\n      swap4\n      pop\n        /* \"#utility.yul\":7259:7262   */\n      dup4\n        /* \"#utility.yul\":7304:7308   */\n      0x20\n        /* \"#utility.yul\":7296:7302   */\n      dup3\n        /* \"#utility.yul\":7292:7309   */\n      mul\n        /* \"#utility.yul\":7287:7290   */\n      dup6\n        /* \"#utility.yul\":7283:7310   */\n      add\n        /* \"#utility.yul\":7334:7416   */\n      tag_230\n        /* \"#utility.yul\":7410:7415   */\n      dup6\n        /* \"#utility.yul\":7334:7416   */\n      tag_109\n      jump\t// in\n    tag_230:\n        /* \"#utility.yul\":7439:7446   */\n      dup1\n        /* \"#utility.yul\":7470:7471   */\n      0x00\n        /* \"#utility.yul\":7455:7907   */\n    tag_231:\n        /* \"#utility.yul\":7480:7486   */\n      dup6\n        /* \"#utility.yul\":7477:7478   */\n      dup2\n        /* \"#utility.yul\":7474:7487   */\n      lt\n        /* \"#utility.yul\":7455:7907   */\n      iszero\n      tag_233\n      jumpi\n        /* \"#utility.yul\":7551:7560   */\n      dup5\n        /* \"#utility.yul\":7545:7549   */\n      dup5\n        /* \"#utility.yul\":7541:7561   */\n      sub\n        /* \"#utility.yul\":7536:7539   */\n      dup10\n        /* \"#utility.yul\":7529:7562   */\n      mstore\n        /* \"#utility.yul\":7602:7608   */\n      dup2\n        /* \"#utility.yul\":7596:7609   */\n      mload\n        /* \"#utility.yul\":7630:7754   */\n      tag_234\n        /* \"#utility.yul\":7749:7753   */\n      dup6\n        /* \"#utility.yul\":7734:7747   */\n      dup3\n        /* \"#utility.yul\":7630:7754   */\n      tag_127\n      jump\t// in\n    tag_234:\n        /* \"#utility.yul\":7622:7754   */\n      swap5\n      pop\n        /* \"#utility.yul\":7777:7863   */\n      tag_235\n        /* \"#utility.yul\":7856:7862   */\n      dup4\n        /* \"#utility.yul\":7777:7863   */\n      tag_128\n      jump\t// in\n    tag_235:\n        /* \"#utility.yul\":7767:7863   */\n      swap3\n      pop\n        /* \"#utility.yul\":7892:7896   */\n      0x20\n        /* \"#utility.yul\":7887:7890   */\n      dup11\n        /* \"#utility.yul\":7883:7897   */\n      add\n        /* \"#utility.yul\":7876:7897   */\n      swap10\n      pop\n        /* \"#utility.yul\":7515:7907   */\n      pop\n        /* \"#utility.yul\":7502:7503   */\n      0x01\n        /* \"#utility.yul\":7499:7500   */\n      dup2\n        /* \"#utility.yul\":7495:7504   */\n      add\n        /* \"#utility.yul\":7490:7504   */\n      swap1\n      pop\n        /* \"#utility.yul\":7455:7907   */\n      jump(tag_231)\n    tag_233:\n        /* \"#utility.yul\":7459:7473   */\n      pop\n        /* \"#utility.yul\":7923:7927   */\n      dup3\n        /* \"#utility.yul\":7916:7927   */\n      swap8\n      pop\n        /* \"#utility.yul\":7943:7946   */\n      dup8\n        /* \"#utility.yul\":7936:7946   */\n      swap6\n      pop\n        /* \"#utility.yul\":6993:7952   */\n      pop\n      pop\n      pop\n      pop\n      pop\n        /* \"#utility.yul\":6809:7952   */\n      swap3\n      swap2\n      pop\n      pop\n      jump\t// out\n        /* \"#utility.yul\":7958:8565   */\n    tag_8:\n        /* \"#utility.yul\":8187:8191   */\n      0x00\n        /* \"#utility.yul\":8225:8227   */\n      0x40\n        /* \"#utility.yul\":8214:8223   */\n      dup3\n        /* \"#utility.yul\":8210:8228   */\n      add\n        /* \"#utility.yul\":8202:8228   */\n      swap1\n      pop\n        /* \"#utility.yul\":8238:8315   */\n      tag_237\n        /* \"#utility.yul\":8312:8313   */\n      0x00\n        /* \"#utility.yul\":8301:8310   */\n      dup4\n        /* \"#utility.yul\":8297:8314   */\n      add\n        /* \"#utility.yul\":8288:8294   */\n      dup6\n        /* \"#utility.yul\":8238:8315   */\n      tag_106\n      jump\t// in\n    tag_237:\n        /* \"#utility.yul\":8362:8371   */\n      dup2\n        /* \"#utility.yul\":8356:8360   */\n      dup2\n        /* \"#utility.yul\":8352:8372   */\n      sub\n        /* \"#utility.yul\":8347:8349   */\n      0x20\n        /* \"#utility.yul\":8336:8345   */\n      dup4\n        /* \"#utility.yul\":8332:8350   */\n      add\n        /* \"#utility.yul\":8325:8373   */\n      mstore\n        /* \"#utility.yul\":8390:8558   */\n      tag_238\n        /* \"#utility.yul\":8553:8557   */\n      dup2\n        /* \"#utility.yul\":8544:8550   */\n      dup5\n        /* \"#utility.yul\":8390:8558   */\n      tag_129\n      jump\t// in\n    tag_238:\n        /* \"#utility.yul\":8382:8558   */\n      swap1\n      pop\n        /* \"#utility.yul\":7958:8565   */\n      swap4\n      swap3\n      pop\n      pop\n      pop\n      jump\t// out\n        /* \"#utility.yul\":8571:8751   */\n    tag_12:\n        /* \"#utility.yul\":8619:8696   */\n      0x4e487b7100000000000000000000000000000000000000000000000000000000\n        /* \"#utility.yul\":8616:8617   */\n      0x00\n        /* \"#utility.yul\":8609:8697   */\n      mstore\n        /* \"#utility.yul\":8716:8720   */\n      0x32\n        /* \"#utility.yul\":8713:8714   */\n      0x04\n        /* \"#utility.yul\":8706:8721   */\n      mstore\n        /* \"#utility.yul\":8740:8744   */\n      0x24\n        /* \"#utility.yul\":8737:8738   */\n      0x00\n        /* \"#utility.yul\":8730:8745   */\n      revert\n        /* \"#utility.yul\":8757:8874   */\n    tag_130:\n        /* \"#utility.yul\":8866:8867   */\n      0x00\n        /* \"#utility.yul\":8863:8864   */\n      dup1\n        /* \"#utility.yul\":8856:8868   */\n      revert\n        /* \"#utility.yul\":8880:8997   */\n    tag_131:\n        /* \"#utility.yul\":8989:8990   */\n      0x00\n        /* \"#utility.yul\":8986:8987   */\n      dup1\n        /* \"#utility.yul\":8979:8991   */\n      revert\n        /* \"#utility.yul\":9003:9120   */\n    tag_132:\n        /* \"#utility.yul\":9112:9113   */\n      0x00\n        /* \"#utility.yul\":9109:9110   */\n      dup1\n        /* \"#utility.yul\":9102:9114   */\n      revert\n        /* \"#utility.yul\":9126:9850   */\n    tag_14:\n        /* \"#utility.yul\":9203:9207   */\n      0x00\n        /* \"#utility.yul\":9209:9215   */\n      dup1\n        /* \"#utility.yul\":9265:9276   */\n      dup4\n        /* \"#utility.yul\":9252:9277   */\n      calldataload\n        /* \"#utility.yul\":9365:9366   */\n      0x01\n        /* \"#utility.yul\":9359:9363   */\n      0x20\n        /* \"#utility.yul\":9355:9367   */\n      sub\n        /* \"#utility.yul\":9344:9352   */\n      dup5\n        /* \"#utility.yul\":9328:9342   */\n      calldatasize\n        /* \"#utility.yul\":9324:9353   */\n      sub\n        /* \"#utility.yul\":9320:9368   */\n      sub\n        /* \"#utility.yul\":9300:9318   */\n      dup2\n        /* \"#utility.yul\":9296:9369   */\n      slt\n        /* \"#utility.yul\":9286:9454   */\n      tag_244\n      jumpi\n        /* \"#utility.yul\":9373:9452   */\n      tag_245\n      tag_130\n      jump\t// in\n    tag_245:\n        /* \"#utility.yul\":9286:9454   */\n    tag_244:\n        /* \"#utility.yul\":9485:9503   */\n      dup1\n        /* \"#utility.yul\":9475:9483   */\n      dup5\n        /* \"#utility.yul\":9471:9504   */\n      add\n        /* \"#utility.yul\":9463:9504   */\n      swap3\n      pop\n        /* \"#utility.yul\":9537:9541   */\n      dup3\n        /* \"#utility.yul\":9524:9542   */\n      calldataload\n        /* \"#utility.yul\":9514:9542   */\n      swap2\n      pop\n        /* \"#utility.yul\":9565:9583   */\n      0xffffffffffffffff\n        /* \"#utility.yul\":9557:9563   */\n      dup3\n        /* \"#utility.yul\":9554:9584   */\n      gt\n        /* \"#utility.yul\":9551:9668   */\n      iszero\n      tag_246\n      jumpi\n        /* \"#utility.yul\":9587:9666   */\n      tag_247\n      tag_131\n      jump\t// in\n    tag_247:\n        /* \"#utility.yul\":9551:9668   */\n    tag_246:\n        /* \"#utility.yul\":9695:9697   */\n      0x20\n        /* \"#utility.yul\":9689:9693   */\n      dup4\n        /* \"#utility.yul\":9685:9698   */\n      add\n        /* \"#utility.yul\":9677:9698   */\n      swap3\n      pop\n        /* \"#utility.yul\":9752:9756   */\n      0x01\n        /* \"#utility.yul\":9744:9750   */\n      dup3\n        /* \"#utility.yul\":9740:9757   */\n      mul\n        /* \"#utility.yul\":9724:9738   */\n      calldatasize\n        /* \"#utility.yul\":9720:9758   */\n      sub\n        /* \"#utility.yul\":9714:9718   */\n      dup4\n        /* \"#utility.yul\":9710:9759   */\n      sgt\n        /* \"#utility.yul\":9707:9843   */\n      iszero\n      tag_248\n      jumpi\n        /* \"#utility.yul\":9762:9841   */\n      tag_249\n      tag_132\n      jump\t// in\n    tag_249:\n        /* \"#utility.yul\":9707:9843   */\n    tag_248:\n        /* \"#utility.yul\":9216:9850   */\n      pop\n        /* \"#utility.yul\":9126:9850   */\n      swap3\n      pop\n      swap3\n      swap1\n      pop\n      jump\t// out\n        /* \"#utility.yul\":9856:9952   */\n    tag_133:\n        /* \"#utility.yul\":9914:9920   */\n      0x00\n        /* \"#utility.yul\":9942:9945   */\n      dup3\n        /* \"#utility.yul\":9932:9945   */\n      swap1\n      pop\n        /* \"#utility.yul\":9856:9952   */\n      swap3\n      swap2\n      pop\n      pop\n      jump\t// out\n        /* \"#utility.yul\":10050:10157   */\n    tag_135:\n        /* \"#utility.yul\":10094:10102   */\n      0x00\n        /* \"#utility.yul\":10144:10149   */\n      dup3\n        /* \"#utility.yul\":10138:10142   */\n      dup3\n        /* \"#utility.yul\":10134:10150   */\n      shl\n        /* \"#utility.yul\":10113:10150   */\n      swap1\n      pop\n        /* \"#utility.yul\":10050:10157   */\n      swap3\n      swap2\n      pop\n      pop\n      jump\t// out\n        /* \"#utility.yul\":10163:10711   */\n    tag_16:\n        /* \"#utility.yul\":10253:10258   */\n      0x00\n        /* \"#utility.yul\":10284:10329   */\n      tag_254\n        /* \"#utility.yul\":10325:10328   */\n      dup4\n        /* \"#utility.yul\":10318:10323   */\n      dup4\n        /* \"#utility.yul\":10284:10329   */\n      tag_133\n      jump\t// in\n    tag_254:\n        /* \"#utility.yul\":10354:10359   */\n      dup3\n        /* \"#utility.yul\":10378:10418   */\n      tag_255\n        /* \"#utility.yul\":10408:10416   */\n      dup2\n        /* \"#utility.yul\":10395:10417   */\n      calldataload\n        /* \"#utility.yul\":10378:10418   */\n      tag_105\n      jump\t// in\n    tag_255:\n        /* \"#utility.yul\":10369:10418   */\n      swap3\n      pop\n        /* \"#utility.yul\":10442:10443   */\n      0x04\n        /* \"#utility.yul\":10434:10440   */\n      dup3\n        /* \"#utility.yul\":10431:10444   */\n      lt\n        /* \"#utility.yul\":10428:10704   */\n      iszero\n      tag_256\n      jumpi\n        /* \"#utility.yul\":10512:10680   */\n      tag_257\n        /* \"#utility.yul\":10596:10662   */\n      0xffffffff00000000000000000000000000000000000000000000000000000000\n        /* \"#utility.yul\":10566:10572   */\n      dup4\n        /* \"#utility.yul\":10563:10564   */\n      0x04\n        /* \"#utility.yul\":10559:10573   */\n      sub\n        /* \"#utility.yul\":10556:10557   */\n      0x08\n        /* \"#utility.yul\":10552:10574   */\n      mul\n        /* \"#utility.yul\":10512:10680   */\n      tag_135\n      jump\t// in\n    tag_257:\n        /* \"#utility.yul\":10489:10494   */\n      dup4\n        /* \"#utility.yul\":10468:10694   */\n      and\n        /* \"#utility.yul\":10459:10694   */\n      swap3\n      pop\n        /* \"#utility.yul\":10428:10704   */\n    tag_256:\n        /* \"#utility.yul\":10259:10711   */\n      pop\n      pop\n        /* \"#utility.yul\":10163:10711   */\n      swap3\n      swap2\n      pop\n      pop\n      jump\t// out\n        /* \"#utility.yul\":10717:10897   */\n    tag_27:\n        /* \"#utility.yul\":10765:10842   */\n      0x4e487b7100000000000000000000000000000000000000000000000000000000\n        /* \"#utility.yul\":10762:10763   */\n      0x00\n        /* \"#utility.yul\":10755:10843   */\n      mstore\n        /* \"#utility.yul\":10862:10866   */\n      0x41\n        /* \"#utility.yul\":10859:10860   */\n      0x04\n        /* \"#utility.yul\":10852:10867   */\n      mstore\n        /* \"#utility.yul\":10886:10890   */\n      0x24\n        /* \"#utility.yul\":10883:10884   */\n      0x00\n        /* \"#utility.yul\":10876:10891   */\n      revert\n        /* \"#utility.yul\":10903:11184   */\n    tag_136:\n        /* \"#utility.yul\":10986:11013   */\n      tag_260\n        /* \"#utility.yul\":11008:11012   */\n      dup3\n        /* \"#utility.yul\":10986:11013   */\n      tag_115\n      jump\t// in\n    tag_260:\n        /* \"#utility.yul\":10978:10984   */\n      dup2\n        /* \"#utility.yul\":10974:11014   */\n      add\n        /* \"#utility.yul\":11116:11122   */\n      dup2\n        /* \"#utility.yul\":11104:11114   */\n      dup2\n        /* \"#utility.yul\":11101:11123   */\n      lt\n        /* \"#utility.yul\":11080:11098   */\n      0xffffffffffffffff\n        /* \"#utility.yul\":11068:11078   */\n      dup3\n        /* \"#utility.yul\":11065:11099   */\n      gt\n        /* \"#utility.yul\":11062:11124   */\n      or\n        /* \"#utility.yul\":11059:11147   */\n      iszero\n      tag_261\n      jumpi\n        /* \"#utility.yul\":11127:11145   */\n      tag_262\n      tag_27\n      jump\t// in\n    tag_262:\n        /* \"#utility.yul\":11059:11147   */\n    tag_261:\n        /* \"#utility.yul\":11167:11177   */\n      dup1\n        /* \"#utility.yul\":11163:11165   */\n      0x40\n        /* \"#utility.yul\":11156:11178   */\n      mstore\n        /* \"#utility.yul\":10946:11184   */\n      pop\n        /* \"#utility.yul\":10903:11184   */\n      pop\n      pop\n      jump\t// out\n        /* \"#utility.yul\":11190:11319   */\n    tag_137:\n        /* \"#utility.yul\":11224:11230   */\n      0x00\n        /* \"#utility.yul\":11251:11271   */\n      tag_264\n      tag_98\n      jump\t// in\n    tag_264:\n        /* \"#utility.yul\":11241:11271   */\n      swap1\n      pop\n        /* \"#utility.yul\":11280:11313   */\n      tag_265\n        /* \"#utility.yul\":11308:11312   */\n      dup3\n        /* \"#utility.yul\":11300:11306   */\n      dup3\n        /* \"#utility.yul\":11280:11313   */\n      tag_136\n      jump\t// in\n    tag_265:\n        /* \"#utility.yul\":11190:11319   */\n      swap2\n      swap1\n      pop\n      jump\t// out\n        /* \"#utility.yul\":11325:11636   */\n    tag_138:\n        /* \"#utility.yul\":11402:11406   */\n      0x00\n        /* \"#utility.yul\":11492:11510   */\n      0xffffffffffffffff\n        /* \"#utility.yul\":11484:11490   */\n      dup3\n        /* \"#utility.yul\":11481:11511   */\n      gt\n        /* \"#utility.yul\":11478:11534   */\n      iszero\n      tag_267\n      jumpi\n        /* \"#utility.yul\":11514:11532   */\n      tag_268\n      tag_27\n      jump\t// in\n    tag_268:\n        /* \"#utility.yul\":11478:11534   */\n    tag_267:\n        /* \"#utility.yul\":11564:11568   */\n      0x20\n        /* \"#utility.yul\":11556:11562   */\n      dup3\n        /* \"#utility.yul\":11552:11569   */\n      mul\n        /* \"#utility.yul\":11544:11569   */\n      swap1\n      pop\n        /* \"#utility.yul\":11624:11628   */\n      0x20\n        /* \"#utility.yul\":11618:11622   */\n      dup2\n        /* \"#utility.yul\":11614:11629   */\n      add\n        /* \"#utility.yul\":11606:11629   */\n      swap1\n      pop\n        /* \"#utility.yul\":11325:11636   */\n      swap2\n      swap1\n      pop\n      jump\t// out\n        /* \"#utility.yul\":11642:11764   */\n    tag_139:\n        /* \"#utility.yul\":11715:11739   */\n      tag_270\n        /* \"#utility.yul\":11733:11738   */\n      dup2\n        /* \"#utility.yul\":11715:11739   */\n      tag_120\n      jump\t// in\n    tag_270:\n        /* \"#utility.yul\":11708:11713   */\n      dup2\n        /* \"#utility.yul\":11705:11740   */\n      eq\n        /* \"#utility.yul\":11695:11758   */\n      tag_271\n      jumpi\n        /* \"#utility.yul\":11754:11755   */\n      0x00\n        /* \"#utility.yul\":11751:11752   */\n      dup1\n        /* \"#utility.yul\":11744:11756   */\n      revert\n        /* \"#utility.yul\":11695:11758   */\n    tag_271:\n        /* \"#utility.yul\":11642:11764   */\n      pop\n      jump\t// out\n        /* \"#utility.yul\":11770:11909   */\n    tag_140:\n        /* \"#utility.yul\":11816:11821   */\n      0x00\n        /* \"#utility.yul\":11854:11860   */\n      dup2\n        /* \"#utility.yul\":11841:11861   */\n      calldataload\n        /* \"#utility.yul\":11832:11861   */\n      swap1\n      pop\n        /* \"#utility.yul\":11870:11903   */\n      tag_273\n        /* \"#utility.yul\":11897:11902   */\n      dup2\n        /* \"#utility.yul\":11870:11903   */\n      tag_139\n      jump\t// in\n    tag_273:\n        /* \"#utility.yul\":11770:11909   */\n      swap3\n      swap2\n      pop\n      pop\n      jump\t// out\n        /* \"#utility.yul\":11932:12642   */\n    tag_141:\n        /* \"#utility.yul\":12028:12033   */\n      0x00\n        /* \"#utility.yul\":12053:12134   */\n      tag_275\n        /* \"#utility.yul\":12069:12133   */\n      tag_276\n        /* \"#utility.yul\":12126:12132   */\n      dup5\n        /* \"#utility.yul\":12069:12133   */\n      tag_138\n      jump\t// in\n    tag_276:\n        /* \"#utility.yul\":12053:12134   */\n      tag_137\n      jump\t// in\n    tag_275:\n        /* \"#utility.yul\":12044:12134   */\n      swap1\n      pop\n        /* \"#utility.yul\":12154:12159   */\n      dup1\n        /* \"#utility.yul\":12183:12189   */\n      dup4\n        /* \"#utility.yul\":12176:12181   */\n      dup3\n        /* \"#utility.yul\":12169:12190   */\n      mstore\n        /* \"#utility.yul\":12217:12221   */\n      0x20\n        /* \"#utility.yul\":12210:12215   */\n      dup3\n        /* \"#utility.yul\":12206:12222   */\n      add\n        /* \"#utility.yul\":12199:12222   */\n      swap1\n      pop\n        /* \"#utility.yul\":12270:12274   */\n      0x20\n        /* \"#utility.yul\":12262:12268   */\n      dup5\n        /* \"#utility.yul\":12258:12275   */\n      mul\n        /* \"#utility.yul\":12250:12256   */\n      dup4\n        /* \"#utility.yul\":12246:12276   */\n      add\n        /* \"#utility.yul\":12299:12302   */\n      dup6\n        /* \"#utility.yul\":12291:12297   */\n      dup2\n        /* \"#utility.yul\":12288:12303   */\n      gt\n        /* \"#utility.yul\":12285:12407   */\n      iszero\n      tag_277\n      jumpi\n        /* \"#utility.yul\":12318:12397   */\n      tag_278\n      tag_103\n      jump\t// in\n    tag_278:\n        /* \"#utility.yul\":12285:12407   */\n    tag_277:\n        /* \"#utility.yul\":12433:12439   */\n      dup4\n        /* \"#utility.yul\":12416:12636   */\n    tag_279:\n        /* \"#utility.yul\":12450:12456   */\n      dup2\n        /* \"#utility.yul\":12445:12448   */\n      dup2\n        /* \"#utility.yul\":12442:12457   */\n      lt\n        /* \"#utility.yul\":12416:12636   */\n      iszero\n      tag_281\n      jumpi\n        /* \"#utility.yul\":12525:12528   */\n      dup1\n        /* \"#utility.yul\":12554:12591   */\n      tag_282\n        /* \"#utility.yul\":12587:12590   */\n      dup9\n        /* \"#utility.yul\":12575:12585   */\n      dup3\n        /* \"#utility.yul\":12554:12591   */\n      tag_140\n      jump\t// in\n    tag_282:\n        /* \"#utility.yul\":12549:12552   */\n      dup5\n        /* \"#utility.yul\":12542:12592   */\n      mstore\n        /* \"#utility.yul\":12621:12625   */\n      0x20\n        /* \"#utility.yul\":12616:12619   */\n      dup5\n        /* \"#utility.yul\":12612:12626   */\n      add\n        /* \"#utility.yul\":12605:12626   */\n      swap4\n      pop\n        /* \"#utility.yul\":12492:12636   */\n      pop\n        /* \"#utility.yul\":12476:12480   */\n      0x20\n        /* \"#utility.yul\":12471:12474   */\n      dup2\n        /* \"#utility.yul\":12467:12481   */\n      add\n        /* \"#utility.yul\":12460:12481   */\n      swap1\n      pop\n        /* \"#utility.yul\":12416:12636   */\n      jump(tag_279)\n    tag_281:\n        /* \"#utility.yul\":12420:12441   */\n      pop\n        /* \"#utility.yul\":12034:12642   */\n      pop\n      pop\n        /* \"#utility.yul\":11932:12642   */\n      swap4\n      swap3\n      pop\n      pop\n      pop\n      jump\t// out\n        /* \"#utility.yul\":12665:13035   */\n    tag_142:\n        /* \"#utility.yul\":12736:12741   */\n      0x00\n        /* \"#utility.yul\":12785:12788   */\n      dup3\n        /* \"#utility.yul\":12778:12782   */\n      0x1f\n        /* \"#utility.yul\":12770:12776   */\n      dup4\n        /* \"#utility.yul\":12766:12783   */\n      add\n        /* \"#utility.yul\":12762:12789   */\n      slt\n        /* \"#utility.yul\":12752:12874   */\n      tag_284\n      jumpi\n        /* \"#utility.yul\":12793:12872   */\n      tag_285\n      tag_101\n      jump\t// in\n    tag_285:\n        /* \"#utility.yul\":12752:12874   */\n    tag_284:\n        /* \"#utility.yul\":12910:12916   */\n      dup2\n        /* \"#utility.yul\":12897:12917   */\n      calldataload\n        /* \"#utility.yul\":12935:13029   */\n      tag_286\n        /* \"#utility.yul\":13025:13028   */\n      dup5\n        /* \"#utility.yul\":13017:13023   */\n      dup3\n        /* \"#utility.yul\":13010:13014   */\n      0x20\n        /* \"#utility.yul\":13002:13008   */\n      dup7\n        /* \"#utility.yul\":12998:13015   */\n      add\n        /* \"#utility.yul\":12935:13029   */\n      tag_141\n      jump\t// in\n    tag_286:\n        /* \"#utility.yul\":12926:13029   */\n      swap2\n      pop\n        /* \"#utility.yul\":12742:13035   */\n      pop\n        /* \"#utility.yul\":12665:13035   */\n      swap3\n      swap2\n      pop\n      pop\n      jump\t// out\n        /* \"#utility.yul\":13041:13580   */\n    tag_21:\n        /* \"#utility.yul\":13125:13131   */\n      0x00\n        /* \"#utility.yul\":13174:13176   */\n      0x20\n        /* \"#utility.yul\":13162:13171   */\n      dup3\n        /* \"#utility.yul\":13153:13160   */\n      dup5\n        /* \"#utility.yul\":13149:13172   */\n      sub\n        /* \"#utility.yul\":13145:13177   */\n      slt\n        /* \"#utility.yul\":13142:13261   */\n      iszero\n      tag_288\n      jumpi\n        /* \"#utility.yul\":13180:13259   */\n      tag_289\n      tag_99\n      jump\t// in\n    tag_289:\n        /* \"#utility.yul\":13142:13261   */\n    tag_288:\n        /* \"#utility.yul\":13328:13329   */\n      0x00\n        /* \"#utility.yul\":13317:13326   */\n      dup3\n        /* \"#utility.yul\":13313:13330   */\n      add\n        /* \"#utility.yul\":13300:13331   */\n      calldataload\n        /* \"#utility.yul\":13358:13376   */\n      0xffffffffffffffff\n        /* \"#utility.yul\":13350:13356   */\n      dup2\n        /* \"#utility.yul\":13347:13377   */\n      gt\n        /* \"#utility.yul\":13344:13461   */\n      iszero\n      tag_290\n      jumpi\n        /* \"#utility.yul\":13380:13459   */\n      tag_291\n      tag_100\n      jump\t// in\n    tag_291:\n        /* \"#utility.yul\":13344:13461   */\n    tag_290:\n        /* \"#utility.yul\":13485:13563   */\n      tag_292\n        /* \"#utility.yul\":13555:13562   */\n      dup5\n        /* \"#utility.yul\":13546:13552   */\n      dup3\n        /* \"#utility.yul\":13535:13544   */\n      dup6\n        /* \"#utility.yul\":13531:13553   */\n      add\n        /* \"#utility.yul\":13485:13563   */\n      tag_142\n      jump\t// in\n    tag_292:\n        /* \"#utility.yul\":13475:13563   */\n      swap2\n      pop\n        /* \"#utility.yul\":13271:13573   */\n      pop\n        /* \"#utility.yul\":13041:13580   */\n      swap3\n      swap2\n      pop\n      pop\n      jump\t// out\n        /* \"#utility.yul\":13586:13704   */\n    tag_143:\n        /* \"#utility.yul\":13673:13697   */\n      tag_294\n        /* \"#utility.yul\":13691:13696   */\n      dup2\n        /* \"#utility.yul\":13673:13697   */\n      tag_120\n      jump\t// in\n    tag_294:\n        /* \"#utility.yul\":13668:13671   */\n      dup3\n        /* \"#utility.yul\":13661:13698   */\n      mstore\n        /* \"#utility.yul\":13586:13704   */\n      pop\n      pop\n      jump\t// out\n        /* \"#utility.yul\":13710:13932   */\n    tag_24:\n        /* \"#utility.yul\":13803:13807   */\n      0x00\n        /* \"#utility.yul\":13841:13843   */\n      0x20\n        /* \"#utility.yul\":13830:13839   */\n      dup3\n        /* \"#utility.yul\":13826:13844   */\n      add\n        /* \"#utility.yul\":13818:13844   */\n      swap1\n      pop\n        /* \"#utility.yul\":13854:13925   */\n      tag_296\n        /* \"#utility.yul\":13922:13923   */\n      0x00\n        /* \"#utility.yul\":13911:13920   */\n      dup4\n        /* \"#utility.yul\":13907:13924   */\n      add\n        /* \"#utility.yul\":13898:13904   */\n      dup5\n        /* \"#utility.yul\":13854:13925   */\n      tag_143\n      jump\t// in\n    tag_296:\n        /* \"#utility.yul\":13710:13932   */\n      swap3\n      swap2\n      pop\n      pop\n      jump\t// out\n        /* \"#utility.yul\":13938:14118   */\n    tag_144:\n        /* \"#utility.yul\":13986:14063   */\n      0x4e487b7100000000000000000000000000000000000000000000000000000000\n        /* \"#utility.yul\":13983:13984   */\n      0x00\n        /* \"#utility.yul\":13976:14064   */\n      mstore\n        /* \"#utility.yul\":14083:14087   */\n      0x11\n        /* \"#utility.yul\":14080:14081   */\n      0x04\n        /* \"#utility.yul\":14073:14088   */\n      mstore\n        /* \"#utility.yul\":14107:14111   */\n      0x24\n        /* \"#utility.yul\":14104:14105   */\n      0x00\n        /* \"#utility.yul\":14097:14112   */\n      revert\n        /* \"#utility.yul\":14124:14315   */\n    tag_43:\n        /* \"#utility.yul\":14164:14167   */\n      0x00\n        /* \"#utility.yul\":14183:14203   */\n      tag_299\n        /* \"#utility.yul\":14201:14202   */\n      dup3\n        /* \"#utility.yul\":14183:14203   */\n      tag_120\n      jump\t// in\n    tag_299:\n        /* \"#utility.yul\":14178:14203   */\n      swap2\n      pop\n        /* \"#utility.yul\":14217:14237   */\n      tag_300\n        /* \"#utility.yul\":14235:14236   */\n      dup4\n        /* \"#utility.yul\":14217:14237   */\n      tag_120\n      jump\t// in\n    tag_300:\n        /* \"#utility.yul\":14212:14237   */\n      swap3\n      pop\n        /* \"#utility.yul\":14260:14261   */\n      dup3\n        /* \"#utility.yul\":14257:14258   */\n      dup3\n        /* \"#utility.yul\":14253:14262   */\n      add\n        /* \"#utility.yul\":14246:14262   */\n      swap1\n      pop\n        /* \"#utility.yul\":14281:14284   */\n      dup1\n        /* \"#utility.yul\":14278:14279   */\n      dup3\n        /* \"#utility.yul\":14275:14285   */\n      gt\n        /* \"#utility.yul\":14272:14308   */\n      iszero\n      tag_301\n      jumpi\n        /* \"#utility.yul\":14288:14306   */\n      tag_302\n      tag_144\n      jump\t// in\n    tag_302:\n        /* \"#utility.yul\":14272:14308   */\n    tag_301:\n        /* \"#utility.yul\":14124:14315   */\n      swap3\n      swap2\n      pop\n      pop\n      jump\t// out\n        /* \"#utility.yul\":14321:14438   */\n    tag_145:\n        /* \"#utility.yul\":14430:14431   */\n      0x00\n        /* \"#utility.yul\":14427:14428   */\n      dup1\n        /* \"#utility.yul\":14420:14432   */\n      revert\n        /* \"#utility.yul\":14444:14561   */\n    tag_146:\n        /* \"#utility.yul\":14553:14554   */\n      0x00\n        /* \"#utility.yul\":14550:14551   */\n      dup1\n        /* \"#utility.yul\":14543:14555   */\n      revert\n        /* \"#utility.yul\":14567:15036   */\n    tag_45:\n        /* \"#utility.yul\":14672:14681   */\n      0x00\n        /* \"#utility.yul\":14683:14692   */\n      dup1\n        /* \"#utility.yul\":14721:14729   */\n      dup6\n        /* \"#utility.yul\":14709:14719   */\n      dup6\n        /* \"#utility.yul\":14706:14730   */\n      gt\n        /* \"#utility.yul\":14703:14814   */\n      iszero\n      tag_306\n      jumpi\n        /* \"#utility.yul\":14733:14812   */\n      tag_307\n      tag_145\n      jump\t// in\n    tag_307:\n        /* \"#utility.yul\":14703:14814   */\n    tag_306:\n        /* \"#utility.yul\":14839:14845   */\n      dup4\n        /* \"#utility.yul\":14829:14837   */\n      dup7\n        /* \"#utility.yul\":14826:14846   */\n      gt\n        /* \"#utility.yul\":14823:14930   */\n      iszero\n      tag_308\n      jumpi\n        /* \"#utility.yul\":14849:14928   */\n      tag_309\n      tag_146\n      jump\t// in\n    tag_309:\n        /* \"#utility.yul\":14823:14930   */\n    tag_308:\n        /* \"#utility.yul\":14980:14981   */\n      0x01\n        /* \"#utility.yul\":14968:14978   */\n      dup6\n        /* \"#utility.yul\":14964:14982   */\n      mul\n        /* \"#utility.yul\":14956:14962   */\n      dup4\n        /* \"#utility.yul\":14952:14983   */\n      add\n        /* \"#utility.yul\":14939:14983   */\n      swap2\n      pop\n        /* \"#utility.yul\":15019:15029   */\n      dup5\n        /* \"#utility.yul\":15009:15017   */\n      dup7\n        /* \"#utility.yul\":15005:15030   */\n      sub\n        /* \"#utility.yul\":14992:15030   */\n      swap1\n      pop\n        /* \"#utility.yul\":14567:15036   */\n      swap5\n      pop\n      swap5\n      swap3\n      pop\n      pop\n      pop\n      jump\t// out\n        /* \"#utility.yul\":15042:15146   */\n    tag_147:\n        /* \"#utility.yul\":15087:15094   */\n      0x00\n        /* \"#utility.yul\":15116:15140   */\n      tag_311\n        /* \"#utility.yul\":15134:15139   */\n      dup3\n        /* \"#utility.yul\":15116:15140   */\n      tag_117\n      jump\t// in\n    tag_311:\n        /* \"#utility.yul\":15105:15140   */\n      swap1\n      pop\n        /* \"#utility.yul\":15042:15146   */\n      swap2\n      swap1\n      pop\n      jump\t// out\n        /* \"#utility.yul\":15152:15290   */\n    tag_148:\n        /* \"#utility.yul\":15233:15265   */\n      tag_313\n        /* \"#utility.yul\":15259:15264   */\n      dup2\n        /* \"#utility.yul\":15233:15265   */\n      tag_147\n      jump\t// in\n    tag_313:\n        /* \"#utility.yul\":15226:15231   */\n      dup2\n        /* \"#utility.yul\":15223:15266   */\n      eq\n        /* \"#utility.yul\":15213:15284   */\n      tag_314\n      jumpi\n        /* \"#utility.yul\":15280:15281   */\n      0x00\n        /* \"#utility.yul\":15277:15278   */\n      dup1\n        /* \"#utility.yul\":15270:15282   */\n      revert\n        /* \"#utility.yul\":15213:15284   */\n    tag_314:\n        /* \"#utility.yul\":15152:15290   */\n      pop\n      jump\t// out\n        /* \"#utility.yul\":15296:15451   */\n    tag_149:\n        /* \"#utility.yul\":15350:15355   */\n      0x00\n        /* \"#utility.yul\":15388:15394   */\n      dup2\n        /* \"#utility.yul\":15375:15395   */\n      calldataload\n        /* \"#utility.yul\":15366:15395   */\n      swap1\n      pop\n        /* \"#utility.yul\":15404:15445   */\n      tag_316\n        /* \"#utility.yul\":15439:15444   */\n      dup2\n        /* \"#utility.yul\":15404:15445   */\n      tag_148\n      jump\t// in\n    tag_316:\n        /* \"#utility.yul\":15296:15451   */\n      swap3\n      swap2\n      pop\n      pop\n      jump\t// out\n        /* \"#utility.yul\":15457:15802   */\n    tag_47:\n        /* \"#utility.yul\":15524:15530   */\n      0x00\n        /* \"#utility.yul\":15573:15575   */\n      0x20\n        /* \"#utility.yul\":15561:15570   */\n      dup3\n        /* \"#utility.yul\":15552:15559   */\n      dup5\n        /* \"#utility.yul\":15548:15571   */\n      sub\n        /* \"#utility.yul\":15544:15576   */\n      slt\n        /* \"#utility.yul\":15541:15660   */\n      iszero\n      tag_318\n      jumpi\n        /* \"#utility.yul\":15579:15658   */\n      tag_319\n      tag_99\n      jump\t// in\n    tag_319:\n        /* \"#utility.yul\":15541:15660   */\n    tag_318:\n        /* \"#utility.yul\":15699:15700   */\n      0x00\n        /* \"#utility.yul\":15724:15785   */\n      tag_320\n        /* \"#utility.yul\":15777:15784   */\n      dup5\n        /* \"#utility.yul\":15768:15774   */\n      dup3\n        /* \"#utility.yul\":15757:15766   */\n      dup6\n        /* \"#utility.yul\":15753:15775   */\n      add\n        /* \"#utility.yul\":15724:15785   */\n      tag_149\n      jump\t// in\n    tag_320:\n        /* \"#utility.yul\":15714:15785   */\n      swap2\n      pop\n        /* \"#utility.yul\":15670:15795   */\n      pop\n        /* \"#utility.yul\":15457:15802   */\n      swap3\n      swap2\n      pop\n      pop\n      jump\t// out\n        /* \"#utility.yul\":15808:16137   */\n    tag_58:\n        /* \"#utility.yul\":15867:15873   */\n      0x00\n        /* \"#utility.yul\":15916:15918   */\n      0x20\n        /* \"#utility.yul\":15904:15913   */\n      dup3\n        /* \"#utility.yul\":15895:15902   */\n      dup5\n        /* \"#utility.yul\":15891:15914   */\n      sub\n        /* \"#utility.yul\":15887:15919   */\n      slt\n        /* \"#utility.yul\":15884:16003   */\n      iszero\n      tag_322\n      jumpi\n        /* \"#utility.yul\":15922:16001   */\n      tag_323\n      tag_99\n      jump\t// in\n    tag_323:\n        /* \"#utility.yul\":15884:16003   */\n    tag_322:\n        /* \"#utility.yul\":16042:16043   */\n      0x00\n        /* \"#utility.yul\":16067:16120   */\n      tag_324\n        /* \"#utility.yul\":16112:16119   */\n      dup5\n        /* \"#utility.yul\":16103:16109   */\n      dup3\n        /* \"#utility.yul\":16092:16101   */\n      dup6\n        /* \"#utility.yul\":16088:16110   */\n      add\n        /* \"#utility.yul\":16067:16120   */\n      tag_140\n      jump\t// in\n    tag_324:\n        /* \"#utility.yul\":16057:16120   */\n      swap2\n      pop\n        /* \"#utility.yul\":16013:16130   */\n      pop\n        /* \"#utility.yul\":15808:16137   */\n      swap3\n      swap2\n      pop\n      pop\n      jump\t// out\n        /* \"#utility.yul\":16143:16263   */\n    tag_150:\n        /* \"#utility.yul\":16215:16238   */\n      tag_326\n        /* \"#utility.yul\":16232:16237   */\n      dup2\n        /* \"#utility.yul\":16215:16238   */\n      tag_122\n      jump\t// in\n    tag_326:\n        /* \"#utility.yul\":16208:16213   */\n      dup2\n        /* \"#utility.yul\":16205:16239   */\n      eq\n        /* \"#utility.yul\":16195:16257   */\n      tag_327\n      jumpi\n        /* \"#utility.yul\":16253:16254   */\n      0x00\n        /* \"#utility.yul\":16250:16251   */\n      dup1\n        /* \"#utility.yul\":16243:16255   */\n      revert\n        /* \"#utility.yul\":16195:16257   */\n    tag_327:\n        /* \"#utility.yul\":16143:16263   */\n      pop\n      jump\t// out\n        /* \"#utility.yul\":16269:16406   */\n    tag_151:\n        /* \"#utility.yul\":16314:16319   */\n      0x00\n        /* \"#utility.yul\":16352:16358   */\n      dup2\n        /* \"#utility.yul\":16339:16359   */\n      calldataload\n        /* \"#utility.yul\":16330:16359   */\n      swap1\n      pop\n        /* \"#utility.yul\":16368:16400   */\n      tag_329\n        /* \"#utility.yul\":16394:16399   */\n      dup2\n        /* \"#utility.yul\":16368:16400   */\n      tag_150\n      jump\t// in\n    tag_329:\n        /* \"#utility.yul\":16269:16406   */\n      swap3\n      swap2\n      pop\n      pop\n      jump\t// out\n        /* \"#utility.yul\":16412:16739   */\n    tag_69:\n        /* \"#utility.yul\":16470:16476   */\n      0x00\n        /* \"#utility.yul\":16519:16521   */\n      0x20\n        /* \"#utility.yul\":16507:16516   */\n      dup3\n        /* \"#utility.yul\":16498:16505   */\n      dup5\n        /* \"#utility.yul\":16494:16517   */\n      sub\n        /* \"#utility.yul\":16490:16522   */\n      slt\n        /* \"#utility.yul\":16487:16606   */\n      iszero\n      tag_331\n      jumpi\n        /* \"#utility.yul\":16525:16604   */\n      tag_332\n      tag_99\n      jump\t// in\n    tag_332:\n        /* \"#utility.yul\":16487:16606   */\n    tag_331:\n        /* \"#utility.yul\":16645:16646   */\n      0x00\n        /* \"#utility.yul\":16670:16722   */\n      tag_333\n        /* \"#utility.yul\":16714:16721   */\n      dup5\n        /* \"#utility.yul\":16705:16711   */\n      dup3\n        /* \"#utility.yul\":16694:16703   */\n      dup6\n        /* \"#utility.yul\":16690:16712   */\n      add\n        /* \"#utility.yul\":16670:16722   */\n      tag_151\n      jump\t// in\n    tag_333:\n        /* \"#utility.yul\":16660:16722   */\n      swap2\n      pop\n        /* \"#utility.yul\":16616:16732   */\n      pop\n        /* \"#utility.yul\":16412:16739   */\n      swap3\n      swap2\n      pop\n      pop\n      jump\t// out\n        /* \"#utility.yul\":16745:16861   */\n    tag_152:\n        /* \"#utility.yul\":16815:16836   */\n      tag_335\n        /* \"#utility.yul\":16830:16835   */\n      dup2\n        /* \"#utility.yul\":16815:16836   */\n      tag_124\n      jump\t// in\n    tag_335:\n        /* \"#utility.yul\":16808:16813   */\n      dup2\n        /* \"#utility.yul\":16805:16837   */\n      eq\n        /* \"#utility.yul\":16795:16855   */\n      tag_336\n      jumpi\n        /* \"#utility.yul\":16851:16852   */\n      0x00\n        /* \"#utility.yul\":16848:16849   */\n      dup1\n        /* \"#utility.yul\":16841:16853   */\n      revert\n        /* \"#utility.yul\":16795:16855   */\n    tag_336:\n        /* \"#utility.yul\":16745:16861   */\n      pop\n      jump\t// out\n        /* \"#utility.yul\":16867:17000   */\n    tag_153:\n        /* \"#utility.yul\":16910:16915   */\n      0x00\n        /* \"#utility.yul\":16948:16954   */\n      dup2\n        /* \"#utility.yul\":16935:16955   */\n      calldataload\n        /* \"#utility.yul\":16926:16955   */\n      swap1\n      pop\n        /* \"#utility.yul\":16964:16994   */\n      tag_338\n        /* \"#utility.yul\":16988:16993   */\n      dup2\n        /* \"#utility.yul\":16964:16994   */\n      tag_152\n      jump\t// in\n    tag_338:\n        /* \"#utility.yul\":16867:17000   */\n      swap3\n      swap2\n      pop\n      pop\n      jump\t// out\n        /* \"#utility.yul\":17006:17329   */\n    tag_80:\n        /* \"#utility.yul\":17062:17068   */\n      0x00\n        /* \"#utility.yul\":17111:17113   */\n      0x20\n        /* \"#utility.yul\":17099:17108   */\n      dup3\n        /* \"#utility.yul\":17090:17097   */\n      dup5\n        /* \"#utility.yul\":17086:17109   */\n      sub\n        /* \"#utility.yul\":17082:17114   */\n      slt\n        /* \"#utility.yul\":17079:17198   */\n      iszero\n      tag_340\n      jumpi\n        /* \"#utility.yul\":17117:17196   */\n      tag_341\n      tag_99\n      jump\t// in\n    tag_341:\n        /* \"#utility.yul\":17079:17198   */\n    tag_340:\n        /* \"#utility.yul\":17237:17238   */\n      0x00\n        /* \"#utility.yul\":17262:17312   */\n      tag_342\n        /* \"#utility.yul\":17304:17311   */\n      dup5\n        /* \"#utility.yul\":17295:17301   */\n      dup3\n        /* \"#utility.yul\":17284:17293   */\n      dup6\n        /* \"#utility.yul\":17280:17302   */\n      add\n        /* \"#utility.yul\":17262:17312   */\n      tag_153\n      jump\t// in\n    tag_342:\n        /* \"#utility.yul\":17252:17312   */\n      swap2\n      pop\n        /* \"#utility.yul\":17208:17322   */\n      pop\n        /* \"#utility.yul\":17006:17329   */\n      swap3\n      swap2\n      pop\n      pop\n      jump\t// out\n        /* \"#utility.yul\":17335:17452   */\n    tag_154:\n        /* \"#utility.yul\":17444:17445   */\n      0x00\n        /* \"#utility.yul\":17441:17442   */\n      dup1\n        /* \"#utility.yul\":17434:17446   */\n      revert\n        /* \"#utility.yul\":17458:17765   */\n    tag_155:\n        /* \"#utility.yul\":17519:17523   */\n      0x00\n        /* \"#utility.yul\":17609:17627   */\n      0xffffffffffffffff\n        /* \"#utility.yul\":17601:17607   */\n      dup3\n        /* \"#utility.yul\":17598:17628   */\n      gt\n        /* \"#utility.yul\":17595:17651   */\n      iszero\n      tag_345\n      jumpi\n        /* \"#utility.yul\":17631:17649   */\n      tag_346\n      tag_27\n      jump\t// in\n    tag_346:\n        /* \"#utility.yul\":17595:17651   */\n    tag_345:\n        /* \"#utility.yul\":17669:17698   */\n      tag_347\n        /* \"#utility.yul\":17691:17697   */\n      dup3\n        /* \"#utility.yul\":17669:17698   */\n      tag_115\n      jump\t// in\n    tag_347:\n        /* \"#utility.yul\":17661:17698   */\n      swap1\n      pop\n        /* \"#utility.yul\":17753:17757   */\n      0x20\n        /* \"#utility.yul\":17747:17751   */\n      dup2\n        /* \"#utility.yul\":17743:17758   */\n      add\n        /* \"#utility.yul\":17735:17758   */\n      swap1\n      pop\n        /* \"#utility.yul\":17458:17765   */\n      swap2\n      swap1\n      pop\n      jump\t// out\n        /* \"#utility.yul\":17771:17917   */\n    tag_156:\n        /* \"#utility.yul\":17868:17874   */\n      dup3\n        /* \"#utility.yul\":17863:17866   */\n      dup2\n        /* \"#utility.yul\":17858:17861   */\n      dup4\n        /* \"#utility.yul\":17845:17875   */\n      calldatacopy\n        /* \"#utility.yul\":17909:17910   */\n      0x00\n        /* \"#utility.yul\":17900:17906   */\n      dup4\n        /* \"#utility.yul\":17895:17898   */\n      dup4\n        /* \"#utility.yul\":17891:17907   */\n      add\n        /* \"#utility.yul\":17884:17911   */\n      mstore\n        /* \"#utility.yul\":17771:17917   */\n      pop\n      pop\n      pop\n      jump\t// out\n        /* \"#utility.yul\":17923:18346   */\n    tag_157:\n        /* \"#utility.yul\":18000:18005   */\n      0x00\n        /* \"#utility.yul\":18025:18090   */\n      tag_350\n        /* \"#utility.yul\":18041:18089   */\n      tag_351\n        /* \"#utility.yul\":18082:18088   */\n      dup5\n        /* \"#utility.yul\":18041:18089   */\n      tag_155\n      jump\t// in\n    tag_351:\n        /* \"#utility.yul\":18025:18090   */\n      tag_137\n      jump\t// in\n    tag_350:\n        /* \"#utility.yul\":18016:18090   */\n      swap1\n      pop\n        /* \"#utility.yul\":18113:18119   */\n      dup3\n        /* \"#utility.yul\":18106:18111   */\n      dup2\n        /* \"#utility.yul\":18099:18120   */\n      mstore\n        /* \"#utility.yul\":18151:18155   */\n      0x20\n        /* \"#utility.yul\":18144:18149   */\n      dup2\n        /* \"#utility.yul\":18140:18156   */\n      add\n        /* \"#utility.yul\":18189:18192   */\n      dup5\n        /* \"#utility.yul\":18180:18186   */\n      dup5\n        /* \"#utility.yul\":18175:18178   */\n      dup5\n        /* \"#utility.yul\":18171:18187   */\n      add\n        /* \"#utility.yul\":18168:18193   */\n      gt\n        /* \"#utility.yul\":18165:18277   */\n      iszero\n      tag_352\n      jumpi\n        /* \"#utility.yul\":18196:18275   */\n      tag_353\n      tag_154\n      jump\t// in\n    tag_353:\n        /* \"#utility.yul\":18165:18277   */\n    tag_352:\n        /* \"#utility.yul\":18286:18340   */\n      tag_354\n        /* \"#utility.yul\":18333:18339   */\n      dup5\n        /* \"#utility.yul\":18328:18331   */\n      dup3\n        /* \"#utility.yul\":18323:18326   */\n      dup6\n        /* \"#utility.yul\":18286:18340   */\n      tag_156\n      jump\t// in\n    tag_354:\n        /* \"#utility.yul\":18006:18346   */\n      pop\n        /* \"#utility.yul\":17923:18346   */\n      swap4\n      swap3\n      pop\n      pop\n      pop\n      jump\t// out\n        /* \"#utility.yul\":18365:18703   */\n    tag_158:\n        /* \"#utility.yul\":18420:18425   */\n      0x00\n        /* \"#utility.yul\":18469:18472   */\n      dup3\n        /* \"#utility.yul\":18462:18466   */\n      0x1f\n        /* \"#utility.yul\":18454:18460   */\n      dup4\n        /* \"#utility.yul\":18450:18467   */\n      add\n        /* \"#utility.yul\":18446:18473   */\n      slt\n        /* \"#utility.yul\":18436:18558   */\n      tag_356\n      jumpi\n        /* \"#utility.yul\":18477:18556   */\n      tag_357\n      tag_101\n      jump\t// in\n    tag_357:\n        /* \"#utility.yul\":18436:18558   */\n    tag_356:\n        /* \"#utility.yul\":18594:18600   */\n      dup2\n        /* \"#utility.yul\":18581:18601   */\n      calldataload\n        /* \"#utility.yul\":18619:18697   */\n      tag_358\n        /* \"#utility.yul\":18693:18696   */\n      dup5\n        /* \"#utility.yul\":18685:18691   */\n      dup3\n        /* \"#utility.yul\":18678:18682   */\n      0x20\n        /* \"#utility.yul\":18670:18676   */\n      dup7\n        /* \"#utility.yul\":18666:18683   */\n      add\n        /* \"#utility.yul\":18619:18697   */\n      tag_157\n      jump\t// in\n    tag_358:\n        /* \"#utility.yul\":18610:18697   */\n      swap2\n      pop\n        /* \"#utility.yul\":18426:18703   */\n      pop\n        /* \"#utility.yul\":18365:18703   */\n      swap3\n      swap2\n      pop\n      pop\n      jump\t// out\n        /* \"#utility.yul\":18709:19216   */\n    tag_91:\n        /* \"#utility.yul\":18777:18783   */\n      0x00\n        /* \"#utility.yul\":18826:18828   */\n      0x20\n        /* \"#utility.yul\":18814:18823   */\n      dup3\n        /* \"#utility.yul\":18805:18812   */\n      dup5\n        /* \"#utility.yul\":18801:18824   */\n      sub\n        /* \"#utility.yul\":18797:18829   */\n      slt\n        /* \"#utility.yul\":18794:18913   */\n      iszero\n      tag_360\n      jumpi\n        /* \"#utility.yul\":18832:18911   */\n      tag_361\n      tag_99\n      jump\t// in\n    tag_361:\n        /* \"#utility.yul\":18794:18913   */\n    tag_360:\n        /* \"#utility.yul\":18980:18981   */\n      0x00\n        /* \"#utility.yul\":18969:18978   */\n      dup3\n        /* \"#utility.yul\":18965:18982   */\n      add\n        /* \"#utility.yul\":18952:18983   */\n      calldataload\n        /* \"#utility.yul\":19010:19028   */\n      0xffffffffffffffff\n        /* \"#utility.yul\":19002:19008   */\n      dup2\n        /* \"#utility.yul\":18999:19029   */\n      gt\n        /* \"#utility.yul\":18996:19113   */\n      iszero\n      tag_362\n      jumpi\n        /* \"#utility.yul\":19032:19111   */\n      tag_363\n      tag_100\n      jump\t// in\n    tag_363:\n        /* \"#utility.yul\":18996:19113   */\n    tag_362:\n        /* \"#utility.yul\":19137:19199   */\n      tag_364\n        /* \"#utility.yul\":19191:19198   */\n      dup5\n        /* \"#utility.yul\":19182:19188   */\n      dup3\n        /* \"#utility.yul\":19171:19180   */\n      dup6\n        /* \"#utility.yul\":19167:19189   */\n      add\n        /* \"#utility.yul\":19137:19199   */\n      tag_158\n      jump\t// in\n    tag_364:\n        /* \"#utility.yul\":19127:19199   */\n      swap2\n      pop\n        /* \"#utility.yul\":18923:19209   */\n      pop\n        /* \"#utility.yul\":18709:19216   */\n      swap3\n      swap2\n      pop\n      pop\n      jump\t// out\n        /* \"#utility.yul\":19222:19391   */\n    tag_159:\n        /* \"#utility.yul\":19306:19317   */\n      0x00\n        /* \"#utility.yul\":19340:19346   */\n      dup3\n        /* \"#utility.yul\":19335:19338   */\n      dup3\n        /* \"#utility.yul\":19328:19347   */\n      mstore\n        /* \"#utility.yul\":19380:19384   */\n      0x20\n        /* \"#utility.yul\":19375:19378   */\n      dup3\n        /* \"#utility.yul\":19371:19385   */\n      add\n        /* \"#utility.yul\":19356:19385   */\n      swap1\n      pop\n        /* \"#utility.yul\":19222:19391   */\n      swap3\n      swap2\n      pop\n      pop\n      jump\t// out\n        /* \"#utility.yul\":19397:19558   */\n    tag_160:\n        /* \"#utility.yul\":19537:19550   */\n      0x646174614465636f646572000000000000000000000000000000000000000000\n        /* \"#utility.yul\":19533:19534   */\n      0x00\n        /* \"#utility.yul\":19525:19531   */\n      dup3\n        /* \"#utility.yul\":19521:19535   */\n      add\n        /* \"#utility.yul\":19514:19551   */\n      mstore\n        /* \"#utility.yul\":19397:19558   */\n      pop\n      jump\t// out\n        /* \"#utility.yul\":19564:19930   */\n    tag_161:\n        /* \"#utility.yul\":19706:19709   */\n      0x00\n        /* \"#utility.yul\":19727:19794   */\n      tag_368\n        /* \"#utility.yul\":19791:19793   */\n      0x0b\n        /* \"#utility.yul\":19786:19789   */\n      dup4\n        /* \"#utility.yul\":19727:19794   */\n      tag_159\n      jump\t// in\n    tag_368:\n        /* \"#utility.yul\":19720:19794   */\n      swap2\n      pop\n        /* \"#utility.yul\":19803:19896   */\n      tag_369\n        /* \"#utility.yul\":19892:19895   */\n      dup3\n        /* \"#utility.yul\":19803:19896   */\n      tag_160\n      jump\t// in\n    tag_369:\n        /* \"#utility.yul\":19921:19923   */\n      0x20\n        /* \"#utility.yul\":19916:19919   */\n      dup3\n        /* \"#utility.yul\":19912:19924   */\n      add\n        /* \"#utility.yul\":19905:19924   */\n      swap1\n      pop\n        /* \"#utility.yul\":19564:19930   */\n      swap2\n      swap1\n      pop\n      jump\t// out\n        /* \"#utility.yul\":19936:20355   */\n    tag_94:\n        /* \"#utility.yul\":20102:20106   */\n      0x00\n        /* \"#utility.yul\":20140:20142   */\n      0x20\n        /* \"#utility.yul\":20129:20138   */\n      dup3\n        /* \"#utility.yul\":20125:20143   */\n      add\n        /* \"#utility.yul\":20117:20143   */\n      swap1\n      pop\n        /* \"#utility.yul\":20189:20198   */\n      dup2\n        /* \"#utility.yul\":20183:20187   */\n      dup2\n        /* \"#utility.yul\":20179:20199   */\n      sub\n        /* \"#utility.yul\":20175:20176   */\n      0x00\n        /* \"#utility.yul\":20164:20173   */\n      dup4\n        /* \"#utility.yul\":20160:20177   */\n      add\n        /* \"#utility.yul\":20153:20200   */\n      mstore\n        /* \"#utility.yul\":20217:20348   */\n      tag_371\n        /* \"#utility.yul\":20343:20347   */\n      dup2\n        /* \"#utility.yul\":20217:20348   */\n      tag_161\n      jump\t// in\n    tag_371:\n        /* \"#utility.yul\":20209:20348   */\n      swap1\n      pop\n        /* \"#utility.yul\":19936:20355   */\n      swap2\n      swap1\n      pop\n      jump\t// out\n\n    auxdata: 0xa26469706673582212205b175b5266f7147cb625b6ffbd0f43b96d767a857aafa0b6ad2b13a9e83e864364736f6c63430008180033\n}\n",
				"bytecode": {
					"linkReferences": {},
					"object": "610fca610053600b82828239805160001a607314610046577f4e487b7100000000000000000000000000000000000000000000000000000000600052600060045260246000fd5b30600052607381538281f3fe73000000000000000000000000000000000000000030146080604052600436106100355760003560e01c8063b29a12271461003a575b600080fd5b610054600480360381019061004f91906105f5565b61006b565b604051610062929190610902565b60405180910390f35b6000606060008484600081811061008557610084610932565b5b90506020028101906100979190610970565b906100a291906109eb565b90506000858560018181106100ba576100b9610932565b5b90506020028101906100cc9190610970565b8101906100d99190610bb4565b9050600a815111156101235780516040517f8bc593cd00000000000000000000000000000000000000000000000000000000815260040161011a9190610c0c565b60405180910390fd5b6000815167ffffffffffffffff8111156101405761013f610a4a565b5b60405190808252806020026020018201604052801561017957816020015b61016661052b565b81526020019060019003908161015e5790505b5090506000805b83518110156105195761019161052b565b60008583815181106101a6576101a5610932565b5b602002602001015103610251576000816000019060ff16908160ff1681525050898960028181106101da576101d9610932565b5b90506020028101906101ec9190610970565b84906020866101fb9190610c56565b9261020893929190610c94565b8101906102159190610d0d565b816040019073ffffffffffffffffffffffffffffffffffffffff16908173ffffffffffffffffffffffffffffffffffffffff16815250506104dd565b600185838151811061026657610265610932565b5b6020026020010151036102e3576001816000019060ff16908160ff16815250508989600281811061029a57610299610932565b5b90506020028101906102ac9190610970565b84906020866102bb9190610c56565b926102c893929190610c94565b8101906102d59190610d3a565b8160600181815250506104dc565b60028583815181106102f8576102f7610932565b5b602002602001015103610375576002816000019060ff16908160ff16815250508989600281811061032c5761032b610932565b5b905060200281019061033e9190610970565b849060208661034d9190610c56565b9261035a93929190610c94565b8101906103679190610d93565b8160800181815250506104db565b600385838151811061038a57610389610932565b5b60200260200101510361040d576003816000019060ff16908160ff1681525050898960028181106103be576103bd610932565b5b90506020028101906103d09190610970565b84906020866103df9190610c56565b926103ec93929190610c94565b8101906103f99190610dec565b8160a00190151590811515815250506104da565b600485838151811061042257610421610932565b5b60200260200101510361049e576004816000019060ff16908160ff16815250508989600281811061045657610455610932565b5b90506020028101906104689190610970565b84906020866104779190610c56565b9261048493929190610c94565b8101906104919190610ece565b81602001819052506104d9565b6040517fa8c278dd0000000000000000000000000000000000000000000000000000000081526004016104d090610f74565b60405180910390fd5b5b5b5b5b808483815181106104f1576104f0610932565b5b60200260200101819052506020836105099190610c56565b9250508080600101915050610180565b50838295509550505050509250929050565b6040518060c00160405280600060ff16815260200160608152602001600073ffffffffffffffffffffffffffffffffffffffff16815260200160008152602001600081526020016000151581525090565b6000604051905090565b600080fd5b600080fd5b600080fd5b600080fd5b600080fd5b60008083601f8401126105b5576105b4610590565b5b8235905067ffffffffffffffff8111156105d2576105d1610595565b5b6020830191508360208202830111156105ee576105ed61059a565b5b9250929050565b6000806020838503121561060c5761060b610586565b5b600083013567ffffffffffffffff81111561062a5761062961058b565b5b6106368582860161059f565b92509250509250929050565b60007fffffffff0000000000000000000000000000000000000000000000000000000082169050919050565b61067781610642565b82525050565b600081519050919050565b600082825260208201905092915050565b6000819050602082019050919050565b600060ff82169050919050565b6106bf816106a9565b82525050565b600081519050919050565b600082825260208201905092915050565b60005b838110156106ff5780820151818401526020810190506106e4565b60008484015250505050565b6000601f19601f8301169050919050565b6000610727826106c5565b61073181856106d0565b93506107418185602086016106e1565b61074a8161070b565b840191505092915050565b600073ffffffffffffffffffffffffffffffffffffffff82169050919050565b600061078082610755565b9050919050565b61079081610775565b82525050565b6000819050919050565b6107a981610796565b82525050565b6000819050919050565b6107c2816107af565b82525050565b60008115159050919050565b6107dd816107c8565b82525050565b600060c0830160008301516107fb60008601826106b6565b5060208301518482036020860152610813828261071c565b91505060408301516108286040860182610787565b50606083015161083b60608601826107a0565b50608083015161084e60808601826107b9565b5060a083015161086160a08601826107d4565b508091505092915050565b600061087883836107e3565b905092915050565b6000602082019050919050565b60006108988261067d565b6108a28185610688565b9350836020820285016108b485610699565b8060005b858110156108f057848403895281516108d1858261086c565b94506108dc83610880565b925060208a019950506001810190506108b8565b50829750879550505050505092915050565b6000604082019050610917600083018561066e565b8181036020830152610929818461088d565b90509392505050565b7f4e487b7100000000000000000000000000000000000000000000000000000000600052603260045260246000fd5b600080fd5b600080fd5b600080fd5b6000808335600160200384360303811261098d5761098c610961565b5b80840192508235915067ffffffffffffffff8211156109af576109ae610966565b5b6020830192506001820236038313156109cb576109ca61096b565b5b509250929050565b600082905092915050565b600082821b905092915050565b60006109f783836109d3565b82610a028135610642565b92506004821015610a4257610a3d7fffffffff00000000000000000000000000000000000000000000000000000000836004036008026109de565b831692505b505092915050565b7f4e487b7100000000000000000000000000000000000000000000000000000000600052604160045260246000fd5b610a828261070b565b810181811067ffffffffffffffff82111715610aa157610aa0610a4a565b5b80604052505050565b6000610ab461057c565b9050610ac08282610a79565b919050565b600067ffffffffffffffff821115610ae057610adf610a4a565b5b602082029050602081019050919050565b610afa81610796565b8114610b0557600080fd5b50565b600081359050610b1781610af1565b92915050565b6000610b30610b2b84610ac5565b610aaa565b90508083825260208201905060208402830185811115610b5357610b5261059a565b5b835b81811015610b7c5780610b688882610b08565b845260208401935050602081019050610b55565b5050509392505050565b600082601f830112610b9b57610b9a610590565b5b8135610bab848260208601610b1d565b91505092915050565b600060208284031215610bca57610bc9610586565b5b600082013567ffffffffffffffff811115610be857610be761058b565b5b610bf484828501610b86565b91505092915050565b610c0681610796565b82525050565b6000602082019050610c216000830184610bfd565b92915050565b7f4e487b7100000000000000000000000000000000000000000000000000000000600052601160045260246000fd5b6000610c6182610796565b9150610c6c83610796565b9250828201905080821115610c8457610c83610c27565b5b92915050565b600080fd5b600080fd5b60008085851115610ca857610ca7610c8a565b5b83861115610cb957610cb8610c8f565b5b6001850283019150848603905094509492505050565b6000610cda82610755565b9050919050565b610cea81610ccf565b8114610cf557600080fd5b50565b600081359050610d0781610ce1565b92915050565b600060208284031215610d2357610d22610586565b5b6000610d3184828501610cf8565b91505092915050565b600060208284031215610d5057610d4f610586565b5b6000610d5e84828501610b08565b91505092915050565b610d70816107af565b8114610d7b57600080fd5b50565b600081359050610d8d81610d67565b92915050565b600060208284031215610da957610da8610586565b5b6000610db784828501610d7e565b91505092915050565b610dc9816107c8565b8114610dd457600080fd5b50565b600081359050610de681610dc0565b92915050565b600060208284031215610e0257610e01610586565b5b6000610e1084828501610dd7565b91505092915050565b600080fd5b600067ffffffffffffffff821115610e3957610e38610a4a565b5b610e428261070b565b9050602081019050919050565b82818337600083830152505050565b6000610e71610e6c84610e1e565b610aaa565b905082815260208101848484011115610e8d57610e8c610e19565b5b610e98848285610e4f565b509392505050565b600082601f830112610eb557610eb4610590565b5b8135610ec5848260208601610e5e565b91505092915050565b600060208284031215610ee457610ee3610586565b5b600082013567ffffffffffffffff811115610f0257610f0161058b565b5b610f0e84828501610ea0565b91505092915050565b600082825260208201905092915050565b7f646174614465636f646572000000000000000000000000000000000000000000600082015250565b6000610f5e600b83610f17565b9150610f6982610f28565b602082019050919050565b60006020820190508181036000830152610f8d81610f51565b905091905056fea26469706673582212205b175b5266f7147cb625b6ffbd0f43b96d767a857aafa0b6ad2b13a9e83e864364736f6c63430008180033",
					"opcodes": "PUSH2 0xFCA PUSH2 0x53 PUSH1 0xB DUP3 DUP3 DUP3 CODECOPY DUP1 MLOAD PUSH1 0x0 BYTE PUSH1 0x73 EQ PUSH2 0x46 JUMPI PUSH32 0x4E487B7100000000000000000000000000000000000000000000000000000000 PUSH1 0x0 MSTORE PUSH1 0x0 PUSH1 0x4 MSTORE PUSH1 0x24 PUSH1 0x0 REVERT JUMPDEST ADDRESS PUSH1 0x0 MSTORE PUSH1 0x73 DUP2 MSTORE8 DUP3 DUP2 RETURN INVALID PUSH20 0x0 ADDRESS EQ PUSH1 0x80 PUSH1 0x40 MSTORE PUSH1 0x4 CALLDATASIZE LT PUSH2 0x35 JUMPI PUSH1 0x0 CALLDATALOAD PUSH1 0xE0 SHR DUP1 PUSH4 0xB29A1227 EQ PUSH2 0x3A JUMPI JUMPDEST PUSH1 0x0 DUP1 REVERT JUMPDEST PUSH2 0x54 PUSH1 0x4 DUP1 CALLDATASIZE SUB DUP2 ADD SWAP1 PUSH2 0x4F SWAP2 SWAP1 PUSH2 0x5F5 JUMP JUMPDEST PUSH2 0x6B JUMP JUMPDEST PUSH1 0x40 MLOAD PUSH2 0x62 SWAP3 SWAP2 SWAP1 PUSH2 0x902 JUMP JUMPDEST PUSH1 0x40 MLOAD DUP1 SWAP2 SUB SWAP1 RETURN JUMPDEST PUSH1 0x0 PUSH1 0x60 PUSH1 0x0 DUP5 DUP5 PUSH1 0x0 DUP2 DUP2 LT PUSH2 0x85 JUMPI PUSH2 0x84 PUSH2 0x932 JUMP JUMPDEST JUMPDEST SWAP1 POP PUSH1 0x20 MUL DUP2 ADD SWAP1 PUSH2 0x97 SWAP2 SWAP1 PUSH2 0x970 JUMP JUMPDEST SWAP1 PUSH2 0xA2 SWAP2 SWAP1 PUSH2 0x9EB JUMP JUMPDEST SWAP1 POP PUSH1 0x0 DUP6 DUP6 PUSH1 0x1 DUP2 DUP2 LT PUSH2 0xBA JUMPI PUSH2 0xB9 PUSH2 0x932 JUMP JUMPDEST JUMPDEST SWAP1 POP PUSH1 0x20 MUL DUP2 ADD SWAP1 PUSH2 0xCC SWAP2 SWAP1 PUSH2 0x970 JUMP JUMPDEST DUP2 ADD SWAP1 PUSH2 0xD9 SWAP2 SWAP1 PUSH2 0xBB4 JUMP JUMPDEST SWAP1 POP PUSH1 0xA DUP2 MLOAD GT ISZERO PUSH2 0x123 JUMPI DUP1 MLOAD PUSH1 0x40 MLOAD PUSH32 0x8BC593CD00000000000000000000000000000000000000000000000000000000 DUP2 MSTORE PUSH1 0x4 ADD PUSH2 0x11A SWAP2 SWAP1 PUSH2 0xC0C JUMP JUMPDEST PUSH1 0x40 MLOAD DUP1 SWAP2 SUB SWAP1 REVERT JUMPDEST PUSH1 0x0 DUP2 MLOAD PUSH8 0xFFFFFFFFFFFFFFFF DUP2 GT ISZERO PUSH2 0x140 JUMPI PUSH2 0x13F PUSH2 0xA4A JUMP JUMPDEST JUMPDEST PUSH1 0x40 MLOAD SWAP1 DUP1 DUP3 MSTORE DUP1 PUSH1 0x20 MUL PUSH1 0x20 ADD DUP3 ADD PUSH1 0x40 MSTORE DUP1 ISZERO PUSH2 0x179 JUMPI DUP2 PUSH1 0x20 ADD JUMPDEST PUSH2 0x166 PUSH2 0x52B JUMP JUMPDEST DUP2 MSTORE PUSH1 0x20 ADD SWAP1 PUSH1 0x1 SWAP1 SUB SWAP1 DUP2 PUSH2 0x15E JUMPI SWAP1 POP JUMPDEST POP SWAP1 POP PUSH1 0x0 DUP1 JUMPDEST DUP4 MLOAD DUP2 LT ISZERO PUSH2 0x519 JUMPI PUSH2 0x191 PUSH2 0x52B JUMP JUMPDEST PUSH1 0x0 DUP6 DUP4 DUP2 MLOAD DUP2 LT PUSH2 0x1A6 JUMPI PUSH2 0x1A5 PUSH2 0x932 JUMP JUMPDEST JUMPDEST PUSH1 0x20 MUL PUSH1 0x20 ADD ADD MLOAD SUB PUSH2 0x251 JUMPI PUSH1 0x0 DUP2 PUSH1 0x0 ADD SWAP1 PUSH1 0xFF AND SWAP1 DUP2 PUSH1 0xFF AND DUP2 MSTORE POP POP DUP10 DUP10 PUSH1 0x2 DUP2 DUP2 LT PUSH2 0x1DA JUMPI PUSH2 0x1D9 PUSH2 0x932 JUMP JUMPDEST JUMPDEST SWAP1 POP PUSH1 0x20 MUL DUP2 ADD SWAP1 PUSH2 0x1EC SWAP2 SWAP1 PUSH2 0x970 JUMP JUMPDEST DUP5 SWAP1 PUSH1 0x20 DUP7 PUSH2 0x1FB SWAP2 SWAP1 PUSH2 0xC56 JUMP JUMPDEST SWAP3 PUSH2 0x208 SWAP4 SWAP3 SWAP2 SWAP1 PUSH2 0xC94 JUMP JUMPDEST DUP2 ADD SWAP1 PUSH2 0x215 SWAP2 SWAP1 PUSH2 0xD0D JUMP JUMPDEST DUP2 PUSH1 0x40 ADD SWAP1 PUSH20 0xFFFFFFFFFFFFFFFFFFFFFFFFFFFFFFFFFFFFFFFF AND SWAP1 DUP2 PUSH20 0xFFFFFFFFFFFFFFFFFFFFFFFFFFFFFFFFFFFFFFFF AND DUP2 MSTORE POP POP PUSH2 0x4DD JUMP JUMPDEST PUSH1 0x1 DUP6 DUP4 DUP2 MLOAD DUP2 LT PUSH2 0x266 JUMPI PUSH2 0x265 PUSH2 0x932 JUMP JUMPDEST JUMPDEST PUSH1 0x20 MUL PUSH1 0x20 ADD ADD MLOAD SUB PUSH2 0x2E3 JUMPI PUSH1 0x1 DUP2 PUSH1 0x0 ADD SWAP1 PUSH1 0xFF AND SWAP1 DUP2 PUSH1 0xFF AND DUP2 MSTORE POP POP DUP10 DUP10 PUSH1 0x2 DUP2 DUP2 LT PUSH2 0x29A JUMPI PUSH2 0x299 PUSH2 0x932 JUMP JUMPDEST JUMPDEST SWAP1 POP PUSH1 0x20 MUL DUP2 ADD SWAP1 PUSH2 0x2AC SWAP2 SWAP1 PUSH2 0x970 JUMP JUMPDEST DUP5 SWAP1 PUSH1 0x20 DUP7 PUSH2 0x2BB SWAP2 SWAP1 PUSH2 0xC56 JUMP JUMPDEST SWAP3 PUSH2 0x2C8 SWAP4 SWAP3 SWAP2 SWAP1 PUSH2 0xC94 JUMP JUMPDEST DUP2 ADD SWAP1 PUSH2 0x2D5 SWAP2 SWAP1 PUSH2 0xD3A JUMP JUMPDEST DUP2 PUSH1 0x60 ADD DUP2 DUP2 MSTORE POP POP PUSH2 0x4DC JUMP JUMPDEST PUSH1 0x2 DUP6 DUP4 DUP2 MLOAD DUP2 LT PUSH2 0x2F8 JUMPI PUSH2 0x2F7 PUSH2 0x932 JUMP JUMPDEST JUMPDEST PUSH1 0x20 MUL PUSH1 0x20 ADD ADD MLOAD SUB PUSH2 0x375 JUMPI PUSH1 0x2 DUP2 PUSH1 0x0 ADD SWAP1 PUSH1 0xFF AND SWAP1 DUP2 PUSH1 0xFF AND DUP2 MSTORE POP POP DUP10 DUP10 PUSH1 0x2 DUP2 DUP2 LT PUSH2 0x32C JUMPI PUSH2 0x32B PUSH2 0x932 JUMP JUMPDEST JUMPDEST SWAP1 POP PUSH1 0x20 MUL DUP2 ADD SWAP1 PUSH2 0x33E SWAP2 SWAP1 PUSH2 0x970 JUMP JUMPDEST DUP5 SWAP1 PUSH1 0x20 DUP7 PUSH2 0x34D SWAP2 SWAP1 PUSH2 0xC56 JUMP JUMPDEST SWAP3 PUSH2 0x35A SWAP4 SWAP3 SWAP2 SWAP1 PUSH2 0xC94 JUMP JUMPDEST DUP2 ADD SWAP1 PUSH2 0x367 SWAP2 SWAP1 PUSH2 0xD93 JUMP JUMPDEST DUP2 PUSH1 0x80 ADD DUP2 DUP2 MSTORE POP POP PUSH2 0x4DB JUMP JUMPDEST PUSH1 0x3 DUP6 DUP4 DUP2 MLOAD DUP2 LT PUSH2 0x38A JUMPI PUSH2 0x389 PUSH2 0x932 JUMP JUMPDEST JUMPDEST PUSH1 0x20 MUL PUSH1 0x20 ADD ADD MLOAD SUB PUSH2 0x40D JUMPI PUSH1 0x3 DUP2 PUSH1 0x0 ADD SWAP1 PUSH1 0xFF AND SWAP1 DUP2 PUSH1 0xFF AND DUP2 MSTORE POP POP DUP10 DUP10 PUSH1 0x2 DUP2 DUP2 LT PUSH2 0x3BE JUMPI PUSH2 0x3BD PUSH2 0x932 JUMP JUMPDEST JUMPDEST SWAP1 POP PUSH1 0x20 MUL DUP2 ADD SWAP1 PUSH2 0x3D0 SWAP2 SWAP1 PUSH2 0x970 JUMP JUMPDEST DUP5 SWAP1 PUSH1 0x20 DUP7 PUSH2 0x3DF SWAP2 SWAP1 PUSH2 0xC56 JUMP JUMPDEST SWAP3 PUSH2 0x3EC SWAP4 SWAP3 SWAP2 SWAP1 PUSH2 0xC94 JUMP JUMPDEST DUP2 ADD SWAP1 PUSH2 0x3F9 SWAP2 SWAP1 PUSH2 0xDEC JUMP JUMPDEST DUP2 PUSH1 0xA0 ADD SWAP1 ISZERO ISZERO SWAP1 DUP2 ISZERO ISZERO DUP2 MSTORE POP POP PUSH2 0x4DA JUMP JUMPDEST PUSH1 0x4 DUP6 DUP4 DUP2 MLOAD DUP2 LT PUSH2 0x422 JUMPI PUSH2 0x421 PUSH2 0x932 JUMP JUMPDEST JUMPDEST PUSH1 0x20 MUL PUSH1 0x20 ADD ADD MLOAD SUB PUSH2 0x49E JUMPI PUSH1 0x4 DUP2 PUSH1 0x0 ADD SWAP1 PUSH1 0xFF AND SWAP1 DUP2 PUSH1 0xFF AND DUP2 MSTORE POP POP DUP10 DUP10 PUSH1 0x2 DUP2 DUP2 LT PUSH2 0x456 JUMPI PUSH2 0x455 PUSH2 0x932 JUMP JUMPDEST JUMPDEST SWAP1 POP PUSH1 0x20 MUL DUP2 ADD SWAP1 PUSH2 0x468 SWAP2 SWAP1 PUSH2 0x970 JUMP JUMPDEST DUP5 SWAP1 PUSH1 0x20 DUP7 PUSH2 0x477 SWAP2 SWAP1 PUSH2 0xC56 JUMP JUMPDEST SWAP3 PUSH2 0x484 SWAP4 SWAP3 SWAP2 SWAP1 PUSH2 0xC94 JUMP JUMPDEST DUP2 ADD SWAP1 PUSH2 0x491 SWAP2 SWAP1 PUSH2 0xECE JUMP JUMPDEST DUP2 PUSH1 0x20 ADD DUP2 SWAP1 MSTORE POP PUSH2 0x4D9 JUMP JUMPDEST PUSH1 0x40 MLOAD PUSH32 0xA8C278DD00000000000000000000000000000000000000000000000000000000 DUP2 MSTORE PUSH1 0x4 ADD PUSH2 0x4D0 SWAP1 PUSH2 0xF74 JUMP JUMPDEST PUSH1 0x40 MLOAD DUP1 SWAP2 SUB SWAP1 REVERT JUMPDEST JUMPDEST JUMPDEST JUMPDEST JUMPDEST DUP1 DUP5 DUP4 DUP2 MLOAD DUP2 LT PUSH2 0x4F1 JUMPI PUSH2 0x4F0 PUSH2 0x932 JUMP JUMPDEST JUMPDEST PUSH1 0x20 MUL PUSH1 0x20 ADD ADD DUP2 SWAP1 MSTORE POP PUSH1 0x20 DUP4 PUSH2 0x509 SWAP2 SWAP1 PUSH2 0xC56 JUMP JUMPDEST SWAP3 POP POP DUP1 DUP1 PUSH1 0x1 ADD SWAP2 POP POP PUSH2 0x180 JUMP JUMPDEST POP DUP4 DUP3 SWAP6 POP SWAP6 POP POP POP POP POP SWAP3 POP SWAP3 SWAP1 POP JUMP JUMPDEST PUSH1 0x40 MLOAD DUP1 PUSH1 0xC0 ADD PUSH1 0x40 MSTORE DUP1 PUSH1 0x0 PUSH1 0xFF AND DUP2 MSTORE PUSH1 0x20 ADD PUSH1 0x60 DUP2 MSTORE PUSH1 0x20 ADD PUSH1 0x0 PUSH20 0xFFFFFFFFFFFFFFFFFFFFFFFFFFFFFFFFFFFFFFFF AND DUP2 MSTORE PUSH1 0x20 ADD PUSH1 0x0 DUP2 MSTORE PUSH1 0x20 ADD PUSH1 0x0 DUP2 MSTORE PUSH1 0x20 ADD PUSH1 0x0 ISZERO ISZERO DUP2 MSTORE POP SWAP1 JUMP JUMPDEST PUSH1 0x0 PUSH1 0x40 MLOAD SWAP1 POP SWAP1 JUMP JUMPDEST PUSH1 0x0 DUP1 REVERT JUMPDEST PUSH1 0x0 DUP1 REVERT JUMPDEST PUSH1 0x0 DUP1 REVERT JUMPDEST PUSH1 0x0 DUP1 REVERT JUMPDEST PUSH1 0x0 DUP1 REVERT JUMPDEST PUSH1 0x0 DUP1 DUP4 PUSH1 0x1F DUP5 ADD SLT PUSH2 0x5B5 JUMPI PUSH2 0x5B4 PUSH2 0x590 JUMP JUMPDEST JUMPDEST DUP3 CALLDATALOAD SWAP1 POP PUSH8 0xFFFFFFFFFFFFFFFF DUP2 GT ISZERO PUSH2 0x5D2 JUMPI PUSH2 0x5D1 PUSH2 0x595 JUMP JUMPDEST JUMPDEST PUSH1 0x20 DUP4 ADD SWAP2 POP DUP4 PUSH1 0x20 DUP3 MUL DUP4 ADD GT ISZERO PUSH2 0x5EE JUMPI PUSH2 0x5ED PUSH2 0x59A JUMP JUMPDEST JUMPDEST SWAP3 POP SWAP3 SWAP1 POP JUMP JUMPDEST PUSH1 0x0 DUP1 PUSH1 0x20 DUP4 DUP6 SUB SLT ISZERO PUSH2 0x60C JUMPI PUSH2 0x60B PUSH2 0x586 JUMP JUMPDEST JUMPDEST PUSH1 0x0 DUP4 ADD CALLDATALOAD PUSH8 0xFFFFFFFFFFFFFFFF DUP2 GT ISZERO PUSH2 0x62A JUMPI PUSH2 0x629 PUSH2 0x58B JUMP JUMPDEST JUMPDEST PUSH2 0x636 DUP6 DUP3 DUP7 ADD PUSH2 0x59F JUMP JUMPDEST SWAP3 POP SWAP3 POP POP SWAP3 POP SWAP3 SWAP1 POP JUMP JUMPDEST PUSH1 0x0 PUSH32 0xFFFFFFFF00000000000000000000000000000000000000000000000000000000 DUP3 AND SWAP1 POP SWAP2 SWAP1 POP JUMP JUMPDEST PUSH2 0x677 DUP2 PUSH2 0x642 JUMP JUMPDEST DUP3 MSTORE POP POP JUMP JUMPDEST PUSH1 0x0 DUP2 MLOAD SWAP1 POP SWAP2 SWAP1 POP JUMP JUMPDEST PUSH1 0x0 DUP3 DUP3 MSTORE PUSH1 0x20 DUP3 ADD SWAP1 POP SWAP3 SWAP2 POP POP JUMP JUMPDEST PUSH1 0x0 DUP2 SWAP1 POP PUSH1 0x20 DUP3 ADD SWAP1 POP SWAP2 SWAP1 POP JUMP JUMPDEST PUSH1 0x0 PUSH1 0xFF DUP3 AND SWAP1 POP SWAP2 SWAP1 POP JUMP JUMPDEST PUSH2 0x6BF DUP2 PUSH2 0x6A9 JUMP JUMPDEST DUP3 MSTORE POP POP JUMP JUMPDEST PUSH1 0x0 DUP2 MLOAD SWAP1 POP SWAP2 SWAP1 POP JUMP JUMPDEST PUSH1 0x0 DUP3 DUP3 MSTORE PUSH1 0x20 DUP3 ADD SWAP1 POP SWAP3 SWAP2 POP POP JUMP JUMPDEST PUSH1 0x0 JUMPDEST DUP4 DUP2 LT ISZERO PUSH2 0x6FF JUMPI DUP1 DUP3 ADD MLOAD DUP2 DUP5 ADD MSTORE PUSH1 0x20 DUP2 ADD SWAP1 POP PUSH2 0x6E4 JUMP JUMPDEST PUSH1 0x0 DUP5 DUP5 ADD MSTORE POP POP POP POP JUMP JUMPDEST PUSH1 0x0 PUSH1 0x1F NOT PUSH1 0x1F DUP4 ADD AND SWAP1 POP SWAP2 SWAP1 POP JUMP JUMPDEST PUSH1 0x0 PUSH2 0x727 DUP3 PUSH2 0x6C5 JUMP JUMPDEST PUSH2 0x731 DUP2 DUP6 PUSH2 0x6D0 JUMP JUMPDEST SWAP4 POP PUSH2 0x741 DUP2 DUP6 PUSH1 0x20 DUP7 ADD PUSH2 0x6E1 JUMP JUMPDEST PUSH2 0x74A DUP2 PUSH2 0x70B JUMP JUMPDEST DUP5 ADD SWAP2 POP POP SWAP3 SWAP2 POP POP JUMP JUMPDEST PUSH1 0x0 PUSH20 0xFFFFFFFFFFFFFFFFFFFFFFFFFFFFFFFFFFFFFFFF DUP3 AND SWAP1 POP SWAP2 SWAP1 POP JUMP JUMPDEST PUSH1 0x0 PUSH2 0x780 DUP3 PUSH2 0x755 JUMP JUMPDEST SWAP1 POP SWAP2 SWAP1 POP JUMP JUMPDEST PUSH2 0x790 DUP2 PUSH2 0x775 JUMP JUMPDEST DUP3 MSTORE POP POP JUMP JUMPDEST PUSH1 0x0 DUP2 SWAP1 POP SWAP2 SWAP1 POP JUMP JUMPDEST PUSH2 0x7A9 DUP2 PUSH2 0x796 JUMP JUMPDEST DUP3 MSTORE POP POP JUMP JUMPDEST PUSH1 0x0 DUP2 SWAP1 POP SWAP2 SWAP1 POP JUMP JUMPDEST PUSH2 0x7C2 DUP2 PUSH2 0x7AF JUMP JUMPDEST DUP3 MSTORE POP POP JUMP JUMPDEST PUSH1 0x0 DUP2 ISZERO ISZERO SWAP1 POP SWAP2 SWAP1 POP JUMP JUMPDEST PUSH2 0x7DD DUP2 PUSH2 0x7C8 JUMP JUMPDEST DUP3 MSTORE POP POP JUMP JUMPDEST PUSH1 0x0 PUSH1 0xC0 DUP4 ADD PUSH1 0x0 DUP4 ADD MLOAD PUSH2 0x7FB PUSH1 0x0 DUP7 ADD DUP3 PUSH2 0x6B6 JUMP JUMPDEST POP PUSH1 0x20 DUP4 ADD MLOAD DUP5 DUP3 SUB PUSH1 0x20 DUP7 ADD MSTORE PUSH2 0x813 DUP3 DUP3 PUSH2 0x71C JUMP JUMPDEST SWAP2 POP POP PUSH1 0x40 DUP4 ADD MLOAD PUSH2 0x828 PUSH1 0x40 DUP7 ADD DUP3 PUSH2 0x787 JUMP JUMPDEST POP PUSH1 0x60 DUP4 ADD MLOAD PUSH2 0x83B PUSH1 0x60 DUP7 ADD DUP3 PUSH2 0x7A0 JUMP JUMPDEST POP PUSH1 0x80 DUP4 ADD MLOAD PUSH2 0x84E PUSH1 0x80 DUP7 ADD DUP3 PUSH2 0x7B9 JUMP JUMPDEST POP PUSH1 0xA0 DUP4 ADD MLOAD PUSH2 0x861 PUSH1 0xA0 DUP7 ADD DUP3 PUSH2 0x7D4 JUMP JUMPDEST POP DUP1 SWAP2 POP POP SWAP3 SWAP2 POP POP JUMP JUMPDEST PUSH1 0x0 PUSH2 0x878 DUP4 DUP4 PUSH2 0x7E3 JUMP JUMPDEST SWAP1 POP SWAP3 SWAP2 POP POP JUMP JUMPDEST PUSH1 0x0 PUSH1 0x20 DUP3 ADD SWAP1 POP SWAP2 SWAP1 POP JUMP JUMPDEST PUSH1 0x0 PUSH2 0x898 DUP3 PUSH2 0x67D JUMP JUMPDEST PUSH2 0x8A2 DUP2 DUP6 PUSH2 0x688 JUMP JUMPDEST SWAP4 POP DUP4 PUSH1 0x20 DUP3 MUL DUP6 ADD PUSH2 0x8B4 DUP6 PUSH2 0x699 JUMP JUMPDEST DUP1 PUSH1 0x0 JUMPDEST DUP6 DUP2 LT ISZERO PUSH2 0x8F0 JUMPI DUP5 DUP5 SUB DUP10 MSTORE DUP2 MLOAD PUSH2 0x8D1 DUP6 DUP3 PUSH2 0x86C JUMP JUMPDEST SWAP5 POP PUSH2 0x8DC DUP4 PUSH2 0x880 JUMP JUMPDEST SWAP3 POP PUSH1 0x20 DUP11 ADD SWAP10 POP POP PUSH1 0x1 DUP2 ADD SWAP1 POP PUSH2 0x8B8 JUMP JUMPDEST POP DUP3 SWAP8 POP DUP8 SWAP6 POP POP POP POP POP POP SWAP3 SWAP2 POP POP JUMP JUMPDEST PUSH1 0x0 PUSH1 0x40 DUP3 ADD SWAP1 POP PUSH2 0x917 PUSH1 0x0 DUP4 ADD DUP6 PUSH2 0x66E JUMP JUMPDEST DUP2 DUP2 SUB PUSH1 0x20 DUP4 ADD MSTORE PUSH2 0x929 DUP2 DUP5 PUSH2 0x88D JUMP JUMPDEST SWAP1 POP SWAP4 SWAP3 POP POP POP JUMP JUMPDEST PUSH32 0x4E487B7100000000000000000000000000000000000000000000000000000000 PUSH1 0x0 MSTORE PUSH1 0x32 PUSH1 0x4 MSTORE PUSH1 0x24 PUSH1 0x0 REVERT JUMPDEST PUSH1 0x0 DUP1 REVERT JUMPDEST PUSH1 0x0 DUP1 REVERT JUMPDEST PUSH1 0x0 DUP1 REVERT JUMPDEST PUSH1 0x0 DUP1 DUP4 CALLDATALOAD PUSH1 0x1 PUSH1 0x20 SUB DUP5 CALLDATASIZE SUB SUB DUP2 SLT PUSH2 0x98D JUMPI PUSH2 0x98C PUSH2 0x961 JUMP JUMPDEST JUMPDEST DUP1 DUP5 ADD SWAP3 POP DUP3 CALLDATALOAD SWAP2 POP PUSH8 0xFFFFFFFFFFFFFFFF DUP3 GT ISZERO PUSH2 0x9AF JUMPI PUSH2 0x9AE PUSH2 0x966 JUMP JUMPDEST JUMPDEST PUSH1 0x20 DUP4 ADD SWAP3 POP PUSH1 0x1 DUP3 MUL CALLDATASIZE SUB DUP4 SGT ISZERO PUSH2 0x9CB JUMPI PUSH2 0x9CA PUSH2 0x96B JUMP JUMPDEST JUMPDEST POP SWAP3 POP SWAP3 SWAP1 POP JUMP JUMPDEST PUSH1 0x0 DUP3 SWAP1 POP SWAP3 SWAP2 POP POP JUMP JUMPDEST PUSH1 0x0 DUP3 DUP3 SHL SWAP1 POP SWAP3 SWAP2 POP POP JUMP JUMPDEST PUSH1 0x0 PUSH2 0x9F7 DUP4 DUP4 PUSH2 0x9D3 JUMP JUMPDEST DUP3 PUSH2 0xA02 DUP2 CALLDATALOAD PUSH2 0x642 JUMP JUMPDEST SWAP3 POP PUSH1 0x4 DUP3 LT ISZERO PUSH2 0xA42 JUMPI PUSH2 0xA3D PUSH32 0xFFFFFFFF00000000000000000000000000000000000000000000000000000000 DUP4 PUSH1 0x4 SUB PUSH1 0x8 MUL PUSH2 0x9DE JUMP JUMPDEST DUP4 AND SWAP3 POP JUMPDEST POP POP SWAP3 SWAP2 POP POP JUMP JUMPDEST PUSH32 0x4E487B7100000000000000000000000000000000000000000000000000000000 PUSH1 0x0 MSTORE PUSH1 0x41 PUSH1 0x4 MSTORE PUSH1 0x24 PUSH1 0x0 REVERT JUMPDEST PUSH2 0xA82 DUP3 PUSH2 0x70B JUMP JUMPDEST DUP2 ADD DUP2 DUP2 LT PUSH8 0xFFFFFFFFFFFFFFFF DUP3 GT OR ISZERO PUSH2 0xAA1 JUMPI PUSH2 0xAA0 PUSH2 0xA4A JUMP JUMPDEST JUMPDEST DUP1 PUSH1 0x40 MSTORE POP POP POP JUMP JUMPDEST PUSH1 0x0 PUSH2 0xAB4 PUSH2 0x57C JUMP JUMPDEST SWAP1 POP PUSH2 0xAC0 DUP3 DUP3 PUSH2 0xA79 JUMP JUMPDEST SWAP2 SWAP1 POP JUMP JUMPDEST PUSH1 0x0 PUSH8 0xFFFFFFFFFFFFFFFF DUP3 GT ISZERO PUSH2 0xAE0 JUMPI PUSH2 0xADF PUSH2 0xA4A JUMP JUMPDEST JUMPDEST PUSH1 0x20 DUP3 MUL SWAP1 POP PUSH1 0x20 DUP2 ADD SWAP1 POP SWAP2 SWAP1 POP JUMP JUMPDEST PUSH2 0xAFA DUP2 PUSH2 0x796 JUMP JUMPDEST DUP2 EQ PUSH2 0xB05 JUMPI PUSH1 0x0 DUP1 REVERT JUMPDEST POP JUMP JUMPDEST PUSH1 0x0 DUP2 CALLDATALOAD SWAP1 POP PUSH2 0xB17 DUP2 PUSH2 0xAF1 JUMP JUMPDEST SWAP3 SWAP2 POP POP JUMP JUMPDEST PUSH1 0x0 PUSH2 0xB30 PUSH2 0xB2B DUP5 PUSH2 0xAC5 JUMP JUMPDEST PUSH2 0xAAA JUMP JUMPDEST SWAP1 POP DUP1 DUP4 DUP3 MSTORE PUSH1 0x20 DUP3 ADD SWAP1 POP PUSH1 0x20 DUP5 MUL DUP4 ADD DUP6 DUP2 GT ISZERO PUSH2 0xB53 JUMPI PUSH2 0xB52 PUSH2 0x59A JUMP JUMPDEST JUMPDEST DUP4 JUMPDEST DUP2 DUP2 LT ISZERO PUSH2 0xB7C JUMPI DUP1 PUSH2 0xB68 DUP9 DUP3 PUSH2 0xB08 JUMP JUMPDEST DUP5 MSTORE PUSH1 0x20 DUP5 ADD SWAP4 POP POP PUSH1 0x20 DUP2 ADD SWAP1 POP PUSH2 0xB55 JUMP JUMPDEST POP POP POP SWAP4 SWAP3 POP POP POP JUMP JUMPDEST PUSH1 0x0 DUP3 PUSH1 0x1F DUP4 ADD SLT PUSH2 0xB9B JUMPI PUSH2 0xB9A PUSH2 0x590 JUMP JUMPDEST JUMPDEST DUP2 CALLDATALOAD PUSH2 0xBAB DUP5 DUP3 PUSH1 0x20 DUP7 ADD PUSH2 0xB1D JUMP JUMPDEST SWAP2 POP POP SWAP3 SWAP2 POP POP JUMP JUMPDEST PUSH1 0x0 PUSH1 0x20 DUP3 DUP5 SUB SLT ISZERO PUSH2 0xBCA JUMPI PUSH2 0xBC9 PUSH2 0x586 JUMP JUMPDEST JUMPDEST PUSH1 0x0 DUP3 ADD CALLDATALOAD PUSH8 0xFFFFFFFFFFFFFFFF DUP2 GT ISZERO PUSH2 0xBE8 JUMPI PUSH2 0xBE7 PUSH2 0x58B JUMP JUMPDEST JUMPDEST PUSH2 0xBF4 DUP5 DUP3 DUP6 ADD PUSH2 0xB86 JUMP JUMPDEST SWAP2 POP POP SWAP3 SWAP2 POP POP JUMP JUMPDEST PUSH2 0xC06 DUP2 PUSH2 0x796 JUMP JUMPDEST DUP3 MSTORE POP POP JUMP JUMPDEST PUSH1 0x0 PUSH1 0x20 DUP3 ADD SWAP1 POP PUSH2 0xC21 PUSH1 0x0 DUP4 ADD DUP5 PUSH2 0xBFD JUMP JUMPDEST SWAP3 SWAP2 POP POP JUMP JUMPDEST PUSH32 0x4E487B7100000000000000000000000000000000000000000000000000000000 PUSH1 0x0 MSTORE PUSH1 0x11 PUSH1 0x4 MSTORE PUSH1 0x24 PUSH1 0x0 REVERT JUMPDEST PUSH1 0x0 PUSH2 0xC61 DUP3 PUSH2 0x796 JUMP JUMPDEST SWAP2 POP PUSH2 0xC6C DUP4 PUSH2 0x796 JUMP JUMPDEST SWAP3 POP DUP3 DUP3 ADD SWAP1 POP DUP1 DUP3 GT ISZERO PUSH2 0xC84 JUMPI PUSH2 0xC83 PUSH2 0xC27 JUMP JUMPDEST JUMPDEST SWAP3 SWAP2 POP POP JUMP JUMPDEST PUSH1 0x0 DUP1 REVERT JUMPDEST PUSH1 0x0 DUP1 REVERT JUMPDEST PUSH1 0x0 DUP1 DUP6 DUP6 GT ISZERO PUSH2 0xCA8 JUMPI PUSH2 0xCA7 PUSH2 0xC8A JUMP JUMPDEST JUMPDEST DUP4 DUP7 GT ISZERO PUSH2 0xCB9 JUMPI PUSH2 0xCB8 PUSH2 0xC8F JUMP JUMPDEST JUMPDEST PUSH1 0x1 DUP6 MUL DUP4 ADD SWAP2 POP DUP5 DUP7 SUB SWAP1 POP SWAP5 POP SWAP5 SWAP3 POP POP POP JUMP JUMPDEST PUSH1 0x0 PUSH2 0xCDA DUP3 PUSH2 0x755 JUMP JUMPDEST SWAP1 POP SWAP2 SWAP1 POP JUMP JUMPDEST PUSH2 0xCEA DUP2 PUSH2 0xCCF JUMP JUMPDEST DUP2 EQ PUSH2 0xCF5 JUMPI PUSH1 0x0 DUP1 REVERT JUMPDEST POP JUMP JUMPDEST PUSH1 0x0 DUP2 CALLDATALOAD SWAP1 POP PUSH2 0xD07 DUP2 PUSH2 0xCE1 JUMP JUMPDEST SWAP3 SWAP2 POP POP JUMP JUMPDEST PUSH1 0x0 PUSH1 0x20 DUP3 DUP5 SUB SLT ISZERO PUSH2 0xD23 JUMPI PUSH2 0xD22 PUSH2 0x586 JUMP JUMPDEST JUMPDEST PUSH1 0x0 PUSH2 0xD31 DUP5 DUP3 DUP6 ADD PUSH2 0xCF8 JUMP JUMPDEST SWAP2 POP POP SWAP3 SWAP2 POP POP JUMP JUMPDEST PUSH1 0x0 PUSH1 0x20 DUP3 DUP5 SUB SLT ISZERO PUSH2 0xD50 JUMPI PUSH2 0xD4F PUSH2 0x586 JUMP JUMPDEST JUMPDEST PUSH1 0x0 PUSH2 0xD5E DUP5 DUP3 DUP6 ADD PUSH2 0xB08 JUMP JUMPDEST SWAP2 POP POP SWAP3 SWAP2 POP POP JUMP JUMPDEST PUSH2 0xD70 DUP2 PUSH2 0x7AF JUMP JUMPDEST DUP2 EQ PUSH2 0xD7B JUMPI PUSH1 0x0 DUP1 REVERT JUMPDEST POP JUMP JUMPDEST PUSH1 0x0 DUP2 CALLDATALOAD SWAP1 POP PUSH2 0xD8D DUP2 PUSH2 0xD67 JUMP JUMPDEST SWAP3 SWAP2 POP POP JUMP JUMPDEST PUSH1 0x0 PUSH1 0x20 DUP3 DUP5 SUB SLT ISZERO PUSH2 0xDA9 JUMPI PUSH2 0xDA8 PUSH2 0x586 JUMP JUMPDEST JUMPDEST PUSH1 0x0 PUSH2 0xDB7 DUP5 DUP3 DUP6 ADD PUSH2 0xD7E JUMP JUMPDEST SWAP2 POP POP SWAP3 SWAP2 POP POP JUMP JUMPDEST PUSH2 0xDC9 DUP2 PUSH2 0x7C8 JUMP JUMPDEST DUP2 EQ PUSH2 0xDD4 JUMPI PUSH1 0x0 DUP1 REVERT JUMPDEST POP JUMP JUMPDEST PUSH1 0x0 DUP2 CALLDATALOAD SWAP1 POP PUSH2 0xDE6 DUP2 PUSH2 0xDC0 JUMP JUMPDEST SWAP3 SWAP2 POP POP JUMP JUMPDEST PUSH1 0x0 PUSH1 0x20 DUP3 DUP5 SUB SLT ISZERO PUSH2 0xE02 JUMPI PUSH2 0xE01 PUSH2 0x586 JUMP JUMPDEST JUMPDEST PUSH1 0x0 PUSH2 0xE10 DUP5 DUP3 DUP6 ADD PUSH2 0xDD7 JUMP JUMPDEST SWAP2 POP POP SWAP3 SWAP2 POP POP JUMP JUMPDEST PUSH1 0x0 DUP1 REVERT JUMPDEST PUSH1 0x0 PUSH8 0xFFFFFFFFFFFFFFFF DUP3 GT ISZERO PUSH2 0xE39 JUMPI PUSH2 0xE38 PUSH2 0xA4A JUMP JUMPDEST JUMPDEST PUSH2 0xE42 DUP3 PUSH2 0x70B JUMP JUMPDEST SWAP1 POP PUSH1 0x20 DUP2 ADD SWAP1 POP SWAP2 SWAP1 POP JUMP JUMPDEST DUP3 DUP2 DUP4 CALLDATACOPY PUSH1 0x0 DUP4 DUP4 ADD MSTORE POP POP POP JUMP JUMPDEST PUSH1 0x0 PUSH2 0xE71 PUSH2 0xE6C DUP5 PUSH2 0xE1E JUMP JUMPDEST PUSH2 0xAAA JUMP JUMPDEST SWAP1 POP DUP3 DUP2 MSTORE PUSH1 0x20 DUP2 ADD DUP5 DUP5 DUP5 ADD GT ISZERO PUSH2 0xE8D JUMPI PUSH2 0xE8C PUSH2 0xE19 JUMP JUMPDEST JUMPDEST PUSH2 0xE98 DUP5 DUP3 DUP6 PUSH2 0xE4F JUMP JUMPDEST POP SWAP4 SWAP3 POP POP POP JUMP JUMPDEST PUSH1 0x0 DUP3 PUSH1 0x1F DUP4 ADD SLT PUSH2 0xEB5 JUMPI PUSH2 0xEB4 PUSH2 0x590 JUMP JUMPDEST JUMPDEST DUP2 CALLDATALOAD PUSH2 0xEC5 DUP5 DUP3 PUSH1 0x20 DUP7 ADD PUSH2 0xE5E JUMP JUMPDEST SWAP2 POP POP SWAP3 SWAP2 POP POP JUMP JUMPDEST PUSH1 0x0 PUSH1 0x20 DUP3 DUP5 SUB SLT ISZERO PUSH2 0xEE4 JUMPI PUSH2 0xEE3 PUSH2 0x586 JUMP JUMPDEST JUMPDEST PUSH1 0x0 DUP3 ADD CALLDATALOAD PUSH8 0xFFFFFFFFFFFFFFFF DUP2 GT ISZERO PUSH2 0xF02 JUMPI PUSH2 0xF01 PUSH2 0x58B JUMP JUMPDEST JUMPDEST PUSH2 0xF0E DUP5 DUP3 DUP6 ADD PUSH2 0xEA0 JUMP JUMPDEST SWAP2 POP POP SWAP3 SWAP2 POP POP JUMP JUMPDEST PUSH1 0x0 DUP3 DUP3 MSTORE PUSH1 0x20 DUP3 ADD SWAP1 POP SWAP3 SWAP2 POP POP JUMP JUMPDEST PUSH32 0x646174614465636F646572000000000000000000000000000000000000000000 PUSH1 0x0 DUP3 ADD MSTORE POP JUMP JUMPDEST PUSH1 0x0 PUSH2 0xF5E PUSH1 0xB DUP4 PUSH2 0xF17 JUMP JUMPDEST SWAP2 POP PUSH2 0xF69 DUP3 PUSH2 0xF28 JUMP JUMPDEST PUSH1 0x20 DUP3 ADD SWAP1 POP SWAP2 SWAP1 POP JUMP JUMPDEST PUSH1 0x0 PUSH1 0x20 DUP3 ADD SWAP1 POP DUP2 DUP2 SUB PUSH1 0x0 DUP4 ADD MSTORE PUSH2 0xF8D DUP2 PUSH2 0xF51 JUMP JUMPDEST SWAP1 POP SWAP2 SWAP1 POP JUMP INVALID LOG2 PUSH5 0x6970667358 0x22 SLT KECCAK256 JUMPDEST OR JUMPDEST MSTORE PUSH7 0xF7147CB625B6FF 0xBD 0xF NUMBER 0xB9 PUSH14 0x767A857AAFA0B6AD2B13A9E83E86 NUMBER PUSH5 0x736F6C6343 STOP ADDMOD XOR STOP CALLER "
				},
				"gasEstimates": {
					"creation": {
						"codeDepositCost": "808400",
						"executionCost": "869",
						"totalCost": "809269"
					},
					"external": {
						"dataDecoder(bytes[])": "infinite"
					}
				},
				"methodIdentifiers": {
					"dataDecoder(bytes[])": "b29a1227"
				}
			},
			"storageLayout": {
				"storage": [],
				"types": null
			},
			"userdoc": {
				"kind": "user",
				"methods": {},
				"version": 1
			}
		}
	}
}