{
	"lib/v3-core/contracts/UniswapV3Factory.sol": {
		"UniswapV3Factory": {
			"abi": [
				{
					"inputs": [
						{
							"internalType": "address",
							"name": "",
							"type": "address"
						},
						{
							"internalType": "address",
							"name": "",
							"type": "address"
						},
						{
							"internalType": "uint24",
							"name": "",
							"type": "uint24"
						}
					],
					"name": "getPool",
					"outputs": [
						{
							"internalType": "address",
							"name": "",
							"type": "address"
						}
					],
					"stateMutability": "view",
					"type": "function"
				}
			],
			"devdoc": {
				"kind": "dev",
				"methods": {},
				"version": 1
			},
			"evm": {
				"assembly": "    /* \"lib/v3-core/contracts/UniswapV3Factory.sol\":60:178  contract UniswapV3Factory {... */\n  mstore(0x40, 0x80)\n  callvalue\n  dup1\n  iszero\n  tag_1\n  jumpi\n  0x00\n  dup1\n  revert\ntag_1:\n  pop\n  dataSize(sub_0)\n  dup1\n  dataOffset(sub_0)\n  0x00\n  codecopy\n  0x00\n  return\nstop\n\nsub_0: assembly {\n        /* \"lib/v3-core/contracts/UniswapV3Factory.sol\":60:178  contract UniswapV3Factory {... */\n      mstore(0x40, 0x80)\n      callvalue\n      dup1\n      iszero\n      tag_1\n      jumpi\n      0x00\n      dup1\n      revert\n    tag_1:\n      pop\n      jumpi(tag_2, lt(calldatasize, 0x04))\n      shr(0xe0, calldataload(0x00))\n      dup1\n      0x1698ee82\n      eq\n      tag_3\n      jumpi\n    tag_2:\n      0x00\n      dup1\n      revert\n        /* \"lib/v3-core/contracts/UniswapV3Factory.sol\":93:174  mapping(address => mapping(address => mapping(uint24 => address))) public getPool */\n    tag_3:\n      tag_4\n      0x04\n      dup1\n      calldatasize\n      sub\n      dup2\n      add\n      swap1\n      tag_5\n      swap2\n      swap1\n      tag_6\n      jump\t// in\n    tag_5:\n      tag_7\n      jump\t// in\n    tag_4:\n      mload(0x40)\n      tag_8\n      swap2\n      swap1\n      tag_9\n      jump\t// in\n    tag_8:\n      mload(0x40)\n      dup1\n      swap2\n      sub\n      swap1\n      return\n    tag_7:\n      mstore(0x20, 0x00)\n      dup3\n      0x00\n      mstore\n      mstore(0x20, keccak256(0x00, 0x40))\n      dup2\n      0x00\n      mstore\n      mstore(0x20, keccak256(0x00, 0x40))\n      dup1\n      0x00\n      mstore\n      keccak256(0x00, 0x40)\n      0x00\n      swap3\n      pop\n      swap3\n      pop\n      pop\n      swap1\n      sload\n      swap1\n      0x0100\n      exp\n      swap1\n      div\n      0xffffffffffffffffffffffffffffffffffffffff\n      and\n      dup2\n      jump\t// out\n        /* \"#utility.yul\":88:205   */\n    tag_11:\n        /* \"#utility.yul\":197:198   */\n      0x00\n        /* \"#utility.yul\":194:195   */\n      dup1\n        /* \"#utility.yul\":187:199   */\n      revert\n        /* \"#utility.yul\":334:460   */\n    tag_13:\n        /* \"#utility.yul\":371:378   */\n      0x00\n        /* \"#utility.yul\":411:453   */\n      0xffffffffffffffffffffffffffffffffffffffff\n        /* \"#utility.yul\":404:409   */\n      dup3\n        /* \"#utility.yul\":400:454   */\n      and\n        /* \"#utility.yul\":389:454   */\n      swap1\n      pop\n        /* \"#utility.yul\":334:460   */\n      swap2\n      swap1\n      pop\n      jump\t// out\n        /* \"#utility.yul\":466:562   */\n    tag_14:\n        /* \"#utility.yul\":503:510   */\n      0x00\n        /* \"#utility.yul\":532:556   */\n      tag_27\n        /* \"#utility.yul\":550:555   */\n      dup3\n        /* \"#utility.yul\":532:556   */\n      tag_13\n      jump\t// in\n    tag_27:\n        /* \"#utility.yul\":521:556   */\n      swap1\n      pop\n        /* \"#utility.yul\":466:562   */\n      swap2\n      swap1\n      pop\n      jump\t// out\n        /* \"#utility.yul\":568:690   */\n    tag_15:\n        /* \"#utility.yul\":641:665   */\n      tag_29\n        /* \"#utility.yul\":659:664   */\n      dup2\n        /* \"#utility.yul\":641:665   */\n      tag_14\n      jump\t// in\n    tag_29:\n        /* \"#utility.yul\":634:639   */\n      dup2\n        /* \"#utility.yul\":631:666   */\n      eq\n        /* \"#utility.yul\":621:684   */\n      tag_30\n      jumpi\n        /* \"#utility.yul\":680:681   */\n      0x00\n        /* \"#utility.yul\":677:678   */\n      dup1\n        /* \"#utility.yul\":670:682   */\n      revert\n        /* \"#utility.yul\":621:684   */\n    tag_30:\n        /* \"#utility.yul\":568:690   */\n      pop\n      jump\t// out\n        /* \"#utility.yul\":696:835   */\n    tag_16:\n        /* \"#utility.yul\":742:747   */\n      0x00\n        /* \"#utility.yul\":780:786   */\n      dup2\n        /* \"#utility.yul\":767:787   */\n      calldataload\n        /* \"#utility.yul\":758:787   */\n      swap1\n      pop\n        /* \"#utility.yul\":796:829   */\n      tag_32\n        /* \"#utility.yul\":823:828   */\n      dup2\n        /* \"#utility.yul\":796:829   */\n      tag_15\n      jump\t// in\n    tag_32:\n        /* \"#utility.yul\":696:835   */\n      swap3\n      swap2\n      pop\n      pop\n      jump\t// out\n        /* \"#utility.yul\":841:932   */\n    tag_17:\n        /* \"#utility.yul\":877:884   */\n      0x00\n        /* \"#utility.yul\":917:925   */\n      0xffffff\n        /* \"#utility.yul\":910:915   */\n      dup3\n        /* \"#utility.yul\":906:926   */\n      and\n        /* \"#utility.yul\":895:926   */\n      swap1\n      pop\n        /* \"#utility.yul\":841:932   */\n      swap2\n      swap1\n      pop\n      jump\t// out\n        /* \"#utility.yul\":938:1058   */\n    tag_18:\n        /* \"#utility.yul\":1010:1033   */\n      tag_35\n        /* \"#utility.yul\":1027:1032   */\n      dup2\n        /* \"#utility.yul\":1010:1033   */\n      tag_17\n      jump\t// in\n    tag_35:\n        /* \"#utility.yul\":1003:1008   */\n      dup2\n        /* \"#utility.yul\":1000:1034   */\n      eq\n        /* \"#utility.yul\":990:1052   */\n      tag_36\n      jumpi\n        /* \"#utility.yul\":1048:1049   */\n      0x00\n        /* \"#utility.yul\":1045:1046   */\n      dup1\n        /* \"#utility.yul\":1038:1050   */\n      revert\n        /* \"#utility.yul\":990:1052   */\n    tag_36:\n        /* \"#utility.yul\":938:1058   */\n      pop\n      jump\t// out\n        /* \"#utility.yul\":1064:1201   */\n    tag_19:\n        /* \"#utility.yul\":1109:1114   */\n      0x00\n        /* \"#utility.yul\":1147:1153   */\n      dup2\n        /* \"#utility.yul\":1134:1154   */\n      calldataload\n        /* \"#utility.yul\":1125:1154   */\n      swap1\n      pop\n        /* \"#utility.yul\":1163:1195   */\n      tag_38\n        /* \"#utility.yul\":1189:1194   */\n      dup2\n        /* \"#utility.yul\":1163:1195   */\n      tag_18\n      jump\t// in\n    tag_38:\n        /* \"#utility.yul\":1064:1201   */\n      swap3\n      swap2\n      pop\n      pop\n      jump\t// out\n        /* \"#utility.yul\":1207:1824   */\n    tag_6:\n        /* \"#utility.yul\":1283:1289   */\n      0x00\n        /* \"#utility.yul\":1291:1297   */\n      dup1\n        /* \"#utility.yul\":1299:1305   */\n      0x00\n        /* \"#utility.yul\":1348:1350   */\n      0x60\n        /* \"#utility.yul\":1336:1345   */\n      dup5\n        /* \"#utility.yul\":1327:1334   */\n      dup7\n        /* \"#utility.yul\":1323:1346   */\n      sub\n        /* \"#utility.yul\":1319:1351   */\n      slt\n        /* \"#utility.yul\":1316:1435   */\n      iszero\n      tag_40\n      jumpi\n        /* \"#utility.yul\":1354:1433   */\n      tag_41\n      tag_11\n      jump\t// in\n    tag_41:\n        /* \"#utility.yul\":1316:1435   */\n    tag_40:\n        /* \"#utility.yul\":1474:1475   */\n      0x00\n        /* \"#utility.yul\":1499:1552   */\n      tag_42\n        /* \"#utility.yul\":1544:1551   */\n      dup7\n        /* \"#utility.yul\":1535:1541   */\n      dup3\n        /* \"#utility.yul\":1524:1533   */\n      dup8\n        /* \"#utility.yul\":1520:1542   */\n      add\n        /* \"#utility.yul\":1499:1552   */\n      tag_16\n      jump\t// in\n    tag_42:\n        /* \"#utility.yul\":1489:1552   */\n      swap4\n      pop\n        /* \"#utility.yul\":1445:1562   */\n      pop\n        /* \"#utility.yul\":1601:1603   */\n      0x20\n        /* \"#utility.yul\":1627:1680   */\n      tag_43\n        /* \"#utility.yul\":1672:1679   */\n      dup7\n        /* \"#utility.yul\":1663:1669   */\n      dup3\n        /* \"#utility.yul\":1652:1661   */\n      dup8\n        /* \"#utility.yul\":1648:1670   */\n      add\n        /* \"#utility.yul\":1627:1680   */\n      tag_16\n      jump\t// in\n    tag_43:\n        /* \"#utility.yul\":1617:1680   */\n      swap3\n      pop\n        /* \"#utility.yul\":1572:1690   */\n      pop\n        /* \"#utility.yul\":1729:1731   */\n      0x40\n        /* \"#utility.yul\":1755:1807   */\n      tag_44\n        /* \"#utility.yul\":1799:1806   */\n      dup7\n        /* \"#utility.yul\":1790:1796   */\n      dup3\n        /* \"#utility.yul\":1779:1788   */\n      dup8\n        /* \"#utility.yul\":1775:1797   */\n      add\n        /* \"#utility.yul\":1755:1807   */\n      tag_19\n      jump\t// in\n    tag_44:\n        /* \"#utility.yul\":1745:1807   */\n      swap2\n      pop\n        /* \"#utility.yul\":1700:1817   */\n      pop\n        /* \"#utility.yul\":1207:1824   */\n      swap3\n      pop\n      swap3\n      pop\n      swap3\n      jump\t// out\n        /* \"#utility.yul\":1830:1948   */\n    tag_20:\n        /* \"#utility.yul\":1917:1941   */\n      tag_46\n        /* \"#utility.yul\":1935:1940   */\n      dup2\n        /* \"#utility.yul\":1917:1941   */\n      tag_14\n      jump\t// in\n    tag_46:\n        /* \"#utility.yul\":1912:1915   */\n      dup3\n        /* \"#utility.yul\":1905:1942   */\n      mstore\n        /* \"#utility.yul\":1830:1948   */\n      pop\n      pop\n      jump\t// out\n        /* \"#utility.yul\":1954:2176   */\n    tag_9:\n        /* \"#utility.yul\":2047:2051   */\n      0x00\n        /* \"#utility.yul\":2085:2087   */\n      0x20\n        /* \"#utility.yul\":2074:2083   */\n      dup3\n        /* \"#utility.yul\":2070:2088   */\n      add\n        /* \"#utility.yul\":2062:2088   */\n      swap1\n      pop\n        /* \"#utility.yul\":2098:2169   */\n      tag_48\n        /* \"#utility.yul\":2166:2167   */\n      0x00\n        /* \"#utility.yul\":2155:2164   */\n      dup4\n        /* \"#utility.yul\":2151:2168   */\n      add\n        /* \"#utility.yul\":2142:2148   */\n      dup5\n        /* \"#utility.yul\":2098:2169   */\n      tag_20\n      jump\t// in\n    tag_48:\n        /* \"#utility.yul\":1954:2176   */\n      swap3\n      swap2\n      pop\n      pop\n      jump\t// out\n\n    auxdata: 0xa26469706673582212204c15cc61a4af9e4f6a61ed7ba49043f89a4612fd24bd1caae2227f274666ae1064736f6c634300081c0033\n}\n",
				"bytecode": {
					"linkReferences": {},
					"object": "6080604052348015600f57600080fd5b506102008061001f6000396000f3fe608060405234801561001057600080fd5b506004361061002b5760003560e01c80631698ee8214610030575b600080fd5b61004a6004803603810190610045919061014d565b610060565b60405161005791906101af565b60405180910390f35b6000602052826000526040600020602052816000526040600020602052806000526040600020600092509250509054906101000a900473ffffffffffffffffffffffffffffffffffffffff1681565b600080fd5b600073ffffffffffffffffffffffffffffffffffffffff82169050919050565b60006100df826100b4565b9050919050565b6100ef816100d4565b81146100fa57600080fd5b50565b60008135905061010c816100e6565b92915050565b600062ffffff82169050919050565b61012a81610112565b811461013557600080fd5b50565b60008135905061014781610121565b92915050565b600080600060608486031215610166576101656100af565b5b6000610174868287016100fd565b9350506020610185868287016100fd565b925050604061019686828701610138565b9150509250925092565b6101a9816100d4565b82525050565b60006020820190506101c460008301846101a0565b9291505056fea26469706673582212204c15cc61a4af9e4f6a61ed7ba49043f89a4612fd24bd1caae2227f274666ae1064736f6c634300081c0033",
					"opcodes": "PUSH1 0x80 PUSH1 0x40 MSTORE CALLVALUE DUP1 ISZERO PUSH1 0xF JUMPI PUSH1 0x0 DUP1 REVERT JUMPDEST POP PUSH2 0x200 DUP1 PUSH2 0x1F PUSH1 0x0 CODECOPY PUSH1 0x0 RETURN INVALID PUSH1 0x80 PUSH1 0x40 MSTORE CALLVALUE DUP1 ISZERO PUSH2 0x10 JUMPI PUSH1 0x0 DUP1 REVERT JUMPDEST POP PUSH1 0x4 CALLDATASIZE LT PUSH2 0x2B JUMPI PUSH1 0x0 CALLDATALOAD PUSH1 0xE0 SHR DUP1 PUSH4 0x1698EE82 EQ PUSH2 0x30 JUMPI JUMPDEST PUSH1 0x0 DUP1 REVERT JUMPDEST PUSH2 0x4A PUSH1 0x4 DUP1 CALLDATASIZE SUB DUP2 ADD SWAP1 PUSH2 0x45 SWAP2 SWAP1 PUSH2 0x14D JUMP JUMPDEST PUSH2 0x60 JUMP JUMPDEST PUSH1 0x40 MLOAD PUSH2 0x57 SWAP2 SWAP1 PUSH2 0x1AF JUMP JUMPDEST PUSH1 0x40 MLOAD DUP1 SWAP2 SUB SWAP1 RETURN JUMPDEST PUSH1 0x0 PUSH1 0x20 MSTORE DUP3 PUSH1 0x0 MSTORE PUSH1 0x40 PUSH1 0x0 KECCAK256 PUSH1 0x20 MSTORE DUP2 PUSH1 0x0 MSTORE PUSH1 0x40 PUSH1 0x0 KECCAK256 PUSH1 0x20 MSTORE DUP1 PUSH1 0x0 MSTORE PUSH1 0x40 PUSH1 0x0 KECCAK256 PUSH1 0x0 SWAP3 POP SWAP3 POP POP SWAP1 SLOAD SWAP1 PUSH2 0x100 EXP SWAP1 DIV PUSH20 0xFFFFFFFFFFFFFFFFFFFFFFFFFFFFFFFFFFFFFFFF AND DUP2 JUMP JUMPDEST PUSH1 0x0 DUP1 REVERT JUMPDEST PUSH1 0x0 PUSH20 0xFFFFFFFFFFFFFFFFFFFFFFFFFFFFFFFFFFFFFFFF DUP3 AND SWAP1 POP SWAP2 SWAP1 POP JUMP JUMPDEST PUSH1 0x0 PUSH2 0xDF DUP3 PUSH2 0xB4 JUMP JUMPDEST SWAP1 POP SWAP2 SWAP1 POP JUMP JUMPDEST PUSH2 0xEF DUP2 PUSH2 0xD4 JUMP JUMPDEST DUP2 EQ PUSH2 0xFA JUMPI PUSH1 0x0 DUP1 REVERT JUMPDEST POP JUMP JUMPDEST PUSH1 0x0 DUP2 CALLDATALOAD SWAP1 POP PUSH2 0x10C DUP2 PUSH2 0xE6 JUMP JUMPDEST SWAP3 SWAP2 POP POP JUMP JUMPDEST PUSH1 0x0 PUSH3 0xFFFFFF DUP3 AND SWAP1 POP SWAP2 SWAP1 POP JUMP JUMPDEST PUSH2 0x12A DUP2 PUSH2 0x112 JUMP JUMPDEST DUP2 EQ PUSH2 0x135 JUMPI PUSH1 0x0 DUP1 REVERT JUMPDEST POP JUMP JUMPDEST PUSH1 0x0 DUP2 CALLDATALOAD SWAP1 POP PUSH2 0x147 DUP2 PUSH2 0x121 JUMP JUMPDEST SWAP3 SWAP2 POP POP JUMP JUMPDEST PUSH1 0x0 DUP1 PUSH1 0x0 PUSH1 0x60 DUP5 DUP7 SUB SLT ISZERO PUSH2 0x166 JUMPI PUSH2 0x165 PUSH2 0xAF JUMP JUMPDEST JUMPDEST PUSH1 0x0 PUSH2 0x174 DUP7 DUP3 DUP8 ADD PUSH2 0xFD JUMP JUMPDEST SWAP4 POP POP PUSH1 0x20 PUSH2 0x185 DUP7 DUP3 DUP8 ADD PUSH2 0xFD JUMP JUMPDEST SWAP3 POP POP PUSH1 0x40 PUSH2 0x196 DUP7 DUP3 DUP8 ADD PUSH2 0x138 JUMP JUMPDEST SWAP2 POP POP SWAP3 POP SWAP3 POP SWAP3 JUMP JUMPDEST PUSH2 0x1A9 DUP2 PUSH2 0xD4 JUMP JUMPDEST DUP3 MSTORE POP POP JUMP JUMPDEST PUSH1 0x0 PUSH1 0x20 DUP3 ADD SWAP1 POP PUSH2 0x1C4 PUSH1 0x0 DUP4 ADD DUP5 PUSH2 0x1A0 JUMP JUMPDEST SWAP3 SWAP2 POP POP JUMP INVALID LOG2 PUSH5 0x6970667358 0x22 SLT KECCAK256 0x4C ISZERO 0xCC PUSH2 0xA4AF SWAP15 0x4F PUSH11 0x61ED7BA49043F89A4612FD 0x24 0xBD SHR 0xAA 0xE2 0x22 PUSH32 0x274666AE1064736F6C634300081C003300000000000000000000000000000000 "
				},
				"gasEstimates": {
					"creation": {
						"codeDepositCost": "102400",
						"executionCost": "147",
						"totalCost": "102547"
					},
					"external": {
						"getPool(address,address,uint24)": "infinite"
					}
				},
				"methodIdentifiers": {
					"getPool(address,address,uint24)": "1698ee82"
				}
			},
			"storageLayout": {
				"storage": [
					{
						"astId": 9,
						"contract": "lib/v3-core/contracts/UniswapV3Factory.sol:UniswapV3Factory",
						"label": "getPool",
						"offset": 0,
						"slot": "0",
						"type": "t_mapping(t_address,t_mapping(t_address,t_mapping(t_uint24,t_address)))"
					}
				],
				"types": {
					"t_address": {
						"encoding": "inplace",
						"label": "address",
						"numberOfBytes": "20"
					},
					"t_mapping(t_address,t_mapping(t_address,t_mapping(t_uint24,t_address)))": {
						"encoding": "mapping",
						"key": "t_address",
						"label": "mapping(address => mapping(address => mapping(uint24 => address)))",
						"numberOfBytes": "32",
						"value": "t_mapping(t_address,t_mapping(t_uint24,t_address))"
					},
					"t_mapping(t_address,t_mapping(t_uint24,t_address))": {
						"encoding": "mapping",
						"key": "t_address",
						"label": "mapping(address => mapping(uint24 => address))",
						"numberOfBytes": "32",
						"value": "t_mapping(t_uint24,t_address)"
					},
					"t_mapping(t_uint24,t_address)": {
						"encoding": "mapping",
						"key": "t_uint24",
						"label": "mapping(uint24 => address)",
						"numberOfBytes": "32",
						"value": "t_address"
					},
					"t_uint24": {
						"encoding": "inplace",
						"label": "uint24",
						"numberOfBytes": "3"
					}
				}
			},
			"userdoc": {
				"kind": "user",
				"methods": {},
				"version": 1
			}
		}
	}
}