{
	"src/lib/UniswapUtils.sol": {
		"UniswapUtils": {
			"abi": [
				{
					"inputs": [
						{
							"internalType": "address",
							"name": "_poolState",
							"type": "address"
						},
						{
							"internalType": "uint256",
							"name": "slippage",
							"type": "uint256"
						},
						{
							"internalType": "uint256",
							"name": "amountIn",
							"type": "uint256"
						},
						{
							"internalType": "address[]",
							"name": "path",
							"type": "address[]"
						}
					],
					"name": "getAmountOutMin",
					"outputs": [
						{
							"internalType": "uint256",
							"name": "amountOutMin",
							"type": "uint256"
						}
					],
					"stateMutability": "view",
					"type": "function"
				},
				{
					"inputs": [
						{
							"internalType": "address",
							"name": "_poolState",
							"type": "address"
						},
						{
							"internalType": "uint256",
							"name": "slippage",
							"type": "uint256"
						},
						{
							"internalType": "address[]",
							"name": "path",
							"type": "address[]"
						}
					],
					"name": "getLimitSqrtPrice",
					"outputs": [
						{
							"internalType": "uint160",
							"name": "",
							"type": "uint160"
						}
					],
					"stateMutability": "view",
					"type": "function"
				},
				{
					"inputs": [
						{
							"internalType": "address",
							"name": "_pool",
							"type": "address"
						}
					],
					"name": "getPoolFee",
					"outputs": [
						{
							"internalType": "uint24",
							"name": "fee",
							"type": "uint24"
						}
					],
					"stateMutability": "view",
					"type": "function"
				},
				{
					"inputs": [
						{
							"internalType": "address",
							"name": "a",
							"type": "address"
						},
						{
							"internalType": "address",
							"name": "b",
							"type": "address"
						}
					],
					"name": "orderTokensInPool",
					"outputs": [
						{
							"internalType": "address[]",
							"name": "",
							"type": "address[]"
						}
					],
					"stateMutability": "pure",
					"type": "function"
				}
			],
			"devdoc": {
				"kind": "dev",
				"methods": {},
				"version": 1
			},
			"evm": {
				"assembly": "    /* \"src/lib/UniswapUtils.sol\":169:2017  library UniswapUtils {... */\n  dataSize(sub_0)\n  dataOffset(sub_0)\n  0x0b\n  dup3\n  dup3\n  dup3\n  codecopy\n  dup1\n  mload\n  0x00\n  byte\n  0x73\n  eq\n  tag_1\n  jumpi\n  mstore(0x00, 0x4e487b7100000000000000000000000000000000000000000000000000000000)\n  mstore(0x04, 0x00)\n  revert(0x00, 0x24)\ntag_1:\n  mstore(0x00, address)\n  0x73\n  dup2\n  mstore8\n  dup3\n  dup2\n  return\nstop\n\nsub_0: assembly {\n        /* \"src/lib/UniswapUtils.sol\":169:2017  library UniswapUtils {... */\n      eq(address, deployTimeAddress())\n      mstore(0x40, 0x80)\n      jumpi(tag_1, lt(calldatasize, 0x04))\n      shr(0xe0, calldataload(0x00))\n      dup1\n      0x1da2d571\n      eq\n      tag_2\n      jumpi\n      dup1\n      0x42fcc6fb\n      eq\n      tag_3\n      jumpi\n      dup1\n      0x71302915\n      eq\n      tag_4\n      jumpi\n      dup1\n      0xda91803e\n      eq\n      tag_5\n      jumpi\n    tag_1:\n      0x00\n      dup1\n      revert\n        /* \"src/lib/UniswapUtils.sol\":199:432  function orderTokensInPool(address a, address b) public pure returns(address[] memory) {    ... */\n    tag_2:\n      tag_6\n      0x04\n      dup1\n      calldatasize\n      sub\n      dup2\n      add\n      swap1\n      tag_7\n      swap2\n      swap1\n      tag_8\n      jump\t// in\n    tag_7:\n      tag_9\n      jump\t// in\n    tag_6:\n      mload(0x40)\n      tag_10\n      swap2\n      swap1\n      tag_11\n      jump\t// in\n    tag_10:\n      mload(0x40)\n      dup1\n      swap2\n      sub\n      swap1\n      return\n        /* \"src/lib/UniswapUtils.sol\":1856:2004  function getPoolFee(address _pool) external view returns(uint24 fee){... */\n    tag_3:\n      tag_12\n      0x04\n      dup1\n      calldatasize\n      sub\n      dup2\n      add\n      swap1\n      tag_13\n      swap2\n      swap1\n      tag_14\n      jump\t// in\n    tag_13:\n      tag_15\n      jump\t// in\n    tag_12:\n      mload(0x40)\n      tag_16\n      swap2\n      swap1\n      tag_17\n      jump\t// in\n    tag_16:\n      mload(0x40)\n      dup1\n      swap2\n      sub\n      swap1\n      return\n        /* \"src/lib/UniswapUtils.sol\":1159:1848  function getAmountOutMin(... */\n    tag_4:\n      tag_18\n      0x04\n      dup1\n      calldatasize\n      sub\n      dup2\n      add\n      swap1\n      tag_19\n      swap2\n      swap1\n      tag_20\n      jump\t// in\n    tag_19:\n      tag_21\n      jump\t// in\n    tag_18:\n      mload(0x40)\n      tag_22\n      swap2\n      swap1\n      tag_23\n      jump\t// in\n    tag_22:\n      mload(0x40)\n      dup1\n      swap2\n      sub\n      swap1\n      return\n        /* \"src/lib/UniswapUtils.sol\":647:1151  function getLimitSqrtPrice(... */\n    tag_5:\n      tag_24\n      0x04\n      dup1\n      calldatasize\n      sub\n      dup2\n      add\n      swap1\n      tag_25\n      swap2\n      swap1\n      tag_26\n      jump\t// in\n    tag_25:\n      tag_27\n      jump\t// in\n    tag_24:\n      mload(0x40)\n      tag_28\n      swap2\n      swap1\n      tag_29\n      jump\t// in\n    tag_28:\n      mload(0x40)\n      dup1\n      swap2\n      sub\n      swap1\n      return\n        /* \"src/lib/UniswapUtils.sol\":199:432  function orderTokensInPool(address a, address b) public pure returns(address[] memory) {    ... */\n    tag_9:\n        /* \"src/lib/UniswapUtils.sol\":268:284  address[] memory */\n      0x60\n        /* \"src/lib/UniswapUtils.sol\":301:324  address[] memory tokens */\n      0x00\n        /* \"src/lib/UniswapUtils.sol\":341:342  2 */\n      0x02\n        /* \"src/lib/UniswapUtils.sol\":327:343  new address[](2) */\n      0xffffffffffffffff\n      dup2\n      gt\n      iszero\n      tag_31\n      jumpi\n      tag_32\n      tag_33\n      jump\t// in\n    tag_32:\n    tag_31:\n      mload(0x40)\n      swap1\n      dup1\n      dup3\n      mstore\n      dup1\n      0x20\n      mul\n      0x20\n      add\n      dup3\n      add\n      0x40\n      mstore\n      dup1\n      iszero\n      tag_34\n      jumpi\n      dup2\n      0x20\n      add\n      0x20\n      dup3\n      mul\n      dup1\n      calldatasize\n      dup4\n      calldatacopy\n      dup1\n      dup3\n      add\n      swap2\n      pop\n      pop\n      swap1\n      pop\n    tag_34:\n      pop\n        /* \"src/lib/UniswapUtils.sol\":301:343  address[] memory tokens = new address[](2) */\n      swap1\n      pop\n        /* \"src/lib/UniswapUtils.sol\":383:384  b */\n      dup3\n        /* \"src/lib/UniswapUtils.sol\":379:384  a > b */\n      0xffffffffffffffffffffffffffffffffffffffff\n      and\n        /* \"src/lib/UniswapUtils.sol\":379:380  a */\n      dup5\n        /* \"src/lib/UniswapUtils.sol\":379:384  a > b */\n      0xffffffffffffffffffffffffffffffffffffffff\n      and\n      gt\n        /* \"src/lib/UniswapUtils.sol\":379:400  a > b ? (b,a) : (a,b) */\n      tag_35\n      jumpi\n        /* \"src/lib/UniswapUtils.sol\":396:397  a */\n      dup4\n        /* \"src/lib/UniswapUtils.sol\":398:399  b */\n      dup4\n        /* \"src/lib/UniswapUtils.sol\":379:400  a > b ? (b,a) : (a,b) */\n      jump(tag_36)\n    tag_35:\n        /* \"src/lib/UniswapUtils.sol\":388:389  b */\n      dup3\n        /* \"src/lib/UniswapUtils.sol\":390:391  a */\n      dup5\n        /* \"src/lib/UniswapUtils.sol\":379:400  a > b ? (b,a) : (a,b) */\n    tag_36:\n        /* \"src/lib/UniswapUtils.sol\":355:361  tokens */\n      dup3\n        /* \"src/lib/UniswapUtils.sol\":362:363  0 */\n      0x00\n        /* \"src/lib/UniswapUtils.sol\":355:364  tokens[0] */\n      dup2\n      mload\n      dup2\n      lt\n      tag_37\n      jumpi\n      tag_38\n      tag_39\n      jump\t// in\n    tag_38:\n    tag_37:\n      0x20\n      mul\n      0x20\n      add\n      add\n        /* \"src/lib/UniswapUtils.sol\":366:372  tokens */\n      dup4\n        /* \"src/lib/UniswapUtils.sol\":373:374  1 */\n      0x01\n        /* \"src/lib/UniswapUtils.sol\":366:375  tokens[1] */\n      dup2\n      mload\n      dup2\n      lt\n      tag_40\n      jumpi\n      tag_41\n      tag_39\n      jump\t// in\n    tag_41:\n    tag_40:\n      0x20\n      mul\n      0x20\n      add\n      add\n        /* \"src/lib/UniswapUtils.sol\":354:400  (tokens[0], tokens[1]) = a > b ? (b,a) : (a,b) */\n      dup3\n      0xffffffffffffffffffffffffffffffffffffffff\n      and\n      0xffffffffffffffffffffffffffffffffffffffff\n      and\n      dup2\n      mstore\n      pop\n      dup3\n      0xffffffffffffffffffffffffffffffffffffffff\n      and\n      0xffffffffffffffffffffffffffffffffffffffff\n      and\n      dup2\n      mstore\n      pop\n      pop\n      pop\n        /* \"src/lib/UniswapUtils.sol\":418:424  tokens */\n      dup1\n        /* \"src/lib/UniswapUtils.sol\":411:424  return tokens */\n      swap2\n      pop\n      pop\n        /* \"src/lib/UniswapUtils.sol\":199:432  function orderTokensInPool(address a, address b) public pure returns(address[] memory) {    ... */\n      swap3\n      swap2\n      pop\n      pop\n      jump\t// out\n        /* \"src/lib/UniswapUtils.sol\":1856:2004  function getPoolFee(address _pool) external view returns(uint24 fee){... */\n    tag_15:\n        /* \"src/lib/UniswapUtils.sol\":1913:1923  uint24 fee */\n      0x00\n        /* \"src/lib/UniswapUtils.sol\":1963:1968  _pool */\n      dup2\n        /* \"src/lib/UniswapUtils.sol\":1943:1973  IUniswapV3PoolState(_pool).fee */\n      0xffffffffffffffffffffffffffffffffffffffff\n      and\n      0xddca3f43\n        /* \"src/lib/UniswapUtils.sol\":1943:1975  IUniswapV3PoolState(_pool).fee() */\n      mload(0x40)\n      dup2\n      0xffffffff\n      and\n      0xe0\n      shl\n      dup2\n      mstore\n      0x04\n      add\n      0x20\n      mload(0x40)\n      dup1\n      dup4\n      sub\n      dup2\n      dup7\n      gas\n      staticcall\n      iszero\n      dup1\n      iszero\n      tag_44\n      jumpi\n      returndatasize\n      0x00\n      dup1\n      returndatacopy\n      revert(0x00, returndatasize)\n    tag_44:\n      pop\n      pop\n      pop\n      pop\n      mload(0x40)\n      returndatasize\n      not(0x1f)\n      0x1f\n      dup3\n      add\n      and\n      dup3\n      add\n      dup1\n      0x40\n      mstore\n      pop\n      dup2\n      add\n      swap1\n      tag_45\n      swap2\n      swap1\n      tag_46\n      jump\t// in\n    tag_45:\n        /* \"src/lib/UniswapUtils.sol\":1935:1975  (fee) = IUniswapV3PoolState(_pool).fee() */\n      swap1\n      pop\n        /* \"src/lib/UniswapUtils.sol\":1856:2004  function getPoolFee(address _pool) external view returns(uint24 fee){... */\n      swap2\n      swap1\n      pop\n      jump\t// out\n        /* \"src/lib/UniswapUtils.sol\":1159:1848  function getAmountOutMin(... */\n    tag_21:\n        /* \"src/lib/UniswapUtils.sol\":1348:1368  uint256 amountOutMin */\n      0x00\n        /* \"src/lib/UniswapUtils.sol\":1385:1402  uint160 sqrtPrice */\n      dup1\n        /* \"src/lib/UniswapUtils.sol\":1405:1436  getCurrentSqrtPrice(_poolState) */\n      tag_48\n        /* \"src/lib/UniswapUtils.sol\":1425:1435  _poolState */\n      dup8\n        /* \"src/lib/UniswapUtils.sol\":1405:1424  getCurrentSqrtPrice */\n      tag_49\n        /* \"src/lib/UniswapUtils.sol\":1405:1436  getCurrentSqrtPrice(_poolState) */\n      jump\t// in\n    tag_48:\n        /* \"src/lib/UniswapUtils.sol\":1385:1436  uint160 sqrtPrice = getCurrentSqrtPrice(_poolState) */\n      swap1\n      pop\n        /* \"src/lib/UniswapUtils.sol\":1451:1464  uint256 price */\n      0x00\n        /* \"src/lib/UniswapUtils.sol\":1512:1514  96 */\n      0x60\n        /* \"src/lib/UniswapUtils.sol\":1497:1506  sqrtPrice */\n      dup3\n        /* \"src/lib/UniswapUtils.sol\":1489:1507  uint256(sqrtPrice) */\n      0xffffffffffffffffffffffffffffffffffffffff\n      and\n        /* \"src/lib/UniswapUtils.sol\":1476:1485  sqrtPrice */\n      dup4\n        /* \"src/lib/UniswapUtils.sol\":1468:1486  uint256(sqrtPrice) */\n      0xffffffffffffffffffffffffffffffffffffffff\n      and\n        /* \"src/lib/UniswapUtils.sol\":1468:1507  uint256(sqrtPrice) * uint256(sqrtPrice) */\n      tag_50\n      swap2\n      swap1\n      tag_51\n      jump\t// in\n    tag_50:\n        /* \"src/lib/UniswapUtils.sol\":1467:1514  (uint256(sqrtPrice) * uint256(sqrtPrice)) >> 96 */\n      swap1\n      shr\n        /* \"src/lib/UniswapUtils.sol\":1451:1514  uint256 price = (uint256(sqrtPrice) * uint256(sqrtPrice)) >> 96 */\n      swap1\n      pop\n        /* \"src/lib/UniswapUtils.sol\":1535:1552  uint256 amountOut */\n      0x00\n        /* \"src/lib/UniswapUtils.sol\":1565:1569  path */\n      dup6\n      dup6\n        /* \"src/lib/UniswapUtils.sol\":1570:1571  1 */\n      0x01\n        /* \"src/lib/UniswapUtils.sol\":1565:1572  path[1] */\n      dup2\n      dup2\n      lt\n      tag_52\n      jumpi\n      tag_53\n      tag_39\n      jump\t// in\n    tag_53:\n    tag_52:\n      swap1\n      pop\n      0x20\n      mul\n      add\n      0x20\n      dup2\n      add\n      swap1\n      tag_54\n      swap2\n      swap1\n      tag_14\n      jump\t// in\n    tag_54:\n        /* \"src/lib/UniswapUtils.sol\":1555:1572  path[0] > path[1] */\n      0xffffffffffffffffffffffffffffffffffffffff\n      and\n        /* \"src/lib/UniswapUtils.sol\":1555:1559  path */\n      dup7\n      dup7\n        /* \"src/lib/UniswapUtils.sol\":1560:1561  0 */\n      0x00\n        /* \"src/lib/UniswapUtils.sol\":1555:1562  path[0] */\n      dup2\n      dup2\n      lt\n      tag_55\n      jumpi\n      tag_56\n      tag_39\n      jump\t// in\n    tag_56:\n    tag_55:\n      swap1\n      pop\n      0x20\n      mul\n      add\n      0x20\n      dup2\n      add\n      swap1\n      tag_57\n      swap2\n      swap1\n      tag_14\n      jump\t// in\n    tag_57:\n        /* \"src/lib/UniswapUtils.sol\":1555:1572  path[0] > path[1] */\n      0xffffffffffffffffffffffffffffffffffffffff\n      and\n      gt\n        /* \"src/lib/UniswapUtils.sol\":1555:1692  path[0] > path[1] ... */\n      tag_58\n      jumpi\n        /* \"src/lib/UniswapUtils.sol\":1690:1692  96 */\n      0x60\n        /* \"src/lib/UniswapUtils.sol\":1680:1685  price */\n      dup3\n        /* \"src/lib/UniswapUtils.sol\":1669:1677  amountIn */\n      dup9\n        /* \"src/lib/UniswapUtils.sol\":1669:1685  amountIn * price */\n      tag_59\n      swap2\n      swap1\n      tag_51\n      jump\t// in\n    tag_59:\n        /* \"src/lib/UniswapUtils.sol\":1668:1692  (amountIn * price) >> 96 */\n      swap1\n      shr\n        /* \"src/lib/UniswapUtils.sol\":1555:1692  path[0] > path[1] ... */\n      jump(tag_60)\n    tag_58:\n        /* \"src/lib/UniswapUtils.sol\":1618:1623  price */\n      dup2\n        /* \"src/lib/UniswapUtils.sol\":1606:1613  1 << 96 */\n      0x01000000000000000000000000\n        /* \"src/lib/UniswapUtils.sol\":1594:1602  amountIn */\n      dup9\n        /* \"src/lib/UniswapUtils.sol\":1594:1614  amountIn * (1 << 96) */\n      tag_61\n      swap2\n      swap1\n      tag_51\n      jump\t// in\n    tag_61:\n        /* \"src/lib/UniswapUtils.sol\":1593:1623  (amountIn * (1 << 96)) / price */\n      tag_62\n      swap2\n      swap1\n      tag_63\n      jump\t// in\n    tag_62:\n        /* \"src/lib/UniswapUtils.sol\":1555:1692  path[0] > path[1] ... */\n    tag_60:\n        /* \"src/lib/UniswapUtils.sol\":1535:1692  uint256 amountOut = path[0] > path[1] ... */\n      swap1\n      pop\n        /* \"src/lib/UniswapUtils.sol\":1802:1806  1000 */\n      0x03e8\n        /* \"src/lib/UniswapUtils.sol\":1790:1798  slippage */\n      dup9\n        /* \"src/lib/UniswapUtils.sol\":1783:1787  1000 */\n      0x03e8\n        /* \"src/lib/UniswapUtils.sol\":1783:1798  1000 - slippage */\n      tag_64\n      swap2\n      swap1\n      tag_65\n      jump\t// in\n    tag_64:\n        /* \"src/lib/UniswapUtils.sol\":1770:1779  amountOut */\n      dup3\n        /* \"src/lib/UniswapUtils.sol\":1770:1799  amountOut * (1000 - slippage) */\n      tag_66\n      swap2\n      swap1\n      tag_51\n      jump\t// in\n    tag_66:\n        /* \"src/lib/UniswapUtils.sol\":1770:1806  amountOut * (1000 - slippage) / 1000 */\n      tag_67\n      swap2\n      swap1\n      tag_63\n      jump\t// in\n    tag_67:\n        /* \"src/lib/UniswapUtils.sol\":1755:1806  amountOutMin = amountOut * (1000 - slippage) / 1000 */\n      swap4\n      pop\n        /* \"src/lib/UniswapUtils.sol\":1821:1840  return amountOutMin */\n      pop\n      pop\n      pop\n        /* \"src/lib/UniswapUtils.sol\":1159:1848  function getAmountOutMin(... */\n      swap6\n      swap5\n      pop\n      pop\n      pop\n      pop\n      pop\n      jump\t// out\n        /* \"src/lib/UniswapUtils.sol\":647:1151  function getLimitSqrtPrice(... */\n    tag_27:\n        /* \"src/lib/UniswapUtils.sol\":849:856  uint160 */\n      0x00\n        /* \"src/lib/UniswapUtils.sol\":873:886  uint160 price */\n      dup1\n        /* \"src/lib/UniswapUtils.sol\":889:920  getCurrentSqrtPrice(_poolState) */\n      tag_69\n        /* \"src/lib/UniswapUtils.sol\":909:919  _poolState */\n      dup7\n        /* \"src/lib/UniswapUtils.sol\":889:908  getCurrentSqrtPrice */\n      tag_49\n        /* \"src/lib/UniswapUtils.sol\":889:920  getCurrentSqrtPrice(_poolState) */\n      jump\t// in\n    tag_69:\n        /* \"src/lib/UniswapUtils.sol\":873:920  uint160 price = getCurrentSqrtPrice(_poolState) */\n      swap1\n      pop\n        /* \"src/lib/UniswapUtils.sol\":935:953  uint160 limitPrice */\n      0x00\n        /* \"src/lib/UniswapUtils.sol\":966:970  path */\n      dup5\n      dup5\n        /* \"src/lib/UniswapUtils.sol\":971:972  1 */\n      0x01\n        /* \"src/lib/UniswapUtils.sol\":966:973  path[1] */\n      dup2\n      dup2\n      lt\n      tag_70\n      jumpi\n      tag_71\n      tag_39\n      jump\t// in\n    tag_71:\n    tag_70:\n      swap1\n      pop\n      0x20\n      mul\n      add\n      0x20\n      dup2\n      add\n      swap1\n      tag_72\n      swap2\n      swap1\n      tag_14\n      jump\t// in\n    tag_72:\n        /* \"src/lib/UniswapUtils.sol\":956:973  path[0] > path[1] */\n      0xffffffffffffffffffffffffffffffffffffffff\n      and\n        /* \"src/lib/UniswapUtils.sol\":956:960  path */\n      dup6\n      dup6\n        /* \"src/lib/UniswapUtils.sol\":961:962  0 */\n      0x00\n        /* \"src/lib/UniswapUtils.sol\":956:963  path[0] */\n      dup2\n      dup2\n      lt\n      tag_73\n      jumpi\n      tag_74\n      tag_39\n      jump\t// in\n    tag_74:\n    tag_73:\n      swap1\n      pop\n      0x20\n      mul\n      add\n      0x20\n      dup2\n      add\n      swap1\n      tag_75\n      swap2\n      swap1\n      tag_14\n      jump\t// in\n    tag_75:\n        /* \"src/lib/UniswapUtils.sol\":956:973  path[0] > path[1] */\n      0xffffffffffffffffffffffffffffffffffffffff\n      and\n      gt\n        /* \"src/lib/UniswapUtils.sol\":956:1111  path[0] > path[1] ... */\n      tag_76\n      jumpi\n        /* \"src/lib/UniswapUtils.sol\":1106:1110  1000 */\n      0x03e8\n        /* \"src/lib/UniswapUtils.sol\":1095:1103  slippage */\n      dup7\n        /* \"src/lib/UniswapUtils.sol\":1081:1086  price */\n      dup4\n        /* \"src/lib/UniswapUtils.sol\":1081:1104  price*uint160(slippage) */\n      tag_77\n      swap2\n      swap1\n      tag_78\n      jump\t// in\n    tag_77:\n        /* \"src/lib/UniswapUtils.sol\":1080:1110  (price*uint160(slippage))/1000 */\n      tag_79\n      swap2\n      swap1\n      tag_80\n      jump\t// in\n    tag_79:\n        /* \"src/lib/UniswapUtils.sol\":1071:1076  price */\n      dup3\n        /* \"src/lib/UniswapUtils.sol\":1071:1111  price - ((price*uint160(slippage))/1000) */\n      tag_81\n      swap2\n      swap1\n      tag_82\n      jump\t// in\n    tag_81:\n        /* \"src/lib/UniswapUtils.sol\":956:1111  path[0] > path[1] ... */\n      jump(tag_83)\n    tag_76:\n        /* \"src/lib/UniswapUtils.sol\":1037:1041  1000 */\n      0x03e8\n        /* \"src/lib/UniswapUtils.sol\":1026:1034  slippage */\n      dup7\n        /* \"src/lib/UniswapUtils.sol\":1012:1017  price */\n      dup4\n        /* \"src/lib/UniswapUtils.sol\":1012:1035  price*uint160(slippage) */\n      tag_84\n      swap2\n      swap1\n      tag_78\n      jump\t// in\n    tag_84:\n        /* \"src/lib/UniswapUtils.sol\":1011:1041  (price*uint160(slippage))/1000 */\n      tag_85\n      swap2\n      swap1\n      tag_80\n      jump\t// in\n    tag_85:\n        /* \"src/lib/UniswapUtils.sol\":1002:1007  price */\n      dup3\n        /* \"src/lib/UniswapUtils.sol\":1002:1042  price + ((price*uint160(slippage))/1000) */\n      tag_86\n      swap2\n      swap1\n      tag_87\n      jump\t// in\n    tag_86:\n        /* \"src/lib/UniswapUtils.sol\":956:1111  path[0] > path[1] ... */\n    tag_83:\n        /* \"src/lib/UniswapUtils.sol\":935:1111  uint160 limitPrice = path[0] > path[1] ... */\n      swap1\n      pop\n        /* \"src/lib/UniswapUtils.sol\":1133:1143  limitPrice */\n      dup1\n        /* \"src/lib/UniswapUtils.sol\":1126:1143  return limitPrice */\n      swap3\n      pop\n      pop\n      pop\n        /* \"src/lib/UniswapUtils.sol\":647:1151  function getLimitSqrtPrice(... */\n      swap5\n      swap4\n      pop\n      pop\n      pop\n      pop\n      jump\t// out\n        /* \"src/lib/UniswapUtils.sol\":440:639  function  getCurrentSqrtPrice(address _poolState) internal view returns(uint160){... */\n    tag_49:\n        /* \"src/lib/UniswapUtils.sol\":512:519  uint160 */\n      0x00\n        /* \"src/lib/UniswapUtils.sol\":532:552  uint160 sqrtPriceX96 */\n      dup1\n        /* \"src/lib/UniswapUtils.sol\":582:592  _poolState */\n      dup3\n        /* \"src/lib/UniswapUtils.sol\":562:599  IUniswapV3PoolState(_poolState).slot0 */\n      0xffffffffffffffffffffffffffffffffffffffff\n      and\n      0x3850c7bd\n        /* \"src/lib/UniswapUtils.sol\":562:601  IUniswapV3PoolState(_poolState).slot0() */\n      mload(0x40)\n      dup2\n      0xffffffff\n      and\n      0xe0\n      shl\n      dup2\n      mstore\n      0x04\n      add\n      0xe0\n      mload(0x40)\n      dup1\n      dup4\n      sub\n      dup2\n      dup7\n      gas\n      staticcall\n      iszero\n      dup1\n      iszero\n      tag_90\n      jumpi\n      returndatasize\n      0x00\n      dup1\n      returndatacopy\n      revert(0x00, returndatasize)\n    tag_90:\n      pop\n      pop\n      pop\n      pop\n      mload(0x40)\n      returndatasize\n      not(0x1f)\n      0x1f\n      dup3\n      add\n      and\n      dup3\n      add\n      dup1\n      0x40\n      mstore\n      pop\n      dup2\n      add\n      swap1\n      tag_91\n      swap2\n      swap1\n      tag_92\n      jump\t// in\n    tag_91:\n        /* \"src/lib/UniswapUtils.sol\":531:601  (uint160 sqrtPriceX96,,,,,,) = IUniswapV3PoolState(_poolState).slot0() */\n      pop\n      pop\n      pop\n      pop\n      pop\n      pop\n      swap1\n      pop\n        /* \"src/lib/UniswapUtils.sol\":619:631  sqrtPriceX96 */\n      dup1\n        /* \"src/lib/UniswapUtils.sol\":612:631  return sqrtPriceX96 */\n      swap2\n      pop\n      pop\n        /* \"src/lib/UniswapUtils.sol\":440:639  function  getCurrentSqrtPrice(address _poolState) internal view returns(uint160){... */\n      swap2\n      swap1\n      pop\n      jump\t// out\n        /* \"#utility.yul\":88:205   */\n    tag_94:\n        /* \"#utility.yul\":197:198   */\n      0x00\n        /* \"#utility.yul\":194:195   */\n      dup1\n        /* \"#utility.yul\":187:199   */\n      revert\n        /* \"#utility.yul\":211:328   */\n    tag_95:\n        /* \"#utility.yul\":320:321   */\n      0x00\n        /* \"#utility.yul\":317:318   */\n      dup1\n        /* \"#utility.yul\":310:322   */\n      revert\n        /* \"#utility.yul\":334:460   */\n    tag_96:\n        /* \"#utility.yul\":371:378   */\n      0x00\n        /* \"#utility.yul\":411:453   */\n      0xffffffffffffffffffffffffffffffffffffffff\n        /* \"#utility.yul\":404:409   */\n      dup3\n        /* \"#utility.yul\":400:454   */\n      and\n        /* \"#utility.yul\":389:454   */\n      swap1\n      pop\n        /* \"#utility.yul\":334:460   */\n      swap2\n      swap1\n      pop\n      jump\t// out\n        /* \"#utility.yul\":466:562   */\n    tag_97:\n        /* \"#utility.yul\":503:510   */\n      0x00\n        /* \"#utility.yul\":532:556   */\n      tag_142\n        /* \"#utility.yul\":550:555   */\n      dup3\n        /* \"#utility.yul\":532:556   */\n      tag_96\n      jump\t// in\n    tag_142:\n        /* \"#utility.yul\":521:556   */\n      swap1\n      pop\n        /* \"#utility.yul\":466:562   */\n      swap2\n      swap1\n      pop\n      jump\t// out\n        /* \"#utility.yul\":568:690   */\n    tag_98:\n        /* \"#utility.yul\":641:665   */\n      tag_144\n        /* \"#utility.yul\":659:664   */\n      dup2\n        /* \"#utility.yul\":641:665   */\n      tag_97\n      jump\t// in\n    tag_144:\n        /* \"#utility.yul\":634:639   */\n      dup2\n        /* \"#utility.yul\":631:666   */\n      eq\n        /* \"#utility.yul\":621:684   */\n      tag_145\n      jumpi\n        /* \"#utility.yul\":680:681   */\n      0x00\n        /* \"#utility.yul\":677:678   */\n      dup1\n        /* \"#utility.yul\":670:682   */\n      revert\n        /* \"#utility.yul\":621:684   */\n    tag_145:\n        /* \"#utility.yul\":568:690   */\n      pop\n      jump\t// out\n        /* \"#utility.yul\":696:835   */\n    tag_99:\n        /* \"#utility.yul\":742:747   */\n      0x00\n        /* \"#utility.yul\":780:786   */\n      dup2\n        /* \"#utility.yul\":767:787   */\n      calldataload\n        /* \"#utility.yul\":758:787   */\n      swap1\n      pop\n        /* \"#utility.yul\":796:829   */\n      tag_147\n        /* \"#utility.yul\":823:828   */\n      dup2\n        /* \"#utility.yul\":796:829   */\n      tag_98\n      jump\t// in\n    tag_147:\n        /* \"#utility.yul\":696:835   */\n      swap3\n      swap2\n      pop\n      pop\n      jump\t// out\n        /* \"#utility.yul\":841:1315   */\n    tag_8:\n        /* \"#utility.yul\":909:915   */\n      0x00\n        /* \"#utility.yul\":917:923   */\n      dup1\n        /* \"#utility.yul\":966:968   */\n      0x40\n        /* \"#utility.yul\":954:963   */\n      dup4\n        /* \"#utility.yul\":945:952   */\n      dup6\n        /* \"#utility.yul\":941:964   */\n      sub\n        /* \"#utility.yul\":937:969   */\n      slt\n        /* \"#utility.yul\":934:1053   */\n      iszero\n      tag_149\n      jumpi\n        /* \"#utility.yul\":972:1051   */\n      tag_150\n      tag_94\n      jump\t// in\n    tag_150:\n        /* \"#utility.yul\":934:1053   */\n    tag_149:\n        /* \"#utility.yul\":1092:1093   */\n      0x00\n        /* \"#utility.yul\":1117:1170   */\n      tag_151\n        /* \"#utility.yul\":1162:1169   */\n      dup6\n        /* \"#utility.yul\":1153:1159   */\n      dup3\n        /* \"#utility.yul\":1142:1151   */\n      dup7\n        /* \"#utility.yul\":1138:1160   */\n      add\n        /* \"#utility.yul\":1117:1170   */\n      tag_99\n      jump\t// in\n    tag_151:\n        /* \"#utility.yul\":1107:1170   */\n      swap3\n      pop\n        /* \"#utility.yul\":1063:1180   */\n      pop\n        /* \"#utility.yul\":1219:1221   */\n      0x20\n        /* \"#utility.yul\":1245:1298   */\n      tag_152\n        /* \"#utility.yul\":1290:1297   */\n      dup6\n        /* \"#utility.yul\":1281:1287   */\n      dup3\n        /* \"#utility.yul\":1270:1279   */\n      dup7\n        /* \"#utility.yul\":1266:1288   */\n      add\n        /* \"#utility.yul\":1245:1298   */\n      tag_99\n      jump\t// in\n    tag_152:\n        /* \"#utility.yul\":1235:1298   */\n      swap2\n      pop\n        /* \"#utility.yul\":1190:1308   */\n      pop\n        /* \"#utility.yul\":841:1315   */\n      swap3\n      pop\n      swap3\n      swap1\n      pop\n      jump\t// out\n        /* \"#utility.yul\":1321:1435   */\n    tag_100:\n        /* \"#utility.yul\":1388:1394   */\n      0x00\n        /* \"#utility.yul\":1422:1427   */\n      dup2\n        /* \"#utility.yul\":1416:1428   */\n      mload\n        /* \"#utility.yul\":1406:1428   */\n      swap1\n      pop\n        /* \"#utility.yul\":1321:1435   */\n      swap2\n      swap1\n      pop\n      jump\t// out\n        /* \"#utility.yul\":1441:1633   */\n    tag_101:\n        /* \"#utility.yul\":1548:1559   */\n      0x00\n        /* \"#utility.yul\":1582:1588   */\n      dup3\n        /* \"#utility.yul\":1577:1580   */\n      dup3\n        /* \"#utility.yul\":1570:1589   */\n      mstore\n        /* \"#utility.yul\":1622:1626   */\n      0x20\n        /* \"#utility.yul\":1617:1620   */\n      dup3\n        /* \"#utility.yul\":1613:1627   */\n      add\n        /* \"#utility.yul\":1598:1627   */\n      swap1\n      pop\n        /* \"#utility.yul\":1441:1633   */\n      swap3\n      swap2\n      pop\n      pop\n      jump\t// out\n        /* \"#utility.yul\":1639:1771   */\n    tag_102:\n        /* \"#utility.yul\":1706:1710   */\n      0x00\n        /* \"#utility.yul\":1729:1732   */\n      dup2\n        /* \"#utility.yul\":1721:1732   */\n      swap1\n      pop\n        /* \"#utility.yul\":1759:1763   */\n      0x20\n        /* \"#utility.yul\":1754:1757   */\n      dup3\n        /* \"#utility.yul\":1750:1764   */\n      add\n        /* \"#utility.yul\":1742:1764   */\n      swap1\n      pop\n        /* \"#utility.yul\":1639:1771   */\n      swap2\n      swap1\n      pop\n      jump\t// out\n        /* \"#utility.yul\":1777:1893   */\n    tag_103:\n        /* \"#utility.yul\":1862:1886   */\n      tag_157\n        /* \"#utility.yul\":1880:1885   */\n      dup2\n        /* \"#utility.yul\":1862:1886   */\n      tag_97\n      jump\t// in\n    tag_157:\n        /* \"#utility.yul\":1857:1860   */\n      dup3\n        /* \"#utility.yul\":1850:1887   */\n      mstore\n        /* \"#utility.yul\":1777:1893   */\n      pop\n      pop\n      jump\t// out\n        /* \"#utility.yul\":1899:2094   */\n    tag_104:\n        /* \"#utility.yul\":1976:1986   */\n      0x00\n        /* \"#utility.yul\":1997:2051   */\n      tag_159\n        /* \"#utility.yul\":2047:2050   */\n      dup4\n        /* \"#utility.yul\":2039:2045   */\n      dup4\n        /* \"#utility.yul\":1997:2051   */\n      tag_103\n      jump\t// in\n    tag_159:\n        /* \"#utility.yul\":2083:2087   */\n      0x20\n        /* \"#utility.yul\":2078:2081   */\n      dup4\n        /* \"#utility.yul\":2074:2088   */\n      add\n        /* \"#utility.yul\":2060:2088   */\n      swap1\n      pop\n        /* \"#utility.yul\":1899:2094   */\n      swap3\n      swap2\n      pop\n      pop\n      jump\t// out\n        /* \"#utility.yul\":2100:2213   */\n    tag_105:\n        /* \"#utility.yul\":2170:2174   */\n      0x00\n        /* \"#utility.yul\":2202:2206   */\n      0x20\n        /* \"#utility.yul\":2197:2200   */\n      dup3\n        /* \"#utility.yul\":2193:2207   */\n      add\n        /* \"#utility.yul\":2185:2207   */\n      swap1\n      pop\n        /* \"#utility.yul\":2100:2213   */\n      swap2\n      swap1\n      pop\n      jump\t// out\n        /* \"#utility.yul\":2249:3005   */\n    tag_106:\n        /* \"#utility.yul\":2376:2379   */\n      0x00\n        /* \"#utility.yul\":2405:2459   */\n      tag_162\n        /* \"#utility.yul\":2453:2458   */\n      dup3\n        /* \"#utility.yul\":2405:2459   */\n      tag_100\n      jump\t// in\n    tag_162:\n        /* \"#utility.yul\":2475:2569   */\n      tag_163\n        /* \"#utility.yul\":2562:2568   */\n      dup2\n        /* \"#utility.yul\":2557:2560   */\n      dup6\n        /* \"#utility.yul\":2475:2569   */\n      tag_101\n      jump\t// in\n    tag_163:\n        /* \"#utility.yul\":2468:2569   */\n      swap4\n      pop\n        /* \"#utility.yul\":2593:2649   */\n      tag_164\n        /* \"#utility.yul\":2643:2648   */\n      dup4\n        /* \"#utility.yul\":2593:2649   */\n      tag_102\n      jump\t// in\n    tag_164:\n        /* \"#utility.yul\":2672:2679   */\n      dup1\n        /* \"#utility.yul\":2703:2704   */\n      0x00\n        /* \"#utility.yul\":2688:2980   */\n    tag_165:\n        /* \"#utility.yul\":2713:2719   */\n      dup4\n        /* \"#utility.yul\":2710:2711   */\n      dup2\n        /* \"#utility.yul\":2707:2720   */\n      lt\n        /* \"#utility.yul\":2688:2980   */\n      iszero\n      tag_167\n      jumpi\n        /* \"#utility.yul\":2789:2795   */\n      dup2\n        /* \"#utility.yul\":2783:2796   */\n      mload\n        /* \"#utility.yul\":2816:2887   */\n      tag_168\n        /* \"#utility.yul\":2883:2886   */\n      dup9\n        /* \"#utility.yul\":2868:2881   */\n      dup3\n        /* \"#utility.yul\":2816:2887   */\n      tag_104\n      jump\t// in\n    tag_168:\n        /* \"#utility.yul\":2809:2887   */\n      swap8\n      pop\n        /* \"#utility.yul\":2910:2970   */\n      tag_169\n        /* \"#utility.yul\":2963:2969   */\n      dup4\n        /* \"#utility.yul\":2910:2970   */\n      tag_105\n      jump\t// in\n    tag_169:\n        /* \"#utility.yul\":2900:2970   */\n      swap3\n      pop\n        /* \"#utility.yul\":2748:2980   */\n      pop\n        /* \"#utility.yul\":2735:2736   */\n      0x01\n        /* \"#utility.yul\":2732:2733   */\n      dup2\n        /* \"#utility.yul\":2728:2737   */\n      add\n        /* \"#utility.yul\":2723:2737   */\n      swap1\n      pop\n        /* \"#utility.yul\":2688:2980   */\n      jump(tag_165)\n    tag_167:\n        /* \"#utility.yul\":2692:2706   */\n      pop\n        /* \"#utility.yul\":2996:2999   */\n      dup6\n        /* \"#utility.yul\":2989:2999   */\n      swap4\n      pop\n        /* \"#utility.yul\":2381:3005   */\n      pop\n      pop\n      pop\n        /* \"#utility.yul\":2249:3005   */\n      swap3\n      swap2\n      pop\n      pop\n      jump\t// out\n        /* \"#utility.yul\":3011:3400   */\n    tag_11:\n        /* \"#utility.yul\":3162:3166   */\n      0x00\n        /* \"#utility.yul\":3200:3202   */\n      0x20\n        /* \"#utility.yul\":3189:3198   */\n      dup3\n        /* \"#utility.yul\":3185:3203   */\n      add\n        /* \"#utility.yul\":3177:3203   */\n      swap1\n      pop\n        /* \"#utility.yul\":3249:3258   */\n      dup2\n        /* \"#utility.yul\":3243:3247   */\n      dup2\n        /* \"#utility.yul\":3239:3259   */\n      sub\n        /* \"#utility.yul\":3235:3236   */\n      0x00\n        /* \"#utility.yul\":3224:3233   */\n      dup4\n        /* \"#utility.yul\":3220:3237   */\n      add\n        /* \"#utility.yul\":3213:3260   */\n      mstore\n        /* \"#utility.yul\":3277:3393   */\n      tag_171\n        /* \"#utility.yul\":3388:3392   */\n      dup2\n        /* \"#utility.yul\":3379:3385   */\n      dup5\n        /* \"#utility.yul\":3277:3393   */\n      tag_106\n      jump\t// in\n    tag_171:\n        /* \"#utility.yul\":3269:3393   */\n      swap1\n      pop\n        /* \"#utility.yul\":3011:3400   */\n      swap3\n      swap2\n      pop\n      pop\n      jump\t// out\n        /* \"#utility.yul\":3406:3735   */\n    tag_14:\n        /* \"#utility.yul\":3465:3471   */\n      0x00\n        /* \"#utility.yul\":3514:3516   */\n      0x20\n        /* \"#utility.yul\":3502:3511   */\n      dup3\n        /* \"#utility.yul\":3493:3500   */\n      dup5\n        /* \"#utility.yul\":3489:3512   */\n      sub\n        /* \"#utility.yul\":3485:3517   */\n      slt\n        /* \"#utility.yul\":3482:3601   */\n      iszero\n      tag_173\n      jumpi\n        /* \"#utility.yul\":3520:3599   */\n      tag_174\n      tag_94\n      jump\t// in\n    tag_174:\n        /* \"#utility.yul\":3482:3601   */\n    tag_173:\n        /* \"#utility.yul\":3640:3641   */\n      0x00\n        /* \"#utility.yul\":3665:3718   */\n      tag_175\n        /* \"#utility.yul\":3710:3717   */\n      dup5\n        /* \"#utility.yul\":3701:3707   */\n      dup3\n        /* \"#utility.yul\":3690:3699   */\n      dup6\n        /* \"#utility.yul\":3686:3708   */\n      add\n        /* \"#utility.yul\":3665:3718   */\n      tag_99\n      jump\t// in\n    tag_175:\n        /* \"#utility.yul\":3655:3718   */\n      swap2\n      pop\n        /* \"#utility.yul\":3611:3728   */\n      pop\n        /* \"#utility.yul\":3406:3735   */\n      swap3\n      swap2\n      pop\n      pop\n      jump\t// out\n        /* \"#utility.yul\":3741:3832   */\n    tag_107:\n        /* \"#utility.yul\":3777:3784   */\n      0x00\n        /* \"#utility.yul\":3817:3825   */\n      0xffffff\n        /* \"#utility.yul\":3810:3815   */\n      dup3\n        /* \"#utility.yul\":3806:3826   */\n      and\n        /* \"#utility.yul\":3795:3826   */\n      swap1\n      pop\n        /* \"#utility.yul\":3741:3832   */\n      swap2\n      swap1\n      pop\n      jump\t// out\n        /* \"#utility.yul\":3838:3961   */\n    tag_108:\n        /* \"#utility.yul\":3931:3954   */\n      tag_178\n        /* \"#utility.yul\":3948:3953   */\n      dup2\n        /* \"#utility.yul\":3931:3954   */\n      tag_107\n      jump\t// in\n    tag_178:\n        /* \"#utility.yul\":3926:3929   */\n      dup3\n        /* \"#utility.yul\":3919:3955   */\n      mstore\n        /* \"#utility.yul\":3838:3961   */\n      pop\n      pop\n      jump\t// out\n        /* \"#utility.yul\":3967:4201   */\n    tag_17:\n        /* \"#utility.yul\":4066:4070   */\n      0x00\n        /* \"#utility.yul\":4104:4106   */\n      0x20\n        /* \"#utility.yul\":4093:4102   */\n      dup3\n        /* \"#utility.yul\":4089:4107   */\n      add\n        /* \"#utility.yul\":4081:4107   */\n      swap1\n      pop\n        /* \"#utility.yul\":4117:4194   */\n      tag_180\n        /* \"#utility.yul\":4191:4192   */\n      0x00\n        /* \"#utility.yul\":4180:4189   */\n      dup4\n        /* \"#utility.yul\":4176:4193   */\n      add\n        /* \"#utility.yul\":4167:4173   */\n      dup5\n        /* \"#utility.yul\":4117:4194   */\n      tag_108\n      jump\t// in\n    tag_180:\n        /* \"#utility.yul\":3967:4201   */\n      swap3\n      swap2\n      pop\n      pop\n      jump\t// out\n        /* \"#utility.yul\":4207:4284   */\n    tag_109:\n        /* \"#utility.yul\":4244:4251   */\n      0x00\n        /* \"#utility.yul\":4273:4278   */\n      dup2\n        /* \"#utility.yul\":4262:4278   */\n      swap1\n      pop\n        /* \"#utility.yul\":4207:4284   */\n      swap2\n      swap1\n      pop\n      jump\t// out\n        /* \"#utility.yul\":4290:4412   */\n    tag_110:\n        /* \"#utility.yul\":4363:4387   */\n      tag_183\n        /* \"#utility.yul\":4381:4386   */\n      dup2\n        /* \"#utility.yul\":4363:4387   */\n      tag_109\n      jump\t// in\n    tag_183:\n        /* \"#utility.yul\":4356:4361   */\n      dup2\n        /* \"#utility.yul\":4353:4388   */\n      eq\n        /* \"#utility.yul\":4343:4406   */\n      tag_184\n      jumpi\n        /* \"#utility.yul\":4402:4403   */\n      0x00\n        /* \"#utility.yul\":4399:4400   */\n      dup1\n        /* \"#utility.yul\":4392:4404   */\n      revert\n        /* \"#utility.yul\":4343:4406   */\n    tag_184:\n        /* \"#utility.yul\":4290:4412   */\n      pop\n      jump\t// out\n        /* \"#utility.yul\":4418:4557   */\n    tag_111:\n        /* \"#utility.yul\":4464:4469   */\n      0x00\n        /* \"#utility.yul\":4502:4508   */\n      dup2\n        /* \"#utility.yul\":4489:4509   */\n      calldataload\n        /* \"#utility.yul\":4480:4509   */\n      swap1\n      pop\n        /* \"#utility.yul\":4518:4551   */\n      tag_186\n        /* \"#utility.yul\":4545:4550   */\n      dup2\n        /* \"#utility.yul\":4518:4551   */\n      tag_110\n      jump\t// in\n    tag_186:\n        /* \"#utility.yul\":4418:4557   */\n      swap3\n      swap2\n      pop\n      pop\n      jump\t// out\n        /* \"#utility.yul\":4563:4680   */\n    tag_112:\n        /* \"#utility.yul\":4672:4673   */\n      0x00\n        /* \"#utility.yul\":4669:4670   */\n      dup1\n        /* \"#utility.yul\":4662:4674   */\n      revert\n        /* \"#utility.yul\":4686:4803   */\n    tag_113:\n        /* \"#utility.yul\":4795:4796   */\n      0x00\n        /* \"#utility.yul\":4792:4793   */\n      dup1\n        /* \"#utility.yul\":4785:4797   */\n      revert\n        /* \"#utility.yul\":4809:4926   */\n    tag_114:\n        /* \"#utility.yul\":4918:4919   */\n      0x00\n        /* \"#utility.yul\":4915:4916   */\n      dup1\n        /* \"#utility.yul\":4908:4920   */\n      revert\n        /* \"#utility.yul\":4949:5517   */\n    tag_115:\n        /* \"#utility.yul\":5022:5030   */\n      0x00\n        /* \"#utility.yul\":5032:5038   */\n      dup1\n        /* \"#utility.yul\":5082:5085   */\n      dup4\n        /* \"#utility.yul\":5075:5079   */\n      0x1f\n        /* \"#utility.yul\":5067:5073   */\n      dup5\n        /* \"#utility.yul\":5063:5080   */\n      add\n        /* \"#utility.yul\":5059:5086   */\n      slt\n        /* \"#utility.yul\":5049:5171   */\n      tag_191\n      jumpi\n        /* \"#utility.yul\":5090:5169   */\n      tag_192\n      tag_112\n      jump\t// in\n    tag_192:\n        /* \"#utility.yul\":5049:5171   */\n    tag_191:\n        /* \"#utility.yul\":5203:5209   */\n      dup3\n        /* \"#utility.yul\":5190:5210   */\n      calldataload\n        /* \"#utility.yul\":5180:5210   */\n      swap1\n      pop\n        /* \"#utility.yul\":5233:5251   */\n      0xffffffffffffffff\n        /* \"#utility.yul\":5225:5231   */\n      dup2\n        /* \"#utility.yul\":5222:5252   */\n      gt\n        /* \"#utility.yul\":5219:5336   */\n      iszero\n      tag_193\n      jumpi\n        /* \"#utility.yul\":5255:5334   */\n      tag_194\n      tag_113\n      jump\t// in\n    tag_194:\n        /* \"#utility.yul\":5219:5336   */\n    tag_193:\n        /* \"#utility.yul\":5369:5373   */\n      0x20\n        /* \"#utility.yul\":5361:5367   */\n      dup4\n        /* \"#utility.yul\":5357:5374   */\n      add\n        /* \"#utility.yul\":5345:5374   */\n      swap2\n      pop\n        /* \"#utility.yul\":5423:5426   */\n      dup4\n        /* \"#utility.yul\":5415:5419   */\n      0x20\n        /* \"#utility.yul\":5407:5413   */\n      dup3\n        /* \"#utility.yul\":5403:5420   */\n      mul\n        /* \"#utility.yul\":5393:5401   */\n      dup4\n        /* \"#utility.yul\":5389:5421   */\n      add\n        /* \"#utility.yul\":5386:5427   */\n      gt\n        /* \"#utility.yul\":5383:5511   */\n      iszero\n      tag_195\n      jumpi\n        /* \"#utility.yul\":5430:5509   */\n      tag_196\n      tag_114\n      jump\t// in\n    tag_196:\n        /* \"#utility.yul\":5383:5511   */\n    tag_195:\n        /* \"#utility.yul\":4949:5517   */\n      swap3\n      pop\n      swap3\n      swap1\n      pop\n      jump\t// out\n        /* \"#utility.yul\":5523:6518   */\n    tag_20:\n        /* \"#utility.yul\":5636:5642   */\n      0x00\n        /* \"#utility.yul\":5644:5650   */\n      dup1\n        /* \"#utility.yul\":5652:5658   */\n      0x00\n        /* \"#utility.yul\":5660:5666   */\n      dup1\n        /* \"#utility.yul\":5668:5674   */\n      0x00\n        /* \"#utility.yul\":5717:5720   */\n      0x80\n        /* \"#utility.yul\":5705:5714   */\n      dup7\n        /* \"#utility.yul\":5696:5703   */\n      dup9\n        /* \"#utility.yul\":5692:5715   */\n      sub\n        /* \"#utility.yul\":5688:5721   */\n      slt\n        /* \"#utility.yul\":5685:5805   */\n      iszero\n      tag_198\n      jumpi\n        /* \"#utility.yul\":5724:5803   */\n      tag_199\n      tag_94\n      jump\t// in\n    tag_199:\n        /* \"#utility.yul\":5685:5805   */\n    tag_198:\n        /* \"#utility.yul\":5844:5845   */\n      0x00\n        /* \"#utility.yul\":5869:5922   */\n      tag_200\n        /* \"#utility.yul\":5914:5921   */\n      dup9\n        /* \"#utility.yul\":5905:5911   */\n      dup3\n        /* \"#utility.yul\":5894:5903   */\n      dup10\n        /* \"#utility.yul\":5890:5912   */\n      add\n        /* \"#utility.yul\":5869:5922   */\n      tag_99\n      jump\t// in\n    tag_200:\n        /* \"#utility.yul\":5859:5922   */\n      swap6\n      pop\n        /* \"#utility.yul\":5815:5932   */\n      pop\n        /* \"#utility.yul\":5971:5973   */\n      0x20\n        /* \"#utility.yul\":5997:6050   */\n      tag_201\n        /* \"#utility.yul\":6042:6049   */\n      dup9\n        /* \"#utility.yul\":6033:6039   */\n      dup3\n        /* \"#utility.yul\":6022:6031   */\n      dup10\n        /* \"#utility.yul\":6018:6040   */\n      add\n        /* \"#utility.yul\":5997:6050   */\n      tag_111\n      jump\t// in\n    tag_201:\n        /* \"#utility.yul\":5987:6050   */\n      swap5\n      pop\n        /* \"#utility.yul\":5942:6060   */\n      pop\n        /* \"#utility.yul\":6099:6101   */\n      0x40\n        /* \"#utility.yul\":6125:6178   */\n      tag_202\n        /* \"#utility.yul\":6170:6177   */\n      dup9\n        /* \"#utility.yul\":6161:6167   */\n      dup3\n        /* \"#utility.yul\":6150:6159   */\n      dup10\n        /* \"#utility.yul\":6146:6168   */\n      add\n        /* \"#utility.yul\":6125:6178   */\n      tag_111\n      jump\t// in\n    tag_202:\n        /* \"#utility.yul\":6115:6178   */\n      swap4\n      pop\n        /* \"#utility.yul\":6070:6188   */\n      pop\n        /* \"#utility.yul\":6255:6257   */\n      0x60\n        /* \"#utility.yul\":6244:6253   */\n      dup7\n        /* \"#utility.yul\":6240:6258   */\n      add\n        /* \"#utility.yul\":6227:6259   */\n      calldataload\n        /* \"#utility.yul\":6286:6304   */\n      0xffffffffffffffff\n        /* \"#utility.yul\":6278:6284   */\n      dup2\n        /* \"#utility.yul\":6275:6305   */\n      gt\n        /* \"#utility.yul\":6272:6389   */\n      iszero\n      tag_203\n      jumpi\n        /* \"#utility.yul\":6308:6387   */\n      tag_204\n      tag_95\n      jump\t// in\n    tag_204:\n        /* \"#utility.yul\":6272:6389   */\n    tag_203:\n        /* \"#utility.yul\":6421:6501   */\n      tag_205\n        /* \"#utility.yul\":6493:6500   */\n      dup9\n        /* \"#utility.yul\":6484:6490   */\n      dup3\n        /* \"#utility.yul\":6473:6482   */\n      dup10\n        /* \"#utility.yul\":6469:6491   */\n      add\n        /* \"#utility.yul\":6421:6501   */\n      tag_115\n      jump\t// in\n    tag_205:\n        /* \"#utility.yul\":6403:6501   */\n      swap3\n      pop\n      swap3\n      pop\n        /* \"#utility.yul\":6198:6511   */\n      pop\n        /* \"#utility.yul\":5523:6518   */\n      swap3\n      swap6\n      pop\n      swap3\n      swap6\n      swap1\n      swap4\n      pop\n      jump\t// out\n        /* \"#utility.yul\":6524:6650   */\n    tag_116:\n        /* \"#utility.yul\":6619:6643   */\n      tag_207\n        /* \"#utility.yul\":6637:6642   */\n      dup2\n        /* \"#utility.yul\":6619:6643   */\n      tag_109\n      jump\t// in\n    tag_207:\n        /* \"#utility.yul\":6614:6617   */\n      dup3\n        /* \"#utility.yul\":6607:6644   */\n      mstore\n        /* \"#utility.yul\":6524:6650   */\n      pop\n      pop\n      jump\t// out\n        /* \"#utility.yul\":6656:6894   */\n    tag_23:\n        /* \"#utility.yul\":6757:6761   */\n      0x00\n        /* \"#utility.yul\":6795:6797   */\n      0x20\n        /* \"#utility.yul\":6784:6793   */\n      dup3\n        /* \"#utility.yul\":6780:6798   */\n      add\n        /* \"#utility.yul\":6772:6798   */\n      swap1\n      pop\n        /* \"#utility.yul\":6808:6887   */\n      tag_209\n        /* \"#utility.yul\":6884:6885   */\n      0x00\n        /* \"#utility.yul\":6873:6882   */\n      dup4\n        /* \"#utility.yul\":6869:6886   */\n      add\n        /* \"#utility.yul\":6860:6866   */\n      dup5\n        /* \"#utility.yul\":6808:6887   */\n      tag_116\n      jump\t// in\n    tag_209:\n        /* \"#utility.yul\":6656:6894   */\n      swap3\n      swap2\n      pop\n      pop\n      jump\t// out\n        /* \"#utility.yul\":6900:7749   */\n    tag_26:\n        /* \"#utility.yul\":7004:7010   */\n      0x00\n        /* \"#utility.yul\":7012:7018   */\n      dup1\n        /* \"#utility.yul\":7020:7026   */\n      0x00\n        /* \"#utility.yul\":7028:7034   */\n      dup1\n        /* \"#utility.yul\":7077:7079   */\n      0x60\n        /* \"#utility.yul\":7065:7074   */\n      dup6\n        /* \"#utility.yul\":7056:7063   */\n      dup8\n        /* \"#utility.yul\":7052:7075   */\n      sub\n        /* \"#utility.yul\":7048:7080   */\n      slt\n        /* \"#utility.yul\":7045:7164   */\n      iszero\n      tag_211\n      jumpi\n        /* \"#utility.yul\":7083:7162   */\n      tag_212\n      tag_94\n      jump\t// in\n    tag_212:\n        /* \"#utility.yul\":7045:7164   */\n    tag_211:\n        /* \"#utility.yul\":7203:7204   */\n      0x00\n        /* \"#utility.yul\":7228:7281   */\n      tag_213\n        /* \"#utility.yul\":7273:7280   */\n      dup8\n        /* \"#utility.yul\":7264:7270   */\n      dup3\n        /* \"#utility.yul\":7253:7262   */\n      dup9\n        /* \"#utility.yul\":7249:7271   */\n      add\n        /* \"#utility.yul\":7228:7281   */\n      tag_99\n      jump\t// in\n    tag_213:\n        /* \"#utility.yul\":7218:7281   */\n      swap5\n      pop\n        /* \"#utility.yul\":7174:7291   */\n      pop\n        /* \"#utility.yul\":7330:7332   */\n      0x20\n        /* \"#utility.yul\":7356:7409   */\n      tag_214\n        /* \"#utility.yul\":7401:7408   */\n      dup8\n        /* \"#utility.yul\":7392:7398   */\n      dup3\n        /* \"#utility.yul\":7381:7390   */\n      dup9\n        /* \"#utility.yul\":7377:7399   */\n      add\n        /* \"#utility.yul\":7356:7409   */\n      tag_111\n      jump\t// in\n    tag_214:\n        /* \"#utility.yul\":7346:7409   */\n      swap4\n      pop\n        /* \"#utility.yul\":7301:7419   */\n      pop\n        /* \"#utility.yul\":7486:7488   */\n      0x40\n        /* \"#utility.yul\":7475:7484   */\n      dup6\n        /* \"#utility.yul\":7471:7489   */\n      add\n        /* \"#utility.yul\":7458:7490   */\n      calldataload\n        /* \"#utility.yul\":7517:7535   */\n      0xffffffffffffffff\n        /* \"#utility.yul\":7509:7515   */\n      dup2\n        /* \"#utility.yul\":7506:7536   */\n      gt\n        /* \"#utility.yul\":7503:7620   */\n      iszero\n      tag_215\n      jumpi\n        /* \"#utility.yul\":7539:7618   */\n      tag_216\n      tag_95\n      jump\t// in\n    tag_216:\n        /* \"#utility.yul\":7503:7620   */\n    tag_215:\n        /* \"#utility.yul\":7652:7732   */\n      tag_217\n        /* \"#utility.yul\":7724:7731   */\n      dup8\n        /* \"#utility.yul\":7715:7721   */\n      dup3\n        /* \"#utility.yul\":7704:7713   */\n      dup9\n        /* \"#utility.yul\":7700:7722   */\n      add\n        /* \"#utility.yul\":7652:7732   */\n      tag_115\n      jump\t// in\n    tag_217:\n        /* \"#utility.yul\":7634:7732   */\n      swap3\n      pop\n      swap3\n      pop\n        /* \"#utility.yul\":7429:7742   */\n      pop\n        /* \"#utility.yul\":6900:7749   */\n      swap3\n      swap6\n      swap2\n      swap5\n      pop\n      swap3\n      pop\n      jump\t// out\n        /* \"#utility.yul\":7755:7881   */\n    tag_117:\n        /* \"#utility.yul\":7850:7874   */\n      tag_219\n        /* \"#utility.yul\":7868:7873   */\n      dup2\n        /* \"#utility.yul\":7850:7874   */\n      tag_96\n      jump\t// in\n    tag_219:\n        /* \"#utility.yul\":7845:7848   */\n      dup3\n        /* \"#utility.yul\":7838:7875   */\n      mstore\n        /* \"#utility.yul\":7755:7881   */\n      pop\n      pop\n      jump\t// out\n        /* \"#utility.yul\":7887:8125   */\n    tag_29:\n        /* \"#utility.yul\":7988:7992   */\n      0x00\n        /* \"#utility.yul\":8026:8028   */\n      0x20\n        /* \"#utility.yul\":8015:8024   */\n      dup3\n        /* \"#utility.yul\":8011:8029   */\n      add\n        /* \"#utility.yul\":8003:8029   */\n      swap1\n      pop\n        /* \"#utility.yul\":8039:8118   */\n      tag_221\n        /* \"#utility.yul\":8115:8116   */\n      0x00\n        /* \"#utility.yul\":8104:8113   */\n      dup4\n        /* \"#utility.yul\":8100:8117   */\n      add\n        /* \"#utility.yul\":8091:8097   */\n      dup5\n        /* \"#utility.yul\":8039:8118   */\n      tag_117\n      jump\t// in\n    tag_221:\n        /* \"#utility.yul\":7887:8125   */\n      swap3\n      swap2\n      pop\n      pop\n      jump\t// out\n        /* \"#utility.yul\":8131:8311   */\n    tag_33:\n        /* \"#utility.yul\":8179:8256   */\n      0x4e487b7100000000000000000000000000000000000000000000000000000000\n        /* \"#utility.yul\":8176:8177   */\n      0x00\n        /* \"#utility.yul\":8169:8257   */\n      mstore\n        /* \"#utility.yul\":8276:8280   */\n      0x41\n        /* \"#utility.yul\":8273:8274   */\n      0x04\n        /* \"#utility.yul\":8266:8281   */\n      mstore\n        /* \"#utility.yul\":8300:8304   */\n      0x24\n        /* \"#utility.yul\":8297:8298   */\n      0x00\n        /* \"#utility.yul\":8290:8305   */\n      revert\n        /* \"#utility.yul\":8317:8497   */\n    tag_39:\n        /* \"#utility.yul\":8365:8442   */\n      0x4e487b7100000000000000000000000000000000000000000000000000000000\n        /* \"#utility.yul\":8362:8363   */\n      0x00\n        /* \"#utility.yul\":8355:8443   */\n      mstore\n        /* \"#utility.yul\":8462:8466   */\n      0x32\n        /* \"#utility.yul\":8459:8460   */\n      0x04\n        /* \"#utility.yul\":8452:8467   */\n      mstore\n        /* \"#utility.yul\":8486:8490   */\n      0x24\n        /* \"#utility.yul\":8483:8484   */\n      0x00\n        /* \"#utility.yul\":8476:8491   */\n      revert\n        /* \"#utility.yul\":8503:8623   */\n    tag_118:\n        /* \"#utility.yul\":8575:8598   */\n      tag_225\n        /* \"#utility.yul\":8592:8597   */\n      dup2\n        /* \"#utility.yul\":8575:8598   */\n      tag_107\n      jump\t// in\n    tag_225:\n        /* \"#utility.yul\":8568:8573   */\n      dup2\n        /* \"#utility.yul\":8565:8599   */\n      eq\n        /* \"#utility.yul\":8555:8617   */\n      tag_226\n      jumpi\n        /* \"#utility.yul\":8613:8614   */\n      0x00\n        /* \"#utility.yul\":8610:8611   */\n      dup1\n        /* \"#utility.yul\":8603:8615   */\n      revert\n        /* \"#utility.yul\":8555:8617   */\n    tag_226:\n        /* \"#utility.yul\":8503:8623   */\n      pop\n      jump\t// out\n        /* \"#utility.yul\":8629:8770   */\n    tag_119:\n        /* \"#utility.yul\":8685:8690   */\n      0x00\n        /* \"#utility.yul\":8716:8722   */\n      dup2\n        /* \"#utility.yul\":8710:8723   */\n      mload\n        /* \"#utility.yul\":8701:8723   */\n      swap1\n      pop\n        /* \"#utility.yul\":8732:8764   */\n      tag_228\n        /* \"#utility.yul\":8758:8763   */\n      dup2\n        /* \"#utility.yul\":8732:8764   */\n      tag_118\n      jump\t// in\n    tag_228:\n        /* \"#utility.yul\":8629:8770   */\n      swap3\n      swap2\n      pop\n      pop\n      jump\t// out\n        /* \"#utility.yul\":8776:9125   */\n    tag_46:\n        /* \"#utility.yul\":8845:8851   */\n      0x00\n        /* \"#utility.yul\":8894:8896   */\n      0x20\n        /* \"#utility.yul\":8882:8891   */\n      dup3\n        /* \"#utility.yul\":8873:8880   */\n      dup5\n        /* \"#utility.yul\":8869:8892   */\n      sub\n        /* \"#utility.yul\":8865:8897   */\n      slt\n        /* \"#utility.yul\":8862:8981   */\n      iszero\n      tag_230\n      jumpi\n        /* \"#utility.yul\":8900:8979   */\n      tag_231\n      tag_94\n      jump\t// in\n    tag_231:\n        /* \"#utility.yul\":8862:8981   */\n    tag_230:\n        /* \"#utility.yul\":9020:9021   */\n      0x00\n        /* \"#utility.yul\":9045:9108   */\n      tag_232\n        /* \"#utility.yul\":9100:9107   */\n      dup5\n        /* \"#utility.yul\":9091:9097   */\n      dup3\n        /* \"#utility.yul\":9080:9089   */\n      dup6\n        /* \"#utility.yul\":9076:9098   */\n      add\n        /* \"#utility.yul\":9045:9108   */\n      tag_119\n      jump\t// in\n    tag_232:\n        /* \"#utility.yul\":9035:9108   */\n      swap2\n      pop\n        /* \"#utility.yul\":8991:9118   */\n      pop\n        /* \"#utility.yul\":8776:9125   */\n      swap3\n      swap2\n      pop\n      pop\n      jump\t// out\n        /* \"#utility.yul\":9131:9311   */\n    tag_120:\n        /* \"#utility.yul\":9179:9256   */\n      0x4e487b7100000000000000000000000000000000000000000000000000000000\n        /* \"#utility.yul\":9176:9177   */\n      0x00\n        /* \"#utility.yul\":9169:9257   */\n      mstore\n        /* \"#utility.yul\":9276:9280   */\n      0x11\n        /* \"#utility.yul\":9273:9274   */\n      0x04\n        /* \"#utility.yul\":9266:9281   */\n      mstore\n        /* \"#utility.yul\":9300:9304   */\n      0x24\n        /* \"#utility.yul\":9297:9298   */\n      0x00\n        /* \"#utility.yul\":9290:9305   */\n      revert\n        /* \"#utility.yul\":9317:9727   */\n    tag_51:\n        /* \"#utility.yul\":9357:9364   */\n      0x00\n        /* \"#utility.yul\":9380:9400   */\n      tag_235\n        /* \"#utility.yul\":9398:9399   */\n      dup3\n        /* \"#utility.yul\":9380:9400   */\n      tag_109\n      jump\t// in\n    tag_235:\n        /* \"#utility.yul\":9375:9400   */\n      swap2\n      pop\n        /* \"#utility.yul\":9414:9434   */\n      tag_236\n        /* \"#utility.yul\":9432:9433   */\n      dup4\n        /* \"#utility.yul\":9414:9434   */\n      tag_109\n      jump\t// in\n    tag_236:\n        /* \"#utility.yul\":9409:9434   */\n      swap3\n      pop\n        /* \"#utility.yul\":9469:9470   */\n      dup3\n        /* \"#utility.yul\":9466:9467   */\n      dup3\n        /* \"#utility.yul\":9462:9471   */\n      mul\n        /* \"#utility.yul\":9491:9521   */\n      tag_237\n        /* \"#utility.yul\":9509:9520   */\n      dup2\n        /* \"#utility.yul\":9491:9521   */\n      tag_109\n      jump\t// in\n    tag_237:\n        /* \"#utility.yul\":9480:9521   */\n      swap2\n      pop\n        /* \"#utility.yul\":9670:9671   */\n      dup3\n        /* \"#utility.yul\":9661:9668   */\n      dup3\n        /* \"#utility.yul\":9657:9672   */\n      div\n        /* \"#utility.yul\":9654:9655   */\n      dup5\n        /* \"#utility.yul\":9651:9673   */\n      eq\n        /* \"#utility.yul\":9631:9632   */\n      dup4\n        /* \"#utility.yul\":9624:9633   */\n      iszero\n        /* \"#utility.yul\":9604:9687   */\n      or\n        /* \"#utility.yul\":9581:9720   */\n      tag_238\n      jumpi\n        /* \"#utility.yul\":9700:9718   */\n      tag_239\n      tag_120\n      jump\t// in\n    tag_239:\n        /* \"#utility.yul\":9581:9720   */\n    tag_238:\n        /* \"#utility.yul\":9365:9727   */\n      pop\n        /* \"#utility.yul\":9317:9727   */\n      swap3\n      swap2\n      pop\n      pop\n      jump\t// out\n        /* \"#utility.yul\":9733:9913   */\n    tag_121:\n        /* \"#utility.yul\":9781:9858   */\n      0x4e487b7100000000000000000000000000000000000000000000000000000000\n        /* \"#utility.yul\":9778:9779   */\n      0x00\n        /* \"#utility.yul\":9771:9859   */\n      mstore\n        /* \"#utility.yul\":9878:9882   */\n      0x12\n        /* \"#utility.yul\":9875:9876   */\n      0x04\n        /* \"#utility.yul\":9868:9883   */\n      mstore\n        /* \"#utility.yul\":9902:9906   */\n      0x24\n        /* \"#utility.yul\":9899:9900   */\n      0x00\n        /* \"#utility.yul\":9892:9907   */\n      revert\n        /* \"#utility.yul\":9919:10104   */\n    tag_63:\n        /* \"#utility.yul\":9959:9960   */\n      0x00\n        /* \"#utility.yul\":9976:9996   */\n      tag_242\n        /* \"#utility.yul\":9994:9995   */\n      dup3\n        /* \"#utility.yul\":9976:9996   */\n      tag_109\n      jump\t// in\n    tag_242:\n        /* \"#utility.yul\":9971:9996   */\n      swap2\n      pop\n        /* \"#utility.yul\":10010:10030   */\n      tag_243\n        /* \"#utility.yul\":10028:10029   */\n      dup4\n        /* \"#utility.yul\":10010:10030   */\n      tag_109\n      jump\t// in\n    tag_243:\n        /* \"#utility.yul\":10005:10030   */\n      swap3\n      pop\n        /* \"#utility.yul\":10049:10050   */\n      dup3\n        /* \"#utility.yul\":10039:10074   */\n      tag_244\n      jumpi\n        /* \"#utility.yul\":10054:10072   */\n      tag_245\n      tag_121\n      jump\t// in\n    tag_245:\n        /* \"#utility.yul\":10039:10074   */\n    tag_244:\n        /* \"#utility.yul\":10096:10097   */\n      dup3\n        /* \"#utility.yul\":10093:10094   */\n      dup3\n        /* \"#utility.yul\":10089:10098   */\n      div\n        /* \"#utility.yul\":10084:10098   */\n      swap1\n      pop\n        /* \"#utility.yul\":9919:10104   */\n      swap3\n      swap2\n      pop\n      pop\n      jump\t// out\n        /* \"#utility.yul\":10110:10304   */\n    tag_65:\n        /* \"#utility.yul\":10150:10154   */\n      0x00\n        /* \"#utility.yul\":10170:10190   */\n      tag_247\n        /* \"#utility.yul\":10188:10189   */\n      dup3\n        /* \"#utility.yul\":10170:10190   */\n      tag_109\n      jump\t// in\n    tag_247:\n        /* \"#utility.yul\":10165:10190   */\n      swap2\n      pop\n        /* \"#utility.yul\":10204:10224   */\n      tag_248\n        /* \"#utility.yul\":10222:10223   */\n      dup4\n        /* \"#utility.yul\":10204:10224   */\n      tag_109\n      jump\t// in\n    tag_248:\n        /* \"#utility.yul\":10199:10224   */\n      swap3\n      pop\n        /* \"#utility.yul\":10248:10249   */\n      dup3\n        /* \"#utility.yul\":10245:10246   */\n      dup3\n        /* \"#utility.yul\":10241:10250   */\n      sub\n        /* \"#utility.yul\":10233:10250   */\n      swap1\n      pop\n        /* \"#utility.yul\":10272:10273   */\n      dup2\n        /* \"#utility.yul\":10266:10270   */\n      dup2\n        /* \"#utility.yul\":10263:10274   */\n      gt\n        /* \"#utility.yul\":10260:10297   */\n      iszero\n      tag_249\n      jumpi\n        /* \"#utility.yul\":10277:10295   */\n      tag_250\n      tag_120\n      jump\t// in\n    tag_250:\n        /* \"#utility.yul\":10260:10297   */\n    tag_249:\n        /* \"#utility.yul\":10110:10304   */\n      swap3\n      swap2\n      pop\n      pop\n      jump\t// out\n        /* \"#utility.yul\":10310:10720   */\n    tag_78:\n        /* \"#utility.yul\":10350:10357   */\n      0x00\n        /* \"#utility.yul\":10373:10393   */\n      tag_252\n        /* \"#utility.yul\":10391:10392   */\n      dup3\n        /* \"#utility.yul\":10373:10393   */\n      tag_96\n      jump\t// in\n    tag_252:\n        /* \"#utility.yul\":10368:10393   */\n      swap2\n      pop\n        /* \"#utility.yul\":10407:10427   */\n      tag_253\n        /* \"#utility.yul\":10425:10426   */\n      dup4\n        /* \"#utility.yul\":10407:10427   */\n      tag_96\n      jump\t// in\n    tag_253:\n        /* \"#utility.yul\":10402:10427   */\n      swap3\n      pop\n        /* \"#utility.yul\":10462:10463   */\n      dup3\n        /* \"#utility.yul\":10459:10460   */\n      dup3\n        /* \"#utility.yul\":10455:10464   */\n      mul\n        /* \"#utility.yul\":10484:10514   */\n      tag_254\n        /* \"#utility.yul\":10502:10513   */\n      dup2\n        /* \"#utility.yul\":10484:10514   */\n      tag_96\n      jump\t// in\n    tag_254:\n        /* \"#utility.yul\":10473:10514   */\n      swap2\n      pop\n        /* \"#utility.yul\":10663:10664   */\n      dup3\n        /* \"#utility.yul\":10654:10661   */\n      dup3\n        /* \"#utility.yul\":10650:10665   */\n      div\n        /* \"#utility.yul\":10647:10648   */\n      dup5\n        /* \"#utility.yul\":10644:10666   */\n      eq\n        /* \"#utility.yul\":10624:10625   */\n      dup4\n        /* \"#utility.yul\":10617:10626   */\n      iszero\n        /* \"#utility.yul\":10597:10680   */\n      or\n        /* \"#utility.yul\":10574:10713   */\n      tag_255\n      jumpi\n        /* \"#utility.yul\":10693:10711   */\n      tag_256\n      tag_120\n      jump\t// in\n    tag_256:\n        /* \"#utility.yul\":10574:10713   */\n    tag_255:\n        /* \"#utility.yul\":10358:10720   */\n      pop\n        /* \"#utility.yul\":10310:10720   */\n      swap3\n      swap2\n      pop\n      pop\n      jump\t// out\n        /* \"#utility.yul\":10726:10911   */\n    tag_80:\n        /* \"#utility.yul\":10766:10767   */\n      0x00\n        /* \"#utility.yul\":10783:10803   */\n      tag_258\n        /* \"#utility.yul\":10801:10802   */\n      dup3\n        /* \"#utility.yul\":10783:10803   */\n      tag_96\n      jump\t// in\n    tag_258:\n        /* \"#utility.yul\":10778:10803   */\n      swap2\n      pop\n        /* \"#utility.yul\":10817:10837   */\n      tag_259\n        /* \"#utility.yul\":10835:10836   */\n      dup4\n        /* \"#utility.yul\":10817:10837   */\n      tag_96\n      jump\t// in\n    tag_259:\n        /* \"#utility.yul\":10812:10837   */\n      swap3\n      pop\n        /* \"#utility.yul\":10856:10857   */\n      dup3\n        /* \"#utility.yul\":10846:10881   */\n      tag_260\n      jumpi\n        /* \"#utility.yul\":10861:10879   */\n      tag_261\n      tag_121\n      jump\t// in\n    tag_261:\n        /* \"#utility.yul\":10846:10881   */\n    tag_260:\n        /* \"#utility.yul\":10903:10904   */\n      dup3\n        /* \"#utility.yul\":10900:10901   */\n      dup3\n        /* \"#utility.yul\":10896:10905   */\n      div\n        /* \"#utility.yul\":10891:10905   */\n      swap1\n      pop\n        /* \"#utility.yul\":10726:10911   */\n      swap3\n      swap2\n      pop\n      pop\n      jump\t// out\n        /* \"#utility.yul\":10917:11152   */\n    tag_82:\n        /* \"#utility.yul\":10957:10961   */\n      0x00\n        /* \"#utility.yul\":10977:10997   */\n      tag_263\n        /* \"#utility.yul\":10995:10996   */\n      dup3\n        /* \"#utility.yul\":10977:10997   */\n      tag_96\n      jump\t// in\n    tag_263:\n        /* \"#utility.yul\":10972:10997   */\n      swap2\n      pop\n        /* \"#utility.yul\":11011:11031   */\n      tag_264\n        /* \"#utility.yul\":11029:11030   */\n      dup4\n        /* \"#utility.yul\":11011:11031   */\n      tag_96\n      jump\t// in\n    tag_264:\n        /* \"#utility.yul\":11006:11031   */\n      swap3\n      pop\n        /* \"#utility.yul\":11055:11056   */\n      dup3\n        /* \"#utility.yul\":11052:11053   */\n      dup3\n        /* \"#utility.yul\":11048:11057   */\n      sub\n        /* \"#utility.yul\":11040:11057   */\n      swap1\n      pop\n        /* \"#utility.yul\":11079:11121   */\n      0xffffffffffffffffffffffffffffffffffffffff\n        /* \"#utility.yul\":11073:11077   */\n      dup2\n        /* \"#utility.yul\":11070:11122   */\n      gt\n        /* \"#utility.yul\":11067:11145   */\n      iszero\n      tag_265\n      jumpi\n        /* \"#utility.yul\":11125:11143   */\n      tag_266\n      tag_120\n      jump\t// in\n    tag_266:\n        /* \"#utility.yul\":11067:11145   */\n    tag_265:\n        /* \"#utility.yul\":10917:11152   */\n      swap3\n      swap2\n      pop\n      pop\n      jump\t// out\n        /* \"#utility.yul\":11158:11390   */\n    tag_87:\n        /* \"#utility.yul\":11198:11201   */\n      0x00\n        /* \"#utility.yul\":11217:11237   */\n      tag_268\n        /* \"#utility.yul\":11235:11236   */\n      dup3\n        /* \"#utility.yul\":11217:11237   */\n      tag_96\n      jump\t// in\n    tag_268:\n        /* \"#utility.yul\":11212:11237   */\n      swap2\n      pop\n        /* \"#utility.yul\":11251:11271   */\n      tag_269\n        /* \"#utility.yul\":11269:11270   */\n      dup4\n        /* \"#utility.yul\":11251:11271   */\n      tag_96\n      jump\t// in\n    tag_269:\n        /* \"#utility.yul\":11246:11271   */\n      swap3\n      pop\n        /* \"#utility.yul\":11294:11295   */\n      dup3\n        /* \"#utility.yul\":11291:11292   */\n      dup3\n        /* \"#utility.yul\":11287:11296   */\n      add\n        /* \"#utility.yul\":11280:11296   */\n      swap1\n      pop\n        /* \"#utility.yul\":11317:11359   */\n      0xffffffffffffffffffffffffffffffffffffffff\n        /* \"#utility.yul\":11312:11315   */\n      dup2\n        /* \"#utility.yul\":11309:11360   */\n      gt\n        /* \"#utility.yul\":11306:11383   */\n      iszero\n      tag_270\n      jumpi\n        /* \"#utility.yul\":11363:11381   */\n      tag_271\n      tag_120\n      jump\t// in\n    tag_271:\n        /* \"#utility.yul\":11306:11383   */\n    tag_270:\n        /* \"#utility.yul\":11158:11390   */\n      swap3\n      swap2\n      pop\n      pop\n      jump\t// out\n        /* \"#utility.yul\":11396:11518   */\n    tag_122:\n        /* \"#utility.yul\":11469:11493   */\n      tag_273\n        /* \"#utility.yul\":11487:11492   */\n      dup2\n        /* \"#utility.yul\":11469:11493   */\n      tag_96\n      jump\t// in\n    tag_273:\n        /* \"#utility.yul\":11462:11467   */\n      dup2\n        /* \"#utility.yul\":11459:11494   */\n      eq\n        /* \"#utility.yul\":11449:11512   */\n      tag_274\n      jumpi\n        /* \"#utility.yul\":11508:11509   */\n      0x00\n        /* \"#utility.yul\":11505:11506   */\n      dup1\n        /* \"#utility.yul\":11498:11510   */\n      revert\n        /* \"#utility.yul\":11449:11512   */\n    tag_274:\n        /* \"#utility.yul\":11396:11518   */\n      pop\n      jump\t// out\n        /* \"#utility.yul\":11524:11667   */\n    tag_123:\n        /* \"#utility.yul\":11581:11586   */\n      0x00\n        /* \"#utility.yul\":11612:11618   */\n      dup2\n        /* \"#utility.yul\":11606:11619   */\n      mload\n        /* \"#utility.yul\":11597:11619   */\n      swap1\n      pop\n        /* \"#utility.yul\":11628:11661   */\n      tag_276\n        /* \"#utility.yul\":11655:11660   */\n      dup2\n        /* \"#utility.yul\":11628:11661   */\n      tag_122\n      jump\t// in\n    tag_276:\n        /* \"#utility.yul\":11524:11667   */\n      swap3\n      swap2\n      pop\n      pop\n      jump\t// out\n        /* \"#utility.yul\":11673:11763   */\n    tag_124:\n        /* \"#utility.yul\":11708:11715   */\n      0x00\n        /* \"#utility.yul\":11751:11756   */\n      dup2\n        /* \"#utility.yul\":11748:11749   */\n      0x02\n        /* \"#utility.yul\":11737:11757   */\n      signextend\n        /* \"#utility.yul\":11726:11757   */\n      swap1\n      pop\n        /* \"#utility.yul\":11673:11763   */\n      swap2\n      swap1\n      pop\n      jump\t// out\n        /* \"#utility.yul\":11769:11887   */\n    tag_125:\n        /* \"#utility.yul\":11840:11862   */\n      tag_279\n        /* \"#utility.yul\":11856:11861   */\n      dup2\n        /* \"#utility.yul\":11840:11862   */\n      tag_124\n      jump\t// in\n    tag_279:\n        /* \"#utility.yul\":11833:11838   */\n      dup2\n        /* \"#utility.yul\":11830:11863   */\n      eq\n        /* \"#utility.yul\":11820:11881   */\n      tag_280\n      jumpi\n        /* \"#utility.yul\":11877:11878   */\n      0x00\n        /* \"#utility.yul\":11874:11875   */\n      dup1\n        /* \"#utility.yul\":11867:11879   */\n      revert\n        /* \"#utility.yul\":11820:11881   */\n    tag_280:\n        /* \"#utility.yul\":11769:11887   */\n      pop\n      jump\t// out\n        /* \"#utility.yul\":11893:12032   */\n    tag_126:\n        /* \"#utility.yul\":11948:11953   */\n      0x00\n        /* \"#utility.yul\":11979:11985   */\n      dup2\n        /* \"#utility.yul\":11973:11986   */\n      mload\n        /* \"#utility.yul\":11964:11986   */\n      swap1\n      pop\n        /* \"#utility.yul\":11995:12026   */\n      tag_282\n        /* \"#utility.yul\":12020:12025   */\n      dup2\n        /* \"#utility.yul\":11995:12026   */\n      tag_125\n      jump\t// in\n    tag_282:\n        /* \"#utility.yul\":11893:12032   */\n      swap3\n      swap2\n      pop\n      pop\n      jump\t// out\n        /* \"#utility.yul\":12038:12127   */\n    tag_127:\n        /* \"#utility.yul\":12074:12081   */\n      0x00\n        /* \"#utility.yul\":12114:12120   */\n      0xffff\n        /* \"#utility.yul\":12107:12112   */\n      dup3\n        /* \"#utility.yul\":12103:12121   */\n      and\n        /* \"#utility.yul\":12092:12121   */\n      swap1\n      pop\n        /* \"#utility.yul\":12038:12127   */\n      swap2\n      swap1\n      pop\n      jump\t// out\n        /* \"#utility.yul\":12133:12253   */\n    tag_128:\n        /* \"#utility.yul\":12205:12228   */\n      tag_285\n        /* \"#utility.yul\":12222:12227   */\n      dup2\n        /* \"#utility.yul\":12205:12228   */\n      tag_127\n      jump\t// in\n    tag_285:\n        /* \"#utility.yul\":12198:12203   */\n      dup2\n        /* \"#utility.yul\":12195:12229   */\n      eq\n        /* \"#utility.yul\":12185:12247   */\n      tag_286\n      jumpi\n        /* \"#utility.yul\":12243:12244   */\n      0x00\n        /* \"#utility.yul\":12240:12241   */\n      dup1\n        /* \"#utility.yul\":12233:12245   */\n      revert\n        /* \"#utility.yul\":12185:12247   */\n    tag_286:\n        /* \"#utility.yul\":12133:12253   */\n      pop\n      jump\t// out\n        /* \"#utility.yul\":12259:12400   */\n    tag_129:\n        /* \"#utility.yul\":12315:12320   */\n      0x00\n        /* \"#utility.yul\":12346:12352   */\n      dup2\n        /* \"#utility.yul\":12340:12353   */\n      mload\n        /* \"#utility.yul\":12331:12353   */\n      swap1\n      pop\n        /* \"#utility.yul\":12362:12394   */\n      tag_288\n        /* \"#utility.yul\":12388:12393   */\n      dup2\n        /* \"#utility.yul\":12362:12394   */\n      tag_128\n      jump\t// in\n    tag_288:\n        /* \"#utility.yul\":12259:12400   */\n      swap3\n      swap2\n      pop\n      pop\n      jump\t// out\n        /* \"#utility.yul\":12406:12492   */\n    tag_130:\n        /* \"#utility.yul\":12441:12448   */\n      0x00\n        /* \"#utility.yul\":12481:12485   */\n      0xff\n        /* \"#utility.yul\":12474:12479   */\n      dup3\n        /* \"#utility.yul\":12470:12486   */\n      and\n        /* \"#utility.yul\":12459:12486   */\n      swap1\n      pop\n        /* \"#utility.yul\":12406:12492   */\n      swap2\n      swap1\n      pop\n      jump\t// out\n        /* \"#utility.yul\":12498:12616   */\n    tag_131:\n        /* \"#utility.yul\":12569:12591   */\n      tag_291\n        /* \"#utility.yul\":12585:12590   */\n      dup2\n        /* \"#utility.yul\":12569:12591   */\n      tag_130\n      jump\t// in\n    tag_291:\n        /* \"#utility.yul\":12562:12567   */\n      dup2\n        /* \"#utility.yul\":12559:12592   */\n      eq\n        /* \"#utility.yul\":12549:12610   */\n      tag_292\n      jumpi\n        /* \"#utility.yul\":12606:12607   */\n      0x00\n        /* \"#utility.yul\":12603:12604   */\n      dup1\n        /* \"#utility.yul\":12596:12608   */\n      revert\n        /* \"#utility.yul\":12549:12610   */\n    tag_292:\n        /* \"#utility.yul\":12498:12616   */\n      pop\n      jump\t// out\n        /* \"#utility.yul\":12622:12761   */\n    tag_132:\n        /* \"#utility.yul\":12677:12682   */\n      0x00\n        /* \"#utility.yul\":12708:12714   */\n      dup2\n        /* \"#utility.yul\":12702:12715   */\n      mload\n        /* \"#utility.yul\":12693:12715   */\n      swap1\n      pop\n        /* \"#utility.yul\":12724:12755   */\n      tag_294\n        /* \"#utility.yul\":12749:12754   */\n      dup2\n        /* \"#utility.yul\":12724:12755   */\n      tag_131\n      jump\t// in\n    tag_294:\n        /* \"#utility.yul\":12622:12761   */\n      swap3\n      swap2\n      pop\n      pop\n      jump\t// out\n        /* \"#utility.yul\":12767:12857   */\n    tag_133:\n        /* \"#utility.yul\":12801:12808   */\n      0x00\n        /* \"#utility.yul\":12844:12849   */\n      dup2\n        /* \"#utility.yul\":12837:12850   */\n      iszero\n        /* \"#utility.yul\":12830:12851   */\n      iszero\n        /* \"#utility.yul\":12819:12851   */\n      swap1\n      pop\n        /* \"#utility.yul\":12767:12857   */\n      swap2\n      swap1\n      pop\n      jump\t// out\n        /* \"#utility.yul\":12863:12979   */\n    tag_134:\n        /* \"#utility.yul\":12933:12954   */\n      tag_297\n        /* \"#utility.yul\":12948:12953   */\n      dup2\n        /* \"#utility.yul\":12933:12954   */\n      tag_133\n      jump\t// in\n    tag_297:\n        /* \"#utility.yul\":12926:12931   */\n      dup2\n        /* \"#utility.yul\":12923:12955   */\n      eq\n        /* \"#utility.yul\":12913:12973   */\n      tag_298\n      jumpi\n        /* \"#utility.yul\":12969:12970   */\n      0x00\n        /* \"#utility.yul\":12966:12967   */\n      dup1\n        /* \"#utility.yul\":12959:12971   */\n      revert\n        /* \"#utility.yul\":12913:12973   */\n    tag_298:\n        /* \"#utility.yul\":12863:12979   */\n      pop\n      jump\t// out\n        /* \"#utility.yul\":12985:13122   */\n    tag_135:\n        /* \"#utility.yul\":13039:13044   */\n      0x00\n        /* \"#utility.yul\":13070:13076   */\n      dup2\n        /* \"#utility.yul\":13064:13077   */\n      mload\n        /* \"#utility.yul\":13055:13077   */\n      swap1\n      pop\n        /* \"#utility.yul\":13086:13116   */\n      tag_300\n        /* \"#utility.yul\":13110:13115   */\n      dup2\n        /* \"#utility.yul\":13086:13116   */\n      tag_134\n      jump\t// in\n    tag_300:\n        /* \"#utility.yul\":12985:13122   */\n      swap3\n      swap2\n      pop\n      pop\n      jump\t// out\n        /* \"#utility.yul\":13128:14399   */\n    tag_92:\n        /* \"#utility.yul\":13242:13248   */\n      0x00\n        /* \"#utility.yul\":13250:13256   */\n      dup1\n        /* \"#utility.yul\":13258:13264   */\n      0x00\n        /* \"#utility.yul\":13266:13272   */\n      dup1\n        /* \"#utility.yul\":13274:13280   */\n      0x00\n        /* \"#utility.yul\":13282:13288   */\n      dup1\n        /* \"#utility.yul\":13290:13296   */\n      0x00\n        /* \"#utility.yul\":13339:13342   */\n      0xe0\n        /* \"#utility.yul\":13327:13336   */\n      dup9\n        /* \"#utility.yul\":13318:13325   */\n      dup11\n        /* \"#utility.yul\":13314:13337   */\n      sub\n        /* \"#utility.yul\":13310:13343   */\n      slt\n        /* \"#utility.yul\":13307:13427   */\n      iszero\n      tag_302\n      jumpi\n        /* \"#utility.yul\":13346:13425   */\n      tag_303\n      tag_94\n      jump\t// in\n    tag_303:\n        /* \"#utility.yul\":13307:13427   */\n    tag_302:\n        /* \"#utility.yul\":13466:13467   */\n      0x00\n        /* \"#utility.yul\":13491:13555   */\n      tag_304\n        /* \"#utility.yul\":13547:13554   */\n      dup11\n        /* \"#utility.yul\":13538:13544   */\n      dup3\n        /* \"#utility.yul\":13527:13536   */\n      dup12\n        /* \"#utility.yul\":13523:13545   */\n      add\n        /* \"#utility.yul\":13491:13555   */\n      tag_123\n      jump\t// in\n    tag_304:\n        /* \"#utility.yul\":13481:13555   */\n      swap8\n      pop\n        /* \"#utility.yul\":13437:13565   */\n      pop\n        /* \"#utility.yul\":13604:13606   */\n      0x20\n        /* \"#utility.yul\":13630:13692   */\n      tag_305\n        /* \"#utility.yul\":13684:13691   */\n      dup11\n        /* \"#utility.yul\":13675:13681   */\n      dup3\n        /* \"#utility.yul\":13664:13673   */\n      dup12\n        /* \"#utility.yul\":13660:13682   */\n      add\n        /* \"#utility.yul\":13630:13692   */\n      tag_126\n      jump\t// in\n    tag_305:\n        /* \"#utility.yul\":13620:13692   */\n      swap7\n      pop\n        /* \"#utility.yul\":13575:13702   */\n      pop\n        /* \"#utility.yul\":13741:13743   */\n      0x40\n        /* \"#utility.yul\":13767:13830   */\n      tag_306\n        /* \"#utility.yul\":13822:13829   */\n      dup11\n        /* \"#utility.yul\":13813:13819   */\n      dup3\n        /* \"#utility.yul\":13802:13811   */\n      dup12\n        /* \"#utility.yul\":13798:13820   */\n      add\n        /* \"#utility.yul\":13767:13830   */\n      tag_129\n      jump\t// in\n    tag_306:\n        /* \"#utility.yul\":13757:13830   */\n      swap6\n      pop\n        /* \"#utility.yul\":13712:13840   */\n      pop\n        /* \"#utility.yul\":13879:13881   */\n      0x60\n        /* \"#utility.yul\":13905:13968   */\n      tag_307\n        /* \"#utility.yul\":13960:13967   */\n      dup11\n        /* \"#utility.yul\":13951:13957   */\n      dup3\n        /* \"#utility.yul\":13940:13949   */\n      dup12\n        /* \"#utility.yul\":13936:13958   */\n      add\n        /* \"#utility.yul\":13905:13968   */\n      tag_129\n      jump\t// in\n    tag_307:\n        /* \"#utility.yul\":13895:13968   */\n      swap5\n      pop\n        /* \"#utility.yul\":13850:13978   */\n      pop\n        /* \"#utility.yul\":14017:14020   */\n      0x80\n        /* \"#utility.yul\":14044:14107   */\n      tag_308\n        /* \"#utility.yul\":14099:14106   */\n      dup11\n        /* \"#utility.yul\":14090:14096   */\n      dup3\n        /* \"#utility.yul\":14079:14088   */\n      dup12\n        /* \"#utility.yul\":14075:14097   */\n      add\n        /* \"#utility.yul\":14044:14107   */\n      tag_129\n      jump\t// in\n    tag_308:\n        /* \"#utility.yul\":14034:14107   */\n      swap4\n      pop\n        /* \"#utility.yul\":13988:14117   */\n      pop\n        /* \"#utility.yul\":14156:14159   */\n      0xa0\n        /* \"#utility.yul\":14183:14245   */\n      tag_309\n        /* \"#utility.yul\":14237:14244   */\n      dup11\n        /* \"#utility.yul\":14228:14234   */\n      dup3\n        /* \"#utility.yul\":14217:14226   */\n      dup12\n        /* \"#utility.yul\":14213:14235   */\n      add\n        /* \"#utility.yul\":14183:14245   */\n      tag_132\n      jump\t// in\n    tag_309:\n        /* \"#utility.yul\":14173:14245   */\n      swap3\n      pop\n        /* \"#utility.yul\":14127:14255   */\n      pop\n        /* \"#utility.yul\":14294:14297   */\n      0xc0\n        /* \"#utility.yul\":14321:14382   */\n      tag_310\n        /* \"#utility.yul\":14374:14381   */\n      dup11\n        /* \"#utility.yul\":14365:14371   */\n      dup3\n        /* \"#utility.yul\":14354:14363   */\n      dup12\n        /* \"#utility.yul\":14350:14372   */\n      add\n        /* \"#utility.yul\":14321:14382   */\n      tag_135\n      jump\t// in\n    tag_310:\n        /* \"#utility.yul\":14311:14382   */\n      swap2\n      pop\n        /* \"#utility.yul\":14265:14392   */\n      pop\n        /* \"#utility.yul\":13128:14399   */\n      swap3\n      swap6\n      swap9\n      swap2\n      swap5\n      swap8\n      pop\n      swap3\n      swap6\n      pop\n      jump\t// out\n\n    auxdata: 0xa2646970667358221220a5ed3f0b49016b6b3f6b47efda28b173611e44bedb5def4020b30045d88e5fd664736f6c634300081c0033\n}\n",
				"bytecode": {
					"linkReferences": {},
					"object": "610df8610052600b82828239805160001a6073146045577f4e487b7100000000000000000000000000000000000000000000000000000000600052600060045260246000fd5b30600052607381538281f3fe73000000000000000000000000000000000000000030146080604052600436106100565760003560e01c80631da2d5711461005b57806342fcc6fb1461008b57806371302915146100bb578063da91803e146100eb575b600080fd5b610075600480360381019061007091906105e0565b61011b565b60405161008291906106de565b60405180910390f35b6100a560048036038101906100a09190610700565b61024a565b6040516100b2919061074b565b60405180910390f35b6100d560048036038101906100d09190610801565b6102c2565b6040516100e29190610898565b60405180910390f35b610105600480360381019061010091906108b3565b610405565b6040516101129190610936565b60405180910390f35b60606000600267ffffffffffffffff81111561013a57610139610951565b5b6040519080825280602002602001820160405280156101685781602001602082028036833780820191505090505b5090508273ffffffffffffffffffffffffffffffffffffffff168473ffffffffffffffffffffffffffffffffffffffff16116101a55783836101a8565b82845b826000815181106101bc576101bb610980565b5b60200260200101836001815181106101d7576101d6610980565b5b602002602001018273ffffffffffffffffffffffffffffffffffffffff1673ffffffffffffffffffffffffffffffffffffffff168152508273ffffffffffffffffffffffffffffffffffffffff1673ffffffffffffffffffffffffffffffffffffffff1681525050508091505092915050565b60008173ffffffffffffffffffffffffffffffffffffffff1663ddca3f436040518163ffffffff1660e01b8152600401602060405180830381865afa158015610297573d6000803e3d6000fd5b505050506040513d601f19601f820116820180604052508101906102bb91906109db565b9050919050565b6000806102ce876104f5565b9050600060608273ffffffffffffffffffffffffffffffffffffffff168373ffffffffffffffffffffffffffffffffffffffff1661030c9190610a37565b901c905060008585600181811061032657610325610980565b5b905060200201602081019061033b9190610700565b73ffffffffffffffffffffffffffffffffffffffff168686600081811061036557610364610980565b5b905060200201602081019061037a9190610700565b73ffffffffffffffffffffffffffffffffffffffff16116103aa57606082886103a39190610a37565b901c6103cf565b816c01000000000000000000000000886103c49190610a37565b6103ce9190610aa8565b5b90506103e8886103e86103e29190610ad9565b826103ed9190610a37565b6103f79190610aa8565b935050505095945050505050565b600080610411866104f5565b905060008484600181811061042957610428610980565b5b905060200201602081019061043e9190610700565b73ffffffffffffffffffffffffffffffffffffffff168585600081811061046857610467610980565b5b905060200201602081019061047d9190610700565b73ffffffffffffffffffffffffffffffffffffffff16116104c1576103e886836104a79190610b0d565b6104b19190610b4f565b826104bc9190610b80565b6104e6565b6103e886836104d09190610b0d565b6104da9190610b4f565b826104e59190610bc8565b5b90508092505050949350505050565b6000808273ffffffffffffffffffffffffffffffffffffffff16633850c7bd6040518163ffffffff1660e01b815260040160e060405180830381865afa158015610543573d6000803e3d6000fd5b505050506040513d601f19601f820116820180604052508101906105679190610d20565b505050505050905080915050919050565b600080fd5b600080fd5b600073ffffffffffffffffffffffffffffffffffffffff82169050919050565b60006105ad82610582565b9050919050565b6105bd816105a2565b81146105c857600080fd5b50565b6000813590506105da816105b4565b92915050565b600080604083850312156105f7576105f6610578565b5b6000610605858286016105cb565b9250506020610616858286016105cb565b9150509250929050565b600081519050919050565b600082825260208201905092915050565b6000819050602082019050919050565b610655816105a2565b82525050565b6000610667838361064c565b60208301905092915050565b6000602082019050919050565b600061068b82610620565b610695818561062b565b93506106a08361063c565b8060005b838110156106d15781516106b8888261065b565b97506106c383610673565b9250506001810190506106a4565b5085935050505092915050565b600060208201905081810360008301526106f88184610680565b905092915050565b60006020828403121561071657610715610578565b5b6000610724848285016105cb565b91505092915050565b600062ffffff82169050919050565b6107458161072d565b82525050565b6000602082019050610760600083018461073c565b92915050565b6000819050919050565b61077981610766565b811461078457600080fd5b50565b60008135905061079681610770565b92915050565b600080fd5b600080fd5b600080fd5b60008083601f8401126107c1576107c061079c565b5b8235905067ffffffffffffffff8111156107de576107dd6107a1565b5b6020830191508360208202830111156107fa576107f96107a6565b5b9250929050565b60008060008060006080868803121561081d5761081c610578565b5b600061082b888289016105cb565b955050602061083c88828901610787565b945050604061084d88828901610787565b935050606086013567ffffffffffffffff81111561086e5761086d61057d565b5b61087a888289016107ab565b92509250509295509295909350565b61089281610766565b82525050565b60006020820190506108ad6000830184610889565b92915050565b600080600080606085870312156108cd576108cc610578565b5b60006108db878288016105cb565b94505060206108ec87828801610787565b935050604085013567ffffffffffffffff81111561090d5761090c61057d565b5b610919878288016107ab565b925092505092959194509250565b61093081610582565b82525050565b600060208201905061094b6000830184610927565b92915050565b7f4e487b7100000000000000000000000000000000000000000000000000000000600052604160045260246000fd5b7f4e487b7100000000000000000000000000000000000000000000000000000000600052603260045260246000fd5b6109b88161072d565b81146109c357600080fd5b50565b6000815190506109d5816109af565b92915050565b6000602082840312156109f1576109f0610578565b5b60006109ff848285016109c6565b91505092915050565b7f4e487b7100000000000000000000000000000000000000000000000000000000600052601160045260246000fd5b6000610a4282610766565b9150610a4d83610766565b9250828202610a5b81610766565b91508282048414831517610a7257610a71610a08565b5b5092915050565b7f4e487b7100000000000000000000000000000000000000000000000000000000600052601260045260246000fd5b6000610ab382610766565b9150610abe83610766565b925082610ace57610acd610a79565b5b828204905092915050565b6000610ae482610766565b9150610aef83610766565b9250828203905081811115610b0757610b06610a08565b5b92915050565b6000610b1882610582565b9150610b2383610582565b9250828202610b3181610582565b91508282048414831517610b4857610b47610a08565b5b5092915050565b6000610b5a82610582565b9150610b6583610582565b925082610b7557610b74610a79565b5b828204905092915050565b6000610b8b82610582565b9150610b9683610582565b9250828203905073ffffffffffffffffffffffffffffffffffffffff811115610bc257610bc1610a08565b5b92915050565b6000610bd382610582565b9150610bde83610582565b9250828201905073ffffffffffffffffffffffffffffffffffffffff811115610c0a57610c09610a08565b5b92915050565b610c1981610582565b8114610c2457600080fd5b50565b600081519050610c3681610c10565b92915050565b60008160020b9050919050565b610c5281610c3c565b8114610c5d57600080fd5b50565b600081519050610c6f81610c49565b92915050565b600061ffff82169050919050565b610c8c81610c75565b8114610c9757600080fd5b50565b600081519050610ca981610c83565b92915050565b600060ff82169050919050565b610cc581610caf565b8114610cd057600080fd5b50565b600081519050610ce281610cbc565b92915050565b60008115159050919050565b610cfd81610ce8565b8114610d0857600080fd5b50565b600081519050610d1a81610cf4565b92915050565b600080600080600080600060e0888a031215610d3f57610d3e610578565b5b6000610d4d8a828b01610c27565b9750506020610d5e8a828b01610c60565b9650506040610d6f8a828b01610c9a565b9550506060610d808a828b01610c9a565b9450506080610d918a828b01610c9a565b93505060a0610da28a828b01610cd3565b92505060c0610db38a828b01610d0b565b9150509295989194975092955056fea2646970667358221220a5ed3f0b49016b6b3f6b47efda28b173611e44bedb5def4020b30045d88e5fd664736f6c634300081c0033",
					"opcodes": "PUSH2 0xDF8 PUSH2 0x52 PUSH1 0xB DUP3 DUP3 DUP3 CODECOPY DUP1 MLOAD PUSH1 0x0 BYTE PUSH1 0x73 EQ PUSH1 0x45 JUMPI PUSH32 0x4E487B7100000000000000000000000000000000000000000000000000000000 PUSH1 0x0 MSTORE PUSH1 0x0 PUSH1 0x4 MSTORE PUSH1 0x24 PUSH1 0x0 REVERT JUMPDEST ADDRESS PUSH1 0x0 MSTORE PUSH1 0x73 DUP2 MSTORE8 DUP3 DUP2 RETURN INVALID PUSH20 0x0 ADDRESS EQ PUSH1 0x80 PUSH1 0x40 MSTORE PUSH1 0x4 CALLDATASIZE LT PUSH2 0x56 JUMPI PUSH1 0x0 CALLDATALOAD PUSH1 0xE0 SHR DUP1 PUSH4 0x1DA2D571 EQ PUSH2 0x5B JUMPI DUP1 PUSH4 0x42FCC6FB EQ PUSH2 0x8B JUMPI DUP1 PUSH4 0x71302915 EQ PUSH2 0xBB JUMPI DUP1 PUSH4 0xDA91803E EQ PUSH2 0xEB JUMPI JUMPDEST PUSH1 0x0 DUP1 REVERT JUMPDEST PUSH2 0x75 PUSH1 0x4 DUP1 CALLDATASIZE SUB DUP2 ADD SWAP1 PUSH2 0x70 SWAP2 SWAP1 PUSH2 0x5E0 JUMP JUMPDEST PUSH2 0x11B JUMP JUMPDEST PUSH1 0x40 MLOAD PUSH2 0x82 SWAP2 SWAP1 PUSH2 0x6DE JUMP JUMPDEST PUSH1 0x40 MLOAD DUP1 SWAP2 SUB SWAP1 RETURN JUMPDEST PUSH2 0xA5 PUSH1 0x4 DUP1 CALLDATASIZE SUB DUP2 ADD SWAP1 PUSH2 0xA0 SWAP2 SWAP1 PUSH2 0x700 JUMP JUMPDEST PUSH2 0x24A JUMP JUMPDEST PUSH1 0x40 MLOAD PUSH2 0xB2 SWAP2 SWAP1 PUSH2 0x74B JUMP JUMPDEST PUSH1 0x40 MLOAD DUP1 SWAP2 SUB SWAP1 RETURN JUMPDEST PUSH2 0xD5 PUSH1 0x4 DUP1 CALLDATASIZE SUB DUP2 ADD SWAP1 PUSH2 0xD0 SWAP2 SWAP1 PUSH2 0x801 JUMP JUMPDEST PUSH2 0x2C2 JUMP JUMPDEST PUSH1 0x40 MLOAD PUSH2 0xE2 SWAP2 SWAP1 PUSH2 0x898 JUMP JUMPDEST PUSH1 0x40 MLOAD DUP1 SWAP2 SUB SWAP1 RETURN JUMPDEST PUSH2 0x105 PUSH1 0x4 DUP1 CALLDATASIZE SUB DUP2 ADD SWAP1 PUSH2 0x100 SWAP2 SWAP1 PUSH2 0x8B3 JUMP JUMPDEST PUSH2 0x405 JUMP JUMPDEST PUSH1 0x40 MLOAD PUSH2 0x112 SWAP2 SWAP1 PUSH2 0x936 JUMP JUMPDEST PUSH1 0x40 MLOAD DUP1 SWAP2 SUB SWAP1 RETURN JUMPDEST PUSH1 0x60 PUSH1 0x0 PUSH1 0x2 PUSH8 0xFFFFFFFFFFFFFFFF DUP2 GT ISZERO PUSH2 0x13A JUMPI PUSH2 0x139 PUSH2 0x951 JUMP JUMPDEST JUMPDEST PUSH1 0x40 MLOAD SWAP1 DUP1 DUP3 MSTORE DUP1 PUSH1 0x20 MUL PUSH1 0x20 ADD DUP3 ADD PUSH1 0x40 MSTORE DUP1 ISZERO PUSH2 0x168 JUMPI DUP2 PUSH1 0x20 ADD PUSH1 0x20 DUP3 MUL DUP1 CALLDATASIZE DUP4 CALLDATACOPY DUP1 DUP3 ADD SWAP2 POP POP SWAP1 POP JUMPDEST POP SWAP1 POP DUP3 PUSH20 0xFFFFFFFFFFFFFFFFFFFFFFFFFFFFFFFFFFFFFFFF AND DUP5 PUSH20 0xFFFFFFFFFFFFFFFFFFFFFFFFFFFFFFFFFFFFFFFF AND GT PUSH2 0x1A5 JUMPI DUP4 DUP4 PUSH2 0x1A8 JUMP JUMPDEST DUP3 DUP5 JUMPDEST DUP3 PUSH1 0x0 DUP2 MLOAD DUP2 LT PUSH2 0x1BC JUMPI PUSH2 0x1BB PUSH2 0x980 JUMP JUMPDEST JUMPDEST PUSH1 0x20 MUL PUSH1 0x20 ADD ADD DUP4 PUSH1 0x1 DUP2 MLOAD DUP2 LT PUSH2 0x1D7 JUMPI PUSH2 0x1D6 PUSH2 0x980 JUMP JUMPDEST JUMPDEST PUSH1 0x20 MUL PUSH1 0x20 ADD ADD DUP3 PUSH20 0xFFFFFFFFFFFFFFFFFFFFFFFFFFFFFFFFFFFFFFFF AND PUSH20 0xFFFFFFFFFFFFFFFFFFFFFFFFFFFFFFFFFFFFFFFF AND DUP2 MSTORE POP DUP3 PUSH20 0xFFFFFFFFFFFFFFFFFFFFFFFFFFFFFFFFFFFFFFFF AND PUSH20 0xFFFFFFFFFFFFFFFFFFFFFFFFFFFFFFFFFFFFFFFF AND DUP2 MSTORE POP POP POP DUP1 SWAP2 POP POP SWAP3 SWAP2 POP POP JUMP JUMPDEST PUSH1 0x0 DUP2 PUSH20 0xFFFFFFFFFFFFFFFFFFFFFFFFFFFFFFFFFFFFFFFF AND PUSH4 0xDDCA3F43 PUSH1 0x40 MLOAD DUP2 PUSH4 0xFFFFFFFF AND PUSH1 0xE0 SHL DUP2 MSTORE PUSH1 0x4 ADD PUSH1 0x20 PUSH1 0x40 MLOAD DUP1 DUP4 SUB DUP2 DUP7 GAS STATICCALL ISZERO DUP1 ISZERO PUSH2 0x297 JUMPI RETURNDATASIZE PUSH1 0x0 DUP1 RETURNDATACOPY RETURNDATASIZE PUSH1 0x0 REVERT JUMPDEST POP POP POP POP PUSH1 0x40 MLOAD RETURNDATASIZE PUSH1 0x1F NOT PUSH1 0x1F DUP3 ADD AND DUP3 ADD DUP1 PUSH1 0x40 MSTORE POP DUP2 ADD SWAP1 PUSH2 0x2BB SWAP2 SWAP1 PUSH2 0x9DB JUMP JUMPDEST SWAP1 POP SWAP2 SWAP1 POP JUMP JUMPDEST PUSH1 0x0 DUP1 PUSH2 0x2CE DUP8 PUSH2 0x4F5 JUMP JUMPDEST SWAP1 POP PUSH1 0x0 PUSH1 0x60 DUP3 PUSH20 0xFFFFFFFFFFFFFFFFFFFFFFFFFFFFFFFFFFFFFFFF AND DUP4 PUSH20 0xFFFFFFFFFFFFFFFFFFFFFFFFFFFFFFFFFFFFFFFF AND PUSH2 0x30C SWAP2 SWAP1 PUSH2 0xA37 JUMP JUMPDEST SWAP1 SHR SWAP1 POP PUSH1 0x0 DUP6 DUP6 PUSH1 0x1 DUP2 DUP2 LT PUSH2 0x326 JUMPI PUSH2 0x325 PUSH2 0x980 JUMP JUMPDEST JUMPDEST SWAP1 POP PUSH1 0x20 MUL ADD PUSH1 0x20 DUP2 ADD SWAP1 PUSH2 0x33B SWAP2 SWAP1 PUSH2 0x700 JUMP JUMPDEST PUSH20 0xFFFFFFFFFFFFFFFFFFFFFFFFFFFFFFFFFFFFFFFF AND DUP7 DUP7 PUSH1 0x0 DUP2 DUP2 LT PUSH2 0x365 JUMPI PUSH2 0x364 PUSH2 0x980 JUMP JUMPDEST JUMPDEST SWAP1 POP PUSH1 0x20 MUL ADD PUSH1 0x20 DUP2 ADD SWAP1 PUSH2 0x37A SWAP2 SWAP1 PUSH2 0x700 JUMP JUMPDEST PUSH20 0xFFFFFFFFFFFFFFFFFFFFFFFFFFFFFFFFFFFFFFFF AND GT PUSH2 0x3AA JUMPI PUSH1 0x60 DUP3 DUP9 PUSH2 0x3A3 SWAP2 SWAP1 PUSH2 0xA37 JUMP JUMPDEST SWAP1 SHR PUSH2 0x3CF JUMP JUMPDEST DUP2 PUSH13 0x1000000000000000000000000 DUP9 PUSH2 0x3C4 SWAP2 SWAP1 PUSH2 0xA37 JUMP JUMPDEST PUSH2 0x3CE SWAP2 SWAP1 PUSH2 0xAA8 JUMP JUMPDEST JUMPDEST SWAP1 POP PUSH2 0x3E8 DUP9 PUSH2 0x3E8 PUSH2 0x3E2 SWAP2 SWAP1 PUSH2 0xAD9 JUMP JUMPDEST DUP3 PUSH2 0x3ED SWAP2 SWAP1 PUSH2 0xA37 JUMP JUMPDEST PUSH2 0x3F7 SWAP2 SWAP1 PUSH2 0xAA8 JUMP JUMPDEST SWAP4 POP POP POP POP SWAP6 SWAP5 POP POP POP POP POP JUMP JUMPDEST PUSH1 0x0 DUP1 PUSH2 0x411 DUP7 PUSH2 0x4F5 JUMP JUMPDEST SWAP1 POP PUSH1 0x0 DUP5 DUP5 PUSH1 0x1 DUP2 DUP2 LT PUSH2 0x429 JUMPI PUSH2 0x428 PUSH2 0x980 JUMP JUMPDEST JUMPDEST SWAP1 POP PUSH1 0x20 MUL ADD PUSH1 0x20 DUP2 ADD SWAP1 PUSH2 0x43E SWAP2 SWAP1 PUSH2 0x700 JUMP JUMPDEST PUSH20 0xFFFFFFFFFFFFFFFFFFFFFFFFFFFFFFFFFFFFFFFF AND DUP6 DUP6 PUSH1 0x0 DUP2 DUP2 LT PUSH2 0x468 JUMPI PUSH2 0x467 PUSH2 0x980 JUMP JUMPDEST JUMPDEST SWAP1 POP PUSH1 0x20 MUL ADD PUSH1 0x20 DUP2 ADD SWAP1 PUSH2 0x47D SWAP2 SWAP1 PUSH2 0x700 JUMP JUMPDEST PUSH20 0xFFFFFFFFFFFFFFFFFFFFFFFFFFFFFFFFFFFFFFFF AND GT PUSH2 0x4C1 JUMPI PUSH2 0x3E8 DUP7 DUP4 PUSH2 0x4A7 SWAP2 SWAP1 PUSH2 0xB0D JUMP JUMPDEST PUSH2 0x4B1 SWAP2 SWAP1 PUSH2 0xB4F JUMP JUMPDEST DUP3 PUSH2 0x4BC SWAP2 SWAP1 PUSH2 0xB80 JUMP JUMPDEST PUSH2 0x4E6 JUMP JUMPDEST PUSH2 0x3E8 DUP7 DUP4 PUSH2 0x4D0 SWAP2 SWAP1 PUSH2 0xB0D JUMP JUMPDEST PUSH2 0x4DA SWAP2 SWAP1 PUSH2 0xB4F JUMP JUMPDEST DUP3 PUSH2 0x4E5 SWAP2 SWAP1 PUSH2 0xBC8 JUMP JUMPDEST JUMPDEST SWAP1 POP DUP1 SWAP3 POP POP POP SWAP5 SWAP4 POP POP POP POP JUMP JUMPDEST PUSH1 0x0 DUP1 DUP3 PUSH20 0xFFFFFFFFFFFFFFFFFFFFFFFFFFFFFFFFFFFFFFFF AND PUSH4 0x3850C7BD PUSH1 0x40 MLOAD DUP2 PUSH4 0xFFFFFFFF AND PUSH1 0xE0 SHL DUP2 MSTORE PUSH1 0x4 ADD PUSH1 0xE0 PUSH1 0x40 MLOAD DUP1 DUP4 SUB DUP2 DUP7 GAS STATICCALL ISZERO DUP1 ISZERO PUSH2 0x543 JUMPI RETURNDATASIZE PUSH1 0x0 DUP1 RETURNDATACOPY RETURNDATASIZE PUSH1 0x0 REVERT JUMPDEST POP POP POP POP PUSH1 0x40 MLOAD RETURNDATASIZE PUSH1 0x1F NOT PUSH1 0x1F DUP3 ADD AND DUP3 ADD DUP1 PUSH1 0x40 MSTORE POP DUP2 ADD SWAP1 PUSH2 0x567 SWAP2 SWAP1 PUSH2 0xD20 JUMP JUMPDEST POP POP POP POP POP POP SWAP1 POP DUP1 SWAP2 POP POP SWAP2 SWAP1 POP JUMP JUMPDEST PUSH1 0x0 DUP1 REVERT JUMPDEST PUSH1 0x0 DUP1 REVERT JUMPDEST PUSH1 0x0 PUSH20 0xFFFFFFFFFFFFFFFFFFFFFFFFFFFFFFFFFFFFFFFF DUP3 AND SWAP1 POP SWAP2 SWAP1 POP JUMP JUMPDEST PUSH1 0x0 PUSH2 0x5AD DUP3 PUSH2 0x582 JUMP JUMPDEST SWAP1 POP SWAP2 SWAP1 POP JUMP JUMPDEST PUSH2 0x5BD DUP2 PUSH2 0x5A2 JUMP JUMPDEST DUP2 EQ PUSH2 0x5C8 JUMPI PUSH1 0x0 DUP1 REVERT JUMPDEST POP JUMP JUMPDEST PUSH1 0x0 DUP2 CALLDATALOAD SWAP1 POP PUSH2 0x5DA DUP2 PUSH2 0x5B4 JUMP JUMPDEST SWAP3 SWAP2 POP POP JUMP JUMPDEST PUSH1 0x0 DUP1 PUSH1 0x40 DUP4 DUP6 SUB SLT ISZERO PUSH2 0x5F7 JUMPI PUSH2 0x5F6 PUSH2 0x578 JUMP JUMPDEST JUMPDEST PUSH1 0x0 PUSH2 0x605 DUP6 DUP3 DUP7 ADD PUSH2 0x5CB JUMP JUMPDEST SWAP3 POP POP PUSH1 0x20 PUSH2 0x616 DUP6 DUP3 DUP7 ADD PUSH2 0x5CB JUMP JUMPDEST SWAP2 POP POP SWAP3 POP SWAP3 SWAP1 POP JUMP JUMPDEST PUSH1 0x0 DUP2 MLOAD SWAP1 POP SWAP2 SWAP1 POP JUMP JUMPDEST PUSH1 0x0 DUP3 DUP3 MSTORE PUSH1 0x20 DUP3 ADD SWAP1 POP SWAP3 SWAP2 POP POP JUMP JUMPDEST PUSH1 0x0 DUP2 SWAP1 POP PUSH1 0x20 DUP3 ADD SWAP1 POP SWAP2 SWAP1 POP JUMP JUMPDEST PUSH2 0x655 DUP2 PUSH2 0x5A2 JUMP JUMPDEST DUP3 MSTORE POP POP JUMP JUMPDEST PUSH1 0x0 PUSH2 0x667 DUP4 DUP4 PUSH2 0x64C JUMP JUMPDEST PUSH1 0x20 DUP4 ADD SWAP1 POP SWAP3 SWAP2 POP POP JUMP JUMPDEST PUSH1 0x0 PUSH1 0x20 DUP3 ADD SWAP1 POP SWAP2 SWAP1 POP JUMP JUMPDEST PUSH1 0x0 PUSH2 0x68B DUP3 PUSH2 0x620 JUMP JUMPDEST PUSH2 0x695 DUP2 DUP6 PUSH2 0x62B JUMP JUMPDEST SWAP4 POP PUSH2 0x6A0 DUP4 PUSH2 0x63C JUMP JUMPDEST DUP1 PUSH1 0x0 JUMPDEST DUP4 DUP2 LT ISZERO PUSH2 0x6D1 JUMPI DUP2 MLOAD PUSH2 0x6B8 DUP9 DUP3 PUSH2 0x65B JUMP JUMPDEST SWAP8 POP PUSH2 0x6C3 DUP4 PUSH2 0x673 JUMP JUMPDEST SWAP3 POP POP PUSH1 0x1 DUP2 ADD SWAP1 POP PUSH2 0x6A4 JUMP JUMPDEST POP DUP6 SWAP4 POP POP POP POP SWAP3 SWAP2 POP POP JUMP JUMPDEST PUSH1 0x0 PUSH1 0x20 DUP3 ADD SWAP1 POP DUP2 DUP2 SUB PUSH1 0x0 DUP4 ADD MSTORE PUSH2 0x6F8 DUP2 DUP5 PUSH2 0x680 JUMP JUMPDEST SWAP1 POP SWAP3 SWAP2 POP POP JUMP JUMPDEST PUSH1 0x0 PUSH1 0x20 DUP3 DUP5 SUB SLT ISZERO PUSH2 0x716 JUMPI PUSH2 0x715 PUSH2 0x578 JUMP JUMPDEST JUMPDEST PUSH1 0x0 PUSH2 0x724 DUP5 DUP3 DUP6 ADD PUSH2 0x5CB JUMP JUMPDEST SWAP2 POP POP SWAP3 SWAP2 POP POP JUMP JUMPDEST PUSH1 0x0 PUSH3 0xFFFFFF DUP3 AND SWAP1 POP SWAP2 SWAP1 POP JUMP JUMPDEST PUSH2 0x745 DUP2 PUSH2 0x72D JUMP JUMPDEST DUP3 MSTORE POP POP JUMP JUMPDEST PUSH1 0x0 PUSH1 0x20 DUP3 ADD SWAP1 POP PUSH2 0x760 PUSH1 0x0 DUP4 ADD DUP5 PUSH2 0x73C JUMP JUMPDEST SWAP3 SWAP2 POP POP JUMP JUMPDEST PUSH1 0x0 DUP2 SWAP1 POP SWAP2 SWAP1 POP JUMP JUMPDEST PUSH2 0x779 DUP2 PUSH2 0x766 JUMP JUMPDEST DUP2 EQ PUSH2 0x784 JUMPI PUSH1 0x0 DUP1 REVERT JUMPDEST POP JUMP JUMPDEST PUSH1 0x0 DUP2 CALLDATALOAD SWAP1 POP PUSH2 0x796 DUP2 PUSH2 0x770 JUMP JUMPDEST SWAP3 SWAP2 POP POP JUMP JUMPDEST PUSH1 0x0 DUP1 REVERT JUMPDEST PUSH1 0x0 DUP1 REVERT JUMPDEST PUSH1 0x0 DUP1 REVERT JUMPDEST PUSH1 0x0 DUP1 DUP4 PUSH1 0x1F DUP5 ADD SLT PUSH2 0x7C1 JUMPI PUSH2 0x7C0 PUSH2 0x79C JUMP JUMPDEST JUMPDEST DUP3 CALLDATALOAD SWAP1 POP PUSH8 0xFFFFFFFFFFFFFFFF DUP2 GT ISZERO PUSH2 0x7DE JUMPI PUSH2 0x7DD PUSH2 0x7A1 JUMP JUMPDEST JUMPDEST PUSH1 0x20 DUP4 ADD SWAP2 POP DUP4 PUSH1 0x20 DUP3 MUL DUP4 ADD GT ISZERO PUSH2 0x7FA JUMPI PUSH2 0x7F9 PUSH2 0x7A6 JUMP JUMPDEST JUMPDEST SWAP3 POP SWAP3 SWAP1 POP JUMP JUMPDEST PUSH1 0x0 DUP1 PUSH1 0x0 DUP1 PUSH1 0x0 PUSH1 0x80 DUP7 DUP9 SUB SLT ISZERO PUSH2 0x81D JUMPI PUSH2 0x81C PUSH2 0x578 JUMP JUMPDEST JUMPDEST PUSH1 0x0 PUSH2 0x82B DUP9 DUP3 DUP10 ADD PUSH2 0x5CB JUMP JUMPDEST SWAP6 POP POP PUSH1 0x20 PUSH2 0x83C DUP9 DUP3 DUP10 ADD PUSH2 0x787 JUMP JUMPDEST SWAP5 POP POP PUSH1 0x40 PUSH2 0x84D DUP9 DUP3 DUP10 ADD PUSH2 0x787 JUMP JUMPDEST SWAP4 POP POP PUSH1 0x60 DUP7 ADD CALLDATALOAD PUSH8 0xFFFFFFFFFFFFFFFF DUP2 GT ISZERO PUSH2 0x86E JUMPI PUSH2 0x86D PUSH2 0x57D JUMP JUMPDEST JUMPDEST PUSH2 0x87A DUP9 DUP3 DUP10 ADD PUSH2 0x7AB JUMP JUMPDEST SWAP3 POP SWAP3 POP POP SWAP3 SWAP6 POP SWAP3 SWAP6 SWAP1 SWAP4 POP JUMP JUMPDEST PUSH2 0x892 DUP2 PUSH2 0x766 JUMP JUMPDEST DUP3 MSTORE POP POP JUMP JUMPDEST PUSH1 0x0 PUSH1 0x20 DUP3 ADD SWAP1 POP PUSH2 0x8AD PUSH1 0x0 DUP4 ADD DUP5 PUSH2 0x889 JUMP JUMPDEST SWAP3 SWAP2 POP POP JUMP JUMPDEST PUSH1 0x0 DUP1 PUSH1 0x0 DUP1 PUSH1 0x60 DUP6 DUP8 SUB SLT ISZERO PUSH2 0x8CD JUMPI PUSH2 0x8CC PUSH2 0x578 JUMP JUMPDEST JUMPDEST PUSH1 0x0 PUSH2 0x8DB DUP8 DUP3 DUP9 ADD PUSH2 0x5CB JUMP JUMPDEST SWAP5 POP POP PUSH1 0x20 PUSH2 0x8EC DUP8 DUP3 DUP9 ADD PUSH2 0x787 JUMP JUMPDEST SWAP4 POP POP PUSH1 0x40 DUP6 ADD CALLDATALOAD PUSH8 0xFFFFFFFFFFFFFFFF DUP2 GT ISZERO PUSH2 0x90D JUMPI PUSH2 0x90C PUSH2 0x57D JUMP JUMPDEST JUMPDEST PUSH2 0x919 DUP8 DUP3 DUP9 ADD PUSH2 0x7AB JUMP JUMPDEST SWAP3 POP SWAP3 POP POP SWAP3 SWAP6 SWAP2 SWAP5 POP SWAP3 POP JUMP JUMPDEST PUSH2 0x930 DUP2 PUSH2 0x582 JUMP JUMPDEST DUP3 MSTORE POP POP JUMP JUMPDEST PUSH1 0x0 PUSH1 0x20 DUP3 ADD SWAP1 POP PUSH2 0x94B PUSH1 0x0 DUP4 ADD DUP5 PUSH2 0x927 JUMP JUMPDEST SWAP3 SWAP2 POP POP JUMP JUMPDEST PUSH32 0x4E487B7100000000000000000000000000000000000000000000000000000000 PUSH1 0x0 MSTORE PUSH1 0x41 PUSH1 0x4 MSTORE PUSH1 0x24 PUSH1 0x0 REVERT JUMPDEST PUSH32 0x4E487B7100000000000000000000000000000000000000000000000000000000 PUSH1 0x0 MSTORE PUSH1 0x32 PUSH1 0x4 MSTORE PUSH1 0x24 PUSH1 0x0 REVERT JUMPDEST PUSH2 0x9B8 DUP2 PUSH2 0x72D JUMP JUMPDEST DUP2 EQ PUSH2 0x9C3 JUMPI PUSH1 0x0 DUP1 REVERT JUMPDEST POP JUMP JUMPDEST PUSH1 0x0 DUP2 MLOAD SWAP1 POP PUSH2 0x9D5 DUP2 PUSH2 0x9AF JUMP JUMPDEST SWAP3 SWAP2 POP POP JUMP JUMPDEST PUSH1 0x0 PUSH1 0x20 DUP3 DUP5 SUB SLT ISZERO PUSH2 0x9F1 JUMPI PUSH2 0x9F0 PUSH2 0x578 JUMP JUMPDEST JUMPDEST PUSH1 0x0 PUSH2 0x9FF DUP5 DUP3 DUP6 ADD PUSH2 0x9C6 JUMP JUMPDEST SWAP2 POP POP SWAP3 SWAP2 POP POP JUMP JUMPDEST PUSH32 0x4E487B7100000000000000000000000000000000000000000000000000000000 PUSH1 0x0 MSTORE PUSH1 0x11 PUSH1 0x4 MSTORE PUSH1 0x24 PUSH1 0x0 REVERT JUMPDEST PUSH1 0x0 PUSH2 0xA42 DUP3 PUSH2 0x766 JUMP JUMPDEST SWAP2 POP PUSH2 0xA4D DUP4 PUSH2 0x766 JUMP JUMPDEST SWAP3 POP DUP3 DUP3 MUL PUSH2 0xA5B DUP2 PUSH2 0x766 JUMP JUMPDEST SWAP2 POP DUP3 DUP3 DIV DUP5 EQ DUP4 ISZERO OR PUSH2 0xA72 JUMPI PUSH2 0xA71 PUSH2 0xA08 JUMP JUMPDEST JUMPDEST POP SWAP3 SWAP2 POP POP JUMP JUMPDEST PUSH32 0x4E487B7100000000000000000000000000000000000000000000000000000000 PUSH1 0x0 MSTORE PUSH1 0x12 PUSH1 0x4 MSTORE PUSH1 0x24 PUSH1 0x0 REVERT JUMPDEST PUSH1 0x0 PUSH2 0xAB3 DUP3 PUSH2 0x766 JUMP JUMPDEST SWAP2 POP PUSH2 0xABE DUP4 PUSH2 0x766 JUMP JUMPDEST SWAP3 POP DUP3 PUSH2 0xACE JUMPI PUSH2 0xACD PUSH2 0xA79 JUMP JUMPDEST JUMPDEST DUP3 DUP3 DIV SWAP1 POP SWAP3 SWAP2 POP POP JUMP JUMPDEST PUSH1 0x0 PUSH2 0xAE4 DUP3 PUSH2 0x766 JUMP JUMPDEST SWAP2 POP PUSH2 0xAEF DUP4 PUSH2 0x766 JUMP JUMPDEST SWAP3 POP DUP3 DUP3 SUB SWAP1 POP DUP2 DUP2 GT ISZERO PUSH2 0xB07 JUMPI PUSH2 0xB06 PUSH2 0xA08 JUMP JUMPDEST JUMPDEST SWAP3 SWAP2 POP POP JUMP JUMPDEST PUSH1 0x0 PUSH2 0xB18 DUP3 PUSH2 0x582 JUMP JUMPDEST SWAP2 POP PUSH2 0xB23 DUP4 PUSH2 0x582 JUMP JUMPDEST SWAP3 POP DUP3 DUP3 MUL PUSH2 0xB31 DUP2 PUSH2 0x582 JUMP JUMPDEST SWAP2 POP DUP3 DUP3 DIV DUP5 EQ DUP4 ISZERO OR PUSH2 0xB48 JUMPI PUSH2 0xB47 PUSH2 0xA08 JUMP JUMPDEST JUMPDEST POP SWAP3 SWAP2 POP POP JUMP JUMPDEST PUSH1 0x0 PUSH2 0xB5A DUP3 PUSH2 0x582 JUMP JUMPDEST SWAP2 POP PUSH2 0xB65 DUP4 PUSH2 0x582 JUMP JUMPDEST SWAP3 POP DUP3 PUSH2 0xB75 JUMPI PUSH2 0xB74 PUSH2 0xA79 JUMP JUMPDEST JUMPDEST DUP3 DUP3 DIV SWAP1 POP SWAP3 SWAP2 POP POP JUMP JUMPDEST PUSH1 0x0 PUSH2 0xB8B DUP3 PUSH2 0x582 JUMP JUMPDEST SWAP2 POP PUSH2 0xB96 DUP4 PUSH2 0x582 JUMP JUMPDEST SWAP3 POP DUP3 DUP3 SUB SWAP1 POP PUSH20 0xFFFFFFFFFFFFFFFFFFFFFFFFFFFFFFFFFFFFFFFF DUP2 GT ISZERO PUSH2 0xBC2 JUMPI PUSH2 0xBC1 PUSH2 0xA08 JUMP JUMPDEST JUMPDEST SWAP3 SWAP2 POP POP JUMP JUMPDEST PUSH1 0x0 PUSH2 0xBD3 DUP3 PUSH2 0x582 JUMP JUMPDEST SWAP2 POP PUSH2 0xBDE DUP4 PUSH2 0x582 JUMP JUMPDEST SWAP3 POP DUP3 DUP3 ADD SWAP1 POP PUSH20 0xFFFFFFFFFFFFFFFFFFFFFFFFFFFFFFFFFFFFFFFF DUP2 GT ISZERO PUSH2 0xC0A JUMPI PUSH2 0xC09 PUSH2 0xA08 JUMP JUMPDEST JUMPDEST SWAP3 SWAP2 POP POP JUMP JUMPDEST PUSH2 0xC19 DUP2 PUSH2 0x582 JUMP JUMPDEST DUP2 EQ PUSH2 0xC24 JUMPI PUSH1 0x0 DUP1 REVERT JUMPDEST POP JUMP JUMPDEST PUSH1 0x0 DUP2 MLOAD SWAP1 POP PUSH2 0xC36 DUP2 PUSH2 0xC10 JUMP JUMPDEST SWAP3 SWAP2 POP POP JUMP JUMPDEST PUSH1 0x0 DUP2 PUSH1 0x2 SIGNEXTEND SWAP1 POP SWAP2 SWAP1 POP JUMP JUMPDEST PUSH2 0xC52 DUP2 PUSH2 0xC3C JUMP JUMPDEST DUP2 EQ PUSH2 0xC5D JUMPI PUSH1 0x0 DUP1 REVERT JUMPDEST POP JUMP JUMPDEST PUSH1 0x0 DUP2 MLOAD SWAP1 POP PUSH2 0xC6F DUP2 PUSH2 0xC49 JUMP JUMPDEST SWAP3 SWAP2 POP POP JUMP JUMPDEST PUSH1 0x0 PUSH2 0xFFFF DUP3 AND SWAP1 POP SWAP2 SWAP1 POP JUMP JUMPDEST PUSH2 0xC8C DUP2 PUSH2 0xC75 JUMP JUMPDEST DUP2 EQ PUSH2 0xC97 JUMPI PUSH1 0x0 DUP1 REVERT JUMPDEST POP JUMP JUMPDEST PUSH1 0x0 DUP2 MLOAD SWAP1 POP PUSH2 0xCA9 DUP2 PUSH2 0xC83 JUMP JUMPDEST SWAP3 SWAP2 POP POP JUMP JUMPDEST PUSH1 0x0 PUSH1 0xFF DUP3 AND SWAP1 POP SWAP2 SWAP1 POP JUMP JUMPDEST PUSH2 0xCC5 DUP2 PUSH2 0xCAF JUMP JUMPDEST DUP2 EQ PUSH2 0xCD0 JUMPI PUSH1 0x0 DUP1 REVERT JUMPDEST POP JUMP JUMPDEST PUSH1 0x0 DUP2 MLOAD SWAP1 POP PUSH2 0xCE2 DUP2 PUSH2 0xCBC JUMP JUMPDEST SWAP3 SWAP2 POP POP JUMP JUMPDEST PUSH1 0x0 DUP2 ISZERO ISZERO SWAP1 POP SWAP2 SWAP1 POP JUMP JUMPDEST PUSH2 0xCFD DUP2 PUSH2 0xCE8 JUMP JUMPDEST DUP2 EQ PUSH2 0xD08 JUMPI PUSH1 0x0 DUP1 REVERT JUMPDEST POP JUMP JUMPDEST PUSH1 0x0 DUP2 MLOAD SWAP1 POP PUSH2 0xD1A DUP2 PUSH2 0xCF4 JUMP JUMPDEST SWAP3 SWAP2 POP POP JUMP JUMPDEST PUSH1 0x0 DUP1 PUSH1 0x0 DUP1 PUSH1 0x0 DUP1 PUSH1 0x0 PUSH1 0xE0 DUP9 DUP11 SUB SLT ISZERO PUSH2 0xD3F JUMPI PUSH2 0xD3E PUSH2 0x578 JUMP JUMPDEST JUMPDEST PUSH1 0x0 PUSH2 0xD4D DUP11 DUP3 DUP12 ADD PUSH2 0xC27 JUMP JUMPDEST SWAP8 POP POP PUSH1 0x20 PUSH2 0xD5E DUP11 DUP3 DUP12 ADD PUSH2 0xC60 JUMP JUMPDEST SWAP7 POP POP PUSH1 0x40 PUSH2 0xD6F DUP11 DUP3 DUP12 ADD PUSH2 0xC9A JUMP JUMPDEST SWAP6 POP POP PUSH1 0x60 PUSH2 0xD80 DUP11 DUP3 DUP12 ADD PUSH2 0xC9A JUMP JUMPDEST SWAP5 POP POP PUSH1 0x80 PUSH2 0xD91 DUP11 DUP3 DUP12 ADD PUSH2 0xC9A JUMP JUMPDEST SWAP4 POP POP PUSH1 0xA0 PUSH2 0xDA2 DUP11 DUP3 DUP12 ADD PUSH2 0xCD3 JUMP JUMPDEST SWAP3 POP POP PUSH1 0xC0 PUSH2 0xDB3 DUP11 DUP3 DUP12 ADD PUSH2 0xD0B JUMP JUMPDEST SWAP2 POP POP SWAP3 SWAP6 SWAP9 SWAP2 SWAP5 SWAP8 POP SWAP3 SWAP6 POP JUMP INVALID LOG2 PUSH5 0x6970667358 0x22 SLT KECCAK256 0xA5 0xED EXTCODEHASH SIGNEXTEND BLOBHASH ADD PUSH12 0x6B3F6B47EFDA28B173611E44 0xBE 0xDB TSTORE 0xEF BLOCKHASH KECCAK256 0xB3 STOP GASLIMIT 0xD8 DUP15 PUSH0 0xD6 PUSH5 0x736F6C6343 STOP ADDMOD SHR STOP CALLER "
				},
				"gasEstimates": {
					"creation": {
						"codeDepositCost": "715200",
						"executionCost": "775",
						"totalCost": "715975"
					},
					"external": {
						"getAmountOutMin(address,uint256,uint256,address[])": "infinite",
						"getLimitSqrtPrice(address,uint256,address[])": "infinite",
						"getPoolFee(address)": "infinite",
						"orderTokensInPool(address,address)": "infinite"
					},
					"internal": {
						"getCurrentSqrtPrice(address)": "infinite"
					}
				},
				"methodIdentifiers": {
					"getAmountOutMin(address,uint256,uint256,address[])": "71302915",
					"getLimitSqrtPrice(address,uint256,address[])": "da91803e",
					"getPoolFee(address)": "42fcc6fb",
					"orderTokensInPool(address,address)": "1da2d571"
				}
			},
			"storageLayout": {
				"storage": [],
				"types": null
			},
			"userdoc": {
				"kind": "user",
				"methods": {},
				"version": 1
			}
		}
	}
}