{
	"src/lib/UniswapPoolSearch.sol": {
		"PoolSearcher": {
			"abi": [
				{
					"inputs": [
						{
							"internalType": "address",
							"name": "tokenA",
							"type": "address"
						},
						{
							"internalType": "address",
							"name": "tokenB",
							"type": "address"
						},
						{
							"internalType": "address",
							"name": "_factory",
							"type": "address"
						}
					],
					"name": "searchPool",
					"outputs": [
						{
							"internalType": "address",
							"name": "poolToSwap",
							"type": "address"
						}
					],
					"stateMutability": "view",
					"type": "function"
				}
			],
			"devdoc": {
				"kind": "dev",
				"methods": {
					"searchPool(address,address,address)": {
						"params": {
							"_factory": "Address of the factory contract responsible for creating and managing pools.",
							"tokenA": "Address of the first token in the pair.",
							"tokenB": "Address of the second token in the pair."
						},
						"returns": {
							"poolToSwap": "The address of the selected pool for swapping, or `address(0)` if no valid pool is found."
						}
					}
				},
				"version": 1
			},
			"evm": {
				"assembly": "    /* \"src/lib/UniswapPoolSearch.sol\":303:3091  library PoolSearcher {... */\n  dataSize(sub_0)\n  dataOffset(sub_0)\n  0x0b\n  dup3\n  dup3\n  dup3\n  codecopy\n  dup1\n  mload\n  0x00\n  byte\n  0x73\n  eq\n  tag_1\n  jumpi\n  mstore(0x00, 0x4e487b7100000000000000000000000000000000000000000000000000000000)\n  mstore(0x04, 0x00)\n  revert(0x00, 0x24)\ntag_1:\n  mstore(0x00, address)\n  0x73\n  dup2\n  mstore8\n  dup3\n  dup2\n  return\nstop\n\nsub_0: assembly {\n        /* \"src/lib/UniswapPoolSearch.sol\":303:3091  library PoolSearcher {... */\n      eq(address, deployTimeAddress())\n      mstore(0x40, 0x80)\n      jumpi(tag_1, lt(calldatasize, 0x04))\n      shr(0xe0, calldataload(0x00))\n      dup1\n      0x2744f26e\n      eq\n      tag_2\n      jumpi\n    tag_1:\n      0x00\n      dup1\n      revert\n        /* \"src/lib/UniswapPoolSearch.sol\":976:1752  function searchPool(address tokenA, address tokenB, address _factory) external view returns(address poolToSwap) {... */\n    tag_2:\n      tag_3\n      0x04\n      dup1\n      calldatasize\n      sub\n      dup2\n      add\n      swap1\n      tag_4\n      swap2\n      swap1\n      tag_5\n      jump\t// in\n    tag_4:\n      tag_6\n      jump\t// in\n    tag_3:\n      mload(0x40)\n      tag_7\n      swap2\n      swap1\n      tag_8\n      jump\t// in\n    tag_7:\n      mload(0x40)\n      dup1\n      swap2\n      sub\n      swap1\n      return\n    tag_6:\n        /* \"src/lib/UniswapPoolSearch.sol\":1068:1086  address poolToSwap */\n      0x00\n        /* \"src/lib/UniswapPoolSearch.sol\":1099:1119  uint24[] memory fees */\n      dup1\n        /* \"src/lib/UniswapPoolSearch.sol\":1135:1136  4 */\n      0x04\n        /* \"src/lib/UniswapPoolSearch.sol\":1122:1137  new uint24[](4) */\n      0xffffffffffffffff\n      dup2\n      gt\n      iszero\n      tag_10\n      jumpi\n      tag_11\n      tag_12\n      jump\t// in\n    tag_11:\n    tag_10:\n      mload(0x40)\n      swap1\n      dup1\n      dup3\n      mstore\n      dup1\n      0x20\n      mul\n      0x20\n      add\n      dup3\n      add\n      0x40\n      mstore\n      dup1\n      iszero\n      tag_13\n      jumpi\n      dup2\n      0x20\n      add\n      0x20\n      dup3\n      mul\n      dup1\n      calldatasize\n      dup4\n      calldatacopy\n      dup1\n      dup3\n      add\n      swap2\n      pop\n      pop\n      swap1\n      pop\n    tag_13:\n      pop\n        /* \"src/lib/UniswapPoolSearch.sol\":1099:1137  uint24[] memory fees = new uint24[](4) */\n      swap1\n      pop\n        /* \"src/lib/UniswapPoolSearch.sol\":1158:1161  100 */\n      0x64\n        /* \"src/lib/UniswapPoolSearch.sol\":1148:1152  fees */\n      dup2\n        /* \"src/lib/UniswapPoolSearch.sol\":1153:1154  0 */\n      0x00\n        /* \"src/lib/UniswapPoolSearch.sol\":1148:1155  fees[0] */\n      dup2\n      mload\n      dup2\n      lt\n      tag_14\n      jumpi\n      tag_15\n      tag_16\n      jump\t// in\n    tag_15:\n    tag_14:\n      0x20\n      mul\n      0x20\n      add\n      add\n        /* \"src/lib/UniswapPoolSearch.sol\":1148:1161  fees[0] = 100 */\n      swap1\n      0xffffff\n      and\n      swap1\n      dup2\n      0xffffff\n      and\n      dup2\n      mstore\n      pop\n      pop\n        /* \"src/lib/UniswapPoolSearch.sol\":1182:1185  500 */\n      0x01f4\n        /* \"src/lib/UniswapPoolSearch.sol\":1172:1176  fees */\n      dup2\n        /* \"src/lib/UniswapPoolSearch.sol\":1177:1178  1 */\n      0x01\n        /* \"src/lib/UniswapPoolSearch.sol\":1172:1179  fees[1] */\n      dup2\n      mload\n      dup2\n      lt\n      tag_17\n      jumpi\n      tag_18\n      tag_16\n      jump\t// in\n    tag_18:\n    tag_17:\n      0x20\n      mul\n      0x20\n      add\n      add\n        /* \"src/lib/UniswapPoolSearch.sol\":1172:1185  fees[1] = 500 */\n      swap1\n      0xffffff\n      and\n      swap1\n      dup2\n      0xffffff\n      and\n      dup2\n      mstore\n      pop\n      pop\n        /* \"src/lib/UniswapPoolSearch.sol\":1206:1210  3000 */\n      0x0bb8\n        /* \"src/lib/UniswapPoolSearch.sol\":1196:1200  fees */\n      dup2\n        /* \"src/lib/UniswapPoolSearch.sol\":1201:1202  2 */\n      0x02\n        /* \"src/lib/UniswapPoolSearch.sol\":1196:1203  fees[2] */\n      dup2\n      mload\n      dup2\n      lt\n      tag_19\n      jumpi\n      tag_20\n      tag_16\n      jump\t// in\n    tag_20:\n    tag_19:\n      0x20\n      mul\n      0x20\n      add\n      add\n        /* \"src/lib/UniswapPoolSearch.sol\":1196:1210  fees[2] = 3000 */\n      swap1\n      0xffffff\n      and\n      swap1\n      dup2\n      0xffffff\n      and\n      dup2\n      mstore\n      pop\n      pop\n        /* \"src/lib/UniswapPoolSearch.sol\":1231:1236  10000 */\n      0x2710\n        /* \"src/lib/UniswapPoolSearch.sol\":1221:1225  fees */\n      dup2\n        /* \"src/lib/UniswapPoolSearch.sol\":1226:1227  3 */\n      0x03\n        /* \"src/lib/UniswapPoolSearch.sol\":1221:1228  fees[3] */\n      dup2\n      mload\n      dup2\n      lt\n      tag_21\n      jumpi\n      tag_22\n      tag_16\n      jump\t// in\n    tag_22:\n    tag_21:\n      0x20\n      mul\n      0x20\n      add\n      add\n        /* \"src/lib/UniswapPoolSearch.sol\":1221:1236  fees[3] = 10000 */\n      swap1\n      0xffffff\n      and\n      swap1\n      dup2\n      0xffffff\n      and\n      dup2\n      mstore\n      pop\n      pop\n        /* \"src/lib/UniswapPoolSearch.sol\":1248:1262  address token0 */\n      0x00\n        /* \"src/lib/UniswapPoolSearch.sol\":1264:1278  address token1 */\n      dup1\n        /* \"src/lib/UniswapPoolSearch.sol\":1282:1308  orderTokens(tokenA,tokenB) */\n      tag_23\n        /* \"src/lib/UniswapPoolSearch.sol\":1294:1300  tokenA */\n      dup8\n        /* \"src/lib/UniswapPoolSearch.sol\":1301:1307  tokenB */\n      dup8\n        /* \"src/lib/UniswapPoolSearch.sol\":1282:1293  orderTokens */\n      tag_24\n        /* \"src/lib/UniswapPoolSearch.sol\":1282:1308  orderTokens(tokenA,tokenB) */\n      jump\t// in\n    tag_23:\n        /* \"src/lib/UniswapPoolSearch.sol\":1247:1308  (address token0, address token1) = orderTokens(tokenA,tokenB) */\n      swap2\n      pop\n      swap2\n      pop\n        /* \"src/lib/UniswapPoolSearch.sol\":1319:1341  address[] memory pools */\n      0x00\n        /* \"src/lib/UniswapPoolSearch.sol\":1358:1359  4 */\n      0x04\n        /* \"src/lib/UniswapPoolSearch.sol\":1344:1360  new address[](4) */\n      0xffffffffffffffff\n      dup2\n      gt\n      iszero\n      tag_25\n      jumpi\n      tag_26\n      tag_12\n      jump\t// in\n    tag_26:\n    tag_25:\n      mload(0x40)\n      swap1\n      dup1\n      dup3\n      mstore\n      dup1\n      0x20\n      mul\n      0x20\n      add\n      dup3\n      add\n      0x40\n      mstore\n      dup1\n      iszero\n      tag_27\n      jumpi\n      dup2\n      0x20\n      add\n      0x20\n      dup3\n      mul\n      dup1\n      calldatasize\n      dup4\n      calldatacopy\n      dup1\n      dup3\n      add\n      swap2\n      pop\n      pop\n      swap1\n      pop\n    tag_27:\n      pop\n        /* \"src/lib/UniswapPoolSearch.sol\":1319:1360  address[] memory pools = new address[](4) */\n      swap1\n      pop\n        /* \"src/lib/UniswapPoolSearch.sol\":1371:1387  uint8 poolsCount */\n      0x00\n        /* \"src/lib/UniswapPoolSearch.sol\":1406:1413  uint8 i */\n      dup1\n        /* \"src/lib/UniswapPoolSearch.sol\":1402:1659  for(uint8 i = 0; i < 4; i++){... */\n    tag_28:\n        /* \"src/lib/UniswapPoolSearch.sol\":1423:1424  4 */\n      0x04\n        /* \"src/lib/UniswapPoolSearch.sol\":1419:1420  i */\n      dup2\n        /* \"src/lib/UniswapPoolSearch.sol\":1419:1424  i < 4 */\n      0xff\n      and\n      lt\n        /* \"src/lib/UniswapPoolSearch.sol\":1402:1659  for(uint8 i = 0; i < 4; i++){... */\n      iszero\n      tag_29\n      jumpi\n        /* \"src/lib/UniswapPoolSearch.sol\":1445:1457  address pool */\n      0x00\n        /* \"src/lib/UniswapPoolSearch.sol\":1460:1505  checkPools(token0, token1, _factory, fees[i]) */\n      tag_31\n        /* \"src/lib/UniswapPoolSearch.sol\":1471:1477  token0 */\n      dup7\n        /* \"src/lib/UniswapPoolSearch.sol\":1479:1485  token1 */\n      dup7\n        /* \"src/lib/UniswapPoolSearch.sol\":1487:1495  _factory */\n      dup12\n        /* \"src/lib/UniswapPoolSearch.sol\":1497:1501  fees */\n      dup11\n        /* \"src/lib/UniswapPoolSearch.sol\":1502:1503  i */\n      dup7\n        /* \"src/lib/UniswapPoolSearch.sol\":1497:1504  fees[i] */\n      0xff\n      and\n      dup2\n      mload\n      dup2\n      lt\n      tag_32\n      jumpi\n      tag_33\n      tag_16\n      jump\t// in\n    tag_33:\n    tag_32:\n      0x20\n      mul\n      0x20\n      add\n      add\n      mload\n        /* \"src/lib/UniswapPoolSearch.sol\":1460:1470  checkPools */\n      tag_34\n        /* \"src/lib/UniswapPoolSearch.sol\":1460:1505  checkPools(token0, token1, _factory, fees[i]) */\n      jump\t// in\n    tag_31:\n        /* \"src/lib/UniswapPoolSearch.sol\":1445:1505  address pool = checkPools(token0, token1, _factory, fees[i]) */\n      swap1\n      pop\n        /* \"src/lib/UniswapPoolSearch.sol\":1531:1535  pool */\n      dup1\n        /* \"src/lib/UniswapPoolSearch.sol\":1520:1525  pools */\n      dup5\n        /* \"src/lib/UniswapPoolSearch.sol\":1526:1527  i */\n      dup4\n        /* \"src/lib/UniswapPoolSearch.sol\":1520:1528  pools[i] */\n      0xff\n      and\n      dup2\n      mload\n      dup2\n      lt\n      tag_35\n      jumpi\n      tag_36\n      tag_16\n      jump\t// in\n    tag_36:\n    tag_35:\n      0x20\n      mul\n      0x20\n      add\n      add\n        /* \"src/lib/UniswapPoolSearch.sol\":1520:1535  pools[i] = pool */\n      swap1\n      0xffffffffffffffffffffffffffffffffffffffff\n      and\n      swap1\n      dup2\n      0xffffffffffffffffffffffffffffffffffffffff\n      and\n      dup2\n      mstore\n      pop\n      pop\n        /* \"src/lib/UniswapPoolSearch.sol\":1579:1580  0 */\n      0x00\n        /* \"src/lib/UniswapPoolSearch.sol\":1563:1581  pool != address(0) */\n      0xffffffffffffffffffffffffffffffffffffffff\n      and\n        /* \"src/lib/UniswapPoolSearch.sol\":1563:1567  pool */\n      dup2\n        /* \"src/lib/UniswapPoolSearch.sol\":1563:1581  pool != address(0) */\n      0xffffffffffffffffffffffffffffffffffffffff\n      and\n      sub\n        /* \"src/lib/UniswapPoolSearch.sol\":1563:1647  pool != address(0) ... */\n      tag_37\n      jumpi\n        /* \"src/lib/UniswapPoolSearch.sol\":1637:1647  poolsCount */\n      dup3\n        /* \"src/lib/UniswapPoolSearch.sol\":1563:1647  pool != address(0) ... */\n      jump(tag_38)\n    tag_37:\n        /* \"src/lib/UniswapPoolSearch.sol\":1615:1616  1 */\n      0x01\n        /* \"src/lib/UniswapPoolSearch.sol\":1602:1612  poolsCount */\n      dup4\n        /* \"src/lib/UniswapPoolSearch.sol\":1602:1616  poolsCount + 1 */\n      tag_39\n      swap2\n      swap1\n      tag_40\n      jump\t// in\n    tag_39:\n        /* \"src/lib/UniswapPoolSearch.sol\":1563:1647  pool != address(0) ... */\n    tag_38:\n        /* \"src/lib/UniswapPoolSearch.sol\":1550:1647  poolsCount = pool != address(0) ... */\n      swap3\n      pop\n        /* \"src/lib/UniswapPoolSearch.sol\":1430:1659  {... */\n      pop\n        /* \"src/lib/UniswapPoolSearch.sol\":1426:1429  i++ */\n      dup1\n      dup1\n      0x01\n      add\n      swap2\n      pop\n      pop\n        /* \"src/lib/UniswapPoolSearch.sol\":1402:1659  for(uint8 i = 0; i < 4; i++){... */\n      jump(tag_28)\n    tag_29:\n      pop\n        /* \"src/lib/UniswapPoolSearch.sol\":1683:1716  searchBestPool(pools, poolsCount) */\n      tag_41\n        /* \"src/lib/UniswapPoolSearch.sol\":1698:1703  pools */\n      dup3\n        /* \"src/lib/UniswapPoolSearch.sol\":1705:1715  poolsCount */\n      dup3\n        /* \"src/lib/UniswapPoolSearch.sol\":1683:1697  searchBestPool */\n      tag_42\n        /* \"src/lib/UniswapPoolSearch.sol\":1683:1716  searchBestPool(pools, poolsCount) */\n      jump\t// in\n    tag_41:\n        /* \"src/lib/UniswapPoolSearch.sol\":1669:1716  poolToSwap =  searchBestPool(pools, poolsCount) */\n      swap6\n      pop\n        /* \"src/lib/UniswapPoolSearch.sol\":1727:1744  return poolToSwap */\n      pop\n      pop\n      pop\n      pop\n      pop\n        /* \"src/lib/UniswapPoolSearch.sol\":976:1752  function searchPool(address tokenA, address tokenB, address _factory) external view returns(address poolToSwap) {... */\n      swap4\n      swap3\n      pop\n      pop\n      pop\n      jump\t// out\n        /* \"src/lib/UniswapPoolSearch.sol\":1991:2227  function orderTokens(address tokenA, address tokenB) internal pure returns(address token0, address token1){... */\n    tag_24:\n        /* \"src/lib/UniswapPoolSearch.sol\":2066:2080  address token0 */\n      0x00\n        /* \"src/lib/UniswapPoolSearch.sol\":2082:2096  address token1 */\n      dup1\n        /* \"src/lib/UniswapPoolSearch.sol\":2108:2131  address[] memory tokens */\n      0x00\n        /* \"src/lib/UniswapPoolSearch.sol\":2134:2146  UniswapUtils */\n      linkerSymbol(\"ef8f7edcb508b38ed1a1bfabf3b1e64cc8a43e4b961f8feaf92542a0e18bba18\")\n        /* \"src/lib/UniswapPoolSearch.sol\":2134:2164  UniswapUtils.orderTokensInPool */\n      0x1da2d571\n        /* \"src/lib/UniswapPoolSearch.sol\":2165:2171  tokenA */\n      dup7\n        /* \"src/lib/UniswapPoolSearch.sol\":2173:2179  tokenB */\n      dup7\n        /* \"src/lib/UniswapPoolSearch.sol\":2134:2180  UniswapUtils.orderTokensInPool(tokenA, tokenB) */\n      mload(0x40)\n      dup4\n      0xffffffff\n      and\n      0xe0\n      shl\n      dup2\n      mstore\n      0x04\n      add\n      tag_44\n      swap3\n      swap2\n      swap1\n      tag_45\n      jump\t// in\n    tag_44:\n      0x00\n      mload(0x40)\n      dup1\n      dup4\n      sub\n      dup2\n      dup7\n      gas\n      delegatecall\n      iszero\n      dup1\n      iszero\n      tag_47\n      jumpi\n      returndatasize\n      0x00\n      dup1\n      returndatacopy\n      revert(0x00, returndatasize)\n    tag_47:\n      pop\n      pop\n      pop\n      pop\n      mload(0x40)\n      returndatasize\n      0x00\n      dup3\n      returndatacopy\n      returndatasize\n      not(0x1f)\n      0x1f\n      dup3\n      add\n      and\n      dup3\n      add\n      dup1\n      0x40\n      mstore\n      pop\n      dup2\n      add\n      swap1\n      tag_48\n      swap2\n      swap1\n      tag_49\n      jump\t// in\n    tag_48:\n        /* \"src/lib/UniswapPoolSearch.sol\":2108:2180  address[] memory tokens = UniswapUtils.orderTokensInPool(tokenA, tokenB) */\n      swap1\n      pop\n        /* \"src/lib/UniswapPoolSearch.sol\":2198:2204  tokens */\n      dup1\n        /* \"src/lib/UniswapPoolSearch.sol\":2205:2206  0 */\n      0x00\n        /* \"src/lib/UniswapPoolSearch.sol\":2198:2207  tokens[0] */\n      dup2\n      mload\n      dup2\n      lt\n      tag_50\n      jumpi\n      tag_51\n      tag_16\n      jump\t// in\n    tag_51:\n    tag_50:\n      0x20\n      mul\n      0x20\n      add\n      add\n      mload\n        /* \"src/lib/UniswapPoolSearch.sol\":2209:2215  tokens */\n      dup2\n        /* \"src/lib/UniswapPoolSearch.sol\":2216:2217  1 */\n      0x01\n        /* \"src/lib/UniswapPoolSearch.sol\":2209:2218  tokens[1] */\n      dup2\n      mload\n      dup2\n      lt\n      tag_52\n      jumpi\n      tag_53\n      tag_16\n      jump\t// in\n    tag_53:\n    tag_52:\n      0x20\n      mul\n      0x20\n      add\n      add\n      mload\n        /* \"src/lib/UniswapPoolSearch.sol\":2191:2219  return(tokens[0], tokens[1]) */\n      swap3\n      pop\n      swap3\n      pop\n      pop\n        /* \"src/lib/UniswapPoolSearch.sol\":1991:2227  function orderTokens(address tokenA, address tokenB) internal pure returns(address token0, address token1){... */\n      swap3\n      pop\n      swap3\n      swap1\n      pop\n      jump\t// out\n        /* \"src/lib/UniswapPoolSearch.sol\":1760:1983  function checkPools(address token0, address token1, address _factory, uint24 _fee) internal view returns(address pool) {... */\n    tag_34:\n        /* \"src/lib/UniswapPoolSearch.sol\":1865:1877  address pool */\n      0x00\n        /* \"src/lib/UniswapPoolSearch.sol\":1914:1922  _factory */\n      dup3\n        /* \"src/lib/UniswapPoolSearch.sol\":1897:1931  UniswapV3Factory(_factory).getPool */\n      0xffffffffffffffffffffffffffffffffffffffff\n      and\n      0x1698ee82\n        /* \"src/lib/UniswapPoolSearch.sol\":1932:1938  token0 */\n      dup7\n        /* \"src/lib/UniswapPoolSearch.sol\":1940:1946  token1 */\n      dup7\n        /* \"src/lib/UniswapPoolSearch.sol\":1948:1952  _fee */\n      dup6\n        /* \"src/lib/UniswapPoolSearch.sol\":1897:1953  UniswapV3Factory(_factory).getPool(token0, token1, _fee) */\n      mload(0x40)\n      dup5\n      0xffffffff\n      and\n      0xe0\n      shl\n      dup2\n      mstore\n      0x04\n      add\n      tag_55\n      swap4\n      swap3\n      swap2\n      swap1\n      tag_56\n      jump\t// in\n    tag_55:\n      0x20\n      mload(0x40)\n      dup1\n      dup4\n      sub\n      dup2\n      dup7\n      gas\n      staticcall\n      iszero\n      dup1\n      iszero\n      tag_58\n      jumpi\n      returndatasize\n      0x00\n      dup1\n      returndatacopy\n      revert(0x00, returndatasize)\n    tag_58:\n      pop\n      pop\n      pop\n      pop\n      mload(0x40)\n      returndatasize\n      not(0x1f)\n      0x1f\n      dup3\n      add\n      and\n      dup3\n      add\n      dup1\n      0x40\n      mstore\n      pop\n      dup2\n      add\n      swap1\n      tag_59\n      swap2\n      swap1\n      tag_60\n      jump\t// in\n    tag_59:\n        /* \"src/lib/UniswapPoolSearch.sol\":1890:1953  pool = UniswapV3Factory(_factory).getPool(token0, token1, _fee) */\n      swap1\n      pop\n        /* \"src/lib/UniswapPoolSearch.sol\":1760:1983  function checkPools(address token0, address token1, address _factory, uint24 _fee) internal view returns(address pool) {... */\n      swap5\n      swap4\n      pop\n      pop\n      pop\n      pop\n      jump\t// out\n        /* \"src/lib/UniswapPoolSearch.sol\":2235:2762  function searchBestPool(address[] memory _pools, uint8 _poolsCount) internal view returns(address) {... */\n    tag_42:\n        /* \"src/lib/UniswapPoolSearch.sol\":2325:2332  address */\n      0x00\n        /* \"src/lib/UniswapPoolSearch.sol\":2345:2378  uint128[] memory liquidityInPools */\n      dup1\n        /* \"src/lib/UniswapPoolSearch.sol\":2395:2406  _poolsCount */\n      dup3\n        /* \"src/lib/UniswapPoolSearch.sol\":2381:2407  new uint128[](_poolsCount) */\n      0xff\n      and\n      0xffffffffffffffff\n      dup2\n      gt\n      iszero\n      tag_62\n      jumpi\n      tag_63\n      tag_12\n      jump\t// in\n    tag_63:\n    tag_62:\n      mload(0x40)\n      swap1\n      dup1\n      dup3\n      mstore\n      dup1\n      0x20\n      mul\n      0x20\n      add\n      dup3\n      add\n      0x40\n      mstore\n      dup1\n      iszero\n      tag_64\n      jumpi\n      dup2\n      0x20\n      add\n      0x20\n      dup3\n      mul\n      dup1\n      calldatasize\n      dup4\n      calldatacopy\n      dup1\n      dup3\n      add\n      swap2\n      pop\n      pop\n      swap1\n      pop\n    tag_64:\n      pop\n        /* \"src/lib/UniswapPoolSearch.sol\":2345:2407  uint128[] memory liquidityInPools = new uint128[](_poolsCount) */\n      swap1\n      pop\n        /* \"src/lib/UniswapPoolSearch.sol\":2422:2429  uint8 i */\n      0x00\n        /* \"src/lib/UniswapPoolSearch.sol\":2418:2646  for(uint8 i = 0; i < 4; i++){... */\n    tag_65:\n        /* \"src/lib/UniswapPoolSearch.sol\":2439:2440  4 */\n      0x04\n        /* \"src/lib/UniswapPoolSearch.sol\":2435:2436  i */\n      dup2\n        /* \"src/lib/UniswapPoolSearch.sol\":2435:2440  i < 4 */\n      0xff\n      and\n      lt\n        /* \"src/lib/UniswapPoolSearch.sol\":2418:2646  for(uint8 i = 0; i < 4; i++){... */\n      iszero\n      tag_66\n      jumpi\n        /* \"src/lib/UniswapPoolSearch.sol\":2485:2486  0 */\n      0x00\n        /* \"src/lib/UniswapPoolSearch.sol\":2464:2487  _pools[i] != address(0) */\n      0xffffffffffffffffffffffffffffffffffffffff\n      and\n        /* \"src/lib/UniswapPoolSearch.sol\":2464:2470  _pools */\n      dup6\n        /* \"src/lib/UniswapPoolSearch.sol\":2471:2472  i */\n      dup3\n        /* \"src/lib/UniswapPoolSearch.sol\":2464:2473  _pools[i] */\n      0xff\n      and\n      dup2\n      mload\n      dup2\n      lt\n      tag_68\n      jumpi\n      tag_69\n      tag_16\n      jump\t// in\n    tag_69:\n    tag_68:\n      0x20\n      mul\n      0x20\n      add\n      add\n      mload\n        /* \"src/lib/UniswapPoolSearch.sol\":2464:2487  _pools[i] != address(0) */\n      0xffffffffffffffffffffffffffffffffffffffff\n      and\n      eq\n        /* \"src/lib/UniswapPoolSearch.sol\":2461:2635  if(_pools[i] != address(0)){... */\n      tag_70\n      jumpi\n        /* \"src/lib/UniswapPoolSearch.sol\":2507:2524  uint128 liquidity */\n      0x00\n        /* \"src/lib/UniswapPoolSearch.sol\":2547:2553  _pools */\n      dup6\n        /* \"src/lib/UniswapPoolSearch.sol\":2554:2555  i */\n      dup3\n        /* \"src/lib/UniswapPoolSearch.sol\":2547:2556  _pools[i] */\n      0xff\n      and\n      dup2\n      mload\n      dup2\n      lt\n      tag_71\n      jumpi\n      tag_72\n      tag_16\n      jump\t// in\n    tag_72:\n    tag_71:\n      0x20\n      mul\n      0x20\n      add\n      add\n      mload\n        /* \"src/lib/UniswapPoolSearch.sol\":2527:2567  IUniswapV3PoolState(_pools[i]).liquidity */\n      0xffffffffffffffffffffffffffffffffffffffff\n      and\n      0x1a686502\n        /* \"src/lib/UniswapPoolSearch.sol\":2527:2569  IUniswapV3PoolState(_pools[i]).liquidity() */\n      mload(0x40)\n      dup2\n      0xffffffff\n      and\n      0xe0\n      shl\n      dup2\n      mstore\n      0x04\n      add\n      0x20\n      mload(0x40)\n      dup1\n      dup4\n      sub\n      dup2\n      dup7\n      gas\n      staticcall\n      iszero\n      dup1\n      iszero\n      tag_74\n      jumpi\n      returndatasize\n      0x00\n      dup1\n      returndatacopy\n      revert(0x00, returndatasize)\n    tag_74:\n      pop\n      pop\n      pop\n      pop\n      mload(0x40)\n      returndatasize\n      not(0x1f)\n      0x1f\n      dup3\n      add\n      and\n      dup3\n      add\n      dup1\n      0x40\n      mstore\n      pop\n      dup2\n      add\n      swap1\n      tag_75\n      swap2\n      swap1\n      tag_76\n      jump\t// in\n    tag_75:\n        /* \"src/lib/UniswapPoolSearch.sol\":2507:2569  uint128 liquidity = IUniswapV3PoolState(_pools[i]).liquidity() */\n      swap1\n      pop\n        /* \"src/lib/UniswapPoolSearch.sol\":2610:2619  liquidity */\n      dup1\n        /* \"src/lib/UniswapPoolSearch.sol\":2588:2604  liquidityInPools */\n      dup4\n        /* \"src/lib/UniswapPoolSearch.sol\":2605:2606  i */\n      dup4\n        /* \"src/lib/UniswapPoolSearch.sol\":2588:2607  liquidityInPools[i] */\n      0xff\n      and\n      dup2\n      mload\n      dup2\n      lt\n      tag_77\n      jumpi\n      tag_78\n      tag_16\n      jump\t// in\n    tag_78:\n    tag_77:\n      0x20\n      mul\n      0x20\n      add\n      add\n        /* \"src/lib/UniswapPoolSearch.sol\":2588:2619  liquidityInPools[i] = liquidity */\n      swap1\n      0xffffffffffffffffffffffffffffffff\n      and\n      swap1\n      dup2\n      0xffffffffffffffffffffffffffffffff\n      and\n      dup2\n      mstore\n      pop\n      pop\n        /* \"src/lib/UniswapPoolSearch.sol\":2488:2635  {... */\n      pop\n        /* \"src/lib/UniswapPoolSearch.sol\":2461:2635  if(_pools[i] != address(0)){... */\n    tag_70:\n        /* \"src/lib/UniswapPoolSearch.sol\":2442:2445  i++ */\n      dup1\n      dup1\n      0x01\n      add\n      swap2\n      pop\n      pop\n        /* \"src/lib/UniswapPoolSearch.sol\":2418:2646  for(uint8 i = 0; i < 4; i++){... */\n      jump(tag_65)\n    tag_66:\n      pop\n        /* \"src/lib/UniswapPoolSearch.sol\":2656:2675  uint8 bestLiquidity */\n      0x00\n        /* \"src/lib/UniswapPoolSearch.sol\":2678:2714  getLargerLiquidity(liquidityInPools) */\n      tag_79\n        /* \"src/lib/UniswapPoolSearch.sol\":2697:2713  liquidityInPools */\n      dup3\n        /* \"src/lib/UniswapPoolSearch.sol\":2678:2696  getLargerLiquidity */\n      tag_80\n        /* \"src/lib/UniswapPoolSearch.sol\":2678:2714  getLargerLiquidity(liquidityInPools) */\n      jump\t// in\n    tag_79:\n        /* \"src/lib/UniswapPoolSearch.sol\":2656:2714  uint8 bestLiquidity = getLargerLiquidity(liquidityInPools) */\n      swap1\n      pop\n        /* \"src/lib/UniswapPoolSearch.sol\":2732:2738  _pools */\n      dup5\n        /* \"src/lib/UniswapPoolSearch.sol\":2739:2752  bestLiquidity */\n      dup2\n        /* \"src/lib/UniswapPoolSearch.sol\":2732:2753  _pools[bestLiquidity] */\n      0xff\n      and\n      dup2\n      mload\n      dup2\n      lt\n      tag_81\n      jumpi\n      tag_82\n      tag_16\n      jump\t// in\n    tag_82:\n    tag_81:\n      0x20\n      mul\n      0x20\n      add\n      add\n      mload\n        /* \"src/lib/UniswapPoolSearch.sol\":2725:2754  return(_pools[bestLiquidity]) */\n      swap3\n      pop\n      pop\n      pop\n        /* \"src/lib/UniswapPoolSearch.sol\":2235:2762  function searchBestPool(address[] memory _pools, uint8 _poolsCount) internal view returns(address) {... */\n      swap3\n      swap2\n      pop\n      pop\n      jump\t// out\n        /* \"src/lib/UniswapPoolSearch.sol\":2770:3085  function getLargerLiquidity(uint128[] memory li) internal pure returns(uint8){... */\n    tag_80:\n        /* \"src/lib/UniswapPoolSearch.sol\":2841:2846  uint8 */\n      0x00\n        /* \"src/lib/UniswapPoolSearch.sol\":2858:2869  uint256 len */\n      dup1\n        /* \"src/lib/UniswapPoolSearch.sol\":2872:2874  li */\n      dup3\n        /* \"src/lib/UniswapPoolSearch.sol\":2872:2881  li.length */\n      mload\n        /* \"src/lib/UniswapPoolSearch.sol\":2858:2881  uint256 len = li.length */\n      swap1\n      pop\n        /* \"src/lib/UniswapPoolSearch.sol\":2892:2907  uint8 largerLiq */\n      0x00\n        /* \"src/lib/UniswapPoolSearch.sol\":2926:2933  uint8 i */\n      dup1\n        /* \"src/lib/UniswapPoolSearch.sol\":2936:2937  1 */\n      0x01\n        /* \"src/lib/UniswapPoolSearch.sol\":2926:2937  uint8 i = 1 */\n      swap1\n      pop\n        /* \"src/lib/UniswapPoolSearch.sol\":2922:3051  for(uint8 i = 1; i < len; i++){... */\n    tag_84:\n        /* \"src/lib/UniswapPoolSearch.sol\":2943:2946  len */\n      dup3\n        /* \"src/lib/UniswapPoolSearch.sol\":2939:2940  i */\n      dup2\n        /* \"src/lib/UniswapPoolSearch.sol\":2939:2946  i < len */\n      0xff\n      and\n      lt\n        /* \"src/lib/UniswapPoolSearch.sol\":2922:3051  for(uint8 i = 1; i < len; i++){... */\n      iszero\n      tag_85\n      jumpi\n        /* \"src/lib/UniswapPoolSearch.sol\":2978:2980  li */\n      dup5\n        /* \"src/lib/UniswapPoolSearch.sol\":2981:2990  largerLiq */\n      dup3\n        /* \"src/lib/UniswapPoolSearch.sol\":2978:2991  li[largerLiq] */\n      0xff\n      and\n      dup2\n      mload\n      dup2\n      lt\n      tag_87\n      jumpi\n      tag_88\n      tag_16\n      jump\t// in\n    tag_88:\n    tag_87:\n      0x20\n      mul\n      0x20\n      add\n      add\n      mload\n        /* \"src/lib/UniswapPoolSearch.sol\":2970:2991  li[i] > li[largerLiq] */\n      0xffffffffffffffffffffffffffffffff\n      and\n        /* \"src/lib/UniswapPoolSearch.sol\":2970:2972  li */\n      dup6\n        /* \"src/lib/UniswapPoolSearch.sol\":2973:2974  i */\n      dup3\n        /* \"src/lib/UniswapPoolSearch.sol\":2970:2975  li[i] */\n      0xff\n      and\n      dup2\n      mload\n      dup2\n      lt\n      tag_89\n      jumpi\n      tag_90\n      tag_16\n      jump\t// in\n    tag_90:\n    tag_89:\n      0x20\n      mul\n      0x20\n      add\n      add\n      mload\n        /* \"src/lib/UniswapPoolSearch.sol\":2970:2991  li[i] > li[largerLiq] */\n      0xffffffffffffffffffffffffffffffff\n      and\n      gt\n        /* \"src/lib/UniswapPoolSearch.sol\":2967:3040  if(li[i] > li[largerLiq]){... */\n      iszero\n      tag_91\n      jumpi\n        /* \"src/lib/UniswapPoolSearch.sol\":3023:3024  i */\n      dup1\n        /* \"src/lib/UniswapPoolSearch.sol\":3011:3024  largerLiq = i */\n      swap2\n      pop\n        /* \"src/lib/UniswapPoolSearch.sol\":2967:3040  if(li[i] > li[largerLiq]){... */\n    tag_91:\n        /* \"src/lib/UniswapPoolSearch.sol\":2948:2951  i++ */\n      dup1\n      dup1\n      tag_92\n      swap1\n      tag_93\n      jump\t// in\n    tag_92:\n      swap2\n      pop\n      pop\n        /* \"src/lib/UniswapPoolSearch.sol\":2922:3051  for(uint8 i = 1; i < len; i++){... */\n      jump(tag_84)\n    tag_85:\n      pop\n        /* \"src/lib/UniswapPoolSearch.sol\":3068:3077  largerLiq */\n      dup1\n        /* \"src/lib/UniswapPoolSearch.sol\":3061:3077  return largerLiq */\n      swap3\n      pop\n      pop\n      pop\n        /* \"src/lib/UniswapPoolSearch.sol\":2770:3085  function getLargerLiquidity(uint128[] memory li) internal pure returns(uint8){... */\n      swap2\n      swap1\n      pop\n      jump\t// out\n        /* \"#utility.yul\":7:82   */\n    tag_94:\n        /* \"#utility.yul\":40:46   */\n      0x00\n        /* \"#utility.yul\":73:75   */\n      0x40\n        /* \"#utility.yul\":67:76   */\n      mload\n        /* \"#utility.yul\":57:76   */\n      swap1\n      pop\n        /* \"#utility.yul\":7:82   */\n      swap1\n      jump\t// out\n        /* \"#utility.yul\":88:205   */\n    tag_95:\n        /* \"#utility.yul\":197:198   */\n      0x00\n        /* \"#utility.yul\":194:195   */\n      dup1\n        /* \"#utility.yul\":187:199   */\n      revert\n        /* \"#utility.yul\":211:328   */\n    tag_96:\n        /* \"#utility.yul\":320:321   */\n      0x00\n        /* \"#utility.yul\":317:318   */\n      dup1\n        /* \"#utility.yul\":310:322   */\n      revert\n        /* \"#utility.yul\":334:460   */\n    tag_97:\n        /* \"#utility.yul\":371:378   */\n      0x00\n        /* \"#utility.yul\":411:453   */\n      0xffffffffffffffffffffffffffffffffffffffff\n        /* \"#utility.yul\":404:409   */\n      dup3\n        /* \"#utility.yul\":400:454   */\n      and\n        /* \"#utility.yul\":389:454   */\n      swap1\n      pop\n        /* \"#utility.yul\":334:460   */\n      swap2\n      swap1\n      pop\n      jump\t// out\n        /* \"#utility.yul\":466:562   */\n    tag_98:\n        /* \"#utility.yul\":503:510   */\n      0x00\n        /* \"#utility.yul\":532:556   */\n      tag_125\n        /* \"#utility.yul\":550:555   */\n      dup3\n        /* \"#utility.yul\":532:556   */\n      tag_97\n      jump\t// in\n    tag_125:\n        /* \"#utility.yul\":521:556   */\n      swap1\n      pop\n        /* \"#utility.yul\":466:562   */\n      swap2\n      swap1\n      pop\n      jump\t// out\n        /* \"#utility.yul\":568:690   */\n    tag_99:\n        /* \"#utility.yul\":641:665   */\n      tag_127\n        /* \"#utility.yul\":659:664   */\n      dup2\n        /* \"#utility.yul\":641:665   */\n      tag_98\n      jump\t// in\n    tag_127:\n        /* \"#utility.yul\":634:639   */\n      dup2\n        /* \"#utility.yul\":631:666   */\n      eq\n        /* \"#utility.yul\":621:684   */\n      tag_128\n      jumpi\n        /* \"#utility.yul\":680:681   */\n      0x00\n        /* \"#utility.yul\":677:678   */\n      dup1\n        /* \"#utility.yul\":670:682   */\n      revert\n        /* \"#utility.yul\":621:684   */\n    tag_128:\n        /* \"#utility.yul\":568:690   */\n      pop\n      jump\t// out\n        /* \"#utility.yul\":696:835   */\n    tag_100:\n        /* \"#utility.yul\":742:747   */\n      0x00\n        /* \"#utility.yul\":780:786   */\n      dup2\n        /* \"#utility.yul\":767:787   */\n      calldataload\n        /* \"#utility.yul\":758:787   */\n      swap1\n      pop\n        /* \"#utility.yul\":796:829   */\n      tag_130\n        /* \"#utility.yul\":823:828   */\n      dup2\n        /* \"#utility.yul\":796:829   */\n      tag_99\n      jump\t// in\n    tag_130:\n        /* \"#utility.yul\":696:835   */\n      swap3\n      swap2\n      pop\n      pop\n      jump\t// out\n        /* \"#utility.yul\":841:1460   */\n    tag_5:\n        /* \"#utility.yul\":918:924   */\n      0x00\n        /* \"#utility.yul\":926:932   */\n      dup1\n        /* \"#utility.yul\":934:940   */\n      0x00\n        /* \"#utility.yul\":983:985   */\n      0x60\n        /* \"#utility.yul\":971:980   */\n      dup5\n        /* \"#utility.yul\":962:969   */\n      dup7\n        /* \"#utility.yul\":958:981   */\n      sub\n        /* \"#utility.yul\":954:986   */\n      slt\n        /* \"#utility.yul\":951:1070   */\n      iszero\n      tag_132\n      jumpi\n        /* \"#utility.yul\":989:1068   */\n      tag_133\n      tag_95\n      jump\t// in\n    tag_133:\n        /* \"#utility.yul\":951:1070   */\n    tag_132:\n        /* \"#utility.yul\":1109:1110   */\n      0x00\n        /* \"#utility.yul\":1134:1187   */\n      tag_134\n        /* \"#utility.yul\":1179:1186   */\n      dup7\n        /* \"#utility.yul\":1170:1176   */\n      dup3\n        /* \"#utility.yul\":1159:1168   */\n      dup8\n        /* \"#utility.yul\":1155:1177   */\n      add\n        /* \"#utility.yul\":1134:1187   */\n      tag_100\n      jump\t// in\n    tag_134:\n        /* \"#utility.yul\":1124:1187   */\n      swap4\n      pop\n        /* \"#utility.yul\":1080:1197   */\n      pop\n        /* \"#utility.yul\":1236:1238   */\n      0x20\n        /* \"#utility.yul\":1262:1315   */\n      tag_135\n        /* \"#utility.yul\":1307:1314   */\n      dup7\n        /* \"#utility.yul\":1298:1304   */\n      dup3\n        /* \"#utility.yul\":1287:1296   */\n      dup8\n        /* \"#utility.yul\":1283:1305   */\n      add\n        /* \"#utility.yul\":1262:1315   */\n      tag_100\n      jump\t// in\n    tag_135:\n        /* \"#utility.yul\":1252:1315   */\n      swap3\n      pop\n        /* \"#utility.yul\":1207:1325   */\n      pop\n        /* \"#utility.yul\":1364:1366   */\n      0x40\n        /* \"#utility.yul\":1390:1443   */\n      tag_136\n        /* \"#utility.yul\":1435:1442   */\n      dup7\n        /* \"#utility.yul\":1426:1432   */\n      dup3\n        /* \"#utility.yul\":1415:1424   */\n      dup8\n        /* \"#utility.yul\":1411:1433   */\n      add\n        /* \"#utility.yul\":1390:1443   */\n      tag_100\n      jump\t// in\n    tag_136:\n        /* \"#utility.yul\":1380:1443   */\n      swap2\n      pop\n        /* \"#utility.yul\":1335:1453   */\n      pop\n        /* \"#utility.yul\":841:1460   */\n      swap3\n      pop\n      swap3\n      pop\n      swap3\n      jump\t// out\n        /* \"#utility.yul\":1466:1592   */\n    tag_101:\n        /* \"#utility.yul\":1561:1585   */\n      tag_138\n        /* \"#utility.yul\":1579:1584   */\n      dup2\n        /* \"#utility.yul\":1561:1585   */\n      tag_98\n      jump\t// in\n    tag_138:\n        /* \"#utility.yul\":1556:1559   */\n      dup3\n        /* \"#utility.yul\":1549:1586   */\n      mstore\n        /* \"#utility.yul\":1466:1592   */\n      pop\n      pop\n      jump\t// out\n        /* \"#utility.yul\":1598:1836   */\n    tag_8:\n        /* \"#utility.yul\":1699:1703   */\n      0x00\n        /* \"#utility.yul\":1737:1739   */\n      0x20\n        /* \"#utility.yul\":1726:1735   */\n      dup3\n        /* \"#utility.yul\":1722:1740   */\n      add\n        /* \"#utility.yul\":1714:1740   */\n      swap1\n      pop\n        /* \"#utility.yul\":1750:1829   */\n      tag_140\n        /* \"#utility.yul\":1826:1827   */\n      0x00\n        /* \"#utility.yul\":1815:1824   */\n      dup4\n        /* \"#utility.yul\":1811:1828   */\n      add\n        /* \"#utility.yul\":1802:1808   */\n      dup5\n        /* \"#utility.yul\":1750:1829   */\n      tag_101\n      jump\t// in\n    tag_140:\n        /* \"#utility.yul\":1598:1836   */\n      swap3\n      swap2\n      pop\n      pop\n      jump\t// out\n        /* \"#utility.yul\":1842:2022   */\n    tag_12:\n        /* \"#utility.yul\":1890:1967   */\n      0x4e487b7100000000000000000000000000000000000000000000000000000000\n        /* \"#utility.yul\":1887:1888   */\n      0x00\n        /* \"#utility.yul\":1880:1968   */\n      mstore\n        /* \"#utility.yul\":1987:1991   */\n      0x41\n        /* \"#utility.yul\":1984:1985   */\n      0x04\n        /* \"#utility.yul\":1977:1992   */\n      mstore\n        /* \"#utility.yul\":2011:2015   */\n      0x24\n        /* \"#utility.yul\":2008:2009   */\n      0x00\n        /* \"#utility.yul\":2001:2016   */\n      revert\n        /* \"#utility.yul\":2028:2208   */\n    tag_16:\n        /* \"#utility.yul\":2076:2153   */\n      0x4e487b7100000000000000000000000000000000000000000000000000000000\n        /* \"#utility.yul\":2073:2074   */\n      0x00\n        /* \"#utility.yul\":2066:2154   */\n      mstore\n        /* \"#utility.yul\":2173:2177   */\n      0x32\n        /* \"#utility.yul\":2170:2171   */\n      0x04\n        /* \"#utility.yul\":2163:2178   */\n      mstore\n        /* \"#utility.yul\":2197:2201   */\n      0x24\n        /* \"#utility.yul\":2194:2195   */\n      0x00\n        /* \"#utility.yul\":2187:2202   */\n      revert\n        /* \"#utility.yul\":2214:2300   */\n    tag_102:\n        /* \"#utility.yul\":2249:2256   */\n      0x00\n        /* \"#utility.yul\":2289:2293   */\n      0xff\n        /* \"#utility.yul\":2282:2287   */\n      dup3\n        /* \"#utility.yul\":2278:2294   */\n      and\n        /* \"#utility.yul\":2267:2294   */\n      swap1\n      pop\n        /* \"#utility.yul\":2214:2300   */\n      swap2\n      swap1\n      pop\n      jump\t// out\n        /* \"#utility.yul\":2306:2486   */\n    tag_103:\n        /* \"#utility.yul\":2354:2431   */\n      0x4e487b7100000000000000000000000000000000000000000000000000000000\n        /* \"#utility.yul\":2351:2352   */\n      0x00\n        /* \"#utility.yul\":2344:2432   */\n      mstore\n        /* \"#utility.yul\":2451:2455   */\n      0x11\n        /* \"#utility.yul\":2448:2449   */\n      0x04\n        /* \"#utility.yul\":2441:2456   */\n      mstore\n        /* \"#utility.yul\":2475:2479   */\n      0x24\n        /* \"#utility.yul\":2472:2473   */\n      0x00\n        /* \"#utility.yul\":2465:2480   */\n      revert\n        /* \"#utility.yul\":2492:2680   */\n    tag_40:\n        /* \"#utility.yul\":2530:2533   */\n      0x00\n        /* \"#utility.yul\":2549:2567   */\n      tag_146\n        /* \"#utility.yul\":2565:2566   */\n      dup3\n        /* \"#utility.yul\":2549:2567   */\n      tag_102\n      jump\t// in\n    tag_146:\n        /* \"#utility.yul\":2544:2567   */\n      swap2\n      pop\n        /* \"#utility.yul\":2581:2599   */\n      tag_147\n        /* \"#utility.yul\":2597:2598   */\n      dup4\n        /* \"#utility.yul\":2581:2599   */\n      tag_102\n      jump\t// in\n    tag_147:\n        /* \"#utility.yul\":2576:2599   */\n      swap3\n      pop\n        /* \"#utility.yul\":2622:2623   */\n      dup3\n        /* \"#utility.yul\":2619:2620   */\n      dup3\n        /* \"#utility.yul\":2615:2624   */\n      add\n        /* \"#utility.yul\":2608:2624   */\n      swap1\n      pop\n        /* \"#utility.yul\":2645:2649   */\n      0xff\n        /* \"#utility.yul\":2640:2643   */\n      dup2\n        /* \"#utility.yul\":2637:2650   */\n      gt\n        /* \"#utility.yul\":2634:2673   */\n      iszero\n      tag_148\n      jumpi\n        /* \"#utility.yul\":2653:2671   */\n      tag_149\n      tag_103\n      jump\t// in\n    tag_149:\n        /* \"#utility.yul\":2634:2673   */\n    tag_148:\n        /* \"#utility.yul\":2492:2680   */\n      swap3\n      swap2\n      pop\n      pop\n      jump\t// out\n        /* \"#utility.yul\":2686:3042   */\n    tag_45:\n        /* \"#utility.yul\":2815:2819   */\n      0x00\n        /* \"#utility.yul\":2853:2855   */\n      0x40\n        /* \"#utility.yul\":2842:2851   */\n      dup3\n        /* \"#utility.yul\":2838:2856   */\n      add\n        /* \"#utility.yul\":2830:2856   */\n      swap1\n      pop\n        /* \"#utility.yul\":2866:2945   */\n      tag_151\n        /* \"#utility.yul\":2942:2943   */\n      0x00\n        /* \"#utility.yul\":2931:2940   */\n      dup4\n        /* \"#utility.yul\":2927:2944   */\n      add\n        /* \"#utility.yul\":2918:2924   */\n      dup6\n        /* \"#utility.yul\":2866:2945   */\n      tag_101\n      jump\t// in\n    tag_151:\n        /* \"#utility.yul\":2955:3035   */\n      tag_152\n        /* \"#utility.yul\":3031:3033   */\n      0x20\n        /* \"#utility.yul\":3020:3029   */\n      dup4\n        /* \"#utility.yul\":3016:3034   */\n      add\n        /* \"#utility.yul\":3007:3013   */\n      dup5\n        /* \"#utility.yul\":2955:3035   */\n      tag_101\n      jump\t// in\n    tag_152:\n        /* \"#utility.yul\":2686:3042   */\n      swap4\n      swap3\n      pop\n      pop\n      pop\n      jump\t// out\n        /* \"#utility.yul\":3048:3165   */\n    tag_104:\n        /* \"#utility.yul\":3157:3158   */\n      0x00\n        /* \"#utility.yul\":3154:3155   */\n      dup1\n        /* \"#utility.yul\":3147:3159   */\n      revert\n        /* \"#utility.yul\":3171:3273   */\n    tag_105:\n        /* \"#utility.yul\":3212:3218   */\n      0x00\n        /* \"#utility.yul\":3263:3265   */\n      0x1f\n        /* \"#utility.yul\":3259:3266   */\n      not\n        /* \"#utility.yul\":3254:3256   */\n      0x1f\n        /* \"#utility.yul\":3247:3252   */\n      dup4\n        /* \"#utility.yul\":3243:3257   */\n      add\n        /* \"#utility.yul\":3239:3267   */\n      and\n        /* \"#utility.yul\":3229:3267   */\n      swap1\n      pop\n        /* \"#utility.yul\":3171:3273   */\n      swap2\n      swap1\n      pop\n      jump\t// out\n        /* \"#utility.yul\":3279:3560   */\n    tag_106:\n        /* \"#utility.yul\":3362:3389   */\n      tag_156\n        /* \"#utility.yul\":3384:3388   */\n      dup3\n        /* \"#utility.yul\":3362:3389   */\n      tag_105\n      jump\t// in\n    tag_156:\n        /* \"#utility.yul\":3354:3360   */\n      dup2\n        /* \"#utility.yul\":3350:3390   */\n      add\n        /* \"#utility.yul\":3492:3498   */\n      dup2\n        /* \"#utility.yul\":3480:3490   */\n      dup2\n        /* \"#utility.yul\":3477:3499   */\n      lt\n        /* \"#utility.yul\":3456:3474   */\n      0xffffffffffffffff\n        /* \"#utility.yul\":3444:3454   */\n      dup3\n        /* \"#utility.yul\":3441:3475   */\n      gt\n        /* \"#utility.yul\":3438:3500   */\n      or\n        /* \"#utility.yul\":3435:3523   */\n      iszero\n      tag_157\n      jumpi\n        /* \"#utility.yul\":3503:3521   */\n      tag_158\n      tag_12\n      jump\t// in\n    tag_158:\n        /* \"#utility.yul\":3435:3523   */\n    tag_157:\n        /* \"#utility.yul\":3543:3553   */\n      dup1\n        /* \"#utility.yul\":3539:3541   */\n      0x40\n        /* \"#utility.yul\":3532:3554   */\n      mstore\n        /* \"#utility.yul\":3322:3560   */\n      pop\n        /* \"#utility.yul\":3279:3560   */\n      pop\n      pop\n      jump\t// out\n        /* \"#utility.yul\":3566:3695   */\n    tag_107:\n        /* \"#utility.yul\":3600:3606   */\n      0x00\n        /* \"#utility.yul\":3627:3647   */\n      tag_160\n      tag_94\n      jump\t// in\n    tag_160:\n        /* \"#utility.yul\":3617:3647   */\n      swap1\n      pop\n        /* \"#utility.yul\":3656:3689   */\n      tag_161\n        /* \"#utility.yul\":3684:3688   */\n      dup3\n        /* \"#utility.yul\":3676:3682   */\n      dup3\n        /* \"#utility.yul\":3656:3689   */\n      tag_106\n      jump\t// in\n    tag_161:\n        /* \"#utility.yul\":3566:3695   */\n      swap2\n      swap1\n      pop\n      jump\t// out\n        /* \"#utility.yul\":3701:4012   */\n    tag_108:\n        /* \"#utility.yul\":3778:3782   */\n      0x00\n        /* \"#utility.yul\":3868:3886   */\n      0xffffffffffffffff\n        /* \"#utility.yul\":3860:3866   */\n      dup3\n        /* \"#utility.yul\":3857:3887   */\n      gt\n        /* \"#utility.yul\":3854:3910   */\n      iszero\n      tag_163\n      jumpi\n        /* \"#utility.yul\":3890:3908   */\n      tag_164\n      tag_12\n      jump\t// in\n    tag_164:\n        /* \"#utility.yul\":3854:3910   */\n    tag_163:\n        /* \"#utility.yul\":3940:3944   */\n      0x20\n        /* \"#utility.yul\":3932:3938   */\n      dup3\n        /* \"#utility.yul\":3928:3945   */\n      mul\n        /* \"#utility.yul\":3920:3945   */\n      swap1\n      pop\n        /* \"#utility.yul\":4000:4004   */\n      0x20\n        /* \"#utility.yul\":3994:3998   */\n      dup2\n        /* \"#utility.yul\":3990:4005   */\n      add\n        /* \"#utility.yul\":3982:4005   */\n      swap1\n      pop\n        /* \"#utility.yul\":3701:4012   */\n      swap2\n      swap1\n      pop\n      jump\t// out\n        /* \"#utility.yul\":4018:4135   */\n    tag_109:\n        /* \"#utility.yul\":4127:4128   */\n      0x00\n        /* \"#utility.yul\":4124:4125   */\n      dup1\n        /* \"#utility.yul\":4117:4129   */\n      revert\n        /* \"#utility.yul\":4141:4284   */\n    tag_110:\n        /* \"#utility.yul\":4198:4203   */\n      0x00\n        /* \"#utility.yul\":4229:4235   */\n      dup2\n        /* \"#utility.yul\":4223:4236   */\n      mload\n        /* \"#utility.yul\":4214:4236   */\n      swap1\n      pop\n        /* \"#utility.yul\":4245:4278   */\n      tag_167\n        /* \"#utility.yul\":4272:4277   */\n      dup2\n        /* \"#utility.yul\":4245:4278   */\n      tag_99\n      jump\t// in\n    tag_167:\n        /* \"#utility.yul\":4141:4284   */\n      swap3\n      swap2\n      pop\n      pop\n      jump\t// out\n        /* \"#utility.yul\":4307:5039   */\n    tag_111:\n        /* \"#utility.yul\":4414:4419   */\n      0x00\n        /* \"#utility.yul\":4439:4520   */\n      tag_169\n        /* \"#utility.yul\":4455:4519   */\n      tag_170\n        /* \"#utility.yul\":4512:4518   */\n      dup5\n        /* \"#utility.yul\":4455:4519   */\n      tag_108\n      jump\t// in\n    tag_170:\n        /* \"#utility.yul\":4439:4520   */\n      tag_107\n      jump\t// in\n    tag_169:\n        /* \"#utility.yul\":4430:4520   */\n      swap1\n      pop\n        /* \"#utility.yul\":4540:4545   */\n      dup1\n        /* \"#utility.yul\":4569:4575   */\n      dup4\n        /* \"#utility.yul\":4562:4567   */\n      dup3\n        /* \"#utility.yul\":4555:4576   */\n      mstore\n        /* \"#utility.yul\":4603:4607   */\n      0x20\n        /* \"#utility.yul\":4596:4601   */\n      dup3\n        /* \"#utility.yul\":4592:4608   */\n      add\n        /* \"#utility.yul\":4585:4608   */\n      swap1\n      pop\n        /* \"#utility.yul\":4656:4660   */\n      0x20\n        /* \"#utility.yul\":4648:4654   */\n      dup5\n        /* \"#utility.yul\":4644:4661   */\n      mul\n        /* \"#utility.yul\":4636:4642   */\n      dup4\n        /* \"#utility.yul\":4632:4662   */\n      add\n        /* \"#utility.yul\":4685:4688   */\n      dup6\n        /* \"#utility.yul\":4677:4683   */\n      dup2\n        /* \"#utility.yul\":4674:4689   */\n      gt\n        /* \"#utility.yul\":4671:4793   */\n      iszero\n      tag_171\n      jumpi\n        /* \"#utility.yul\":4704:4783   */\n      tag_172\n      tag_109\n      jump\t// in\n    tag_172:\n        /* \"#utility.yul\":4671:4793   */\n    tag_171:\n        /* \"#utility.yul\":4819:4825   */\n      dup4\n        /* \"#utility.yul\":4802:5033   */\n    tag_173:\n        /* \"#utility.yul\":4836:4842   */\n      dup2\n        /* \"#utility.yul\":4831:4834   */\n      dup2\n        /* \"#utility.yul\":4828:4843   */\n      lt\n        /* \"#utility.yul\":4802:5033   */\n      iszero\n      tag_175\n      jumpi\n        /* \"#utility.yul\":4911:4914   */\n      dup1\n        /* \"#utility.yul\":4940:4988   */\n      tag_176\n        /* \"#utility.yul\":4984:4987   */\n      dup9\n        /* \"#utility.yul\":4972:4982   */\n      dup3\n        /* \"#utility.yul\":4940:4988   */\n      tag_110\n      jump\t// in\n    tag_176:\n        /* \"#utility.yul\":4935:4938   */\n      dup5\n        /* \"#utility.yul\":4928:4989   */\n      mstore\n        /* \"#utility.yul\":5018:5022   */\n      0x20\n        /* \"#utility.yul\":5013:5016   */\n      dup5\n        /* \"#utility.yul\":5009:5023   */\n      add\n        /* \"#utility.yul\":5002:5023   */\n      swap4\n      pop\n        /* \"#utility.yul\":4878:5033   */\n      pop\n        /* \"#utility.yul\":4862:4866   */\n      0x20\n        /* \"#utility.yul\":4857:4860   */\n      dup2\n        /* \"#utility.yul\":4853:4867   */\n      add\n        /* \"#utility.yul\":4846:4867   */\n      swap1\n      pop\n        /* \"#utility.yul\":4802:5033   */\n      jump(tag_173)\n    tag_175:\n        /* \"#utility.yul\":4806:4827   */\n      pop\n        /* \"#utility.yul\":4420:5039   */\n      pop\n      pop\n        /* \"#utility.yul\":4307:5039   */\n      swap4\n      swap3\n      pop\n      pop\n      pop\n      jump\t// out\n        /* \"#utility.yul\":5062:5447   */\n    tag_112:\n        /* \"#utility.yul\":5144:5149   */\n      0x00\n        /* \"#utility.yul\":5193:5196   */\n      dup3\n        /* \"#utility.yul\":5186:5190   */\n      0x1f\n        /* \"#utility.yul\":5178:5184   */\n      dup4\n        /* \"#utility.yul\":5174:5191   */\n      add\n        /* \"#utility.yul\":5170:5197   */\n      slt\n        /* \"#utility.yul\":5160:5282   */\n      tag_178\n      jumpi\n        /* \"#utility.yul\":5201:5280   */\n      tag_179\n      tag_104\n      jump\t// in\n    tag_179:\n        /* \"#utility.yul\":5160:5282   */\n    tag_178:\n        /* \"#utility.yul\":5311:5317   */\n      dup2\n        /* \"#utility.yul\":5305:5318   */\n      mload\n        /* \"#utility.yul\":5336:5441   */\n      tag_180\n        /* \"#utility.yul\":5437:5440   */\n      dup5\n        /* \"#utility.yul\":5429:5435   */\n      dup3\n        /* \"#utility.yul\":5422:5426   */\n      0x20\n        /* \"#utility.yul\":5414:5420   */\n      dup7\n        /* \"#utility.yul\":5410:5427   */\n      add\n        /* \"#utility.yul\":5336:5441   */\n      tag_111\n      jump\t// in\n    tag_180:\n        /* \"#utility.yul\":5327:5441   */\n      swap2\n      pop\n        /* \"#utility.yul\":5150:5447   */\n      pop\n        /* \"#utility.yul\":5062:5447   */\n      swap3\n      swap2\n      pop\n      pop\n      jump\t// out\n        /* \"#utility.yul\":5453:6007   */\n    tag_49:\n        /* \"#utility.yul\":5548:5554   */\n      0x00\n        /* \"#utility.yul\":5597:5599   */\n      0x20\n        /* \"#utility.yul\":5585:5594   */\n      dup3\n        /* \"#utility.yul\":5576:5583   */\n      dup5\n        /* \"#utility.yul\":5572:5595   */\n      sub\n        /* \"#utility.yul\":5568:5600   */\n      slt\n        /* \"#utility.yul\":5565:5684   */\n      iszero\n      tag_182\n      jumpi\n        /* \"#utility.yul\":5603:5682   */\n      tag_183\n      tag_95\n      jump\t// in\n    tag_183:\n        /* \"#utility.yul\":5565:5684   */\n    tag_182:\n        /* \"#utility.yul\":5744:5745   */\n      0x00\n        /* \"#utility.yul\":5733:5742   */\n      dup3\n        /* \"#utility.yul\":5729:5746   */\n      add\n        /* \"#utility.yul\":5723:5747   */\n      mload\n        /* \"#utility.yul\":5774:5792   */\n      0xffffffffffffffff\n        /* \"#utility.yul\":5766:5772   */\n      dup2\n        /* \"#utility.yul\":5763:5793   */\n      gt\n        /* \"#utility.yul\":5760:5877   */\n      iszero\n      tag_184\n      jumpi\n        /* \"#utility.yul\":5796:5875   */\n      tag_185\n      tag_96\n      jump\t// in\n    tag_185:\n        /* \"#utility.yul\":5760:5877   */\n    tag_184:\n        /* \"#utility.yul\":5901:5990   */\n      tag_186\n        /* \"#utility.yul\":5982:5989   */\n      dup5\n        /* \"#utility.yul\":5973:5979   */\n      dup3\n        /* \"#utility.yul\":5962:5971   */\n      dup6\n        /* \"#utility.yul\":5958:5980   */\n      add\n        /* \"#utility.yul\":5901:5990   */\n      tag_112\n      jump\t// in\n    tag_186:\n        /* \"#utility.yul\":5891:5990   */\n      swap2\n      pop\n        /* \"#utility.yul\":5694:6000   */\n      pop\n        /* \"#utility.yul\":5453:6007   */\n      swap3\n      swap2\n      pop\n      pop\n      jump\t// out\n        /* \"#utility.yul\":6013:6131   */\n    tag_113:\n        /* \"#utility.yul\":6100:6124   */\n      tag_188\n        /* \"#utility.yul\":6118:6123   */\n      dup2\n        /* \"#utility.yul\":6100:6124   */\n      tag_98\n      jump\t// in\n    tag_188:\n        /* \"#utility.yul\":6095:6098   */\n      dup3\n        /* \"#utility.yul\":6088:6125   */\n      mstore\n        /* \"#utility.yul\":6013:6131   */\n      pop\n      pop\n      jump\t// out\n        /* \"#utility.yul\":6137:6228   */\n    tag_114:\n        /* \"#utility.yul\":6173:6180   */\n      0x00\n        /* \"#utility.yul\":6213:6221   */\n      0xffffff\n        /* \"#utility.yul\":6206:6211   */\n      dup3\n        /* \"#utility.yul\":6202:6222   */\n      and\n        /* \"#utility.yul\":6191:6222   */\n      swap1\n      pop\n        /* \"#utility.yul\":6137:6228   */\n      swap2\n      swap1\n      pop\n      jump\t// out\n        /* \"#utility.yul\":6234:6349   */\n    tag_115:\n        /* \"#utility.yul\":6319:6342   */\n      tag_191\n        /* \"#utility.yul\":6336:6341   */\n      dup2\n        /* \"#utility.yul\":6319:6342   */\n      tag_114\n      jump\t// in\n    tag_191:\n        /* \"#utility.yul\":6314:6317   */\n      dup3\n        /* \"#utility.yul\":6307:6343   */\n      mstore\n        /* \"#utility.yul\":6234:6349   */\n      pop\n      pop\n      jump\t// out\n        /* \"#utility.yul\":6355:6793   */\n    tag_56:\n        /* \"#utility.yul\":6502:6506   */\n      0x00\n        /* \"#utility.yul\":6540:6542   */\n      0x60\n        /* \"#utility.yul\":6529:6538   */\n      dup3\n        /* \"#utility.yul\":6525:6543   */\n      add\n        /* \"#utility.yul\":6517:6543   */\n      swap1\n      pop\n        /* \"#utility.yul\":6553:6624   */\n      tag_193\n        /* \"#utility.yul\":6621:6622   */\n      0x00\n        /* \"#utility.yul\":6610:6619   */\n      dup4\n        /* \"#utility.yul\":6606:6623   */\n      add\n        /* \"#utility.yul\":6597:6603   */\n      dup7\n        /* \"#utility.yul\":6553:6624   */\n      tag_113\n      jump\t// in\n    tag_193:\n        /* \"#utility.yul\":6634:6706   */\n      tag_194\n        /* \"#utility.yul\":6702:6704   */\n      0x20\n        /* \"#utility.yul\":6691:6700   */\n      dup4\n        /* \"#utility.yul\":6687:6705   */\n      add\n        /* \"#utility.yul\":6678:6684   */\n      dup6\n        /* \"#utility.yul\":6634:6706   */\n      tag_113\n      jump\t// in\n    tag_194:\n        /* \"#utility.yul\":6716:6786   */\n      tag_195\n        /* \"#utility.yul\":6782:6784   */\n      0x40\n        /* \"#utility.yul\":6771:6780   */\n      dup4\n        /* \"#utility.yul\":6767:6785   */\n      add\n        /* \"#utility.yul\":6758:6764   */\n      dup5\n        /* \"#utility.yul\":6716:6786   */\n      tag_115\n      jump\t// in\n    tag_195:\n        /* \"#utility.yul\":6355:6793   */\n      swap5\n      swap4\n      pop\n      pop\n      pop\n      pop\n      jump\t// out\n        /* \"#utility.yul\":6799:7150   */\n    tag_60:\n        /* \"#utility.yul\":6869:6875   */\n      0x00\n        /* \"#utility.yul\":6918:6920   */\n      0x20\n        /* \"#utility.yul\":6906:6915   */\n      dup3\n        /* \"#utility.yul\":6897:6904   */\n      dup5\n        /* \"#utility.yul\":6893:6916   */\n      sub\n        /* \"#utility.yul\":6889:6921   */\n      slt\n        /* \"#utility.yul\":6886:7005   */\n      iszero\n      tag_197\n      jumpi\n        /* \"#utility.yul\":6924:7003   */\n      tag_198\n      tag_95\n      jump\t// in\n    tag_198:\n        /* \"#utility.yul\":6886:7005   */\n    tag_197:\n        /* \"#utility.yul\":7044:7045   */\n      0x00\n        /* \"#utility.yul\":7069:7133   */\n      tag_199\n        /* \"#utility.yul\":7125:7132   */\n      dup5\n        /* \"#utility.yul\":7116:7122   */\n      dup3\n        /* \"#utility.yul\":7105:7114   */\n      dup6\n        /* \"#utility.yul\":7101:7123   */\n      add\n        /* \"#utility.yul\":7069:7133   */\n      tag_110\n      jump\t// in\n    tag_199:\n        /* \"#utility.yul\":7059:7133   */\n      swap2\n      pop\n        /* \"#utility.yul\":7015:7143   */\n      pop\n        /* \"#utility.yul\":6799:7150   */\n      swap3\n      swap2\n      pop\n      pop\n      jump\t// out\n        /* \"#utility.yul\":7156:7274   */\n    tag_116:\n        /* \"#utility.yul\":7193:7200   */\n      0x00\n        /* \"#utility.yul\":7233:7267   */\n      0xffffffffffffffffffffffffffffffff\n        /* \"#utility.yul\":7226:7231   */\n      dup3\n        /* \"#utility.yul\":7222:7268   */\n      and\n        /* \"#utility.yul\":7211:7268   */\n      swap1\n      pop\n        /* \"#utility.yul\":7156:7274   */\n      swap2\n      swap1\n      pop\n      jump\t// out\n        /* \"#utility.yul\":7280:7402   */\n    tag_117:\n        /* \"#utility.yul\":7353:7377   */\n      tag_202\n        /* \"#utility.yul\":7371:7376   */\n      dup2\n        /* \"#utility.yul\":7353:7377   */\n      tag_116\n      jump\t// in\n    tag_202:\n        /* \"#utility.yul\":7346:7351   */\n      dup2\n        /* \"#utility.yul\":7343:7378   */\n      eq\n        /* \"#utility.yul\":7333:7396   */\n      tag_203\n      jumpi\n        /* \"#utility.yul\":7392:7393   */\n      0x00\n        /* \"#utility.yul\":7389:7390   */\n      dup1\n        /* \"#utility.yul\":7382:7394   */\n      revert\n        /* \"#utility.yul\":7333:7396   */\n    tag_203:\n        /* \"#utility.yul\":7280:7402   */\n      pop\n      jump\t// out\n        /* \"#utility.yul\":7408:7551   */\n    tag_118:\n        /* \"#utility.yul\":7465:7470   */\n      0x00\n        /* \"#utility.yul\":7496:7502   */\n      dup2\n        /* \"#utility.yul\":7490:7503   */\n      mload\n        /* \"#utility.yul\":7481:7503   */\n      swap1\n      pop\n        /* \"#utility.yul\":7512:7545   */\n      tag_205\n        /* \"#utility.yul\":7539:7544   */\n      dup2\n        /* \"#utility.yul\":7512:7545   */\n      tag_117\n      jump\t// in\n    tag_205:\n        /* \"#utility.yul\":7408:7551   */\n      swap3\n      swap2\n      pop\n      pop\n      jump\t// out\n        /* \"#utility.yul\":7557:7908   */\n    tag_76:\n        /* \"#utility.yul\":7627:7633   */\n      0x00\n        /* \"#utility.yul\":7676:7678   */\n      0x20\n        /* \"#utility.yul\":7664:7673   */\n      dup3\n        /* \"#utility.yul\":7655:7662   */\n      dup5\n        /* \"#utility.yul\":7651:7674   */\n      sub\n        /* \"#utility.yul\":7647:7679   */\n      slt\n        /* \"#utility.yul\":7644:7763   */\n      iszero\n      tag_207\n      jumpi\n        /* \"#utility.yul\":7682:7761   */\n      tag_208\n      tag_95\n      jump\t// in\n    tag_208:\n        /* \"#utility.yul\":7644:7763   */\n    tag_207:\n        /* \"#utility.yul\":7802:7803   */\n      0x00\n        /* \"#utility.yul\":7827:7891   */\n      tag_209\n        /* \"#utility.yul\":7883:7890   */\n      dup5\n        /* \"#utility.yul\":7874:7880   */\n      dup3\n        /* \"#utility.yul\":7863:7872   */\n      dup6\n        /* \"#utility.yul\":7859:7881   */\n      add\n        /* \"#utility.yul\":7827:7891   */\n      tag_118\n      jump\t// in\n    tag_209:\n        /* \"#utility.yul\":7817:7891   */\n      swap2\n      pop\n        /* \"#utility.yul\":7773:7901   */\n      pop\n        /* \"#utility.yul\":7557:7908   */\n      swap3\n      swap2\n      pop\n      pop\n      jump\t// out\n        /* \"#utility.yul\":7914:8081   */\n    tag_93:\n        /* \"#utility.yul\":7951:7954   */\n      0x00\n        /* \"#utility.yul\":7974:7996   */\n      tag_211\n        /* \"#utility.yul\":7990:7995   */\n      dup3\n        /* \"#utility.yul\":7974:7996   */\n      tag_102\n      jump\t// in\n    tag_211:\n        /* \"#utility.yul\":7965:7996   */\n      swap2\n      pop\n        /* \"#utility.yul\":8018:8022   */\n      0xff\n        /* \"#utility.yul\":8011:8016   */\n      dup3\n        /* \"#utility.yul\":8008:8023   */\n      sub\n        /* \"#utility.yul\":8005:8046   */\n      tag_212\n      jumpi\n        /* \"#utility.yul\":8026:8044   */\n      tag_213\n      tag_103\n      jump\t// in\n    tag_213:\n        /* \"#utility.yul\":8005:8046   */\n    tag_212:\n        /* \"#utility.yul\":8073:8074   */\n      0x01\n        /* \"#utility.yul\":8066:8071   */\n      dup3\n        /* \"#utility.yul\":8062:8075   */\n      add\n        /* \"#utility.yul\":8055:8075   */\n      swap1\n      pop\n        /* \"#utility.yul\":7914:8081   */\n      swap2\n      swap1\n      pop\n      jump\t// out\n\n    auxdata: 0xa264697066735822122005abfa4b04632f0c5cac1bb7caa53f4ef61433de883adb21d42565d2e9525bd864736f6c634300081c0033\n}\n",
				"bytecode": {
					"linkReferences": {
						"src/lib/UniswapUtils.sol": {
							"UniswapUtils": [
								{
									"length": 20,
									"start": 811
								}
							]
						}
					},
					"object": "610b6b610052600b82828239805160001a6073146045577f4e487b7100000000000000000000000000000000000000000000000000000000600052600060045260246000fd5b30600052607381538281f3fe73000000000000000000000000000000000000000030146080604052600436106100355760003560e01c80632744f26e1461003a575b600080fd5b610054600480360381019061004f9190610709565b61006a565b604051610061919061076b565b60405180910390f35b600080600467ffffffffffffffff81111561008857610087610786565b5b6040519080825280602002602001820160405280156100b65781602001602082028036833780820191505090505b5090506064816000815181106100cf576100ce6107b5565b5b602002602001019062ffffff16908162ffffff16815250506101f4816001815181106100fe576100fd6107b5565b5b602002602001019062ffffff16908162ffffff1681525050610bb88160028151811061012d5761012c6107b5565b5b602002602001019062ffffff16908162ffffff16815250506127108160038151811061015c5761015b6107b5565b5b602002602001019062ffffff16908162ffffff168152505060008061018187876102d2565b915091506000600467ffffffffffffffff8111156101a2576101a1610786565b5b6040519080825280602002602001820160405280156101d05781602001602082028036833780820191505090505b5090506000805b60048160ff1610156102b957600061020e86868b8a8660ff1681518110610201576102006107b5565b5b602002602001015161039c565b905080848360ff1681518110610227576102266107b5565b5b602002602001019073ffffffffffffffffffffffffffffffffffffffff16908173ffffffffffffffffffffffffffffffffffffffff1681525050600073ffffffffffffffffffffffffffffffffffffffff168173ffffffffffffffffffffffffffffffffffffffff160361029b57826102a9565b6001836102a89190610820565b5b92505080806001019150506101d7565b506102c48282610426565b955050505050509392505050565b600080600073__$ef8f7edcb508b38ed1a1bfabf3b1e64cc8$__631da2d57186866040518363ffffffff1660e01b8152600401610310929190610855565b600060405180830381865af415801561032d573d6000803e3d6000fd5b505050506040513d6000823e3d601f19601f8201168201806040525081019061035691906109bd565b90508060008151811061036c5761036b6107b5565b5b602002602001015181600181518110610388576103876107b5565b5b602002602001015192509250509250929050565b60008273ffffffffffffffffffffffffffffffffffffffff16631698ee828686856040518463ffffffff1660e01b81526004016103db93929190610a33565b602060405180830381865afa1580156103f8573d6000803e3d6000fd5b505050506040513d601f19601f8201168201806040525081019061041c9190610a6a565b9050949350505050565b6000808260ff1667ffffffffffffffff81111561044657610445610786565b5b6040519080825280602002602001820160405280156104745781602001602082028036833780820191505090505b50905060005b60048160ff1610156105bf57600073ffffffffffffffffffffffffffffffffffffffff16858260ff16815181106104b4576104b36107b5565b5b602002602001015173ffffffffffffffffffffffffffffffffffffffff16146105b2576000858260ff16815181106104ef576104ee6107b5565b5b602002602001015173ffffffffffffffffffffffffffffffffffffffff16631a6865026040518163ffffffff1660e01b8152600401602060405180830381865afa158015610541573d6000803e3d6000fd5b505050506040513d601f19601f820116820180604052508101906105659190610adf565b905080838360ff168151811061057e5761057d6107b5565b5b60200260200101906fffffffffffffffffffffffffffffffff1690816fffffffffffffffffffffffffffffffff1681525050505b808060010191505061047a565b5060006105cb826105f5565b9050848160ff16815181106105e3576105e26107b5565b5b60200260200101519250505092915050565b60008082519050600080600190505b828160ff16101561068c57848260ff1681518110610625576106246107b5565b5b60200260200101516fffffffffffffffffffffffffffffffff16858260ff1681518110610655576106546107b5565b5b60200260200101516fffffffffffffffffffffffffffffffff161115610679578091505b808061068490610b0c565b915050610604565b508092505050919050565b6000604051905090565b600080fd5b600080fd5b600073ffffffffffffffffffffffffffffffffffffffff82169050919050565b60006106d6826106ab565b9050919050565b6106e6816106cb565b81146106f157600080fd5b50565b600081359050610703816106dd565b92915050565b600080600060608486031215610722576107216106a1565b5b6000610730868287016106f4565b9350506020610741868287016106f4565b9250506040610752868287016106f4565b9150509250925092565b610765816106cb565b82525050565b6000602082019050610780600083018461075c565b92915050565b7f4e487b7100000000000000000000000000000000000000000000000000000000600052604160045260246000fd5b7f4e487b7100000000000000000000000000000000000000000000000000000000600052603260045260246000fd5b600060ff82169050919050565b7f4e487b7100000000000000000000000000000000000000000000000000000000600052601160045260246000fd5b600061082b826107e4565b9150610836836107e4565b9250828201905060ff81111561084f5761084e6107f1565b5b92915050565b600060408201905061086a600083018561075c565b610877602083018461075c565b9392505050565b600080fd5b6000601f19601f8301169050919050565b61089d82610883565b810181811067ffffffffffffffff821117156108bc576108bb610786565b5b80604052505050565b60006108cf610697565b90506108db8282610894565b919050565b600067ffffffffffffffff8211156108fb576108fa610786565b5b602082029050602081019050919050565b600080fd5b600081519050610920816106dd565b92915050565b6000610939610934846108e0565b6108c5565b9050808382526020820190506020840283018581111561095c5761095b61090c565b5b835b8181101561098557806109718882610911565b84526020840193505060208101905061095e565b5050509392505050565b600082601f8301126109a4576109a361087e565b5b81516109b4848260208601610926565b91505092915050565b6000602082840312156109d3576109d26106a1565b5b600082015167ffffffffffffffff8111156109f1576109f06106a6565b5b6109fd8482850161098f565b91505092915050565b610a0f816106cb565b82525050565b600062ffffff82169050919050565b610a2d81610a15565b82525050565b6000606082019050610a486000830186610a06565b610a556020830185610a06565b610a626040830184610a24565b949350505050565b600060208284031215610a8057610a7f6106a1565b5b6000610a8e84828501610911565b91505092915050565b60006fffffffffffffffffffffffffffffffff82169050919050565b610abc81610a97565b8114610ac757600080fd5b50565b600081519050610ad981610ab3565b92915050565b600060208284031215610af557610af46106a1565b5b6000610b0384828501610aca565b91505092915050565b6000610b17826107e4565b915060ff8203610b2a57610b296107f1565b5b60018201905091905056fea264697066735822122005abfa4b04632f0c5cac1bb7caa53f4ef61433de883adb21d42565d2e9525bd864736f6c634300081c0033",
					"opcodes": "PUSH2 0xB6B PUSH2 0x52 PUSH1 0xB DUP3 DUP3 DUP3 CODECOPY DUP1 MLOAD PUSH1 0x0 BYTE PUSH1 0x73 EQ PUSH1 0x45 JUMPI PUSH32 0x4E487B7100000000000000000000000000000000000000000000000000000000 PUSH1 0x0 MSTORE PUSH1 0x0 PUSH1 0x4 MSTORE PUSH1 0x24 PUSH1 0x0 REVERT JUMPDEST ADDRESS PUSH1 0x0 MSTORE PUSH1 0x73 DUP2 MSTORE8 DUP3 DUP2 RETURN INVALID PUSH20 0x0 ADDRESS EQ PUSH1 0x80 PUSH1 0x40 MSTORE PUSH1 0x4 CALLDATASIZE LT PUSH2 0x35 JUMPI PUSH1 0x0 CALLDATALOAD PUSH1 0xE0 SHR DUP1 PUSH4 0x2744F26E EQ PUSH2 0x3A JUMPI JUMPDEST PUSH1 0x0 DUP1 REVERT JUMPDEST PUSH2 0x54 PUSH1 0x4 DUP1 CALLDATASIZE SUB DUP2 ADD SWAP1 PUSH2 0x4F SWAP2 SWAP1 PUSH2 0x709 JUMP JUMPDEST PUSH2 0x6A JUMP JUMPDEST PUSH1 0x40 MLOAD PUSH2 0x61 SWAP2 SWAP1 PUSH2 0x76B JUMP JUMPDEST PUSH1 0x40 MLOAD DUP1 SWAP2 SUB SWAP1 RETURN JUMPDEST PUSH1 0x0 DUP1 PUSH1 0x4 PUSH8 0xFFFFFFFFFFFFFFFF DUP2 GT ISZERO PUSH2 0x88 JUMPI PUSH2 0x87 PUSH2 0x786 JUMP JUMPDEST JUMPDEST PUSH1 0x40 MLOAD SWAP1 DUP1 DUP3 MSTORE DUP1 PUSH1 0x20 MUL PUSH1 0x20 ADD DUP3 ADD PUSH1 0x40 MSTORE DUP1 ISZERO PUSH2 0xB6 JUMPI DUP2 PUSH1 0x20 ADD PUSH1 0x20 DUP3 MUL DUP1 CALLDATASIZE DUP4 CALLDATACOPY DUP1 DUP3 ADD SWAP2 POP POP SWAP1 POP JUMPDEST POP SWAP1 POP PUSH1 0x64 DUP2 PUSH1 0x0 DUP2 MLOAD DUP2 LT PUSH2 0xCF JUMPI PUSH2 0xCE PUSH2 0x7B5 JUMP JUMPDEST JUMPDEST PUSH1 0x20 MUL PUSH1 0x20 ADD ADD SWAP1 PUSH3 0xFFFFFF AND SWAP1 DUP2 PUSH3 0xFFFFFF AND DUP2 MSTORE POP POP PUSH2 0x1F4 DUP2 PUSH1 0x1 DUP2 MLOAD DUP2 LT PUSH2 0xFE JUMPI PUSH2 0xFD PUSH2 0x7B5 JUMP JUMPDEST JUMPDEST PUSH1 0x20 MUL PUSH1 0x20 ADD ADD SWAP1 PUSH3 0xFFFFFF AND SWAP1 DUP2 PUSH3 0xFFFFFF AND DUP2 MSTORE POP POP PUSH2 0xBB8 DUP2 PUSH1 0x2 DUP2 MLOAD DUP2 LT PUSH2 0x12D JUMPI PUSH2 0x12C PUSH2 0x7B5 JUMP JUMPDEST JUMPDEST PUSH1 0x20 MUL PUSH1 0x20 ADD ADD SWAP1 PUSH3 0xFFFFFF AND SWAP1 DUP2 PUSH3 0xFFFFFF AND DUP2 MSTORE POP POP PUSH2 0x2710 DUP2 PUSH1 0x3 DUP2 MLOAD DUP2 LT PUSH2 0x15C JUMPI PUSH2 0x15B PUSH2 0x7B5 JUMP JUMPDEST JUMPDEST PUSH1 0x20 MUL PUSH1 0x20 ADD ADD SWAP1 PUSH3 0xFFFFFF AND SWAP1 DUP2 PUSH3 0xFFFFFF AND DUP2 MSTORE POP POP PUSH1 0x0 DUP1 PUSH2 0x181 DUP8 DUP8 PUSH2 0x2D2 JUMP JUMPDEST SWAP2 POP SWAP2 POP PUSH1 0x0 PUSH1 0x4 PUSH8 0xFFFFFFFFFFFFFFFF DUP2 GT ISZERO PUSH2 0x1A2 JUMPI PUSH2 0x1A1 PUSH2 0x786 JUMP JUMPDEST JUMPDEST PUSH1 0x40 MLOAD SWAP1 DUP1 DUP3 MSTORE DUP1 PUSH1 0x20 MUL PUSH1 0x20 ADD DUP3 ADD PUSH1 0x40 MSTORE DUP1 ISZERO PUSH2 0x1D0 JUMPI DUP2 PUSH1 0x20 ADD PUSH1 0x20 DUP3 MUL DUP1 CALLDATASIZE DUP4 CALLDATACOPY DUP1 DUP3 ADD SWAP2 POP POP SWAP1 POP JUMPDEST POP SWAP1 POP PUSH1 0x0 DUP1 JUMPDEST PUSH1 0x4 DUP2 PUSH1 0xFF AND LT ISZERO PUSH2 0x2B9 JUMPI PUSH1 0x0 PUSH2 0x20E DUP7 DUP7 DUP12 DUP11 DUP7 PUSH1 0xFF AND DUP2 MLOAD DUP2 LT PUSH2 0x201 JUMPI PUSH2 0x200 PUSH2 0x7B5 JUMP JUMPDEST JUMPDEST PUSH1 0x20 MUL PUSH1 0x20 ADD ADD MLOAD PUSH2 0x39C JUMP JUMPDEST SWAP1 POP DUP1 DUP5 DUP4 PUSH1 0xFF AND DUP2 MLOAD DUP2 LT PUSH2 0x227 JUMPI PUSH2 0x226 PUSH2 0x7B5 JUMP JUMPDEST JUMPDEST PUSH1 0x20 MUL PUSH1 0x20 ADD ADD SWAP1 PUSH20 0xFFFFFFFFFFFFFFFFFFFFFFFFFFFFFFFFFFFFFFFF AND SWAP1 DUP2 PUSH20 0xFFFFFFFFFFFFFFFFFFFFFFFFFFFFFFFFFFFFFFFF AND DUP2 MSTORE POP POP PUSH1 0x0 PUSH20 0xFFFFFFFFFFFFFFFFFFFFFFFFFFFFFFFFFFFFFFFF AND DUP2 PUSH20 0xFFFFFFFFFFFFFFFFFFFFFFFFFFFFFFFFFFFFFFFF AND SUB PUSH2 0x29B JUMPI DUP3 PUSH2 0x2A9 JUMP JUMPDEST PUSH1 0x1 DUP4 PUSH2 0x2A8 SWAP2 SWAP1 PUSH2 0x820 JUMP JUMPDEST JUMPDEST SWAP3 POP POP DUP1 DUP1 PUSH1 0x1 ADD SWAP2 POP POP PUSH2 0x1D7 JUMP JUMPDEST POP PUSH2 0x2C4 DUP3 DUP3 PUSH2 0x426 JUMP JUMPDEST SWAP6 POP POP POP POP POP POP SWAP4 SWAP3 POP POP POP JUMP JUMPDEST PUSH1 0x0 DUP1 PUSH1 0x0 PUSH20 0x0 PUSH4 0x1DA2D571 DUP7 DUP7 PUSH1 0x40 MLOAD DUP4 PUSH4 0xFFFFFFFF AND PUSH1 0xE0 SHL DUP2 MSTORE PUSH1 0x4 ADD PUSH2 0x310 SWAP3 SWAP2 SWAP1 PUSH2 0x855 JUMP JUMPDEST PUSH1 0x0 PUSH1 0x40 MLOAD DUP1 DUP4 SUB DUP2 DUP7 GAS DELEGATECALL ISZERO DUP1 ISZERO PUSH2 0x32D JUMPI RETURNDATASIZE PUSH1 0x0 DUP1 RETURNDATACOPY RETURNDATASIZE PUSH1 0x0 REVERT JUMPDEST POP POP POP POP PUSH1 0x40 MLOAD RETURNDATASIZE PUSH1 0x0 DUP3 RETURNDATACOPY RETURNDATASIZE PUSH1 0x1F NOT PUSH1 0x1F DUP3 ADD AND DUP3 ADD DUP1 PUSH1 0x40 MSTORE POP DUP2 ADD SWAP1 PUSH2 0x356 SWAP2 SWAP1 PUSH2 0x9BD JUMP JUMPDEST SWAP1 POP DUP1 PUSH1 0x0 DUP2 MLOAD DUP2 LT PUSH2 0x36C JUMPI PUSH2 0x36B PUSH2 0x7B5 JUMP JUMPDEST JUMPDEST PUSH1 0x20 MUL PUSH1 0x20 ADD ADD MLOAD DUP2 PUSH1 0x1 DUP2 MLOAD DUP2 LT PUSH2 0x388 JUMPI PUSH2 0x387 PUSH2 0x7B5 JUMP JUMPDEST JUMPDEST PUSH1 0x20 MUL PUSH1 0x20 ADD ADD MLOAD SWAP3 POP SWAP3 POP POP SWAP3 POP SWAP3 SWAP1 POP JUMP JUMPDEST PUSH1 0x0 DUP3 PUSH20 0xFFFFFFFFFFFFFFFFFFFFFFFFFFFFFFFFFFFFFFFF AND PUSH4 0x1698EE82 DUP7 DUP7 DUP6 PUSH1 0x40 MLOAD DUP5 PUSH4 0xFFFFFFFF AND PUSH1 0xE0 SHL DUP2 MSTORE PUSH1 0x4 ADD PUSH2 0x3DB SWAP4 SWAP3 SWAP2 SWAP1 PUSH2 0xA33 JUMP JUMPDEST PUSH1 0x20 PUSH1 0x40 MLOAD DUP1 DUP4 SUB DUP2 DUP7 GAS STATICCALL ISZERO DUP1 ISZERO PUSH2 0x3F8 JUMPI RETURNDATASIZE PUSH1 0x0 DUP1 RETURNDATACOPY RETURNDATASIZE PUSH1 0x0 REVERT JUMPDEST POP POP POP POP PUSH1 0x40 MLOAD RETURNDATASIZE PUSH1 0x1F NOT PUSH1 0x1F DUP3 ADD AND DUP3 ADD DUP1 PUSH1 0x40 MSTORE POP DUP2 ADD SWAP1 PUSH2 0x41C SWAP2 SWAP1 PUSH2 0xA6A JUMP JUMPDEST SWAP1 POP SWAP5 SWAP4 POP POP POP POP JUMP JUMPDEST PUSH1 0x0 DUP1 DUP3 PUSH1 0xFF AND PUSH8 0xFFFFFFFFFFFFFFFF DUP2 GT ISZERO PUSH2 0x446 JUMPI PUSH2 0x445 PUSH2 0x786 JUMP JUMPDEST JUMPDEST PUSH1 0x40 MLOAD SWAP1 DUP1 DUP3 MSTORE DUP1 PUSH1 0x20 MUL PUSH1 0x20 ADD DUP3 ADD PUSH1 0x40 MSTORE DUP1 ISZERO PUSH2 0x474 JUMPI DUP2 PUSH1 0x20 ADD PUSH1 0x20 DUP3 MUL DUP1 CALLDATASIZE DUP4 CALLDATACOPY DUP1 DUP3 ADD SWAP2 POP POP SWAP1 POP JUMPDEST POP SWAP1 POP PUSH1 0x0 JUMPDEST PUSH1 0x4 DUP2 PUSH1 0xFF AND LT ISZERO PUSH2 0x5BF JUMPI PUSH1 0x0 PUSH20 0xFFFFFFFFFFFFFFFFFFFFFFFFFFFFFFFFFFFFFFFF AND DUP6 DUP3 PUSH1 0xFF AND DUP2 MLOAD DUP2 LT PUSH2 0x4B4 JUMPI PUSH2 0x4B3 PUSH2 0x7B5 JUMP JUMPDEST JUMPDEST PUSH1 0x20 MUL PUSH1 0x20 ADD ADD MLOAD PUSH20 0xFFFFFFFFFFFFFFFFFFFFFFFFFFFFFFFFFFFFFFFF AND EQ PUSH2 0x5B2 JUMPI PUSH1 0x0 DUP6 DUP3 PUSH1 0xFF AND DUP2 MLOAD DUP2 LT PUSH2 0x4EF JUMPI PUSH2 0x4EE PUSH2 0x7B5 JUMP JUMPDEST JUMPDEST PUSH1 0x20 MUL PUSH1 0x20 ADD ADD MLOAD PUSH20 0xFFFFFFFFFFFFFFFFFFFFFFFFFFFFFFFFFFFFFFFF AND PUSH4 0x1A686502 PUSH1 0x40 MLOAD DUP2 PUSH4 0xFFFFFFFF AND PUSH1 0xE0 SHL DUP2 MSTORE PUSH1 0x4 ADD PUSH1 0x20 PUSH1 0x40 MLOAD DUP1 DUP4 SUB DUP2 DUP7 GAS STATICCALL ISZERO DUP1 ISZERO PUSH2 0x541 JUMPI RETURNDATASIZE PUSH1 0x0 DUP1 RETURNDATACOPY RETURNDATASIZE PUSH1 0x0 REVERT JUMPDEST POP POP POP POP PUSH1 0x40 MLOAD RETURNDATASIZE PUSH1 0x1F NOT PUSH1 0x1F DUP3 ADD AND DUP3 ADD DUP1 PUSH1 0x40 MSTORE POP DUP2 ADD SWAP1 PUSH2 0x565 SWAP2 SWAP1 PUSH2 0xADF JUMP JUMPDEST SWAP1 POP DUP1 DUP4 DUP4 PUSH1 0xFF AND DUP2 MLOAD DUP2 LT PUSH2 0x57E JUMPI PUSH2 0x57D PUSH2 0x7B5 JUMP JUMPDEST JUMPDEST PUSH1 0x20 MUL PUSH1 0x20 ADD ADD SWAP1 PUSH16 0xFFFFFFFFFFFFFFFFFFFFFFFFFFFFFFFF AND SWAP1 DUP2 PUSH16 0xFFFFFFFFFFFFFFFFFFFFFFFFFFFFFFFF AND DUP2 MSTORE POP POP POP JUMPDEST DUP1 DUP1 PUSH1 0x1 ADD SWAP2 POP POP PUSH2 0x47A JUMP JUMPDEST POP PUSH1 0x0 PUSH2 0x5CB DUP3 PUSH2 0x5F5 JUMP JUMPDEST SWAP1 POP DUP5 DUP2 PUSH1 0xFF AND DUP2 MLOAD DUP2 LT PUSH2 0x5E3 JUMPI PUSH2 0x5E2 PUSH2 0x7B5 JUMP JUMPDEST JUMPDEST PUSH1 0x20 MUL PUSH1 0x20 ADD ADD MLOAD SWAP3 POP POP POP SWAP3 SWAP2 POP POP JUMP JUMPDEST PUSH1 0x0 DUP1 DUP3 MLOAD SWAP1 POP PUSH1 0x0 DUP1 PUSH1 0x1 SWAP1 POP JUMPDEST DUP3 DUP2 PUSH1 0xFF AND LT ISZERO PUSH2 0x68C JUMPI DUP5 DUP3 PUSH1 0xFF AND DUP2 MLOAD DUP2 LT PUSH2 0x625 JUMPI PUSH2 0x624 PUSH2 0x7B5 JUMP JUMPDEST JUMPDEST PUSH1 0x20 MUL PUSH1 0x20 ADD ADD MLOAD PUSH16 0xFFFFFFFFFFFFFFFFFFFFFFFFFFFFFFFF AND DUP6 DUP3 PUSH1 0xFF AND DUP2 MLOAD DUP2 LT PUSH2 0x655 JUMPI PUSH2 0x654 PUSH2 0x7B5 JUMP JUMPDEST JUMPDEST PUSH1 0x20 MUL PUSH1 0x20 ADD ADD MLOAD PUSH16 0xFFFFFFFFFFFFFFFFFFFFFFFFFFFFFFFF AND GT ISZERO PUSH2 0x679 JUMPI DUP1 SWAP2 POP JUMPDEST DUP1 DUP1 PUSH2 0x684 SWAP1 PUSH2 0xB0C JUMP JUMPDEST SWAP2 POP POP PUSH2 0x604 JUMP JUMPDEST POP DUP1 SWAP3 POP POP POP SWAP2 SWAP1 POP JUMP JUMPDEST PUSH1 0x0 PUSH1 0x40 MLOAD SWAP1 POP SWAP1 JUMP JUMPDEST PUSH1 0x0 DUP1 REVERT JUMPDEST PUSH1 0x0 DUP1 REVERT JUMPDEST PUSH1 0x0 PUSH20 0xFFFFFFFFFFFFFFFFFFFFFFFFFFFFFFFFFFFFFFFF DUP3 AND SWAP1 POP SWAP2 SWAP1 POP JUMP JUMPDEST PUSH1 0x0 PUSH2 0x6D6 DUP3 PUSH2 0x6AB JUMP JUMPDEST SWAP1 POP SWAP2 SWAP1 POP JUMP JUMPDEST PUSH2 0x6E6 DUP2 PUSH2 0x6CB JUMP JUMPDEST DUP2 EQ PUSH2 0x6F1 JUMPI PUSH1 0x0 DUP1 REVERT JUMPDEST POP JUMP JUMPDEST PUSH1 0x0 DUP2 CALLDATALOAD SWAP1 POP PUSH2 0x703 DUP2 PUSH2 0x6DD JUMP JUMPDEST SWAP3 SWAP2 POP POP JUMP JUMPDEST PUSH1 0x0 DUP1 PUSH1 0x0 PUSH1 0x60 DUP5 DUP7 SUB SLT ISZERO PUSH2 0x722 JUMPI PUSH2 0x721 PUSH2 0x6A1 JUMP JUMPDEST JUMPDEST PUSH1 0x0 PUSH2 0x730 DUP7 DUP3 DUP8 ADD PUSH2 0x6F4 JUMP JUMPDEST SWAP4 POP POP PUSH1 0x20 PUSH2 0x741 DUP7 DUP3 DUP8 ADD PUSH2 0x6F4 JUMP JUMPDEST SWAP3 POP POP PUSH1 0x40 PUSH2 0x752 DUP7 DUP3 DUP8 ADD PUSH2 0x6F4 JUMP JUMPDEST SWAP2 POP POP SWAP3 POP SWAP3 POP SWAP3 JUMP JUMPDEST PUSH2 0x765 DUP2 PUSH2 0x6CB JUMP JUMPDEST DUP3 MSTORE POP POP JUMP JUMPDEST PUSH1 0x0 PUSH1 0x20 DUP3 ADD SWAP1 POP PUSH2 0x780 PUSH1 0x0 DUP4 ADD DUP5 PUSH2 0x75C JUMP JUMPDEST SWAP3 SWAP2 POP POP JUMP JUMPDEST PUSH32 0x4E487B7100000000000000000000000000000000000000000000000000000000 PUSH1 0x0 MSTORE PUSH1 0x41 PUSH1 0x4 MSTORE PUSH1 0x24 PUSH1 0x0 REVERT JUMPDEST PUSH32 0x4E487B7100000000000000000000000000000000000000000000000000000000 PUSH1 0x0 MSTORE PUSH1 0x32 PUSH1 0x4 MSTORE PUSH1 0x24 PUSH1 0x0 REVERT JUMPDEST PUSH1 0x0 PUSH1 0xFF DUP3 AND SWAP1 POP SWAP2 SWAP1 POP JUMP JUMPDEST PUSH32 0x4E487B7100000000000000000000000000000000000000000000000000000000 PUSH1 0x0 MSTORE PUSH1 0x11 PUSH1 0x4 MSTORE PUSH1 0x24 PUSH1 0x0 REVERT JUMPDEST PUSH1 0x0 PUSH2 0x82B DUP3 PUSH2 0x7E4 JUMP JUMPDEST SWAP2 POP PUSH2 0x836 DUP4 PUSH2 0x7E4 JUMP JUMPDEST SWAP3 POP DUP3 DUP3 ADD SWAP1 POP PUSH1 0xFF DUP2 GT ISZERO PUSH2 0x84F JUMPI PUSH2 0x84E PUSH2 0x7F1 JUMP JUMPDEST JUMPDEST SWAP3 SWAP2 POP POP JUMP JUMPDEST PUSH1 0x0 PUSH1 0x40 DUP3 ADD SWAP1 POP PUSH2 0x86A PUSH1 0x0 DUP4 ADD DUP6 PUSH2 0x75C JUMP JUMPDEST PUSH2 0x877 PUSH1 0x20 DUP4 ADD DUP5 PUSH2 0x75C JUMP JUMPDEST SWAP4 SWAP3 POP POP POP JUMP JUMPDEST PUSH1 0x0 DUP1 REVERT JUMPDEST PUSH1 0x0 PUSH1 0x1F NOT PUSH1 0x1F DUP4 ADD AND SWAP1 POP SWAP2 SWAP1 POP JUMP JUMPDEST PUSH2 0x89D DUP3 PUSH2 0x883 JUMP JUMPDEST DUP2 ADD DUP2 DUP2 LT PUSH8 0xFFFFFFFFFFFFFFFF DUP3 GT OR ISZERO PUSH2 0x8BC JUMPI PUSH2 0x8BB PUSH2 0x786 JUMP JUMPDEST JUMPDEST DUP1 PUSH1 0x40 MSTORE POP POP POP JUMP JUMPDEST PUSH1 0x0 PUSH2 0x8CF PUSH2 0x697 JUMP JUMPDEST SWAP1 POP PUSH2 0x8DB DUP3 DUP3 PUSH2 0x894 JUMP JUMPDEST SWAP2 SWAP1 POP JUMP JUMPDEST PUSH1 0x0 PUSH8 0xFFFFFFFFFFFFFFFF DUP3 GT ISZERO PUSH2 0x8FB JUMPI PUSH2 0x8FA PUSH2 0x786 JUMP JUMPDEST JUMPDEST PUSH1 0x20 DUP3 MUL SWAP1 POP PUSH1 0x20 DUP2 ADD SWAP1 POP SWAP2 SWAP1 POP JUMP JUMPDEST PUSH1 0x0 DUP1 REVERT JUMPDEST PUSH1 0x0 DUP2 MLOAD SWAP1 POP PUSH2 0x920 DUP2 PUSH2 0x6DD JUMP JUMPDEST SWAP3 SWAP2 POP POP JUMP JUMPDEST PUSH1 0x0 PUSH2 0x939 PUSH2 0x934 DUP5 PUSH2 0x8E0 JUMP JUMPDEST PUSH2 0x8C5 JUMP JUMPDEST SWAP1 POP DUP1 DUP4 DUP3 MSTORE PUSH1 0x20 DUP3 ADD SWAP1 POP PUSH1 0x20 DUP5 MUL DUP4 ADD DUP6 DUP2 GT ISZERO PUSH2 0x95C JUMPI PUSH2 0x95B PUSH2 0x90C JUMP JUMPDEST JUMPDEST DUP4 JUMPDEST DUP2 DUP2 LT ISZERO PUSH2 0x985 JUMPI DUP1 PUSH2 0x971 DUP9 DUP3 PUSH2 0x911 JUMP JUMPDEST DUP5 MSTORE PUSH1 0x20 DUP5 ADD SWAP4 POP POP PUSH1 0x20 DUP2 ADD SWAP1 POP PUSH2 0x95E JUMP JUMPDEST POP POP POP SWAP4 SWAP3 POP POP POP JUMP JUMPDEST PUSH1 0x0 DUP3 PUSH1 0x1F DUP4 ADD SLT PUSH2 0x9A4 JUMPI PUSH2 0x9A3 PUSH2 0x87E JUMP JUMPDEST JUMPDEST DUP2 MLOAD PUSH2 0x9B4 DUP5 DUP3 PUSH1 0x20 DUP7 ADD PUSH2 0x926 JUMP JUMPDEST SWAP2 POP POP SWAP3 SWAP2 POP POP JUMP JUMPDEST PUSH1 0x0 PUSH1 0x20 DUP3 DUP5 SUB SLT ISZERO PUSH2 0x9D3 JUMPI PUSH2 0x9D2 PUSH2 0x6A1 JUMP JUMPDEST JUMPDEST PUSH1 0x0 DUP3 ADD MLOAD PUSH8 0xFFFFFFFFFFFFFFFF DUP2 GT ISZERO PUSH2 0x9F1 JUMPI PUSH2 0x9F0 PUSH2 0x6A6 JUMP JUMPDEST JUMPDEST PUSH2 0x9FD DUP5 DUP3 DUP6 ADD PUSH2 0x98F JUMP JUMPDEST SWAP2 POP POP SWAP3 SWAP2 POP POP JUMP JUMPDEST PUSH2 0xA0F DUP2 PUSH2 0x6CB JUMP JUMPDEST DUP3 MSTORE POP POP JUMP JUMPDEST PUSH1 0x0 PUSH3 0xFFFFFF DUP3 AND SWAP1 POP SWAP2 SWAP1 POP JUMP JUMPDEST PUSH2 0xA2D DUP2 PUSH2 0xA15 JUMP JUMPDEST DUP3 MSTORE POP POP JUMP JUMPDEST PUSH1 0x0 PUSH1 0x60 DUP3 ADD SWAP1 POP PUSH2 0xA48 PUSH1 0x0 DUP4 ADD DUP7 PUSH2 0xA06 JUMP JUMPDEST PUSH2 0xA55 PUSH1 0x20 DUP4 ADD DUP6 PUSH2 0xA06 JUMP JUMPDEST PUSH2 0xA62 PUSH1 0x40 DUP4 ADD DUP5 PUSH2 0xA24 JUMP JUMPDEST SWAP5 SWAP4 POP POP POP POP JUMP JUMPDEST PUSH1 0x0 PUSH1 0x20 DUP3 DUP5 SUB SLT ISZERO PUSH2 0xA80 JUMPI PUSH2 0xA7F PUSH2 0x6A1 JUMP JUMPDEST JUMPDEST PUSH1 0x0 PUSH2 0xA8E DUP5 DUP3 DUP6 ADD PUSH2 0x911 JUMP JUMPDEST SWAP2 POP POP SWAP3 SWAP2 POP POP JUMP JUMPDEST PUSH1 0x0 PUSH16 0xFFFFFFFFFFFFFFFFFFFFFFFFFFFFFFFF DUP3 AND SWAP1 POP SWAP2 SWAP1 POP JUMP JUMPDEST PUSH2 0xABC DUP2 PUSH2 0xA97 JUMP JUMPDEST DUP2 EQ PUSH2 0xAC7 JUMPI PUSH1 0x0 DUP1 REVERT JUMPDEST POP JUMP JUMPDEST PUSH1 0x0 DUP2 MLOAD SWAP1 POP PUSH2 0xAD9 DUP2 PUSH2 0xAB3 JUMP JUMPDEST SWAP3 SWAP2 POP POP JUMP JUMPDEST PUSH1 0x0 PUSH1 0x20 DUP3 DUP5 SUB SLT ISZERO PUSH2 0xAF5 JUMPI PUSH2 0xAF4 PUSH2 0x6A1 JUMP JUMPDEST JUMPDEST PUSH1 0x0 PUSH2 0xB03 DUP5 DUP3 DUP6 ADD PUSH2 0xACA JUMP JUMPDEST SWAP2 POP POP SWAP3 SWAP2 POP POP JUMP JUMPDEST PUSH1 0x0 PUSH2 0xB17 DUP3 PUSH2 0x7E4 JUMP JUMPDEST SWAP2 POP PUSH1 0xFF DUP3 SUB PUSH2 0xB2A JUMPI PUSH2 0xB29 PUSH2 0x7F1 JUMP JUMPDEST JUMPDEST PUSH1 0x1 DUP3 ADD SWAP1 POP SWAP2 SWAP1 POP JUMP INVALID LOG2 PUSH5 0x6970667358 0x22 SLT KECCAK256 SDIV 0xAB STATICCALL 0x4B DIV PUSH4 0x2F0C5CAC SHL 0xB7 0xCA 0xA5 EXTCODEHASH 0x4E 0xF6 EQ CALLER 0xDE DUP9 GASPRICE 0xDB 0x21 0xD4 0x25 PUSH6 0xD2E9525BD864 PUSH20 0x6F6C634300081C00330000000000000000000000 "
				},
				"gasEstimates": {
					"creation": {
						"codeDepositCost": "584600",
						"executionCost": "644",
						"totalCost": "585244"
					},
					"external": {
						"searchPool(address,address,address)": "infinite"
					},
					"internal": {
						"checkPools(address,address,address,uint24)": "infinite",
						"getLargerLiquidity(uint128[] memory)": "infinite",
						"orderTokens(address,address)": "infinite",
						"searchBestPool(address[] memory,uint8)": "infinite"
					}
				},
				"methodIdentifiers": {
					"searchPool(address,address,address)": "2744f26e"
				}
			},
			"storageLayout": {
				"storage": [],
				"types": null
			},
			"userdoc": {
				"kind": "user",
				"methods": {
					"searchPool(address,address,address)": {
						"notice": "Searches for the most suitable pool to swap between two tokens (`tokenA` and `tokenB`)       across a specified factory contract. The function iterates over predefined fee tiers      to locate pools and selects the best one based on predefined criteria."
					}
				},
				"version": 1
			}
		}
	}
}