{
	"data": {
		"bytecode": {
			"linkReferences": {
				"src/lib/Decoder.sol": {
					"DataDecoder": [
						{
							"length": 20,
							"start": 2851
						},
						{
							"length": 20,
							"start": 4064
						}
					]
				}
			},
			"object": "608060405234801561001057600080fd5b506040516128fd3803806128fd8339818101604052810190610032919061024d565b600160008190555060018060008773ffffffffffffffffffffffffffffffffffffffff1673ffffffffffffffffffffffffffffffffffffffff16815260200190815260200160002060006101000a81548160ff021916908315150217905550600073ffffffffffffffffffffffffffffffffffffffff168473ffffffffffffffffffffffffffffffffffffffff161461011d5760018060008673ffffffffffffffffffffffffffffffffffffffff1673ffffffffffffffffffffffffffffffffffffffff16815260200190815260200160002060006101000a81548160ff0219169083151502179055505b82600260006101000a81548173ffffffffffffffffffffffffffffffffffffffff021916908373ffffffffffffffffffffffffffffffffffffffff16021790555081600360006101000a81548173ffffffffffffffffffffffffffffffffffffffff021916908373ffffffffffffffffffffffffffffffffffffffff16021790555080600460006101000a81548173ffffffffffffffffffffffffffffffffffffffff021916908373ffffffffffffffffffffffffffffffffffffffff16021790555050505050506102c8565b600080fd5b600073ffffffffffffffffffffffffffffffffffffffff82169050919050565b600061021a826101ef565b9050919050565b61022a8161020f565b811461023557600080fd5b50565b60008151905061024781610221565b92915050565b600080600080600060a08688031215610269576102686101ea565b5b600061027788828901610238565b955050602061028888828901610238565b945050604061029988828901610238565b93505060606102aa88828901610238565b92505060806102bb88828901610238565b9150509295509295909350565b612626806102d76000396000f3fe60806040526004361061008a5760003560e01c8063569560e811610059578063569560e8146102d15780636ba3fef2146102fc5780636d070f4b14610325578063c1461d5714610362578063df6d92121461037e5761021f565b8063022914a71461022457806320bedf4314610261578063392f5f641461028a57806353a0f7b6146102b55761021f565b3661021f57600034116100d2576040517f08c379a00000000000000000000000000000000000000000000000000000000081526004016100c990611530565b60405180910390fd5b600460009054906101000a900473ffffffffffffffffffffffffffffffffffffffff1673ffffffffffffffffffffffffffffffffffffffff1663d0e30db0346040518263ffffffff1660e01b81526004016000604051808303818588803b15801561013c57600080fd5b505af1158015610150573d6000803e3d6000fd5b5050505050600160056000600460009054906101000a900473ffffffffffffffffffffffffffffffffffffffff1673ffffffffffffffffffffffffffffffffffffffff1673ffffffffffffffffffffffffffffffffffffffff16815260200190815260200160002060006101000a81548160ff0219169083151502179055503373ffffffffffffffffffffffffffffffffffffffff167f1e57e3bb474320be3d2c77138f75b7c3941292d647f5f9634e33a8e94e0e069b346040516102159190611569565b60405180910390a2005b600080fd5b34801561023057600080fd5b5061024b600480360381019061024691906115f6565b6103a9565b604051610258919061163e565b60405180910390f35b34801561026d57600080fd5b5061028860048036038101906102839190611685565b6103c9565b005b34801561029657600080fd5b5061029f6106a7565b6040516102ac9190611737565b60405180910390f35b6102cf60048036038101906102ca91906117b7565b6106cd565b005b3480156102dd57600080fd5b506102e6610956565b6040516102f3919061184c565b60405180910390f35b34801561030857600080fd5b50610323600480360381019061031e9190611867565b61097c565b005b34801561033157600080fd5b5061034c600480360381019061034791906118ce565b610b80565b604051610359919061163e565b60405180910390f35b61037c60048036038101906103779190611685565b610fdc565b005b34801561038a57600080fd5b506103936113b8565b6040516103a0919061193d565b60405180910390f35b60016020528060005260406000206000915054906101000a900460ff1681565b826000600360009054906101000a900473ffffffffffffffffffffffffffffffffffffffff1673ffffffffffffffffffffffffffffffffffffffff16639feb2c45836040518263ffffffff1660e01b8152600401610427919061193d565b602060405180830381865afa158015610444573d6000803e3d6000fd5b505050506040513d601f19601f820116820180604052508101906104689190611984565b9050806104aa576040517f08c379a00000000000000000000000000000000000000000000000000000000081526004016104a1906119fd565b60405180910390fd5b600160008373ffffffffffffffffffffffffffffffffffffffff1673ffffffffffffffffffffffffffffffffffffffff16815260200190815260200160002060009054906101000a900460ff16610536576040517f08c379a000000000000000000000000000000000000000000000000000000000815260040161052d90611a69565b60405180910390fd5b8373ffffffffffffffffffffffffffffffffffffffff166323b872dd8630866040518463ffffffff1660e01b815260040161057393929190611a89565b6020604051808303816000875af1158015610592573d6000803e3d6000fd5b505050506040513d601f19601f820116820180604052508101906105b69190611984565b506001600660008673ffffffffffffffffffffffffffffffffffffffff1673ffffffffffffffffffffffffffffffffffffffff16815260200190815260200160002060006101000a81548160ff0219169083151502179055506001600560008673ffffffffffffffffffffffffffffffffffffffff1673ffffffffffffffffffffffffffffffffffffffff16815260200190815260200160002060006101000a81548160ff0219169083151502179055507f0939f6f4877faf071412e527bc4c6d0bd65ad077e52b57334f7765265647a7f18484604051610698929190611ac0565b60405180910390a15050505050565b600360009054906101000a900473ffffffffffffffffffffffffffffffffffffffff1681565b816000600360009054906101000a900473ffffffffffffffffffffffffffffffffffffffff1673ffffffffffffffffffffffffffffffffffffffff16639feb2c45836040518263ffffffff1660e01b815260040161072b919061193d565b602060405180830381865afa158015610748573d6000803e3d6000fd5b505050506040513d601f19601f8201168201806040525081019061076c9190611984565b9050806107ae576040517f08c379a00000000000000000000000000000000000000000000000000000000081526004016107a5906119fd565b60405180910390fd5b600160008373ffffffffffffffffffffffffffffffffffffffff1673ffffffffffffffffffffffffffffffffffffffff16815260200190815260200160002060009054906101000a900460ff1661083a576040517f08c379a000000000000000000000000000000000000000000000000000000000815260040161083190611a69565b60405180910390fd5b60008087879061084a9190611cdd565b73__$00b1c153a7235bd92416135f0ee09e3535$__63b29a122790916040518263ffffffff1660e01b81526004016108829190611e33565b600060405180830381865af415801561089f573d6000803e3d6000fd5b505050506040513d6000823e3d601f19601f820116820180604052508101906108c8919061215d565b915091508473ffffffffffffffffffffffffffffffffffffffff1663ebe113fb3484846040518463ffffffff1660e01b81526004016109089291906123a8565b60206040518083038185885af1158015610926573d6000803e3d6000fd5b50505050506040513d601f19601f8201168201806040525081019061094b9190611984565b505050505050505050565b600260009054906101000a900473ffffffffffffffffffffffffffffffffffffffff1681565b816000600360009054906101000a900473ffffffffffffffffffffffffffffffffffffffff1673ffffffffffffffffffffffffffffffffffffffff16639feb2c45836040518263ffffffff1660e01b81526004016109da919061193d565b602060405180830381865afa1580156109f7573d6000803e3d6000fd5b505050506040513d601f19601f82011682018060405250810190610a1b9190611984565b905080610a5d576040517f08c379a0000000000000000000000000000000000000000000000000000000008152600401610a54906119fd565b60405180910390fd5b600160008373ffffffffffffffffffffffffffffffffffffffff1673ffffffffffffffffffffffffffffffffffffffff16815260200190815260200160002060009054906101000a900460ff16610ae9576040517f08c379a0000000000000000000000000000000000000000000000000000000008152600401610ae090611a69565b60405180910390fd5b610af16113de565b8573ffffffffffffffffffffffffffffffffffffffff1663a9059cbb84876040518363ffffffff1660e01b8152600401610b2c929190611ac0565b6020604051808303816000875af1158015610b4b573d6000803e3d6000fd5b505050506040513d601f19601f82011682018060405250810190610b6f9190611984565b50610b78611424565b505050505050565b6000816000600360009054906101000a900473ffffffffffffffffffffffffffffffffffffffff1673ffffffffffffffffffffffffffffffffffffffff16639feb2c45836040518263ffffffff1660e01b8152600401610be0919061193d565b602060405180830381865afa158015610bfd573d6000803e3d6000fd5b505050506040513d601f19601f82011682018060405250810190610c219190611984565b905080610c63576040517f08c379a0000000000000000000000000000000000000000000000000000000008152600401610c5a906119fd565b60405180910390fd5b600160008373ffffffffffffffffffffffffffffffffffffffff1673ffffffffffffffffffffffffffffffffffffffff16815260200190815260200160002060009054906101000a900460ff16610cef576040517f08c379a0000000000000000000000000000000000000000000000000000000008152600401610ce690611a69565b60405180910390fd5b610cf76113de565b600080878790610d079190611cdd565b73__$00b1c153a7235bd92416135f0ee09e3535$__63b29a122790916040518263ffffffff1660e01b8152600401610d3f9190611e33565b600060405180830381865af4158015610d5c573d6000803e3d6000fd5b505050506040513d6000823e3d601f19601f82011682018060405250810190610d85919061215d565b91509150600080600080600260009054906101000a900473ffffffffffffffffffffffffffffffffffffffff1673ffffffffffffffffffffffffffffffffffffffff1663a9d2b1d5876040518263ffffffff1660e01b8152600401610dea91906123d8565b600060405180830381865afa158015610e07573d6000803e3d6000fd5b505050506040513d6000823e3d601f19601f82011682018060405250810190610e3091906124b6565b93509350935093508315610ee45760005b8160ff168160ff161015610ee257610ed586858360ff1681518110610e6957610e68612555565b5b602002602001015160ff1681518110610e8557610e84612555565b5b60200260200101516040015187858460ff1681518110610ea857610ea7612555565b5b602002602001015160ff1681518110610ec457610ec3612555565b5b60200260200101516060015161142e565b8080600101915050610e41565b505b6000600260009054906101000a900473ffffffffffffffffffffffffffffffffffffffff1673ffffffffffffffffffffffffffffffffffffffff1663ebe113fb88886040518363ffffffff1660e01b8152600401610f439291906123a8565b6020604051808303816000875af1158015610f62573d6000803e3d6000fd5b505050506040513d601f19601f82011682018060405250810190610f869190611984565b90507f6caf114a658f9dcf6e91511c03b0857224920530d592656698df2c977a71acfa8787604051610fb99291906123a8565b60405180910390a180995050505050505050610fd3611424565b50509392505050565b826000600360009054906101000a900473ffffffffffffffffffffffffffffffffffffffff1673ffffffffffffffffffffffffffffffffffffffff16639feb2c45836040518263ffffffff1660e01b815260040161103a919061193d565b602060405180830381865afa158015611057573d6000803e3d6000fd5b505050506040513d601f19601f8201168201806040525081019061107b9190611984565b9050806110bd576040517f08c379a00000000000000000000000000000000000000000000000000000000081526004016110b4906119fd565b60405180910390fd5b600160008373ffffffffffffffffffffffffffffffffffffffff1673ffffffffffffffffffffffffffffffffffffffff16815260200190815260200160002060009054906101000a900460ff16611149576040517f08c379a000000000000000000000000000000000000000000000000000000000815260040161114090611a69565b60405180910390fd5b6111516113de565b600073ffffffffffffffffffffffffffffffffffffffff168473ffffffffffffffffffffffffffffffffffffffff1614801561118d5750600034145b806111d15750600073ffffffffffffffffffffffffffffffffffffffff168473ffffffffffffffffffffffffffffffffffffffff16141580156111d05750600034115b5b806112155750600073ffffffffffffffffffffffffffffffffffffffff168473ffffffffffffffffffffffffffffffffffffffff16141580156112145750600083145b5b15611255576040517fa8c278dd00000000000000000000000000000000000000000000000000000000815260040161124c906125d0565b60405180910390fd5b60008073ffffffffffffffffffffffffffffffffffffffff168573ffffffffffffffffffffffffffffffffffffffff16036112925734905061136f565b8390508473ffffffffffffffffffffffffffffffffffffffff166323b872dd8730876040518463ffffffff1660e01b81526004016112d293929190611a89565b6020604051808303816000875af11580156112f1573d6000803e3d6000fd5b505050506040513d601f19601f820116820180604052508101906113159190611984565b506001600560008773ffffffffffffffffffffffffffffffffffffffff1673ffffffffffffffffffffffffffffffffffffffff16815260200190815260200160002060006101000a81548160ff0219169083151502179055505b7f0939f6f4877faf071412e527bc4c6d0bd65ad077e52b57334f7765265647a7f185826040516113a0929190611ac0565b60405180910390a1506113b1611424565b5050505050565b600460009054906101000a900473ffffffffffffffffffffffffffffffffffffffff1681565b60026000540361141a576040517f3ee5aeb500000000000000000000000000000000000000000000000000000000815260040160405180910390fd5b6002600081905550565b6001600081905550565b8173ffffffffffffffffffffffffffffffffffffffff1663095ea7b3600260009054906101000a900473ffffffffffffffffffffffffffffffffffffffff16836040518363ffffffff1660e01b815260040161148b929190611ac0565b6020604051808303816000875af11580156114aa573d6000803e3d6000fd5b505050506040513d601f19601f820116820180604052508101906114ce9190611984565b505050565b600082825260208201905092915050565b7f53656e64206d6f72652045746865720000000000000000000000000000000000600082015250565b600061151a600f836114d3565b9150611525826114e4565b602082019050919050565b600060208201905081810360008301526115498161150d565b9050919050565b6000819050919050565b61156381611550565b82525050565b600060208201905061157e600083018461155a565b92915050565b6000604051905090565b600080fd5b600080fd5b600073ffffffffffffffffffffffffffffffffffffffff82169050919050565b60006115c382611598565b9050919050565b6115d3816115b8565b81146115de57600080fd5b50565b6000813590506115f0816115ca565b92915050565b60006020828403121561160c5761160b61158e565b5b600061161a848285016115e1565b91505092915050565b60008115159050919050565b61163881611623565b82525050565b6000602082019050611653600083018461162f565b92915050565b61166281611550565b811461166d57600080fd5b50565b60008135905061167f81611659565b92915050565b60008060006060848603121561169e5761169d61158e565b5b60006116ac868287016115e1565b93505060206116bd868287016115e1565b92505060406116ce86828701611670565b9150509250925092565b6000819050919050565b60006116fd6116f86116f384611598565b6116d8565b611598565b9050919050565b600061170f826116e2565b9050919050565b600061172182611704565b9050919050565b61173181611716565b82525050565b600060208201905061174c6000830184611728565b92915050565b600080fd5b600080fd5b600080fd5b60008083601f84011261177757611776611752565b5b8235905067ffffffffffffffff81111561179457611793611757565b5b6020830191508360208202830111156117b0576117af61175c565b5b9250929050565b600080600080606085870312156117d1576117d061158e565b5b600085013567ffffffffffffffff8111156117ef576117ee611593565b5b6117fb87828801611761565b9450945050602061180e878288016115e1565b925050604061181f878288016115e1565b91505092959194509250565b600061183682611704565b9050919050565b6118468161182b565b82525050565b6000602082019050611861600083018461183d565b92915050565b600080600080608085870312156118815761188061158e565b5b600061188f878288016115e1565b94505060206118a087828801611670565b93505060406118b1878288016115e1565b92505060606118c2878288016115e1565b91505092959194509250565b6000806000604084860312156118e7576118e661158e565b5b600084013567ffffffffffffffff81111561190557611904611593565b5b61191186828701611761565b93509350506020611924868287016115e1565b9150509250925092565b611937816115b8565b82525050565b6000602082019050611952600083018461192e565b92915050565b61196181611623565b811461196c57600080fd5b50565b60008151905061197e81611958565b92915050565b60006020828403121561199a5761199961158e565b5b60006119a88482850161196f565b91505092915050565b7f61636365737320636f6e74726f6c3a206f6e6c7950726f746f636f6c00000000600082015250565b60006119e7601c836114d3565b91506119f2826119b1565b602082019050919050565b60006020820190508181036000830152611a16816119da565b9050919050565b7f61636365737320636f6e74726f6c3a206f6e6c794f776e657200000000000000600082015250565b6000611a536019836114d3565b9150611a5e82611a1d565b602082019050919050565b60006020820190508181036000830152611a8281611a46565b9050919050565b6000606082019050611a9e600083018661192e565b611aab602083018561192e565b611ab8604083018461155a565b949350505050565b6000604082019050611ad5600083018561192e565b611ae2602083018461155a565b9392505050565b6000601f19601f8301169050919050565b7f4e487b7100000000000000000000000000000000000000000000000000000000600052604160045260246000fd5b611b3282611ae9565b810181811067ffffffffffffffff82111715611b5157611b50611afa565b5b80604052505050565b6000611b64611584565b9050611b708282611b29565b919050565b600067ffffffffffffffff821115611b9057611b8f611afa565b5b602082029050602081019050919050565b600080fd5b600067ffffffffffffffff821115611bc157611bc0611afa565b5b611bca82611ae9565b9050602081019050919050565b82818337600083830152505050565b6000611bf9611bf484611ba6565b611b5a565b905082815260208101848484011115611c1557611c14611ba1565b5b611c20848285611bd7565b509392505050565b600082601f830112611c3d57611c3c611752565b5b8135611c4d848260208601611be6565b91505092915050565b6000611c69611c6484611b75565b611b5a565b90508083825260208201905060208402830185811115611c8c57611c8b61175c565b5b835b81811015611cd357803567ffffffffffffffff811115611cb157611cb0611752565b5b808601611cbe8982611c28565b85526020850194505050602081019050611c8e565b5050509392505050565b6000611cea368484611c56565b905092915050565b600081519050919050565b600082825260208201905092915050565b6000819050602082019050919050565b600081519050919050565b600082825260208201905092915050565b60005b83811015611d58578082015181840152602081019050611d3d565b60008484015250505050565b6000611d6f82611d1e565b611d798185611d29565b9350611d89818560208601611d3a565b611d9281611ae9565b840191505092915050565b6000611da98383611d64565b905092915050565b6000602082019050919050565b6000611dc982611cf2565b611dd38185611cfd565b935083602082028501611de585611d0e565b8060005b85811015611e215784840389528151611e028582611d9d565b9450611e0d83611db1565b925060208a01995050600181019050611de9565b50829750879550505050505092915050565b60006020820190508181036000830152611e4d8184611dbe565b905092915050565b60007fffffffff0000000000000000000000000000000000000000000000000000000082169050919050565b611e8a81611e55565b8114611e9557600080fd5b50565b600081519050611ea781611e81565b92915050565b600067ffffffffffffffff821115611ec857611ec7611afa565b5b602082029050602081019050919050565b600080fd5b600080fd5b600060ff82169050919050565b611ef981611ee3565b8114611f0457600080fd5b50565b600081519050611f1681611ef0565b92915050565b6000611f2f611f2a84611ba6565b611b5a565b905082815260208101848484011115611f4b57611f4a611ba1565b5b611f56848285611d3a565b509392505050565b600082601f830112611f7357611f72611752565b5b8151611f83848260208601611f1c565b91505092915050565b600081519050611f9b816115ca565b92915050565b600081519050611fb081611659565b92915050565b6000819050919050565b611fc981611fb6565b8114611fd457600080fd5b50565b600081519050611fe681611fc0565b92915050565b600060c0828403121561200257612001611ed9565b5b61200c60c0611b5a565b9050600061201c84828501611f07565b600083015250602082015167ffffffffffffffff8111156120405761203f611ede565b5b61204c84828501611f5e565b602083015250604061206084828501611f8c565b604083015250606061207484828501611fa1565b606083015250608061208884828501611fd7565b60808301525060a061209c8482850161196f565b60a08301525092915050565b60006120bb6120b684611ead565b611b5a565b905080838252602082019050602084028301858111156120de576120dd61175c565b5b835b8181101561212557805167ffffffffffffffff81111561210357612102611752565b5b8086016121108982611fec565b855260208501945050506020810190506120e0565b5050509392505050565b600082601f83011261214457612143611752565b5b81516121548482602086016120a8565b91505092915050565b600080604083850312156121745761217361158e565b5b600061218285828601611e98565b925050602083015167ffffffffffffffff8111156121a3576121a2611593565b5b6121af8582860161212f565b9150509250929050565b6121c281611e55565b82525050565b600081519050919050565b600082825260208201905092915050565b6000819050602082019050919050565b6121fd81611ee3565b82525050565b600082825260208201905092915050565b600061221f82611d1e565b6122298185612203565b9350612239818560208601611d3a565b61224281611ae9565b840191505092915050565b612256816115b8565b82525050565b61226581611550565b82525050565b61227481611fb6565b82525050565b61228381611623565b82525050565b600060c0830160008301516122a160008601826121f4565b50602083015184820360208601526122b98282612214565b91505060408301516122ce604086018261224d565b5060608301516122e1606086018261225c565b5060808301516122f4608086018261226b565b5060a083015161230760a086018261227a565b508091505092915050565b600061231e8383612289565b905092915050565b6000602082019050919050565b600061233e826121c8565b61234881856121d3565b93508360208202850161235a856121e4565b8060005b8581101561239657848403895281516123778582612312565b945061238283612326565b925060208a0199505060018101905061235e565b50829750879550505050505092915050565b60006040820190506123bd60008301856121b9565b81810360208301526123cf8184612333565b90509392505050565b60006020820190506123ed60008301846121b9565b92915050565b600067ffffffffffffffff82111561240e5761240d611afa565b5b602082029050602081019050919050565b600061243261242d846123f3565b611b5a565b905080838252602082019050602084028301858111156124555761245461175c565b5b835b8181101561247e578061246a8882611f07565b845260208401935050602081019050612457565b5050509392505050565b600082601f83011261249d5761249c611752565b5b81516124ad84826020860161241f565b91505092915050565b600080600080608085870312156124d0576124cf61158e565b5b60006124de8782880161196f565b945050602085015167ffffffffffffffff8111156124ff576124fe611593565b5b61250b87828801612488565b935050604085015167ffffffffffffffff81111561252c5761252b611593565b5b61253887828801612488565b925050606061254987828801611f07565b91505092959194509250565b7f4e487b7100000000000000000000000000000000000000000000000000000000600052603260045260246000fd5b7f6465706f73697446756e64730000000000000000000000000000000000000000600082015250565b60006125ba600c836114d3565b91506125c582612584565b602082019050919050565b600060208201905081810360008301526125e9816125ad565b905091905056fea26469706673582212202469e3650e3281bbfd2ef3e0465c1929ca42cc0bc13a1f87f12149de1bbabe5764736f6c634300081a0033",
			"opcodes": "PUSH1 0x80 PUSH1 0x40 MSTORE CALLVALUE DUP1 ISZERO PUSH2 0x10 JUMPI PUSH1 0x0 DUP1 REVERT JUMPDEST POP PUSH1 0x40 MLOAD PUSH2 0x28FD CODESIZE SUB DUP1 PUSH2 0x28FD DUP4 CODECOPY DUP2 DUP2 ADD PUSH1 0x40 MSTORE DUP2 ADD SWAP1 PUSH2 0x32 SWAP2 SWAP1 PUSH2 0x24D JUMP JUMPDEST PUSH1 0x1 PUSH1 0x0 DUP2 SWAP1 SSTORE POP PUSH1 0x1 DUP1 PUSH1 0x0 DUP8 PUSH20 0xFFFFFFFFFFFFFFFFFFFFFFFFFFFFFFFFFFFFFFFF AND PUSH20 0xFFFFFFFFFFFFFFFFFFFFFFFFFFFFFFFFFFFFFFFF AND DUP2 MSTORE PUSH1 0x20 ADD SWAP1 DUP2 MSTORE PUSH1 0x20 ADD PUSH1 0x0 KECCAK256 PUSH1 0x0 PUSH2 0x100 EXP DUP2 SLOAD DUP2 PUSH1 0xFF MUL NOT AND SWAP1 DUP4 ISZERO ISZERO MUL OR SWAP1 SSTORE POP PUSH1 0x0 PUSH20 0xFFFFFFFFFFFFFFFFFFFFFFFFFFFFFFFFFFFFFFFF AND DUP5 PUSH20 0xFFFFFFFFFFFFFFFFFFFFFFFFFFFFFFFFFFFFFFFF AND EQ PUSH2 0x11D JUMPI PUSH1 0x1 DUP1 PUSH1 0x0 DUP7 PUSH20 0xFFFFFFFFFFFFFFFFFFFFFFFFFFFFFFFFFFFFFFFF AND PUSH20 0xFFFFFFFFFFFFFFFFFFFFFFFFFFFFFFFFFFFFFFFF AND DUP2 MSTORE PUSH1 0x20 ADD SWAP1 DUP2 MSTORE PUSH1 0x20 ADD PUSH1 0x0 KECCAK256 PUSH1 0x0 PUSH2 0x100 EXP DUP2 SLOAD DUP2 PUSH1 0xFF MUL NOT AND SWAP1 DUP4 ISZERO ISZERO MUL OR SWAP1 SSTORE POP JUMPDEST DUP3 PUSH1 0x2 PUSH1 0x0 PUSH2 0x100 EXP DUP2 SLOAD DUP2 PUSH20 0xFFFFFFFFFFFFFFFFFFFFFFFFFFFFFFFFFFFFFFFF MUL NOT AND SWAP1 DUP4 PUSH20 0xFFFFFFFFFFFFFFFFFFFFFFFFFFFFFFFFFFFFFFFF AND MUL OR SWAP1 SSTORE POP DUP2 PUSH1 0x3 PUSH1 0x0 PUSH2 0x100 EXP DUP2 SLOAD DUP2 PUSH20 0xFFFFFFFFFFFFFFFFFFFFFFFFFFFFFFFFFFFFFFFF MUL NOT AND SWAP1 DUP4 PUSH20 0xFFFFFFFFFFFFFFFFFFFFFFFFFFFFFFFFFFFFFFFF AND MUL OR SWAP1 SSTORE POP DUP1 PUSH1 0x4 PUSH1 0x0 PUSH2 0x100 EXP DUP2 SLOAD DUP2 PUSH20 0xFFFFFFFFFFFFFFFFFFFFFFFFFFFFFFFFFFFFFFFF MUL NOT AND SWAP1 DUP4 PUSH20 0xFFFFFFFFFFFFFFFFFFFFFFFFFFFFFFFFFFFFFFFF AND MUL OR SWAP1 SSTORE POP POP POP POP POP POP PUSH2 0x2C8 JUMP JUMPDEST PUSH1 0x0 DUP1 REVERT JUMPDEST PUSH1 0x0 PUSH20 0xFFFFFFFFFFFFFFFFFFFFFFFFFFFFFFFFFFFFFFFF DUP3 AND SWAP1 POP SWAP2 SWAP1 POP JUMP JUMPDEST PUSH1 0x0 PUSH2 0x21A DUP3 PUSH2 0x1EF JUMP JUMPDEST SWAP1 POP SWAP2 SWAP1 POP JUMP JUMPDEST PUSH2 0x22A DUP2 PUSH2 0x20F JUMP JUMPDEST DUP2 EQ PUSH2 0x235 JUMPI PUSH1 0x0 DUP1 REVERT JUMPDEST POP JUMP JUMPDEST PUSH1 0x0 DUP2 MLOAD SWAP1 POP PUSH2 0x247 DUP2 PUSH2 0x221 JUMP JUMPDEST SWAP3 SWAP2 POP POP JUMP JUMPDEST PUSH1 0x0 DUP1 PUSH1 0x0 DUP1 PUSH1 0x0 PUSH1 0xA0 DUP7 DUP9 SUB SLT ISZERO PUSH2 0x269 JUMPI PUSH2 0x268 PUSH2 0x1EA JUMP JUMPDEST JUMPDEST PUSH1 0x0 PUSH2 0x277 DUP9 DUP3 DUP10 ADD PUSH2 0x238 JUMP JUMPDEST SWAP6 POP POP PUSH1 0x20 PUSH2 0x288 DUP9 DUP3 DUP10 ADD PUSH2 0x238 JUMP JUMPDEST SWAP5 POP POP PUSH1 0x40 PUSH2 0x299 DUP9 DUP3 DUP10 ADD PUSH2 0x238 JUMP JUMPDEST SWAP4 POP POP PUSH1 0x60 PUSH2 0x2AA DUP9 DUP3 DUP10 ADD PUSH2 0x238 JUMP JUMPDEST SWAP3 POP POP PUSH1 0x80 PUSH2 0x2BB DUP9 DUP3 DUP10 ADD PUSH2 0x238 JUMP JUMPDEST SWAP2 POP POP SWAP3 SWAP6 POP SWAP3 SWAP6 SWAP1 SWAP4 POP JUMP JUMPDEST PUSH2 0x2626 DUP1 PUSH2 0x2D7 PUSH1 0x0 CODECOPY PUSH1 0x0 RETURN INVALID PUSH1 0x80 PUSH1 0x40 MSTORE PUSH1 0x4 CALLDATASIZE LT PUSH2 0x8A JUMPI PUSH1 0x0 CALLDATALOAD PUSH1 0xE0 SHR DUP1 PUSH4 0x569560E8 GT PUSH2 0x59 JUMPI DUP1 PUSH4 0x569560E8 EQ PUSH2 0x2D1 JUMPI DUP1 PUSH4 0x6BA3FEF2 EQ PUSH2 0x2FC JUMPI DUP1 PUSH4 0x6D070F4B EQ PUSH2 0x325 JUMPI DUP1 PUSH4 0xC1461D57 EQ PUSH2 0x362 JUMPI DUP1 PUSH4 0xDF6D9212 EQ PUSH2 0x37E JUMPI PUSH2 0x21F JUMP JUMPDEST DUP1 PUSH4 0x22914A7 EQ PUSH2 0x224 JUMPI DUP1 PUSH4 0x20BEDF43 EQ PUSH2 0x261 JUMPI DUP1 PUSH4 0x392F5F64 EQ PUSH2 0x28A JUMPI DUP1 PUSH4 0x53A0F7B6 EQ PUSH2 0x2B5 JUMPI PUSH2 0x21F JUMP JUMPDEST CALLDATASIZE PUSH2 0x21F JUMPI PUSH1 0x0 CALLVALUE GT PUSH2 0xD2 JUMPI PUSH1 0x40 MLOAD PUSH32 0x8C379A000000000000000000000000000000000000000000000000000000000 DUP2 MSTORE PUSH1 0x4 ADD PUSH2 0xC9 SWAP1 PUSH2 0x1530 JUMP JUMPDEST PUSH1 0x40 MLOAD DUP1 SWAP2 SUB SWAP1 REVERT JUMPDEST PUSH1 0x4 PUSH1 0x0 SWAP1 SLOAD SWAP1 PUSH2 0x100 EXP SWAP1 DIV PUSH20 0xFFFFFFFFFFFFFFFFFFFFFFFFFFFFFFFFFFFFFFFF AND PUSH20 0xFFFFFFFFFFFFFFFFFFFFFFFFFFFFFFFFFFFFFFFF AND PUSH4 0xD0E30DB0 CALLVALUE PUSH1 0x40 MLOAD DUP3 PUSH4 0xFFFFFFFF AND PUSH1 0xE0 SHL DUP2 MSTORE PUSH1 0x4 ADD PUSH1 0x0 PUSH1 0x40 MLOAD DUP1 DUP4 SUB DUP2 DUP6 DUP9 DUP1 EXTCODESIZE ISZERO DUP1 ISZERO PUSH2 0x13C JUMPI PUSH1 0x0 DUP1 REVERT JUMPDEST POP GAS CALL ISZERO DUP1 ISZERO PUSH2 0x150 JUMPI RETURNDATASIZE PUSH1 0x0 DUP1 RETURNDATACOPY RETURNDATASIZE PUSH1 0x0 REVERT JUMPDEST POP POP POP POP POP PUSH1 0x1 PUSH1 0x5 PUSH1 0x0 PUSH1 0x4 PUSH1 0x0 SWAP1 SLOAD SWAP1 PUSH2 0x100 EXP SWAP1 DIV PUSH20 0xFFFFFFFFFFFFFFFFFFFFFFFFFFFFFFFFFFFFFFFF AND PUSH20 0xFFFFFFFFFFFFFFFFFFFFFFFFFFFFFFFFFFFFFFFF AND PUSH20 0xFFFFFFFFFFFFFFFFFFFFFFFFFFFFFFFFFFFFFFFF AND DUP2 MSTORE PUSH1 0x20 ADD SWAP1 DUP2 MSTORE PUSH1 0x20 ADD PUSH1 0x0 KECCAK256 PUSH1 0x0 PUSH2 0x100 EXP DUP2 SLOAD DUP2 PUSH1 0xFF MUL NOT AND SWAP1 DUP4 ISZERO ISZERO MUL OR SWAP1 SSTORE POP CALLER PUSH20 0xFFFFFFFFFFFFFFFFFFFFFFFFFFFFFFFFFFFFFFFF AND PUSH32 0x1E57E3BB474320BE3D2C77138F75B7C3941292D647F5F9634E33A8E94E0E069B CALLVALUE PUSH1 0x40 MLOAD PUSH2 0x215 SWAP2 SWAP1 PUSH2 0x1569 JUMP JUMPDEST PUSH1 0x40 MLOAD DUP1 SWAP2 SUB SWAP1 LOG2 STOP JUMPDEST PUSH1 0x0 DUP1 REVERT JUMPDEST CALLVALUE DUP1 ISZERO PUSH2 0x230 JUMPI PUSH1 0x0 DUP1 REVERT JUMPDEST POP PUSH2 0x24B PUSH1 0x4 DUP1 CALLDATASIZE SUB DUP2 ADD SWAP1 PUSH2 0x246 SWAP2 SWAP1 PUSH2 0x15F6 JUMP JUMPDEST PUSH2 0x3A9 JUMP JUMPDEST PUSH1 0x40 MLOAD PUSH2 0x258 SWAP2 SWAP1 PUSH2 0x163E JUMP JUMPDEST PUSH1 0x40 MLOAD DUP1 SWAP2 SUB SWAP1 RETURN JUMPDEST CALLVALUE DUP1 ISZERO PUSH2 0x26D JUMPI PUSH1 0x0 DUP1 REVERT JUMPDEST POP PUSH2 0x288 PUSH1 0x4 DUP1 CALLDATASIZE SUB DUP2 ADD SWAP1 PUSH2 0x283 SWAP2 SWAP1 PUSH2 0x1685 JUMP JUMPDEST PUSH2 0x3C9 JUMP JUMPDEST STOP JUMPDEST CALLVALUE DUP1 ISZERO PUSH2 0x296 JUMPI PUSH1 0x0 DUP1 REVERT JUMPDEST POP PUSH2 0x29F PUSH2 0x6A7 JUMP JUMPDEST PUSH1 0x40 MLOAD PUSH2 0x2AC SWAP2 SWAP1 PUSH2 0x1737 JUMP JUMPDEST PUSH1 0x40 MLOAD DUP1 SWAP2 SUB SWAP1 RETURN JUMPDEST PUSH2 0x2CF PUSH1 0x4 DUP1 CALLDATASIZE SUB DUP2 ADD SWAP1 PUSH2 0x2CA SWAP2 SWAP1 PUSH2 0x17B7 JUMP JUMPDEST PUSH2 0x6CD JUMP JUMPDEST STOP JUMPDEST CALLVALUE DUP1 ISZERO PUSH2 0x2DD JUMPI PUSH1 0x0 DUP1 REVERT JUMPDEST POP PUSH2 0x2E6 PUSH2 0x956 JUMP JUMPDEST PUSH1 0x40 MLOAD PUSH2 0x2F3 SWAP2 SWAP1 PUSH2 0x184C JUMP JUMPDEST PUSH1 0x40 MLOAD DUP1 SWAP2 SUB SWAP1 RETURN JUMPDEST CALLVALUE DUP1 ISZERO PUSH2 0x308 JUMPI PUSH1 0x0 DUP1 REVERT JUMPDEST POP PUSH2 0x323 PUSH1 0x4 DUP1 CALLDATASIZE SUB DUP2 ADD SWAP1 PUSH2 0x31E SWAP2 SWAP1 PUSH2 0x1867 JUMP JUMPDEST PUSH2 0x97C JUMP JUMPDEST STOP JUMPDEST CALLVALUE DUP1 ISZERO PUSH2 0x331 JUMPI PUSH1 0x0 DUP1 REVERT JUMPDEST POP PUSH2 0x34C PUSH1 0x4 DUP1 CALLDATASIZE SUB DUP2 ADD SWAP1 PUSH2 0x347 SWAP2 SWAP1 PUSH2 0x18CE JUMP JUMPDEST PUSH2 0xB80 JUMP JUMPDEST PUSH1 0x40 MLOAD PUSH2 0x359 SWAP2 SWAP1 PUSH2 0x163E JUMP JUMPDEST PUSH1 0x40 MLOAD DUP1 SWAP2 SUB SWAP1 RETURN JUMPDEST PUSH2 0x37C PUSH1 0x4 DUP1 CALLDATASIZE SUB DUP2 ADD SWAP1 PUSH2 0x377 SWAP2 SWAP1 PUSH2 0x1685 JUMP JUMPDEST PUSH2 0xFDC JUMP JUMPDEST STOP JUMPDEST CALLVALUE DUP1 ISZERO PUSH2 0x38A JUMPI PUSH1 0x0 DUP1 REVERT JUMPDEST POP PUSH2 0x393 PUSH2 0x13B8 JUMP JUMPDEST PUSH1 0x40 MLOAD PUSH2 0x3A0 SWAP2 SWAP1 PUSH2 0x193D JUMP JUMPDEST PUSH1 0x40 MLOAD DUP1 SWAP2 SUB SWAP1 RETURN JUMPDEST PUSH1 0x1 PUSH1 0x20 MSTORE DUP1 PUSH1 0x0 MSTORE PUSH1 0x40 PUSH1 0x0 KECCAK256 PUSH1 0x0 SWAP2 POP SLOAD SWAP1 PUSH2 0x100 EXP SWAP1 DIV PUSH1 0xFF AND DUP2 JUMP JUMPDEST DUP3 PUSH1 0x0 PUSH1 0x3 PUSH1 0x0 SWAP1 SLOAD SWAP1 PUSH2 0x100 EXP SWAP1 DIV PUSH20 0xFFFFFFFFFFFFFFFFFFFFFFFFFFFFFFFFFFFFFFFF AND PUSH20 0xFFFFFFFFFFFFFFFFFFFFFFFFFFFFFFFFFFFFFFFF AND PUSH4 0x9FEB2C45 DUP4 PUSH1 0x40 MLOAD DUP3 PUSH4 0xFFFFFFFF AND PUSH1 0xE0 SHL DUP2 MSTORE PUSH1 0x4 ADD PUSH2 0x427 SWAP2 SWAP1 PUSH2 0x193D JUMP JUMPDEST PUSH1 0x20 PUSH1 0x40 MLOAD DUP1 DUP4 SUB DUP2 DUP7 GAS STATICCALL ISZERO DUP1 ISZERO PUSH2 0x444 JUMPI RETURNDATASIZE PUSH1 0x0 DUP1 RETURNDATACOPY RETURNDATASIZE PUSH1 0x0 REVERT JUMPDEST POP POP POP POP PUSH1 0x40 MLOAD RETURNDATASIZE PUSH1 0x1F NOT PUSH1 0x1F DUP3 ADD AND DUP3 ADD DUP1 PUSH1 0x40 MSTORE POP DUP2 ADD SWAP1 PUSH2 0x468 SWAP2 SWAP1 PUSH2 0x1984 JUMP JUMPDEST SWAP1 POP DUP1 PUSH2 0x4AA JUMPI PUSH1 0x40 MLOAD PUSH32 0x8C379A000000000000000000000000000000000000000000000000000000000 DUP2 MSTORE PUSH1 0x4 ADD PUSH2 0x4A1 SWAP1 PUSH2 0x19FD JUMP JUMPDEST PUSH1 0x40 MLOAD DUP1 SWAP2 SUB SWAP1 REVERT JUMPDEST PUSH1 0x1 PUSH1 0x0 DUP4 PUSH20 0xFFFFFFFFFFFFFFFFFFFFFFFFFFFFFFFFFFFFFFFF AND PUSH20 0xFFFFFFFFFFFFFFFFFFFFFFFFFFFFFFFFFFFFFFFF AND DUP2 MSTORE PUSH1 0x20 ADD SWAP1 DUP2 MSTORE PUSH1 0x20 ADD PUSH1 0x0 KECCAK256 PUSH1 0x0 SWAP1 SLOAD SWAP1 PUSH2 0x100 EXP SWAP1 DIV PUSH1 0xFF AND PUSH2 0x536 JUMPI PUSH1 0x40 MLOAD PUSH32 0x8C379A000000000000000000000000000000000000000000000000000000000 DUP2 MSTORE PUSH1 0x4 ADD PUSH2 0x52D SWAP1 PUSH2 0x1A69 JUMP JUMPDEST PUSH1 0x40 MLOAD DUP1 SWAP2 SUB SWAP1 REVERT JUMPDEST DUP4 PUSH20 0xFFFFFFFFFFFFFFFFFFFFFFFFFFFFFFFFFFFFFFFF AND PUSH4 0x23B872DD DUP7 ADDRESS DUP7 PUSH1 0x40 MLOAD DUP5 PUSH4 0xFFFFFFFF AND PUSH1 0xE0 SHL DUP2 MSTORE PUSH1 0x4 ADD PUSH2 0x573 SWAP4 SWAP3 SWAP2 SWAP1 PUSH2 0x1A89 JUMP JUMPDEST PUSH1 0x20 PUSH1 0x40 MLOAD DUP1 DUP4 SUB DUP2 PUSH1 0x0 DUP8 GAS CALL ISZERO DUP1 ISZERO PUSH2 0x592 JUMPI RETURNDATASIZE PUSH1 0x0 DUP1 RETURNDATACOPY RETURNDATASIZE PUSH1 0x0 REVERT JUMPDEST POP POP POP POP PUSH1 0x40 MLOAD RETURNDATASIZE PUSH1 0x1F NOT PUSH1 0x1F DUP3 ADD AND DUP3 ADD DUP1 PUSH1 0x40 MSTORE POP DUP2 ADD SWAP1 PUSH2 0x5B6 SWAP2 SWAP1 PUSH2 0x1984 JUMP JUMPDEST POP PUSH1 0x1 PUSH1 0x6 PUSH1 0x0 DUP7 PUSH20 0xFFFFFFFFFFFFFFFFFFFFFFFFFFFFFFFFFFFFFFFF AND PUSH20 0xFFFFFFFFFFFFFFFFFFFFFFFFFFFFFFFFFFFFFFFF AND DUP2 MSTORE PUSH1 0x20 ADD SWAP1 DUP2 MSTORE PUSH1 0x20 ADD PUSH1 0x0 KECCAK256 PUSH1 0x0 PUSH2 0x100 EXP DUP2 SLOAD DUP2 PUSH1 0xFF MUL NOT AND SWAP1 DUP4 ISZERO ISZERO MUL OR SWAP1 SSTORE POP PUSH1 0x1 PUSH1 0x5 PUSH1 0x0 DUP7 PUSH20 0xFFFFFFFFFFFFFFFFFFFFFFFFFFFFFFFFFFFFFFFF AND PUSH20 0xFFFFFFFFFFFFFFFFFFFFFFFFFFFFFFFFFFFFFFFF AND DUP2 MSTORE PUSH1 0x20 ADD SWAP1 DUP2 MSTORE PUSH1 0x20 ADD PUSH1 0x0 KECCAK256 PUSH1 0x0 PUSH2 0x100 EXP DUP2 SLOAD DUP2 PUSH1 0xFF MUL NOT AND SWAP1 DUP4 ISZERO ISZERO MUL OR SWAP1 SSTORE POP PUSH32 0x939F6F4877FAF071412E527BC4C6D0BD65AD077E52B57334F7765265647A7F1 DUP5 DUP5 PUSH1 0x40 MLOAD PUSH2 0x698 SWAP3 SWAP2 SWAP1 PUSH2 0x1AC0 JUMP JUMPDEST PUSH1 0x40 MLOAD DUP1 SWAP2 SUB SWAP1 LOG1 POP POP POP POP POP JUMP JUMPDEST PUSH1 0x3 PUSH1 0x0 SWAP1 SLOAD SWAP1 PUSH2 0x100 EXP SWAP1 DIV PUSH20 0xFFFFFFFFFFFFFFFFFFFFFFFFFFFFFFFFFFFFFFFF AND DUP2 JUMP JUMPDEST DUP2 PUSH1 0x0 PUSH1 0x3 PUSH1 0x0 SWAP1 SLOAD SWAP1 PUSH2 0x100 EXP SWAP1 DIV PUSH20 0xFFFFFFFFFFFFFFFFFFFFFFFFFFFFFFFFFFFFFFFF AND PUSH20 0xFFFFFFFFFFFFFFFFFFFFFFFFFFFFFFFFFFFFFFFF AND PUSH4 0x9FEB2C45 DUP4 PUSH1 0x40 MLOAD DUP3 PUSH4 0xFFFFFFFF AND PUSH1 0xE0 SHL DUP2 MSTORE PUSH1 0x4 ADD PUSH2 0x72B SWAP2 SWAP1 PUSH2 0x193D JUMP JUMPDEST PUSH1 0x20 PUSH1 0x40 MLOAD DUP1 DUP4 SUB DUP2 DUP7 GAS STATICCALL ISZERO DUP1 ISZERO PUSH2 0x748 JUMPI RETURNDATASIZE PUSH1 0x0 DUP1 RETURNDATACOPY RETURNDATASIZE PUSH1 0x0 REVERT JUMPDEST POP POP POP POP PUSH1 0x40 MLOAD RETURNDATASIZE PUSH1 0x1F NOT PUSH1 0x1F DUP3 ADD AND DUP3 ADD DUP1 PUSH1 0x40 MSTORE POP DUP2 ADD SWAP1 PUSH2 0x76C SWAP2 SWAP1 PUSH2 0x1984 JUMP JUMPDEST SWAP1 POP DUP1 PUSH2 0x7AE JUMPI PUSH1 0x40 MLOAD PUSH32 0x8C379A000000000000000000000000000000000000000000000000000000000 DUP2 MSTORE PUSH1 0x4 ADD PUSH2 0x7A5 SWAP1 PUSH2 0x19FD JUMP JUMPDEST PUSH1 0x40 MLOAD DUP1 SWAP2 SUB SWAP1 REVERT JUMPDEST PUSH1 0x1 PUSH1 0x0 DUP4 PUSH20 0xFFFFFFFFFFFFFFFFFFFFFFFFFFFFFFFFFFFFFFFF AND PUSH20 0xFFFFFFFFFFFFFFFFFFFFFFFFFFFFFFFFFFFFFFFF AND DUP2 MSTORE PUSH1 0x20 ADD SWAP1 DUP2 MSTORE PUSH1 0x20 ADD PUSH1 0x0 KECCAK256 PUSH1 0x0 SWAP1 SLOAD SWAP1 PUSH2 0x100 EXP SWAP1 DIV PUSH1 0xFF AND PUSH2 0x83A JUMPI PUSH1 0x40 MLOAD PUSH32 0x8C379A000000000000000000000000000000000000000000000000000000000 DUP2 MSTORE PUSH1 0x4 ADD PUSH2 0x831 SWAP1 PUSH2 0x1A69 JUMP JUMPDEST PUSH1 0x40 MLOAD DUP1 SWAP2 SUB SWAP1 REVERT JUMPDEST PUSH1 0x0 DUP1 DUP8 DUP8 SWAP1 PUSH2 0x84A SWAP2 SWAP1 PUSH2 0x1CDD JUMP JUMPDEST PUSH20 0x0 PUSH4 0xB29A1227 SWAP1 SWAP2 PUSH1 0x40 MLOAD DUP3 PUSH4 0xFFFFFFFF AND PUSH1 0xE0 SHL DUP2 MSTORE PUSH1 0x4 ADD PUSH2 0x882 SWAP2 SWAP1 PUSH2 0x1E33 JUMP JUMPDEST PUSH1 0x0 PUSH1 0x40 MLOAD DUP1 DUP4 SUB DUP2 DUP7 GAS DELEGATECALL ISZERO DUP1 ISZERO PUSH2 0x89F JUMPI RETURNDATASIZE PUSH1 0x0 DUP1 RETURNDATACOPY RETURNDATASIZE PUSH1 0x0 REVERT JUMPDEST POP POP POP POP PUSH1 0x40 MLOAD RETURNDATASIZE PUSH1 0x0 DUP3 RETURNDATACOPY RETURNDATASIZE PUSH1 0x1F NOT PUSH1 0x1F DUP3 ADD AND DUP3 ADD DUP1 PUSH1 0x40 MSTORE POP DUP2 ADD SWAP1 PUSH2 0x8C8 SWAP2 SWAP1 PUSH2 0x215D JUMP JUMPDEST SWAP2 POP SWAP2 POP DUP5 PUSH20 0xFFFFFFFFFFFFFFFFFFFFFFFFFFFFFFFFFFFFFFFF AND PUSH4 0xEBE113FB CALLVALUE DUP5 DUP5 PUSH1 0x40 MLOAD DUP5 PUSH4 0xFFFFFFFF AND PUSH1 0xE0 SHL DUP2 MSTORE PUSH1 0x4 ADD PUSH2 0x908 SWAP3 SWAP2 SWAP1 PUSH2 0x23A8 JUMP JUMPDEST PUSH1 0x20 PUSH1 0x40 MLOAD DUP1 DUP4 SUB DUP2 DUP6 DUP9 GAS CALL ISZERO DUP1 ISZERO PUSH2 0x926 JUMPI RETURNDATASIZE PUSH1 0x0 DUP1 RETURNDATACOPY RETURNDATASIZE PUSH1 0x0 REVERT JUMPDEST POP POP POP POP POP PUSH1 0x40 MLOAD RETURNDATASIZE PUSH1 0x1F NOT PUSH1 0x1F DUP3 ADD AND DUP3 ADD DUP1 PUSH1 0x40 MSTORE POP DUP2 ADD SWAP1 PUSH2 0x94B SWAP2 SWAP1 PUSH2 0x1984 JUMP JUMPDEST POP POP POP POP POP POP POP POP POP JUMP JUMPDEST PUSH1 0x2 PUSH1 0x0 SWAP1 SLOAD SWAP1 PUSH2 0x100 EXP SWAP1 DIV PUSH20 0xFFFFFFFFFFFFFFFFFFFFFFFFFFFFFFFFFFFFFFFF AND DUP2 JUMP JUMPDEST DUP2 PUSH1 0x0 PUSH1 0x3 PUSH1 0x0 SWAP1 SLOAD SWAP1 PUSH2 0x100 EXP SWAP1 DIV PUSH20 0xFFFFFFFFFFFFFFFFFFFFFFFFFFFFFFFFFFFFFFFF AND PUSH20 0xFFFFFFFFFFFFFFFFFFFFFFFFFFFFFFFFFFFFFFFF AND PUSH4 0x9FEB2C45 DUP4 PUSH1 0x40 MLOAD DUP3 PUSH4 0xFFFFFFFF AND PUSH1 0xE0 SHL DUP2 MSTORE PUSH1 0x4 ADD PUSH2 0x9DA SWAP2 SWAP1 PUSH2 0x193D JUMP JUMPDEST PUSH1 0x20 PUSH1 0x40 MLOAD DUP1 DUP4 SUB DUP2 DUP7 GAS STATICCALL ISZERO DUP1 ISZERO PUSH2 0x9F7 JUMPI RETURNDATASIZE PUSH1 0x0 DUP1 RETURNDATACOPY RETURNDATASIZE PUSH1 0x0 REVERT JUMPDEST POP POP POP POP PUSH1 0x40 MLOAD RETURNDATASIZE PUSH1 0x1F NOT PUSH1 0x1F DUP3 ADD AND DUP3 ADD DUP1 PUSH1 0x40 MSTORE POP DUP2 ADD SWAP1 PUSH2 0xA1B SWAP2 SWAP1 PUSH2 0x1984 JUMP JUMPDEST SWAP1 POP DUP1 PUSH2 0xA5D JUMPI PUSH1 0x40 MLOAD PUSH32 0x8C379A000000000000000000000000000000000000000000000000000000000 DUP2 MSTORE PUSH1 0x4 ADD PUSH2 0xA54 SWAP1 PUSH2 0x19FD JUMP JUMPDEST PUSH1 0x40 MLOAD DUP1 SWAP2 SUB SWAP1 REVERT JUMPDEST PUSH1 0x1 PUSH1 0x0 DUP4 PUSH20 0xFFFFFFFFFFFFFFFFFFFFFFFFFFFFFFFFFFFFFFFF AND PUSH20 0xFFFFFFFFFFFFFFFFFFFFFFFFFFFFFFFFFFFFFFFF AND DUP2 MSTORE PUSH1 0x20 ADD SWAP1 DUP2 MSTORE PUSH1 0x20 ADD PUSH1 0x0 KECCAK256 PUSH1 0x0 SWAP1 SLOAD SWAP1 PUSH2 0x100 EXP SWAP1 DIV PUSH1 0xFF AND PUSH2 0xAE9 JUMPI PUSH1 0x40 MLOAD PUSH32 0x8C379A000000000000000000000000000000000000000000000000000000000 DUP2 MSTORE PUSH1 0x4 ADD PUSH2 0xAE0 SWAP1 PUSH2 0x1A69 JUMP JUMPDEST PUSH1 0x40 MLOAD DUP1 SWAP2 SUB SWAP1 REVERT JUMPDEST PUSH2 0xAF1 PUSH2 0x13DE JUMP JUMPDEST DUP6 PUSH20 0xFFFFFFFFFFFFFFFFFFFFFFFFFFFFFFFFFFFFFFFF AND PUSH4 0xA9059CBB DUP5 DUP8 PUSH1 0x40 MLOAD DUP4 PUSH4 0xFFFFFFFF AND PUSH1 0xE0 SHL DUP2 MSTORE PUSH1 0x4 ADD PUSH2 0xB2C SWAP3 SWAP2 SWAP1 PUSH2 0x1AC0 JUMP JUMPDEST PUSH1 0x20 PUSH1 0x40 MLOAD DUP1 DUP4 SUB DUP2 PUSH1 0x0 DUP8 GAS CALL ISZERO DUP1 ISZERO PUSH2 0xB4B JUMPI RETURNDATASIZE PUSH1 0x0 DUP1 RETURNDATACOPY RETURNDATASIZE PUSH1 0x0 REVERT JUMPDEST POP POP POP POP PUSH1 0x40 MLOAD RETURNDATASIZE PUSH1 0x1F NOT PUSH1 0x1F DUP3 ADD AND DUP3 ADD DUP1 PUSH1 0x40 MSTORE POP DUP2 ADD SWAP1 PUSH2 0xB6F SWAP2 SWAP1 PUSH2 0x1984 JUMP JUMPDEST POP PUSH2 0xB78 PUSH2 0x1424 JUMP JUMPDEST POP POP POP POP POP POP JUMP JUMPDEST PUSH1 0x0 DUP2 PUSH1 0x0 PUSH1 0x3 PUSH1 0x0 SWAP1 SLOAD SWAP1 PUSH2 0x100 EXP SWAP1 DIV PUSH20 0xFFFFFFFFFFFFFFFFFFFFFFFFFFFFFFFFFFFFFFFF AND PUSH20 0xFFFFFFFFFFFFFFFFFFFFFFFFFFFFFFFFFFFFFFFF AND PUSH4 0x9FEB2C45 DUP4 PUSH1 0x40 MLOAD DUP3 PUSH4 0xFFFFFFFF AND PUSH1 0xE0 SHL DUP2 MSTORE PUSH1 0x4 ADD PUSH2 0xBE0 SWAP2 SWAP1 PUSH2 0x193D JUMP JUMPDEST PUSH1 0x20 PUSH1 0x40 MLOAD DUP1 DUP4 SUB DUP2 DUP7 GAS STATICCALL ISZERO DUP1 ISZERO PUSH2 0xBFD JUMPI RETURNDATASIZE PUSH1 0x0 DUP1 RETURNDATACOPY RETURNDATASIZE PUSH1 0x0 REVERT JUMPDEST POP POP POP POP PUSH1 0x40 MLOAD RETURNDATASIZE PUSH1 0x1F NOT PUSH1 0x1F DUP3 ADD AND DUP3 ADD DUP1 PUSH1 0x40 MSTORE POP DUP2 ADD SWAP1 PUSH2 0xC21 SWAP2 SWAP1 PUSH2 0x1984 JUMP JUMPDEST SWAP1 POP DUP1 PUSH2 0xC63 JUMPI PUSH1 0x40 MLOAD PUSH32 0x8C379A000000000000000000000000000000000000000000000000000000000 DUP2 MSTORE PUSH1 0x4 ADD PUSH2 0xC5A SWAP1 PUSH2 0x19FD JUMP JUMPDEST PUSH1 0x40 MLOAD DUP1 SWAP2 SUB SWAP1 REVERT JUMPDEST PUSH1 0x1 PUSH1 0x0 DUP4 PUSH20 0xFFFFFFFFFFFFFFFFFFFFFFFFFFFFFFFFFFFFFFFF AND PUSH20 0xFFFFFFFFFFFFFFFFFFFFFFFFFFFFFFFFFFFFFFFF AND DUP2 MSTORE PUSH1 0x20 ADD SWAP1 DUP2 MSTORE PUSH1 0x20 ADD PUSH1 0x0 KECCAK256 PUSH1 0x0 SWAP1 SLOAD SWAP1 PUSH2 0x100 EXP SWAP1 DIV PUSH1 0xFF AND PUSH2 0xCEF JUMPI PUSH1 0x40 MLOAD PUSH32 0x8C379A000000000000000000000000000000000000000000000000000000000 DUP2 MSTORE PUSH1 0x4 ADD PUSH2 0xCE6 SWAP1 PUSH2 0x1A69 JUMP JUMPDEST PUSH1 0x40 MLOAD DUP1 SWAP2 SUB SWAP1 REVERT JUMPDEST PUSH2 0xCF7 PUSH2 0x13DE JUMP JUMPDEST PUSH1 0x0 DUP1 DUP8 DUP8 SWAP1 PUSH2 0xD07 SWAP2 SWAP1 PUSH2 0x1CDD JUMP JUMPDEST PUSH20 0x0 PUSH4 0xB29A1227 SWAP1 SWAP2 PUSH1 0x40 MLOAD DUP3 PUSH4 0xFFFFFFFF AND PUSH1 0xE0 SHL DUP2 MSTORE PUSH1 0x4 ADD PUSH2 0xD3F SWAP2 SWAP1 PUSH2 0x1E33 JUMP JUMPDEST PUSH1 0x0 PUSH1 0x40 MLOAD DUP1 DUP4 SUB DUP2 DUP7 GAS DELEGATECALL ISZERO DUP1 ISZERO PUSH2 0xD5C JUMPI RETURNDATASIZE PUSH1 0x0 DUP1 RETURNDATACOPY RETURNDATASIZE PUSH1 0x0 REVERT JUMPDEST POP POP POP POP PUSH1 0x40 MLOAD RETURNDATASIZE PUSH1 0x0 DUP3 RETURNDATACOPY RETURNDATASIZE PUSH1 0x1F NOT PUSH1 0x1F DUP3 ADD AND DUP3 ADD DUP1 PUSH1 0x40 MSTORE POP DUP2 ADD SWAP1 PUSH2 0xD85 SWAP2 SWAP1 PUSH2 0x215D JUMP JUMPDEST SWAP2 POP SWAP2 POP PUSH1 0x0 DUP1 PUSH1 0x0 DUP1 PUSH1 0x2 PUSH1 0x0 SWAP1 SLOAD SWAP1 PUSH2 0x100 EXP SWAP1 DIV PUSH20 0xFFFFFFFFFFFFFFFFFFFFFFFFFFFFFFFFFFFFFFFF AND PUSH20 0xFFFFFFFFFFFFFFFFFFFFFFFFFFFFFFFFFFFFFFFF AND PUSH4 0xA9D2B1D5 DUP8 PUSH1 0x40 MLOAD DUP3 PUSH4 0xFFFFFFFF AND PUSH1 0xE0 SHL DUP2 MSTORE PUSH1 0x4 ADD PUSH2 0xDEA SWAP2 SWAP1 PUSH2 0x23D8 JUMP JUMPDEST PUSH1 0x0 PUSH1 0x40 MLOAD DUP1 DUP4 SUB DUP2 DUP7 GAS STATICCALL ISZERO DUP1 ISZERO PUSH2 0xE07 JUMPI RETURNDATASIZE PUSH1 0x0 DUP1 RETURNDATACOPY RETURNDATASIZE PUSH1 0x0 REVERT JUMPDEST POP POP POP POP PUSH1 0x40 MLOAD RETURNDATASIZE PUSH1 0x0 DUP3 RETURNDATACOPY RETURNDATASIZE PUSH1 0x1F NOT PUSH1 0x1F DUP3 ADD AND DUP3 ADD DUP1 PUSH1 0x40 MSTORE POP DUP2 ADD SWAP1 PUSH2 0xE30 SWAP2 SWAP1 PUSH2 0x24B6 JUMP JUMPDEST SWAP4 POP SWAP4 POP SWAP4 POP SWAP4 POP DUP4 ISZERO PUSH2 0xEE4 JUMPI PUSH1 0x0 JUMPDEST DUP2 PUSH1 0xFF AND DUP2 PUSH1 0xFF AND LT ISZERO PUSH2 0xEE2 JUMPI PUSH2 0xED5 DUP7 DUP6 DUP4 PUSH1 0xFF AND DUP2 MLOAD DUP2 LT PUSH2 0xE69 JUMPI PUSH2 0xE68 PUSH2 0x2555 JUMP JUMPDEST JUMPDEST PUSH1 0x20 MUL PUSH1 0x20 ADD ADD MLOAD PUSH1 0xFF AND DUP2 MLOAD DUP2 LT PUSH2 0xE85 JUMPI PUSH2 0xE84 PUSH2 0x2555 JUMP JUMPDEST JUMPDEST PUSH1 0x20 MUL PUSH1 0x20 ADD ADD MLOAD PUSH1 0x40 ADD MLOAD DUP8 DUP6 DUP5 PUSH1 0xFF AND DUP2 MLOAD DUP2 LT PUSH2 0xEA8 JUMPI PUSH2 0xEA7 PUSH2 0x2555 JUMP JUMPDEST JUMPDEST PUSH1 0x20 MUL PUSH1 0x20 ADD ADD MLOAD PUSH1 0xFF AND DUP2 MLOAD DUP2 LT PUSH2 0xEC4 JUMPI PUSH2 0xEC3 PUSH2 0x2555 JUMP JUMPDEST JUMPDEST PUSH1 0x20 MUL PUSH1 0x20 ADD ADD MLOAD PUSH1 0x60 ADD MLOAD PUSH2 0x142E JUMP JUMPDEST DUP1 DUP1 PUSH1 0x1 ADD SWAP2 POP POP PUSH2 0xE41 JUMP JUMPDEST POP JUMPDEST PUSH1 0x0 PUSH1 0x2 PUSH1 0x0 SWAP1 SLOAD SWAP1 PUSH2 0x100 EXP SWAP1 DIV PUSH20 0xFFFFFFFFFFFFFFFFFFFFFFFFFFFFFFFFFFFFFFFF AND PUSH20 0xFFFFFFFFFFFFFFFFFFFFFFFFFFFFFFFFFFFFFFFF AND PUSH4 0xEBE113FB DUP9 DUP9 PUSH1 0x40 MLOAD DUP4 PUSH4 0xFFFFFFFF AND PUSH1 0xE0 SHL DUP2 MSTORE PUSH1 0x4 ADD PUSH2 0xF43 SWAP3 SWAP2 SWAP1 PUSH2 0x23A8 JUMP JUMPDEST PUSH1 0x20 PUSH1 0x40 MLOAD DUP1 DUP4 SUB DUP2 PUSH1 0x0 DUP8 GAS CALL ISZERO DUP1 ISZERO PUSH2 0xF62 JUMPI RETURNDATASIZE PUSH1 0x0 DUP1 RETURNDATACOPY RETURNDATASIZE PUSH1 0x0 REVERT JUMPDEST POP POP POP POP PUSH1 0x40 MLOAD RETURNDATASIZE PUSH1 0x1F NOT PUSH1 0x1F DUP3 ADD AND DUP3 ADD DUP1 PUSH1 0x40 MSTORE POP DUP2 ADD SWAP1 PUSH2 0xF86 SWAP2 SWAP1 PUSH2 0x1984 JUMP JUMPDEST SWAP1 POP PUSH32 0x6CAF114A658F9DCF6E91511C03B0857224920530D592656698DF2C977A71ACFA DUP8 DUP8 PUSH1 0x40 MLOAD PUSH2 0xFB9 SWAP3 SWAP2 SWAP1 PUSH2 0x23A8 JUMP JUMPDEST PUSH1 0x40 MLOAD DUP1 SWAP2 SUB SWAP1 LOG1 DUP1 SWAP10 POP POP POP POP POP POP POP POP PUSH2 0xFD3 PUSH2 0x1424 JUMP JUMPDEST POP POP SWAP4 SWAP3 POP POP POP JUMP JUMPDEST DUP3 PUSH1 0x0 PUSH1 0x3 PUSH1 0x0 SWAP1 SLOAD SWAP1 PUSH2 0x100 EXP SWAP1 DIV PUSH20 0xFFFFFFFFFFFFFFFFFFFFFFFFFFFFFFFFFFFFFFFF AND PUSH20 0xFFFFFFFFFFFFFFFFFFFFFFFFFFFFFFFFFFFFFFFF AND PUSH4 0x9FEB2C45 DUP4 PUSH1 0x40 MLOAD DUP3 PUSH4 0xFFFFFFFF AND PUSH1 0xE0 SHL DUP2 MSTORE PUSH1 0x4 ADD PUSH2 0x103A SWAP2 SWAP1 PUSH2 0x193D JUMP JUMPDEST PUSH1 0x20 PUSH1 0x40 MLOAD DUP1 DUP4 SUB DUP2 DUP7 GAS STATICCALL ISZERO DUP1 ISZERO PUSH2 0x1057 JUMPI RETURNDATASIZE PUSH1 0x0 DUP1 RETURNDATACOPY RETURNDATASIZE PUSH1 0x0 REVERT JUMPDEST POP POP POP POP PUSH1 0x40 MLOAD RETURNDATASIZE PUSH1 0x1F NOT PUSH1 0x1F DUP3 ADD AND DUP3 ADD DUP1 PUSH1 0x40 MSTORE POP DUP2 ADD SWAP1 PUSH2 0x107B SWAP2 SWAP1 PUSH2 0x1984 JUMP JUMPDEST SWAP1 POP DUP1 PUSH2 0x10BD JUMPI PUSH1 0x40 MLOAD PUSH32 0x8C379A000000000000000000000000000000000000000000000000000000000 DUP2 MSTORE PUSH1 0x4 ADD PUSH2 0x10B4 SWAP1 PUSH2 0x19FD JUMP JUMPDEST PUSH1 0x40 MLOAD DUP1 SWAP2 SUB SWAP1 REVERT JUMPDEST PUSH1 0x1 PUSH1 0x0 DUP4 PUSH20 0xFFFFFFFFFFFFFFFFFFFFFFFFFFFFFFFFFFFFFFFF AND PUSH20 0xFFFFFFFFFFFFFFFFFFFFFFFFFFFFFFFFFFFFFFFF AND DUP2 MSTORE PUSH1 0x20 ADD SWAP1 DUP2 MSTORE PUSH1 0x20 ADD PUSH1 0x0 KECCAK256 PUSH1 0x0 SWAP1 SLOAD SWAP1 PUSH2 0x100 EXP SWAP1 DIV PUSH1 0xFF AND PUSH2 0x1149 JUMPI PUSH1 0x40 MLOAD PUSH32 0x8C379A000000000000000000000000000000000000000000000000000000000 DUP2 MSTORE PUSH1 0x4 ADD PUSH2 0x1140 SWAP1 PUSH2 0x1A69 JUMP JUMPDEST PUSH1 0x40 MLOAD DUP1 SWAP2 SUB SWAP1 REVERT JUMPDEST PUSH2 0x1151 PUSH2 0x13DE JUMP JUMPDEST PUSH1 0x0 PUSH20 0xFFFFFFFFFFFFFFFFFFFFFFFFFFFFFFFFFFFFFFFF AND DUP5 PUSH20 0xFFFFFFFFFFFFFFFFFFFFFFFFFFFFFFFFFFFFFFFF AND EQ DUP1 ISZERO PUSH2 0x118D JUMPI POP PUSH1 0x0 CALLVALUE EQ JUMPDEST DUP1 PUSH2 0x11D1 JUMPI POP PUSH1 0x0 PUSH20 0xFFFFFFFFFFFFFFFFFFFFFFFFFFFFFFFFFFFFFFFF AND DUP5 PUSH20 0xFFFFFFFFFFFFFFFFFFFFFFFFFFFFFFFFFFFFFFFF AND EQ ISZERO DUP1 ISZERO PUSH2 0x11D0 JUMPI POP PUSH1 0x0 CALLVALUE GT JUMPDEST JUMPDEST DUP1 PUSH2 0x1215 JUMPI POP PUSH1 0x0 PUSH20 0xFFFFFFFFFFFFFFFFFFFFFFFFFFFFFFFFFFFFFFFF AND DUP5 PUSH20 0xFFFFFFFFFFFFFFFFFFFFFFFFFFFFFFFFFFFFFFFF AND EQ ISZERO DUP1 ISZERO PUSH2 0x1214 JUMPI POP PUSH1 0x0 DUP4 EQ JUMPDEST JUMPDEST ISZERO PUSH2 0x1255 JUMPI PUSH1 0x40 MLOAD PUSH32 0xA8C278DD00000000000000000000000000000000000000000000000000000000 DUP2 MSTORE PUSH1 0x4 ADD PUSH2 0x124C SWAP1 PUSH2 0x25D0 JUMP JUMPDEST PUSH1 0x40 MLOAD DUP1 SWAP2 SUB SWAP1 REVERT JUMPDEST PUSH1 0x0 DUP1 PUSH20 0xFFFFFFFFFFFFFFFFFFFFFFFFFFFFFFFFFFFFFFFF AND DUP6 PUSH20 0xFFFFFFFFFFFFFFFFFFFFFFFFFFFFFFFFFFFFFFFF AND SUB PUSH2 0x1292 JUMPI CALLVALUE SWAP1 POP PUSH2 0x136F JUMP JUMPDEST DUP4 SWAP1 POP DUP5 PUSH20 0xFFFFFFFFFFFFFFFFFFFFFFFFFFFFFFFFFFFFFFFF AND PUSH4 0x23B872DD DUP8 ADDRESS DUP8 PUSH1 0x40 MLOAD DUP5 PUSH4 0xFFFFFFFF AND PUSH1 0xE0 SHL DUP2 MSTORE PUSH1 0x4 ADD PUSH2 0x12D2 SWAP4 SWAP3 SWAP2 SWAP1 PUSH2 0x1A89 JUMP JUMPDEST PUSH1 0x20 PUSH1 0x40 MLOAD DUP1 DUP4 SUB DUP2 PUSH1 0x0 DUP8 GAS CALL ISZERO DUP1 ISZERO PUSH2 0x12F1 JUMPI RETURNDATASIZE PUSH1 0x0 DUP1 RETURNDATACOPY RETURNDATASIZE PUSH1 0x0 REVERT JUMPDEST POP POP POP POP PUSH1 0x40 MLOAD RETURNDATASIZE PUSH1 0x1F NOT PUSH1 0x1F DUP3 ADD AND DUP3 ADD DUP1 PUSH1 0x40 MSTORE POP DUP2 ADD SWAP1 PUSH2 0x1315 SWAP2 SWAP1 PUSH2 0x1984 JUMP JUMPDEST POP PUSH1 0x1 PUSH1 0x5 PUSH1 0x0 DUP8 PUSH20 0xFFFFFFFFFFFFFFFFFFFFFFFFFFFFFFFFFFFFFFFF AND PUSH20 0xFFFFFFFFFFFFFFFFFFFFFFFFFFFFFFFFFFFFFFFF AND DUP2 MSTORE PUSH1 0x20 ADD SWAP1 DUP2 MSTORE PUSH1 0x20 ADD PUSH1 0x0 KECCAK256 PUSH1 0x0 PUSH2 0x100 EXP DUP2 SLOAD DUP2 PUSH1 0xFF MUL NOT AND SWAP1 DUP4 ISZERO ISZERO MUL OR SWAP1 SSTORE POP JUMPDEST PUSH32 0x939F6F4877FAF071412E527BC4C6D0BD65AD077E52B57334F7765265647A7F1 DUP6 DUP3 PUSH1 0x40 MLOAD PUSH2 0x13A0 SWAP3 SWAP2 SWAP1 PUSH2 0x1AC0 JUMP JUMPDEST PUSH1 0x40 MLOAD DUP1 SWAP2 SUB SWAP1 LOG1 POP PUSH2 0x13B1 PUSH2 0x1424 JUMP JUMPDEST POP POP POP POP POP JUMP JUMPDEST PUSH1 0x4 PUSH1 0x0 SWAP1 SLOAD SWAP1 PUSH2 0x100 EXP SWAP1 DIV PUSH20 0xFFFFFFFFFFFFFFFFFFFFFFFFFFFFFFFFFFFFFFFF AND DUP2 JUMP JUMPDEST PUSH1 0x2 PUSH1 0x0 SLOAD SUB PUSH2 0x141A JUMPI PUSH1 0x40 MLOAD PUSH32 0x3EE5AEB500000000000000000000000000000000000000000000000000000000 DUP2 MSTORE PUSH1 0x4 ADD PUSH1 0x40 MLOAD DUP1 SWAP2 SUB SWAP1 REVERT JUMPDEST PUSH1 0x2 PUSH1 0x0 DUP2 SWAP1 SSTORE POP JUMP JUMPDEST PUSH1 0x1 PUSH1 0x0 DUP2 SWAP1 SSTORE POP JUMP JUMPDEST DUP2 PUSH20 0xFFFFFFFFFFFFFFFFFFFFFFFFFFFFFFFFFFFFFFFF AND PUSH4 0x95EA7B3 PUSH1 0x2 PUSH1 0x0 SWAP1 SLOAD SWAP1 PUSH2 0x100 EXP SWAP1 DIV PUSH20 0xFFFFFFFFFFFFFFFFFFFFFFFFFFFFFFFFFFFFFFFF AND DUP4 PUSH1 0x40 MLOAD DUP4 PUSH4 0xFFFFFFFF AND PUSH1 0xE0 SHL DUP2 MSTORE PUSH1 0x4 ADD PUSH2 0x148B SWAP3 SWAP2 SWAP1 PUSH2 0x1AC0 JUMP JUMPDEST PUSH1 0x20 PUSH1 0x40 MLOAD DUP1 DUP4 SUB DUP2 PUSH1 0x0 DUP8 GAS CALL ISZERO DUP1 ISZERO PUSH2 0x14AA JUMPI RETURNDATASIZE PUSH1 0x0 DUP1 RETURNDATACOPY RETURNDATASIZE PUSH1 0x0 REVERT JUMPDEST POP POP POP POP PUSH1 0x40 MLOAD RETURNDATASIZE PUSH1 0x1F NOT PUSH1 0x1F DUP3 ADD AND DUP3 ADD DUP1 PUSH1 0x40 MSTORE POP DUP2 ADD SWAP1 PUSH2 0x14CE SWAP2 SWAP1 PUSH2 0x1984 JUMP JUMPDEST POP POP POP JUMP JUMPDEST PUSH1 0x0 DUP3 DUP3 MSTORE PUSH1 0x20 DUP3 ADD SWAP1 POP SWAP3 SWAP2 POP POP JUMP JUMPDEST PUSH32 0x53656E64206D6F72652045746865720000000000000000000000000000000000 PUSH1 0x0 DUP3 ADD MSTORE POP JUMP JUMPDEST PUSH1 0x0 PUSH2 0x151A PUSH1 0xF DUP4 PUSH2 0x14D3 JUMP JUMPDEST SWAP2 POP PUSH2 0x1525 DUP3 PUSH2 0x14E4 JUMP JUMPDEST PUSH1 0x20 DUP3 ADD SWAP1 POP SWAP2 SWAP1 POP JUMP JUMPDEST PUSH1 0x0 PUSH1 0x20 DUP3 ADD SWAP1 POP DUP2 DUP2 SUB PUSH1 0x0 DUP4 ADD MSTORE PUSH2 0x1549 DUP2 PUSH2 0x150D JUMP JUMPDEST SWAP1 POP SWAP2 SWAP1 POP JUMP JUMPDEST PUSH1 0x0 DUP2 SWAP1 POP SWAP2 SWAP1 POP JUMP JUMPDEST PUSH2 0x1563 DUP2 PUSH2 0x1550 JUMP JUMPDEST DUP3 MSTORE POP POP JUMP JUMPDEST PUSH1 0x0 PUSH1 0x20 DUP3 ADD SWAP1 POP PUSH2 0x157E PUSH1 0x0 DUP4 ADD DUP5 PUSH2 0x155A JUMP JUMPDEST SWAP3 SWAP2 POP POP JUMP JUMPDEST PUSH1 0x0 PUSH1 0x40 MLOAD SWAP1 POP SWAP1 JUMP JUMPDEST PUSH1 0x0 DUP1 REVERT JUMPDEST PUSH1 0x0 DUP1 REVERT JUMPDEST PUSH1 0x0 PUSH20 0xFFFFFFFFFFFFFFFFFFFFFFFFFFFFFFFFFFFFFFFF DUP3 AND SWAP1 POP SWAP2 SWAP1 POP JUMP JUMPDEST PUSH1 0x0 PUSH2 0x15C3 DUP3 PUSH2 0x1598 JUMP JUMPDEST SWAP1 POP SWAP2 SWAP1 POP JUMP JUMPDEST PUSH2 0x15D3 DUP2 PUSH2 0x15B8 JUMP JUMPDEST DUP2 EQ PUSH2 0x15DE JUMPI PUSH1 0x0 DUP1 REVERT JUMPDEST POP JUMP JUMPDEST PUSH1 0x0 DUP2 CALLDATALOAD SWAP1 POP PUSH2 0x15F0 DUP2 PUSH2 0x15CA JUMP JUMPDEST SWAP3 SWAP2 POP POP JUMP JUMPDEST PUSH1 0x0 PUSH1 0x20 DUP3 DUP5 SUB SLT ISZERO PUSH2 0x160C JUMPI PUSH2 0x160B PUSH2 0x158E JUMP JUMPDEST JUMPDEST PUSH1 0x0 PUSH2 0x161A DUP5 DUP3 DUP6 ADD PUSH2 0x15E1 JUMP JUMPDEST SWAP2 POP POP SWAP3 SWAP2 POP POP JUMP JUMPDEST PUSH1 0x0 DUP2 ISZERO ISZERO SWAP1 POP SWAP2 SWAP1 POP JUMP JUMPDEST PUSH2 0x1638 DUP2 PUSH2 0x1623 JUMP JUMPDEST DUP3 MSTORE POP POP JUMP JUMPDEST PUSH1 0x0 PUSH1 0x20 DUP3 ADD SWAP1 POP PUSH2 0x1653 PUSH1 0x0 DUP4 ADD DUP5 PUSH2 0x162F JUMP JUMPDEST SWAP3 SWAP2 POP POP JUMP JUMPDEST PUSH2 0x1662 DUP2 PUSH2 0x1550 JUMP JUMPDEST DUP2 EQ PUSH2 0x166D JUMPI PUSH1 0x0 DUP1 REVERT JUMPDEST POP JUMP JUMPDEST PUSH1 0x0 DUP2 CALLDATALOAD SWAP1 POP PUSH2 0x167F DUP2 PUSH2 0x1659 JUMP JUMPDEST SWAP3 SWAP2 POP POP JUMP JUMPDEST PUSH1 0x0 DUP1 PUSH1 0x0 PUSH1 0x60 DUP5 DUP7 SUB SLT ISZERO PUSH2 0x169E JUMPI PUSH2 0x169D PUSH2 0x158E JUMP JUMPDEST JUMPDEST PUSH1 0x0 PUSH2 0x16AC DUP7 DUP3 DUP8 ADD PUSH2 0x15E1 JUMP JUMPDEST SWAP4 POP POP PUSH1 0x20 PUSH2 0x16BD DUP7 DUP3 DUP8 ADD PUSH2 0x15E1 JUMP JUMPDEST SWAP3 POP POP PUSH1 0x40 PUSH2 0x16CE DUP7 DUP3 DUP8 ADD PUSH2 0x1670 JUMP JUMPDEST SWAP2 POP POP SWAP3 POP SWAP3 POP SWAP3 JUMP JUMPDEST PUSH1 0x0 DUP2 SWAP1 POP SWAP2 SWAP1 POP JUMP JUMPDEST PUSH1 0x0 PUSH2 0x16FD PUSH2 0x16F8 PUSH2 0x16F3 DUP5 PUSH2 0x1598 JUMP JUMPDEST PUSH2 0x16D8 JUMP JUMPDEST PUSH2 0x1598 JUMP JUMPDEST SWAP1 POP SWAP2 SWAP1 POP JUMP JUMPDEST PUSH1 0x0 PUSH2 0x170F DUP3 PUSH2 0x16E2 JUMP JUMPDEST SWAP1 POP SWAP2 SWAP1 POP JUMP JUMPDEST PUSH1 0x0 PUSH2 0x1721 DUP3 PUSH2 0x1704 JUMP JUMPDEST SWAP1 POP SWAP2 SWAP1 POP JUMP JUMPDEST PUSH2 0x1731 DUP2 PUSH2 0x1716 JUMP JUMPDEST DUP3 MSTORE POP POP JUMP JUMPDEST PUSH1 0x0 PUSH1 0x20 DUP3 ADD SWAP1 POP PUSH2 0x174C PUSH1 0x0 DUP4 ADD DUP5 PUSH2 0x1728 JUMP JUMPDEST SWAP3 SWAP2 POP POP JUMP JUMPDEST PUSH1 0x0 DUP1 REVERT JUMPDEST PUSH1 0x0 DUP1 REVERT JUMPDEST PUSH1 0x0 DUP1 REVERT JUMPDEST PUSH1 0x0 DUP1 DUP4 PUSH1 0x1F DUP5 ADD SLT PUSH2 0x1777 JUMPI PUSH2 0x1776 PUSH2 0x1752 JUMP JUMPDEST JUMPDEST DUP3 CALLDATALOAD SWAP1 POP PUSH8 0xFFFFFFFFFFFFFFFF DUP2 GT ISZERO PUSH2 0x1794 JUMPI PUSH2 0x1793 PUSH2 0x1757 JUMP JUMPDEST JUMPDEST PUSH1 0x20 DUP4 ADD SWAP2 POP DUP4 PUSH1 0x20 DUP3 MUL DUP4 ADD GT ISZERO PUSH2 0x17B0 JUMPI PUSH2 0x17AF PUSH2 0x175C JUMP JUMPDEST JUMPDEST SWAP3 POP SWAP3 SWAP1 POP JUMP JUMPDEST PUSH1 0x0 DUP1 PUSH1 0x0 DUP1 PUSH1 0x60 DUP6 DUP8 SUB SLT ISZERO PUSH2 0x17D1 JUMPI PUSH2 0x17D0 PUSH2 0x158E JUMP JUMPDEST JUMPDEST PUSH1 0x0 DUP6 ADD CALLDATALOAD PUSH8 0xFFFFFFFFFFFFFFFF DUP2 GT ISZERO PUSH2 0x17EF JUMPI PUSH2 0x17EE PUSH2 0x1593 JUMP JUMPDEST JUMPDEST PUSH2 0x17FB DUP8 DUP3 DUP9 ADD PUSH2 0x1761 JUMP JUMPDEST SWAP5 POP SWAP5 POP POP PUSH1 0x20 PUSH2 0x180E DUP8 DUP3 DUP9 ADD PUSH2 0x15E1 JUMP JUMPDEST SWAP3 POP POP PUSH1 0x40 PUSH2 0x181F DUP8 DUP3 DUP9 ADD PUSH2 0x15E1 JUMP JUMPDEST SWAP2 POP POP SWAP3 SWAP6 SWAP2 SWAP5 POP SWAP3 POP JUMP JUMPDEST PUSH1 0x0 PUSH2 0x1836 DUP3 PUSH2 0x1704 JUMP JUMPDEST SWAP1 POP SWAP2 SWAP1 POP JUMP JUMPDEST PUSH2 0x1846 DUP2 PUSH2 0x182B JUMP JUMPDEST DUP3 MSTORE POP POP JUMP JUMPDEST PUSH1 0x0 PUSH1 0x20 DUP3 ADD SWAP1 POP PUSH2 0x1861 PUSH1 0x0 DUP4 ADD DUP5 PUSH2 0x183D JUMP JUMPDEST SWAP3 SWAP2 POP POP JUMP JUMPDEST PUSH1 0x0 DUP1 PUSH1 0x0 DUP1 PUSH1 0x80 DUP6 DUP8 SUB SLT ISZERO PUSH2 0x1881 JUMPI PUSH2 0x1880 PUSH2 0x158E JUMP JUMPDEST JUMPDEST PUSH1 0x0 PUSH2 0x188F DUP8 DUP3 DUP9 ADD PUSH2 0x15E1 JUMP JUMPDEST SWAP5 POP POP PUSH1 0x20 PUSH2 0x18A0 DUP8 DUP3 DUP9 ADD PUSH2 0x1670 JUMP JUMPDEST SWAP4 POP POP PUSH1 0x40 PUSH2 0x18B1 DUP8 DUP3 DUP9 ADD PUSH2 0x15E1 JUMP JUMPDEST SWAP3 POP POP PUSH1 0x60 PUSH2 0x18C2 DUP8 DUP3 DUP9 ADD PUSH2 0x15E1 JUMP JUMPDEST SWAP2 POP POP SWAP3 SWAP6 SWAP2 SWAP5 POP SWAP3 POP JUMP JUMPDEST PUSH1 0x0 DUP1 PUSH1 0x0 PUSH1 0x40 DUP5 DUP7 SUB SLT ISZERO PUSH2 0x18E7 JUMPI PUSH2 0x18E6 PUSH2 0x158E JUMP JUMPDEST JUMPDEST PUSH1 0x0 DUP5 ADD CALLDATALOAD PUSH8 0xFFFFFFFFFFFFFFFF DUP2 GT ISZERO PUSH2 0x1905 JUMPI PUSH2 0x1904 PUSH2 0x1593 JUMP JUMPDEST JUMPDEST PUSH2 0x1911 DUP7 DUP3 DUP8 ADD PUSH2 0x1761 JUMP JUMPDEST SWAP4 POP SWAP4 POP POP PUSH1 0x20 PUSH2 0x1924 DUP7 DUP3 DUP8 ADD PUSH2 0x15E1 JUMP JUMPDEST SWAP2 POP POP SWAP3 POP SWAP3 POP SWAP3 JUMP JUMPDEST PUSH2 0x1937 DUP2 PUSH2 0x15B8 JUMP JUMPDEST DUP3 MSTORE POP POP JUMP JUMPDEST PUSH1 0x0 PUSH1 0x20 DUP3 ADD SWAP1 POP PUSH2 0x1952 PUSH1 0x0 DUP4 ADD DUP5 PUSH2 0x192E JUMP JUMPDEST SWAP3 SWAP2 POP POP JUMP JUMPDEST PUSH2 0x1961 DUP2 PUSH2 0x1623 JUMP JUMPDEST DUP2 EQ PUSH2 0x196C JUMPI PUSH1 0x0 DUP1 REVERT JUMPDEST POP JUMP JUMPDEST PUSH1 0x0 DUP2 MLOAD SWAP1 POP PUSH2 0x197E DUP2 PUSH2 0x1958 JUMP JUMPDEST SWAP3 SWAP2 POP POP JUMP JUMPDEST PUSH1 0x0 PUSH1 0x20 DUP3 DUP5 SUB SLT ISZERO PUSH2 0x199A JUMPI PUSH2 0x1999 PUSH2 0x158E JUMP JUMPDEST JUMPDEST PUSH1 0x0 PUSH2 0x19A8 DUP5 DUP3 DUP6 ADD PUSH2 0x196F JUMP JUMPDEST SWAP2 POP POP SWAP3 SWAP2 POP POP JUMP JUMPDEST PUSH32 0x61636365737320636F6E74726F6C3A206F6E6C7950726F746F636F6C00000000 PUSH1 0x0 DUP3 ADD MSTORE POP JUMP JUMPDEST PUSH1 0x0 PUSH2 0x19E7 PUSH1 0x1C DUP4 PUSH2 0x14D3 JUMP JUMPDEST SWAP2 POP PUSH2 0x19F2 DUP3 PUSH2 0x19B1 JUMP JUMPDEST PUSH1 0x20 DUP3 ADD SWAP1 POP SWAP2 SWAP1 POP JUMP JUMPDEST PUSH1 0x0 PUSH1 0x20 DUP3 ADD SWAP1 POP DUP2 DUP2 SUB PUSH1 0x0 DUP4 ADD MSTORE PUSH2 0x1A16 DUP2 PUSH2 0x19DA JUMP JUMPDEST SWAP1 POP SWAP2 SWAP1 POP JUMP JUMPDEST PUSH32 0x61636365737320636F6E74726F6C3A206F6E6C794F776E657200000000000000 PUSH1 0x0 DUP3 ADD MSTORE POP JUMP JUMPDEST PUSH1 0x0 PUSH2 0x1A53 PUSH1 0x19 DUP4 PUSH2 0x14D3 JUMP JUMPDEST SWAP2 POP PUSH2 0x1A5E DUP3 PUSH2 0x1A1D JUMP JUMPDEST PUSH1 0x20 DUP3 ADD SWAP1 POP SWAP2 SWAP1 POP JUMP JUMPDEST PUSH1 0x0 PUSH1 0x20 DUP3 ADD SWAP1 POP DUP2 DUP2 SUB PUSH1 0x0 DUP4 ADD MSTORE PUSH2 0x1A82 DUP2 PUSH2 0x1A46 JUMP JUMPDEST SWAP1 POP SWAP2 SWAP1 POP JUMP JUMPDEST PUSH1 0x0 PUSH1 0x60 DUP3 ADD SWAP1 POP PUSH2 0x1A9E PUSH1 0x0 DUP4 ADD DUP7 PUSH2 0x192E JUMP JUMPDEST PUSH2 0x1AAB PUSH1 0x20 DUP4 ADD DUP6 PUSH2 0x192E JUMP JUMPDEST PUSH2 0x1AB8 PUSH1 0x40 DUP4 ADD DUP5 PUSH2 0x155A JUMP JUMPDEST SWAP5 SWAP4 POP POP POP POP JUMP JUMPDEST PUSH1 0x0 PUSH1 0x40 DUP3 ADD SWAP1 POP PUSH2 0x1AD5 PUSH1 0x0 DUP4 ADD DUP6 PUSH2 0x192E JUMP JUMPDEST PUSH2 0x1AE2 PUSH1 0x20 DUP4 ADD DUP5 PUSH2 0x155A JUMP JUMPDEST SWAP4 SWAP3 POP POP POP JUMP JUMPDEST PUSH1 0x0 PUSH1 0x1F NOT PUSH1 0x1F DUP4 ADD AND SWAP1 POP SWAP2 SWAP1 POP JUMP JUMPDEST PUSH32 0x4E487B7100000000000000000000000000000000000000000000000000000000 PUSH1 0x0 MSTORE PUSH1 0x41 PUSH1 0x4 MSTORE PUSH1 0x24 PUSH1 0x0 REVERT JUMPDEST PUSH2 0x1B32 DUP3 PUSH2 0x1AE9 JUMP JUMPDEST DUP2 ADD DUP2 DUP2 LT PUSH8 0xFFFFFFFFFFFFFFFF DUP3 GT OR ISZERO PUSH2 0x1B51 JUMPI PUSH2 0x1B50 PUSH2 0x1AFA JUMP JUMPDEST JUMPDEST DUP1 PUSH1 0x40 MSTORE POP POP POP JUMP JUMPDEST PUSH1 0x0 PUSH2 0x1B64 PUSH2 0x1584 JUMP JUMPDEST SWAP1 POP PUSH2 0x1B70 DUP3 DUP3 PUSH2 0x1B29 JUMP JUMPDEST SWAP2 SWAP1 POP JUMP JUMPDEST PUSH1 0x0 PUSH8 0xFFFFFFFFFFFFFFFF DUP3 GT ISZERO PUSH2 0x1B90 JUMPI PUSH2 0x1B8F PUSH2 0x1AFA JUMP JUMPDEST JUMPDEST PUSH1 0x20 DUP3 MUL SWAP1 POP PUSH1 0x20 DUP2 ADD SWAP1 POP SWAP2 SWAP1 POP JUMP JUMPDEST PUSH1 0x0 DUP1 REVERT JUMPDEST PUSH1 0x0 PUSH8 0xFFFFFFFFFFFFFFFF DUP3 GT ISZERO PUSH2 0x1BC1 JUMPI PUSH2 0x1BC0 PUSH2 0x1AFA JUMP JUMPDEST JUMPDEST PUSH2 0x1BCA DUP3 PUSH2 0x1AE9 JUMP JUMPDEST SWAP1 POP PUSH1 0x20 DUP2 ADD SWAP1 POP SWAP2 SWAP1 POP JUMP JUMPDEST DUP3 DUP2 DUP4 CALLDATACOPY PUSH1 0x0 DUP4 DUP4 ADD MSTORE POP POP POP JUMP JUMPDEST PUSH1 0x0 PUSH2 0x1BF9 PUSH2 0x1BF4 DUP5 PUSH2 0x1BA6 JUMP JUMPDEST PUSH2 0x1B5A JUMP JUMPDEST SWAP1 POP DUP3 DUP2 MSTORE PUSH1 0x20 DUP2 ADD DUP5 DUP5 DUP5 ADD GT ISZERO PUSH2 0x1C15 JUMPI PUSH2 0x1C14 PUSH2 0x1BA1 JUMP JUMPDEST JUMPDEST PUSH2 0x1C20 DUP5 DUP3 DUP6 PUSH2 0x1BD7 JUMP JUMPDEST POP SWAP4 SWAP3 POP POP POP JUMP JUMPDEST PUSH1 0x0 DUP3 PUSH1 0x1F DUP4 ADD SLT PUSH2 0x1C3D JUMPI PUSH2 0x1C3C PUSH2 0x1752 JUMP JUMPDEST JUMPDEST DUP2 CALLDATALOAD PUSH2 0x1C4D DUP5 DUP3 PUSH1 0x20 DUP7 ADD PUSH2 0x1BE6 JUMP JUMPDEST SWAP2 POP POP SWAP3 SWAP2 POP POP JUMP JUMPDEST PUSH1 0x0 PUSH2 0x1C69 PUSH2 0x1C64 DUP5 PUSH2 0x1B75 JUMP JUMPDEST PUSH2 0x1B5A JUMP JUMPDEST SWAP1 POP DUP1 DUP4 DUP3 MSTORE PUSH1 0x20 DUP3 ADD SWAP1 POP PUSH1 0x20 DUP5 MUL DUP4 ADD DUP6 DUP2 GT ISZERO PUSH2 0x1C8C JUMPI PUSH2 0x1C8B PUSH2 0x175C JUMP JUMPDEST JUMPDEST DUP4 JUMPDEST DUP2 DUP2 LT ISZERO PUSH2 0x1CD3 JUMPI DUP1 CALLDATALOAD PUSH8 0xFFFFFFFFFFFFFFFF DUP2 GT ISZERO PUSH2 0x1CB1 JUMPI PUSH2 0x1CB0 PUSH2 0x1752 JUMP JUMPDEST JUMPDEST DUP1 DUP7 ADD PUSH2 0x1CBE DUP10 DUP3 PUSH2 0x1C28 JUMP JUMPDEST DUP6 MSTORE PUSH1 0x20 DUP6 ADD SWAP5 POP POP POP PUSH1 0x20 DUP2 ADD SWAP1 POP PUSH2 0x1C8E JUMP JUMPDEST POP POP POP SWAP4 SWAP3 POP POP POP JUMP JUMPDEST PUSH1 0x0 PUSH2 0x1CEA CALLDATASIZE DUP5 DUP5 PUSH2 0x1C56 JUMP JUMPDEST SWAP1 POP SWAP3 SWAP2 POP POP JUMP JUMPDEST PUSH1 0x0 DUP2 MLOAD SWAP1 POP SWAP2 SWAP1 POP JUMP JUMPDEST PUSH1 0x0 DUP3 DUP3 MSTORE PUSH1 0x20 DUP3 ADD SWAP1 POP SWAP3 SWAP2 POP POP JUMP JUMPDEST PUSH1 0x0 DUP2 SWAP1 POP PUSH1 0x20 DUP3 ADD SWAP1 POP SWAP2 SWAP1 POP JUMP JUMPDEST PUSH1 0x0 DUP2 MLOAD SWAP1 POP SWAP2 SWAP1 POP JUMP JUMPDEST PUSH1 0x0 DUP3 DUP3 MSTORE PUSH1 0x20 DUP3 ADD SWAP1 POP SWAP3 SWAP2 POP POP JUMP JUMPDEST PUSH1 0x0 JUMPDEST DUP4 DUP2 LT ISZERO PUSH2 0x1D58 JUMPI DUP1 DUP3 ADD MLOAD DUP2 DUP5 ADD MSTORE PUSH1 0x20 DUP2 ADD SWAP1 POP PUSH2 0x1D3D JUMP JUMPDEST PUSH1 0x0 DUP5 DUP5 ADD MSTORE POP POP POP POP JUMP JUMPDEST PUSH1 0x0 PUSH2 0x1D6F DUP3 PUSH2 0x1D1E JUMP JUMPDEST PUSH2 0x1D79 DUP2 DUP6 PUSH2 0x1D29 JUMP JUMPDEST SWAP4 POP PUSH2 0x1D89 DUP2 DUP6 PUSH1 0x20 DUP7 ADD PUSH2 0x1D3A JUMP JUMPDEST PUSH2 0x1D92 DUP2 PUSH2 0x1AE9 JUMP JUMPDEST DUP5 ADD SWAP2 POP POP SWAP3 SWAP2 POP POP JUMP JUMPDEST PUSH1 0x0 PUSH2 0x1DA9 DUP4 DUP4 PUSH2 0x1D64 JUMP JUMPDEST SWAP1 POP SWAP3 SWAP2 POP POP JUMP JUMPDEST PUSH1 0x0 PUSH1 0x20 DUP3 ADD SWAP1 POP SWAP2 SWAP1 POP JUMP JUMPDEST PUSH1 0x0 PUSH2 0x1DC9 DUP3 PUSH2 0x1CF2 JUMP JUMPDEST PUSH2 0x1DD3 DUP2 DUP6 PUSH2 0x1CFD JUMP JUMPDEST SWAP4 POP DUP4 PUSH1 0x20 DUP3 MUL DUP6 ADD PUSH2 0x1DE5 DUP6 PUSH2 0x1D0E JUMP JUMPDEST DUP1 PUSH1 0x0 JUMPDEST DUP6 DUP2 LT ISZERO PUSH2 0x1E21 JUMPI DUP5 DUP5 SUB DUP10 MSTORE DUP2 MLOAD PUSH2 0x1E02 DUP6 DUP3 PUSH2 0x1D9D JUMP JUMPDEST SWAP5 POP PUSH2 0x1E0D DUP4 PUSH2 0x1DB1 JUMP JUMPDEST SWAP3 POP PUSH1 0x20 DUP11 ADD SWAP10 POP POP PUSH1 0x1 DUP2 ADD SWAP1 POP PUSH2 0x1DE9 JUMP JUMPDEST POP DUP3 SWAP8 POP DUP8 SWAP6 POP POP POP POP POP POP SWAP3 SWAP2 POP POP JUMP JUMPDEST PUSH1 0x0 PUSH1 0x20 DUP3 ADD SWAP1 POP DUP2 DUP2 SUB PUSH1 0x0 DUP4 ADD MSTORE PUSH2 0x1E4D DUP2 DUP5 PUSH2 0x1DBE JUMP JUMPDEST SWAP1 POP SWAP3 SWAP2 POP POP JUMP JUMPDEST PUSH1 0x0 PUSH32 0xFFFFFFFF00000000000000000000000000000000000000000000000000000000 DUP3 AND SWAP1 POP SWAP2 SWAP1 POP JUMP JUMPDEST PUSH2 0x1E8A DUP2 PUSH2 0x1E55 JUMP JUMPDEST DUP2 EQ PUSH2 0x1E95 JUMPI PUSH1 0x0 DUP1 REVERT JUMPDEST POP JUMP JUMPDEST PUSH1 0x0 DUP2 MLOAD SWAP1 POP PUSH2 0x1EA7 DUP2 PUSH2 0x1E81 JUMP JUMPDEST SWAP3 SWAP2 POP POP JUMP JUMPDEST PUSH1 0x0 PUSH8 0xFFFFFFFFFFFFFFFF DUP3 GT ISZERO PUSH2 0x1EC8 JUMPI PUSH2 0x1EC7 PUSH2 0x1AFA JUMP JUMPDEST JUMPDEST PUSH1 0x20 DUP3 MUL SWAP1 POP PUSH1 0x20 DUP2 ADD SWAP1 POP SWAP2 SWAP1 POP JUMP JUMPDEST PUSH1 0x0 DUP1 REVERT JUMPDEST PUSH1 0x0 DUP1 REVERT JUMPDEST PUSH1 0x0 PUSH1 0xFF DUP3 AND SWAP1 POP SWAP2 SWAP1 POP JUMP JUMPDEST PUSH2 0x1EF9 DUP2 PUSH2 0x1EE3 JUMP JUMPDEST DUP2 EQ PUSH2 0x1F04 JUMPI PUSH1 0x0 DUP1 REVERT JUMPDEST POP JUMP JUMPDEST PUSH1 0x0 DUP2 MLOAD SWAP1 POP PUSH2 0x1F16 DUP2 PUSH2 0x1EF0 JUMP JUMPDEST SWAP3 SWAP2 POP POP JUMP JUMPDEST PUSH1 0x0 PUSH2 0x1F2F PUSH2 0x1F2A DUP5 PUSH2 0x1BA6 JUMP JUMPDEST PUSH2 0x1B5A JUMP JUMPDEST SWAP1 POP DUP3 DUP2 MSTORE PUSH1 0x20 DUP2 ADD DUP5 DUP5 DUP5 ADD GT ISZERO PUSH2 0x1F4B JUMPI PUSH2 0x1F4A PUSH2 0x1BA1 JUMP JUMPDEST JUMPDEST PUSH2 0x1F56 DUP5 DUP3 DUP6 PUSH2 0x1D3A JUMP JUMPDEST POP SWAP4 SWAP3 POP POP POP JUMP JUMPDEST PUSH1 0x0 DUP3 PUSH1 0x1F DUP4 ADD SLT PUSH2 0x1F73 JUMPI PUSH2 0x1F72 PUSH2 0x1752 JUMP JUMPDEST JUMPDEST DUP2 MLOAD PUSH2 0x1F83 DUP5 DUP3 PUSH1 0x20 DUP7 ADD PUSH2 0x1F1C JUMP JUMPDEST SWAP2 POP POP SWAP3 SWAP2 POP POP JUMP JUMPDEST PUSH1 0x0 DUP2 MLOAD SWAP1 POP PUSH2 0x1F9B DUP2 PUSH2 0x15CA JUMP JUMPDEST SWAP3 SWAP2 POP POP JUMP JUMPDEST PUSH1 0x0 DUP2 MLOAD SWAP1 POP PUSH2 0x1FB0 DUP2 PUSH2 0x1659 JUMP JUMPDEST SWAP3 SWAP2 POP POP JUMP JUMPDEST PUSH1 0x0 DUP2 SWAP1 POP SWAP2 SWAP1 POP JUMP JUMPDEST PUSH2 0x1FC9 DUP2 PUSH2 0x1FB6 JUMP JUMPDEST DUP2 EQ PUSH2 0x1FD4 JUMPI PUSH1 0x0 DUP1 REVERT JUMPDEST POP JUMP JUMPDEST PUSH1 0x0 DUP2 MLOAD SWAP1 POP PUSH2 0x1FE6 DUP2 PUSH2 0x1FC0 JUMP JUMPDEST SWAP3 SWAP2 POP POP JUMP JUMPDEST PUSH1 0x0 PUSH1 0xC0 DUP3 DUP5 SUB SLT ISZERO PUSH2 0x2002 JUMPI PUSH2 0x2001 PUSH2 0x1ED9 JUMP JUMPDEST JUMPDEST PUSH2 0x200C PUSH1 0xC0 PUSH2 0x1B5A JUMP JUMPDEST SWAP1 POP PUSH1 0x0 PUSH2 0x201C DUP5 DUP3 DUP6 ADD PUSH2 0x1F07 JUMP JUMPDEST PUSH1 0x0 DUP4 ADD MSTORE POP PUSH1 0x20 DUP3 ADD MLOAD PUSH8 0xFFFFFFFFFFFFFFFF DUP2 GT ISZERO PUSH2 0x2040 JUMPI PUSH2 0x203F PUSH2 0x1EDE JUMP JUMPDEST JUMPDEST PUSH2 0x204C DUP5 DUP3 DUP6 ADD PUSH2 0x1F5E JUMP JUMPDEST PUSH1 0x20 DUP4 ADD MSTORE POP PUSH1 0x40 PUSH2 0x2060 DUP5 DUP3 DUP6 ADD PUSH2 0x1F8C JUMP JUMPDEST PUSH1 0x40 DUP4 ADD MSTORE POP PUSH1 0x60 PUSH2 0x2074 DUP5 DUP3 DUP6 ADD PUSH2 0x1FA1 JUMP JUMPDEST PUSH1 0x60 DUP4 ADD MSTORE POP PUSH1 0x80 PUSH2 0x2088 DUP5 DUP3 DUP6 ADD PUSH2 0x1FD7 JUMP JUMPDEST PUSH1 0x80 DUP4 ADD MSTORE POP PUSH1 0xA0 PUSH2 0x209C DUP5 DUP3 DUP6 ADD PUSH2 0x196F JUMP JUMPDEST PUSH1 0xA0 DUP4 ADD MSTORE POP SWAP3 SWAP2 POP POP JUMP JUMPDEST PUSH1 0x0 PUSH2 0x20BB PUSH2 0x20B6 DUP5 PUSH2 0x1EAD JUMP JUMPDEST PUSH2 0x1B5A JUMP JUMPDEST SWAP1 POP DUP1 DUP4 DUP3 MSTORE PUSH1 0x20 DUP3 ADD SWAP1 POP PUSH1 0x20 DUP5 MUL DUP4 ADD DUP6 DUP2 GT ISZERO PUSH2 0x20DE JUMPI PUSH2 0x20DD PUSH2 0x175C JUMP JUMPDEST JUMPDEST DUP4 JUMPDEST DUP2 DUP2 LT ISZERO PUSH2 0x2125 JUMPI DUP1 MLOAD PUSH8 0xFFFFFFFFFFFFFFFF DUP2 GT ISZERO PUSH2 0x2103 JUMPI PUSH2 0x2102 PUSH2 0x1752 JUMP JUMPDEST JUMPDEST DUP1 DUP7 ADD PUSH2 0x2110 DUP10 DUP3 PUSH2 0x1FEC JUMP JUMPDEST DUP6 MSTORE PUSH1 0x20 DUP6 ADD SWAP5 POP POP POP PUSH1 0x20 DUP2 ADD SWAP1 POP PUSH2 0x20E0 JUMP JUMPDEST POP POP POP SWAP4 SWAP3 POP POP POP JUMP JUMPDEST PUSH1 0x0 DUP3 PUSH1 0x1F DUP4 ADD SLT PUSH2 0x2144 JUMPI PUSH2 0x2143 PUSH2 0x1752 JUMP JUMPDEST JUMPDEST DUP2 MLOAD PUSH2 0x2154 DUP5 DUP3 PUSH1 0x20 DUP7 ADD PUSH2 0x20A8 JUMP JUMPDEST SWAP2 POP POP SWAP3 SWAP2 POP POP JUMP JUMPDEST PUSH1 0x0 DUP1 PUSH1 0x40 DUP4 DUP6 SUB SLT ISZERO PUSH2 0x2174 JUMPI PUSH2 0x2173 PUSH2 0x158E JUMP JUMPDEST JUMPDEST PUSH1 0x0 PUSH2 0x2182 DUP6 DUP3 DUP7 ADD PUSH2 0x1E98 JUMP JUMPDEST SWAP3 POP POP PUSH1 0x20 DUP4 ADD MLOAD PUSH8 0xFFFFFFFFFFFFFFFF DUP2 GT ISZERO PUSH2 0x21A3 JUMPI PUSH2 0x21A2 PUSH2 0x1593 JUMP JUMPDEST JUMPDEST PUSH2 0x21AF DUP6 DUP3 DUP7 ADD PUSH2 0x212F JUMP JUMPDEST SWAP2 POP POP SWAP3 POP SWAP3 SWAP1 POP JUMP JUMPDEST PUSH2 0x21C2 DUP2 PUSH2 0x1E55 JUMP JUMPDEST DUP3 MSTORE POP POP JUMP JUMPDEST PUSH1 0x0 DUP2 MLOAD SWAP1 POP SWAP2 SWAP1 POP JUMP JUMPDEST PUSH1 0x0 DUP3 DUP3 MSTORE PUSH1 0x20 DUP3 ADD SWAP1 POP SWAP3 SWAP2 POP POP JUMP JUMPDEST PUSH1 0x0 DUP2 SWAP1 POP PUSH1 0x20 DUP3 ADD SWAP1 POP SWAP2 SWAP1 POP JUMP JUMPDEST PUSH2 0x21FD DUP2 PUSH2 0x1EE3 JUMP JUMPDEST DUP3 MSTORE POP POP JUMP JUMPDEST PUSH1 0x0 DUP3 DUP3 MSTORE PUSH1 0x20 DUP3 ADD SWAP1 POP SWAP3 SWAP2 POP POP JUMP JUMPDEST PUSH1 0x0 PUSH2 0x221F DUP3 PUSH2 0x1D1E JUMP JUMPDEST PUSH2 0x2229 DUP2 DUP6 PUSH2 0x2203 JUMP JUMPDEST SWAP4 POP PUSH2 0x2239 DUP2 DUP6 PUSH1 0x20 DUP7 ADD PUSH2 0x1D3A JUMP JUMPDEST PUSH2 0x2242 DUP2 PUSH2 0x1AE9 JUMP JUMPDEST DUP5 ADD SWAP2 POP POP SWAP3 SWAP2 POP POP JUMP JUMPDEST PUSH2 0x2256 DUP2 PUSH2 0x15B8 JUMP JUMPDEST DUP3 MSTORE POP POP JUMP JUMPDEST PUSH2 0x2265 DUP2 PUSH2 0x1550 JUMP JUMPDEST DUP3 MSTORE POP POP JUMP JUMPDEST PUSH2 0x2274 DUP2 PUSH2 0x1FB6 JUMP JUMPDEST DUP3 MSTORE POP POP JUMP JUMPDEST PUSH2 0x2283 DUP2 PUSH2 0x1623 JUMP JUMPDEST DUP3 MSTORE POP POP JUMP JUMPDEST PUSH1 0x0 PUSH1 0xC0 DUP4 ADD PUSH1 0x0 DUP4 ADD MLOAD PUSH2 0x22A1 PUSH1 0x0 DUP7 ADD DUP3 PUSH2 0x21F4 JUMP JUMPDEST POP PUSH1 0x20 DUP4 ADD MLOAD DUP5 DUP3 SUB PUSH1 0x20 DUP7 ADD MSTORE PUSH2 0x22B9 DUP3 DUP3 PUSH2 0x2214 JUMP JUMPDEST SWAP2 POP POP PUSH1 0x40 DUP4 ADD MLOAD PUSH2 0x22CE PUSH1 0x40 DUP7 ADD DUP3 PUSH2 0x224D JUMP JUMPDEST POP PUSH1 0x60 DUP4 ADD MLOAD PUSH2 0x22E1 PUSH1 0x60 DUP7 ADD DUP3 PUSH2 0x225C JUMP JUMPDEST POP PUSH1 0x80 DUP4 ADD MLOAD PUSH2 0x22F4 PUSH1 0x80 DUP7 ADD DUP3 PUSH2 0x226B JUMP JUMPDEST POP PUSH1 0xA0 DUP4 ADD MLOAD PUSH2 0x2307 PUSH1 0xA0 DUP7 ADD DUP3 PUSH2 0x227A JUMP JUMPDEST POP DUP1 SWAP2 POP POP SWAP3 SWAP2 POP POP JUMP JUMPDEST PUSH1 0x0 PUSH2 0x231E DUP4 DUP4 PUSH2 0x2289 JUMP JUMPDEST SWAP1 POP SWAP3 SWAP2 POP POP JUMP JUMPDEST PUSH1 0x0 PUSH1 0x20 DUP3 ADD SWAP1 POP SWAP2 SWAP1 POP JUMP JUMPDEST PUSH1 0x0 PUSH2 0x233E DUP3 PUSH2 0x21C8 JUMP JUMPDEST PUSH2 0x2348 DUP2 DUP6 PUSH2 0x21D3 JUMP JUMPDEST SWAP4 POP DUP4 PUSH1 0x20 DUP3 MUL DUP6 ADD PUSH2 0x235A DUP6 PUSH2 0x21E4 JUMP JUMPDEST DUP1 PUSH1 0x0 JUMPDEST DUP6 DUP2 LT ISZERO PUSH2 0x2396 JUMPI DUP5 DUP5 SUB DUP10 MSTORE DUP2 MLOAD PUSH2 0x2377 DUP6 DUP3 PUSH2 0x2312 JUMP JUMPDEST SWAP5 POP PUSH2 0x2382 DUP4 PUSH2 0x2326 JUMP JUMPDEST SWAP3 POP PUSH1 0x20 DUP11 ADD SWAP10 POP POP PUSH1 0x1 DUP2 ADD SWAP1 POP PUSH2 0x235E JUMP JUMPDEST POP DUP3 SWAP8 POP DUP8 SWAP6 POP POP POP POP POP POP SWAP3 SWAP2 POP POP JUMP JUMPDEST PUSH1 0x0 PUSH1 0x40 DUP3 ADD SWAP1 POP PUSH2 0x23BD PUSH1 0x0 DUP4 ADD DUP6 PUSH2 0x21B9 JUMP JUMPDEST DUP2 DUP2 SUB PUSH1 0x20 DUP4 ADD MSTORE PUSH2 0x23CF DUP2 DUP5 PUSH2 0x2333 JUMP JUMPDEST SWAP1 POP SWAP4 SWAP3 POP POP POP JUMP JUMPDEST PUSH1 0x0 PUSH1 0x20 DUP3 ADD SWAP1 POP PUSH2 0x23ED PUSH1 0x0 DUP4 ADD DUP5 PUSH2 0x21B9 JUMP JUMPDEST SWAP3 SWAP2 POP POP JUMP JUMPDEST PUSH1 0x0 PUSH8 0xFFFFFFFFFFFFFFFF DUP3 GT ISZERO PUSH2 0x240E JUMPI PUSH2 0x240D PUSH2 0x1AFA JUMP JUMPDEST JUMPDEST PUSH1 0x20 DUP3 MUL SWAP1 POP PUSH1 0x20 DUP2 ADD SWAP1 POP SWAP2 SWAP1 POP JUMP JUMPDEST PUSH1 0x0 PUSH2 0x2432 PUSH2 0x242D DUP5 PUSH2 0x23F3 JUMP JUMPDEST PUSH2 0x1B5A JUMP JUMPDEST SWAP1 POP DUP1 DUP4 DUP3 MSTORE PUSH1 0x20 DUP3 ADD SWAP1 POP PUSH1 0x20 DUP5 MUL DUP4 ADD DUP6 DUP2 GT ISZERO PUSH2 0x2455 JUMPI PUSH2 0x2454 PUSH2 0x175C JUMP JUMPDEST JUMPDEST DUP4 JUMPDEST DUP2 DUP2 LT ISZERO PUSH2 0x247E JUMPI DUP1 PUSH2 0x246A DUP9 DUP3 PUSH2 0x1F07 JUMP JUMPDEST DUP5 MSTORE PUSH1 0x20 DUP5 ADD SWAP4 POP POP PUSH1 0x20 DUP2 ADD SWAP1 POP PUSH2 0x2457 JUMP JUMPDEST POP POP POP SWAP4 SWAP3 POP POP POP JUMP JUMPDEST PUSH1 0x0 DUP3 PUSH1 0x1F DUP4 ADD SLT PUSH2 0x249D JUMPI PUSH2 0x249C PUSH2 0x1752 JUMP JUMPDEST JUMPDEST DUP2 MLOAD PUSH2 0x24AD DUP5 DUP3 PUSH1 0x20 DUP7 ADD PUSH2 0x241F JUMP JUMPDEST SWAP2 POP POP SWAP3 SWAP2 POP POP JUMP JUMPDEST PUSH1 0x0 DUP1 PUSH1 0x0 DUP1 PUSH1 0x80 DUP6 DUP8 SUB SLT ISZERO PUSH2 0x24D0 JUMPI PUSH2 0x24CF PUSH2 0x158E JUMP JUMPDEST JUMPDEST PUSH1 0x0 PUSH2 0x24DE DUP8 DUP3 DUP9 ADD PUSH2 0x196F JUMP JUMPDEST SWAP5 POP POP PUSH1 0x20 DUP6 ADD MLOAD PUSH8 0xFFFFFFFFFFFFFFFF DUP2 GT ISZERO PUSH2 0x24FF JUMPI PUSH2 0x24FE PUSH2 0x1593 JUMP JUMPDEST JUMPDEST PUSH2 0x250B DUP8 DUP3 DUP9 ADD PUSH2 0x2488 JUMP JUMPDEST SWAP4 POP POP PUSH1 0x40 DUP6 ADD MLOAD PUSH8 0xFFFFFFFFFFFFFFFF DUP2 GT ISZERO PUSH2 0x252C JUMPI PUSH2 0x252B PUSH2 0x1593 JUMP JUMPDEST JUMPDEST PUSH2 0x2538 DUP8 DUP3 DUP9 ADD PUSH2 0x2488 JUMP JUMPDEST SWAP3 POP POP PUSH1 0x60 PUSH2 0x2549 DUP8 DUP3 DUP9 ADD PUSH2 0x1F07 JUMP JUMPDEST SWAP2 POP POP SWAP3 SWAP6 SWAP2 SWAP5 POP SWAP3 POP JUMP JUMPDEST PUSH32 0x4E487B7100000000000000000000000000000000000000000000000000000000 PUSH1 0x0 MSTORE PUSH1 0x32 PUSH1 0x4 MSTORE PUSH1 0x24 PUSH1 0x0 REVERT JUMPDEST PUSH32 0x6465706F73697446756E64730000000000000000000000000000000000000000 PUSH1 0x0 DUP3 ADD MSTORE POP JUMP JUMPDEST PUSH1 0x0 PUSH2 0x25BA PUSH1 0xC DUP4 PUSH2 0x14D3 JUMP JUMPDEST SWAP2 POP PUSH2 0x25C5 DUP3 PUSH2 0x2584 JUMP JUMPDEST PUSH1 0x20 DUP3 ADD SWAP1 POP SWAP2 SWAP1 POP JUMP JUMPDEST PUSH1 0x0 PUSH1 0x20 DUP3 ADD SWAP1 POP DUP2 DUP2 SUB PUSH1 0x0 DUP4 ADD MSTORE PUSH2 0x25E9 DUP2 PUSH2 0x25AD JUMP JUMPDEST SWAP1 POP SWAP2 SWAP1 POP JUMP INVALID LOG2 PUSH5 0x6970667358 0x22 SLT KECCAK256 0x24 PUSH10 0xE3650E3281BBFD2EF3E0 CHAINID TLOAD NOT 0x29 0xCA TIMESTAMP 0xCC SIGNEXTEND 0xC1 GASPRICE 0x1F DUP8 CALL 0x21 BLOBHASH 0xDE SHL 0xBA 0xBE JUMPI PUSH5 0x736F6C6343 STOP ADDMOD BYTE STOP CALLER "
		},
		"gasEstimates": {
			"creation": {
				"codeDepositCost": "1953200",
				"executionCost": "infinite",
				"totalCost": "infinite"
			},
			"external": {
				"defiAction(bytes[],address)": "infinite",
				"depositFunds(address,address,uint256)": "infinite",
				"depositNonWithdrawableToken(address,address,uint256)": "infinite",
				"extraDefiActions(bytes[],address,address)": "infinite",
				"functions()": "infinite",
				"owners(address)": "2846",
				"roles()": "infinite",
				"wEth()": "2602",
				"withdrawFunds(address,uint256,address,address)": "infinite"
			},
			"internal": {
				"approve(address,uint256)": "infinite"
			}
		},
		"methodIdentifiers": {
			"defiAction(bytes[],address)": "6d070f4b",
			"depositFunds(address,address,uint256)": "c1461d57",
			"depositNonWithdrawableToken(address,address,uint256)": "20bedf43",
			"extraDefiActions(bytes[],address,address)": "53a0f7b6",
			"functions()": "569560e8",
			"owners(address)": "022914a7",
			"roles()": "392f5f64",
			"wEth()": "df6d9212",
			"withdrawFunds(address,uint256,address,address)": "6ba3fef2"
		}
	},
	"abi": [
		{
			"inputs": [
				{
					"internalType": "address",
					"name": "_owner",
					"type": "address"
				},
				{
					"internalType": "address",
					"name": "_secondOwner",
					"type": "address"
				},
				{
					"internalType": "address",
					"name": "_funct",
					"type": "address"
				},
				{
					"internalType": "address",
					"name": "_roles",
					"type": "address"
				},
				{
					"internalType": "address",
					"name": "_wEth",
					"type": "address"
				}
			],
			"stateMutability": "nonpayable",
			"type": "constructor"
		},
		{
			"inputs": [
				{
					"internalType": "string",
					"name": "functionName",
					"type": "string"
				}
			],
			"name": "InvalidParams",
			"type": "error"
		},
		{
			"inputs": [],
			"name": "ReentrancyGuardReentrantCall",
			"type": "error"
		},
		{
			"anonymous": false,
			"inputs": [
				{
					"indexed": false,
					"internalType": "address",
					"name": "token",
					"type": "address"
				},
				{
					"indexed": false,
					"internalType": "uint256",
					"name": "value",
					"type": "uint256"
				}
			],
			"name": "ContractFunded",
			"type": "event"
		},
		{
			"anonymous": false,
			"inputs": [
				{
					"indexed": false,
					"internalType": "bytes4",
					"name": "functionSelector",
					"type": "bytes4"
				},
				{
					"components": [
						{
							"internalType": "uint8",
							"name": "_type",
							"type": "uint8"
						},
						{
							"internalType": "bytes",
							"name": "v",
							"type": "bytes"
						},
						{
							"internalType": "address",
							"name": "w",
							"type": "address"
						},
						{
							"internalType": "uint256",
							"name": "x",
							"type": "uint256"
						},
						{
							"internalType": "int256",
							"name": "y",
							"type": "int256"
						},
						{
							"internalType": "bool",
							"name": "z",
							"type": "bool"
						}
					],
					"indexed": false,
					"internalType": "struct ParamManagerLib.DeFiParam[]",
					"name": "params",
					"type": "tuple[]"
				}
			],
			"name": "DeFiActionExecuted",
			"type": "event"
		},
		{
			"anonymous": false,
			"inputs": [
				{
					"indexed": true,
					"internalType": "address",
					"name": "sender",
					"type": "address"
				},
				{
					"indexed": false,
					"internalType": "uint256",
					"name": "amount",
					"type": "uint256"
				}
			],
			"name": "EtherReceived",
			"type": "event"
		},
		{
			"inputs": [
				{
					"internalType": "bytes[]",
					"name": "_actionData",
					"type": "bytes[]"
				},
				{
					"internalType": "address",
					"name": "_signer",
					"type": "address"
				}
			],
			"name": "defiAction",
			"outputs": [
				{
					"internalType": "bool",
					"name": "",
					"type": "bool"
				}
			],
			"stateMutability": "nonpayable",
			"type": "function"
		},
		{
			"inputs": [
				{
					"internalType": "address",
					"name": "_signer",
					"type": "address"
				},
				{
					"internalType": "address",
					"name": "_token",
					"type": "address"
				},
				{
					"internalType": "uint256",
					"name": "_value",
					"type": "uint256"
				}
			],
			"name": "depositFunds",
			"outputs": [],
			"stateMutability": "payable",
			"type": "function"
		},
		{
			"inputs": [
				{
					"internalType": "address",
					"name": "_signer",
					"type": "address"
				},
				{
					"internalType": "address",
					"name": "_token",
					"type": "address"
				},
				{
					"internalType": "uint256",
					"name": "_amount",
					"type": "uint256"
				}
			],
			"name": "depositNonWithdrawableToken",
			"outputs": [],
			"stateMutability": "nonpayable",
			"type": "function"
		},
		{
			"inputs": [
				{
					"internalType": "bytes[]",
					"name": "_data",
					"type": "bytes[]"
				},
				{
					"internalType": "address",
					"name": "_signer",
					"type": "address"
				},
				{
					"internalType": "address",
					"name": "_customizedContract",
					"type": "address"
				}
			],
			"name": "extraDefiActions",
			"outputs": [],
			"stateMutability": "payable",
			"type": "function"
		},
		{
			"inputs": [],
			"name": "functions",
			"outputs": [
				{
					"internalType": "contract IFunctions",
					"name": "",
					"type": "address"
				}
			],
			"stateMutability": "view",
			"type": "function"
		},
		{
			"inputs": [
				{
					"internalType": "address",
					"name": "",
					"type": "address"
				}
			],
			"name": "owners",
			"outputs": [
				{
					"internalType": "bool",
					"name": "",
					"type": "bool"
				}
			],
			"stateMutability": "view",
			"type": "function"
		},
		{
			"inputs": [],
			"name": "roles",
			"outputs": [
				{
					"internalType": "contract Roles",
					"name": "",
					"type": "address"
				}
			],
			"stateMutability": "view",
			"type": "function"
		},
		{
			"inputs": [],
			"name": "wEth",
			"outputs": [
				{
					"internalType": "address",
					"name": "",
					"type": "address"
				}
			],
			"stateMutability": "view",
			"type": "function"
		},
		{
			"inputs": [
				{
					"internalType": "address",
					"name": "_token",
					"type": "address"
				},
				{
					"internalType": "uint256",
					"name": "_value",
					"type": "uint256"
				},
				{
					"internalType": "address",
					"name": "_signer",
					"type": "address"
				},
				{
					"internalType": "address",
					"name": "_recipient",
					"type": "address"
				}
			],
			"name": "withdrawFunds",
			"outputs": [],
			"stateMutability": "nonpayable",
			"type": "function"
		},
		{
			"stateMutability": "payable",
			"type": "receive"
		}
	]
}