{
	"data": {
		"bytecode": {
			"linkReferences": {},
			"object": "60806040523480156200001157600080fd5b506040516200236238038062002362833981810160405281019062000037919062000253565b60016000808773ffffffffffffffffffffffffffffffffffffffff1673ffffffffffffffffffffffffffffffffffffffff16815260200190815260200160002060006101000a81548160ff021916908315150217905550600073ffffffffffffffffffffffffffffffffffffffff168473ffffffffffffffffffffffffffffffffffffffff16146200011b5760016000808673ffffffffffffffffffffffffffffffffffffffff1673ffffffffffffffffffffffffffffffffffffffff16815260200190815260200160002060006101000a81548160ff0219169083151502179055505b82600160006101000a81548173ffffffffffffffffffffffffffffffffffffffff021916908373ffffffffffffffffffffffffffffffffffffffff16021790555081600260006101000a81548173ffffffffffffffffffffffffffffffffffffffff021916908373ffffffffffffffffffffffffffffffffffffffff16021790555080600360006101000a81548173ffffffffffffffffffffffffffffffffffffffff021916908373ffffffffffffffffffffffffffffffffffffffff1602179055505050505050620002db565b600080fd5b600073ffffffffffffffffffffffffffffffffffffffff82169050919050565b60006200021b82620001ee565b9050919050565b6200022d816200020e565b81146200023957600080fd5b50565b6000815190506200024d8162000222565b92915050565b600080600080600060a08688031215620002725762000271620001e9565b5b600062000282888289016200023c565b955050602062000295888289016200023c565b9450506040620002a8888289016200023c565b9350506060620002bb888289016200023c565b9250506080620002ce888289016200023c565b9150509295509295909350565b61207780620002eb6000396000f3fe60806040526004361061007f5760003560e01c80636ba3fef21161004e5780636ba3fef2146101cb5780636d070f4b146101f4578063921b004b14610224578063df6d92121461024057610117565b8063022914a71461011c578063392f5f641461015957806353a0f7b614610184578063569560e8146101a057610117565b3661011757600034116100c7576040517f08c379a00000000000000000000000000000000000000000000000000000000081526004016100be90611175565b60405180910390fd5b3373ffffffffffffffffffffffffffffffffffffffff167f1e57e3bb474320be3d2c77138f75b7c3941292d647f5f9634e33a8e94e0e069b3460405161010d91906111ae565b60405180910390a2005b600080fd5b34801561012857600080fd5b50610143600480360381019061013e919061123b565b61026b565b6040516101509190611283565b60405180910390f35b34801561016557600080fd5b5061016e61028b565b60405161017b91906112fd565b60405180910390f35b61019e6004803603810190610199919061137d565b6102b1565b005b3480156101ac57600080fd5b506101b56103d7565b6040516101c29190611412565b60405180910390f35b3480156101d757600080fd5b506101f260048036038101906101ed9190611459565b6103fd565b005b61020e600480360381019061020991906114c0565b61055b565b60405161021b9190611283565b60405180910390f35b61023e60048036038101906102399190611520565b6107e3565b005b34801561024c57600080fd5b50610255610b3c565b604051610262919061156f565b60405180910390f35b60006020528060005260406000206000915054906101000a900460ff1681565b600260009054906101000a900473ffffffffffffffffffffffffffffffffffffffff1681565b816000808273ffffffffffffffffffffffffffffffffffffffff1673ffffffffffffffffffffffffffffffffffffffff16815260200190815260200160002060009054906101000a900460ff1661033d576040517f08c379a0000000000000000000000000000000000000000000000000000000008152600401610334906115d6565b60405180910390fd5b60008061034a8787610b62565b915091508373ffffffffffffffffffffffffffffffffffffffff1663ebe113fb3484846040518463ffffffff1660e01b815260040161038a92919061186e565b60206040518083038185885af11580156103a8573d6000803e3d6000fd5b50505050506040513d601f19601f820116820180604052508101906103cd91906118ca565b5050505050505050565b600160009054906101000a900473ffffffffffffffffffffffffffffffffffffffff1681565b816000808273ffffffffffffffffffffffffffffffffffffffff1673ffffffffffffffffffffffffffffffffffffffff16815260200190815260200160002060009054906101000a900460ff16610489576040517f08c379a0000000000000000000000000000000000000000000000000000000008152600401610480906115d6565b60405180910390fd5b73132adfe17b67f91573f3853db9682d9e937e3c9173ffffffffffffffffffffffffffffffffffffffff163373ffffffffffffffffffffffffffffffffffffffff16146104d557600080fd5b8473ffffffffffffffffffffffffffffffffffffffff1663a9059cbb83866040518363ffffffff1660e01b81526004016105109291906118f7565b6020604051808303816000875af115801561052f573d6000803e3d6000fd5b505050506040513d601f19601f8201168201806040525081019061055391906118ca565b505050505050565b6000816000808273ffffffffffffffffffffffffffffffffffffffff1673ffffffffffffffffffffffffffffffffffffffff16815260200190815260200160002060009054906101000a900460ff166105e9576040517f08c379a00000000000000000000000000000000000000000000000000000000081526004016105e0906115d6565b60405180910390fd5b6000806105f68787610b62565b915091506000806000600160009054906101000a900473ffffffffffffffffffffffffffffffffffffffff1673ffffffffffffffffffffffffffffffffffffffff1663a9d2b1d5866040518263ffffffff1660e01b815260040161065a9190611920565b606060405180830381865afa158015610677573d6000803e3d6000fd5b505050506040513d601f19601f8201168201806040525081019061069b9190611967565b92509250925082156106f4576106f3848360ff16815181106106c0576106bf6119ba565b5b602002602001015160400151858360ff16815181106106e2576106e16119ba565b5b602002602001015160600151611022565b5b6000600160009054906101000a900473ffffffffffffffffffffffffffffffffffffffff1673ffffffffffffffffffffffffffffffffffffffff1663ebe113fb3488886040518463ffffffff1660e01b815260040161075492919061186e565b60206040518083038185885af1158015610772573d6000803e3d6000fd5b50505050506040513d601f19601f8201168201806040525081019061079791906118ca565b90507f6caf114a658f9dcf6e91511c03b0857224920530d592656698df2c977a71acfa86866040516107ca92919061186e565b60405180910390a1809750505050505050509392505050565b600073ffffffffffffffffffffffffffffffffffffffff168273ffffffffffffffffffffffffffffffffffffffff1614801561081f5750600034145b806108635750600073ffffffffffffffffffffffffffffffffffffffff168273ffffffffffffffffffffffffffffffffffffffff16141580156108625750600034115b5b806108a75750600073ffffffffffffffffffffffffffffffffffffffff168273ffffffffffffffffffffffffffffffffffffffff16141580156108a65750600081145b5b156108e7576040517fa8c278dd0000000000000000000000000000000000000000000000000000000081526004016108de90611a35565b60405180910390fd5b60008073ffffffffffffffffffffffffffffffffffffffff168373ffffffffffffffffffffffffffffffffffffffff1603610a2157349050600360009054906101000a900473ffffffffffffffffffffffffffffffffffffffff1673ffffffffffffffffffffffffffffffffffffffff1663d0e30db0346040518263ffffffff1660e01b81526004016000604051808303818588803b15801561098957600080fd5b505af115801561099d573d6000803e3d6000fd5b5050505050600160046000600360009054906101000a900473ffffffffffffffffffffffffffffffffffffffff1673ffffffffffffffffffffffffffffffffffffffff1673ffffffffffffffffffffffffffffffffffffffff16815260200190815260200160002060006101000a81548160ff021916908315150217905550610afe565b8190508273ffffffffffffffffffffffffffffffffffffffff166323b872dd3330856040518463ffffffff1660e01b8152600401610a6193929190611a55565b6020604051808303816000875af1158015610a80573d6000803e3d6000fd5b505050506040513d601f19601f82011682018060405250810190610aa491906118ca565b506001600460008573ffffffffffffffffffffffffffffffffffffffff1673ffffffffffffffffffffffffffffffffffffffff16815260200190815260200160002060006101000a81548160ff0219169083151502179055505b7f0939f6f4877faf071412e527bc4c6d0bd65ad077e52b57334f7765265647a7f18382604051610b2f9291906118f7565b60405180910390a1505050565b600360009054906101000a900473ffffffffffffffffffffffffffffffffffffffff1681565b60006060600084846000818110610b7c57610b7b6119ba565b5b9050602002810190610b8e9190611a9b565b90610b999190611b16565b9050600085856001818110610bb157610bb06119ba565b5b9050602002810190610bc39190611a9b565b810190610bd09190611cb3565b9050600a81511115610c1a5780516040517f8bc593cd000000000000000000000000000000000000000000000000000000008152600401610c1191906111ae565b60405180910390fd5b6000815167ffffffffffffffff811115610c3757610c36611b75565b5b604051908082528060200260200182016040528015610c7057816020015b610c5d6110c7565b815260200190600190039081610c555790505b5090506000805b835181101561101057610c886110c7565b6000858381518110610c9d57610c9c6119ba565b5b602002602001015103610d48576000816000019060ff16908160ff168152505089896002818110610cd157610cd06119ba565b5b9050602002810190610ce39190611a9b565b8490602086610cf29190611d2b565b92610cff93929190611d69565b810190610d0c9190611de2565b816040019073ffffffffffffffffffffffffffffffffffffffff16908173ffffffffffffffffffffffffffffffffffffffff1681525050610fd4565b6001858381518110610d5d57610d5c6119ba565b5b602002602001015103610dda576001816000019060ff16908160ff168152505089896002818110610d9157610d906119ba565b5b9050602002810190610da39190611a9b565b8490602086610db29190611d2b565b92610dbf93929190611d69565b810190610dcc9190611e0f565b816060018181525050610fd3565b6002858381518110610def57610dee6119ba565b5b602002602001015103610e6c576002816000019060ff16908160ff168152505089896002818110610e2357610e226119ba565b5b9050602002810190610e359190611a9b565b8490602086610e449190611d2b565b92610e5193929190611d69565b810190610e5e9190611e68565b816080018181525050610fd2565b6003858381518110610e8157610e806119ba565b5b602002602001015103610f04576003816000019060ff16908160ff168152505089896002818110610eb557610eb46119ba565b5b9050602002810190610ec79190611a9b565b8490602086610ed69190611d2b565b92610ee393929190611d69565b810190610ef09190611eaa565b8160a0019015159081151581525050610fd1565b6004858381518110610f1957610f186119ba565b5b602002602001015103610f95576004816000019060ff16908160ff168152505089896002818110610f4d57610f4c6119ba565b5b9050602002810190610f5f9190611a9b565b8490602086610f6e9190611d2b565b92610f7b93929190611d69565b810190610f889190611f8c565b8160200181905250610fd0565b6040517fa8c278dd000000000000000000000000000000000000000000000000000000008152600401610fc790612021565b60405180910390fd5b5b5b5b5b80848381518110610fe857610fe76119ba565b5b60200260200101819052506020836110009190611d2b565b9250508080600101915050610c77565b50838295509550505050509250929050565b8173ffffffffffffffffffffffffffffffffffffffff1663095ea7b3600160009054906101000a900473ffffffffffffffffffffffffffffffffffffffff16836040518363ffffffff1660e01b815260040161107f9291906118f7565b6020604051808303816000875af115801561109e573d6000803e3d6000fd5b505050506040513d601f19601f820116820180604052508101906110c291906118ca565b505050565b6040518060c00160405280600060ff16815260200160608152602001600073ffffffffffffffffffffffffffffffffffffffff16815260200160008152602001600081526020016000151581525090565b600082825260208201905092915050565b7f53656e64206d6f72652045746865720000000000000000000000000000000000600082015250565b600061115f600f83611118565b915061116a82611129565b602082019050919050565b6000602082019050818103600083015261118e81611152565b9050919050565b6000819050919050565b6111a881611195565b82525050565b60006020820190506111c3600083018461119f565b92915050565b6000604051905090565b600080fd5b600080fd5b600073ffffffffffffffffffffffffffffffffffffffff82169050919050565b6000611208826111dd565b9050919050565b611218816111fd565b811461122357600080fd5b50565b6000813590506112358161120f565b92915050565b600060208284031215611251576112506111d3565b5b600061125f84828501611226565b91505092915050565b60008115159050919050565b61127d81611268565b82525050565b60006020820190506112986000830184611274565b92915050565b6000819050919050565b60006112c36112be6112b9846111dd565b61129e565b6111dd565b9050919050565b60006112d5826112a8565b9050919050565b60006112e7826112ca565b9050919050565b6112f7816112dc565b82525050565b600060208201905061131260008301846112ee565b92915050565b600080fd5b600080fd5b600080fd5b60008083601f84011261133d5761133c611318565b5b8235905067ffffffffffffffff81111561135a5761135961131d565b5b60208301915083602082028301111561137657611375611322565b5b9250929050565b60008060008060608587031215611397576113966111d3565b5b600085013567ffffffffffffffff8111156113b5576113b46111d8565b5b6113c187828801611327565b945094505060206113d487828801611226565b92505060406113e587828801611226565b91505092959194509250565b60006113fc826112ca565b9050919050565b61140c816113f1565b82525050565b60006020820190506114276000830184611403565b92915050565b61143681611195565b811461144157600080fd5b50565b6000813590506114538161142d565b92915050565b60008060008060808587031215611473576114726111d3565b5b600061148187828801611226565b945050602061149287828801611444565b93505060406114a387828801611226565b92505060606114b487828801611226565b91505092959194509250565b6000806000604084860312156114d9576114d86111d3565b5b600084013567ffffffffffffffff8111156114f7576114f66111d8565b5b61150386828701611327565b9350935050602061151686828701611226565b9150509250925092565b60008060408385031215611537576115366111d3565b5b600061154585828601611226565b925050602061155685828601611444565b9150509250929050565b611569816111fd565b82525050565b60006020820190506115846000830184611560565b92915050565b7f61636365737320636f6e74726f6c3a206f6e6c794f776e657200000000000000600082015250565b60006115c0601983611118565b91506115cb8261158a565b602082019050919050565b600060208201905081810360008301526115ef816115b3565b9050919050565b60007fffffffff0000000000000000000000000000000000000000000000000000000082169050919050565b61162b816115f6565b82525050565b600081519050919050565b600082825260208201905092915050565b6000819050602082019050919050565b600060ff82169050919050565b6116738161165d565b82525050565b600081519050919050565b600082825260208201905092915050565b60005b838110156116b3578082015181840152602081019050611698565b60008484015250505050565b6000601f19601f8301169050919050565b60006116db82611679565b6116e58185611684565b93506116f5818560208601611695565b6116fe816116bf565b840191505092915050565b611712816111fd565b82525050565b61172181611195565b82525050565b6000819050919050565b61173a81611727565b82525050565b61174981611268565b82525050565b600060c083016000830151611767600086018261166a565b506020830151848203602086015261177f82826116d0565b91505060408301516117946040860182611709565b5060608301516117a76060860182611718565b5060808301516117ba6080860182611731565b5060a08301516117cd60a0860182611740565b508091505092915050565b60006117e4838361174f565b905092915050565b6000602082019050919050565b600061180482611631565b61180e818561163c565b9350836020820285016118208561164d565b8060005b8581101561185c578484038952815161183d85826117d8565b9450611848836117ec565b925060208a01995050600181019050611824565b50829750879550505050505092915050565b60006040820190506118836000830185611622565b818103602083015261189581846117f9565b90509392505050565b6118a781611268565b81146118b257600080fd5b50565b6000815190506118c48161189e565b92915050565b6000602082840312156118e0576118df6111d3565b5b60006118ee848285016118b5565b91505092915050565b600060408201905061190c6000830185611560565b611919602083018461119f565b9392505050565b60006020820190506119356000830184611622565b92915050565b6119448161165d565b811461194f57600080fd5b50565b6000815190506119618161193b565b92915050565b6000806000606084860312156119805761197f6111d3565b5b600061198e868287016118b5565b935050602061199f86828701611952565b92505060406119b086828701611952565b9150509250925092565b7f4e487b7100000000000000000000000000000000000000000000000000000000600052603260045260246000fd5b7f6465706f73697446756e64730000000000000000000000000000000000000000600082015250565b6000611a1f600c83611118565b9150611a2a826119e9565b602082019050919050565b60006020820190508181036000830152611a4e81611a12565b9050919050565b6000606082019050611a6a6000830186611560565b611a776020830185611560565b611a84604083018461119f565b949350505050565b600080fd5b600080fd5b600080fd5b60008083356001602003843603038112611ab857611ab7611a8c565b5b80840192508235915067ffffffffffffffff821115611ada57611ad9611a91565b5b602083019250600182023603831315611af657611af5611a96565b5b509250929050565b600082905092915050565b600082821b905092915050565b6000611b228383611afe565b82611b2d81356115f6565b92506004821015611b6d57611b687fffffffff0000000000000000000000000000000000000000000000000000000083600403600802611b09565b831692505b505092915050565b7f4e487b7100000000000000000000000000000000000000000000000000000000600052604160045260246000fd5b611bad826116bf565b810181811067ffffffffffffffff82111715611bcc57611bcb611b75565b5b80604052505050565b6000611bdf6111c9565b9050611beb8282611ba4565b919050565b600067ffffffffffffffff821115611c0b57611c0a611b75565b5b602082029050602081019050919050565b6000611c2f611c2a84611bf0565b611bd5565b90508083825260208201905060208402830185811115611c5257611c51611322565b5b835b81811015611c7b5780611c678882611444565b845260208401935050602081019050611c54565b5050509392505050565b600082601f830112611c9a57611c99611318565b5b8135611caa848260208601611c1c565b91505092915050565b600060208284031215611cc957611cc86111d3565b5b600082013567ffffffffffffffff811115611ce757611ce66111d8565b5b611cf384828501611c85565b91505092915050565b7f4e487b7100000000000000000000000000000000000000000000000000000000600052601160045260246000fd5b6000611d3682611195565b9150611d4183611195565b9250828201905080821115611d5957611d58611cfc565b5b92915050565b600080fd5b600080fd5b60008085851115611d7d57611d7c611d5f565b5b83861115611d8e57611d8d611d64565b5b6001850283019150848603905094509492505050565b6000611daf826111dd565b9050919050565b611dbf81611da4565b8114611dca57600080fd5b50565b600081359050611ddc81611db6565b92915050565b600060208284031215611df857611df76111d3565b5b6000611e0684828501611dcd565b91505092915050565b600060208284031215611e2557611e246111d3565b5b6000611e3384828501611444565b91505092915050565b611e4581611727565b8114611e5057600080fd5b50565b600081359050611e6281611e3c565b92915050565b600060208284031215611e7e57611e7d6111d3565b5b6000611e8c84828501611e53565b91505092915050565b600081359050611ea48161189e565b92915050565b600060208284031215611ec057611ebf6111d3565b5b6000611ece84828501611e95565b91505092915050565b600080fd5b600067ffffffffffffffff821115611ef757611ef6611b75565b5b611f00826116bf565b9050602081019050919050565b82818337600083830152505050565b6000611f2f611f2a84611edc565b611bd5565b905082815260208101848484011115611f4b57611f4a611ed7565b5b611f56848285611f0d565b509392505050565b600082601f830112611f7357611f72611318565b5b8135611f83848260208601611f1c565b91505092915050565b600060208284031215611fa257611fa16111d3565b5b600082013567ffffffffffffffff811115611fc057611fbf6111d8565b5b611fcc84828501611f5e565b91505092915050565b7f646174614465636f646572000000000000000000000000000000000000000000600082015250565b600061200b600b83611118565b915061201682611fd5565b602082019050919050565b6000602082019050818103600083015261203a81611ffe565b905091905056fea2646970667358221220440a29132c8611ec83f1ce40408a68468b0cf8ca8f0d6e5f0c2383941253d9c364736f6c63430008180033",
			"opcodes": "PUSH1 0x80 PUSH1 0x40 MSTORE CALLVALUE DUP1 ISZERO PUSH3 0x11 JUMPI PUSH1 0x0 DUP1 REVERT JUMPDEST POP PUSH1 0x40 MLOAD PUSH3 0x2362 CODESIZE SUB DUP1 PUSH3 0x2362 DUP4 CODECOPY DUP2 DUP2 ADD PUSH1 0x40 MSTORE DUP2 ADD SWAP1 PUSH3 0x37 SWAP2 SWAP1 PUSH3 0x253 JUMP JUMPDEST PUSH1 0x1 PUSH1 0x0 DUP1 DUP8 PUSH20 0xFFFFFFFFFFFFFFFFFFFFFFFFFFFFFFFFFFFFFFFF AND PUSH20 0xFFFFFFFFFFFFFFFFFFFFFFFFFFFFFFFFFFFFFFFF AND DUP2 MSTORE PUSH1 0x20 ADD SWAP1 DUP2 MSTORE PUSH1 0x20 ADD PUSH1 0x0 KECCAK256 PUSH1 0x0 PUSH2 0x100 EXP DUP2 SLOAD DUP2 PUSH1 0xFF MUL NOT AND SWAP1 DUP4 ISZERO ISZERO MUL OR SWAP1 SSTORE POP PUSH1 0x0 PUSH20 0xFFFFFFFFFFFFFFFFFFFFFFFFFFFFFFFFFFFFFFFF AND DUP5 PUSH20 0xFFFFFFFFFFFFFFFFFFFFFFFFFFFFFFFFFFFFFFFF AND EQ PUSH3 0x11B JUMPI PUSH1 0x1 PUSH1 0x0 DUP1 DUP7 PUSH20 0xFFFFFFFFFFFFFFFFFFFFFFFFFFFFFFFFFFFFFFFF AND PUSH20 0xFFFFFFFFFFFFFFFFFFFFFFFFFFFFFFFFFFFFFFFF AND DUP2 MSTORE PUSH1 0x20 ADD SWAP1 DUP2 MSTORE PUSH1 0x20 ADD PUSH1 0x0 KECCAK256 PUSH1 0x0 PUSH2 0x100 EXP DUP2 SLOAD DUP2 PUSH1 0xFF MUL NOT AND SWAP1 DUP4 ISZERO ISZERO MUL OR SWAP1 SSTORE POP JUMPDEST DUP3 PUSH1 0x1 PUSH1 0x0 PUSH2 0x100 EXP DUP2 SLOAD DUP2 PUSH20 0xFFFFFFFFFFFFFFFFFFFFFFFFFFFFFFFFFFFFFFFF MUL NOT AND SWAP1 DUP4 PUSH20 0xFFFFFFFFFFFFFFFFFFFFFFFFFFFFFFFFFFFFFFFF AND MUL OR SWAP1 SSTORE POP DUP2 PUSH1 0x2 PUSH1 0x0 PUSH2 0x100 EXP DUP2 SLOAD DUP2 PUSH20 0xFFFFFFFFFFFFFFFFFFFFFFFFFFFFFFFFFFFFFFFF MUL NOT AND SWAP1 DUP4 PUSH20 0xFFFFFFFFFFFFFFFFFFFFFFFFFFFFFFFFFFFFFFFF AND MUL OR SWAP1 SSTORE POP DUP1 PUSH1 0x3 PUSH1 0x0 PUSH2 0x100 EXP DUP2 SLOAD DUP2 PUSH20 0xFFFFFFFFFFFFFFFFFFFFFFFFFFFFFFFFFFFFFFFF MUL NOT AND SWAP1 DUP4 PUSH20 0xFFFFFFFFFFFFFFFFFFFFFFFFFFFFFFFFFFFFFFFF AND MUL OR SWAP1 SSTORE POP POP POP POP POP POP PUSH3 0x2DB JUMP JUMPDEST PUSH1 0x0 DUP1 REVERT JUMPDEST PUSH1 0x0 PUSH20 0xFFFFFFFFFFFFFFFFFFFFFFFFFFFFFFFFFFFFFFFF DUP3 AND SWAP1 POP SWAP2 SWAP1 POP JUMP JUMPDEST PUSH1 0x0 PUSH3 0x21B DUP3 PUSH3 0x1EE JUMP JUMPDEST SWAP1 POP SWAP2 SWAP1 POP JUMP JUMPDEST PUSH3 0x22D DUP2 PUSH3 0x20E JUMP JUMPDEST DUP2 EQ PUSH3 0x239 JUMPI PUSH1 0x0 DUP1 REVERT JUMPDEST POP JUMP JUMPDEST PUSH1 0x0 DUP2 MLOAD SWAP1 POP PUSH3 0x24D DUP2 PUSH3 0x222 JUMP JUMPDEST SWAP3 SWAP2 POP POP JUMP JUMPDEST PUSH1 0x0 DUP1 PUSH1 0x0 DUP1 PUSH1 0x0 PUSH1 0xA0 DUP7 DUP9 SUB SLT ISZERO PUSH3 0x272 JUMPI PUSH3 0x271 PUSH3 0x1E9 JUMP JUMPDEST JUMPDEST PUSH1 0x0 PUSH3 0x282 DUP9 DUP3 DUP10 ADD PUSH3 0x23C JUMP JUMPDEST SWAP6 POP POP PUSH1 0x20 PUSH3 0x295 DUP9 DUP3 DUP10 ADD PUSH3 0x23C JUMP JUMPDEST SWAP5 POP POP PUSH1 0x40 PUSH3 0x2A8 DUP9 DUP3 DUP10 ADD PUSH3 0x23C JUMP JUMPDEST SWAP4 POP POP PUSH1 0x60 PUSH3 0x2BB DUP9 DUP3 DUP10 ADD PUSH3 0x23C JUMP JUMPDEST SWAP3 POP POP PUSH1 0x80 PUSH3 0x2CE DUP9 DUP3 DUP10 ADD PUSH3 0x23C JUMP JUMPDEST SWAP2 POP POP SWAP3 SWAP6 POP SWAP3 SWAP6 SWAP1 SWAP4 POP JUMP JUMPDEST PUSH2 0x2077 DUP1 PUSH3 0x2EB PUSH1 0x0 CODECOPY PUSH1 0x0 RETURN INVALID PUSH1 0x80 PUSH1 0x40 MSTORE PUSH1 0x4 CALLDATASIZE LT PUSH2 0x7F JUMPI PUSH1 0x0 CALLDATALOAD PUSH1 0xE0 SHR DUP1 PUSH4 0x6BA3FEF2 GT PUSH2 0x4E JUMPI DUP1 PUSH4 0x6BA3FEF2 EQ PUSH2 0x1CB JUMPI DUP1 PUSH4 0x6D070F4B EQ PUSH2 0x1F4 JUMPI DUP1 PUSH4 0x921B004B EQ PUSH2 0x224 JUMPI DUP1 PUSH4 0xDF6D9212 EQ PUSH2 0x240 JUMPI PUSH2 0x117 JUMP JUMPDEST DUP1 PUSH4 0x22914A7 EQ PUSH2 0x11C JUMPI DUP1 PUSH4 0x392F5F64 EQ PUSH2 0x159 JUMPI DUP1 PUSH4 0x53A0F7B6 EQ PUSH2 0x184 JUMPI DUP1 PUSH4 0x569560E8 EQ PUSH2 0x1A0 JUMPI PUSH2 0x117 JUMP JUMPDEST CALLDATASIZE PUSH2 0x117 JUMPI PUSH1 0x0 CALLVALUE GT PUSH2 0xC7 JUMPI PUSH1 0x40 MLOAD PUSH32 0x8C379A000000000000000000000000000000000000000000000000000000000 DUP2 MSTORE PUSH1 0x4 ADD PUSH2 0xBE SWAP1 PUSH2 0x1175 JUMP JUMPDEST PUSH1 0x40 MLOAD DUP1 SWAP2 SUB SWAP1 REVERT JUMPDEST CALLER PUSH20 0xFFFFFFFFFFFFFFFFFFFFFFFFFFFFFFFFFFFFFFFF AND PUSH32 0x1E57E3BB474320BE3D2C77138F75B7C3941292D647F5F9634E33A8E94E0E069B CALLVALUE PUSH1 0x40 MLOAD PUSH2 0x10D SWAP2 SWAP1 PUSH2 0x11AE JUMP JUMPDEST PUSH1 0x40 MLOAD DUP1 SWAP2 SUB SWAP1 LOG2 STOP JUMPDEST PUSH1 0x0 DUP1 REVERT JUMPDEST CALLVALUE DUP1 ISZERO PUSH2 0x128 JUMPI PUSH1 0x0 DUP1 REVERT JUMPDEST POP PUSH2 0x143 PUSH1 0x4 DUP1 CALLDATASIZE SUB DUP2 ADD SWAP1 PUSH2 0x13E SWAP2 SWAP1 PUSH2 0x123B JUMP JUMPDEST PUSH2 0x26B JUMP JUMPDEST PUSH1 0x40 MLOAD PUSH2 0x150 SWAP2 SWAP1 PUSH2 0x1283 JUMP JUMPDEST PUSH1 0x40 MLOAD DUP1 SWAP2 SUB SWAP1 RETURN JUMPDEST CALLVALUE DUP1 ISZERO PUSH2 0x165 JUMPI PUSH1 0x0 DUP1 REVERT JUMPDEST POP PUSH2 0x16E PUSH2 0x28B JUMP JUMPDEST PUSH1 0x40 MLOAD PUSH2 0x17B SWAP2 SWAP1 PUSH2 0x12FD JUMP JUMPDEST PUSH1 0x40 MLOAD DUP1 SWAP2 SUB SWAP1 RETURN JUMPDEST PUSH2 0x19E PUSH1 0x4 DUP1 CALLDATASIZE SUB DUP2 ADD SWAP1 PUSH2 0x199 SWAP2 SWAP1 PUSH2 0x137D JUMP JUMPDEST PUSH2 0x2B1 JUMP JUMPDEST STOP JUMPDEST CALLVALUE DUP1 ISZERO PUSH2 0x1AC JUMPI PUSH1 0x0 DUP1 REVERT JUMPDEST POP PUSH2 0x1B5 PUSH2 0x3D7 JUMP JUMPDEST PUSH1 0x40 MLOAD PUSH2 0x1C2 SWAP2 SWAP1 PUSH2 0x1412 JUMP JUMPDEST PUSH1 0x40 MLOAD DUP1 SWAP2 SUB SWAP1 RETURN JUMPDEST CALLVALUE DUP1 ISZERO PUSH2 0x1D7 JUMPI PUSH1 0x0 DUP1 REVERT JUMPDEST POP PUSH2 0x1F2 PUSH1 0x4 DUP1 CALLDATASIZE SUB DUP2 ADD SWAP1 PUSH2 0x1ED SWAP2 SWAP1 PUSH2 0x1459 JUMP JUMPDEST PUSH2 0x3FD JUMP JUMPDEST STOP JUMPDEST PUSH2 0x20E PUSH1 0x4 DUP1 CALLDATASIZE SUB DUP2 ADD SWAP1 PUSH2 0x209 SWAP2 SWAP1 PUSH2 0x14C0 JUMP JUMPDEST PUSH2 0x55B JUMP JUMPDEST PUSH1 0x40 MLOAD PUSH2 0x21B SWAP2 SWAP1 PUSH2 0x1283 JUMP JUMPDEST PUSH1 0x40 MLOAD DUP1 SWAP2 SUB SWAP1 RETURN JUMPDEST PUSH2 0x23E PUSH1 0x4 DUP1 CALLDATASIZE SUB DUP2 ADD SWAP1 PUSH2 0x239 SWAP2 SWAP1 PUSH2 0x1520 JUMP JUMPDEST PUSH2 0x7E3 JUMP JUMPDEST STOP JUMPDEST CALLVALUE DUP1 ISZERO PUSH2 0x24C JUMPI PUSH1 0x0 DUP1 REVERT JUMPDEST POP PUSH2 0x255 PUSH2 0xB3C JUMP JUMPDEST PUSH1 0x40 MLOAD PUSH2 0x262 SWAP2 SWAP1 PUSH2 0x156F JUMP JUMPDEST PUSH1 0x40 MLOAD DUP1 SWAP2 SUB SWAP1 RETURN JUMPDEST PUSH1 0x0 PUSH1 0x20 MSTORE DUP1 PUSH1 0x0 MSTORE PUSH1 0x40 PUSH1 0x0 KECCAK256 PUSH1 0x0 SWAP2 POP SLOAD SWAP1 PUSH2 0x100 EXP SWAP1 DIV PUSH1 0xFF AND DUP2 JUMP JUMPDEST PUSH1 0x2 PUSH1 0x0 SWAP1 SLOAD SWAP1 PUSH2 0x100 EXP SWAP1 DIV PUSH20 0xFFFFFFFFFFFFFFFFFFFFFFFFFFFFFFFFFFFFFFFF AND DUP2 JUMP JUMPDEST DUP2 PUSH1 0x0 DUP1 DUP3 PUSH20 0xFFFFFFFFFFFFFFFFFFFFFFFFFFFFFFFFFFFFFFFF AND PUSH20 0xFFFFFFFFFFFFFFFFFFFFFFFFFFFFFFFFFFFFFFFF AND DUP2 MSTORE PUSH1 0x20 ADD SWAP1 DUP2 MSTORE PUSH1 0x20 ADD PUSH1 0x0 KECCAK256 PUSH1 0x0 SWAP1 SLOAD SWAP1 PUSH2 0x100 EXP SWAP1 DIV PUSH1 0xFF AND PUSH2 0x33D JUMPI PUSH1 0x40 MLOAD PUSH32 0x8C379A000000000000000000000000000000000000000000000000000000000 DUP2 MSTORE PUSH1 0x4 ADD PUSH2 0x334 SWAP1 PUSH2 0x15D6 JUMP JUMPDEST PUSH1 0x40 MLOAD DUP1 SWAP2 SUB SWAP1 REVERT JUMPDEST PUSH1 0x0 DUP1 PUSH2 0x34A DUP8 DUP8 PUSH2 0xB62 JUMP JUMPDEST SWAP2 POP SWAP2 POP DUP4 PUSH20 0xFFFFFFFFFFFFFFFFFFFFFFFFFFFFFFFFFFFFFFFF AND PUSH4 0xEBE113FB CALLVALUE DUP5 DUP5 PUSH1 0x40 MLOAD DUP5 PUSH4 0xFFFFFFFF AND PUSH1 0xE0 SHL DUP2 MSTORE PUSH1 0x4 ADD PUSH2 0x38A SWAP3 SWAP2 SWAP1 PUSH2 0x186E JUMP JUMPDEST PUSH1 0x20 PUSH1 0x40 MLOAD DUP1 DUP4 SUB DUP2 DUP6 DUP9 GAS CALL ISZERO DUP1 ISZERO PUSH2 0x3A8 JUMPI RETURNDATASIZE PUSH1 0x0 DUP1 RETURNDATACOPY RETURNDATASIZE PUSH1 0x0 REVERT JUMPDEST POP POP POP POP POP PUSH1 0x40 MLOAD RETURNDATASIZE PUSH1 0x1F NOT PUSH1 0x1F DUP3 ADD AND DUP3 ADD DUP1 PUSH1 0x40 MSTORE POP DUP2 ADD SWAP1 PUSH2 0x3CD SWAP2 SWAP1 PUSH2 0x18CA JUMP JUMPDEST POP POP POP POP POP POP POP POP JUMP JUMPDEST PUSH1 0x1 PUSH1 0x0 SWAP1 SLOAD SWAP1 PUSH2 0x100 EXP SWAP1 DIV PUSH20 0xFFFFFFFFFFFFFFFFFFFFFFFFFFFFFFFFFFFFFFFF AND DUP2 JUMP JUMPDEST DUP2 PUSH1 0x0 DUP1 DUP3 PUSH20 0xFFFFFFFFFFFFFFFFFFFFFFFFFFFFFFFFFFFFFFFF AND PUSH20 0xFFFFFFFFFFFFFFFFFFFFFFFFFFFFFFFFFFFFFFFF AND DUP2 MSTORE PUSH1 0x20 ADD SWAP1 DUP2 MSTORE PUSH1 0x20 ADD PUSH1 0x0 KECCAK256 PUSH1 0x0 SWAP1 SLOAD SWAP1 PUSH2 0x100 EXP SWAP1 DIV PUSH1 0xFF AND PUSH2 0x489 JUMPI PUSH1 0x40 MLOAD PUSH32 0x8C379A000000000000000000000000000000000000000000000000000000000 DUP2 MSTORE PUSH1 0x4 ADD PUSH2 0x480 SWAP1 PUSH2 0x15D6 JUMP JUMPDEST PUSH1 0x40 MLOAD DUP1 SWAP2 SUB SWAP1 REVERT JUMPDEST PUSH20 0x132ADFE17B67F91573F3853DB9682D9E937E3C91 PUSH20 0xFFFFFFFFFFFFFFFFFFFFFFFFFFFFFFFFFFFFFFFF AND CALLER PUSH20 0xFFFFFFFFFFFFFFFFFFFFFFFFFFFFFFFFFFFFFFFF AND EQ PUSH2 0x4D5 JUMPI PUSH1 0x0 DUP1 REVERT JUMPDEST DUP5 PUSH20 0xFFFFFFFFFFFFFFFFFFFFFFFFFFFFFFFFFFFFFFFF AND PUSH4 0xA9059CBB DUP4 DUP7 PUSH1 0x40 MLOAD DUP4 PUSH4 0xFFFFFFFF AND PUSH1 0xE0 SHL DUP2 MSTORE PUSH1 0x4 ADD PUSH2 0x510 SWAP3 SWAP2 SWAP1 PUSH2 0x18F7 JUMP JUMPDEST PUSH1 0x20 PUSH1 0x40 MLOAD DUP1 DUP4 SUB DUP2 PUSH1 0x0 DUP8 GAS CALL ISZERO DUP1 ISZERO PUSH2 0x52F JUMPI RETURNDATASIZE PUSH1 0x0 DUP1 RETURNDATACOPY RETURNDATASIZE PUSH1 0x0 REVERT JUMPDEST POP POP POP POP PUSH1 0x40 MLOAD RETURNDATASIZE PUSH1 0x1F NOT PUSH1 0x1F DUP3 ADD AND DUP3 ADD DUP1 PUSH1 0x40 MSTORE POP DUP2 ADD SWAP1 PUSH2 0x553 SWAP2 SWAP1 PUSH2 0x18CA JUMP JUMPDEST POP POP POP POP POP POP JUMP JUMPDEST PUSH1 0x0 DUP2 PUSH1 0x0 DUP1 DUP3 PUSH20 0xFFFFFFFFFFFFFFFFFFFFFFFFFFFFFFFFFFFFFFFF AND PUSH20 0xFFFFFFFFFFFFFFFFFFFFFFFFFFFFFFFFFFFFFFFF AND DUP2 MSTORE PUSH1 0x20 ADD SWAP1 DUP2 MSTORE PUSH1 0x20 ADD PUSH1 0x0 KECCAK256 PUSH1 0x0 SWAP1 SLOAD SWAP1 PUSH2 0x100 EXP SWAP1 DIV PUSH1 0xFF AND PUSH2 0x5E9 JUMPI PUSH1 0x40 MLOAD PUSH32 0x8C379A000000000000000000000000000000000000000000000000000000000 DUP2 MSTORE PUSH1 0x4 ADD PUSH2 0x5E0 SWAP1 PUSH2 0x15D6 JUMP JUMPDEST PUSH1 0x40 MLOAD DUP1 SWAP2 SUB SWAP1 REVERT JUMPDEST PUSH1 0x0 DUP1 PUSH2 0x5F6 DUP8 DUP8 PUSH2 0xB62 JUMP JUMPDEST SWAP2 POP SWAP2 POP PUSH1 0x0 DUP1 PUSH1 0x0 PUSH1 0x1 PUSH1 0x0 SWAP1 SLOAD SWAP1 PUSH2 0x100 EXP SWAP1 DIV PUSH20 0xFFFFFFFFFFFFFFFFFFFFFFFFFFFFFFFFFFFFFFFF AND PUSH20 0xFFFFFFFFFFFFFFFFFFFFFFFFFFFFFFFFFFFFFFFF AND PUSH4 0xA9D2B1D5 DUP7 PUSH1 0x40 MLOAD DUP3 PUSH4 0xFFFFFFFF AND PUSH1 0xE0 SHL DUP2 MSTORE PUSH1 0x4 ADD PUSH2 0x65A SWAP2 SWAP1 PUSH2 0x1920 JUMP JUMPDEST PUSH1 0x60 PUSH1 0x40 MLOAD DUP1 DUP4 SUB DUP2 DUP7 GAS STATICCALL ISZERO DUP1 ISZERO PUSH2 0x677 JUMPI RETURNDATASIZE PUSH1 0x0 DUP1 RETURNDATACOPY RETURNDATASIZE PUSH1 0x0 REVERT JUMPDEST POP POP POP POP PUSH1 0x40 MLOAD RETURNDATASIZE PUSH1 0x1F NOT PUSH1 0x1F DUP3 ADD AND DUP3 ADD DUP1 PUSH1 0x40 MSTORE POP DUP2 ADD SWAP1 PUSH2 0x69B SWAP2 SWAP1 PUSH2 0x1967 JUMP JUMPDEST SWAP3 POP SWAP3 POP SWAP3 POP DUP3 ISZERO PUSH2 0x6F4 JUMPI PUSH2 0x6F3 DUP5 DUP4 PUSH1 0xFF AND DUP2 MLOAD DUP2 LT PUSH2 0x6C0 JUMPI PUSH2 0x6BF PUSH2 0x19BA JUMP JUMPDEST JUMPDEST PUSH1 0x20 MUL PUSH1 0x20 ADD ADD MLOAD PUSH1 0x40 ADD MLOAD DUP6 DUP4 PUSH1 0xFF AND DUP2 MLOAD DUP2 LT PUSH2 0x6E2 JUMPI PUSH2 0x6E1 PUSH2 0x19BA JUMP JUMPDEST JUMPDEST PUSH1 0x20 MUL PUSH1 0x20 ADD ADD MLOAD PUSH1 0x60 ADD MLOAD PUSH2 0x1022 JUMP JUMPDEST JUMPDEST PUSH1 0x0 PUSH1 0x1 PUSH1 0x0 SWAP1 SLOAD SWAP1 PUSH2 0x100 EXP SWAP1 DIV PUSH20 0xFFFFFFFFFFFFFFFFFFFFFFFFFFFFFFFFFFFFFFFF AND PUSH20 0xFFFFFFFFFFFFFFFFFFFFFFFFFFFFFFFFFFFFFFFF AND PUSH4 0xEBE113FB CALLVALUE DUP9 DUP9 PUSH1 0x40 MLOAD DUP5 PUSH4 0xFFFFFFFF AND PUSH1 0xE0 SHL DUP2 MSTORE PUSH1 0x4 ADD PUSH2 0x754 SWAP3 SWAP2 SWAP1 PUSH2 0x186E JUMP JUMPDEST PUSH1 0x20 PUSH1 0x40 MLOAD DUP1 DUP4 SUB DUP2 DUP6 DUP9 GAS CALL ISZERO DUP1 ISZERO PUSH2 0x772 JUMPI RETURNDATASIZE PUSH1 0x0 DUP1 RETURNDATACOPY RETURNDATASIZE PUSH1 0x0 REVERT JUMPDEST POP POP POP POP POP PUSH1 0x40 MLOAD RETURNDATASIZE PUSH1 0x1F NOT PUSH1 0x1F DUP3 ADD AND DUP3 ADD DUP1 PUSH1 0x40 MSTORE POP DUP2 ADD SWAP1 PUSH2 0x797 SWAP2 SWAP1 PUSH2 0x18CA JUMP JUMPDEST SWAP1 POP PUSH32 0x6CAF114A658F9DCF6E91511C03B0857224920530D592656698DF2C977A71ACFA DUP7 DUP7 PUSH1 0x40 MLOAD PUSH2 0x7CA SWAP3 SWAP2 SWAP1 PUSH2 0x186E JUMP JUMPDEST PUSH1 0x40 MLOAD DUP1 SWAP2 SUB SWAP1 LOG1 DUP1 SWAP8 POP POP POP POP POP POP POP POP SWAP4 SWAP3 POP POP POP JUMP JUMPDEST PUSH1 0x0 PUSH20 0xFFFFFFFFFFFFFFFFFFFFFFFFFFFFFFFFFFFFFFFF AND DUP3 PUSH20 0xFFFFFFFFFFFFFFFFFFFFFFFFFFFFFFFFFFFFFFFF AND EQ DUP1 ISZERO PUSH2 0x81F JUMPI POP PUSH1 0x0 CALLVALUE EQ JUMPDEST DUP1 PUSH2 0x863 JUMPI POP PUSH1 0x0 PUSH20 0xFFFFFFFFFFFFFFFFFFFFFFFFFFFFFFFFFFFFFFFF AND DUP3 PUSH20 0xFFFFFFFFFFFFFFFFFFFFFFFFFFFFFFFFFFFFFFFF AND EQ ISZERO DUP1 ISZERO PUSH2 0x862 JUMPI POP PUSH1 0x0 CALLVALUE GT JUMPDEST JUMPDEST DUP1 PUSH2 0x8A7 JUMPI POP PUSH1 0x0 PUSH20 0xFFFFFFFFFFFFFFFFFFFFFFFFFFFFFFFFFFFFFFFF AND DUP3 PUSH20 0xFFFFFFFFFFFFFFFFFFFFFFFFFFFFFFFFFFFFFFFF AND EQ ISZERO DUP1 ISZERO PUSH2 0x8A6 JUMPI POP PUSH1 0x0 DUP2 EQ JUMPDEST JUMPDEST ISZERO PUSH2 0x8E7 JUMPI PUSH1 0x40 MLOAD PUSH32 0xA8C278DD00000000000000000000000000000000000000000000000000000000 DUP2 MSTORE PUSH1 0x4 ADD PUSH2 0x8DE SWAP1 PUSH2 0x1A35 JUMP JUMPDEST PUSH1 0x40 MLOAD DUP1 SWAP2 SUB SWAP1 REVERT JUMPDEST PUSH1 0x0 DUP1 PUSH20 0xFFFFFFFFFFFFFFFFFFFFFFFFFFFFFFFFFFFFFFFF AND DUP4 PUSH20 0xFFFFFFFFFFFFFFFFFFFFFFFFFFFFFFFFFFFFFFFF AND SUB PUSH2 0xA21 JUMPI CALLVALUE SWAP1 POP PUSH1 0x3 PUSH1 0x0 SWAP1 SLOAD SWAP1 PUSH2 0x100 EXP SWAP1 DIV PUSH20 0xFFFFFFFFFFFFFFFFFFFFFFFFFFFFFFFFFFFFFFFF AND PUSH20 0xFFFFFFFFFFFFFFFFFFFFFFFFFFFFFFFFFFFFFFFF AND PUSH4 0xD0E30DB0 CALLVALUE PUSH1 0x40 MLOAD DUP3 PUSH4 0xFFFFFFFF AND PUSH1 0xE0 SHL DUP2 MSTORE PUSH1 0x4 ADD PUSH1 0x0 PUSH1 0x40 MLOAD DUP1 DUP4 SUB DUP2 DUP6 DUP9 DUP1 EXTCODESIZE ISZERO DUP1 ISZERO PUSH2 0x989 JUMPI PUSH1 0x0 DUP1 REVERT JUMPDEST POP GAS CALL ISZERO DUP1 ISZERO PUSH2 0x99D JUMPI RETURNDATASIZE PUSH1 0x0 DUP1 RETURNDATACOPY RETURNDATASIZE PUSH1 0x0 REVERT JUMPDEST POP POP POP POP POP PUSH1 0x1 PUSH1 0x4 PUSH1 0x0 PUSH1 0x3 PUSH1 0x0 SWAP1 SLOAD SWAP1 PUSH2 0x100 EXP SWAP1 DIV PUSH20 0xFFFFFFFFFFFFFFFFFFFFFFFFFFFFFFFFFFFFFFFF AND PUSH20 0xFFFFFFFFFFFFFFFFFFFFFFFFFFFFFFFFFFFFFFFF AND PUSH20 0xFFFFFFFFFFFFFFFFFFFFFFFFFFFFFFFFFFFFFFFF AND DUP2 MSTORE PUSH1 0x20 ADD SWAP1 DUP2 MSTORE PUSH1 0x20 ADD PUSH1 0x0 KECCAK256 PUSH1 0x0 PUSH2 0x100 EXP DUP2 SLOAD DUP2 PUSH1 0xFF MUL NOT AND SWAP1 DUP4 ISZERO ISZERO MUL OR SWAP1 SSTORE POP PUSH2 0xAFE JUMP JUMPDEST DUP2 SWAP1 POP DUP3 PUSH20 0xFFFFFFFFFFFFFFFFFFFFFFFFFFFFFFFFFFFFFFFF AND PUSH4 0x23B872DD CALLER ADDRESS DUP6 PUSH1 0x40 MLOAD DUP5 PUSH4 0xFFFFFFFF AND PUSH1 0xE0 SHL DUP2 MSTORE PUSH1 0x4 ADD PUSH2 0xA61 SWAP4 SWAP3 SWAP2 SWAP1 PUSH2 0x1A55 JUMP JUMPDEST PUSH1 0x20 PUSH1 0x40 MLOAD DUP1 DUP4 SUB DUP2 PUSH1 0x0 DUP8 GAS CALL ISZERO DUP1 ISZERO PUSH2 0xA80 JUMPI RETURNDATASIZE PUSH1 0x0 DUP1 RETURNDATACOPY RETURNDATASIZE PUSH1 0x0 REVERT JUMPDEST POP POP POP POP PUSH1 0x40 MLOAD RETURNDATASIZE PUSH1 0x1F NOT PUSH1 0x1F DUP3 ADD AND DUP3 ADD DUP1 PUSH1 0x40 MSTORE POP DUP2 ADD SWAP1 PUSH2 0xAA4 SWAP2 SWAP1 PUSH2 0x18CA JUMP JUMPDEST POP PUSH1 0x1 PUSH1 0x4 PUSH1 0x0 DUP6 PUSH20 0xFFFFFFFFFFFFFFFFFFFFFFFFFFFFFFFFFFFFFFFF AND PUSH20 0xFFFFFFFFFFFFFFFFFFFFFFFFFFFFFFFFFFFFFFFF AND DUP2 MSTORE PUSH1 0x20 ADD SWAP1 DUP2 MSTORE PUSH1 0x20 ADD PUSH1 0x0 KECCAK256 PUSH1 0x0 PUSH2 0x100 EXP DUP2 SLOAD DUP2 PUSH1 0xFF MUL NOT AND SWAP1 DUP4 ISZERO ISZERO MUL OR SWAP1 SSTORE POP JUMPDEST PUSH32 0x939F6F4877FAF071412E527BC4C6D0BD65AD077E52B57334F7765265647A7F1 DUP4 DUP3 PUSH1 0x40 MLOAD PUSH2 0xB2F SWAP3 SWAP2 SWAP1 PUSH2 0x18F7 JUMP JUMPDEST PUSH1 0x40 MLOAD DUP1 SWAP2 SUB SWAP1 LOG1 POP POP POP JUMP JUMPDEST PUSH1 0x3 PUSH1 0x0 SWAP1 SLOAD SWAP1 PUSH2 0x100 EXP SWAP1 DIV PUSH20 0xFFFFFFFFFFFFFFFFFFFFFFFFFFFFFFFFFFFFFFFF AND DUP2 JUMP JUMPDEST PUSH1 0x0 PUSH1 0x60 PUSH1 0x0 DUP5 DUP5 PUSH1 0x0 DUP2 DUP2 LT PUSH2 0xB7C JUMPI PUSH2 0xB7B PUSH2 0x19BA JUMP JUMPDEST JUMPDEST SWAP1 POP PUSH1 0x20 MUL DUP2 ADD SWAP1 PUSH2 0xB8E SWAP2 SWAP1 PUSH2 0x1A9B JUMP JUMPDEST SWAP1 PUSH2 0xB99 SWAP2 SWAP1 PUSH2 0x1B16 JUMP JUMPDEST SWAP1 POP PUSH1 0x0 DUP6 DUP6 PUSH1 0x1 DUP2 DUP2 LT PUSH2 0xBB1 JUMPI PUSH2 0xBB0 PUSH2 0x19BA JUMP JUMPDEST JUMPDEST SWAP1 POP PUSH1 0x20 MUL DUP2 ADD SWAP1 PUSH2 0xBC3 SWAP2 SWAP1 PUSH2 0x1A9B JUMP JUMPDEST DUP2 ADD SWAP1 PUSH2 0xBD0 SWAP2 SWAP1 PUSH2 0x1CB3 JUMP JUMPDEST SWAP1 POP PUSH1 0xA DUP2 MLOAD GT ISZERO PUSH2 0xC1A JUMPI DUP1 MLOAD PUSH1 0x40 MLOAD PUSH32 0x8BC593CD00000000000000000000000000000000000000000000000000000000 DUP2 MSTORE PUSH1 0x4 ADD PUSH2 0xC11 SWAP2 SWAP1 PUSH2 0x11AE JUMP JUMPDEST PUSH1 0x40 MLOAD DUP1 SWAP2 SUB SWAP1 REVERT JUMPDEST PUSH1 0x0 DUP2 MLOAD PUSH8 0xFFFFFFFFFFFFFFFF DUP2 GT ISZERO PUSH2 0xC37 JUMPI PUSH2 0xC36 PUSH2 0x1B75 JUMP JUMPDEST JUMPDEST PUSH1 0x40 MLOAD SWAP1 DUP1 DUP3 MSTORE DUP1 PUSH1 0x20 MUL PUSH1 0x20 ADD DUP3 ADD PUSH1 0x40 MSTORE DUP1 ISZERO PUSH2 0xC70 JUMPI DUP2 PUSH1 0x20 ADD JUMPDEST PUSH2 0xC5D PUSH2 0x10C7 JUMP JUMPDEST DUP2 MSTORE PUSH1 0x20 ADD SWAP1 PUSH1 0x1 SWAP1 SUB SWAP1 DUP2 PUSH2 0xC55 JUMPI SWAP1 POP JUMPDEST POP SWAP1 POP PUSH1 0x0 DUP1 JUMPDEST DUP4 MLOAD DUP2 LT ISZERO PUSH2 0x1010 JUMPI PUSH2 0xC88 PUSH2 0x10C7 JUMP JUMPDEST PUSH1 0x0 DUP6 DUP4 DUP2 MLOAD DUP2 LT PUSH2 0xC9D JUMPI PUSH2 0xC9C PUSH2 0x19BA JUMP JUMPDEST JUMPDEST PUSH1 0x20 MUL PUSH1 0x20 ADD ADD MLOAD SUB PUSH2 0xD48 JUMPI PUSH1 0x0 DUP2 PUSH1 0x0 ADD SWAP1 PUSH1 0xFF AND SWAP1 DUP2 PUSH1 0xFF AND DUP2 MSTORE POP POP DUP10 DUP10 PUSH1 0x2 DUP2 DUP2 LT PUSH2 0xCD1 JUMPI PUSH2 0xCD0 PUSH2 0x19BA JUMP JUMPDEST JUMPDEST SWAP1 POP PUSH1 0x20 MUL DUP2 ADD SWAP1 PUSH2 0xCE3 SWAP2 SWAP1 PUSH2 0x1A9B JUMP JUMPDEST DUP5 SWAP1 PUSH1 0x20 DUP7 PUSH2 0xCF2 SWAP2 SWAP1 PUSH2 0x1D2B JUMP JUMPDEST SWAP3 PUSH2 0xCFF SWAP4 SWAP3 SWAP2 SWAP1 PUSH2 0x1D69 JUMP JUMPDEST DUP2 ADD SWAP1 PUSH2 0xD0C SWAP2 SWAP1 PUSH2 0x1DE2 JUMP JUMPDEST DUP2 PUSH1 0x40 ADD SWAP1 PUSH20 0xFFFFFFFFFFFFFFFFFFFFFFFFFFFFFFFFFFFFFFFF AND SWAP1 DUP2 PUSH20 0xFFFFFFFFFFFFFFFFFFFFFFFFFFFFFFFFFFFFFFFF AND DUP2 MSTORE POP POP PUSH2 0xFD4 JUMP JUMPDEST PUSH1 0x1 DUP6 DUP4 DUP2 MLOAD DUP2 LT PUSH2 0xD5D JUMPI PUSH2 0xD5C PUSH2 0x19BA JUMP JUMPDEST JUMPDEST PUSH1 0x20 MUL PUSH1 0x20 ADD ADD MLOAD SUB PUSH2 0xDDA JUMPI PUSH1 0x1 DUP2 PUSH1 0x0 ADD SWAP1 PUSH1 0xFF AND SWAP1 DUP2 PUSH1 0xFF AND DUP2 MSTORE POP POP DUP10 DUP10 PUSH1 0x2 DUP2 DUP2 LT PUSH2 0xD91 JUMPI PUSH2 0xD90 PUSH2 0x19BA JUMP JUMPDEST JUMPDEST SWAP1 POP PUSH1 0x20 MUL DUP2 ADD SWAP1 PUSH2 0xDA3 SWAP2 SWAP1 PUSH2 0x1A9B JUMP JUMPDEST DUP5 SWAP1 PUSH1 0x20 DUP7 PUSH2 0xDB2 SWAP2 SWAP1 PUSH2 0x1D2B JUMP JUMPDEST SWAP3 PUSH2 0xDBF SWAP4 SWAP3 SWAP2 SWAP1 PUSH2 0x1D69 JUMP JUMPDEST DUP2 ADD SWAP1 PUSH2 0xDCC SWAP2 SWAP1 PUSH2 0x1E0F JUMP JUMPDEST DUP2 PUSH1 0x60 ADD DUP2 DUP2 MSTORE POP POP PUSH2 0xFD3 JUMP JUMPDEST PUSH1 0x2 DUP6 DUP4 DUP2 MLOAD DUP2 LT PUSH2 0xDEF JUMPI PUSH2 0xDEE PUSH2 0x19BA JUMP JUMPDEST JUMPDEST PUSH1 0x20 MUL PUSH1 0x20 ADD ADD MLOAD SUB PUSH2 0xE6C JUMPI PUSH1 0x2 DUP2 PUSH1 0x0 ADD SWAP1 PUSH1 0xFF AND SWAP1 DUP2 PUSH1 0xFF AND DUP2 MSTORE POP POP DUP10 DUP10 PUSH1 0x2 DUP2 DUP2 LT PUSH2 0xE23 JUMPI PUSH2 0xE22 PUSH2 0x19BA JUMP JUMPDEST JUMPDEST SWAP1 POP PUSH1 0x20 MUL DUP2 ADD SWAP1 PUSH2 0xE35 SWAP2 SWAP1 PUSH2 0x1A9B JUMP JUMPDEST DUP5 SWAP1 PUSH1 0x20 DUP7 PUSH2 0xE44 SWAP2 SWAP1 PUSH2 0x1D2B JUMP JUMPDEST SWAP3 PUSH2 0xE51 SWAP4 SWAP3 SWAP2 SWAP1 PUSH2 0x1D69 JUMP JUMPDEST DUP2 ADD SWAP1 PUSH2 0xE5E SWAP2 SWAP1 PUSH2 0x1E68 JUMP JUMPDEST DUP2 PUSH1 0x80 ADD DUP2 DUP2 MSTORE POP POP PUSH2 0xFD2 JUMP JUMPDEST PUSH1 0x3 DUP6 DUP4 DUP2 MLOAD DUP2 LT PUSH2 0xE81 JUMPI PUSH2 0xE80 PUSH2 0x19BA JUMP JUMPDEST JUMPDEST PUSH1 0x20 MUL PUSH1 0x20 ADD ADD MLOAD SUB PUSH2 0xF04 JUMPI PUSH1 0x3 DUP2 PUSH1 0x0 ADD SWAP1 PUSH1 0xFF AND SWAP1 DUP2 PUSH1 0xFF AND DUP2 MSTORE POP POP DUP10 DUP10 PUSH1 0x2 DUP2 DUP2 LT PUSH2 0xEB5 JUMPI PUSH2 0xEB4 PUSH2 0x19BA JUMP JUMPDEST JUMPDEST SWAP1 POP PUSH1 0x20 MUL DUP2 ADD SWAP1 PUSH2 0xEC7 SWAP2 SWAP1 PUSH2 0x1A9B JUMP JUMPDEST DUP5 SWAP1 PUSH1 0x20 DUP7 PUSH2 0xED6 SWAP2 SWAP1 PUSH2 0x1D2B JUMP JUMPDEST SWAP3 PUSH2 0xEE3 SWAP4 SWAP3 SWAP2 SWAP1 PUSH2 0x1D69 JUMP JUMPDEST DUP2 ADD SWAP1 PUSH2 0xEF0 SWAP2 SWAP1 PUSH2 0x1EAA JUMP JUMPDEST DUP2 PUSH1 0xA0 ADD SWAP1 ISZERO ISZERO SWAP1 DUP2 ISZERO ISZERO DUP2 MSTORE POP POP PUSH2 0xFD1 JUMP JUMPDEST PUSH1 0x4 DUP6 DUP4 DUP2 MLOAD DUP2 LT PUSH2 0xF19 JUMPI PUSH2 0xF18 PUSH2 0x19BA JUMP JUMPDEST JUMPDEST PUSH1 0x20 MUL PUSH1 0x20 ADD ADD MLOAD SUB PUSH2 0xF95 JUMPI PUSH1 0x4 DUP2 PUSH1 0x0 ADD SWAP1 PUSH1 0xFF AND SWAP1 DUP2 PUSH1 0xFF AND DUP2 MSTORE POP POP DUP10 DUP10 PUSH1 0x2 DUP2 DUP2 LT PUSH2 0xF4D JUMPI PUSH2 0xF4C PUSH2 0x19BA JUMP JUMPDEST JUMPDEST SWAP1 POP PUSH1 0x20 MUL DUP2 ADD SWAP1 PUSH2 0xF5F SWAP2 SWAP1 PUSH2 0x1A9B JUMP JUMPDEST DUP5 SWAP1 PUSH1 0x20 DUP7 PUSH2 0xF6E SWAP2 SWAP1 PUSH2 0x1D2B JUMP JUMPDEST SWAP3 PUSH2 0xF7B SWAP4 SWAP3 SWAP2 SWAP1 PUSH2 0x1D69 JUMP JUMPDEST DUP2 ADD SWAP1 PUSH2 0xF88 SWAP2 SWAP1 PUSH2 0x1F8C JUMP JUMPDEST DUP2 PUSH1 0x20 ADD DUP2 SWAP1 MSTORE POP PUSH2 0xFD0 JUMP JUMPDEST PUSH1 0x40 MLOAD PUSH32 0xA8C278DD00000000000000000000000000000000000000000000000000000000 DUP2 MSTORE PUSH1 0x4 ADD PUSH2 0xFC7 SWAP1 PUSH2 0x2021 JUMP JUMPDEST PUSH1 0x40 MLOAD DUP1 SWAP2 SUB SWAP1 REVERT JUMPDEST JUMPDEST JUMPDEST JUMPDEST JUMPDEST DUP1 DUP5 DUP4 DUP2 MLOAD DUP2 LT PUSH2 0xFE8 JUMPI PUSH2 0xFE7 PUSH2 0x19BA JUMP JUMPDEST JUMPDEST PUSH1 0x20 MUL PUSH1 0x20 ADD ADD DUP2 SWAP1 MSTORE POP PUSH1 0x20 DUP4 PUSH2 0x1000 SWAP2 SWAP1 PUSH2 0x1D2B JUMP JUMPDEST SWAP3 POP POP DUP1 DUP1 PUSH1 0x1 ADD SWAP2 POP POP PUSH2 0xC77 JUMP JUMPDEST POP DUP4 DUP3 SWAP6 POP SWAP6 POP POP POP POP POP SWAP3 POP SWAP3 SWAP1 POP JUMP JUMPDEST DUP2 PUSH20 0xFFFFFFFFFFFFFFFFFFFFFFFFFFFFFFFFFFFFFFFF AND PUSH4 0x95EA7B3 PUSH1 0x1 PUSH1 0x0 SWAP1 SLOAD SWAP1 PUSH2 0x100 EXP SWAP1 DIV PUSH20 0xFFFFFFFFFFFFFFFFFFFFFFFFFFFFFFFFFFFFFFFF AND DUP4 PUSH1 0x40 MLOAD DUP4 PUSH4 0xFFFFFFFF AND PUSH1 0xE0 SHL DUP2 MSTORE PUSH1 0x4 ADD PUSH2 0x107F SWAP3 SWAP2 SWAP1 PUSH2 0x18F7 JUMP JUMPDEST PUSH1 0x20 PUSH1 0x40 MLOAD DUP1 DUP4 SUB DUP2 PUSH1 0x0 DUP8 GAS CALL ISZERO DUP1 ISZERO PUSH2 0x109E JUMPI RETURNDATASIZE PUSH1 0x0 DUP1 RETURNDATACOPY RETURNDATASIZE PUSH1 0x0 REVERT JUMPDEST POP POP POP POP PUSH1 0x40 MLOAD RETURNDATASIZE PUSH1 0x1F NOT PUSH1 0x1F DUP3 ADD AND DUP3 ADD DUP1 PUSH1 0x40 MSTORE POP DUP2 ADD SWAP1 PUSH2 0x10C2 SWAP2 SWAP1 PUSH2 0x18CA JUMP JUMPDEST POP POP POP JUMP JUMPDEST PUSH1 0x40 MLOAD DUP1 PUSH1 0xC0 ADD PUSH1 0x40 MSTORE DUP1 PUSH1 0x0 PUSH1 0xFF AND DUP2 MSTORE PUSH1 0x20 ADD PUSH1 0x60 DUP2 MSTORE PUSH1 0x20 ADD PUSH1 0x0 PUSH20 0xFFFFFFFFFFFFFFFFFFFFFFFFFFFFFFFFFFFFFFFF AND DUP2 MSTORE PUSH1 0x20 ADD PUSH1 0x0 DUP2 MSTORE PUSH1 0x20 ADD PUSH1 0x0 DUP2 MSTORE PUSH1 0x20 ADD PUSH1 0x0 ISZERO ISZERO DUP2 MSTORE POP SWAP1 JUMP JUMPDEST PUSH1 0x0 DUP3 DUP3 MSTORE PUSH1 0x20 DUP3 ADD SWAP1 POP SWAP3 SWAP2 POP POP JUMP JUMPDEST PUSH32 0x53656E64206D6F72652045746865720000000000000000000000000000000000 PUSH1 0x0 DUP3 ADD MSTORE POP JUMP JUMPDEST PUSH1 0x0 PUSH2 0x115F PUSH1 0xF DUP4 PUSH2 0x1118 JUMP JUMPDEST SWAP2 POP PUSH2 0x116A DUP3 PUSH2 0x1129 JUMP JUMPDEST PUSH1 0x20 DUP3 ADD SWAP1 POP SWAP2 SWAP1 POP JUMP JUMPDEST PUSH1 0x0 PUSH1 0x20 DUP3 ADD SWAP1 POP DUP2 DUP2 SUB PUSH1 0x0 DUP4 ADD MSTORE PUSH2 0x118E DUP2 PUSH2 0x1152 JUMP JUMPDEST SWAP1 POP SWAP2 SWAP1 POP JUMP JUMPDEST PUSH1 0x0 DUP2 SWAP1 POP SWAP2 SWAP1 POP JUMP JUMPDEST PUSH2 0x11A8 DUP2 PUSH2 0x1195 JUMP JUMPDEST DUP3 MSTORE POP POP JUMP JUMPDEST PUSH1 0x0 PUSH1 0x20 DUP3 ADD SWAP1 POP PUSH2 0x11C3 PUSH1 0x0 DUP4 ADD DUP5 PUSH2 0x119F JUMP JUMPDEST SWAP3 SWAP2 POP POP JUMP JUMPDEST PUSH1 0x0 PUSH1 0x40 MLOAD SWAP1 POP SWAP1 JUMP JUMPDEST PUSH1 0x0 DUP1 REVERT JUMPDEST PUSH1 0x0 DUP1 REVERT JUMPDEST PUSH1 0x0 PUSH20 0xFFFFFFFFFFFFFFFFFFFFFFFFFFFFFFFFFFFFFFFF DUP3 AND SWAP1 POP SWAP2 SWAP1 POP JUMP JUMPDEST PUSH1 0x0 PUSH2 0x1208 DUP3 PUSH2 0x11DD JUMP JUMPDEST SWAP1 POP SWAP2 SWAP1 POP JUMP JUMPDEST PUSH2 0x1218 DUP2 PUSH2 0x11FD JUMP JUMPDEST DUP2 EQ PUSH2 0x1223 JUMPI PUSH1 0x0 DUP1 REVERT JUMPDEST POP JUMP JUMPDEST PUSH1 0x0 DUP2 CALLDATALOAD SWAP1 POP PUSH2 0x1235 DUP2 PUSH2 0x120F JUMP JUMPDEST SWAP3 SWAP2 POP POP JUMP JUMPDEST PUSH1 0x0 PUSH1 0x20 DUP3 DUP5 SUB SLT ISZERO PUSH2 0x1251 JUMPI PUSH2 0x1250 PUSH2 0x11D3 JUMP JUMPDEST JUMPDEST PUSH1 0x0 PUSH2 0x125F DUP5 DUP3 DUP6 ADD PUSH2 0x1226 JUMP JUMPDEST SWAP2 POP POP SWAP3 SWAP2 POP POP JUMP JUMPDEST PUSH1 0x0 DUP2 ISZERO ISZERO SWAP1 POP SWAP2 SWAP1 POP JUMP JUMPDEST PUSH2 0x127D DUP2 PUSH2 0x1268 JUMP JUMPDEST DUP3 MSTORE POP POP JUMP JUMPDEST PUSH1 0x0 PUSH1 0x20 DUP3 ADD SWAP1 POP PUSH2 0x1298 PUSH1 0x0 DUP4 ADD DUP5 PUSH2 0x1274 JUMP JUMPDEST SWAP3 SWAP2 POP POP JUMP JUMPDEST PUSH1 0x0 DUP2 SWAP1 POP SWAP2 SWAP1 POP JUMP JUMPDEST PUSH1 0x0 PUSH2 0x12C3 PUSH2 0x12BE PUSH2 0x12B9 DUP5 PUSH2 0x11DD JUMP JUMPDEST PUSH2 0x129E JUMP JUMPDEST PUSH2 0x11DD JUMP JUMPDEST SWAP1 POP SWAP2 SWAP1 POP JUMP JUMPDEST PUSH1 0x0 PUSH2 0x12D5 DUP3 PUSH2 0x12A8 JUMP JUMPDEST SWAP1 POP SWAP2 SWAP1 POP JUMP JUMPDEST PUSH1 0x0 PUSH2 0x12E7 DUP3 PUSH2 0x12CA JUMP JUMPDEST SWAP1 POP SWAP2 SWAP1 POP JUMP JUMPDEST PUSH2 0x12F7 DUP2 PUSH2 0x12DC JUMP JUMPDEST DUP3 MSTORE POP POP JUMP JUMPDEST PUSH1 0x0 PUSH1 0x20 DUP3 ADD SWAP1 POP PUSH2 0x1312 PUSH1 0x0 DUP4 ADD DUP5 PUSH2 0x12EE JUMP JUMPDEST SWAP3 SWAP2 POP POP JUMP JUMPDEST PUSH1 0x0 DUP1 REVERT JUMPDEST PUSH1 0x0 DUP1 REVERT JUMPDEST PUSH1 0x0 DUP1 REVERT JUMPDEST PUSH1 0x0 DUP1 DUP4 PUSH1 0x1F DUP5 ADD SLT PUSH2 0x133D JUMPI PUSH2 0x133C PUSH2 0x1318 JUMP JUMPDEST JUMPDEST DUP3 CALLDATALOAD SWAP1 POP PUSH8 0xFFFFFFFFFFFFFFFF DUP2 GT ISZERO PUSH2 0x135A JUMPI PUSH2 0x1359 PUSH2 0x131D JUMP JUMPDEST JUMPDEST PUSH1 0x20 DUP4 ADD SWAP2 POP DUP4 PUSH1 0x20 DUP3 MUL DUP4 ADD GT ISZERO PUSH2 0x1376 JUMPI PUSH2 0x1375 PUSH2 0x1322 JUMP JUMPDEST JUMPDEST SWAP3 POP SWAP3 SWAP1 POP JUMP JUMPDEST PUSH1 0x0 DUP1 PUSH1 0x0 DUP1 PUSH1 0x60 DUP6 DUP8 SUB SLT ISZERO PUSH2 0x1397 JUMPI PUSH2 0x1396 PUSH2 0x11D3 JUMP JUMPDEST JUMPDEST PUSH1 0x0 DUP6 ADD CALLDATALOAD PUSH8 0xFFFFFFFFFFFFFFFF DUP2 GT ISZERO PUSH2 0x13B5 JUMPI PUSH2 0x13B4 PUSH2 0x11D8 JUMP JUMPDEST JUMPDEST PUSH2 0x13C1 DUP8 DUP3 DUP9 ADD PUSH2 0x1327 JUMP JUMPDEST SWAP5 POP SWAP5 POP POP PUSH1 0x20 PUSH2 0x13D4 DUP8 DUP3 DUP9 ADD PUSH2 0x1226 JUMP JUMPDEST SWAP3 POP POP PUSH1 0x40 PUSH2 0x13E5 DUP8 DUP3 DUP9 ADD PUSH2 0x1226 JUMP JUMPDEST SWAP2 POP POP SWAP3 SWAP6 SWAP2 SWAP5 POP SWAP3 POP JUMP JUMPDEST PUSH1 0x0 PUSH2 0x13FC DUP3 PUSH2 0x12CA JUMP JUMPDEST SWAP1 POP SWAP2 SWAP1 POP JUMP JUMPDEST PUSH2 0x140C DUP2 PUSH2 0x13F1 JUMP JUMPDEST DUP3 MSTORE POP POP JUMP JUMPDEST PUSH1 0x0 PUSH1 0x20 DUP3 ADD SWAP1 POP PUSH2 0x1427 PUSH1 0x0 DUP4 ADD DUP5 PUSH2 0x1403 JUMP JUMPDEST SWAP3 SWAP2 POP POP JUMP JUMPDEST PUSH2 0x1436 DUP2 PUSH2 0x1195 JUMP JUMPDEST DUP2 EQ PUSH2 0x1441 JUMPI PUSH1 0x0 DUP1 REVERT JUMPDEST POP JUMP JUMPDEST PUSH1 0x0 DUP2 CALLDATALOAD SWAP1 POP PUSH2 0x1453 DUP2 PUSH2 0x142D JUMP JUMPDEST SWAP3 SWAP2 POP POP JUMP JUMPDEST PUSH1 0x0 DUP1 PUSH1 0x0 DUP1 PUSH1 0x80 DUP6 DUP8 SUB SLT ISZERO PUSH2 0x1473 JUMPI PUSH2 0x1472 PUSH2 0x11D3 JUMP JUMPDEST JUMPDEST PUSH1 0x0 PUSH2 0x1481 DUP8 DUP3 DUP9 ADD PUSH2 0x1226 JUMP JUMPDEST SWAP5 POP POP PUSH1 0x20 PUSH2 0x1492 DUP8 DUP3 DUP9 ADD PUSH2 0x1444 JUMP JUMPDEST SWAP4 POP POP PUSH1 0x40 PUSH2 0x14A3 DUP8 DUP3 DUP9 ADD PUSH2 0x1226 JUMP JUMPDEST SWAP3 POP POP PUSH1 0x60 PUSH2 0x14B4 DUP8 DUP3 DUP9 ADD PUSH2 0x1226 JUMP JUMPDEST SWAP2 POP POP SWAP3 SWAP6 SWAP2 SWAP5 POP SWAP3 POP JUMP JUMPDEST PUSH1 0x0 DUP1 PUSH1 0x0 PUSH1 0x40 DUP5 DUP7 SUB SLT ISZERO PUSH2 0x14D9 JUMPI PUSH2 0x14D8 PUSH2 0x11D3 JUMP JUMPDEST JUMPDEST PUSH1 0x0 DUP5 ADD CALLDATALOAD PUSH8 0xFFFFFFFFFFFFFFFF DUP2 GT ISZERO PUSH2 0x14F7 JUMPI PUSH2 0x14F6 PUSH2 0x11D8 JUMP JUMPDEST JUMPDEST PUSH2 0x1503 DUP7 DUP3 DUP8 ADD PUSH2 0x1327 JUMP JUMPDEST SWAP4 POP SWAP4 POP POP PUSH1 0x20 PUSH2 0x1516 DUP7 DUP3 DUP8 ADD PUSH2 0x1226 JUMP JUMPDEST SWAP2 POP POP SWAP3 POP SWAP3 POP SWAP3 JUMP JUMPDEST PUSH1 0x0 DUP1 PUSH1 0x40 DUP4 DUP6 SUB SLT ISZERO PUSH2 0x1537 JUMPI PUSH2 0x1536 PUSH2 0x11D3 JUMP JUMPDEST JUMPDEST PUSH1 0x0 PUSH2 0x1545 DUP6 DUP3 DUP7 ADD PUSH2 0x1226 JUMP JUMPDEST SWAP3 POP POP PUSH1 0x20 PUSH2 0x1556 DUP6 DUP3 DUP7 ADD PUSH2 0x1444 JUMP JUMPDEST SWAP2 POP POP SWAP3 POP SWAP3 SWAP1 POP JUMP JUMPDEST PUSH2 0x1569 DUP2 PUSH2 0x11FD JUMP JUMPDEST DUP3 MSTORE POP POP JUMP JUMPDEST PUSH1 0x0 PUSH1 0x20 DUP3 ADD SWAP1 POP PUSH2 0x1584 PUSH1 0x0 DUP4 ADD DUP5 PUSH2 0x1560 JUMP JUMPDEST SWAP3 SWAP2 POP POP JUMP JUMPDEST PUSH32 0x61636365737320636F6E74726F6C3A206F6E6C794F776E657200000000000000 PUSH1 0x0 DUP3 ADD MSTORE POP JUMP JUMPDEST PUSH1 0x0 PUSH2 0x15C0 PUSH1 0x19 DUP4 PUSH2 0x1118 JUMP JUMPDEST SWAP2 POP PUSH2 0x15CB DUP3 PUSH2 0x158A JUMP JUMPDEST PUSH1 0x20 DUP3 ADD SWAP1 POP SWAP2 SWAP1 POP JUMP JUMPDEST PUSH1 0x0 PUSH1 0x20 DUP3 ADD SWAP1 POP DUP2 DUP2 SUB PUSH1 0x0 DUP4 ADD MSTORE PUSH2 0x15EF DUP2 PUSH2 0x15B3 JUMP JUMPDEST SWAP1 POP SWAP2 SWAP1 POP JUMP JUMPDEST PUSH1 0x0 PUSH32 0xFFFFFFFF00000000000000000000000000000000000000000000000000000000 DUP3 AND SWAP1 POP SWAP2 SWAP1 POP JUMP JUMPDEST PUSH2 0x162B DUP2 PUSH2 0x15F6 JUMP JUMPDEST DUP3 MSTORE POP POP JUMP JUMPDEST PUSH1 0x0 DUP2 MLOAD SWAP1 POP SWAP2 SWAP1 POP JUMP JUMPDEST PUSH1 0x0 DUP3 DUP3 MSTORE PUSH1 0x20 DUP3 ADD SWAP1 POP SWAP3 SWAP2 POP POP JUMP JUMPDEST PUSH1 0x0 DUP2 SWAP1 POP PUSH1 0x20 DUP3 ADD SWAP1 POP SWAP2 SWAP1 POP JUMP JUMPDEST PUSH1 0x0 PUSH1 0xFF DUP3 AND SWAP1 POP SWAP2 SWAP1 POP JUMP JUMPDEST PUSH2 0x1673 DUP2 PUSH2 0x165D JUMP JUMPDEST DUP3 MSTORE POP POP JUMP JUMPDEST PUSH1 0x0 DUP2 MLOAD SWAP1 POP SWAP2 SWAP1 POP JUMP JUMPDEST PUSH1 0x0 DUP3 DUP3 MSTORE PUSH1 0x20 DUP3 ADD SWAP1 POP SWAP3 SWAP2 POP POP JUMP JUMPDEST PUSH1 0x0 JUMPDEST DUP4 DUP2 LT ISZERO PUSH2 0x16B3 JUMPI DUP1 DUP3 ADD MLOAD DUP2 DUP5 ADD MSTORE PUSH1 0x20 DUP2 ADD SWAP1 POP PUSH2 0x1698 JUMP JUMPDEST PUSH1 0x0 DUP5 DUP5 ADD MSTORE POP POP POP POP JUMP JUMPDEST PUSH1 0x0 PUSH1 0x1F NOT PUSH1 0x1F DUP4 ADD AND SWAP1 POP SWAP2 SWAP1 POP JUMP JUMPDEST PUSH1 0x0 PUSH2 0x16DB DUP3 PUSH2 0x1679 JUMP JUMPDEST PUSH2 0x16E5 DUP2 DUP6 PUSH2 0x1684 JUMP JUMPDEST SWAP4 POP PUSH2 0x16F5 DUP2 DUP6 PUSH1 0x20 DUP7 ADD PUSH2 0x1695 JUMP JUMPDEST PUSH2 0x16FE DUP2 PUSH2 0x16BF JUMP JUMPDEST DUP5 ADD SWAP2 POP POP SWAP3 SWAP2 POP POP JUMP JUMPDEST PUSH2 0x1712 DUP2 PUSH2 0x11FD JUMP JUMPDEST DUP3 MSTORE POP POP JUMP JUMPDEST PUSH2 0x1721 DUP2 PUSH2 0x1195 JUMP JUMPDEST DUP3 MSTORE POP POP JUMP JUMPDEST PUSH1 0x0 DUP2 SWAP1 POP SWAP2 SWAP1 POP JUMP JUMPDEST PUSH2 0x173A DUP2 PUSH2 0x1727 JUMP JUMPDEST DUP3 MSTORE POP POP JUMP JUMPDEST PUSH2 0x1749 DUP2 PUSH2 0x1268 JUMP JUMPDEST DUP3 MSTORE POP POP JUMP JUMPDEST PUSH1 0x0 PUSH1 0xC0 DUP4 ADD PUSH1 0x0 DUP4 ADD MLOAD PUSH2 0x1767 PUSH1 0x0 DUP7 ADD DUP3 PUSH2 0x166A JUMP JUMPDEST POP PUSH1 0x20 DUP4 ADD MLOAD DUP5 DUP3 SUB PUSH1 0x20 DUP7 ADD MSTORE PUSH2 0x177F DUP3 DUP3 PUSH2 0x16D0 JUMP JUMPDEST SWAP2 POP POP PUSH1 0x40 DUP4 ADD MLOAD PUSH2 0x1794 PUSH1 0x40 DUP7 ADD DUP3 PUSH2 0x1709 JUMP JUMPDEST POP PUSH1 0x60 DUP4 ADD MLOAD PUSH2 0x17A7 PUSH1 0x60 DUP7 ADD DUP3 PUSH2 0x1718 JUMP JUMPDEST POP PUSH1 0x80 DUP4 ADD MLOAD PUSH2 0x17BA PUSH1 0x80 DUP7 ADD DUP3 PUSH2 0x1731 JUMP JUMPDEST POP PUSH1 0xA0 DUP4 ADD MLOAD PUSH2 0x17CD PUSH1 0xA0 DUP7 ADD DUP3 PUSH2 0x1740 JUMP JUMPDEST POP DUP1 SWAP2 POP POP SWAP3 SWAP2 POP POP JUMP JUMPDEST PUSH1 0x0 PUSH2 0x17E4 DUP4 DUP4 PUSH2 0x174F JUMP JUMPDEST SWAP1 POP SWAP3 SWAP2 POP POP JUMP JUMPDEST PUSH1 0x0 PUSH1 0x20 DUP3 ADD SWAP1 POP SWAP2 SWAP1 POP JUMP JUMPDEST PUSH1 0x0 PUSH2 0x1804 DUP3 PUSH2 0x1631 JUMP JUMPDEST PUSH2 0x180E DUP2 DUP6 PUSH2 0x163C JUMP JUMPDEST SWAP4 POP DUP4 PUSH1 0x20 DUP3 MUL DUP6 ADD PUSH2 0x1820 DUP6 PUSH2 0x164D JUMP JUMPDEST DUP1 PUSH1 0x0 JUMPDEST DUP6 DUP2 LT ISZERO PUSH2 0x185C JUMPI DUP5 DUP5 SUB DUP10 MSTORE DUP2 MLOAD PUSH2 0x183D DUP6 DUP3 PUSH2 0x17D8 JUMP JUMPDEST SWAP5 POP PUSH2 0x1848 DUP4 PUSH2 0x17EC JUMP JUMPDEST SWAP3 POP PUSH1 0x20 DUP11 ADD SWAP10 POP POP PUSH1 0x1 DUP2 ADD SWAP1 POP PUSH2 0x1824 JUMP JUMPDEST POP DUP3 SWAP8 POP DUP8 SWAP6 POP POP POP POP POP POP SWAP3 SWAP2 POP POP JUMP JUMPDEST PUSH1 0x0 PUSH1 0x40 DUP3 ADD SWAP1 POP PUSH2 0x1883 PUSH1 0x0 DUP4 ADD DUP6 PUSH2 0x1622 JUMP JUMPDEST DUP2 DUP2 SUB PUSH1 0x20 DUP4 ADD MSTORE PUSH2 0x1895 DUP2 DUP5 PUSH2 0x17F9 JUMP JUMPDEST SWAP1 POP SWAP4 SWAP3 POP POP POP JUMP JUMPDEST PUSH2 0x18A7 DUP2 PUSH2 0x1268 JUMP JUMPDEST DUP2 EQ PUSH2 0x18B2 JUMPI PUSH1 0x0 DUP1 REVERT JUMPDEST POP JUMP JUMPDEST PUSH1 0x0 DUP2 MLOAD SWAP1 POP PUSH2 0x18C4 DUP2 PUSH2 0x189E JUMP JUMPDEST SWAP3 SWAP2 POP POP JUMP JUMPDEST PUSH1 0x0 PUSH1 0x20 DUP3 DUP5 SUB SLT ISZERO PUSH2 0x18E0 JUMPI PUSH2 0x18DF PUSH2 0x11D3 JUMP JUMPDEST JUMPDEST PUSH1 0x0 PUSH2 0x18EE DUP5 DUP3 DUP6 ADD PUSH2 0x18B5 JUMP JUMPDEST SWAP2 POP POP SWAP3 SWAP2 POP POP JUMP JUMPDEST PUSH1 0x0 PUSH1 0x40 DUP3 ADD SWAP1 POP PUSH2 0x190C PUSH1 0x0 DUP4 ADD DUP6 PUSH2 0x1560 JUMP JUMPDEST PUSH2 0x1919 PUSH1 0x20 DUP4 ADD DUP5 PUSH2 0x119F JUMP JUMPDEST SWAP4 SWAP3 POP POP POP JUMP JUMPDEST PUSH1 0x0 PUSH1 0x20 DUP3 ADD SWAP1 POP PUSH2 0x1935 PUSH1 0x0 DUP4 ADD DUP5 PUSH2 0x1622 JUMP JUMPDEST SWAP3 SWAP2 POP POP JUMP JUMPDEST PUSH2 0x1944 DUP2 PUSH2 0x165D JUMP JUMPDEST DUP2 EQ PUSH2 0x194F JUMPI PUSH1 0x0 DUP1 REVERT JUMPDEST POP JUMP JUMPDEST PUSH1 0x0 DUP2 MLOAD SWAP1 POP PUSH2 0x1961 DUP2 PUSH2 0x193B JUMP JUMPDEST SWAP3 SWAP2 POP POP JUMP JUMPDEST PUSH1 0x0 DUP1 PUSH1 0x0 PUSH1 0x60 DUP5 DUP7 SUB SLT ISZERO PUSH2 0x1980 JUMPI PUSH2 0x197F PUSH2 0x11D3 JUMP JUMPDEST JUMPDEST PUSH1 0x0 PUSH2 0x198E DUP7 DUP3 DUP8 ADD PUSH2 0x18B5 JUMP JUMPDEST SWAP4 POP POP PUSH1 0x20 PUSH2 0x199F DUP7 DUP3 DUP8 ADD PUSH2 0x1952 JUMP JUMPDEST SWAP3 POP POP PUSH1 0x40 PUSH2 0x19B0 DUP7 DUP3 DUP8 ADD PUSH2 0x1952 JUMP JUMPDEST SWAP2 POP POP SWAP3 POP SWAP3 POP SWAP3 JUMP JUMPDEST PUSH32 0x4E487B7100000000000000000000000000000000000000000000000000000000 PUSH1 0x0 MSTORE PUSH1 0x32 PUSH1 0x4 MSTORE PUSH1 0x24 PUSH1 0x0 REVERT JUMPDEST PUSH32 0x6465706F73697446756E64730000000000000000000000000000000000000000 PUSH1 0x0 DUP3 ADD MSTORE POP JUMP JUMPDEST PUSH1 0x0 PUSH2 0x1A1F PUSH1 0xC DUP4 PUSH2 0x1118 JUMP JUMPDEST SWAP2 POP PUSH2 0x1A2A DUP3 PUSH2 0x19E9 JUMP JUMPDEST PUSH1 0x20 DUP3 ADD SWAP1 POP SWAP2 SWAP1 POP JUMP JUMPDEST PUSH1 0x0 PUSH1 0x20 DUP3 ADD SWAP1 POP DUP2 DUP2 SUB PUSH1 0x0 DUP4 ADD MSTORE PUSH2 0x1A4E DUP2 PUSH2 0x1A12 JUMP JUMPDEST SWAP1 POP SWAP2 SWAP1 POP JUMP JUMPDEST PUSH1 0x0 PUSH1 0x60 DUP3 ADD SWAP1 POP PUSH2 0x1A6A PUSH1 0x0 DUP4 ADD DUP7 PUSH2 0x1560 JUMP JUMPDEST PUSH2 0x1A77 PUSH1 0x20 DUP4 ADD DUP6 PUSH2 0x1560 JUMP JUMPDEST PUSH2 0x1A84 PUSH1 0x40 DUP4 ADD DUP5 PUSH2 0x119F JUMP JUMPDEST SWAP5 SWAP4 POP POP POP POP JUMP JUMPDEST PUSH1 0x0 DUP1 REVERT JUMPDEST PUSH1 0x0 DUP1 REVERT JUMPDEST PUSH1 0x0 DUP1 REVERT JUMPDEST PUSH1 0x0 DUP1 DUP4 CALLDATALOAD PUSH1 0x1 PUSH1 0x20 SUB DUP5 CALLDATASIZE SUB SUB DUP2 SLT PUSH2 0x1AB8 JUMPI PUSH2 0x1AB7 PUSH2 0x1A8C JUMP JUMPDEST JUMPDEST DUP1 DUP5 ADD SWAP3 POP DUP3 CALLDATALOAD SWAP2 POP PUSH8 0xFFFFFFFFFFFFFFFF DUP3 GT ISZERO PUSH2 0x1ADA JUMPI PUSH2 0x1AD9 PUSH2 0x1A91 JUMP JUMPDEST JUMPDEST PUSH1 0x20 DUP4 ADD SWAP3 POP PUSH1 0x1 DUP3 MUL CALLDATASIZE SUB DUP4 SGT ISZERO PUSH2 0x1AF6 JUMPI PUSH2 0x1AF5 PUSH2 0x1A96 JUMP JUMPDEST JUMPDEST POP SWAP3 POP SWAP3 SWAP1 POP JUMP JUMPDEST PUSH1 0x0 DUP3 SWAP1 POP SWAP3 SWAP2 POP POP JUMP JUMPDEST PUSH1 0x0 DUP3 DUP3 SHL SWAP1 POP SWAP3 SWAP2 POP POP JUMP JUMPDEST PUSH1 0x0 PUSH2 0x1B22 DUP4 DUP4 PUSH2 0x1AFE JUMP JUMPDEST DUP3 PUSH2 0x1B2D DUP2 CALLDATALOAD PUSH2 0x15F6 JUMP JUMPDEST SWAP3 POP PUSH1 0x4 DUP3 LT ISZERO PUSH2 0x1B6D JUMPI PUSH2 0x1B68 PUSH32 0xFFFFFFFF00000000000000000000000000000000000000000000000000000000 DUP4 PUSH1 0x4 SUB PUSH1 0x8 MUL PUSH2 0x1B09 JUMP JUMPDEST DUP4 AND SWAP3 POP JUMPDEST POP POP SWAP3 SWAP2 POP POP JUMP JUMPDEST PUSH32 0x4E487B7100000000000000000000000000000000000000000000000000000000 PUSH1 0x0 MSTORE PUSH1 0x41 PUSH1 0x4 MSTORE PUSH1 0x24 PUSH1 0x0 REVERT JUMPDEST PUSH2 0x1BAD DUP3 PUSH2 0x16BF JUMP JUMPDEST DUP2 ADD DUP2 DUP2 LT PUSH8 0xFFFFFFFFFFFFFFFF DUP3 GT OR ISZERO PUSH2 0x1BCC JUMPI PUSH2 0x1BCB PUSH2 0x1B75 JUMP JUMPDEST JUMPDEST DUP1 PUSH1 0x40 MSTORE POP POP POP JUMP JUMPDEST PUSH1 0x0 PUSH2 0x1BDF PUSH2 0x11C9 JUMP JUMPDEST SWAP1 POP PUSH2 0x1BEB DUP3 DUP3 PUSH2 0x1BA4 JUMP JUMPDEST SWAP2 SWAP1 POP JUMP JUMPDEST PUSH1 0x0 PUSH8 0xFFFFFFFFFFFFFFFF DUP3 GT ISZERO PUSH2 0x1C0B JUMPI PUSH2 0x1C0A PUSH2 0x1B75 JUMP JUMPDEST JUMPDEST PUSH1 0x20 DUP3 MUL SWAP1 POP PUSH1 0x20 DUP2 ADD SWAP1 POP SWAP2 SWAP1 POP JUMP JUMPDEST PUSH1 0x0 PUSH2 0x1C2F PUSH2 0x1C2A DUP5 PUSH2 0x1BF0 JUMP JUMPDEST PUSH2 0x1BD5 JUMP JUMPDEST SWAP1 POP DUP1 DUP4 DUP3 MSTORE PUSH1 0x20 DUP3 ADD SWAP1 POP PUSH1 0x20 DUP5 MUL DUP4 ADD DUP6 DUP2 GT ISZERO PUSH2 0x1C52 JUMPI PUSH2 0x1C51 PUSH2 0x1322 JUMP JUMPDEST JUMPDEST DUP4 JUMPDEST DUP2 DUP2 LT ISZERO PUSH2 0x1C7B JUMPI DUP1 PUSH2 0x1C67 DUP9 DUP3 PUSH2 0x1444 JUMP JUMPDEST DUP5 MSTORE PUSH1 0x20 DUP5 ADD SWAP4 POP POP PUSH1 0x20 DUP2 ADD SWAP1 POP PUSH2 0x1C54 JUMP JUMPDEST POP POP POP SWAP4 SWAP3 POP POP POP JUMP JUMPDEST PUSH1 0x0 DUP3 PUSH1 0x1F DUP4 ADD SLT PUSH2 0x1C9A JUMPI PUSH2 0x1C99 PUSH2 0x1318 JUMP JUMPDEST JUMPDEST DUP2 CALLDATALOAD PUSH2 0x1CAA DUP5 DUP3 PUSH1 0x20 DUP7 ADD PUSH2 0x1C1C JUMP JUMPDEST SWAP2 POP POP SWAP3 SWAP2 POP POP JUMP JUMPDEST PUSH1 0x0 PUSH1 0x20 DUP3 DUP5 SUB SLT ISZERO PUSH2 0x1CC9 JUMPI PUSH2 0x1CC8 PUSH2 0x11D3 JUMP JUMPDEST JUMPDEST PUSH1 0x0 DUP3 ADD CALLDATALOAD PUSH8 0xFFFFFFFFFFFFFFFF DUP2 GT ISZERO PUSH2 0x1CE7 JUMPI PUSH2 0x1CE6 PUSH2 0x11D8 JUMP JUMPDEST JUMPDEST PUSH2 0x1CF3 DUP5 DUP3 DUP6 ADD PUSH2 0x1C85 JUMP JUMPDEST SWAP2 POP POP SWAP3 SWAP2 POP POP JUMP JUMPDEST PUSH32 0x4E487B7100000000000000000000000000000000000000000000000000000000 PUSH1 0x0 MSTORE PUSH1 0x11 PUSH1 0x4 MSTORE PUSH1 0x24 PUSH1 0x0 REVERT JUMPDEST PUSH1 0x0 PUSH2 0x1D36 DUP3 PUSH2 0x1195 JUMP JUMPDEST SWAP2 POP PUSH2 0x1D41 DUP4 PUSH2 0x1195 JUMP JUMPDEST SWAP3 POP DUP3 DUP3 ADD SWAP1 POP DUP1 DUP3 GT ISZERO PUSH2 0x1D59 JUMPI PUSH2 0x1D58 PUSH2 0x1CFC JUMP JUMPDEST JUMPDEST SWAP3 SWAP2 POP POP JUMP JUMPDEST PUSH1 0x0 DUP1 REVERT JUMPDEST PUSH1 0x0 DUP1 REVERT JUMPDEST PUSH1 0x0 DUP1 DUP6 DUP6 GT ISZERO PUSH2 0x1D7D JUMPI PUSH2 0x1D7C PUSH2 0x1D5F JUMP JUMPDEST JUMPDEST DUP4 DUP7 GT ISZERO PUSH2 0x1D8E JUMPI PUSH2 0x1D8D PUSH2 0x1D64 JUMP JUMPDEST JUMPDEST PUSH1 0x1 DUP6 MUL DUP4 ADD SWAP2 POP DUP5 DUP7 SUB SWAP1 POP SWAP5 POP SWAP5 SWAP3 POP POP POP JUMP JUMPDEST PUSH1 0x0 PUSH2 0x1DAF DUP3 PUSH2 0x11DD JUMP JUMPDEST SWAP1 POP SWAP2 SWAP1 POP JUMP JUMPDEST PUSH2 0x1DBF DUP2 PUSH2 0x1DA4 JUMP JUMPDEST DUP2 EQ PUSH2 0x1DCA JUMPI PUSH1 0x0 DUP1 REVERT JUMPDEST POP JUMP JUMPDEST PUSH1 0x0 DUP2 CALLDATALOAD SWAP1 POP PUSH2 0x1DDC DUP2 PUSH2 0x1DB6 JUMP JUMPDEST SWAP3 SWAP2 POP POP JUMP JUMPDEST PUSH1 0x0 PUSH1 0x20 DUP3 DUP5 SUB SLT ISZERO PUSH2 0x1DF8 JUMPI PUSH2 0x1DF7 PUSH2 0x11D3 JUMP JUMPDEST JUMPDEST PUSH1 0x0 PUSH2 0x1E06 DUP5 DUP3 DUP6 ADD PUSH2 0x1DCD JUMP JUMPDEST SWAP2 POP POP SWAP3 SWAP2 POP POP JUMP JUMPDEST PUSH1 0x0 PUSH1 0x20 DUP3 DUP5 SUB SLT ISZERO PUSH2 0x1E25 JUMPI PUSH2 0x1E24 PUSH2 0x11D3 JUMP JUMPDEST JUMPDEST PUSH1 0x0 PUSH2 0x1E33 DUP5 DUP3 DUP6 ADD PUSH2 0x1444 JUMP JUMPDEST SWAP2 POP POP SWAP3 SWAP2 POP POP JUMP JUMPDEST PUSH2 0x1E45 DUP2 PUSH2 0x1727 JUMP JUMPDEST DUP2 EQ PUSH2 0x1E50 JUMPI PUSH1 0x0 DUP1 REVERT JUMPDEST POP JUMP JUMPDEST PUSH1 0x0 DUP2 CALLDATALOAD SWAP1 POP PUSH2 0x1E62 DUP2 PUSH2 0x1E3C JUMP JUMPDEST SWAP3 SWAP2 POP POP JUMP JUMPDEST PUSH1 0x0 PUSH1 0x20 DUP3 DUP5 SUB SLT ISZERO PUSH2 0x1E7E JUMPI PUSH2 0x1E7D PUSH2 0x11D3 JUMP JUMPDEST JUMPDEST PUSH1 0x0 PUSH2 0x1E8C DUP5 DUP3 DUP6 ADD PUSH2 0x1E53 JUMP JUMPDEST SWAP2 POP POP SWAP3 SWAP2 POP POP JUMP JUMPDEST PUSH1 0x0 DUP2 CALLDATALOAD SWAP1 POP PUSH2 0x1EA4 DUP2 PUSH2 0x189E JUMP JUMPDEST SWAP3 SWAP2 POP POP JUMP JUMPDEST PUSH1 0x0 PUSH1 0x20 DUP3 DUP5 SUB SLT ISZERO PUSH2 0x1EC0 JUMPI PUSH2 0x1EBF PUSH2 0x11D3 JUMP JUMPDEST JUMPDEST PUSH1 0x0 PUSH2 0x1ECE DUP5 DUP3 DUP6 ADD PUSH2 0x1E95 JUMP JUMPDEST SWAP2 POP POP SWAP3 SWAP2 POP POP JUMP JUMPDEST PUSH1 0x0 DUP1 REVERT JUMPDEST PUSH1 0x0 PUSH8 0xFFFFFFFFFFFFFFFF DUP3 GT ISZERO PUSH2 0x1EF7 JUMPI PUSH2 0x1EF6 PUSH2 0x1B75 JUMP JUMPDEST JUMPDEST PUSH2 0x1F00 DUP3 PUSH2 0x16BF JUMP JUMPDEST SWAP1 POP PUSH1 0x20 DUP2 ADD SWAP1 POP SWAP2 SWAP1 POP JUMP JUMPDEST DUP3 DUP2 DUP4 CALLDATACOPY PUSH1 0x0 DUP4 DUP4 ADD MSTORE POP POP POP JUMP JUMPDEST PUSH1 0x0 PUSH2 0x1F2F PUSH2 0x1F2A DUP5 PUSH2 0x1EDC JUMP JUMPDEST PUSH2 0x1BD5 JUMP JUMPDEST SWAP1 POP DUP3 DUP2 MSTORE PUSH1 0x20 DUP2 ADD DUP5 DUP5 DUP5 ADD GT ISZERO PUSH2 0x1F4B JUMPI PUSH2 0x1F4A PUSH2 0x1ED7 JUMP JUMPDEST JUMPDEST PUSH2 0x1F56 DUP5 DUP3 DUP6 PUSH2 0x1F0D JUMP JUMPDEST POP SWAP4 SWAP3 POP POP POP JUMP JUMPDEST PUSH1 0x0 DUP3 PUSH1 0x1F DUP4 ADD SLT PUSH2 0x1F73 JUMPI PUSH2 0x1F72 PUSH2 0x1318 JUMP JUMPDEST JUMPDEST DUP2 CALLDATALOAD PUSH2 0x1F83 DUP5 DUP3 PUSH1 0x20 DUP7 ADD PUSH2 0x1F1C JUMP JUMPDEST SWAP2 POP POP SWAP3 SWAP2 POP POP JUMP JUMPDEST PUSH1 0x0 PUSH1 0x20 DUP3 DUP5 SUB SLT ISZERO PUSH2 0x1FA2 JUMPI PUSH2 0x1FA1 PUSH2 0x11D3 JUMP JUMPDEST JUMPDEST PUSH1 0x0 DUP3 ADD CALLDATALOAD PUSH8 0xFFFFFFFFFFFFFFFF DUP2 GT ISZERO PUSH2 0x1FC0 JUMPI PUSH2 0x1FBF PUSH2 0x11D8 JUMP JUMPDEST JUMPDEST PUSH2 0x1FCC DUP5 DUP3 DUP6 ADD PUSH2 0x1F5E JUMP JUMPDEST SWAP2 POP POP SWAP3 SWAP2 POP POP JUMP JUMPDEST PUSH32 0x646174614465636F646572000000000000000000000000000000000000000000 PUSH1 0x0 DUP3 ADD MSTORE POP JUMP JUMPDEST PUSH1 0x0 PUSH2 0x200B PUSH1 0xB DUP4 PUSH2 0x1118 JUMP JUMPDEST SWAP2 POP PUSH2 0x2016 DUP3 PUSH2 0x1FD5 JUMP JUMPDEST PUSH1 0x20 DUP3 ADD SWAP1 POP SWAP2 SWAP1 POP JUMP JUMPDEST PUSH1 0x0 PUSH1 0x20 DUP3 ADD SWAP1 POP DUP2 DUP2 SUB PUSH1 0x0 DUP4 ADD MSTORE PUSH2 0x203A DUP2 PUSH2 0x1FFE JUMP JUMPDEST SWAP1 POP SWAP2 SWAP1 POP JUMP INVALID LOG2 PUSH5 0x6970667358 0x22 SLT KECCAK256 DIFFICULTY EXP 0x29 SGT 0x2C DUP7 GT 0xEC DUP4 CALL 0xCE BLOCKHASH BLOCKHASH DUP11 PUSH9 0x468B0CF8CA8F0D6E5F 0xC 0x23 DUP4 SWAP5 SLT MSTORE8 0xD9 0xC3 PUSH5 0x736F6C6343 STOP ADDMOD XOR STOP CALLER "
		},
		"gasEstimates": {
			"creation": {
				"codeDepositCost": "1662200",
				"executionCost": "infinite",
				"totalCost": "infinite"
			},
			"external": {
				"defiAction(bytes[],address)": "infinite",
				"depositFunds(address,uint256)": "infinite",
				"extraDefiActions(bytes[],address,address)": "infinite",
				"functions()": "infinite",
				"owners(address)": "2846",
				"roles()": "infinite",
				"wEth()": "2580",
				"withdrawFunds(address,uint256,address,address)": "infinite"
			},
			"internal": {
				"approve(address,uint256)": "infinite"
			}
		},
		"methodIdentifiers": {
			"defiAction(bytes[],address)": "6d070f4b",
			"depositFunds(address,uint256)": "921b004b",
			"extraDefiActions(bytes[],address,address)": "53a0f7b6",
			"functions()": "569560e8",
			"owners(address)": "022914a7",
			"roles()": "392f5f64",
			"wEth()": "df6d9212",
			"withdrawFunds(address,uint256,address,address)": "6ba3fef2"
		}
	},
	"abi": [
		{
			"inputs": [
				{
					"internalType": "address",
					"name": "_owner",
					"type": "address"
				},
				{
					"internalType": "address",
					"name": "_secondOwner",
					"type": "address"
				},
				{
					"internalType": "address",
					"name": "_funct",
					"type": "address"
				},
				{
					"internalType": "address",
					"name": "_roles",
					"type": "address"
				},
				{
					"internalType": "address",
					"name": "_wEth",
					"type": "address"
				}
			],
			"stateMutability": "nonpayable",
			"type": "constructor"
		},
		{
			"inputs": [
				{
					"internalType": "string",
					"name": "functionName",
					"type": "string"
				}
			],
			"name": "InvalidParams",
			"type": "error"
		},
		{
			"inputs": [
				{
					"internalType": "string",
					"name": "functionName",
					"type": "string"
				}
			],
			"name": "InvalidParams",
			"type": "error"
		},
		{
			"inputs": [
				{
					"internalType": "uint256",
					"name": "totalParms",
					"type": "uint256"
				}
			],
			"name": "MaxParamsReached",
			"type": "error"
		},
		{
			"anonymous": false,
			"inputs": [
				{
					"indexed": false,
					"internalType": "address",
					"name": "token",
					"type": "address"
				},
				{
					"indexed": false,
					"internalType": "uint256",
					"name": "value",
					"type": "uint256"
				}
			],
			"name": "ContractFunded",
			"type": "event"
		},
		{
			"anonymous": false,
			"inputs": [
				{
					"indexed": false,
					"internalType": "bytes4",
					"name": "functionSelector",
					"type": "bytes4"
				},
				{
					"components": [
						{
							"internalType": "uint8",
							"name": "_type",
							"type": "uint8"
						},
						{
							"internalType": "bytes",
							"name": "v",
							"type": "bytes"
						},
						{
							"internalType": "address",
							"name": "w",
							"type": "address"
						},
						{
							"internalType": "uint256",
							"name": "x",
							"type": "uint256"
						},
						{
							"internalType": "int256",
							"name": "y",
							"type": "int256"
						},
						{
							"internalType": "bool",
							"name": "z",
							"type": "bool"
						}
					],
					"indexed": false,
					"internalType": "struct ParamManagerLib.DeFiParam[]",
					"name": "params",
					"type": "tuple[]"
				}
			],
			"name": "DeFiActionExecuted",
			"type": "event"
		},
		{
			"anonymous": false,
			"inputs": [
				{
					"indexed": true,
					"internalType": "address",
					"name": "sender",
					"type": "address"
				},
				{
					"indexed": false,
					"internalType": "uint256",
					"name": "amount",
					"type": "uint256"
				}
			],
			"name": "EtherReceived",
			"type": "event"
		},
		{
			"inputs": [
				{
					"internalType": "bytes[]",
					"name": "_actionData",
					"type": "bytes[]"
				},
				{
					"internalType": "address",
					"name": "_signer",
					"type": "address"
				}
			],
			"name": "defiAction",
			"outputs": [
				{
					"internalType": "bool",
					"name": "",
					"type": "bool"
				}
			],
			"stateMutability": "payable",
			"type": "function"
		},
		{
			"inputs": [
				{
					"internalType": "address",
					"name": "_token",
					"type": "address"
				},
				{
					"internalType": "uint256",
					"name": "_value",
					"type": "uint256"
				}
			],
			"name": "depositFunds",
			"outputs": [],
			"stateMutability": "payable",
			"type": "function"
		},
		{
			"inputs": [
				{
					"internalType": "bytes[]",
					"name": "_data",
					"type": "bytes[]"
				},
				{
					"internalType": "address",
					"name": "_signer",
					"type": "address"
				},
				{
					"internalType": "address",
					"name": "_customizedContract",
					"type": "address"
				}
			],
			"name": "extraDefiActions",
			"outputs": [],
			"stateMutability": "payable",
			"type": "function"
		},
		{
			"inputs": [],
			"name": "functions",
			"outputs": [
				{
					"internalType": "contract IFunctions",
					"name": "",
					"type": "address"
				}
			],
			"stateMutability": "view",
			"type": "function"
		},
		{
			"inputs": [
				{
					"internalType": "address",
					"name": "",
					"type": "address"
				}
			],
			"name": "owners",
			"outputs": [
				{
					"internalType": "bool",
					"name": "",
					"type": "bool"
				}
			],
			"stateMutability": "view",
			"type": "function"
		},
		{
			"inputs": [],
			"name": "roles",
			"outputs": [
				{
					"internalType": "contract Roles",
					"name": "",
					"type": "address"
				}
			],
			"stateMutability": "view",
			"type": "function"
		},
		{
			"inputs": [],
			"name": "wEth",
			"outputs": [
				{
					"internalType": "address",
					"name": "",
					"type": "address"
				}
			],
			"stateMutability": "view",
			"type": "function"
		},
		{
			"inputs": [
				{
					"internalType": "address",
					"name": "_token",
					"type": "address"
				},
				{
					"internalType": "uint256",
					"name": "_value",
					"type": "uint256"
				},
				{
					"internalType": "address",
					"name": "_signer",
					"type": "address"
				},
				{
					"internalType": "address",
					"name": "_recipient",
					"type": "address"
				}
			],
			"name": "withdrawFunds",
			"outputs": [],
			"stateMutability": "nonpayable",
			"type": "function"
		},
		{
			"stateMutability": "payable",
			"type": "receive"
		}
	]
}